{
  "_format": "hh-sol-artifact-1",
  "contractName": "GraviPoolNFT",
  "sourceName": "contracts/tokens/GraviPoolNFT.sol",
  "abi": [
    {
      "inputs": [
        {
          "internalType": "address",
          "name": "_graviCha",
          "type": "address"
        }
      ],
      "stateMutability": "nonpayable",
      "type": "constructor"
    },
    {
      "inputs": [
        {
          "internalType": "address",
          "name": "sender",
          "type": "address"
        },
        {
          "internalType": "uint256",
          "name": "tokenId",
          "type": "uint256"
        },
        {
          "internalType": "address",
          "name": "owner",
          "type": "address"
        }
      ],
      "name": "ERC721IncorrectOwner",
      "type": "error"
    },
    {
      "inputs": [
        {
          "internalType": "address",
          "name": "operator",
          "type": "address"
        },
        {
          "internalType": "uint256",
          "name": "tokenId",
          "type": "uint256"
        }
      ],
      "name": "ERC721InsufficientApproval",
      "type": "error"
    },
    {
      "inputs": [
        {
          "internalType": "address",
          "name": "approver",
          "type": "address"
        }
      ],
      "name": "ERC721InvalidApprover",
      "type": "error"
    },
    {
      "inputs": [
        {
          "internalType": "address",
          "name": "operator",
          "type": "address"
        }
      ],
      "name": "ERC721InvalidOperator",
      "type": "error"
    },
    {
      "inputs": [
        {
          "internalType": "address",
          "name": "owner",
          "type": "address"
        }
      ],
      "name": "ERC721InvalidOwner",
      "type": "error"
    },
    {
      "inputs": [
        {
          "internalType": "address",
          "name": "receiver",
          "type": "address"
        }
      ],
      "name": "ERC721InvalidReceiver",
      "type": "error"
    },
    {
      "inputs": [
        {
          "internalType": "address",
          "name": "sender",
          "type": "address"
        }
      ],
      "name": "ERC721InvalidSender",
      "type": "error"
    },
    {
      "inputs": [
        {
          "internalType": "uint256",
          "name": "tokenId",
          "type": "uint256"
        }
      ],
      "name": "ERC721NonexistentToken",
      "type": "error"
    },
    {
      "inputs": [
        {
          "internalType": "address",
          "name": "owner",
          "type": "address"
        }
      ],
      "name": "OwnableInvalidOwner",
      "type": "error"
    },
    {
      "inputs": [
        {
          "internalType": "address",
          "name": "account",
          "type": "address"
        }
      ],
      "name": "OwnableUnauthorizedAccount",
      "type": "error"
    },
    {
      "inputs": [],
      "name": "ReentrancyGuardReentrantCall",
      "type": "error"
    },
    {
      "anonymous": false,
      "inputs": [
        {
          "indexed": true,
          "internalType": "address",
          "name": "owner",
          "type": "address"
        },
        {
          "indexed": true,
          "internalType": "address",
          "name": "approved",
          "type": "address"
        },
        {
          "indexed": true,
          "internalType": "uint256",
          "name": "tokenId",
          "type": "uint256"
        }
      ],
      "name": "Approval",
      "type": "event"
    },
    {
      "anonymous": false,
      "inputs": [
        {
          "indexed": true,
          "internalType": "address",
          "name": "owner",
          "type": "address"
        },
        {
          "indexed": true,
          "internalType": "address",
          "name": "operator",
          "type": "address"
        },
        {
          "indexed": false,
          "internalType": "bool",
          "name": "approved",
          "type": "bool"
        }
      ],
      "name": "ApprovalForAll",
      "type": "event"
    },
    {
      "anonymous": false,
      "inputs": [
        {
          "indexed": false,
          "internalType": "uint256",
          "name": "tokenId",
          "type": "uint256"
        },
        {
          "indexed": false,
          "internalType": "address",
          "name": "bidder",
          "type": "address"
        },
        {
          "indexed": false,
          "internalType": "uint256",
          "name": "bid",
          "type": "uint256"
        }
      ],
      "name": "AuctionBid",
      "type": "event"
    },
    {
      "anonymous": false,
      "inputs": [
        {
          "indexed": false,
          "internalType": "uint256",
          "name": "tokenId",
          "type": "uint256"
        },
        {
          "indexed": false,
          "internalType": "address",
          "name": "winner",
          "type": "address"
        },
        {
          "indexed": false,
          "internalType": "uint256",
          "name": "bid",
          "type": "uint256"
        }
      ],
      "name": "AuctionEnded",
      "type": "event"
    },
    {
      "anonymous": false,
      "inputs": [
        {
          "indexed": false,
          "internalType": "uint256",
          "name": "tokenId",
          "type": "uint256"
        },
        {
          "indexed": false,
          "internalType": "uint256",
          "name": "startTime",
          "type": "uint256"
        }
      ],
      "name": "AuctionStarted",
      "type": "event"
    },
    {
      "anonymous": false,
      "inputs": [
        {
          "indexed": false,
          "internalType": "uint256",
          "name": "_fromTokenId",
          "type": "uint256"
        },
        {
          "indexed": false,
          "internalType": "uint256",
          "name": "_toTokenId",
          "type": "uint256"
        }
      ],
      "name": "BatchMetadataUpdate",
      "type": "event"
    },
    {
      "anonymous": false,
      "inputs": [
        {
          "indexed": false,
          "internalType": "uint256",
          "name": "_tokenId",
          "type": "uint256"
        }
      ],
      "name": "MetadataUpdate",
      "type": "event"
    },
    {
      "anonymous": false,
      "inputs": [
        {
          "indexed": true,
          "internalType": "address",
          "name": "previousOwner",
          "type": "address"
        },
        {
          "indexed": true,
          "internalType": "address",
          "name": "newOwner",
          "type": "address"
        }
      ],
      "name": "OwnershipTransferred",
      "type": "event"
    },
    {
      "anonymous": false,
      "inputs": [
        {
          "indexed": true,
          "internalType": "address",
          "name": "from",
          "type": "address"
        },
        {
          "indexed": true,
          "internalType": "address",
          "name": "to",
          "type": "address"
        },
        {
          "indexed": true,
          "internalType": "uint256",
          "name": "tokenId",
          "type": "uint256"
        }
      ],
      "name": "Transfer",
      "type": "event"
    },
    {
      "inputs": [
        {
          "internalType": "address",
          "name": "treasury",
          "type": "address"
        }
      ],
      "name": "addTreasuryAddress",
      "outputs": [],
      "stateMutability": "nonpayable",
      "type": "function"
    },
    {
      "inputs": [
        {
          "internalType": "address",
          "name": "to",
          "type": "address"
        },
        {
          "internalType": "uint256",
          "name": "tokenId",
          "type": "uint256"
        }
      ],
      "name": "approve",
      "outputs": [],
      "stateMutability": "nonpayable",
      "type": "function"
    },
    {
      "inputs": [],
      "name": "auctionDuration",
      "outputs": [
        {
          "internalType": "uint256",
          "name": "",
          "type": "uint256"
        }
      ],
      "stateMutability": "view",
      "type": "function"
    },
    {
      "inputs": [
        {
          "internalType": "uint256",
          "name": "",
          "type": "uint256"
        }
      ],
      "name": "auctions",
      "outputs": [
        {
          "internalType": "uint256",
          "name": "tokenId",
          "type": "uint256"
        },
        {
          "internalType": "address",
          "name": "highestBidder",
          "type": "address"
        },
        {
          "internalType": "uint256",
          "name": "highestBid",
          "type": "uint256"
        },
        {
          "internalType": "bool",
          "name": "ended",
          "type": "bool"
        },
        {
          "internalType": "uint256",
          "name": "startTime",
          "type": "uint256"
        }
      ],
      "stateMutability": "view",
      "type": "function"
    },
    {
      "inputs": [
        {
          "internalType": "address",
          "name": "owner",
          "type": "address"
        }
      ],
      "name": "balanceOf",
      "outputs": [
        {
          "internalType": "uint256",
          "name": "",
          "type": "uint256"
        }
      ],
      "stateMutability": "view",
      "type": "function"
    },
    {
      "inputs": [
        {
          "internalType": "uint256",
          "name": "tokenId",
          "type": "uint256"
        },
        {
          "internalType": "uint256",
          "name": "bidAmount",
          "type": "uint256"
        }
      ],
      "name": "bid",
      "outputs": [],
      "stateMutability": "nonpayable",
      "type": "function"
    },
    {
      "inputs": [
        {
          "internalType": "uint256",
          "name": "tokenId",
          "type": "uint256"
        }
      ],
      "name": "burn",
      "outputs": [],
      "stateMutability": "nonpayable",
      "type": "function"
    },
    {
      "inputs": [
        {
          "internalType": "uint256",
          "name": "amount",
          "type": "uint256"
        }
      ],
      "name": "burnExcessTokens",
      "outputs": [],
      "stateMutability": "nonpayable",
      "type": "function"
    },
    {
      "inputs": [
        {
          "internalType": "uint256",
          "name": "tokenId",
          "type": "uint256"
        }
      ],
      "name": "claimNFT",
      "outputs": [],
      "stateMutability": "nonpayable",
      "type": "function"
    },
    {
      "inputs": [
        {
          "internalType": "uint256",
          "name": "tokenId",
          "type": "uint256"
        }
      ],
      "name": "forceEndAuction",
      "outputs": [],
      "stateMutability": "nonpayable",
      "type": "function"
    },
    {
      "inputs": [
        {
          "internalType": "uint256",
          "name": "tokenId",
          "type": "uint256"
        }
      ],
      "name": "getApproved",
      "outputs": [
        {
          "internalType": "address",
          "name": "",
          "type": "address"
        }
      ],
      "stateMutability": "view",
      "type": "function"
    },
    {
      "inputs": [
        {
          "internalType": "uint256",
          "name": "tokenId",
          "type": "uint256"
        }
      ],
      "name": "getAuctionDetails",
      "outputs": [
        {
          "internalType": "uint256",
          "name": "auctionedTokenId",
          "type": "uint256"
        },
        {
          "internalType": "address",
          "name": "highestBidder",
          "type": "address"
        },
        {
          "internalType": "uint256",
          "name": "highestBid",
          "type": "uint256"
        },
        {
          "internalType": "bool",
          "name": "ended",
          "type": "bool"
        },
        {
          "internalType": "uint256",
          "name": "startTime",
          "type": "uint256"
        }
      ],
      "stateMutability": "view",
      "type": "function"
    },
    {
      "inputs": [],
      "name": "getAuctionedNFTs",
      "outputs": [
        {
          "internalType": "uint256[]",
          "name": "",
          "type": "uint256[]"
        }
      ],
      "stateMutability": "view",
      "type": "function"
    },
    {
      "inputs": [
        {
          "internalType": "uint256",
          "name": "tokenId",
          "type": "uint256"
        }
      ],
      "name": "getTreasuryAddress",
      "outputs": [
        {
          "internalType": "address",
          "name": "",
          "type": "address"
        }
      ],
      "stateMutability": "view",
      "type": "function"
    },
    {
      "inputs": [],
      "name": "getTreasuryAddresses",
      "outputs": [
        {
          "internalType": "address[]",
          "name": "",
          "type": "address[]"
        }
      ],
      "stateMutability": "view",
      "type": "function"
    },
    {
      "inputs": [
        {
          "internalType": "address",
          "name": "treasuryAddress",
          "type": "address"
        }
      ],
      "name": "getTreasuryIndexByAddress",
      "outputs": [
        {
          "internalType": "uint8",
          "name": "",
          "type": "uint8"
        }
      ],
      "stateMutability": "view",
      "type": "function"
    },
    {
      "inputs": [],
      "name": "graviCha",
      "outputs": [
        {
          "internalType": "contract IGraviCha",
          "name": "",
          "type": "address"
        }
      ],
      "stateMutability": "view",
      "type": "function"
    },
    {
      "inputs": [
        {
          "internalType": "address",
          "name": "owner",
          "type": "address"
        },
        {
          "internalType": "address",
          "name": "operator",
          "type": "address"
        }
      ],
      "name": "isApprovedForAll",
      "outputs": [
        {
          "internalType": "bool",
          "name": "",
          "type": "bool"
        }
      ],
      "stateMutability": "view",
      "type": "function"
    },
    {
      "inputs": [
        {
          "internalType": "string[]",
          "name": "tokenURIs",
          "type": "string[]"
        },
        {
          "internalType": "address[]",
          "name": "insuranceAddresses",
          "type": "address[]"
        }
      ],
      "name": "mintAndAuctionNFTs",
      "outputs": [],
      "stateMutability": "nonpayable",
      "type": "function"
    },
    {
      "inputs": [
        {
          "internalType": "address",
          "name": "poolAddress",
          "type": "address"
        },
        {
          "internalType": "uint8",
          "name": "treasuryIndex",
          "type": "uint8"
        },
        {
          "internalType": "string",
          "name": "tokenURI",
          "type": "string"
        }
      ],
      "name": "mintToPool",
      "outputs": [
        {
          "internalType": "uint256",
          "name": "",
          "type": "uint256"
        }
      ],
      "stateMutability": "nonpayable",
      "type": "function"
    },
    {
      "inputs": [],
      "name": "name",
      "outputs": [
        {
          "internalType": "string",
          "name": "",
          "type": "string"
        }
      ],
      "stateMutability": "view",
      "type": "function"
    },
    {
      "inputs": [
        {
          "internalType": "address",
          "name": "",
          "type": "address"
        },
        {
          "internalType": "address",
          "name": "",
          "type": "address"
        },
        {
          "internalType": "uint256",
          "name": "",
          "type": "uint256"
        },
        {
          "internalType": "bytes",
          "name": "",
          "type": "bytes"
        }
      ],
      "name": "onERC721Received",
      "outputs": [
        {
          "internalType": "bytes4",
          "name": "",
          "type": "bytes4"
        }
      ],
      "stateMutability": "pure",
      "type": "function"
    },
    {
      "inputs": [],
      "name": "owner",
      "outputs": [
        {
          "internalType": "address",
          "name": "",
          "type": "address"
        }
      ],
      "stateMutability": "view",
      "type": "function"
    },
    {
      "inputs": [
        {
          "internalType": "uint256",
          "name": "tokenId",
          "type": "uint256"
        }
      ],
      "name": "ownerOf",
      "outputs": [
        {
          "internalType": "address",
          "name": "",
          "type": "address"
        }
      ],
      "stateMutability": "view",
      "type": "function"
    },
    {
      "inputs": [
        {
          "internalType": "address",
          "name": "",
          "type": "address"
        }
      ],
      "name": "pendingReturns",
      "outputs": [
        {
          "internalType": "uint256",
          "name": "",
          "type": "uint256"
        }
      ],
      "stateMutability": "view",
      "type": "function"
    },
    {
      "inputs": [],
      "name": "renounceOwnership",
      "outputs": [],
      "stateMutability": "nonpayable",
      "type": "function"
    },
    {
      "inputs": [
        {
          "internalType": "address",
          "name": "from",
          "type": "address"
        },
        {
          "internalType": "address",
          "name": "to",
          "type": "address"
        },
        {
          "internalType": "uint256",
          "name": "tokenId",
          "type": "uint256"
        }
      ],
      "name": "safeTransferFrom",
      "outputs": [],
      "stateMutability": "nonpayable",
      "type": "function"
    },
    {
      "inputs": [
        {
          "internalType": "address",
          "name": "from",
          "type": "address"
        },
        {
          "internalType": "address",
          "name": "to",
          "type": "address"
        },
        {
          "internalType": "uint256",
          "name": "tokenId",
          "type": "uint256"
        },
        {
          "internalType": "bytes",
          "name": "data",
          "type": "bytes"
        }
      ],
      "name": "safeTransferFrom",
      "outputs": [],
      "stateMutability": "nonpayable",
      "type": "function"
    },
    {
      "inputs": [
        {
          "internalType": "address",
          "name": "operator",
          "type": "address"
        },
        {
          "internalType": "bool",
          "name": "approved",
          "type": "bool"
        }
      ],
      "name": "setApprovalForAll",
      "outputs": [],
      "stateMutability": "nonpayable",
      "type": "function"
    },
    {
      "inputs": [
        {
          "internalType": "uint256",
          "name": "_auctionDuration",
          "type": "uint256"
        }
      ],
      "name": "setAuctionDuration",
      "outputs": [],
      "stateMutability": "nonpayable",
      "type": "function"
    },
    {
      "inputs": [
        {
          "internalType": "address",
          "name": "_token",
          "type": "address"
        }
      ],
      "name": "setToken",
      "outputs": [],
      "stateMutability": "nonpayable",
      "type": "function"
    },
    {
      "inputs": [
        {
          "internalType": "uint256",
          "name": "_transferFee",
          "type": "uint256"
        }
      ],
      "name": "setTransferFee",
      "outputs": [],
      "stateMutability": "nonpayable",
      "type": "function"
    },
    {
      "inputs": [
        {
          "internalType": "uint8",
          "name": "index",
          "type": "uint8"
        },
        {
          "internalType": "address",
          "name": "treasury",
          "type": "address"
        }
      ],
      "name": "setTreasuryAddress",
      "outputs": [],
      "stateMutability": "nonpayable",
      "type": "function"
    },
    {
      "inputs": [
        {
          "internalType": "bytes4",
          "name": "interfaceId",
          "type": "bytes4"
        }
      ],
      "name": "supportsInterface",
      "outputs": [
        {
          "internalType": "bool",
          "name": "",
          "type": "bool"
        }
      ],
      "stateMutability": "view",
      "type": "function"
    },
    {
      "inputs": [],
      "name": "symbol",
      "outputs": [
        {
          "internalType": "string",
          "name": "",
          "type": "string"
        }
      ],
      "stateMutability": "view",
      "type": "function"
    },
    {
      "inputs": [
        {
          "internalType": "uint256",
          "name": "",
          "type": "uint256"
        }
      ],
      "name": "tokenDonations",
      "outputs": [
        {
          "internalType": "uint256",
          "name": "",
          "type": "uint256"
        }
      ],
      "stateMutability": "view",
      "type": "function"
    },
    {
      "inputs": [
        {
          "internalType": "uint256",
          "name": "",
          "type": "uint256"
        }
      ],
      "name": "tokenTreasuryIndex",
      "outputs": [
        {
          "internalType": "uint8",
          "name": "",
          "type": "uint8"
        }
      ],
      "stateMutability": "view",
      "type": "function"
    },
    {
      "inputs": [
        {
          "internalType": "uint256",
          "name": "tokenId",
          "type": "uint256"
        }
      ],
      "name": "tokenURI",
      "outputs": [
        {
          "internalType": "string",
          "name": "",
          "type": "string"
        }
      ],
      "stateMutability": "view",
      "type": "function"
    },
    {
      "inputs": [],
      "name": "transferFee",
      "outputs": [
        {
          "internalType": "uint256",
          "name": "",
          "type": "uint256"
        }
      ],
      "stateMutability": "view",
      "type": "function"
    },
    {
      "inputs": [
        {
          "internalType": "address",
          "name": "from",
          "type": "address"
        },
        {
          "internalType": "address",
          "name": "to",
          "type": "address"
        },
        {
          "internalType": "uint256",
          "name": "tokenId",
          "type": "uint256"
        }
      ],
      "name": "transferFrom",
      "outputs": [],
      "stateMutability": "nonpayable",
      "type": "function"
    },
    {
      "inputs": [
        {
          "internalType": "address",
          "name": "newOwner",
          "type": "address"
        }
      ],
      "name": "transferOwnership",
      "outputs": [],
      "stateMutability": "nonpayable",
      "type": "function"
    },
    {
      "inputs": [
        {
          "internalType": "address",
          "name": "from",
          "type": "address"
        },
        {
          "internalType": "address",
          "name": "to",
          "type": "address"
        },
        {
          "internalType": "uint256",
          "name": "tokenId",
          "type": "uint256"
        }
      ],
      "name": "transferWithDonation",
      "outputs": [],
      "stateMutability": "payable",
      "type": "function"
    },
    {
      "inputs": [
        {
          "internalType": "address",
          "name": "from",
          "type": "address"
        },
        {
          "internalType": "address",
          "name": "to",
          "type": "address"
        },
        {
          "internalType": "uint256",
          "name": "tokenId",
          "type": "uint256"
        }
      ],
      "name": "transferWithFee",
      "outputs": [],
      "stateMutability": "payable",
      "type": "function"
    },
    {
      "inputs": [
        {
          "internalType": "uint256",
          "name": "",
          "type": "uint256"
        }
      ],
      "name": "treasuries",
      "outputs": [
        {
          "internalType": "address",
          "name": "",
          "type": "address"
        }
      ],
      "stateMutability": "view",
      "type": "function"
    },
    {
      "inputs": [],
      "name": "withdraw",
      "outputs": [],
      "stateMutability": "nonpayable",
      "type": "function"
    }
  ],
  "bytecode": "0x6080604052346103cc57612c886020813803918261001c816103d1565b9384928339810103126103cc57516001600160a01b038116908190036103cc5761004660406103d1565b90600c82526b11dc985d9a541bdbdb13919560a21b602083015261006a60406103d1565b600681526511d49053919560d21b602082015282519091906001600160401b0381116102d757600054600181811c911680156103c2575b60208210146102b757601f811161035e575b506020601f82116001146102f857819293946000926102ed575b50508160011b916000199060031b1c1916176000555b81516001600160401b0381116102d757600154600181811c911680156102cd575b60208210146102b757601f8111610252575b50602092601f82116001146101ed57928192936000926101e2575b50508160011b916000199060031b1c1916176001555b33156101cc5760078054336001600160a01b0319821681179092556040519291906001600160a01b03167f8be0079c531659141344cd1fd0a4f28419497f9722a3daafe3b4186f6b6457e0600080a3600160085562093a80600a556509184e72a000600b55600c80546001600160a01b03191691909117905561289190816103f78239f35b631e4fbdf760e01b600052600060045260246000fd5b015190503880610131565b601f198216936001600052806000209160005b86811061023a5750836001959610610221575b505050811b01600155610147565b015160001960f88460031b161c19169055388080610213565b91926020600181928685015181550194019201610200565b60016000527fb10e2d527612073b26eecdfd717e6a320cf44b4afac2b0732d9fcbe2b7fa0cf6601f830160051c810191602084106102ad575b601f0160051c01905b8181106102a15750610116565b60008155600101610294565b909150819061028b565b634e487b7160e01b600052602260045260246000fd5b90607f1690610104565b634e487b7160e01b600052604160045260246000fd5b0151905038806100cd565b601f1982169060008052806000209160005b8181106103465750958360019596971061032d575b505050811b016000556100e3565b015160001960f88460031b161c1916905538808061031f565b9192602060018192868b01518155019401920161030a565b600080527f290decd9548b62a8d60345a988386fc84ba6bc95484008f6362f93160ef3e563601f830160051c810191602084106103b8575b601f0160051c01905b8181106103ac57506100b3565b6000815560010161039f565b9091508190610396565b90607f16906100a1565b600080fd5b6040519190601f01601f191682016001600160401b038111838210176102d75760405256fe608080604052600436101561001357600080fd5b600090813560e01c90816301ffc9a7146119a45750806306fdde031461191c578063081812fc146118fd578063095ea7b3146118155780630cbf54c8146117f7578063144fa6d7146117b2578063150b7a021461174257806323b872dd1461172a57806326b387bb146116f1578063326e28dc146116bc57806334b836f21461142f5780633ccfd60b1461134257806342842e0e1461132a57806342966c6814611305578063435cd7e0146112d6578063571a26a014611283578063598647f81461107e5780636352211e1461104d57806370a0823114610ffa578063715018a614610f9d5780637265c5d914610f5457806374bfb81514610e85578063797c82a714610e415780638681cce414610d1d5780638c06d17b14610c555780638da5cb5b14610c2c5780638f02bb5b14610c0957806395d89b4114610b3a578063a22cb46514610a93578063a497e67414610a70578063acb2ad6f14610a52578063b04869ae14610a29578063b5fdf817146109ff578063b88d4fde14610993578063bae5ec0414610913578063c87b56dd146108df578063c973c35914610752578063d0c9084a14610725578063dce383ce146106c1578063e985e9c514610667578063f1e0b2be146105f7578063f20e5e3514610575578063f2fde38b146104ec578063f3408110146103a55763fe5c873a1461021057600080fd5b346103a25760203660031901126103a257600435808252601060205261025c60ff60036040852061025361024b6004830154600a5490611e98565b4210156120c8565b01541615611ebb565b6102646122c6565b80825260106020526040822090600182019160018060a01b038354169081330361035e576102a48360029360038401600160ff1982541617905530612478565b0190838254828252600f60205280604083205560018060a01b03600c541690813b1561035a578291602483926040519485938492630852cd8d60e31b845260048401525af1801561034f57610336575b505091549054604080519384526001600160a01b0390921660208401529082015260008051602061283c8339815191529080606081015b0390a1600160085580f35b8161034091611b06565b61034b5783386102f4565b8380fd5b6040513d84823e3d90fd5b8280fd5b606460405162461bcd60e51b815260206004820152602060248201527f4772617669506f6f6c4e46543a204e6f742068696768657374206269646465726044820152fd5b80fd5b506103af36611a9b565b906103e36103bc8361211f565b336001600160a01b039182168114916103d486611c4a565b161481156104e4575b50611f22565b6103eb6122c6565b600b54341061049f57818452600d6020528380808061041060ff604083205416611bdf565b905460039190911b1c6001600160a01b031661042d811515611f80565b34905af1610439611fcc565b50156104505761044892611e72565b600160085580f35b60405162461bcd60e51b815260206004820152602160248201527f4772617669506f6f6c4e46543a20466565207472616e73666572206661696c656044820152601960fa1b6064820152608490fd5b60405162461bcd60e51b815260206004820152601e60248201527f4772617669506f6f6c4e46543a20496e73756666696369656e742066656500006044820152606490fd5b9050386103dd565b50346103a25760203660031901126103a257610506611a6a565b61050e612156565b6001600160a01b0316801561056157600780546001600160a01b0319811683179091556001600160a01b03167f8be0079c531659141344cd1fd0a4f28419497f9722a3daafe3b4186f6b6457e08380a380f35b631e4fbdf760e01b82526004829052602482fd5b50346103a25760203660031901126103a2576040906004358152601060205220604051906105a282611ad5565b6105f3608082549283855260018060a01b0360018201541694856020820152600282015490816040820152600460ff6003850154161515938460608401520154938491015260405195869586611bae565b0390f35b50346103a25760203660031901126103a257610611612156565b600c5481906001600160a01b0316803b1561066457818091602460405180948193630852cd8d60e31b835260043560048401525af1801561034f576106535750f35b8161065d91611b06565b6103a25780f35b50fd5b50346103a25760403660031901126103a2576040610683611a6a565b9161068c611a85565b9260018060a01b031681526005602052209060018060a01b0316600052602052602060ff604060002054166040519015158152f35b50346103a25760603660031901126103a2576106db611a6a565b6024359160ff831683036103a257604435906001600160401b0382116103a257602061071d858561070f3660048801611b90565b90610718612156565b6124d4565b604051908152f35b50346103a25760203660031901126103a25760ff60406020926004358152600d8452205416604051908152f35b50346103a25760203660031901126103a25760043590610770612156565b818152601060205261079760ff60036040842061025361024b6004830154600a5490611e98565b61079f6122c6565b81815260106020526040812060038101805460ff1916600190811790915581018054919390916001600160a01b0316156108a85781546107ea9082906001600160a01b031630612478565b600260018060a01b03600c54169401938454813b156108a4578491602483926040519485938492630852cd8d60e31b845260048401525af1801561089957610875575b509254838352600f60209081526040808520839055925483519586526001600160a01b031690850152908301529060008051602061283c83398151915290806060810161032b565b8361089260008051602061283c8339815191529561032b93611b06565b935061082d565b6040513d86823e3d90fd5b8480fd5b60008051602061283c833981519152929350606091506108c7816122e8565b604051908152836020820152836040820152a1610448565b50346103a25760203660031901126103a2576105f36108ff600435611ffc565b604051918291602083526020830190611a2b565b50346103a25760203660031901126103a25761092d611a6a565b610935612156565b600e54600160401b81101561097f579061095882600161097c9401600e55611bdf565b81546001600160a01b0393841660039290921b91821b9390911b1916919091179055565b80f35b634e487b7160e01b83526041600452602483fd5b50346103a25760803660031901126103a2576109ad611a6a565b6109b5611a85565b90604435606435926001600160401b0384116108a457366023850112156108a4576109ed61097c943690602481600401359101611b59565b926109f9838383611c6f565b33612363565b50346103a25760203660031901126103a25760406020916004358152600f83522054604051908152f35b50346103a257806003193601126103a257600c546040516001600160a01b039091168152602090f35b50346103a257806003193601126103a2576020600b54604051908152f35b50346103a25760203660031901126103a257610a8a612156565b600435600a5580f35b50346103a25760403660031901126103a257610aad611a6a565b602435908115159081830361034b576001600160a01b0316918215610b2657610af790338552600560205260408520848652602052604085209060ff801983541691151516179055565b6040519081527f17307eab39ab6107e8899845ad3d59bd9653f200f220920489ca2b5937696c3160203392a380f35b630b61174360e31b84526004839052602484fd5b50346103a257806003193601126103a257604051908060015490610b5d82611c10565b8085529160018116908115610be25750600114610b85575b6105f3846108ff81860382611b06565b600181527fb10e2d527612073b26eecdfd717e6a320cf44b4afac2b0732d9fcbe2b7fa0cf6939250905b808210610bc8575090915081016020016108ff82610b75565b919260018160209254838588010152019101909291610baf565b60ff191660208087019190915292151560051b850190920192506108ff9150839050610b75565b50346103a25760203660031901126103a257610c23612156565b600435600b5580f35b50346103a257806003193601126103a2576007546040516001600160a01b039091168152602090f35b50346103a257806003193601126103a257604051600e8054808352908352602082019081907fbb7b4a454dc3493923482f07822329ed19e8244eff582cc204f8554c3620c3fd90855b818110610cfe5750505082610cb4910383611b06565b604051928392602084019060208552518091526040840192915b818110610cdc575050500390f35b82516001600160a01b0316845285945060209384019390920191600101610cce565b82546001600160a01b0316845260209093019260019283019201610c9e565b50610d2736611a9b565b90610d346103bc8361211f565b610d3c6122c6565b3415610dea57818452600d60205283808080610d5e60ff604083205416611bdf565b905460039190911b1c6001600160a01b0316610d7b811515611f80565b34905af1610d87611fcc565b5015610d965761044892611e72565b60405162461bcd60e51b815260206004820152602660248201527f4772617669506f6f6c4e46543a20446f6e6174696f6e207472616e736665722060448201526519985a5b195960d21b6064820152608490fd5b60405162461bcd60e51b815260206004820152602960248201527f4772617669506f6f6c4e46543a20446f6e6174696f6e20616d6f756e74206d7560448201526807374206265203e20360bc1b6064820152608490fd5b50346103a25760203660031901126103a25760043590600e548210156103a2576020610e6c83611bdf565b905460405160039290921b1c6001600160a01b03168152f35b50346103a257806003193601126103a257600954610ea281611b27565b610eaf6040519182611b06565b818152610ebb82611b27565b602082019290601f190136843783845b828110610f175750505090604051928392602084019060208552518091526040840192915b818110610efe575050500390f35b8251845285945060209384019390920191600101610ef0565b80865260106020526004604087200154610f34575b600101610ecb565b90610f4c8183610f4660019488611e46565b52611f13565b919050610f2c565b50346103a25760403660031901126103a25760043560ff811680820361035a5761095861097c92610f98610f86611a85565b93610f8f612156565b600e5411611df0565b611bdf565b50346103a257806003193601126103a257610fb6612156565b600780546001600160a01b0319811690915581906001600160a01b03167f8be0079c531659141344cd1fd0a4f28419497f9722a3daafe3b4186f6b6457e08280a380f35b50346103a25760203660031901126103a2576001600160a01b0361101c611a6a565b168015611039578160409160209352600383522054604051908152f35b6322718ad960e21b82526004829052602482fd5b50346103a25760203660031901126103a257602061106c60043561211f565b6040516001600160a01b039091168152f35b50346103a25760403660031901126103a2576004356024358183526010602052604083206110b36004820154600a5490611e98565b42101561123e5760ff60036110cb9201541615611ebb565b6110d36122c6565b818352601060205260408320916002830180548311156111fd57600c546040516323b872dd60e01b81523360048201523060248201526044810185905290602090829060649082908a906001600160a01b03165af180156111f2577fb8d756f2d1da4663767eb4d559780ace84f2f65a421a60ddcb47e8b2e5d2fd269585926001926111c5575b500180549092906001600160a01b0316806111a4575b505580546001600160a01b03191633908117909155604080519283526020830191909152810191909152806060810161032b565b815490885260116020526111bd60408920918254611e98565b905538611170565b6111e69060203d6020116111eb575b6111de8183611b06565b810190611e5a565b61115a565b503d6111d4565b6040513d88823e3d90fd5b60405162461bcd60e51b81526020600482015260196024820152784772617669506f6f6c4e46543a2042696420746f6f206c6f7760381b6044820152606490fd5b60405162461bcd60e51b815260206004820152601f60248201527f4772617669506f6f6c4e46543a2041756374696f6e2068617320656e646564006044820152606490fd5b50346103a25760203660031901126103a257604090600435815260106020522080546105f360018060a01b0360018401541692600281015490600460ff6003830154169101549160405195869586611bae565b50346103a25760203660031901126103a25760206112fa6112f5611a6a565b612221565b60ff60405191168152f35b50346103a25760203660031901126103a25761131f612156565b61097c6004356122e8565b50346103a25761097c61133c36611a9b565b91611e72565b50346103a257806003193601126103a25761135b6122c6565b3381526011602052604081205480156113df576020829133835260118252826040812055604460018060a01b03600c541691604051948593849263a9059cbb60e01b845233600485015260248401525af1801561034f576113c0575b50600160085580f35b6113d89060203d6020116111eb576111de8183611b06565b50386113b7565b60405162461bcd60e51b815260206004820152602260248201527f4772617669506f6f6c4e46543a204e6f2066756e647320746f20776974686472604482015261617760f01b6064820152608490fd5b50346103a25760403660031901126103a2576004356001600160401b0381116116b857366023820112156116b85780600401359061146c82611b27565b9161147a6040519384611b06565b80835260051b8101602401602083013682116108a45760248301905b8282106116895785602435866001600160401b03821161035a573660238301121561035a5781600401356114c981611b27565b926114d76040519485611b06565b8184526024602085019260051b8201019036821161168557602401915b81831061166157505050611506612156565b805182510361161057825b815181101561160c576001907ff8910119ddbef5440c54532457dfe8250a10ed39e583292818f44724b9e1344c604061157861155f6001600160a01b03611558868a611e46565b5116612221565b6115698588611e46565b51611572612156565b306124d4565b815161158381611ad5565b8181526004896115f6602084018281528685018381526060860191848352886080880195428752898152601060205220965187558b8060a01b039051168b8701908c8060a01b03168c8060a01b0319825416179055516002860155511515600385019060ff801983541691151516179055565b519101558151908152426020820152a101611511565b8380f35b60405162461bcd60e51b8152602060048201526024808201527f4772617669506f6f6c4e46543a20417272617973206c656e677468206d69736d6044820152630c2e8c6d60e31b6064820152608490fd5b82356001600160a01b0381168103611681578152602092830192016114f4565b8680fd5b8580fd5b81356001600160401b038111611681576020916116ad839260243691890101611b90565b815201910190611496565b5080fd5b50346103a25760203660031901126103a257610e6c60ff60406020936004358152600d8552205416610f98600e548210611df0565b50346103a25760203660031901126103a2576020906040906001600160a01b03611719611a6a565b168152601183522054604051908152f35b50346103a25761097c61173c36611a9b565b91611c6f565b50346103a25760803660031901126103a25761175c611a6a565b50611765611a85565b506064356001600160401b0381116116b857366023820112156116b85780600401356001600160401b03811161035a57369101602401116103a257604051630a85bd0160e11b8152602090f35b50346103a25760203660031901126103a2576117cc611a6a565b6117d4612156565b600c80546001600160a01b0319166001600160a01b039290921691909117905580f35b50346103a257806003193601126103a2576020600a54604051908152f35b50346103a25760403660031901126103a25761182f611a6a565b60243561183b8161211f565b331515806118ea575b806118bf575b6118ac5781906001600160a01b0384811691167f8c5be1e5ebec7d5bd14f71427d1e84f3dd0314c0f7b2291e5b200ac8c7c3b9258680a4825260046020526040822080546001600160a01b0319166001600160a01b0390921691909117905580f35b63a9fbf51f60e01b845233600452602484fd5b506001600160a01b038116845260056020908152604080862033875290915284205460ff161561184a565b506001600160a01b038116331415611844565b50346103a25760203660031901126103a257602061106c600435611c4a565b50346103a257806003193601126103a257604051908080549061193e82611c10565b8085529160018116908115610be25750600114611965576105f3846108ff81860382611b06565b80805260208120939250905b80821061198a575090915081016020016108ff82610b75565b919260018160209254838588010152019101909291611971565b9050346116b85760203660031901126116b85760043563ffffffff60e01b811680910361035a5760209250632483248360e11b81149081156119e8575b5015158152f35b6380ac58cd60e01b811491508115611a1a575b8115611a09575b50386119e1565b6301ffc9a760e01b14905038611a02565b635b5e139f60e01b811491506119fb565b919082518082526020808301940160005b828110611a5a575050600081602094950152601f8019910116010190565b8181015186820152602001611a3c565b600435906001600160a01b0382168203611a8057565b600080fd5b602435906001600160a01b0382168203611a8057565b6060906003190112611a80576004356001600160a01b0381168103611a8057906024356001600160a01b0381168103611a80579060443590565b60a081019081106001600160401b03821117611af057604052565b634e487b7160e01b600052604160045260246000fd5b90601f801991011681019081106001600160401b03821117611af057604052565b6001600160401b038111611af05760051b60200190565b6001600160401b038111611af057601f01601f191660200190565b929192611b6582611b3e565b91611b736040519384611b06565b829481845281830111611a80578281602093846000960137010152565b9080601f83011215611a8057816020611bab93359101611b59565b90565b9081526001600160a01b03909116602082015260408101919091529015156060820152608081019190915260a00190565b600e54811015611bfa57600e60005260206000200190600090565b634e487b7160e01b600052603260045260246000fd5b90600182811c92168015611c40575b6020831014611c2a57565b634e487b7160e01b600052602260045260246000fd5b91607f1691611c1f565b611c538161211f565b506000908152600460205260409020546001600160a01b031690565b6001600160a01b0390911691908215611dda576000828152600260205260408120546001600160a01b0316938391859033151580611d42575b5060008051602061281c8339815191529082611d20575b838152600360209081526040808320805460010190558683526002909152812080546001600160a01b0319168517905580a46001600160a01b0316808303611d0657505050565b6364283d7b60e01b60005260045260245260445260646000fd5b611d29856127fd565b8281526003602052604081208054600019019055611cbf565b915091925080611d8b575b15611d5c579084849238611ca8565b839085611d7557602491637e27328960e01b8252600452fd5b60449163177e802f60e01b825233600452602452fd5b503385148015611db9575b80611d4d5750838152600460205260408120546001600160a01b03163314611d4d565b5084815260056020908152604080832033845290915281205460ff16611d96565b633250574960e11b600052600060045260246000fd5b15611df757565b60405162461bcd60e51b815260206004820152602160248201527f4772617669506f6f6c4e46543a20496e646578206f7574206f6620626f756e646044820152607360f81b6064820152608490fd5b8051821015611bfa5760209160051b010190565b90816020910312611a8057518015158103611a805790565b9091611e969260405192611e87602085611b06565b600084526109f9838383611c6f565b565b91908201809211611ea557565b634e487b7160e01b600052601160045260246000fd5b15611ec257565b60405162461bcd60e51b815260206004820152602360248201527f4772617669506f6f6c4e46543a2041756374696f6e20616c726561647920656e60448201526219195960ea1b6064820152608490fd5b6000198114611ea55760010190565b15611f2957565b60405162461bcd60e51b815260206004820152602960248201527f4772617669506f6f6c4e46543a204e6f7420746f6b656e206f776e6572206f7260448201526808185c1c1c9bdd995960ba1b6064820152608490fd5b15611f8757565b60405162461bcd60e51b815260206004820152601e60248201527f4772617669506f6f6c4e46543a205472656173757279206e6f742073657400006044820152606490fd5b3d15611ff7573d90611fdd82611b3e565b91611feb6040519384611b06565b82523d6000602084013e565b606090565b6120058161211f565b50600052600660205260406000206040519081600082549261202684611c10565b80845293600181169081156120a6575060011461205f575b5061204b92500382611b06565b600060405161205b602082611b06565b5290565b90506000929192526020600020906000915b81831061208a57505090602061204b928201013861203e565b6020919350806001915483858801015201910190918392612071565b90506020925061204b94915060ff191682840152151560051b8201013861203e565b156120cf57565b60405162461bcd60e51b815260206004820152602260248201527f4772617669506f6f6c4e46543a2041756374696f6e207374696c6c2061637469604482015261766560f01b6064820152608490fd5b6000818152600260205260409020546001600160a01b0316908115612142575090565b637e27328960e01b60005260045260246000fd5b6007546001600160a01b0316330361216a57565b63118cdaa760e01b6000523360045260246000fd5b6000828152600260205260409020546001600160a01b03169190826121fd575b6001600160a01b0316806121e3575b600082815260026020526040812080546001600160a01b03191683179055839060008051602061281c8339815191529080a490565b8060005260036020526040600020600181540190556121ae565b612206826127fd565b8260005260036020526040600020600019815401905561219f565b600e549060005b8260ff8216106122885760405162461bcd60e51b815260206004820152602860248201527f4772617669506f6f6c4e46543a2054726561737572792061646472657373206e6044820152671bdd08199bdd5b9960c21b6064820152608490fd5b61229181611bdf565b905460039190911b1c6001600160a01b03908116908316146122c05760ff1660ff8114611ea557600101612228565b91505090565b6002600854146122d7576002600855565b633ee5aeb560e01b60005260046000fd5b6000818152600260205260408120546001600160a01b031680159183908315612341575b81815260026020526040812080546001600160a01b03191690558260008051602061281c8339815191528280a4506121425750565b61234a826127fd565b828152600360205260408120805460001901905561230c565b823b612371575b5050505050565b604051630a85bd0160e11b81526001600160a01b0391821660048201529181166024830152604482019390935260806064820152911691602090829081906123bd906084830190611a2b565b03816000865af18091600091612435575b50906123ff57506123dd611fcc565b805190816123fa5782633250574960e11b60005260045260246000fd5b602001fd5b6001600160e01b03191663757a42ff60e11b016124215750388080808061236a565b633250574960e11b60005260045260246000fd5b6020813d602011612470575b8161244e60209383611b06565b810103126116b85751906001600160e01b0319821682036103a25750386123ce565b3d9150612441565b919291906001600160a01b03811615611dda576001600160a01b039061249f90859061217f565b1690816124bb5783637e27328960e01b60005260045260246000fd5b919290916001600160a01b0316808303611d0657505050565b9190916124df612156565b60ff600e549216918210156127ac57600954926124fb84611f13565b60095560405160209261250e8483611b06565b600082526001600160a01b03811615611dda576001600160a01b03612533878361217f565b1661279657803b6126a0575b505083600052600682526040600020908051906001600160401b038211611af05761256a8354611c10565b601f811161265a575b508390601f83116001146125f057600d94939291600091836125e5575b50508160011b916000199060031b1c19161790555b7ff8e1a15aba9398e019f0b49df1a4fde98ee17ae345cb5f6b5e2c27f5033e8ce781604051868152a1836000525260406000209060ff1982541617905590565b015190503880612590565b90601f1983169184600052856000209260005b8181106126435750916001939185600d989796941061262a575b505050811b0190556125a5565b015160001960f88460031b161c1916905538808061261d565b929387600181928786015181550195019301612603565b8360005284600020601f840160051c810191868510612696575b601f0160051c01905b81811061268a5750612573565b6000815560010161267d565b9091508190612674565b604051630a85bd0160e11b81523360048201526000602482015260448101879052608060648201526001600160a01b03909116969395939492918690829081906126ee906084830190611a2b565b038160008b5af18091600091612758575b509061272f57868661270f611fcc565b8051918261272c5783633250574960e11b60005260045260246000fd5b01fd5b939592949193919290916001600160e01b03191663757a42ff60e11b016124215750388061253f565b8781813d831161278f575b61276d8183611b06565b810103126116b85751906001600160e01b0319821682036103a25750386126ff565b503d612763565b6339e3563760e11b600052600060045260246000fd5b60405162461bcd60e51b8152602060048201526024808201527f4772617669506f6f6c4e46543a20496e76616c696420747265617375727920696044820152630dcc8caf60e31b6064820152608490fd5b600090815260046020526040902080546001600160a01b031916905556feddf252ad1be2c89b69c2b068fc378daa952ba7f163c4a11628f55a4df523b3efd2aa34a4fdbbc6dff6a3e56f46e0f3ae2a31d7785ff3487aa5c95c642acea501a2646970667358221220acbb0dfb95627ac3f5092d1a73c5e011889997573573e43bb291c0a2fd4e1cd064736f6c634300081c0033",
  "linkReferences": {},
  "deployedLinkReferences": {}
}