{
  "_format": "hh-sol-artifact-1",
  "contractName": "GraviPoolNFT",
  "sourceName": "contracts/tokens/GraviPoolNFT.sol",
  "abi": [
    {
      "inputs": [
        {
          "internalType": "address",
          "name": "_treasury",
          "type": "address"
        },
        {
          "internalType": "contract ERC20Burnable",
          "name": "_token",
          "type": "address"
        }
      ],
      "stateMutability": "nonpayable",
      "type": "constructor"
    },
    {
      "inputs": [
        {
          "internalType": "address",
          "name": "sender",
          "type": "address"
        },
        {
          "internalType": "uint256",
          "name": "tokenId",
          "type": "uint256"
        },
        {
          "internalType": "address",
          "name": "owner",
          "type": "address"
        }
      ],
      "name": "ERC721IncorrectOwner",
      "type": "error"
    },
    {
      "inputs": [
        {
          "internalType": "address",
          "name": "operator",
          "type": "address"
        },
        {
          "internalType": "uint256",
          "name": "tokenId",
          "type": "uint256"
        }
      ],
      "name": "ERC721InsufficientApproval",
      "type": "error"
    },
    {
      "inputs": [
        {
          "internalType": "address",
          "name": "approver",
          "type": "address"
        }
      ],
      "name": "ERC721InvalidApprover",
      "type": "error"
    },
    {
      "inputs": [
        {
          "internalType": "address",
          "name": "operator",
          "type": "address"
        }
      ],
      "name": "ERC721InvalidOperator",
      "type": "error"
    },
    {
      "inputs": [
        {
          "internalType": "address",
          "name": "owner",
          "type": "address"
        }
      ],
      "name": "ERC721InvalidOwner",
      "type": "error"
    },
    {
      "inputs": [
        {
          "internalType": "address",
          "name": "receiver",
          "type": "address"
        }
      ],
      "name": "ERC721InvalidReceiver",
      "type": "error"
    },
    {
      "inputs": [
        {
          "internalType": "address",
          "name": "sender",
          "type": "address"
        }
      ],
      "name": "ERC721InvalidSender",
      "type": "error"
    },
    {
      "inputs": [
        {
          "internalType": "uint256",
          "name": "tokenId",
          "type": "uint256"
        }
      ],
      "name": "ERC721NonexistentToken",
      "type": "error"
    },
    {
      "inputs": [
        {
          "internalType": "address",
          "name": "owner",
          "type": "address"
        }
      ],
      "name": "OwnableInvalidOwner",
      "type": "error"
    },
    {
      "inputs": [
        {
          "internalType": "address",
          "name": "account",
          "type": "address"
        }
      ],
      "name": "OwnableUnauthorizedAccount",
      "type": "error"
    },
    {
      "inputs": [],
      "name": "ReentrancyGuardReentrantCall",
      "type": "error"
    },
    {
      "inputs": [
        {
          "internalType": "address",
          "name": "token",
          "type": "address"
        }
      ],
      "name": "SafeERC20FailedOperation",
      "type": "error"
    },
    {
      "anonymous": false,
      "inputs": [
        {
          "indexed": true,
          "internalType": "address",
          "name": "owner",
          "type": "address"
        },
        {
          "indexed": true,
          "internalType": "address",
          "name": "approved",
          "type": "address"
        },
        {
          "indexed": true,
          "internalType": "uint256",
          "name": "tokenId",
          "type": "uint256"
        }
      ],
      "name": "Approval",
      "type": "event"
    },
    {
      "anonymous": false,
      "inputs": [
        {
          "indexed": true,
          "internalType": "address",
          "name": "owner",
          "type": "address"
        },
        {
          "indexed": true,
          "internalType": "address",
          "name": "operator",
          "type": "address"
        },
        {
          "indexed": false,
          "internalType": "bool",
          "name": "approved",
          "type": "bool"
        }
      ],
      "name": "ApprovalForAll",
      "type": "event"
    },
    {
      "anonymous": false,
      "inputs": [
        {
          "indexed": false,
          "internalType": "uint256",
          "name": "tokenId",
          "type": "uint256"
        },
        {
          "indexed": false,
          "internalType": "address",
          "name": "bidder",
          "type": "address"
        },
        {
          "indexed": false,
          "internalType": "uint256",
          "name": "bid",
          "type": "uint256"
        }
      ],
      "name": "AuctionBid",
      "type": "event"
    },
    {
      "anonymous": false,
      "inputs": [
        {
          "indexed": false,
          "internalType": "uint256",
          "name": "tokenId",
          "type": "uint256"
        },
        {
          "indexed": false,
          "internalType": "address",
          "name": "winner",
          "type": "address"
        },
        {
          "indexed": false,
          "internalType": "uint256",
          "name": "bid",
          "type": "uint256"
        }
      ],
      "name": "AuctionEnded",
      "type": "event"
    },
    {
      "anonymous": false,
      "inputs": [
        {
          "indexed": false,
          "internalType": "uint256",
          "name": "tokenId",
          "type": "uint256"
        },
        {
          "indexed": false,
          "internalType": "uint256",
          "name": "startTime",
          "type": "uint256"
        }
      ],
      "name": "AuctionStarted",
      "type": "event"
    },
    {
      "anonymous": false,
      "inputs": [
        {
          "indexed": false,
          "internalType": "uint256",
          "name": "_fromTokenId",
          "type": "uint256"
        },
        {
          "indexed": false,
          "internalType": "uint256",
          "name": "_toTokenId",
          "type": "uint256"
        }
      ],
      "name": "BatchMetadataUpdate",
      "type": "event"
    },
    {
      "anonymous": false,
      "inputs": [
        {
          "indexed": false,
          "internalType": "uint256",
          "name": "_tokenId",
          "type": "uint256"
        }
      ],
      "name": "MetadataUpdate",
      "type": "event"
    },
    {
      "anonymous": false,
      "inputs": [
        {
          "indexed": true,
          "internalType": "address",
          "name": "previousOwner",
          "type": "address"
        },
        {
          "indexed": true,
          "internalType": "address",
          "name": "newOwner",
          "type": "address"
        }
      ],
      "name": "OwnershipTransferred",
      "type": "event"
    },
    {
      "anonymous": false,
      "inputs": [
        {
          "indexed": true,
          "internalType": "address",
          "name": "from",
          "type": "address"
        },
        {
          "indexed": true,
          "internalType": "address",
          "name": "to",
          "type": "address"
        },
        {
          "indexed": true,
          "internalType": "uint256",
          "name": "tokenId",
          "type": "uint256"
        }
      ],
      "name": "Transfer",
      "type": "event"
    },
    {
      "inputs": [
        {
          "internalType": "address",
          "name": "to",
          "type": "address"
        },
        {
          "internalType": "uint256",
          "name": "tokenId",
          "type": "uint256"
        }
      ],
      "name": "approve",
      "outputs": [],
      "stateMutability": "nonpayable",
      "type": "function"
    },
    {
      "inputs": [],
      "name": "auctionDuration",
      "outputs": [
        {
          "internalType": "uint256",
          "name": "",
          "type": "uint256"
        }
      ],
      "stateMutability": "view",
      "type": "function"
    },
    {
      "inputs": [
        {
          "internalType": "uint256",
          "name": "",
          "type": "uint256"
        }
      ],
      "name": "auctions",
      "outputs": [
        {
          "internalType": "uint256",
          "name": "tokenId",
          "type": "uint256"
        },
        {
          "internalType": "address",
          "name": "highestBidder",
          "type": "address"
        },
        {
          "internalType": "uint256",
          "name": "highestBid",
          "type": "uint256"
        },
        {
          "internalType": "bool",
          "name": "ended",
          "type": "bool"
        },
        {
          "internalType": "uint256",
          "name": "startTime",
          "type": "uint256"
        }
      ],
      "stateMutability": "view",
      "type": "function"
    },
    {
      "inputs": [
        {
          "internalType": "address",
          "name": "owner",
          "type": "address"
        }
      ],
      "name": "balanceOf",
      "outputs": [
        {
          "internalType": "uint256",
          "name": "",
          "type": "uint256"
        }
      ],
      "stateMutability": "view",
      "type": "function"
    },
    {
      "inputs": [
        {
          "internalType": "uint256",
          "name": "tokenId",
          "type": "uint256"
        },
        {
          "internalType": "uint256",
          "name": "bidAmount",
          "type": "uint256"
        }
      ],
      "name": "bid",
      "outputs": [],
      "stateMutability": "nonpayable",
      "type": "function"
    },
    {
      "inputs": [
        {
          "internalType": "uint256",
          "name": "tokenId",
          "type": "uint256"
        }
      ],
      "name": "burn",
      "outputs": [],
      "stateMutability": "nonpayable",
      "type": "function"
    },
    {
      "inputs": [
        {
          "internalType": "uint256",
          "name": "amount",
          "type": "uint256"
        }
      ],
      "name": "burnExcessTokens",
      "outputs": [],
      "stateMutability": "nonpayable",
      "type": "function"
    },
    {
      "inputs": [
        {
          "internalType": "uint256",
          "name": "tokenId",
          "type": "uint256"
        }
      ],
      "name": "claimNFT",
      "outputs": [],
      "stateMutability": "nonpayable",
      "type": "function"
    },
    {
      "inputs": [
        {
          "internalType": "uint256",
          "name": "tokenId",
          "type": "uint256"
        }
      ],
      "name": "forceEndAuction",
      "outputs": [],
      "stateMutability": "nonpayable",
      "type": "function"
    },
    {
      "inputs": [
        {
          "internalType": "uint256",
          "name": "tokenId",
          "type": "uint256"
        }
      ],
      "name": "getApproved",
      "outputs": [
        {
          "internalType": "address",
          "name": "",
          "type": "address"
        }
      ],
      "stateMutability": "view",
      "type": "function"
    },
    {
      "inputs": [
        {
          "internalType": "address",
          "name": "owner",
          "type": "address"
        },
        {
          "internalType": "address",
          "name": "operator",
          "type": "address"
        }
      ],
      "name": "isApprovedForAll",
      "outputs": [
        {
          "internalType": "bool",
          "name": "",
          "type": "bool"
        }
      ],
      "stateMutability": "view",
      "type": "function"
    },
    {
      "inputs": [],
      "name": "name",
      "outputs": [
        {
          "internalType": "string",
          "name": "",
          "type": "string"
        }
      ],
      "stateMutability": "view",
      "type": "function"
    },
    {
      "inputs": [],
      "name": "owner",
      "outputs": [
        {
          "internalType": "address",
          "name": "",
          "type": "address"
        }
      ],
      "stateMutability": "view",
      "type": "function"
    },
    {
      "inputs": [
        {
          "internalType": "uint256",
          "name": "tokenId",
          "type": "uint256"
        }
      ],
      "name": "ownerOf",
      "outputs": [
        {
          "internalType": "address",
          "name": "",
          "type": "address"
        }
      ],
      "stateMutability": "view",
      "type": "function"
    },
    {
      "inputs": [
        {
          "internalType": "address",
          "name": "",
          "type": "address"
        }
      ],
      "name": "pendingReturns",
      "outputs": [
        {
          "internalType": "uint256",
          "name": "",
          "type": "uint256"
        }
      ],
      "stateMutability": "view",
      "type": "function"
    },
    {
      "inputs": [],
      "name": "renounceOwnership",
      "outputs": [],
      "stateMutability": "nonpayable",
      "type": "function"
    },
    {
      "inputs": [
        {
          "internalType": "address",
          "name": "from",
          "type": "address"
        },
        {
          "internalType": "address",
          "name": "to",
          "type": "address"
        },
        {
          "internalType": "uint256",
          "name": "tokenId",
          "type": "uint256"
        }
      ],
      "name": "safeTransferFrom",
      "outputs": [],
      "stateMutability": "nonpayable",
      "type": "function"
    },
    {
      "inputs": [
        {
          "internalType": "address",
          "name": "from",
          "type": "address"
        },
        {
          "internalType": "address",
          "name": "to",
          "type": "address"
        },
        {
          "internalType": "uint256",
          "name": "tokenId",
          "type": "uint256"
        },
        {
          "internalType": "bytes",
          "name": "data",
          "type": "bytes"
        }
      ],
      "name": "safeTransferFrom",
      "outputs": [],
      "stateMutability": "nonpayable",
      "type": "function"
    },
    {
      "inputs": [
        {
          "internalType": "address",
          "name": "operator",
          "type": "address"
        },
        {
          "internalType": "bool",
          "name": "approved",
          "type": "bool"
        }
      ],
      "name": "setApprovalForAll",
      "outputs": [],
      "stateMutability": "nonpayable",
      "type": "function"
    },
    {
      "inputs": [
        {
          "internalType": "uint256",
          "name": "_auctionDuration",
          "type": "uint256"
        }
      ],
      "name": "setAuctionDuration",
      "outputs": [],
      "stateMutability": "nonpayable",
      "type": "function"
    },
    {
      "inputs": [
        {
          "internalType": "contract ERC20Burnable",
          "name": "_token",
          "type": "address"
        }
      ],
      "name": "setToken",
      "outputs": [],
      "stateMutability": "nonpayable",
      "type": "function"
    },
    {
      "inputs": [
        {
          "internalType": "uint256",
          "name": "_transferFee",
          "type": "uint256"
        }
      ],
      "name": "setTransferFee",
      "outputs": [],
      "stateMutability": "nonpayable",
      "type": "function"
    },
    {
      "inputs": [
        {
          "internalType": "address",
          "name": "_treasury",
          "type": "address"
        }
      ],
      "name": "setTreasury",
      "outputs": [],
      "stateMutability": "nonpayable",
      "type": "function"
    },
    {
      "inputs": [
        {
          "internalType": "string",
          "name": "tokenURI",
          "type": "string"
        }
      ],
      "name": "startAuction",
      "outputs": [
        {
          "internalType": "uint256",
          "name": "",
          "type": "uint256"
        }
      ],
      "stateMutability": "nonpayable",
      "type": "function"
    },
    {
      "inputs": [
        {
          "internalType": "bytes4",
          "name": "interfaceId",
          "type": "bytes4"
        }
      ],
      "name": "supportsInterface",
      "outputs": [
        {
          "internalType": "bool",
          "name": "",
          "type": "bool"
        }
      ],
      "stateMutability": "view",
      "type": "function"
    },
    {
      "inputs": [],
      "name": "symbol",
      "outputs": [
        {
          "internalType": "string",
          "name": "",
          "type": "string"
        }
      ],
      "stateMutability": "view",
      "type": "function"
    },
    {
      "inputs": [],
      "name": "token",
      "outputs": [
        {
          "internalType": "contract ERC20Burnable",
          "name": "",
          "type": "address"
        }
      ],
      "stateMutability": "view",
      "type": "function"
    },
    {
      "inputs": [
        {
          "internalType": "uint256",
          "name": "",
          "type": "uint256"
        }
      ],
      "name": "tokenDonations",
      "outputs": [
        {
          "internalType": "uint256",
          "name": "",
          "type": "uint256"
        }
      ],
      "stateMutability": "view",
      "type": "function"
    },
    {
      "inputs": [
        {
          "internalType": "uint256",
          "name": "tokenId",
          "type": "uint256"
        }
      ],
      "name": "tokenURI",
      "outputs": [
        {
          "internalType": "string",
          "name": "",
          "type": "string"
        }
      ],
      "stateMutability": "view",
      "type": "function"
    },
    {
      "inputs": [],
      "name": "transferFee",
      "outputs": [
        {
          "internalType": "uint256",
          "name": "",
          "type": "uint256"
        }
      ],
      "stateMutability": "view",
      "type": "function"
    },
    {
      "inputs": [
        {
          "internalType": "address",
          "name": "from",
          "type": "address"
        },
        {
          "internalType": "address",
          "name": "to",
          "type": "address"
        },
        {
          "internalType": "uint256",
          "name": "tokenId",
          "type": "uint256"
        }
      ],
      "name": "transferFrom",
      "outputs": [],
      "stateMutability": "nonpayable",
      "type": "function"
    },
    {
      "inputs": [
        {
          "internalType": "address",
          "name": "newOwner",
          "type": "address"
        }
      ],
      "name": "transferOwnership",
      "outputs": [],
      "stateMutability": "nonpayable",
      "type": "function"
    },
    {
      "inputs": [
        {
          "internalType": "address",
          "name": "from",
          "type": "address"
        },
        {
          "internalType": "address",
          "name": "to",
          "type": "address"
        },
        {
          "internalType": "uint256",
          "name": "tokenId",
          "type": "uint256"
        }
      ],
      "name": "transferWithFee",
      "outputs": [],
      "stateMutability": "payable",
      "type": "function"
    },
    {
      "inputs": [],
      "name": "treasury",
      "outputs": [
        {
          "internalType": "address",
          "name": "",
          "type": "address"
        }
      ],
      "stateMutability": "view",
      "type": "function"
    },
    {
      "inputs": [],
      "name": "withdraw",
      "outputs": [],
      "stateMutability": "nonpayable",
      "type": "function"
    }
  ],
  "bytecode": "0x608060405262093a80600b556509184e72a000600c5534801561002157600080fd5b50604051614cee380380614cee8339818101604052810190610043919061034c565b336040518060400160405280600c81526020017f4772617669506f6f6c4e465400000000000000000000000000000000000000008152506040518060400160405280600681526020017f4752414e4654000000000000000000000000000000000000000000000000000081525081600090816100bf91906105dc565b5080600190816100cf91906105dc565b505050600073ffffffffffffffffffffffffffffffffffffffff168173ffffffffffffffffffffffffffffffffffffffff16036101445760006040517f1e4fbdf700000000000000000000000000000000000000000000000000000000815260040161013b91906106bd565b60405180910390fd5b610153816101e560201b60201c565b50600160088190555081600a60006101000a81548173ffffffffffffffffffffffffffffffffffffffff021916908373ffffffffffffffffffffffffffffffffffffffff16021790555080600d60006101000a81548173ffffffffffffffffffffffffffffffffffffffff021916908373ffffffffffffffffffffffffffffffffffffffff16021790555050506106d8565b6000600760009054906101000a900473ffffffffffffffffffffffffffffffffffffffff16905081600760006101000a81548173ffffffffffffffffffffffffffffffffffffffff021916908373ffffffffffffffffffffffffffffffffffffffff1602179055508173ffffffffffffffffffffffffffffffffffffffff168173ffffffffffffffffffffffffffffffffffffffff167f8be0079c531659141344cd1fd0a4f28419497f9722a3daafe3b4186f6b6457e060405160405180910390a35050565b600080fd5b600073ffffffffffffffffffffffffffffffffffffffff82169050919050565b60006102db826102b0565b9050919050565b6102eb816102d0565b81146102f657600080fd5b50565b600081519050610308816102e2565b92915050565b6000610319826102d0565b9050919050565b6103298161030e565b811461033457600080fd5b50565b60008151905061034681610320565b92915050565b60008060408385031215610363576103626102ab565b5b6000610371858286016102f9565b925050602061038285828601610337565b9150509250929050565b600081519050919050565b7f4e487b7100000000000000000000000000000000000000000000000000000000600052604160045260246000fd5b7f4e487b7100000000000000000000000000000000000000000000000000000000600052602260045260246000fd5b6000600282049050600182168061040d57607f821691505b6020821081036104205761041f6103c6565b5b50919050565b60008190508160005260206000209050919050565b60006020601f8301049050919050565b600082821b905092915050565b6000600883026104887fffffffffffffffffffffffffffffffffffffffffffffffffffffffffffffffff8261044b565b610492868361044b565b95508019841693508086168417925050509392505050565b6000819050919050565b6000819050919050565b60006104d96104d46104cf846104aa565b6104b4565b6104aa565b9050919050565b6000819050919050565b6104f3836104be565b6105076104ff826104e0565b848454610458565b825550505050565b600090565b61051c61050f565b6105278184846104ea565b505050565b5b8181101561054b57610540600082610514565b60018101905061052d565b5050565b601f8211156105905761056181610426565b61056a8461043b565b81016020851015610579578190505b61058d6105858561043b565b83018261052c565b50505b505050565b600082821c905092915050565b60006105b360001984600802610595565b1980831691505092915050565b60006105cc83836105a2565b9150826002028217905092915050565b6105e58261038c565b67ffffffffffffffff8111156105fe576105fd610397565b5b61060882546103f5565b61061382828561054f565b600060209050601f8311600181146106465760008415610634578287015190505b61063e85826105c0565b8655506106a6565b601f19841661065486610426565b60005b8281101561067c57848901518255600182019150602085019450602081019050610657565b868310156106995784890151610695601f8916826105a2565b8355505b6001600288020188555050505b505050505050565b6106b7816102d0565b82525050565b60006020820190506106d260008301846106ae565b92915050565b614607806106e76000396000f3fe6080604052600436106102045760003560e01c806373dc756c11610118578063c87b56dd116100a0578063f1e0b2be1161006f578063f1e0b2be1461078b578063f2fde38b146107b4578063f3408110146107dd578063fc0c546a146107f9578063fe5c873a1461082457610204565b8063c87b56dd146106bf578063c973c359146106fc578063e985e9c514610725578063f0f442601461076257610204565b8063a22cb465116100e7578063a22cb465146105dc578063a497e67414610605578063acb2ad6f1461062e578063b5fdf81714610659578063b88d4fde1461069657610204565b806373dc756c146105205780638da5cb5b1461055d5780638f02bb5b1461058857806395d89b41146105b157610204565b80633ccfd60b1161019b578063598647f81161016a578063598647f81461043b57806361d027b3146104645780636352211e1461048f57806370a08231146104cc578063715018a61461050957610204565b80633ccfd60b1461039157806342842e0e146103a857806342966c68146103d1578063571a26a0146103fa57610204565b80630cbf54c8116101d75780630cbf54c8146102d7578063144fa6d71461030257806323b872dd1461032b57806326b387bb1461035457610204565b806301ffc9a71461020957806306fdde0314610246578063081812fc14610271578063095ea7b3146102ae575b600080fd5b34801561021557600080fd5b50610230600480360381019061022b91906132f7565b61084d565b60405161023d919061333f565b60405180910390f35b34801561025257600080fd5b5061025b6108ae565b60405161026891906133ea565b60405180910390f35b34801561027d57600080fd5b5061029860048036038101906102939190613442565b610940565b6040516102a591906134b0565b60405180910390f35b3480156102ba57600080fd5b506102d560048036038101906102d091906134f7565b61095c565b005b3480156102e357600080fd5b506102ec610972565b6040516102f99190613546565b60405180910390f35b34801561030e57600080fd5b506103296004803603810190610324919061359f565b610978565b005b34801561033757600080fd5b50610352600480360381019061034d91906135cc565b6109c4565b005b34801561036057600080fd5b5061037b6004803603810190610376919061361f565b610ac6565b6040516103889190613546565b60405180910390f35b34801561039d57600080fd5b506103a6610ade565b005b3480156103b457600080fd5b506103cf60048036038101906103ca91906135cc565b610c0a565b005b3480156103dd57600080fd5b506103f860048036038101906103f39190613442565b610c2a565b005b34801561040657600080fd5b50610421600480360381019061041c9190613442565b610c3e565b60405161043295949392919061364c565b60405180910390f35b34801561044757600080fd5b50610462600480360381019061045d919061369f565b610ca1565b005b34801561047057600080fd5b50610479610f7f565b60405161048691906134b0565b60405180910390f35b34801561049b57600080fd5b506104b660048036038101906104b19190613442565b610fa5565b6040516104c391906134b0565b60405180910390f35b3480156104d857600080fd5b506104f360048036038101906104ee919061361f565b610fb7565b6040516105009190613546565b60405180910390f35b34801561051557600080fd5b5061051e611071565b005b34801561052c57600080fd5b5061054760048036038101906105429190613814565b611085565b6040516105549190613546565b60405180910390f35b34801561056957600080fd5b506105726111bc565b60405161057f91906134b0565b60405180910390f35b34801561059457600080fd5b506105af60048036038101906105aa9190613442565b6111e6565b005b3480156105bd57600080fd5b506105c66111f8565b6040516105d391906133ea565b60405180910390f35b3480156105e857600080fd5b5061060360048036038101906105fe9190613889565b61128a565b005b34801561061157600080fd5b5061062c60048036038101906106279190613442565b6112a0565b005b34801561063a57600080fd5b506106436112b2565b6040516106509190613546565b60405180910390f35b34801561066557600080fd5b50610680600480360381019061067b9190613442565b6112b8565b60405161068d9190613546565b60405180910390f35b3480156106a257600080fd5b506106bd60048036038101906106b8919061396a565b6112d0565b005b3480156106cb57600080fd5b506106e660048036038101906106e19190613442565b6112f5565b6040516106f391906133ea565b60405180910390f35b34801561070857600080fd5b50610723600480360381019061071e9190613442565b611408565b005b34801561073157600080fd5b5061074c600480360381019061074791906139ed565b6116fa565b604051610759919061333f565b60405180910390f35b34801561076e57600080fd5b506107896004803603810190610784919061361f565b61178e565b005b34801561079757600080fd5b506107b260048036038101906107ad9190613442565b6117da565b005b3480156107c057600080fd5b506107db60048036038101906107d6919061361f565b611872565b005b6107f760048036038101906107f291906135cc565b6118f8565b005b34801561080557600080fd5b5061080e611aee565b60405161081b9190613a8c565b60405180910390f35b34801561083057600080fd5b5061084b60048036038101906108469190613442565b611b14565b005b6000634906490660e01b7bffffffffffffffffffffffffffffffffffffffffffffffffffffffff1916827bffffffffffffffffffffffffffffffffffffffffffffffffffffffff191614806108a757506108a682611ded565b5b9050919050565b6060600080546108bd90613ad6565b80601f01602080910402602001604051908101604052809291908181526020018280546108e990613ad6565b80156109365780601f1061090b57610100808354040283529160200191610936565b820191906000526020600020905b81548152906001019060200180831161091957829003601f168201915b5050505050905090565b600061094b82611ecf565b5061095582611f57565b9050919050565b61096e8282610969611f94565b611f9c565b5050565b600b5481565b610980611fae565b80600d60006101000a81548173ffffffffffffffffffffffffffffffffffffffff021916908373ffffffffffffffffffffffffffffffffffffffff16021790555050565b600073ffffffffffffffffffffffffffffffffffffffff168273ffffffffffffffffffffffffffffffffffffffff1603610a365760006040517f64a0ae92000000000000000000000000000000000000000000000000000000008152600401610a2d91906134b0565b60405180910390fd5b6000610a4a8383610a45611f94565b612035565b90508373ffffffffffffffffffffffffffffffffffffffff168173ffffffffffffffffffffffffffffffffffffffff1614610ac0578382826040517f64283d7b000000000000000000000000000000000000000000000000000000008152600401610ab793929190613b07565b60405180910390fd5b50505050565b60106020528060005260406000206000915090505481565b610ae661224f565b6000601060003373ffffffffffffffffffffffffffffffffffffffff1673ffffffffffffffffffffffffffffffffffffffff16815260200190815260200160002054905060008111610b6d576040517f08c379a0000000000000000000000000000000000000000000000000000000008152600401610b6490613bb0565b60405180910390fd5b6000601060003373ffffffffffffffffffffffffffffffffffffffff1673ffffffffffffffffffffffffffffffffffffffff16815260200190815260200160002081905550610bff3382600d60009054906101000a900473ffffffffffffffffffffffffffffffffffffffff1673ffffffffffffffffffffffffffffffffffffffff166122959092919063ffffffff16565b50610c08612314565b565b610c25838383604051806020016040528060008152506112d0565b505050565b610c32611fae565b610c3b8161231e565b50565b600f6020528060005260406000206000915090508060000154908060010160009054906101000a900473ffffffffffffffffffffffffffffffffffffffff16908060020154908060030160009054906101000a900460ff16908060040154905085565b816000600f60008381526020019081526020016000209050600b548160040154610ccb9190613bff565b4210610d0c576040517f08c379a0000000000000000000000000000000000000000000000000000000008152600401610d0390613c7f565b60405180910390fd5b8060030160009054906101000a900460ff1615610d5e576040517f08c379a0000000000000000000000000000000000000000000000000000000008152600401610d5590613d11565b60405180910390fd5b610d6661224f565b6000600f6000868152602001908152602001600020905080600201548411610dc3576040517f08c379a0000000000000000000000000000000000000000000000000000000008152600401610dba90613d7d565b60405180910390fd5b610e12333086600d60009054906101000a900473ffffffffffffffffffffffffffffffffffffffff1673ffffffffffffffffffffffffffffffffffffffff166123a4909392919063ffffffff16565b600073ffffffffffffffffffffffffffffffffffffffff168160010160009054906101000a900473ffffffffffffffffffffffffffffffffffffffff1673ffffffffffffffffffffffffffffffffffffffff1614610ee9578060020154601060008360010160009054906101000a900473ffffffffffffffffffffffffffffffffffffffff1673ffffffffffffffffffffffffffffffffffffffff1673ffffffffffffffffffffffffffffffffffffffff1681526020019081526020016000206000828254610ee19190613bff565b925050819055505b838160020181905550338160010160006101000a81548173ffffffffffffffffffffffffffffffffffffffff021916908373ffffffffffffffffffffffffffffffffffffffff1602179055507fb8d756f2d1da4663767eb4d559780ace84f2f65a421a60ddcb47e8b2e5d2fd26853386604051610f6893929190613d9d565b60405180910390a150610f79612314565b50505050565b600a60009054906101000a900473ffffffffffffffffffffffffffffffffffffffff1681565b6000610fb082611ecf565b9050919050565b60008073ffffffffffffffffffffffffffffffffffffffff168273ffffffffffffffffffffffffffffffffffffffff160361102a5760006040517f89c62b6400000000000000000000000000000000000000000000000000000000815260040161102191906134b0565b60405180910390fd5b600360008373ffffffffffffffffffffffffffffffffffffffff1673ffffffffffffffffffffffffffffffffffffffff168152602001908152602001600020549050919050565b611079611fae565b6110836000612426565b565b600061108f611fae565b600061109b30846124ec565b90506040518060a00160405280828152602001600073ffffffffffffffffffffffffffffffffffffffff1681526020016000815260200160001515815260200142815250600f60008381526020019081526020016000206000820151816000015560208201518160010160006101000a81548173ffffffffffffffffffffffffffffffffffffffff021916908373ffffffffffffffffffffffffffffffffffffffff1602179055506040820151816002015560608201518160030160006101000a81548160ff021916908315150217905550608082015181600401559050507ff8910119ddbef5440c54532457dfe8250a10ed39e583292818f44724b9e1344c81426040516111ab929190613dd4565b60405180910390a180915050919050565b6000600760009054906101000a900473ffffffffffffffffffffffffffffffffffffffff16905090565b6111ee611fae565b80600c8190555050565b60606001805461120790613ad6565b80601f016020809104026020016040519081016040528092919081815260200182805461123390613ad6565b80156112805780601f1061125557610100808354040283529160200191611280565b820191906000526020600020905b81548152906001019060200180831161126357829003601f168201915b5050505050905090565b61129c611295611f94565b8383612533565b5050565b6112a8611fae565b80600b8190555050565b600c5481565b600e6020528060005260406000206000915090505481565b6112db8484846109c4565b6112ef6112e6611f94565b858585856126a2565b50505050565b606061130082611ecf565b50600060066000848152602001908152602001600020805461132190613ad6565b80601f016020809104026020016040519081016040528092919081815260200182805461134d90613ad6565b801561139a5780601f1061136f5761010080835404028352916020019161139a565b820191906000526020600020905b81548152906001019060200180831161137d57829003601f168201915b5050505050905060006113ab612853565b905060008151036113c0578192505050611403565b6000825111156113f55780826040516020016113dd929190613e39565b60405160208183030381529060405292505050611403565b6113fe8461286a565b925050505b919050565b611410611fae565b806000600f60008381526020019081526020016000209050600b54816004015461143a9190613bff565b42101561147c576040517f08c379a000000000000000000000000000000000000000000000000000000000815260040161147390613ecf565b60405180910390fd5b8060030160009054906101000a900460ff16156114ce576040517f08c379a00000000000000000000000000000000000000000000000000000000081526004016114c590613d11565b60405180910390fd5b6114d661224f565b6000600f6000858152602001908152602001600020905060018160030160006101000a81548160ff021916908315150217905550600073ffffffffffffffffffffffffffffffffffffffff168160010160009054906101000a900473ffffffffffffffffffffffffffffffffffffffff1673ffffffffffffffffffffffffffffffffffffffff16146116a657611591308260010160009054906101000a900473ffffffffffffffffffffffffffffffffffffffff16866128d3565b600d60009054906101000a900473ffffffffffffffffffffffffffffffffffffffff1673ffffffffffffffffffffffffffffffffffffffff166342966c6882600201546040518263ffffffff1660e01b81526004016115f09190613546565b600060405180830381600087803b15801561160a57600080fd5b505af115801561161e573d6000803e3d6000fd5b505050508060020154600e6000868152602001908152602001600020819055507fd2aa34a4fdbbc6dff6a3e56f46e0f3ae2a31d7785ff3487aa5c95c642acea501848260010160009054906101000a900473ffffffffffffffffffffffffffffffffffffffff16836002015460405161169993929190613d9d565b60405180910390a16116ec565b6116af8461231e565b7fd2aa34a4fdbbc6dff6a3e56f46e0f3ae2a31d7785ff3487aa5c95c642acea501846000806040516116e393929190613f2a565b60405180910390a15b506116f5612314565b505050565b6000600560008473ffffffffffffffffffffffffffffffffffffffff1673ffffffffffffffffffffffffffffffffffffffff16815260200190815260200160002060008373ffffffffffffffffffffffffffffffffffffffff1673ffffffffffffffffffffffffffffffffffffffff16815260200190815260200160002060009054906101000a900460ff16905092915050565b611796611fae565b80600a60006101000a81548173ffffffffffffffffffffffffffffffffffffffff021916908373ffffffffffffffffffffffffffffffffffffffff16021790555050565b6117e2611fae565b600d60009054906101000a900473ffffffffffffffffffffffffffffffffffffffff1673ffffffffffffffffffffffffffffffffffffffff166342966c68826040518263ffffffff1660e01b815260040161183d9190613546565b600060405180830381600087803b15801561185757600080fd5b505af115801561186b573d6000803e3d6000fd5b5050505050565b61187a611fae565b600073ffffffffffffffffffffffffffffffffffffffff168173ffffffffffffffffffffffffffffffffffffffff16036118ec5760006040517f1e4fbdf70000000000000000000000000000000000000000000000000000000081526004016118e391906134b0565b60405180910390fd5b6118f581612426565b50565b8060003373ffffffffffffffffffffffffffffffffffffffff1661191b83610fa5565b73ffffffffffffffffffffffffffffffffffffffff1614905060003373ffffffffffffffffffffffffffffffffffffffff1661195684610940565b73ffffffffffffffffffffffffffffffffffffffff1614905081806119785750805b6119b7576040517f08c379a00000000000000000000000000000000000000000000000000000000081526004016119ae90613fd3565b60405180910390fd5b6119bf61224f565b600c54341015611a04576040517f08c379a00000000000000000000000000000000000000000000000000000000081526004016119fb9061403f565b60405180910390fd5b6000600a60009054906101000a900473ffffffffffffffffffffffffffffffffffffffff1673ffffffffffffffffffffffffffffffffffffffff1634604051611a4c90614090565b60006040518083038185875af1925050503d8060008114611a89576040519150601f19603f3d011682016040523d82523d6000602084013e611a8e565b606091505b5050905080611ad2576040517f08c379a0000000000000000000000000000000000000000000000000000000008152600401611ac990614117565b60405180910390fd5b611add878787610c0a565b50611ae6612314565b505050505050565b600d60009054906101000a900473ffffffffffffffffffffffffffffffffffffffff1681565b806000600f60008381526020019081526020016000209050600b548160040154611b3e9190613bff565b421015611b80576040517f08c379a0000000000000000000000000000000000000000000000000000000008152600401611b7790613ecf565b60405180910390fd5b8060030160009054906101000a900460ff1615611bd2576040517f08c379a0000000000000000000000000000000000000000000000000000000008152600401611bc990613d11565b60405180910390fd5b611bda61224f565b6000600f600085815260200190815260200160002090508060010160009054906101000a900473ffffffffffffffffffffffffffffffffffffffff1673ffffffffffffffffffffffffffffffffffffffff163373ffffffffffffffffffffffffffffffffffffffff1614611c83576040517f08c379a0000000000000000000000000000000000000000000000000000000008152600401611c7a90614183565b60405180910390fd5b60018160030160006101000a81548160ff021916908315150217905550611ccf308260010160009054906101000a900473ffffffffffffffffffffffffffffffffffffffff16866128d3565b8060020154600e600086815260200190815260200160002081905550600d60009054906101000a900473ffffffffffffffffffffffffffffffffffffffff1673ffffffffffffffffffffffffffffffffffffffff166342966c6882600201546040518263ffffffff1660e01b8152600401611d4a9190613546565b600060405180830381600087803b158015611d6457600080fd5b505af1158015611d78573d6000803e3d6000fd5b505050507fd2aa34a4fdbbc6dff6a3e56f46e0f3ae2a31d7785ff3487aa5c95c642acea501848260010160009054906101000a900473ffffffffffffffffffffffffffffffffffffffff168360020154604051611dd793929190613d9d565b60405180910390a150611de8612314565b505050565b60007f80ac58cd000000000000000000000000000000000000000000000000000000007bffffffffffffffffffffffffffffffffffffffffffffffffffffffff1916827bffffffffffffffffffffffffffffffffffffffffffffffffffffffff19161480611eb857507f5b5e139f000000000000000000000000000000000000000000000000000000007bffffffffffffffffffffffffffffffffffffffffffffffffffffffff1916827bffffffffffffffffffffffffffffffffffffffffffffffffffffffff1916145b80611ec85750611ec782612a40565b5b9050919050565b600080611edb83612aaa565b9050600073ffffffffffffffffffffffffffffffffffffffff168173ffffffffffffffffffffffffffffffffffffffff1603611f4e57826040517f7e273289000000000000000000000000000000000000000000000000000000008152600401611f459190613546565b60405180910390fd5b80915050919050565b60006004600083815260200190815260200160002060009054906101000a900473ffffffffffffffffffffffffffffffffffffffff169050919050565b600033905090565b611fa98383836001612ae7565b505050565b611fb6611f94565b73ffffffffffffffffffffffffffffffffffffffff16611fd46111bc565b73ffffffffffffffffffffffffffffffffffffffff161461203357611ff7611f94565b6040517f118cdaa700000000000000000000000000000000000000000000000000000000815260040161202a91906134b0565b60405180910390fd5b565b60008061204184612aaa565b9050600073ffffffffffffffffffffffffffffffffffffffff168373ffffffffffffffffffffffffffffffffffffffff161461208357612082818486612cac565b5b600073ffffffffffffffffffffffffffffffffffffffff168173ffffffffffffffffffffffffffffffffffffffff1614612114576120c5600085600080612ae7565b6001600360008373ffffffffffffffffffffffffffffffffffffffff1673ffffffffffffffffffffffffffffffffffffffff168152602001908152602001600020600082825403925050819055505b600073ffffffffffffffffffffffffffffffffffffffff168573ffffffffffffffffffffffffffffffffffffffff1614612197576001600360008773ffffffffffffffffffffffffffffffffffffffff1673ffffffffffffffffffffffffffffffffffffffff168152602001908152602001600020600082825401925050819055505b846002600086815260200190815260200160002060006101000a81548173ffffffffffffffffffffffffffffffffffffffff021916908373ffffffffffffffffffffffffffffffffffffffff160217905550838573ffffffffffffffffffffffffffffffffffffffff168273ffffffffffffffffffffffffffffffffffffffff167fddf252ad1be2c89b69c2b068fc378daa952ba7f163c4a11628f55a4df523b3ef60405160405180910390a4809150509392505050565b60026008540361228b576040517f3ee5aeb500000000000000000000000000000000000000000000000000000000815260040160405180910390fd5b6002600881905550565b61230f838473ffffffffffffffffffffffffffffffffffffffff1663a9059cbb85856040516024016122c89291906141a3565b604051602081830303815290604052915060e01b6020820180517bffffffffffffffffffffffffffffffffffffffffffffffffffffffff8381831617835250505050612d70565b505050565b6001600881905550565b600061232d6000836000612035565b9050600073ffffffffffffffffffffffffffffffffffffffff168173ffffffffffffffffffffffffffffffffffffffff16036123a057816040517f7e2732890000000000000000000000000000000000000000000000000000000081526004016123979190613546565b60405180910390fd5b5050565b612420848573ffffffffffffffffffffffffffffffffffffffff166323b872dd8686866040516024016123d9939291906141cc565b604051602081830303815290604052915060e01b6020820180517bffffffffffffffffffffffffffffffffffffffffffffffffffffffff8381831617835250505050612d70565b50505050565b6000600760009054906101000a900473ffffffffffffffffffffffffffffffffffffffff16905081600760006101000a81548173ffffffffffffffffffffffffffffffffffffffff021916908373ffffffffffffffffffffffffffffffffffffffff1602179055508173ffffffffffffffffffffffffffffffffffffffff168173ffffffffffffffffffffffffffffffffffffffff167f8be0079c531659141344cd1fd0a4f28419497f9722a3daafe3b4186f6b6457e060405160405180910390a35050565b60006124f6611fae565b600060095490506009600081548092919061251090614203565b919050555061251f8482612e12565b6125298184612e30565b8091505092915050565b600073ffffffffffffffffffffffffffffffffffffffff168273ffffffffffffffffffffffffffffffffffffffff16036125a457816040517f5b08ba1800000000000000000000000000000000000000000000000000000000815260040161259b91906134b0565b60405180910390fd5b80600560008573ffffffffffffffffffffffffffffffffffffffff1673ffffffffffffffffffffffffffffffffffffffff16815260200190815260200160002060008473ffffffffffffffffffffffffffffffffffffffff1673ffffffffffffffffffffffffffffffffffffffff16815260200190815260200160002060006101000a81548160ff0219169083151502179055508173ffffffffffffffffffffffffffffffffffffffff168373ffffffffffffffffffffffffffffffffffffffff167f17307eab39ab6107e8899845ad3d59bd9653f200f220920489ca2b5937696c3183604051612695919061333f565b60405180910390a3505050565b60008373ffffffffffffffffffffffffffffffffffffffff163b111561284c578273ffffffffffffffffffffffffffffffffffffffff1663150b7a02868685856040518563ffffffff1660e01b815260040161270194939291906142a0565b6020604051808303816000875af192505050801561273d57506040513d601f19601f8201168201806040525081019061273a9190614301565b60015b6127c1573d806000811461276d576040519150601f19603f3d011682016040523d82523d6000602084013e612772565b606091505b5060008151036127b957836040517f64a0ae920000000000000000000000000000000000000000000000000000000081526004016127b091906134b0565b60405180910390fd5b805181602001fd5b63150b7a0260e01b7bffffffffffffffffffffffffffffffffffffffffffffffffffffffff1916817bffffffffffffffffffffffffffffffffffffffffffffffffffffffff19161461284a57836040517f64a0ae9200000000000000000000000000000000000000000000000000000000815260040161284191906134b0565b60405180910390fd5b505b5050505050565b606060405180602001604052806000815250905090565b606061287582611ecf565b506000612880612853565b905060008151116128a057604051806020016040528060008152506128cb565b806128aa84612e8c565b6040516020016128bb929190613e39565b6040516020818303038152906040525b915050919050565b600073ffffffffffffffffffffffffffffffffffffffff168273ffffffffffffffffffffffffffffffffffffffff16036129455760006040517f64a0ae9200000000000000000000000000000000000000000000000000000000815260040161293c91906134b0565b60405180910390fd5b600061295383836000612035565b9050600073ffffffffffffffffffffffffffffffffffffffff168173ffffffffffffffffffffffffffffffffffffffff16036129c657816040517f7e2732890000000000000000000000000000000000000000000000000000000081526004016129bd9190613546565b60405180910390fd5b8373ffffffffffffffffffffffffffffffffffffffff168173ffffffffffffffffffffffffffffffffffffffff1614612a3a578382826040517f64283d7b000000000000000000000000000000000000000000000000000000008152600401612a3193929190613b07565b60405180910390fd5b50505050565b60007f01ffc9a7000000000000000000000000000000000000000000000000000000007bffffffffffffffffffffffffffffffffffffffffffffffffffffffff1916827bffffffffffffffffffffffffffffffffffffffffffffffffffffffff1916149050919050565b60006002600083815260200190815260200160002060009054906101000a900473ffffffffffffffffffffffffffffffffffffffff169050919050565b8080612b205750600073ffffffffffffffffffffffffffffffffffffffff168273ffffffffffffffffffffffffffffffffffffffff1614155b15612c54576000612b3084611ecf565b9050600073ffffffffffffffffffffffffffffffffffffffff168373ffffffffffffffffffffffffffffffffffffffff1614158015612b9b57508273ffffffffffffffffffffffffffffffffffffffff168173ffffffffffffffffffffffffffffffffffffffff1614155b8015612bae5750612bac81846116fa565b155b15612bf057826040517fa9fbf51f000000000000000000000000000000000000000000000000000000008152600401612be791906134b0565b60405180910390fd5b8115612c5257838573ffffffffffffffffffffffffffffffffffffffff168273ffffffffffffffffffffffffffffffffffffffff167f8c5be1e5ebec7d5bd14f71427d1e84f3dd0314c0f7b2291e5b200ac8c7c3b92560405160405180910390a45b505b836004600085815260200190815260200160002060006101000a81548173ffffffffffffffffffffffffffffffffffffffff021916908373ffffffffffffffffffffffffffffffffffffffff16021790555050505050565b612cb7838383612f5a565b612d6b57600073ffffffffffffffffffffffffffffffffffffffff168373ffffffffffffffffffffffffffffffffffffffff1603612d2c57806040517f7e273289000000000000000000000000000000000000000000000000000000008152600401612d239190613546565b60405180910390fd5b81816040517f177e802f000000000000000000000000000000000000000000000000000000008152600401612d629291906141a3565b60405180910390fd5b505050565b600080602060008451602086016000885af180612d93576040513d6000823e3d81fd5b3d925060005191505060008214612dae576001811415612dca565b60008473ffffffffffffffffffffffffffffffffffffffff163b145b15612e0c57836040517f5274afe7000000000000000000000000000000000000000000000000000000008152600401612e0391906134b0565b60405180910390fd5b50505050565b612e2c82826040518060200160405280600081525061301b565b5050565b80600660008481526020019081526020016000209081612e5091906144d0565b507ff8e1a15aba9398e019f0b49df1a4fde98ee17ae345cb5f6b5e2c27f5033e8ce782604051612e809190613546565b60405180910390a15050565b606060006001612e9b8461303f565b01905060008167ffffffffffffffff811115612eba57612eb96136e9565b5b6040519080825280601f01601f191660200182016040528015612eec5781602001600182028036833780820191505090505b509050600082602001820190505b600115612f4f578080600190039150507f3031323334353637383961626364656600000000000000000000000000000000600a86061a8153600a8581612f4357612f426145a2565b5b04945060008503612efa575b819350505050919050565b60008073ffffffffffffffffffffffffffffffffffffffff168373ffffffffffffffffffffffffffffffffffffffff161415801561301257508273ffffffffffffffffffffffffffffffffffffffff168473ffffffffffffffffffffffffffffffffffffffff161480612fd35750612fd284846116fa565b5b8061301157508273ffffffffffffffffffffffffffffffffffffffff16612ff983611f57565b73ffffffffffffffffffffffffffffffffffffffff16145b5b90509392505050565b6130258383613192565b61303a613030611f94565b60008585856126a2565b505050565b600080600090507a184f03e93ff9f4daa797ed6e38ed64bf6a1f010000000000000000831061309d577a184f03e93ff9f4daa797ed6e38ed64bf6a1f0100000000000000008381613093576130926145a2565b5b0492506040810190505b6d04ee2d6d415b85acef810000000083106130da576d04ee2d6d415b85acef810000000083816130d0576130cf6145a2565b5b0492506020810190505b662386f26fc10000831061310957662386f26fc1000083816130ff576130fe6145a2565b5b0492506010810190505b6305f5e1008310613132576305f5e1008381613128576131276145a2565b5b0492506008810190505b612710831061315757612710838161314d5761314c6145a2565b5b0492506004810190505b6064831061317a57606483816131705761316f6145a2565b5b0492506002810190505b600a8310613189576001810190505b80915050919050565b600073ffffffffffffffffffffffffffffffffffffffff168273ffffffffffffffffffffffffffffffffffffffff16036132045760006040517f64a0ae920000000000000000000000000000000000000000000000000000000081526004016131fb91906134b0565b60405180910390fd5b600061321283836000612035565b9050600073ffffffffffffffffffffffffffffffffffffffff168173ffffffffffffffffffffffffffffffffffffffff16146132865760006040517f73c6ac6e00000000000000000000000000000000000000000000000000000000815260040161327d91906134b0565b60405180910390fd5b505050565b6000604051905090565b600080fd5b600080fd5b60007fffffffff0000000000000000000000000000000000000000000000000000000082169050919050565b6132d48161329f565b81146132df57600080fd5b50565b6000813590506132f1816132cb565b92915050565b60006020828403121561330d5761330c613295565b5b600061331b848285016132e2565b91505092915050565b60008115159050919050565b61333981613324565b82525050565b60006020820190506133546000830184613330565b92915050565b600081519050919050565b600082825260208201905092915050565b60005b83811015613394578082015181840152602081019050613379565b60008484015250505050565b6000601f19601f8301169050919050565b60006133bc8261335a565b6133c68185613365565b93506133d6818560208601613376565b6133df816133a0565b840191505092915050565b6000602082019050818103600083015261340481846133b1565b905092915050565b6000819050919050565b61341f8161340c565b811461342a57600080fd5b50565b60008135905061343c81613416565b92915050565b60006020828403121561345857613457613295565b5b60006134668482850161342d565b91505092915050565b600073ffffffffffffffffffffffffffffffffffffffff82169050919050565b600061349a8261346f565b9050919050565b6134aa8161348f565b82525050565b60006020820190506134c560008301846134a1565b92915050565b6134d48161348f565b81146134df57600080fd5b50565b6000813590506134f1816134cb565b92915050565b6000806040838503121561350e5761350d613295565b5b600061351c858286016134e2565b925050602061352d8582860161342d565b9150509250929050565b6135408161340c565b82525050565b600060208201905061355b6000830184613537565b92915050565b600061356c8261348f565b9050919050565b61357c81613561565b811461358757600080fd5b50565b60008135905061359981613573565b92915050565b6000602082840312156135b5576135b4613295565b5b60006135c38482850161358a565b91505092915050565b6000806000606084860312156135e5576135e4613295565b5b60006135f3868287016134e2565b9350506020613604868287016134e2565b92505060406136158682870161342d565b9150509250925092565b60006020828403121561363557613634613295565b5b6000613643848285016134e2565b91505092915050565b600060a0820190506136616000830188613537565b61366e60208301876134a1565b61367b6040830186613537565b6136886060830185613330565b6136956080830184613537565b9695505050505050565b600080604083850312156136b6576136b5613295565b5b60006136c48582860161342d565b92505060206136d58582860161342d565b9150509250929050565b600080fd5b600080fd5b7f4e487b7100000000000000000000000000000000000000000000000000000000600052604160045260246000fd5b613721826133a0565b810181811067ffffffffffffffff821117156137405761373f6136e9565b5b80604052505050565b600061375361328b565b905061375f8282613718565b919050565b600067ffffffffffffffff82111561377f5761377e6136e9565b5b613788826133a0565b9050602081019050919050565b82818337600083830152505050565b60006137b76137b284613764565b613749565b9050828152602081018484840111156137d3576137d26136e4565b5b6137de848285613795565b509392505050565b600082601f8301126137fb576137fa6136df565b5b813561380b8482602086016137a4565b91505092915050565b60006020828403121561382a57613829613295565b5b600082013567ffffffffffffffff8111156138485761384761329a565b5b613854848285016137e6565b91505092915050565b61386681613324565b811461387157600080fd5b50565b6000813590506138838161385d565b92915050565b600080604083850312156138a05761389f613295565b5b60006138ae858286016134e2565b92505060206138bf85828601613874565b9150509250929050565b600067ffffffffffffffff8211156138e4576138e36136e9565b5b6138ed826133a0565b9050602081019050919050565b600061390d613908846138c9565b613749565b905082815260208101848484011115613929576139286136e4565b5b613934848285613795565b509392505050565b600082601f830112613951576139506136df565b5b81356139618482602086016138fa565b91505092915050565b6000806000806080858703121561398457613983613295565b5b6000613992878288016134e2565b94505060206139a3878288016134e2565b93505060406139b48782880161342d565b925050606085013567ffffffffffffffff8111156139d5576139d461329a565b5b6139e18782880161393c565b91505092959194509250565b60008060408385031215613a0457613a03613295565b5b6000613a12858286016134e2565b9250506020613a23858286016134e2565b9150509250929050565b6000819050919050565b6000613a52613a4d613a488461346f565b613a2d565b61346f565b9050919050565b6000613a6482613a37565b9050919050565b6000613a7682613a59565b9050919050565b613a8681613a6b565b82525050565b6000602082019050613aa16000830184613a7d565b92915050565b7f4e487b7100000000000000000000000000000000000000000000000000000000600052602260045260246000fd5b60006002820490506001821680613aee57607f821691505b602082108103613b0157613b00613aa7565b5b50919050565b6000606082019050613b1c60008301866134a1565b613b296020830185613537565b613b3660408301846134a1565b949350505050565b7f4772617669506f6f6c4e46543a204e6f2066756e647320746f2077697468647260008201527f6177000000000000000000000000000000000000000000000000000000000000602082015250565b6000613b9a602283613365565b9150613ba582613b3e565b604082019050919050565b60006020820190508181036000830152613bc981613b8d565b9050919050565b7f4e487b7100000000000000000000000000000000000000000000000000000000600052601160045260246000fd5b6000613c0a8261340c565b9150613c158361340c565b9250828201905080821115613c2d57613c2c613bd0565b5b92915050565b7f4772617669506f6f6c4e46543a2041756374696f6e2068617320656e64656400600082015250565b6000613c69601f83613365565b9150613c7482613c33565b602082019050919050565b60006020820190508181036000830152613c9881613c5c565b9050919050565b7f4772617669506f6f6c4e46543a2041756374696f6e20616c726561647920656e60008201527f6465640000000000000000000000000000000000000000000000000000000000602082015250565b6000613cfb602383613365565b9150613d0682613c9f565b604082019050919050565b60006020820190508181036000830152613d2a81613cee565b9050919050565b7f4772617669506f6f6c4e46543a2042696420746f6f206c6f7700000000000000600082015250565b6000613d67601983613365565b9150613d7282613d31565b602082019050919050565b60006020820190508181036000830152613d9681613d5a565b9050919050565b6000606082019050613db26000830186613537565b613dbf60208301856134a1565b613dcc6040830184613537565b949350505050565b6000604082019050613de96000830185613537565b613df66020830184613537565b9392505050565b600081905092915050565b6000613e138261335a565b613e1d8185613dfd565b9350613e2d818560208601613376565b80840191505092915050565b6000613e458285613e08565b9150613e518284613e08565b91508190509392505050565b7f4772617669506f6f6c4e46543a2041756374696f6e207374696c6c206163746960008201527f7665000000000000000000000000000000000000000000000000000000000000602082015250565b6000613eb9602283613365565b9150613ec482613e5d565b604082019050919050565b60006020820190508181036000830152613ee881613eac565b9050919050565b6000819050919050565b6000613f14613f0f613f0a84613eef565b613a2d565b61340c565b9050919050565b613f2481613ef9565b82525050565b6000606082019050613f3f6000830186613537565b613f4c60208301856134a1565b613f596040830184613f1b565b949350505050565b7f4772617669506f6f6c4e46543a204e6f7420746f6b656e206f776e6572206f7260008201527f20617070726f7665640000000000000000000000000000000000000000000000602082015250565b6000613fbd602983613365565b9150613fc882613f61565b604082019050919050565b60006020820190508181036000830152613fec81613fb0565b9050919050565b7f4772617669506f6f6c4e46543a20496e73756666696369656e74206665650000600082015250565b6000614029601e83613365565b915061403482613ff3565b602082019050919050565b600060208201905081810360008301526140588161401c565b9050919050565b600081905092915050565b50565b600061407a60008361405f565b91506140858261406a565b600082019050919050565b600061409b8261406d565b9150819050919050565b7f4772617669506f6f6c4e46543a20466565207472616e73666572206661696c6560008201527f6400000000000000000000000000000000000000000000000000000000000000602082015250565b6000614101602183613365565b915061410c826140a5565b604082019050919050565b60006020820190508181036000830152614130816140f4565b9050919050565b7f4772617669506f6f6c4e46543a204e6f74206869676865737420626964646572600082015250565b600061416d602083613365565b915061417882614137565b602082019050919050565b6000602082019050818103600083015261419c81614160565b9050919050565b60006040820190506141b860008301856134a1565b6141c56020830184613537565b9392505050565b60006060820190506141e160008301866134a1565b6141ee60208301856134a1565b6141fb6040830184613537565b949350505050565b600061420e8261340c565b91507fffffffffffffffffffffffffffffffffffffffffffffffffffffffffffffffff82036142405761423f613bd0565b5b600182019050919050565b600081519050919050565b600082825260208201905092915050565b60006142728261424b565b61427c8185614256565b935061428c818560208601613376565b614295816133a0565b840191505092915050565b60006080820190506142b560008301876134a1565b6142c260208301866134a1565b6142cf6040830185613537565b81810360608301526142e18184614267565b905095945050505050565b6000815190506142fb816132cb565b92915050565b60006020828403121561431757614316613295565b5b6000614325848285016142ec565b91505092915050565b60008190508160005260206000209050919050565b60006020601f8301049050919050565b600082821b905092915050565b6000600883026143907fffffffffffffffffffffffffffffffffffffffffffffffffffffffffffffffff82614353565b61439a8683614353565b95508019841693508086168417925050509392505050565b60006143cd6143c86143c38461340c565b613a2d565b61340c565b9050919050565b6000819050919050565b6143e7836143b2565b6143fb6143f3826143d4565b848454614360565b825550505050565b600090565b614410614403565b61441b8184846143de565b505050565b5b8181101561443f57614434600082614408565b600181019050614421565b5050565b601f821115614484576144558161432e565b61445e84614343565b8101602085101561446d578190505b61448161447985614343565b830182614420565b50505b505050565b600082821c905092915050565b60006144a760001984600802614489565b1980831691505092915050565b60006144c08383614496565b9150826002028217905092915050565b6144d98261335a565b67ffffffffffffffff8111156144f2576144f16136e9565b5b6144fc8254613ad6565b614507828285614443565b600060209050601f83116001811461453a5760008415614528578287015190505b61453285826144b4565b86555061459a565b601f1984166145488661432e565b60005b828110156145705784890151825560018201915060208501945060208101905061454b565b8683101561458d5784890151614589601f891682614496565b8355505b6001600288020188555050505b505050505050565b7f4e487b7100000000000000000000000000000000000000000000000000000000600052601260045260246000fdfea26469706673582212205596e1a8565589ee81f95e0ef2e3dd1cfcd844f4d634e7754638abb1a4b476d164736f6c634300081c0033",
  "linkReferences": {},
  "deployedLinkReferences": {}
}