{
  "_format": "hh-sol-artifact-1",
  "contractName": "GraviPoolNFT",
  "sourceName": "contracts/tokens/GraviPoolNFT.sol",
  "abi": [
    {
      "inputs": [
        {
          "internalType": "address",
          "name": "_graviCha",
          "type": "address"
        }
      ],
      "stateMutability": "nonpayable",
      "type": "constructor"
    },
    {
      "inputs": [
        {
          "internalType": "address",
          "name": "sender",
          "type": "address"
        },
        {
          "internalType": "uint256",
          "name": "tokenId",
          "type": "uint256"
        },
        {
          "internalType": "address",
          "name": "owner",
          "type": "address"
        }
      ],
      "name": "ERC721IncorrectOwner",
      "type": "error"
    },
    {
      "inputs": [
        {
          "internalType": "address",
          "name": "operator",
          "type": "address"
        },
        {
          "internalType": "uint256",
          "name": "tokenId",
          "type": "uint256"
        }
      ],
      "name": "ERC721InsufficientApproval",
      "type": "error"
    },
    {
      "inputs": [
        {
          "internalType": "address",
          "name": "approver",
          "type": "address"
        }
      ],
      "name": "ERC721InvalidApprover",
      "type": "error"
    },
    {
      "inputs": [
        {
          "internalType": "address",
          "name": "operator",
          "type": "address"
        }
      ],
      "name": "ERC721InvalidOperator",
      "type": "error"
    },
    {
      "inputs": [
        {
          "internalType": "address",
          "name": "owner",
          "type": "address"
        }
      ],
      "name": "ERC721InvalidOwner",
      "type": "error"
    },
    {
      "inputs": [
        {
          "internalType": "address",
          "name": "receiver",
          "type": "address"
        }
      ],
      "name": "ERC721InvalidReceiver",
      "type": "error"
    },
    {
      "inputs": [
        {
          "internalType": "address",
          "name": "sender",
          "type": "address"
        }
      ],
      "name": "ERC721InvalidSender",
      "type": "error"
    },
    {
      "inputs": [
        {
          "internalType": "uint256",
          "name": "tokenId",
          "type": "uint256"
        }
      ],
      "name": "ERC721NonexistentToken",
      "type": "error"
    },
    {
      "inputs": [
        {
          "internalType": "address",
          "name": "owner",
          "type": "address"
        }
      ],
      "name": "OwnableInvalidOwner",
      "type": "error"
    },
    {
      "inputs": [
        {
          "internalType": "address",
          "name": "account",
          "type": "address"
        }
      ],
      "name": "OwnableUnauthorizedAccount",
      "type": "error"
    },
    {
      "inputs": [],
      "name": "ReentrancyGuardReentrantCall",
      "type": "error"
    },
    {
      "anonymous": false,
      "inputs": [
        {
          "indexed": true,
          "internalType": "address",
          "name": "owner",
          "type": "address"
        },
        {
          "indexed": true,
          "internalType": "address",
          "name": "approved",
          "type": "address"
        },
        {
          "indexed": true,
          "internalType": "uint256",
          "name": "tokenId",
          "type": "uint256"
        }
      ],
      "name": "Approval",
      "type": "event"
    },
    {
      "anonymous": false,
      "inputs": [
        {
          "indexed": true,
          "internalType": "address",
          "name": "owner",
          "type": "address"
        },
        {
          "indexed": true,
          "internalType": "address",
          "name": "operator",
          "type": "address"
        },
        {
          "indexed": false,
          "internalType": "bool",
          "name": "approved",
          "type": "bool"
        }
      ],
      "name": "ApprovalForAll",
      "type": "event"
    },
    {
      "anonymous": false,
      "inputs": [
        {
          "indexed": false,
          "internalType": "uint256",
          "name": "tokenId",
          "type": "uint256"
        },
        {
          "indexed": false,
          "internalType": "address",
          "name": "bidder",
          "type": "address"
        },
        {
          "indexed": false,
          "internalType": "uint256",
          "name": "bid",
          "type": "uint256"
        }
      ],
      "name": "AuctionBid",
      "type": "event"
    },
    {
      "anonymous": false,
      "inputs": [
        {
          "indexed": false,
          "internalType": "uint256",
          "name": "tokenId",
          "type": "uint256"
        },
        {
          "indexed": false,
          "internalType": "address",
          "name": "winner",
          "type": "address"
        },
        {
          "indexed": false,
          "internalType": "uint256",
          "name": "bid",
          "type": "uint256"
        }
      ],
      "name": "AuctionEnded",
      "type": "event"
    },
    {
      "anonymous": false,
      "inputs": [
        {
          "indexed": false,
          "internalType": "uint256",
          "name": "tokenId",
          "type": "uint256"
        },
        {
          "indexed": false,
          "internalType": "uint256",
          "name": "startTime",
          "type": "uint256"
        }
      ],
      "name": "AuctionStarted",
      "type": "event"
    },
    {
      "anonymous": false,
      "inputs": [
        {
          "indexed": false,
          "internalType": "uint256",
          "name": "_fromTokenId",
          "type": "uint256"
        },
        {
          "indexed": false,
          "internalType": "uint256",
          "name": "_toTokenId",
          "type": "uint256"
        }
      ],
      "name": "BatchMetadataUpdate",
      "type": "event"
    },
    {
      "anonymous": false,
      "inputs": [
        {
          "indexed": false,
          "internalType": "uint256",
          "name": "_tokenId",
          "type": "uint256"
        }
      ],
      "name": "MetadataUpdate",
      "type": "event"
    },
    {
      "anonymous": false,
      "inputs": [
        {
          "indexed": true,
          "internalType": "address",
          "name": "previousOwner",
          "type": "address"
        },
        {
          "indexed": true,
          "internalType": "address",
          "name": "newOwner",
          "type": "address"
        }
      ],
      "name": "OwnershipTransferred",
      "type": "event"
    },
    {
      "anonymous": false,
      "inputs": [
        {
          "indexed": true,
          "internalType": "address",
          "name": "from",
          "type": "address"
        },
        {
          "indexed": true,
          "internalType": "address",
          "name": "to",
          "type": "address"
        },
        {
          "indexed": true,
          "internalType": "uint256",
          "name": "tokenId",
          "type": "uint256"
        }
      ],
      "name": "Transfer",
      "type": "event"
    },
    {
      "inputs": [
        {
          "internalType": "address",
          "name": "treasury",
          "type": "address"
        }
      ],
      "name": "addTreasuryAddress",
      "outputs": [],
      "stateMutability": "nonpayable",
      "type": "function"
    },
    {
      "inputs": [
        {
          "internalType": "address",
          "name": "to",
          "type": "address"
        },
        {
          "internalType": "uint256",
          "name": "tokenId",
          "type": "uint256"
        }
      ],
      "name": "approve",
      "outputs": [],
      "stateMutability": "nonpayable",
      "type": "function"
    },
    {
      "inputs": [],
      "name": "auctionDuration",
      "outputs": [
        {
          "internalType": "uint256",
          "name": "",
          "type": "uint256"
        }
      ],
      "stateMutability": "view",
      "type": "function"
    },
    {
      "inputs": [
        {
          "internalType": "uint256",
          "name": "",
          "type": "uint256"
        }
      ],
      "name": "auctions",
      "outputs": [
        {
          "internalType": "uint256",
          "name": "tokenId",
          "type": "uint256"
        },
        {
          "internalType": "address",
          "name": "highestBidder",
          "type": "address"
        },
        {
          "internalType": "uint256",
          "name": "highestBid",
          "type": "uint256"
        },
        {
          "internalType": "bool",
          "name": "ended",
          "type": "bool"
        },
        {
          "internalType": "uint256",
          "name": "startTime",
          "type": "uint256"
        }
      ],
      "stateMutability": "view",
      "type": "function"
    },
    {
      "inputs": [
        {
          "internalType": "address",
          "name": "owner",
          "type": "address"
        }
      ],
      "name": "balanceOf",
      "outputs": [
        {
          "internalType": "uint256",
          "name": "",
          "type": "uint256"
        }
      ],
      "stateMutability": "view",
      "type": "function"
    },
    {
      "inputs": [
        {
          "internalType": "uint256",
          "name": "tokenId",
          "type": "uint256"
        },
        {
          "internalType": "uint256",
          "name": "bidAmount",
          "type": "uint256"
        }
      ],
      "name": "bid",
      "outputs": [],
      "stateMutability": "nonpayable",
      "type": "function"
    },
    {
      "inputs": [
        {
          "internalType": "uint256",
          "name": "tokenId",
          "type": "uint256"
        }
      ],
      "name": "burn",
      "outputs": [],
      "stateMutability": "nonpayable",
      "type": "function"
    },
    {
      "inputs": [
        {
          "internalType": "uint256",
          "name": "amount",
          "type": "uint256"
        }
      ],
      "name": "burnExcessTokens",
      "outputs": [],
      "stateMutability": "nonpayable",
      "type": "function"
    },
    {
      "inputs": [
        {
          "internalType": "uint256",
          "name": "tokenId",
          "type": "uint256"
        }
      ],
      "name": "claimNFT",
      "outputs": [],
      "stateMutability": "nonpayable",
      "type": "function"
    },
    {
      "inputs": [
        {
          "internalType": "uint256",
          "name": "tokenId",
          "type": "uint256"
        }
      ],
      "name": "forceEndAuction",
      "outputs": [],
      "stateMutability": "nonpayable",
      "type": "function"
    },
    {
      "inputs": [
        {
          "internalType": "uint256",
          "name": "tokenId",
          "type": "uint256"
        }
      ],
      "name": "getApproved",
      "outputs": [
        {
          "internalType": "address",
          "name": "",
          "type": "address"
        }
      ],
      "stateMutability": "view",
      "type": "function"
    },
    {
      "inputs": [
        {
          "internalType": "uint256",
          "name": "tokenId",
          "type": "uint256"
        }
      ],
      "name": "getAuctionDetails",
      "outputs": [
        {
          "internalType": "uint256",
          "name": "auctionedTokenId",
          "type": "uint256"
        },
        {
          "internalType": "address",
          "name": "highestBidder",
          "type": "address"
        },
        {
          "internalType": "uint256",
          "name": "highestBid",
          "type": "uint256"
        },
        {
          "internalType": "bool",
          "name": "ended",
          "type": "bool"
        },
        {
          "internalType": "uint256",
          "name": "startTime",
          "type": "uint256"
        }
      ],
      "stateMutability": "view",
      "type": "function"
    },
    {
      "inputs": [],
      "name": "getAuctionedNFTs",
      "outputs": [
        {
          "internalType": "uint256[]",
          "name": "",
          "type": "uint256[]"
        }
      ],
      "stateMutability": "view",
      "type": "function"
    },
    {
      "inputs": [
        {
          "internalType": "uint256",
          "name": "tokenId",
          "type": "uint256"
        }
      ],
      "name": "getTreasuryAddress",
      "outputs": [
        {
          "internalType": "address",
          "name": "",
          "type": "address"
        }
      ],
      "stateMutability": "view",
      "type": "function"
    },
    {
      "inputs": [],
      "name": "getTreasuryAddresses",
      "outputs": [
        {
          "internalType": "address[]",
          "name": "",
          "type": "address[]"
        }
      ],
      "stateMutability": "view",
      "type": "function"
    },
    {
      "inputs": [
        {
          "internalType": "address",
          "name": "treasuryAddress",
          "type": "address"
        }
      ],
      "name": "getTreasuryIndexByAddress",
      "outputs": [
        {
          "internalType": "uint8",
          "name": "",
          "type": "uint8"
        }
      ],
      "stateMutability": "view",
      "type": "function"
    },
    {
      "inputs": [],
      "name": "graviCha",
      "outputs": [
        {
          "internalType": "contract IGraviCha",
          "name": "",
          "type": "address"
        }
      ],
      "stateMutability": "view",
      "type": "function"
    },
    {
      "inputs": [
        {
          "internalType": "address",
          "name": "owner",
          "type": "address"
        },
        {
          "internalType": "address",
          "name": "operator",
          "type": "address"
        }
      ],
      "name": "isApprovedForAll",
      "outputs": [
        {
          "internalType": "bool",
          "name": "",
          "type": "bool"
        }
      ],
      "stateMutability": "view",
      "type": "function"
    },
    {
      "inputs": [
        {
          "internalType": "string[]",
          "name": "tokenURIs",
          "type": "string[]"
        },
        {
          "internalType": "address[]",
          "name": "insuranceAddresses",
          "type": "address[]"
        }
      ],
      "name": "mintAndAuctionNFTs",
      "outputs": [],
      "stateMutability": "nonpayable",
      "type": "function"
    },
    {
      "inputs": [
        {
          "internalType": "address",
          "name": "poolAddress",
          "type": "address"
        },
        {
          "internalType": "uint8",
          "name": "treasuryIndex",
          "type": "uint8"
        },
        {
          "internalType": "string",
          "name": "tokenURI",
          "type": "string"
        }
      ],
      "name": "mintToPool",
      "outputs": [
        {
          "internalType": "uint256",
          "name": "",
          "type": "uint256"
        }
      ],
      "stateMutability": "nonpayable",
      "type": "function"
    },
    {
      "inputs": [],
      "name": "name",
      "outputs": [
        {
          "internalType": "string",
          "name": "",
          "type": "string"
        }
      ],
      "stateMutability": "view",
      "type": "function"
    },
    {
      "inputs": [
        {
          "internalType": "address",
          "name": "",
          "type": "address"
        },
        {
          "internalType": "address",
          "name": "",
          "type": "address"
        },
        {
          "internalType": "uint256",
          "name": "",
          "type": "uint256"
        },
        {
          "internalType": "bytes",
          "name": "",
          "type": "bytes"
        }
      ],
      "name": "onERC721Received",
      "outputs": [
        {
          "internalType": "bytes4",
          "name": "",
          "type": "bytes4"
        }
      ],
      "stateMutability": "pure",
      "type": "function"
    },
    {
      "inputs": [],
      "name": "owner",
      "outputs": [
        {
          "internalType": "address",
          "name": "",
          "type": "address"
        }
      ],
      "stateMutability": "view",
      "type": "function"
    },
    {
      "inputs": [
        {
          "internalType": "uint256",
          "name": "tokenId",
          "type": "uint256"
        }
      ],
      "name": "ownerOf",
      "outputs": [
        {
          "internalType": "address",
          "name": "",
          "type": "address"
        }
      ],
      "stateMutability": "view",
      "type": "function"
    },
    {
      "inputs": [
        {
          "internalType": "address",
          "name": "",
          "type": "address"
        }
      ],
      "name": "pendingReturns",
      "outputs": [
        {
          "internalType": "uint256",
          "name": "",
          "type": "uint256"
        }
      ],
      "stateMutability": "view",
      "type": "function"
    },
    {
      "inputs": [],
      "name": "renounceOwnership",
      "outputs": [],
      "stateMutability": "nonpayable",
      "type": "function"
    },
    {
      "inputs": [
        {
          "internalType": "address",
          "name": "from",
          "type": "address"
        },
        {
          "internalType": "address",
          "name": "to",
          "type": "address"
        },
        {
          "internalType": "uint256",
          "name": "tokenId",
          "type": "uint256"
        }
      ],
      "name": "safeTransferFrom",
      "outputs": [],
      "stateMutability": "nonpayable",
      "type": "function"
    },
    {
      "inputs": [
        {
          "internalType": "address",
          "name": "from",
          "type": "address"
        },
        {
          "internalType": "address",
          "name": "to",
          "type": "address"
        },
        {
          "internalType": "uint256",
          "name": "tokenId",
          "type": "uint256"
        },
        {
          "internalType": "bytes",
          "name": "data",
          "type": "bytes"
        }
      ],
      "name": "safeTransferFrom",
      "outputs": [],
      "stateMutability": "nonpayable",
      "type": "function"
    },
    {
      "inputs": [
        {
          "internalType": "address",
          "name": "operator",
          "type": "address"
        },
        {
          "internalType": "bool",
          "name": "approved",
          "type": "bool"
        }
      ],
      "name": "setApprovalForAll",
      "outputs": [],
      "stateMutability": "nonpayable",
      "type": "function"
    },
    {
      "inputs": [
        {
          "internalType": "uint256",
          "name": "_auctionDuration",
          "type": "uint256"
        }
      ],
      "name": "setAuctionDuration",
      "outputs": [],
      "stateMutability": "nonpayable",
      "type": "function"
    },
    {
      "inputs": [
        {
          "internalType": "address",
          "name": "_token",
          "type": "address"
        }
      ],
      "name": "setToken",
      "outputs": [],
      "stateMutability": "nonpayable",
      "type": "function"
    },
    {
      "inputs": [
        {
          "internalType": "uint256",
          "name": "_transferFee",
          "type": "uint256"
        }
      ],
      "name": "setTransferFee",
      "outputs": [],
      "stateMutability": "nonpayable",
      "type": "function"
    },
    {
      "inputs": [
        {
          "internalType": "uint8",
          "name": "index",
          "type": "uint8"
        },
        {
          "internalType": "address",
          "name": "treasury",
          "type": "address"
        }
      ],
      "name": "setTreasuryAddress",
      "outputs": [],
      "stateMutability": "nonpayable",
      "type": "function"
    },
    {
      "inputs": [
        {
          "internalType": "bytes4",
          "name": "interfaceId",
          "type": "bytes4"
        }
      ],
      "name": "supportsInterface",
      "outputs": [
        {
          "internalType": "bool",
          "name": "",
          "type": "bool"
        }
      ],
      "stateMutability": "view",
      "type": "function"
    },
    {
      "inputs": [],
      "name": "symbol",
      "outputs": [
        {
          "internalType": "string",
          "name": "",
          "type": "string"
        }
      ],
      "stateMutability": "view",
      "type": "function"
    },
    {
      "inputs": [
        {
          "internalType": "uint256",
          "name": "",
          "type": "uint256"
        }
      ],
      "name": "tokenDonations",
      "outputs": [
        {
          "internalType": "uint256",
          "name": "",
          "type": "uint256"
        }
      ],
      "stateMutability": "view",
      "type": "function"
    },
    {
      "inputs": [
        {
          "internalType": "uint256",
          "name": "",
          "type": "uint256"
        }
      ],
      "name": "tokenTreasuryIndex",
      "outputs": [
        {
          "internalType": "uint8",
          "name": "",
          "type": "uint8"
        }
      ],
      "stateMutability": "view",
      "type": "function"
    },
    {
      "inputs": [
        {
          "internalType": "uint256",
          "name": "tokenId",
          "type": "uint256"
        }
      ],
      "name": "tokenURI",
      "outputs": [
        {
          "internalType": "string",
          "name": "",
          "type": "string"
        }
      ],
      "stateMutability": "view",
      "type": "function"
    },
    {
      "inputs": [],
      "name": "transferFee",
      "outputs": [
        {
          "internalType": "uint256",
          "name": "",
          "type": "uint256"
        }
      ],
      "stateMutability": "view",
      "type": "function"
    },
    {
      "inputs": [
        {
          "internalType": "address",
          "name": "from",
          "type": "address"
        },
        {
          "internalType": "address",
          "name": "to",
          "type": "address"
        },
        {
          "internalType": "uint256",
          "name": "tokenId",
          "type": "uint256"
        }
      ],
      "name": "transferFrom",
      "outputs": [],
      "stateMutability": "nonpayable",
      "type": "function"
    },
    {
      "inputs": [
        {
          "internalType": "address",
          "name": "newOwner",
          "type": "address"
        }
      ],
      "name": "transferOwnership",
      "outputs": [],
      "stateMutability": "nonpayable",
      "type": "function"
    },
    {
      "inputs": [
        {
          "internalType": "address",
          "name": "from",
          "type": "address"
        },
        {
          "internalType": "address",
          "name": "to",
          "type": "address"
        },
        {
          "internalType": "uint256",
          "name": "tokenId",
          "type": "uint256"
        }
      ],
      "name": "transferWithDonation",
      "outputs": [],
      "stateMutability": "payable",
      "type": "function"
    },
    {
      "inputs": [
        {
          "internalType": "address",
          "name": "from",
          "type": "address"
        },
        {
          "internalType": "address",
          "name": "to",
          "type": "address"
        },
        {
          "internalType": "uint256",
          "name": "tokenId",
          "type": "uint256"
        }
      ],
      "name": "transferWithFee",
      "outputs": [],
      "stateMutability": "payable",
      "type": "function"
    },
    {
      "inputs": [
        {
          "internalType": "uint256",
          "name": "",
          "type": "uint256"
        }
      ],
      "name": "treasuries",
      "outputs": [
        {
          "internalType": "address",
          "name": "",
          "type": "address"
        }
      ],
      "stateMutability": "view",
      "type": "function"
    },
    {
      "inputs": [],
      "name": "withdraw",
      "outputs": [],
      "stateMutability": "nonpayable",
      "type": "function"
    },
    {
      "inputs": [],
      "name": "withdrawableAmount",
      "outputs": [
        {
          "internalType": "uint256",
          "name": "",
          "type": "uint256"
        }
      ],
      "stateMutability": "view",
      "type": "function"
    }
  ],
  "bytecode": "0x6080604052346103cc57612cba6020813803918261001c816103d1565b9384928339810103126103cc57516001600160a01b038116908190036103cc5761004660406103d1565b90600c82526b11dc985d9a541bdbdb13919560a21b602083015261006a60406103d1565b600681526511d49053919560d21b602082015282519091906001600160401b0381116102d757600054600181811c911680156103c2575b60208210146102b757601f811161035e575b506020601f82116001146102f857819293946000926102ed575b50508160011b916000199060031b1c1916176000555b81516001600160401b0381116102d757600154600181811c911680156102cd575b60208210146102b757601f8111610252575b50602092601f82116001146101ed57928192936000926101e2575b50508160011b916000199060031b1c1916176001555b33156101cc5760078054336001600160a01b0319821681179092556040519291906001600160a01b03167f8be0079c531659141344cd1fd0a4f28419497f9722a3daafe3b4186f6b6457e0600080a3600160085562093a80600a556509184e72a000600b55600c80546001600160a01b0319169190911790556128c390816103f78239f35b631e4fbdf760e01b600052600060045260246000fd5b015190503880610131565b601f198216936001600052806000209160005b86811061023a5750836001959610610221575b505050811b01600155610147565b015160001960f88460031b161c19169055388080610213565b91926020600181928685015181550194019201610200565b60016000527fb10e2d527612073b26eecdfd717e6a320cf44b4afac2b0732d9fcbe2b7fa0cf6601f830160051c810191602084106102ad575b601f0160051c01905b8181106102a15750610116565b60008155600101610294565b909150819061028b565b634e487b7160e01b600052602260045260246000fd5b90607f1690610104565b634e487b7160e01b600052604160045260246000fd5b0151905038806100cd565b601f1982169060008052806000209160005b8181106103465750958360019596971061032d575b505050811b016000556100e3565b015160001960f88460031b161c1916905538808061031f565b9192602060018192868b01518155019401920161030a565b600080527f290decd9548b62a8d60345a988386fc84ba6bc95484008f6362f93160ef3e563601f830160051c810191602084106103b8575b601f0160051c01905b8181106103ac57506100b3565b6000815560010161039f565b9091508190610396565b90607f16906100a1565b600080fd5b6040519190601f01601f191682016001600160401b038111838210176102d75760405256fe608080604052600436101561001357600080fd5b600090813560e01c90816301ffc9a7146119d65750806306fdde031461194e578063081812fc1461192f578063095ea7b3146118475780630cbf54c814611829578063144fa6d7146117e4578063150b7a021461177457806323b872dd1461175c57806326b387bb14611723578063326e28dc146116ee57806334b836f2146114615780633ccfd60b1461137457806342842e0e1461135c57806342966c6814611337578063435cd7e014611308578063571a26a0146112b5578063598647f8146110b05780636352211e1461107f57806370a082311461102c578063715018a614610fcf5780637265c5d914610f8657806374bfb81514610eb7578063797c82a714610e735780638681cce414610d4f5780638c06d17b14610c875780638da5cb5b14610c5e5780638f02bb5b14610c3b578063951303f514610c1457806395d89b4114610b45578063a22cb46514610a9e578063a497e67414610a7b578063acb2ad6f14610a5d578063b04869ae14610a34578063b5fdf81714610a0a578063b88d4fde1461099e578063bae5ec041461091e578063c87b56dd146108ea578063c973c3591461075d578063d0c9084a14610730578063dce383ce146106cc578063e985e9c514610672578063f1e0b2be14610602578063f20e5e3514610580578063f2fde38b146104f7578063f3408110146103b05763fe5c873a1461021b57600080fd5b346103ad5760203660031901126103ad57600435808252601060205261026760ff60036040852061025e6102566004830154600a5490611eca565b4210156120fa565b01541615611eed565b61026f6122f8565b80825260106020526040822090600182019160018060a01b0383541690813303610369576102af8360029360038401600160ff19825416179055306124aa565b0190838254828252600f60205280604083205560018060a01b03600c541690813b15610365578291602483926040519485938492630852cd8d60e31b845260048401525af1801561035a57610341575b505091549054604080519384526001600160a01b0390921660208401529082015260008051602061286e8339815191529080606081015b0390a1600160085580f35b8161034b91611b38565b6103565783386102ff565b8380fd5b6040513d84823e3d90fd5b8280fd5b606460405162461bcd60e51b815260206004820152602060248201527f4772617669506f6f6c4e46543a204e6f742068696768657374206269646465726044820152fd5b80fd5b506103ba36611acd565b906103ee6103c783612151565b336001600160a01b039182168114916103df86611c7c565b161481156104ef575b50611f54565b6103f66122f8565b600b5434106104aa57818452600d6020528380808061041b60ff604083205416611c11565b905460039190911b1c6001600160a01b0316610438811515611fb2565b34905af1610444611ffe565b501561045b5761045392611ea4565b600160085580f35b60405162461bcd60e51b815260206004820152602160248201527f4772617669506f6f6c4e46543a20466565207472616e73666572206661696c656044820152601960fa1b6064820152608490fd5b60405162461bcd60e51b815260206004820152601e60248201527f4772617669506f6f6c4e46543a20496e73756666696369656e742066656500006044820152606490fd5b9050386103e8565b50346103ad5760203660031901126103ad57610511611a9c565b610519612188565b6001600160a01b0316801561056c57600780546001600160a01b0319811683179091556001600160a01b03167f8be0079c531659141344cd1fd0a4f28419497f9722a3daafe3b4186f6b6457e08380a380f35b631e4fbdf760e01b82526004829052602482fd5b50346103ad5760203660031901126103ad576040906004358152601060205220604051906105ad82611b07565b6105fe608082549283855260018060a01b0360018201541694856020820152600282015490816040820152600460ff6003850154161515938460608401520154938491015260405195869586611be0565b0390f35b50346103ad5760203660031901126103ad5761061c612188565b600c5481906001600160a01b0316803b1561066f57818091602460405180948193630852cd8d60e31b835260043560048401525af1801561035a5761065e5750f35b8161066891611b38565b6103ad5780f35b50fd5b50346103ad5760403660031901126103ad57604061068e611a9c565b91610697611ab7565b9260018060a01b031681526005602052209060018060a01b0316600052602052602060ff604060002054166040519015158152f35b50346103ad5760603660031901126103ad576106e6611a9c565b6024359160ff831683036103ad57604435906001600160401b0382116103ad576020610728858561071a3660048801611bc2565b90610723612188565b612506565b604051908152f35b50346103ad5760203660031901126103ad5760ff60406020926004358152600d8452205416604051908152f35b50346103ad5760203660031901126103ad576004359061077b612188565b81815260106020526107a260ff60036040842061025e6102566004830154600a5490611eca565b6107aa6122f8565b81815260106020526040812060038101805460ff1916600190811790915581018054919390916001600160a01b0316156108b35781546107f59082906001600160a01b0316306124aa565b600260018060a01b03600c54169401938454813b156108af578491602483926040519485938492630852cd8d60e31b845260048401525af180156108a457610880575b509254838352600f60209081526040808520839055925483519586526001600160a01b031690850152908301529060008051602061286e833981519152908060608101610336565b8361089d60008051602061286e8339815191529561033693611b38565b9350610838565b6040513d86823e3d90fd5b8480fd5b60008051602061286e833981519152929350606091506108d28161231a565b604051908152836020820152836040820152a1610453565b50346103ad5760203660031901126103ad576105fe61090a60043561202e565b604051918291602083526020830190611a5d565b50346103ad5760203660031901126103ad57610938611a9c565b610940612188565b600e54600160401b81101561098a57906109638260016109879401600e55611c11565b81546001600160a01b0393841660039290921b91821b9390911b1916919091179055565b80f35b634e487b7160e01b83526041600452602483fd5b50346103ad5760803660031901126103ad576109b8611a9c565b6109c0611ab7565b90604435606435926001600160401b0384116108af57366023850112156108af576109f8610987943690602481600401359101611b8b565b92610a04838383611ca1565b33612395565b50346103ad5760203660031901126103ad5760406020916004358152600f83522054604051908152f35b50346103ad57806003193601126103ad57600c546040516001600160a01b039091168152602090f35b50346103ad57806003193601126103ad576020600b54604051908152f35b50346103ad5760203660031901126103ad57610a95612188565b600435600a5580f35b50346103ad5760403660031901126103ad57610ab8611a9c565b6024359081151590818303610356576001600160a01b0316918215610b3157610b0290338552600560205260408520848652602052604085209060ff801983541691151516179055565b6040519081527f17307eab39ab6107e8899845ad3d59bd9653f200f220920489ca2b5937696c3160203392a380f35b630b61174360e31b84526004839052602484fd5b50346103ad57806003193601126103ad57604051908060015490610b6882611c42565b8085529160018116908115610bed5750600114610b90575b6105fe8461090a81860382611b38565b600181527fb10e2d527612073b26eecdfd717e6a320cf44b4afac2b0732d9fcbe2b7fa0cf6939250905b808210610bd35750909150810160200161090a82610b80565b919260018160209254838588010152019101909291610bba565b60ff191660208087019190915292151560051b8501909201925061090a9150839050610b80565b50346103ad57806003193601126103ad576040602091338152601183522054604051908152f35b50346103ad5760203660031901126103ad57610c55612188565b600435600b5580f35b50346103ad57806003193601126103ad576007546040516001600160a01b039091168152602090f35b50346103ad57806003193601126103ad57604051600e8054808352908352602082019081907fbb7b4a454dc3493923482f07822329ed19e8244eff582cc204f8554c3620c3fd90855b818110610d305750505082610ce6910383611b38565b604051928392602084019060208552518091526040840192915b818110610d0e575050500390f35b82516001600160a01b0316845285945060209384019390920191600101610d00565b82546001600160a01b0316845260209093019260019283019201610cd0565b50610d5936611acd565b90610d666103c783612151565b610d6e6122f8565b3415610e1c57818452600d60205283808080610d9060ff604083205416611c11565b905460039190911b1c6001600160a01b0316610dad811515611fb2565b34905af1610db9611ffe565b5015610dc85761045392611ea4565b60405162461bcd60e51b815260206004820152602660248201527f4772617669506f6f6c4e46543a20446f6e6174696f6e207472616e736665722060448201526519985a5b195960d21b6064820152608490fd5b60405162461bcd60e51b815260206004820152602960248201527f4772617669506f6f6c4e46543a20446f6e6174696f6e20616d6f756e74206d7560448201526807374206265203e20360bc1b6064820152608490fd5b50346103ad5760203660031901126103ad5760043590600e548210156103ad576020610e9e83611c11565b905460405160039290921b1c6001600160a01b03168152f35b50346103ad57806003193601126103ad57600954610ed481611b59565b610ee16040519182611b38565b818152610eed82611b59565b602082019290601f190136843783845b828110610f495750505090604051928392602084019060208552518091526040840192915b818110610f30575050500390f35b8251845285945060209384019390920191600101610f22565b80865260106020526004604087200154610f66575b600101610efd565b90610f7e8183610f7860019488611e78565b52611f45565b919050610f5e565b50346103ad5760403660031901126103ad5760043560ff81168082036103655761096361098792610fca610fb8611ab7565b93610fc1612188565b600e5411611e22565b611c11565b50346103ad57806003193601126103ad57610fe8612188565b600780546001600160a01b0319811690915581906001600160a01b03167f8be0079c531659141344cd1fd0a4f28419497f9722a3daafe3b4186f6b6457e08280a380f35b50346103ad5760203660031901126103ad576001600160a01b0361104e611a9c565b16801561106b578160409160209352600383522054604051908152f35b6322718ad960e21b82526004829052602482fd5b50346103ad5760203660031901126103ad57602061109e600435612151565b6040516001600160a01b039091168152f35b50346103ad5760403660031901126103ad576004356024358183526010602052604083206110e56004820154600a5490611eca565b4210156112705760ff60036110fd9201541615611eed565b6111056122f8565b8183526010602052604083209160028301805483111561122f57600c546040516323b872dd60e01b81523360048201523060248201526044810185905290602090829060649082908a906001600160a01b03165af18015611224577fb8d756f2d1da4663767eb4d559780ace84f2f65a421a60ddcb47e8b2e5d2fd269585926001926111f7575b500180549092906001600160a01b0316806111d6575b505580546001600160a01b031916339081179091556040805192835260208301919091528101919091528060608101610336565b815490885260116020526111ef60408920918254611eca565b9055386111a2565b6112189060203d60201161121d575b6112108183611b38565b810190611e8c565b61118c565b503d611206565b6040513d88823e3d90fd5b60405162461bcd60e51b81526020600482015260196024820152784772617669506f6f6c4e46543a2042696420746f6f206c6f7760381b6044820152606490fd5b60405162461bcd60e51b815260206004820152601f60248201527f4772617669506f6f6c4e46543a2041756374696f6e2068617320656e646564006044820152606490fd5b50346103ad5760203660031901126103ad57604090600435815260106020522080546105fe60018060a01b0360018401541692600281015490600460ff6003830154169101549160405195869586611be0565b50346103ad5760203660031901126103ad57602061132c611327611a9c565b612253565b60ff60405191168152f35b50346103ad5760203660031901126103ad57611351612188565b61098760043561231a565b50346103ad5761098761136e36611acd565b91611ea4565b50346103ad57806003193601126103ad5761138d6122f8565b338152601160205260408120548015611411576020829133835260118252826040812055604460018060a01b03600c541691604051948593849263a9059cbb60e01b845233600485015260248401525af1801561035a576113f2575b50600160085580f35b61140a9060203d60201161121d576112108183611b38565b50386113e9565b60405162461bcd60e51b815260206004820152602260248201527f4772617669506f6f6c4e46543a204e6f2066756e647320746f20776974686472604482015261617760f01b6064820152608490fd5b50346103ad5760403660031901126103ad576004356001600160401b0381116116ea57366023820112156116ea5780600401359061149e82611b59565b916114ac6040519384611b38565b80835260051b8101602401602083013682116108af5760248301905b8282106116bb5785602435866001600160401b03821161036557366023830112156103655781600401356114fb81611b59565b926115096040519485611b38565b8184526024602085019260051b820101903682116116b757602401915b81831061169357505050611538612188565b805182510361164257825b815181101561163e576001907ff8910119ddbef5440c54532457dfe8250a10ed39e583292818f44724b9e1344c60406115aa6115916001600160a01b0361158a868a611e78565b5116612253565b61159b8588611e78565b516115a4612188565b30612506565b81516115b581611b07565b818152600489611628602084018281528685018381526060860191848352886080880195428752898152601060205220965187558b8060a01b039051168b8701908c8060a01b03168c8060a01b0319825416179055516002860155511515600385019060ff801983541691151516179055565b519101558151908152426020820152a101611543565b8380f35b60405162461bcd60e51b8152602060048201526024808201527f4772617669506f6f6c4e46543a20417272617973206c656e677468206d69736d6044820152630c2e8c6d60e31b6064820152608490fd5b82356001600160a01b03811681036116b357815260209283019201611526565b8680fd5b8580fd5b81356001600160401b0381116116b3576020916116df839260243691890101611bc2565b8152019101906114c8565b5080fd5b50346103ad5760203660031901126103ad57610e9e60ff60406020936004358152600d8552205416610fca600e548210611e22565b50346103ad5760203660031901126103ad576020906040906001600160a01b0361174b611a9c565b168152601183522054604051908152f35b50346103ad5761098761176e36611acd565b91611ca1565b50346103ad5760803660031901126103ad5761178e611a9c565b50611797611ab7565b506064356001600160401b0381116116ea57366023820112156116ea5780600401356001600160401b03811161036557369101602401116103ad57604051630a85bd0160e11b8152602090f35b50346103ad5760203660031901126103ad576117fe611a9c565b611806612188565b600c80546001600160a01b0319166001600160a01b039290921691909117905580f35b50346103ad57806003193601126103ad576020600a54604051908152f35b50346103ad5760403660031901126103ad57611861611a9c565b60243561186d81612151565b3315158061191c575b806118f1575b6118de5781906001600160a01b0384811691167f8c5be1e5ebec7d5bd14f71427d1e84f3dd0314c0f7b2291e5b200ac8c7c3b9258680a4825260046020526040822080546001600160a01b0319166001600160a01b0390921691909117905580f35b63a9fbf51f60e01b845233600452602484fd5b506001600160a01b038116845260056020908152604080862033875290915284205460ff161561187c565b506001600160a01b038116331415611876565b50346103ad5760203660031901126103ad57602061109e600435611c7c565b50346103ad57806003193601126103ad57604051908080549061197082611c42565b8085529160018116908115610bed5750600114611997576105fe8461090a81860382611b38565b80805260208120939250905b8082106119bc5750909150810160200161090a82610b80565b9192600181602092548385880101520191019092916119a3565b9050346116ea5760203660031901126116ea5760043563ffffffff60e01b81168091036103655760209250632483248360e11b8114908115611a1a575b5015158152f35b6380ac58cd60e01b811491508115611a4c575b8115611a3b575b5038611a13565b6301ffc9a760e01b14905038611a34565b635b5e139f60e01b81149150611a2d565b919082518082526020808301940160005b828110611a8c575050600081602094950152601f8019910116010190565b8181015186820152602001611a6e565b600435906001600160a01b0382168203611ab257565b600080fd5b602435906001600160a01b0382168203611ab257565b6060906003190112611ab2576004356001600160a01b0381168103611ab257906024356001600160a01b0381168103611ab2579060443590565b60a081019081106001600160401b03821117611b2257604052565b634e487b7160e01b600052604160045260246000fd5b90601f801991011681019081106001600160401b03821117611b2257604052565b6001600160401b038111611b225760051b60200190565b6001600160401b038111611b2257601f01601f191660200190565b929192611b9782611b70565b91611ba56040519384611b38565b829481845281830111611ab2578281602093846000960137010152565b9080601f83011215611ab257816020611bdd93359101611b8b565b90565b9081526001600160a01b03909116602082015260408101919091529015156060820152608081019190915260a00190565b600e54811015611c2c57600e60005260206000200190600090565b634e487b7160e01b600052603260045260246000fd5b90600182811c92168015611c72575b6020831014611c5c57565b634e487b7160e01b600052602260045260246000fd5b91607f1691611c51565b611c8581612151565b506000908152600460205260409020546001600160a01b031690565b6001600160a01b0390911691908215611e0c576000828152600260205260408120546001600160a01b0316938391859033151580611d74575b5060008051602061284e8339815191529082611d52575b838152600360209081526040808320805460010190558683526002909152812080546001600160a01b0319168517905580a46001600160a01b0316808303611d3857505050565b6364283d7b60e01b60005260045260245260445260646000fd5b611d5b8561282f565b8281526003602052604081208054600019019055611cf1565b915091925080611dbd575b15611d8e579084849238611cda565b839085611da757602491637e27328960e01b8252600452fd5b60449163177e802f60e01b825233600452602452fd5b503385148015611deb575b80611d7f5750838152600460205260408120546001600160a01b03163314611d7f565b5084815260056020908152604080832033845290915281205460ff16611dc8565b633250574960e11b600052600060045260246000fd5b15611e2957565b60405162461bcd60e51b815260206004820152602160248201527f4772617669506f6f6c4e46543a20496e646578206f7574206f6620626f756e646044820152607360f81b6064820152608490fd5b8051821015611c2c5760209160051b010190565b90816020910312611ab257518015158103611ab25790565b9091611ec89260405192611eb9602085611b38565b60008452610a04838383611ca1565b565b91908201809211611ed757565b634e487b7160e01b600052601160045260246000fd5b15611ef457565b60405162461bcd60e51b815260206004820152602360248201527f4772617669506f6f6c4e46543a2041756374696f6e20616c726561647920656e60448201526219195960ea1b6064820152608490fd5b6000198114611ed75760010190565b15611f5b57565b60405162461bcd60e51b815260206004820152602960248201527f4772617669506f6f6c4e46543a204e6f7420746f6b656e206f776e6572206f7260448201526808185c1c1c9bdd995960ba1b6064820152608490fd5b15611fb957565b60405162461bcd60e51b815260206004820152601e60248201527f4772617669506f6f6c4e46543a205472656173757279206e6f742073657400006044820152606490fd5b3d15612029573d9061200f82611b70565b9161201d6040519384611b38565b82523d6000602084013e565b606090565b61203781612151565b50600052600660205260406000206040519081600082549261205884611c42565b80845293600181169081156120d85750600114612091575b5061207d92500382611b38565b600060405161208d602082611b38565b5290565b90506000929192526020600020906000915b8183106120bc57505090602061207d9282010138612070565b60209193508060019154838588010152019101909183926120a3565b90506020925061207d94915060ff191682840152151560051b82010138612070565b1561210157565b60405162461bcd60e51b815260206004820152602260248201527f4772617669506f6f6c4e46543a2041756374696f6e207374696c6c2061637469604482015261766560f01b6064820152608490fd5b6000818152600260205260409020546001600160a01b0316908115612174575090565b637e27328960e01b60005260045260246000fd5b6007546001600160a01b0316330361219c57565b63118cdaa760e01b6000523360045260246000fd5b6000828152600260205260409020546001600160a01b031691908261222f575b6001600160a01b031680612215575b600082815260026020526040812080546001600160a01b03191683179055839060008051602061284e8339815191529080a490565b8060005260036020526040600020600181540190556121e0565b6122388261282f565b826000526003602052604060002060001981540190556121d1565b600e549060005b8260ff8216106122ba5760405162461bcd60e51b815260206004820152602860248201527f4772617669506f6f6c4e46543a2054726561737572792061646472657373206e6044820152671bdd08199bdd5b9960c21b6064820152608490fd5b6122c381611c11565b905460039190911b1c6001600160a01b03908116908316146122f25760ff1660ff8114611ed75760010161225a565b91505090565b600260085414612309576002600855565b633ee5aeb560e01b60005260046000fd5b6000818152600260205260408120546001600160a01b031680159183908315612373575b81815260026020526040812080546001600160a01b03191690558260008051602061284e8339815191528280a4506121745750565b61237c8261282f565b828152600360205260408120805460001901905561233e565b823b6123a3575b5050505050565b604051630a85bd0160e11b81526001600160a01b0391821660048201529181166024830152604482019390935260806064820152911691602090829081906123ef906084830190611a5d565b03816000865af18091600091612467575b5090612431575061240f611ffe565b8051908161242c5782633250574960e11b60005260045260246000fd5b602001fd5b6001600160e01b03191663757a42ff60e11b016124535750388080808061239c565b633250574960e11b60005260045260246000fd5b6020813d6020116124a2575b8161248060209383611b38565b810103126116ea5751906001600160e01b0319821682036103ad575038612400565b3d9150612473565b919291906001600160a01b03811615611e0c576001600160a01b03906124d19085906121b1565b1690816124ed5783637e27328960e01b60005260045260246000fd5b919290916001600160a01b0316808303611d3857505050565b919091612511612188565b60ff600e549216918210156127de576009549261252d84611f45565b6009556040516020926125408483611b38565b600082526001600160a01b03811615611e0c576001600160a01b0361256587836121b1565b166127c857803b6126d2575b505083600052600682526040600020908051906001600160401b038211611b225761259c8354611c42565b601f811161268c575b508390601f831160011461262257600d9493929160009183612617575b50508160011b916000199060031b1c19161790555b7ff8e1a15aba9398e019f0b49df1a4fde98ee17ae345cb5f6b5e2c27f5033e8ce781604051868152a1836000525260406000209060ff1982541617905590565b0151905038806125c2565b90601f1983169184600052856000209260005b8181106126755750916001939185600d989796941061265c575b505050811b0190556125d7565b015160001960f88460031b161c1916905538808061264f565b929387600181928786015181550195019301612635565b8360005284600020601f840160051c8101918685106126c8575b601f0160051c01905b8181106126bc57506125a5565b600081556001016126af565b90915081906126a6565b604051630a85bd0160e11b81523360048201526000602482015260448101879052608060648201526001600160a01b0390911696939593949291869082908190612720906084830190611a5d565b038160008b5af1809160009161278a575b5090612761578686612741611ffe565b8051918261275e5783633250574960e11b60005260045260246000fd5b01fd5b939592949193919290916001600160e01b03191663757a42ff60e11b0161245357503880612571565b8781813d83116127c1575b61279f8183611b38565b810103126116ea5751906001600160e01b0319821682036103ad575038612731565b503d612795565b6339e3563760e11b600052600060045260246000fd5b60405162461bcd60e51b8152602060048201526024808201527f4772617669506f6f6c4e46543a20496e76616c696420747265617375727920696044820152630dcc8caf60e31b6064820152608490fd5b600090815260046020526040902080546001600160a01b031916905556feddf252ad1be2c89b69c2b068fc378daa952ba7f163c4a11628f55a4df523b3efd2aa34a4fdbbc6dff6a3e56f46e0f3ae2a31d7785ff3487aa5c95c642acea501a2646970667358221220a64b8a76cbc202b0cad07374f4a1072954ad53c37229b0d0148cd3bd8b6d2fb964736f6c634300081c0033",
  "linkReferences": {},
  "deployedLinkReferences": {}
}