{
  "_format": "hh-sol-artifact-1",
  "contractName": "GraviPoolNFT",
  "sourceName": "contracts/tokens/GraviPoolNFT.sol",
  "abi": [
    {
      "inputs": [
        {
          "internalType": "address",
          "name": "_graviCha",
          "type": "address"
        }
      ],
      "stateMutability": "nonpayable",
      "type": "constructor"
    },
    {
      "inputs": [
        {
          "internalType": "address",
          "name": "sender",
          "type": "address"
        },
        {
          "internalType": "uint256",
          "name": "tokenId",
          "type": "uint256"
        },
        {
          "internalType": "address",
          "name": "owner",
          "type": "address"
        }
      ],
      "name": "ERC721IncorrectOwner",
      "type": "error"
    },
    {
      "inputs": [
        {
          "internalType": "address",
          "name": "operator",
          "type": "address"
        },
        {
          "internalType": "uint256",
          "name": "tokenId",
          "type": "uint256"
        }
      ],
      "name": "ERC721InsufficientApproval",
      "type": "error"
    },
    {
      "inputs": [
        {
          "internalType": "address",
          "name": "approver",
          "type": "address"
        }
      ],
      "name": "ERC721InvalidApprover",
      "type": "error"
    },
    {
      "inputs": [
        {
          "internalType": "address",
          "name": "operator",
          "type": "address"
        }
      ],
      "name": "ERC721InvalidOperator",
      "type": "error"
    },
    {
      "inputs": [
        {
          "internalType": "address",
          "name": "owner",
          "type": "address"
        }
      ],
      "name": "ERC721InvalidOwner",
      "type": "error"
    },
    {
      "inputs": [
        {
          "internalType": "address",
          "name": "receiver",
          "type": "address"
        }
      ],
      "name": "ERC721InvalidReceiver",
      "type": "error"
    },
    {
      "inputs": [
        {
          "internalType": "address",
          "name": "sender",
          "type": "address"
        }
      ],
      "name": "ERC721InvalidSender",
      "type": "error"
    },
    {
      "inputs": [
        {
          "internalType": "uint256",
          "name": "tokenId",
          "type": "uint256"
        }
      ],
      "name": "ERC721NonexistentToken",
      "type": "error"
    },
    {
      "inputs": [
        {
          "internalType": "address",
          "name": "owner",
          "type": "address"
        }
      ],
      "name": "OwnableInvalidOwner",
      "type": "error"
    },
    {
      "inputs": [
        {
          "internalType": "address",
          "name": "account",
          "type": "address"
        }
      ],
      "name": "OwnableUnauthorizedAccount",
      "type": "error"
    },
    {
      "inputs": [],
      "name": "ReentrancyGuardReentrantCall",
      "type": "error"
    },
    {
      "anonymous": false,
      "inputs": [
        {
          "indexed": true,
          "internalType": "address",
          "name": "owner",
          "type": "address"
        },
        {
          "indexed": true,
          "internalType": "address",
          "name": "approved",
          "type": "address"
        },
        {
          "indexed": true,
          "internalType": "uint256",
          "name": "tokenId",
          "type": "uint256"
        }
      ],
      "name": "Approval",
      "type": "event"
    },
    {
      "anonymous": false,
      "inputs": [
        {
          "indexed": true,
          "internalType": "address",
          "name": "owner",
          "type": "address"
        },
        {
          "indexed": true,
          "internalType": "address",
          "name": "operator",
          "type": "address"
        },
        {
          "indexed": false,
          "internalType": "bool",
          "name": "approved",
          "type": "bool"
        }
      ],
      "name": "ApprovalForAll",
      "type": "event"
    },
    {
      "anonymous": false,
      "inputs": [
        {
          "indexed": false,
          "internalType": "uint256",
          "name": "tokenId",
          "type": "uint256"
        },
        {
          "indexed": false,
          "internalType": "address",
          "name": "bidder",
          "type": "address"
        },
        {
          "indexed": false,
          "internalType": "uint256",
          "name": "bid",
          "type": "uint256"
        }
      ],
      "name": "AuctionBid",
      "type": "event"
    },
    {
      "anonymous": false,
      "inputs": [
        {
          "indexed": false,
          "internalType": "uint256",
          "name": "tokenId",
          "type": "uint256"
        },
        {
          "indexed": false,
          "internalType": "address",
          "name": "winner",
          "type": "address"
        },
        {
          "indexed": false,
          "internalType": "uint256",
          "name": "bid",
          "type": "uint256"
        }
      ],
      "name": "AuctionEnded",
      "type": "event"
    },
    {
      "anonymous": false,
      "inputs": [
        {
          "indexed": false,
          "internalType": "uint256",
          "name": "tokenId",
          "type": "uint256"
        },
        {
          "indexed": false,
          "internalType": "uint256",
          "name": "startTime",
          "type": "uint256"
        }
      ],
      "name": "AuctionStarted",
      "type": "event"
    },
    {
      "anonymous": false,
      "inputs": [
        {
          "indexed": false,
          "internalType": "uint256",
          "name": "_fromTokenId",
          "type": "uint256"
        },
        {
          "indexed": false,
          "internalType": "uint256",
          "name": "_toTokenId",
          "type": "uint256"
        }
      ],
      "name": "BatchMetadataUpdate",
      "type": "event"
    },
    {
      "anonymous": false,
      "inputs": [
        {
          "indexed": false,
          "internalType": "uint256",
          "name": "_tokenId",
          "type": "uint256"
        }
      ],
      "name": "MetadataUpdate",
      "type": "event"
    },
    {
      "anonymous": false,
      "inputs": [
        {
          "indexed": true,
          "internalType": "address",
          "name": "previousOwner",
          "type": "address"
        },
        {
          "indexed": true,
          "internalType": "address",
          "name": "newOwner",
          "type": "address"
        }
      ],
      "name": "OwnershipTransferred",
      "type": "event"
    },
    {
      "anonymous": false,
      "inputs": [
        {
          "indexed": true,
          "internalType": "address",
          "name": "from",
          "type": "address"
        },
        {
          "indexed": true,
          "internalType": "address",
          "name": "to",
          "type": "address"
        },
        {
          "indexed": true,
          "internalType": "uint256",
          "name": "tokenId",
          "type": "uint256"
        }
      ],
      "name": "Transfer",
      "type": "event"
    },
    {
      "inputs": [
        {
          "internalType": "address",
          "name": "treasury",
          "type": "address"
        }
      ],
      "name": "addTreasuryAddress",
      "outputs": [],
      "stateMutability": "nonpayable",
      "type": "function"
    },
    {
      "inputs": [
        {
          "internalType": "address",
          "name": "to",
          "type": "address"
        },
        {
          "internalType": "uint256",
          "name": "tokenId",
          "type": "uint256"
        }
      ],
      "name": "approve",
      "outputs": [],
      "stateMutability": "nonpayable",
      "type": "function"
    },
    {
      "inputs": [],
      "name": "auctionDuration",
      "outputs": [
        {
          "internalType": "uint256",
          "name": "",
          "type": "uint256"
        }
      ],
      "stateMutability": "view",
      "type": "function"
    },
    {
      "inputs": [
        {
          "internalType": "uint256",
          "name": "",
          "type": "uint256"
        }
      ],
      "name": "auctions",
      "outputs": [
        {
          "internalType": "uint256",
          "name": "tokenId",
          "type": "uint256"
        },
        {
          "internalType": "address",
          "name": "highestBidder",
          "type": "address"
        },
        {
          "internalType": "uint256",
          "name": "highestBid",
          "type": "uint256"
        },
        {
          "internalType": "bool",
          "name": "nftClaimed",
          "type": "bool"
        },
        {
          "internalType": "uint256",
          "name": "startTime",
          "type": "uint256"
        }
      ],
      "stateMutability": "view",
      "type": "function"
    },
    {
      "inputs": [
        {
          "internalType": "address",
          "name": "owner",
          "type": "address"
        }
      ],
      "name": "balanceOf",
      "outputs": [
        {
          "internalType": "uint256",
          "name": "",
          "type": "uint256"
        }
      ],
      "stateMutability": "view",
      "type": "function"
    },
    {
      "inputs": [
        {
          "internalType": "uint256",
          "name": "tokenId",
          "type": "uint256"
        },
        {
          "internalType": "uint256",
          "name": "bidAmount",
          "type": "uint256"
        }
      ],
      "name": "bid",
      "outputs": [],
      "stateMutability": "nonpayable",
      "type": "function"
    },
    {
      "inputs": [
        {
          "internalType": "uint256",
          "name": "tokenId",
          "type": "uint256"
        }
      ],
      "name": "burn",
      "outputs": [],
      "stateMutability": "nonpayable",
      "type": "function"
    },
    {
      "inputs": [
        {
          "internalType": "uint256",
          "name": "amount",
          "type": "uint256"
        }
      ],
      "name": "burnExcessTokens",
      "outputs": [],
      "stateMutability": "nonpayable",
      "type": "function"
    },
    {
      "inputs": [
        {
          "internalType": "uint256",
          "name": "tokenId",
          "type": "uint256"
        }
      ],
      "name": "claimNFT",
      "outputs": [],
      "stateMutability": "nonpayable",
      "type": "function"
    },
    {
      "inputs": [
        {
          "internalType": "uint256",
          "name": "tokenId",
          "type": "uint256"
        }
      ],
      "name": "forceEndAuction",
      "outputs": [],
      "stateMutability": "nonpayable",
      "type": "function"
    },
    {
      "inputs": [
        {
          "internalType": "uint256",
          "name": "tokenId",
          "type": "uint256"
        }
      ],
      "name": "getApproved",
      "outputs": [
        {
          "internalType": "address",
          "name": "",
          "type": "address"
        }
      ],
      "stateMutability": "view",
      "type": "function"
    },
    {
      "inputs": [
        {
          "internalType": "uint256",
          "name": "tokenId",
          "type": "uint256"
        }
      ],
      "name": "getAuctionDetails",
      "outputs": [
        {
          "internalType": "uint256",
          "name": "auctionedTokenId",
          "type": "uint256"
        },
        {
          "internalType": "address",
          "name": "highestBidder",
          "type": "address"
        },
        {
          "internalType": "uint256",
          "name": "highestBid",
          "type": "uint256"
        },
        {
          "internalType": "bool",
          "name": "nftClaimed",
          "type": "bool"
        },
        {
          "internalType": "uint256",
          "name": "startTime",
          "type": "uint256"
        }
      ],
      "stateMutability": "view",
      "type": "function"
    },
    {
      "inputs": [],
      "name": "getAuctionedNFTs",
      "outputs": [
        {
          "internalType": "uint256[]",
          "name": "",
          "type": "uint256[]"
        }
      ],
      "stateMutability": "view",
      "type": "function"
    },
    {
      "inputs": [
        {
          "internalType": "uint256",
          "name": "tokenId",
          "type": "uint256"
        }
      ],
      "name": "getTreasuryAddress",
      "outputs": [
        {
          "internalType": "address",
          "name": "",
          "type": "address"
        }
      ],
      "stateMutability": "view",
      "type": "function"
    },
    {
      "inputs": [],
      "name": "getTreasuryAddresses",
      "outputs": [
        {
          "internalType": "address[]",
          "name": "",
          "type": "address[]"
        }
      ],
      "stateMutability": "view",
      "type": "function"
    },
    {
      "inputs": [
        {
          "internalType": "address",
          "name": "treasuryAddress",
          "type": "address"
        }
      ],
      "name": "getTreasuryIndexByAddress",
      "outputs": [
        {
          "internalType": "uint8",
          "name": "",
          "type": "uint8"
        }
      ],
      "stateMutability": "view",
      "type": "function"
    },
    {
      "inputs": [],
      "name": "graviCha",
      "outputs": [
        {
          "internalType": "contract IGraviCha",
          "name": "",
          "type": "address"
        }
      ],
      "stateMutability": "view",
      "type": "function"
    },
    {
      "inputs": [
        {
          "internalType": "address",
          "name": "owner",
          "type": "address"
        },
        {
          "internalType": "address",
          "name": "operator",
          "type": "address"
        }
      ],
      "name": "isApprovedForAll",
      "outputs": [
        {
          "internalType": "bool",
          "name": "",
          "type": "bool"
        }
      ],
      "stateMutability": "view",
      "type": "function"
    },
    {
      "inputs": [
        {
          "internalType": "string[]",
          "name": "tokenURIs",
          "type": "string[]"
        },
        {
          "internalType": "address[]",
          "name": "insuranceAddresses",
          "type": "address[]"
        }
      ],
      "name": "mintAndAuctionNFTs",
      "outputs": [],
      "stateMutability": "nonpayable",
      "type": "function"
    },
    {
      "inputs": [
        {
          "internalType": "address",
          "name": "poolAddress",
          "type": "address"
        },
        {
          "internalType": "uint8",
          "name": "treasuryIndex",
          "type": "uint8"
        },
        {
          "internalType": "string",
          "name": "tokenURI",
          "type": "string"
        }
      ],
      "name": "mintToPool",
      "outputs": [
        {
          "internalType": "uint256",
          "name": "",
          "type": "uint256"
        }
      ],
      "stateMutability": "nonpayable",
      "type": "function"
    },
    {
      "inputs": [],
      "name": "name",
      "outputs": [
        {
          "internalType": "string",
          "name": "",
          "type": "string"
        }
      ],
      "stateMutability": "view",
      "type": "function"
    },
    {
      "inputs": [
        {
          "internalType": "address",
          "name": "",
          "type": "address"
        },
        {
          "internalType": "address",
          "name": "",
          "type": "address"
        },
        {
          "internalType": "uint256",
          "name": "",
          "type": "uint256"
        },
        {
          "internalType": "bytes",
          "name": "",
          "type": "bytes"
        }
      ],
      "name": "onERC721Received",
      "outputs": [
        {
          "internalType": "bytes4",
          "name": "",
          "type": "bytes4"
        }
      ],
      "stateMutability": "pure",
      "type": "function"
    },
    {
      "inputs": [],
      "name": "owner",
      "outputs": [
        {
          "internalType": "address",
          "name": "",
          "type": "address"
        }
      ],
      "stateMutability": "view",
      "type": "function"
    },
    {
      "inputs": [
        {
          "internalType": "uint256",
          "name": "tokenId",
          "type": "uint256"
        }
      ],
      "name": "ownerOf",
      "outputs": [
        {
          "internalType": "address",
          "name": "",
          "type": "address"
        }
      ],
      "stateMutability": "view",
      "type": "function"
    },
    {
      "inputs": [
        {
          "internalType": "address",
          "name": "",
          "type": "address"
        }
      ],
      "name": "pendingReturns",
      "outputs": [
        {
          "internalType": "uint256",
          "name": "",
          "type": "uint256"
        }
      ],
      "stateMutability": "view",
      "type": "function"
    },
    {
      "inputs": [],
      "name": "renounceOwnership",
      "outputs": [],
      "stateMutability": "nonpayable",
      "type": "function"
    },
    {
      "inputs": [
        {
          "internalType": "address",
          "name": "from",
          "type": "address"
        },
        {
          "internalType": "address",
          "name": "to",
          "type": "address"
        },
        {
          "internalType": "uint256",
          "name": "tokenId",
          "type": "uint256"
        }
      ],
      "name": "safeTransferFrom",
      "outputs": [],
      "stateMutability": "nonpayable",
      "type": "function"
    },
    {
      "inputs": [
        {
          "internalType": "address",
          "name": "from",
          "type": "address"
        },
        {
          "internalType": "address",
          "name": "to",
          "type": "address"
        },
        {
          "internalType": "uint256",
          "name": "tokenId",
          "type": "uint256"
        },
        {
          "internalType": "bytes",
          "name": "data",
          "type": "bytes"
        }
      ],
      "name": "safeTransferFrom",
      "outputs": [],
      "stateMutability": "nonpayable",
      "type": "function"
    },
    {
      "inputs": [
        {
          "internalType": "address",
          "name": "operator",
          "type": "address"
        },
        {
          "internalType": "bool",
          "name": "approved",
          "type": "bool"
        }
      ],
      "name": "setApprovalForAll",
      "outputs": [],
      "stateMutability": "nonpayable",
      "type": "function"
    },
    {
      "inputs": [
        {
          "internalType": "uint256",
          "name": "_auctionDuration",
          "type": "uint256"
        }
      ],
      "name": "setAuctionDuration",
      "outputs": [],
      "stateMutability": "nonpayable",
      "type": "function"
    },
    {
      "inputs": [
        {
          "internalType": "address",
          "name": "_token",
          "type": "address"
        }
      ],
      "name": "setToken",
      "outputs": [],
      "stateMutability": "nonpayable",
      "type": "function"
    },
    {
      "inputs": [
        {
          "internalType": "uint256",
          "name": "_transferFee",
          "type": "uint256"
        }
      ],
      "name": "setTransferFee",
      "outputs": [],
      "stateMutability": "nonpayable",
      "type": "function"
    },
    {
      "inputs": [
        {
          "internalType": "uint8",
          "name": "index",
          "type": "uint8"
        },
        {
          "internalType": "address",
          "name": "treasury",
          "type": "address"
        }
      ],
      "name": "setTreasuryAddress",
      "outputs": [],
      "stateMutability": "nonpayable",
      "type": "function"
    },
    {
      "inputs": [
        {
          "internalType": "bytes4",
          "name": "interfaceId",
          "type": "bytes4"
        }
      ],
      "name": "supportsInterface",
      "outputs": [
        {
          "internalType": "bool",
          "name": "",
          "type": "bool"
        }
      ],
      "stateMutability": "view",
      "type": "function"
    },
    {
      "inputs": [],
      "name": "symbol",
      "outputs": [
        {
          "internalType": "string",
          "name": "",
          "type": "string"
        }
      ],
      "stateMutability": "view",
      "type": "function"
    },
    {
      "inputs": [
        {
          "internalType": "uint256",
          "name": "",
          "type": "uint256"
        }
      ],
      "name": "tokenDonations",
      "outputs": [
        {
          "internalType": "uint256",
          "name": "",
          "type": "uint256"
        }
      ],
      "stateMutability": "view",
      "type": "function"
    },
    {
      "inputs": [
        {
          "internalType": "uint256",
          "name": "",
          "type": "uint256"
        }
      ],
      "name": "tokenTreasuryIndex",
      "outputs": [
        {
          "internalType": "uint8",
          "name": "",
          "type": "uint8"
        }
      ],
      "stateMutability": "view",
      "type": "function"
    },
    {
      "inputs": [
        {
          "internalType": "uint256",
          "name": "tokenId",
          "type": "uint256"
        }
      ],
      "name": "tokenURI",
      "outputs": [
        {
          "internalType": "string",
          "name": "",
          "type": "string"
        }
      ],
      "stateMutability": "view",
      "type": "function"
    },
    {
      "inputs": [],
      "name": "transferFee",
      "outputs": [
        {
          "internalType": "uint256",
          "name": "",
          "type": "uint256"
        }
      ],
      "stateMutability": "view",
      "type": "function"
    },
    {
      "inputs": [
        {
          "internalType": "address",
          "name": "from",
          "type": "address"
        },
        {
          "internalType": "address",
          "name": "to",
          "type": "address"
        },
        {
          "internalType": "uint256",
          "name": "tokenId",
          "type": "uint256"
        }
      ],
      "name": "transferFrom",
      "outputs": [],
      "stateMutability": "nonpayable",
      "type": "function"
    },
    {
      "inputs": [
        {
          "internalType": "address",
          "name": "newOwner",
          "type": "address"
        }
      ],
      "name": "transferOwnership",
      "outputs": [],
      "stateMutability": "nonpayable",
      "type": "function"
    },
    {
      "inputs": [
        {
          "internalType": "address",
          "name": "from",
          "type": "address"
        },
        {
          "internalType": "address",
          "name": "to",
          "type": "address"
        },
        {
          "internalType": "uint256",
          "name": "tokenId",
          "type": "uint256"
        }
      ],
      "name": "transferWithDonation",
      "outputs": [],
      "stateMutability": "payable",
      "type": "function"
    },
    {
      "inputs": [
        {
          "internalType": "address",
          "name": "from",
          "type": "address"
        },
        {
          "internalType": "address",
          "name": "to",
          "type": "address"
        },
        {
          "internalType": "uint256",
          "name": "tokenId",
          "type": "uint256"
        }
      ],
      "name": "transferWithFee",
      "outputs": [],
      "stateMutability": "payable",
      "type": "function"
    },
    {
      "inputs": [
        {
          "internalType": "uint256",
          "name": "",
          "type": "uint256"
        }
      ],
      "name": "treasuries",
      "outputs": [
        {
          "internalType": "address",
          "name": "",
          "type": "address"
        }
      ],
      "stateMutability": "view",
      "type": "function"
    },
    {
      "inputs": [],
      "name": "withdraw",
      "outputs": [],
      "stateMutability": "nonpayable",
      "type": "function"
    },
    {
      "inputs": [],
      "name": "withdrawableAmount",
      "outputs": [
        {
          "internalType": "uint256",
          "name": "",
          "type": "uint256"
        }
      ],
      "stateMutability": "view",
      "type": "function"
    }
  ],
  "bytecode": "0x608080604052346104115760208161516d803803809161001f8285610416565b83398101031261041157516001600160a01b03811690819003610411576040519061004b604083610416565b600c82526b11dc985d9a541bdbdb13919560a21b602083015260405190610073604083610416565b600682526511d49053919560d21b602083015282516001600160401b03811161031c57600054600181811c91168015610407575b60208210146102fc57601f81116103a3575b506020601f821160011461033d5781929394600092610332575b50508160011b916000199060031b1c1916176000555b81516001600160401b03811161031c57600154600181811c91168015610312575b60208210146102fc57601f8111610297575b50602092601f82116001146102325792819293600092610227575b50508160011b916000199060031b1c1916176001555b33156102115760078054336001600160a01b031982168117909255604080516101d09391929091906001600160a01b03167f8be0079c531659141344cd1fd0a4f28419497f9722a3daafe3b4186f6b6457e0600080a3600160085562093a80600a556509184e72a000600b5567434d17f2089b5b8a602082015260208152610416565b6101ee604080516759520f33371a45ff602082015260208152610416565b600c80546001600160a01b031916919091179055604051614d33908161043a8239f35b631e4fbdf760e01b600052600060045260246000fd5b015190503880610137565b601f198216936001600052806000209160005b86811061027f5750836001959610610266575b505050811b0160015561014d565b015160001960f88460031b161c19169055388080610258565b91926020600181928685015181550194019201610245565b60016000527fb10e2d527612073b26eecdfd717e6a320cf44b4afac2b0732d9fcbe2b7fa0cf6601f830160051c810191602084106102f2575b601f0160051c01905b8181106102e6575061011c565b600081556001016102d9565b90915081906102d0565b634e487b7160e01b600052602260045260246000fd5b90607f169061010a565b634e487b7160e01b600052604160045260246000fd5b0151905038806100d3565b601f1982169060008052806000209160005b81811061038b57509583600195969710610372575b505050811b016000556100e9565b015160001960f88460031b161c19169055388080610364565b9192602060018192868b01518155019401920161034f565b600080527f290decd9548b62a8d60345a988386fc84ba6bc95484008f6362f93160ef3e563601f830160051c810191602084106103fd575b601f0160051c01905b8181106103f157506100b9565b600081556001016103e4565b90915081906103db565b90607f16906100a7565b600080fd5b601f909101601f19168101906001600160401b0382119082101761031c5760405256fe608080604052600436101561001357600080fd5b600090813560e01c90816301ffc9a714613ac25750806306fdde0314613a3a578063081812fc14613a1b578063095ea7b3146139335780630cbf54c814613915578063144fa6d714613858578063150b7a021461378e57806323b872dd1461377657806326b387bb1461373d578063326e28dc1461360f57806334b836f2146130dc5780633ccfd60b14612e8a57806342842e0e14612e7257806342966c6814612db7578063435cd7e014612d34578063571a26a014612ce1578063598647f8146126ea5780636352211e146126b957806370a0823114612666578063715018a6146126095780637265c5d9146124d157806374bfb8151461223e578063797c82a7146121fa5780638681cce414611c9b5780638c06d17b14611b795780638da5cb5b14611b505780638f02bb5b14611ab5578063951303f514611a3d57806395d89b411461196e578063a22cb465146118c7578063a497e6741461182c578063acb2ad6f1461180e578063b04869ae146117e5578063b5fdf817146117bb578063b88d4fde1461174f578063bae5ec0414611639578063c87b56dd14611605578063c973c359146110e6578063d0c9084a146110b9578063dce383ce14610fc9578063e985e9c514610f6f578063f1e0b2be14610e69578063f20e5e3514610d3d578063f2fde38b14610cb4578063f34081101461075c5763fe5c873a1461021b57600080fd5b346107595760203660031901126107595760043561024d60408051678e1be2e5086acd2f602082015260208152613c24565b61026b6040805167996da3b09a7c2610602082015260208152613c24565b6102896040805167ff9bdc0dbe4ea71d602082015260208152613c24565b6102a760408051676192c4a5f4b40324602082015260208152613c24565b80825260106020526103b160ff6003604085206102d860408051676dbc28db5f447059602082015260208152613c24565b6102f66040805167d334a9c40d1cb440602082015260208152613c24565b610314604080516775c73cf8640c4ef9602082015260208152613c24565b6103306103286004830154600a5490613fb6565b4210156141e6565b61034e604080516773333f3d3b0e23bc602082015260208152613c24565b61036c604080516787ffe27202f82a60602082015260208152613c24565b61038a6040805167aa94153b9458cfe1602082015260208152613c24565b6103a86040805167a50611ff2f508a5d602082015260208152613c24565b01541615613fd9565b6103cf60408051678512669a98e5648a602082015260208152613c24565b6103ed6040805167beece58addff63d3602082015260208152613c24565b61040b60408051672ed219e66b6521d2602082015260208152613c24565b61042960408051676b9cb208fb236bdd602082015260208152613c24565b610431614530565b61044f60408051679de5ffded52e78cb602082015260208152613c24565b61046d6040805167b805f7ed5add05d6602082015260208152613c24565b61048b60408051678b404321f4755f58602082015260208152613c24565b6104a96040805167ba5a112ca2c8d146602082015260208152613c24565b808252601060205260408220906104d46040805167a57384905889f80b602082015260208152613c24565b6104f2604080516786f2e3525f47dcf1602082015260208152613c24565b6105106040805167db945f3c9e8e9eb2602082015260208152613c24565b600182019160018060a01b0383541690813303610715576105bb8360029361054c60408051677045e34344d45295602082015260208152613c24565b61056a6040805167a4cace831dfcd30d602082015260208152613c24565b60038401600160ff19825416179055610597604080516736d33452811bead0602082015260208152613c24565b6105b56040805167948df806cfd7183e602082015260208152613c24565b30614729565b6105d960408051670d5ecab51dd54e3c602082015260208152613c24565b0190838254828252600f60205280604083205561060a6040805167f703f1bce57099db602082015260208152613c24565b6106286040805167f8fc1515ce460551602082015260208152613c24565b600c546001600160a01b031690813b15610711578291602483926040519485938492630852cd8d60e31b845260048401525af18015610706576106ed575b50506106e2600080516020614cde8339815191529361069960408051679c9419660be1639b602082015260208152613c24565b6106b76040805167790a145a2f1f2429602082015260208152613c24565b549254604080519384526001600160a01b039094166020840152928201929092529081906060820190565b0390a1600160085580f35b816106f791613c24565b610702578338610666565b8380fd5b6040513d84823e3d90fd5b8280fd5b606460405162461bcd60e51b815260206004820152602060248201527f4772617669506f6f6c4e46543a204e6f742068696768657374206269646465726044820152fd5b80fd5b5061076636613bb9565b906107856040805167bd0b7ae00dde55d9602082015260208152613c24565b6107a36040805167afcf7177069bff49602082015260208152613c24565b6107c160408051672178b421a2c5fa55602082015260208152613c24565b6107df60408051676df9b77ab80e8332602082015260208152613c24565b6107e88261423d565b339060018060a01b0316146108116040805167e1c273e03ed2b1a3602082015260208152613c24565b61082f60408051673e332247f70c5895602082015260208152613c24565b336001600160a01b0361084185613d68565b1614906108626040805167f5c26f825bb398c8602082015260208152613c24565b61088060408051679c25847be254d1ae602082015260208152613c24565b61089e6040805167748a4a0220e10b3d602082015260208152613c24565b80610ca6575b8015610c83575b6108b59150614040565b6108d3604080516770ca9fbc6d5e0d5d602082015260208152613c24565b6108f16040805167a5e87792e9a3b489602082015260208152613c24565b61090f60408051672bd899ad0dd3a1cc602082015260208152613c24565b61092d60408051675db359642f5f7328602082015260208152613c24565b610935614530565b6109536040805167ae6620b58dec72ab602082015260208152613c24565b61097160408051672a0c06b07cb50d17602082015260208152613c24565b61098f60408051673ad630dedcc8f0a3602082015260208152613c24565b6109ad6040805167277379ab198253ef602082015260208152613c24565b6109cb604080516736c055fe58c2b2af602082015260208152613c24565b600b543410610c3e576109f26040805167df5a800ffea86225602082015260208152613c24565b610a10604080516703ae6677b80e3367602082015260208152613c24565b610a2e6040805167fbdc94a34da7ce90602082015260208152613c24565b818452600d60205283808080610a4a60ff604083205416613cfd565b60018060a01b0391549060031b1c16610a776040805167163ffae6f243e954602082015260208152613c24565b610a956040805167dad37ccca5a40e99602082015260208152613c24565b610ab36040805167db770bf449471c50602082015260208152613c24565b610abe81151561409e565b610adc6040805167c9baf9c707f94bc0602082015260208152613c24565b610afa6040805167f30ce23ecb09e4a0602082015260208152613c24565b610b1860408051678d7ee816ae2aa4ce602082015260208152613c24565b34905af1610b246140ea565b50610b436040805167ad0ebf701cc50516602082015260208152613c24565b610b616040805167891b8714da884ba4602082015260208152613c24565b610b7f604080516732739abff53efb33602082015260208152613c24565b15610bef57610be792610ba66040805167c933bb873a03387b602082015260208152613c24565b610bc46040805167f0fd0cc0450a3640602082015260208152613c24565b610be260408051675cc9fbb3e2816941602082015260208152613c24565b613f90565b600160085580f35b60405162461bcd60e51b815260206004820152602160248201527f4772617669506f6f6c4e46543a20466565207472616e73666572206661696c656044820152601960fa1b6064820152608490fd5b60405162461bcd60e51b815260206004820152601e60248201527f4772617669506f6f6c4e46543a20496e73756666696369656e742066656500006044820152606490fd5b5080610c93575b6108b5906108ab565b506108b5610c9f6145f3565b9050610c8a565b50610caf6145cd565b6108a4565b503461075957602036600319011261075957610cce613b88565b610cd6614274565b6001600160a01b03168015610d2957600780546001600160a01b0319811683179091556001600160a01b03167f8be0079c531659141344cd1fd0a4f28419497f9722a3daafe3b4186f6b6457e08380a380f35b631e4fbdf760e01b82526004829052602482fd5b503461075957602036600319011261075957604090610d6f8280516757b2322f9b45fd6a602082015260208152613c24565b610d8c828051677c7756ea5c5453b5602082015260208152613c24565b610da982805167eb0d9694bb3f5782602082015260208152613c24565b600435815260106020522060405190610dc182613bf3565b80548252610e6560018060a01b03600183015416916020840192835260028101549360408101948552600460ff6003840154169260608301931515845201549060808101918252610e266040805167e1c2a80dc8d847d7602082015260208152613c24565b610e446040805167fe9aeb66e78bc183602082015260208152613c24565b519360018060a01b0390511694519151151590519160405195869586613ccc565b0390f35b503461075957602036600319011261075957610e9960408051670125d117c162a254602082015260208152613c24565b610ea1614274565b610ebf604080516758274cfe9a9064c6602082015260208152613c24565b610edd6040805167d97657b226c96eb5602082015260208152613c24565b610efb604080516733e8da72e62eca7b602082015260208152613c24565b610f196040805167bfb5e6a975f85cea602082015260208152613c24565b600c5481906001600160a01b0316803b15610f6c57818091602460405180948193630852cd8d60e31b835260043560048401525af1801561070657610f5b5750f35b81610f6591613c24565b6107595780f35b50fd5b5034610759576040366003190112610759576040610f8b613b88565b91610f94613ba3565b9260018060a01b031681526005602052209060018060a01b0316600052602052602060ff604060002054166040519015158152f35b503461075957606036600319011261075957610fe3613b88565b6024359160ff8316830361075957604435906001600160401b0382116107595760206110b185856110173660048801613cae565b9061103460408051677e5120e85be8f81c88820152878152613c24565b61103c614274565b6110586040805167d3d970dcb6a172ce88820152878152613c24565b6110746040805167ead1f938e24f161188820152878152613c24565b611090604080516795a6a61d90552de388820152878152613c24565b6110ac6040805167dfde39d3758c357588820152878152613c24565b614785565b604051908152f35b50346107595760203660031901126107595760ff60406020926004358152600d8452205416604051908152f35b5034610759576020366003190112610759576004359061111a604080516702d9f6ba6adb4c72602082015260208152613c24565b611122614274565b611140604080516744c8dbe9b95a8760602082015260208152613c24565b61115e6040805167baef9075fc54c3e1602082015260208152613c24565b61117c6040805167996da3b09a7c2610602082015260208152613c24565b61119a6040805167ff9bdc0dbe4ea71d602082015260208152613c24565b6111b860408051676192c4a5f4b40324602082015260208152613c24565b81815260106020526111e960ff6003604084206102d860408051676dbc28db5f447059602082015260208152613c24565b61120760408051678512669a98e5648a602082015260208152613c24565b6112256040805167beece58addff63d3602082015260208152613c24565b6112436040805167cad49d54e535b7f9602082015260208152613c24565b611261604080516756511ca9356e0254602082015260208152613c24565b611269614530565b6112876040805167a4ae7500deff3329602082015260208152613c24565b6112a5604080516791da153d91b783f0602082015260208152613c24565b6112c36040805167e9e2fa012ef4ce22602082015260208152613c24565b6112e16040805167612f07dc9717a920602082015260208152613c24565b8181526010602052604081209161130c6040805167457faea5c4737325602082015260208152613c24565b60038301600160ff1982541617905561133960408051670523d6712174c7e2602082015260208152613c24565b61135760408051670fd30f78c4b4b798602082015260208152613c24565b6001830180549091906001600160a01b0316156115385761138c6040805167f9a586875ed56c47602082015260208152613c24565b6113aa604080516786343360704d54cf602082015260208152613c24565b6113c86040805167e2831bdf19315ee6602082015260208152613c24565b81546113df9082906001600160a01b031630614729565b6113fd6040805167e5faf6a07b7c1e2e602082015260208152613c24565b61141b60408051673eaa28c2828dafcb602082015260208152613c24565b600260018060a01b03600c54169401938454813b15611534578491602483926040519485938492630852cd8d60e31b845260048401525af1801561152957611505575b506106e2600080516020614cde833981519152939461149160408051675322574f7531857f602082015260208152613c24565b5492828652600f6020528360408720556114bf6040805167609554b1ccc57544602082015260208152613c24565b6114dd60408051675dc07be42f180b1c602082015260208152613c24565b54604080519384526001600160a01b0390911660208401528201929092529081906060820190565b83611522600080516020614cde833981519152956106e293613c24565b935061145e565b6040513d86823e3d90fd5b8480fd5b600080516020614cde8339815191529293506060915061156c6040805167f6d2f66fe51b56e3602082015260208152613c24565b61158a60408051673880c6c56bf6dca5602082015260208152613c24565b6115a860408051670b20c6240aec9bfa602082015260208152613c24565b6115b181614552565b6115cf604080516744f8a41b7df0a913602082015260208152613c24565b6115ed6040805167f52999a62f378521602082015260208152613c24565b604051908152836020820152836040820152a1610be7565b503461075957602036600319011261075957610e6561162560043561411a565b604051918291602083526020830190613b49565b503461075957602036600319011261075957611653613b88565b6116716040805167cc262200652f52d2602082015260208152613c24565b611679614274565b6116976040805167960d263716efd6f9602082015260208152613c24565b6116b56040805167a8422c837b72f0ee602082015260208152613c24565b6116d360408051676d4b5dca344ae796602082015260208152613c24565b6116f1604080516725f5cb0f9ef948ee602082015260208152613c24565b600e54600160401b81101561173b57906117148260016117389401600e55613cfd565b81546001600160a01b0393841660039290921b91821b9390911b1916919091179055565b80f35b634e487b7160e01b83526041600452602483fd5b503461075957608036600319011261075957611769613b88565b611771613ba3565b90604435606435926001600160401b0384116115345736602385011215611534576117a9611738943690602481600401359101613c77565b926117b5838383613d8d565b33614614565b50346107595760203660031901126107595760406020916004358152600f83522054604051908152f35b5034610759578060031936011261075957600c546040516001600160a01b039091168152602090f35b50346107595780600319360112610759576020600b54604051908152f35b50346107595760203660031901126107595761185c604080516705c686519c26391f602082015260208152613c24565b611864614274565b611882604080516753705687595a9cdc602082015260208152613c24565b6118a06040805167b7b42ad7d54a7829602082015260208152613c24565b6118be60408051670d5fda5a42ed7feb602082015260208152613c24565b600435600a5580f35b5034610759576040366003190112610759576118e1613b88565b6024359081151590818303610702576001600160a01b031691821561195a5761192b90338552600560205260408520848652602052604085209060ff801983541691151516179055565b6040519081527f17307eab39ab6107e8899845ad3d59bd9653f200f220920489ca2b5937696c3160203392a380f35b630b61174360e31b84526004839052602484fd5b503461075957806003193601126107595760405190806001549061199182613d2e565b8085529160018116908115611a1657506001146119b9575b610e658461162581860382613c24565b600181527fb10e2d527612073b26eecdfd717e6a320cf44b4afac2b0732d9fcbe2b7fa0cf6939250905b8082106119fc57509091508101602001611625826119a9565b9192600181602092548385880101520191019092916119e3565b60ff191660208087019190915292151560051b8501909201925061162591508390506119a9565b50346107595780600319360112610759576040602091611a6e82805167c295fd601c6795c086820152858152613c24565b611a89828051677844ab8d99d6c7ec86820152858152613c24565b611aa482805167ee6751b9802a4b1e86820152858152613c24565b338152601183522054604051908152f35b503461075957602036600319011261075957611ae560408051671d624abe5df7799e602082015260208152613c24565b611aed614274565b611b0b60408051672126b678ae1afc80602082015260208152613c24565b611b29604080516777021ae347322436602082015260208152613c24565b611b4760408051676c913b44baca0015602082015260208152613c24565b600435600b5580f35b50346107595780600319360112610759576007546040516001600160a01b039091168152602090f35b5034610759578060031936011261075957611ba860408051673496e24d5ea871c2602082015260208152613c24565b611bc66040805167cd67a9a56bcf9d93602082015260208152613c24565b611be460408051676fbb2727690e9346602082015260208152613c24565b604051600e8054808352908352602082019081907fbb7b4a454dc3493923482f07822329ed19e8244eff582cc204f8554c3620c3fd90855b818110611c7c5750505082611c32910383613c24565b604051928392602084019060208552518091526040840192915b818110611c5a575050500390f35b82516001600160a01b0316845285945060209384019390920191600101611c4c565b82546001600160a01b0316845260209093019260019283019201611c1c565b50611ca536613bb9565b90611cc4604080516781a5eb5d0395b526602082015260208152613c24565b611ce26040805167afcf7177069bff49602082015260208152613c24565b611d0060408051672178b421a2c5fa55602082015260208152613c24565b611d1e60408051676df9b77ab80e8332602082015260208152613c24565b611d278261423d565b339060018060a01b031614611d506040805167e1c273e03ed2b1a3602082015260208152613c24565b611d6e60408051673e332247f70c5895602082015260208152613c24565b336001600160a01b03611d8085613d68565b161490611da16040805167f5c26f825bb398c8602082015260208152613c24565b611dbf60408051679c25847be254d1ae602082015260208152613c24565b611ddd6040805167748a4a0220e10b3d602082015260208152613c24565b806121ec575b80156121c9575b611df49150614040565b611e12604080516770ca9fbc6d5e0d5d602082015260208152613c24565b611e306040805167a5e87792e9a3b489602082015260208152613c24565b611e4e6040805167311a0f2bb5a893a1602082015260208152613c24565b611e6c604080516767f6b6584b39e5ad602082015260208152613c24565b611e74614530565b611e92604080516777004b529a9e2eec602082015260208152613c24565b611eb0604080516735d05d63f1212ad5602082015260208152613c24565b611ece60408051679d1471b5e75c577e602082015260208152613c24565b611eec6040805167637d109b83e636b0602082015260208152613c24565b611f0a60408051672d347d73a3bfef32602082015260208152613c24565b341561217257611f2e60408051679380acbbb88ce052602082015260208152613c24565b611f4c60408051677750eb41a5c68e58602082015260208152613c24565b611f6a6040805167d4cbd5d5cdbc2621602082015260208152613c24565b818452600d60205283808080611f8660ff604083205416613cfd565b60018060a01b0391549060031b1c16611fb360408051679b9ef5d09d9863d6602082015260208152613c24565b611fd1604080516752f1755cf50055ad602082015260208152613c24565b611fef60408051675a57e4715c5ea29c602082015260208152613c24565b611ffa81151561409e565b612018604080516786ee10791a9ceacc602082015260208152613c24565b61203660408051677c64c2887681b483602082015260208152613c24565b6120546040805167cf4dc5700cf1d7cd602082015260208152613c24565b34905af16120606140ea565b5061207f6040805167015e4e0650011a44602082015260208152613c24565b61209d604080516748410fe9ab8de1d1602082015260208152613c24565b6120bb6040805167ec9d661cc4bc46e0602082015260208152613c24565b1561211e57610be7926120e260408051670fd5539a87cc82e8602082015260208152613c24565b6121006040805167564dea08eb333001602082015260208152613c24565b610be26040805167b7bd27afb7edefe6602082015260208152613c24565b60405162461bcd60e51b815260206004820152602660248201527f4772617669506f6f6c4e46543a20446f6e6174696f6e207472616e736665722060448201526519985a5b195960d21b6064820152608490fd5b60405162461bcd60e51b815260206004820152602960248201527f4772617669506f6f6c4e46543a20446f6e6174696f6e20616d6f756e74206d7560448201526807374206265203e20360bc1b6064820152608490fd5b50806121d9575b611df490611dea565b50611df46121e56145f3565b90506121d0565b506121f56145cd565b611de3565b50346107595760203660031901126107595760043590600e5482101561075957602061222583613cfd565b905460405160039290921b1c6001600160a01b03168152f35b503461075957806003193601126107595761226d6040805167930b54fb6479f372602082015260208152613c24565b61228b60408051670f60815538136c87602082015260208152613c24565b6122a9604080516728ac1a84f43b25bb602082015260208152613c24565b6009546122b581613c45565b6122c26040519182613c24565b8181526122ce82613c45565b602082019290601f19013684376122f960408051676031ccdd21d9903a602082015260208152613c24565b61231760408051677f9ea268ece8a1c7602082015260208152613c24565b8361233660408051676b1499a1430da646602082015260208152613c24565b61235460408051670efd06d6052dbdee602082015260208152613c24565b84905b8282106123df5750505090612380604080516765f02f97e61f849f602082015260208152613c24565b61239e6040805167a63946f7a10a7061602082015260208152613c24565b604051928392602084019060208552518091526040840192915b8181106123c6575050500390f35b82518452859450602093840193909201916001016123b8565b6123fd6040805167e80b033f65db1d2a602082015260208152613c24565b61241b6040805167113a9a70b1113ccb602082015260208152613c24565b81865260106020526040862060040154156124aa576124a160019161245460408051678407a76524261b90602082015260208152613c24565b6124726040805167b954efc08445826b602082015260208152613c24565b8361247d8288613f64565b5261249c604080516762fba0d3a47f5ec4602082015260208152613c24565b614031565b915b0190612357565b906001906124cc6040805167a80b3637f122419f602082015260208152613c24565b6124a3565b50346107595760403660031901126107595760043560ff811680820361071157611714611738926125c8612503613ba3565b936125226040805167486b48580d5ce29e602082015260208152613c24565b61252a614274565b6125486040805167fb95a6a5c62b503d602082015260208152613c24565b61256560408051664e802feefde10e602082015260208152613c24565b6125836040805167a240575d7674b082602082015260208152613c24565b6125a16040805167453a8bb4534bbb4c602082015260208152613c24565b6125bf6040805167fa86d82501573f8a602082015260208152613c24565b600e5411613f0e565b6125e66040805167cb8c96eaba3d7fd7602082015260208152613c24565b6126046040805167c1f56fc8228c5ff5602082015260208152613c24565b613cfd565b5034610759578060031936011261075957612622614274565b600780546001600160a01b0319811690915581906001600160a01b03167f8be0079c531659141344cd1fd0a4f28419497f9722a3daafe3b4186f6b6457e08280a380f35b5034610759576020366003190112610759576001600160a01b03612688613b88565b1680156126a5578160409160209352600383522054604051908152f35b6322718ad960e21b82526004829052602482fd5b50346107595760203660031901126107595760206126d860043561423d565b6040516001600160a01b039091168152f35b50346107595760403660031901126107595760043560243561272060408051678ac2fab74bdbeb97602082015260208152613c24565b61273e6040805167819325bce1d0d4b2602082015260208152613c24565b61275c6040805167223fd7ca205e3628602082015260208152613c24565b61277a604080516710e55742db785b83602082015260208152613c24565b8183526010602052604083206127a4604080516712f2d4404380358e602082015260208152613c24565b6127c26040805167d695fe9b2c42c439602082015260208152613c24565b6127e060408051677d935f94fe868c75602082015260208152613c24565b6127f16004820154600a5490613fb6565b421015612c9c5760ff60036128789261281e6040805167df1984b117b27a48602082015260208152613c24565b61283c60408051675fb74e15b7286587602082015260208152613c24565b61285a604080516707ec7c2651244bce602082015260208152613c24565b6103a8604080516746c46d1c119adefe602082015260208152613c24565b612896604080516786f55f7070bcbf7c602082015260208152613c24565b6128b4604080516775bc79dd3d09e949602082015260208152613c24565b6128d26040805167f885c6111a1a6cdd602082015260208152613c24565b6128f060408051679d3882e8a3cd4082602082015260208152613c24565b6128f8614530565b612916604080516704e49532a0edfe41602082015260208152613c24565b612934604080516797faaf6f844343e5602082015260208152613c24565b61295260408051677fa901f167705396602082015260208152613c24565b612970604080516760515cf051a0af0e602082015260208152613c24565b8183526010602052604083209161299b6040805167b5197ac82732d9df602082015260208152613c24565b6129b960408051677253d172d5643c1b602082015260208152613c24565b6129d760408051671967df91bc23e777602082015260208152613c24565b600283018054831115612c5b57612a026040805167de760c3ca8ca1bed602082015260208152613c24565b612a206040805167b4676845e95f4b05602082015260208152613c24565b612a3e604080516781fa6688b371cf2a602082015260208152613c24565b600c546040516323b872dd60e01b81523360048201523060248201526044810185905290602090829060649082908a906001600160a01b03165af18015612c50577fb8d756f2d1da4663767eb4d559780ace84f2f65a421a60ddcb47e8b2e5d2fd26958592600192612c23575b50612aca604080516792e73d3dc5f248ae602082015260208152613c24565b612ae860408051675aa2d474a3c63b6e602082015260208152613c24565b0180549092906001600160a01b03168015612bff57612b1b604080516782c2cbc559d4ad99602082015260208152613c24565b612b3960408051674ad0a31f3aecd67d602082015260208152613c24565b81549088526011602052612b5260408920918254613fb6565b90555b612b736040805167900547c7c87bbee4602082015260208152613c24565b55612b9260408051675174792e2e2874fd602082015260208152613c24565b80546001600160a01b031916331790556040805167818df72d1600c3366020808301919091528152612bc49190613c24565b612be26040805167036ae03b3a7cb7c0602082015260208152613c24565b6040805191825233602083015281019190915280606081016106e2565b50612c1e6040805167c125ef556a29f8a0602082015260208152613c24565b612b55565b612c449060203d602011612c49575b612c3c8183613c24565b810190613f78565b612aab565b503d612c32565b6040513d88823e3d90fd5b60405162461bcd60e51b81526020600482015260196024820152784772617669506f6f6c4e46543a2042696420746f6f206c6f7760381b6044820152606490fd5b60405162461bcd60e51b815260206004820152601f60248201527f4772617669506f6f6c4e46543a2041756374696f6e2068617320656e646564006044820152606490fd5b50346107595760203660031901126107595760409060043581526010602052208054610e6560018060a01b0360018401541692600281015490600460ff6003830154169101549160405195869586613ccc565b5034610759576020366003190112610759576020612dac612d53613b88565b612d6f604080516701a1aa514ebe084786820152858152613c24565b612d8b604080516774220955f43e631686820152858152613c24565b612da76040805167aa0cf0f940adf08a86820152858152613c24565b61433f565b60ff60405191168152f35b503461075957602036600319011261075957612de760408051676816e762655cecd5602082015260208152613c24565b612def614274565b612e0d6040805167f1cf8b7563bb88dc602082015260208152613c24565b612e2b6040805167ad7f3896f04959d8602082015260208152613c24565b612e496040805167a9bfce0459114a3a602082015260208152613c24565b612e676040805167df129e499acb5690602082015260208152613c24565b611738600435614552565b503461075957611738612e8436613bb9565b91613f90565b5034610759578060031936011261075957612eb9604080516790f57ae04047c463602082015260208152613c24565b612ec1614530565b612edf60408051672ad26920697efa12602082015260208152613c24565b612efd60408051675e3969317a0899cd602082015260208152613c24565b612f1b60408051674b0b9017187752ac602082015260208152613c24565b612f396040805167cff821ee4639fa76602082015260208152613c24565b33815260116020526040812054612f6460408051678531d8b3c00ffd4d602082015260208152613c24565b612f826040805167027c9e0f92d83555602082015260208152613c24565b612fa06040805167a9dc5201c6db8837602082015260208152613c24565b801561308c5760208291612fc660408051679f14afb02eb5e3b785820152848152613c24565b612fe260408051670d4b650bb9d3084185820152848152613c24565b3383526011825282604081205561300b604080516733e637ac0a30353f85820152848152613c24565b6130276040805167cd75f7544712bca785820152848152613c24565b600c5460405163a9059cbb60e01b815233600482015260248101929092529092839160449183916001600160a01b03165af180156107065761306d575b50600160085580f35b6130859060203d602011612c4957612c3c8183613c24565b5038613064565b60405162461bcd60e51b815260206004820152602260248201527f4772617669506f6f6c4e46543a204e6f2066756e647320746f20776974686472604482015261617760f01b6064820152608490fd5b5034610759576040366003190112610759576004356001600160401b03811161360b573660238201121561360b5780600401359061311982613c45565b916131276040519384613c24565b80835260051b8101602401602083013682116115345760248301905b8282106135dc5785602435866001600160401b038211610711573660238301121561071157816004013561317681613c45565b926131846040519485613c24565b8184526024602085019260051b820101903682116135d857602401915b8183106135b4575050506131c96040805167bdfe63610767bb11602082015260208152613c24565b6131d1614274565b6131ef6040805167c984df0ecfed6726602082015260208152613c24565b61320d604080516745f7cf689ca61232602082015260208152613c24565b61322b6040805167f925314ede3039e3602082015260208152613c24565b61324960408051672484125aedef0154602082015260208152613c24565b6132676040805167ac673ea379df4e6a602082015260208152613c24565b80518251036135635761328e6040805167a9602829838d39fe602082015260208152613c24565b6132ac604080516785336b5a926121d0602082015260208152613c24565b6132ca60408051678e70336ba5eae35e602082015260208152613c24565b825b815181101561355f576001906132f66040805167d2325f2efb5319d0602082015260208152613c24565b61331460408051672307b4ffbfb0f156602082015260208152613c24565b7ff8910119ddbef5440c54532457dfe8250a10ed39e583292818f44724b9e1344c6040613438613354858060a01b0361334d868a613f64565b511661433f565b61337183805167edef2a761a376841602082015260208152613c24565b61338e83805167f659e7aedbc02737602082015260208152613c24565b6133988588613f64565b516133b68480516739e73c05190f0d2b602082015260208152613c24565b6133be614274565b6133db848051676c1f5e3dec93d9d9602082015260208152613c24565b6133f884805167712daba720c9601f602082015260208152613c24565b613415848051672651bc53ca50c376602082015260208152613c24565b61343284805167b5c16cf048840947602082015260208152613c24565b30614785565b61345582805167a37d945766cb8258602082015260208152613c24565b815161346081613bf3565b8181526004896134d3602084018281528685018381526060860191848352886080880195428752898152601060205220965187558b8060a01b039051168b8701908c8060a01b03168c8060a01b0319825416179055516002860155511515600385019060ff801983541691151516179055565b519101556134f482805167c0c42c3744811348602082015260208152613c24565b61351182805167a03d3c9d7c763032602082015260208152613c24565b8151908152426020820152a161353b6040805167ce4de1ad44b5c294602082015260208152613c24565b61355960408051674c4b4d06e6c9371f602082015260208152613c24565b016132cc565b8380f35b60405162461bcd60e51b8152602060048201526024808201527f4772617669506f6f6c4e46543a20417272617973206c656e677468206d69736d6044820152630c2e8c6d60e31b6064820152608490fd5b82356001600160a01b03811681036135d4578152602092830192016131a1565b8680fd5b8580fd5b81356001600160401b0381116135d457602091613600839260243691890101613cae565b815201910190613143565b5080fd5b50346107595760203660031901126107595761222560ff604060209361364682805167bf609e17c1bebbdd88820152878152613c24565b6136618280516793044487965fce7188820152878152613c24565b61367c828051672a0d9e7325a4cc5388820152878152613c24565b6004358152600d85522054166136a460408051671602c46fac4c192386820152858152613c24565b6136c06040805167dfdb8b59cd7c015886820152858152613c24565b6136dc604080516704a371ccd481310e86820152858152613c24565b6136e9600e548210613f0e565b6137056040805167a34a2ef5683a273286820152858152613c24565b61372160408051677a005a10778a21e886820152858152613c24565b612604604080516783ccccee9dfc42be86820152858152613c24565b5034610759576020366003190112610759576020906040906001600160a01b03613765613b88565b168152601183522054604051908152f35b50346107595761173861378836613bb9565b91613d8d565b5034610759576080366003190112610759576137a8613b88565b506137b1613ba3565b506064356001600160401b03811161360b573660238201121561360b5780600401356001600160401b03811161071157369101602401116107595761380a6040805167f2efb27f73a794bc602082015260208152613c24565b6138286040805167698f8d177e3ba090602082015260208152613c24565b6138466040805167a7d46966354b7c0f602082015260208152613c24565b604051630a85bd0160e11b8152602090f35b503461075957602036600319011261075957613872613b88565b61389060408051674b4ae02191dcdfc3602082015260208152613c24565b613898614274565b6138b66040805167697d6e122213b278602082015260208152613c24565b6138d460408051677f378759aa4f2b15602082015260208152613c24565b6138f26040805167be2f940ce9b66569602082015260208152613c24565b600c80546001600160a01b0319166001600160a01b039290921691909117905580f35b50346107595780600319360112610759576020600a54604051908152f35b50346107595760403660031901126107595761394d613b88565b6024356139598161423d565b33151580613a08575b806139dd575b6139ca5781906001600160a01b0384811691167f8c5be1e5ebec7d5bd14f71427d1e84f3dd0314c0f7b2291e5b200ac8c7c3b9258680a4825260046020526040822080546001600160a01b0319166001600160a01b0390921691909117905580f35b63a9fbf51f60e01b845233600452602484fd5b506001600160a01b038116845260056020908152604080862033875290915284205460ff1615613968565b506001600160a01b038116331415613962565b50346107595760203660031901126107595760206126d8600435613d68565b50346107595780600319360112610759576040519080805490613a5c82613d2e565b8085529160018116908115611a165750600114613a8357610e658461162581860382613c24565b80805260208120939250905b808210613aa857509091508101602001611625826119a9565b919260018160209254838588010152019101909291613a8f565b90503461360b57602036600319011261360b5760043563ffffffff60e01b81168091036107115760209250632483248360e11b8114908115613b06575b5015158152f35b6380ac58cd60e01b811491508115613b38575b8115613b27575b5038613aff565b6301ffc9a760e01b14905038613b20565b635b5e139f60e01b81149150613b19565b919082518082526020808301940160005b828110613b78575050600081602094950152601f8019910116010190565b8181015186820152602001613b5a565b600435906001600160a01b0382168203613b9e57565b600080fd5b602435906001600160a01b0382168203613b9e57565b6060906003190112613b9e576004356001600160a01b0381168103613b9e57906024356001600160a01b0381168103613b9e579060443590565b60a081019081106001600160401b03821117613c0e57604052565b634e487b7160e01b600052604160045260246000fd5b90601f801991011681019081106001600160401b03821117613c0e57604052565b6001600160401b038111613c0e5760051b60200190565b6001600160401b038111613c0e57601f01601f191660200190565b929192613c8382613c5c565b91613c916040519384613c24565b829481845281830111613b9e578281602093846000960137010152565b9080601f83011215613b9e57816020613cc993359101613c77565b90565b9081526001600160a01b03909116602082015260408101919091529015156060820152608081019190915260a00190565b600e54811015613d1857600e60005260206000200190600090565b634e487b7160e01b600052603260045260246000fd5b90600182811c92168015613d5e575b6020831014613d4857565b634e487b7160e01b600052602260045260246000fd5b91607f1691613d3d565b613d718161423d565b506000908152600460205260409020546001600160a01b031690565b6001600160a01b0390911691908215613ef8576000828152600260205260408120546001600160a01b0316938391859033151580613e60575b50600080516020614cbe8339815191529082613e3e575b838152600360209081526040808320805460010190558683526002909152812080546001600160a01b0319168517905580a46001600160a01b0316808303613e2457505050565b6364283d7b60e01b60005260045260245260445260646000fd5b613e4785614c9f565b8281526003602052604081208054600019019055613ddd565b915091925080613ea9575b15613e7a579084849238613dc6565b839085613e9357602491637e27328960e01b8252600452fd5b60449163177e802f60e01b825233600452602452fd5b503385148015613ed7575b80613e6b5750838152600460205260408120546001600160a01b03163314613e6b565b5084815260056020908152604080832033845290915281205460ff16613eb4565b633250574960e11b600052600060045260246000fd5b15613f1557565b60405162461bcd60e51b815260206004820152602160248201527f4772617669506f6f6c4e46543a20496e646578206f7574206f6620626f756e646044820152607360f81b6064820152608490fd5b8051821015613d185760209160051b010190565b90816020910312613b9e57518015158103613b9e5790565b9091613fb49260405192613fa5602085613c24565b600084526117b5838383613d8d565b565b91908201809211613fc357565b634e487b7160e01b600052601160045260246000fd5b15613fe057565b60405162461bcd60e51b815260206004820152602360248201527f4772617669506f6f6c4e46543a2041756374696f6e20616c726561647920656e60448201526219195960ea1b6064820152608490fd5b6000198114613fc35760010190565b1561404757565b60405162461bcd60e51b815260206004820152602960248201527f4772617669506f6f6c4e46543a204e6f7420746f6b656e206f776e6572206f7260448201526808185c1c1c9bdd995960ba1b6064820152608490fd5b156140a557565b60405162461bcd60e51b815260206004820152601e60248201527f4772617669506f6f6c4e46543a205472656173757279206e6f742073657400006044820152606490fd5b3d15614115573d906140fb82613c5c565b916141096040519384613c24565b82523d6000602084013e565b606090565b6141238161423d565b50600052600660205260406000206040519081600082549261414484613d2e565b80845293600181169081156141c4575060011461417d575b5061416992500382613c24565b6000604051614179602082613c24565b5290565b90506000929192526020600020906000915b8183106141a8575050906020614169928201013861415c565b602091935080600191548385880101520191019091839261418f565b90506020925061416994915060ff191682840152151560051b8201013861415c565b156141ed57565b60405162461bcd60e51b815260206004820152602260248201527f4772617669506f6f6c4e46543a2041756374696f6e207374696c6c2061637469604482015261766560f01b6064820152608490fd5b6000818152600260205260409020546001600160a01b0316908115614260575090565b637e27328960e01b60005260045260246000fd5b6007546001600160a01b0316330361428857565b63118cdaa760e01b6000523360045260246000fd5b6000828152600260205260409020546001600160a01b031691908261431b575b6001600160a01b031680614301575b600082815260026020526040812080546001600160a01b031916831790558390600080516020614cbe8339815191529080a490565b8060005260036020526040600020600181540190556142cc565b61432482614c9f565b826000526003602052604060002060001981540190556142bd565b61435d6040805167c921c5873c3c5f47602082015260208152613c24565b61437b60408051670ff8f16c7f02393a602082015260208152613c24565b614399604080516711488f002859f56f602082015260208152613c24565b600e546000915b8160ff84161061443c576143c860408051672c0b041d459c08e0602082015260208152613c24565b6143e6604080516763967d2f96d5f680602082015260208152613c24565b60405162461bcd60e51b815260206004820152602860248201527f4772617669506f6f6c4e46543a2054726561737572792061646472657373206e6044820152671bdd08199bdd5b9960c21b6064820152608490fd5b61445a60408051679d5c204b659e99f2602082015260208152613c24565b614478604080516751cbba12293b5bed602082015260208152613c24565b61448183613cfd565b90546001600160a01b0383811660039390931b9190911c16036144fa5750506144be6040805167d1a50d8aed82b543602082015260208152613c24565b6144dc60408051675a814e2ae8eb87de602082015260208152613c24565b613cc96040805167cb4c188b5ed0dc53602082015260208152613c24565b909160ff9061451d604080516712e0115535a83f82602082015260208152613c24565b1660ff8114613fc35760010191906143a0565b600260085414614541576002600855565b633ee5aeb560e01b60005260046000fd5b6000818152600260205260408120546001600160a01b0316801591839083156145ab575b81815260026020526040812080546001600160a01b031916905582600080516020614cbe8339815191528280a4506142605750565b6145b482614c9f565b8281526003602052604081208054600019019055614576565b6145ee60408051670834a794378b3ed160c01b602082015260208152613c24565b600190565b6145ee6040805167df8e2e6d6879d2dd60c01b602082015260208152613c24565b823b614622575b5050505050565b604051630a85bd0160e11b81526001600160a01b03918216600482015291811660248301526044820193909352608060648201529116916020908290819061466e906084830190613b49565b03816000865af180916000916146e6575b50906146b0575061468e6140ea565b805190816146ab5782633250574960e11b60005260045260246000fd5b602001fd5b6001600160e01b03191663757a42ff60e11b016146d25750388080808061461b565b633250574960e11b60005260045260246000fd5b6020813d602011614721575b816146ff60209383613c24565b8101031261360b5751906001600160e01b03198216820361075957503861467f565b3d91506146f2565b919291906001600160a01b03811615613ef8576001600160a01b039061475090859061429d565b16908161476c5783637e27328960e01b60005260045260246000fd5b919290916001600160a01b0316808303613e2457505050565b90916147a56040805167e24ced615bad67a1602082015260208152613c24565b6147ad614274565b6147cb6040805167f8cb72892033345e602082015260208152613c24565b6147e96040805167c0866c200d5928d6602082015260208152613c24565b614807604080516704be4d08eb46e0bf602082015260208152613c24565b61482560408051672db3cd3c92e94ce2602082015260208152613c24565b61484360408051674f34c3a267d205bd602082015260208152613c24565b60ff600e54911690811015614c4e576148706040805167a7547bfa7423730e602082015260208152613c24565b61488e6040805167cfa699e74fa246c8602082015260208152613c24565b6148ac604080516764e6f260ae665ca4602082015260208152613c24565b600954926148ce604080516768074c5cc410cdf6602082015260208152613c24565b6148d784614031565b6009556148f860408051675a5411bdd7a2e2eb602082015260208152613c24565b6149166040805167507da2ecc732002d602082015260208152613c24565b6040516020936149268583613c24565b600082526001600160a01b03811615613ef8576001600160a01b0361494b878361429d565b16614c3857803b614b44575b50506149756040805167ab0c54fc4ecfaa6386820152858152613c24565b6149916040805167b9d3b9c9e09fcf3286820152858152613c24565b83600052600683526040600020908051906001600160401b038211613c0e576149ba8354613d2e565b601f8111614afe575b508490601f8311600114614a90579180613cc996949260409694600092614a85575b50508160011b916000199060031b1c19161790555b7ff8e1a15aba9398e019f0b49df1a4fde98ee17ae345cb5f6b5e2c27f5033e8ce7828451878152a1614a3d8380516737007eb9184806c085820152848152613c24565b84600052600d8252826000209060ff19825416179055614a6e828051676e99f768ab2497c884820152838152613c24565b81519067c0e25ced00f22cdb818301528152613c24565b0151905038806149e5565b90601f1983169184600052866000209260005b818110614ae7575092600192859260409896613cc99a989610614ace575b505050811b0190556149fa565b015160001960f88460031b161c19169055388080614ac1565b929388600181928786015181550195019301614aa3565b8360005285600020601f840160051c810191878510614b3a575b601f0160051c01905b818110614b2e57506149c3565b60008155600101614b21565b9091508190614b18565b604051630a85bd0160e11b81523360048201526000602482015260448101879052608060648201526001600160a01b03909116969495939291869082908190614b91906084830190613b49565b038160008b5af18091600091614bfa575b5090614bd2578686614bb26140ea565b80519182614bcf5783633250574960e11b60005260045260246000fd5b01fd5b9395929493919290916001600160e01b03191663757a42ff60e11b016146d257503880614957565b8781813d8311614c31575b614c0f8183613c24565b8101031261360b5751906001600160e01b031982168203610759575038614ba2565b503d614c05565b6339e3563760e11b600052600060045260246000fd5b60405162461bcd60e51b8152602060048201526024808201527f4772617669506f6f6c4e46543a20496e76616c696420747265617375727920696044820152630dcc8caf60e31b6064820152608490fd5b600090815260046020526040902080546001600160a01b031916905556feddf252ad1be2c89b69c2b068fc378daa952ba7f163c4a11628f55a4df523b3efd2aa34a4fdbbc6dff6a3e56f46e0f3ae2a31d7785ff3487aa5c95c642acea501a2646970667358221220ee0eda72fe25b5b335a65af4c6c2083965b2fb96b99e4bf61210562d8484ef2b64736f6c634300081c0033",
  "linkReferences": {},
  "deployedLinkReferences": {}
}