{
  "_format": "hh-sol-artifact-1",
  "contractName": "GraviDisasterOracle",
  "sourceName": "contracts/GraviDisasterOracle.sol",
  "abi": [
    {
      "anonymous": false,
      "inputs": [
        {
          "indexed": false,
          "internalType": "string",
          "name": "propertyAddress",
          "type": "string"
        },
        {
          "indexed": false,
          "internalType": "bool",
          "name": "isValid",
          "type": "bool"
        }
      ],
      "name": "AddressValidated",
      "type": "event"
    },
    {
      "anonymous": false,
      "inputs": [
        {
          "indexed": false,
          "internalType": "string",
          "name": "disasterType",
          "type": "string"
        },
        {
          "indexed": false,
          "internalType": "bool",
          "name": "isValid",
          "type": "bool"
        }
      ],
      "name": "DisasterTypeValidated",
      "type": "event"
    },
    {
      "inputs": [
        {
          "internalType": "string",
          "name": "propertyAddress",
          "type": "string"
        },
        {
          "internalType": "uint256",
          "name": "propertyValue",
          "type": "uint256"
        },
        {
          "internalType": "uint256",
          "name": "coveragePeriod",
          "type": "uint256"
        }
      ],
      "name": "calculateCoverage",
      "outputs": [
        {
          "internalType": "uint256",
          "name": "coverageAmount",
          "type": "uint256"
        }
      ],
      "stateMutability": "pure",
      "type": "function"
    },
    {
      "inputs": [
        {
          "internalType": "bytes32",
          "name": "policyId",
          "type": "bytes32"
        },
        {
          "internalType": "string",
          "name": "eventId",
          "type": "string"
        },
        {
          "internalType": "string",
          "name": "propertyAddress",
          "type": "string"
        },
        {
          "internalType": "uint256",
          "name": "coverageAmount",
          "type": "uint256"
        }
      ],
      "name": "calculateDamage",
      "outputs": [
        {
          "internalType": "uint256",
          "name": "damageAmount",
          "type": "uint256"
        }
      ],
      "stateMutability": "pure",
      "type": "function"
    },
    {
      "inputs": [
        {
          "internalType": "string",
          "name": "propertyAddress",
          "type": "string"
        },
        {
          "internalType": "uint256",
          "name": "propertyValue",
          "type": "uint256"
        },
        {
          "internalType": "uint256",
          "name": "coveragePeriod",
          "type": "uint256"
        }
      ],
      "name": "calculatePremium",
      "outputs": [
        {
          "internalType": "uint256",
          "name": "premium",
          "type": "uint256"
        }
      ],
      "stateMutability": "pure",
      "type": "function"
    },
    {
      "inputs": [
        {
          "internalType": "string",
          "name": "propertyAddress",
          "type": "string"
        }
      ],
      "name": "validateAddress",
      "outputs": [
        {
          "internalType": "bool",
          "name": "isValid",
          "type": "bool"
        }
      ],
      "stateMutability": "pure",
      "type": "function"
    },
    {
      "inputs": [
        {
          "internalType": "string",
          "name": "disasterType",
          "type": "string"
        }
      ],
      "name": "validateClaim",
      "outputs": [
        {
          "internalType": "bool",
          "name": "valid",
          "type": "bool"
        }
      ],
      "stateMutability": "nonpayable",
      "type": "function"
    }
  ],
  "bytecode": "0x60808060405234601557610d26908161001b8239f35b600080fdfe6080604052600436101561001257600080fd5b60003560e01c806365eaf54814610aff578063ad6661d314610a5a578063b30e98ec1461073e578063b8dd2130146101ec5763f32fd5e91461005357600080fd5b346101e75760803660031901126101e7576024356001600160401b0381116101e757610083903690600401610c2f565b604435906001600160401b0382116101e75760406101486100aa6064943690600401610c2f565b6100c78380516797b202f143575d55602082015260208152610bf8565b6100e483805167a639525f8fa2a709602082015260208152610bf8565b61010183805167805e393db18a235a602082015260208152610bf8565b8251928391602083019560043587526101238151809260208688019101610cba565b83016101388251809360208685019101610cba565b010103601f198101835282610bf8565b5190200661016a604080516743f7892716f90399602082015260208152610bf8565b61018860408051670589ee415ae33e12602082015260208152610bf8565b605a810290808204605a14901517156101d15760646101c8816020936101c06040805167b0ba63098fbf93b688820152878152610bf8565b048235610cdd565b04604051908152f35b634e487b7160e01b600052601160045260246000fd5b600080fd5b346101e7576101fa36610c85565b909160009061021d604080516768362bbfd5eac989602082015260208152610bf8565b61023b60408051670bfc078f85e5ae23602082015260208152610bf8565b61025960408051674a5cf636ca6d5962602082015260208152610bf8565b604051610287602082816102768183019687815193849201610cba565b81010301601f198101835282610bf8565b519020916102a9604080516745e4ec8de035f25c602082015260208152610bf8565b6102c76040805167ef0fea1cfa2e740a602082015260208152610bf8565b6102e5604080516712d1a938d9c424f8602082015260208152610bf8565b610303604080516778543216f02ef471602082015260208152610bf8565b6103216040805167354091264ce3fbdb602082015260208152610bf8565b61033f6040805167abd948d32fd7df62602082015260208152610bf8565b61035d60408051677bae766d5f4b698f602082015260208152610bf8565b61037b60408051673a8ca6a2d6d6fe24602082015260208152610bf8565b603383831a066032018060321161072a576103aa604080516733b8c379a8cb2762602082015260208152610bf8565b6103c86040805167670dfa7bb0ced3ed602082015260208152610bf8565b60298460011a06605a019081605a11610716576103f96040805167b858445fa509a392602082015260208152610bf8565b61041760408051671b0ff90b025d8826602082015260208152610bf8565b60298560021a066050019384605011610702575061046a61048993610465606496946104656237b1d09561045f604080516754357e19b17ee142602082015260208152610bf8565b8b610cdd565b610cdd565b046104656040805167a5375e87e8b78f6f602082015260208152610bf8565b046104a86040805167897267dd948ed174602082015260208152610bf8565b6104c6604080516732303382df7e5171602082015260208152610bf8565b60068260031a06600a0180600a116101d1576105206064916104fc604080516744086c1de4446521602082015260208152610bf8565b61051a6040805167b82cb52fd5cfa04c602082015260208152610bf8565b85610cdd565b04906105406040805167de3d116b36d7b10a602082015260208152610bf8565b61055e60408051671c4c259d07c9c193602082015260208152610bf8565b818110156106da5750600b906105886040805167f9b5155a26e58000602082015260208152610bf8565b6105a660408051678d6949f5204b8f18602082015260208152610bf8565b915b6105c6604080516703cd00b5d838f618602082015260208152610bf8565b6105e460408051673c69cc3df9893d83602082015260208152610bf8565b60041a06604601806046116101d1576106346064916020946106186040805167eb987ee50d760c4789820152888152610bf8565b61046560408051678780fd1b80cd09a489820152888152610bf8565b049061065260408051672739b34a6a06f40a86820152858152610bf8565b61066e6040805167e3bf2647483764dd86820152858152610bf8565b818111156106b757506106936040805167208a67f2dbc9358485820152848152610bf8565b6106af604080516762097bc5aeef36fe85820152848152610bf8565b604051908152f35b90506106d56040805167e6db416a75203ee085820152848152610bf8565b6106af565b91600b91506106fd60408051670e2dd3c4c98c4e08602082015260208152610bf8565b6105a8565b634e487b7160e01b81526011600452602490fd5b634e487b7160e01b84526011600452602484fd5b634e487b7160e01b83526011600452602483fd5b346101e75760203660031901126101e7576004356001600160401b0381116101e7576107706020913690600401610c2f565b61078c604080516737ff8a78bbbd78ce85820152848152610bf8565b6107a860408051670c2e556e397dc98185820152848152610bf8565b6107c46040805167394452ff2607138d85820152848152610bf8565b6107e06040805167ed0070fd305daf4985820152848152610bf8565b6107fc6040805167d21313ae4104ff9c85820152848152610bf8565b7fb2d05799ed41204b63625508fc4fffedb20b5dfaedc8fda5f4dd65d11609229c61090860606040519385850181519561084088828186019961027681878d610cba565b51902061085f604080516778cc9d8c7dce58018a820152898152610bf8565b61087b6040805167047baf065565efd28a820152898152610bf8565b7f15338a5fde9972f5269c31ef01e733778ac70a7baad29765f2c5ccb1e078572c81149081610a31575b81156109ac575b8115610956575b506108d06040805167760052a3874267298a820152898152610bf8565b6108ec6040805167d8da4bde9bea92fd8a820152898152610bf8565b6040519384926040845251809781604086015285850190610cba565b151581870181905294601f01601f19168101030190a161093a60408051678be79c81018ae13485820152848152610bf8565b6106af6040805167b64e4264cd8e333685820152848152610bf8565b7e878c226ffd6ac063e394894a72d73a7ed4ab61cc11b03e4fff40843bb8de4f91501480610985575b876108b3565b506109a560408051670e8d7560fb1b0b6d60c11b89820152888152610bf8565b600161097f565b90507f05d7cb7f3e42c93cbc63afff787d595a04b9d9ab0011be35f85a96ce700644c0811480610a0a575b806109e3575b906108ac565b50610a036040805167690bc442d1d77a7b60c11b8a820152898152610bf8565b60016109dd565b50610a2a60408051677419efb76c60974560c11b8a820152898152610bf8565b60016109d7565b9050610a5260408051679bd6e8e714365ca360c01b8a820152898152610bf8565b6001906108a5565b346101e75760203660031901126101e7576004356001600160401b0381116101e757610a8c6020913690600401610c2f565b610aa8604080516793ad31d49d85e78685820152848152610bf8565b610ac4604080516762f85f7deaff7c6985820152848152610bf8565b511515610ae36040805167d895ca7af10db34685820152848152610bf8565b6106af6040805167465b9e7fdeb0bd6585820152848152610bf8565b346101e7576064610b0f36610c85565b929091610b30604080516767fa5f108a3c1f5a602082015260208152610bf8565b610b4e60408051676d2341597e4d207d602082015260208152610bf8565b610b6c6040805167e32474c816ace826602082015260208152610bf8565b604051610b89602082816102768183019687815193849201610cba565b5190200691600183018093116101d1576020926104656101c892623d090094610bc46040805167971cdef9bfa826508a820152898152610bf8565b610be060408051678852aa06f34712b88a820152898152610bf8565b6104656040805167ff12652d7b3db33e8a8201528981525b90601f801991011681019081106001600160401b03821117610c1957604052565b634e487b7160e01b600052604160045260246000fd5b81601f820112156101e7578035906001600160401b038211610c195760405192610c63601f8401601f191660200185610bf8565b828452602083830101116101e757816000926020809301838601378301015290565b60606003198201126101e757600435906001600160401b0382116101e757610caf91600401610c2f565b906024359060443590565b60005b838110610ccd5750506000910152565b8181015183820152602001610cbd565b818102929181159184041417156101d15756fea2646970667358221220521d8e7699ce92fe42215ebf403b625dd7e6b022d5720f248bd49ba7c3a7ca4f64736f6c634300081c0033",
  "linkReferences": {},
  "deployedLinkReferences": {}
}