{
  "_format": "hh-sol-artifact-1",
  "contractName": "GraviDisasterOracle",
  "sourceName": "contracts/GraviDisasterOracle.sol",
  "abi": [
    {
      "anonymous": false,
      "inputs": [
        {
          "indexed": false,
          "internalType": "string",
          "name": "incidentDescription",
          "type": "string"
        },
        {
          "indexed": false,
          "internalType": "string",
          "name": "disasterType",
          "type": "string"
        },
        {
          "indexed": false,
          "internalType": "string",
          "name": "evidence",
          "type": "string"
        },
        {
          "indexed": false,
          "internalType": "bool",
          "name": "isValid",
          "type": "bool"
        }
      ],
      "name": "ClaimValidated",
      "type": "event"
    },
    {
      "inputs": [
        {
          "internalType": "string",
          "name": "incidentDescription",
          "type": "string"
        },
        {
          "internalType": "string",
          "name": "disasterType",
          "type": "string"
        },
        {
          "internalType": "string",
          "name": "evidence",
          "type": "string"
        }
      ],
      "name": "validateClaim",
      "outputs": [
        {
          "internalType": "bool",
          "name": "",
          "type": "bool"
        }
      ],
      "stateMutability": "nonpayable",
      "type": "function"
    }
  ],
  "bytecode": "0x6080806040523460155761023c908161001b8239f35b600080fdfe6080604052600436101561001257600080fd5b60003560e01c632493c80e1461002757600080fd5b346101415760603660031901126101415760043567ffffffffffffffff811161014157610058903690600401610146565b60243567ffffffffffffffff811161014157610078903690600401610146565b6044359167ffffffffffffffff8311610141576100f47f6728b25c307fa878d6a2ed4cf38d4126160a395278b5315f3c4608ef89c3a31d9161010f6100c36020963690600401610146565b8251158015610138575b801561012f575b15610124576101016000965b6040519586956080875260808701906101c5565b908582038a8701526101c5565b9083820360408501526101c5565b931515938460608301520390a1604051908152f35b6101016001966100e0565b508051156100d4565b508551156100cd565b600080fd5b81601f820112156101415780359067ffffffffffffffff82116101af5760405192601f8301601f19908116603f0116840167ffffffffffffffff8111858210176101af576040528284526020838301011161014157816000926020809301838601378301015290565b634e487b7160e01b600052604160045260246000fd5b919082519283825260005b8481106101f1575050826000602080949584010152601f8019910116010190565b806020809284010151828286010152016101d056fea2646970667358221220723582d841c94cfbda65efbcda01b625e53137ebeaa4a9da75d8ce825b92926364736f6c634300081c0033",
  "linkReferences": {},
  "deployedLinkReferences": {}
}