{
  "_format": "hh-sol-artifact-1",
  "contractName": "GraviGovernance",
  "sourceName": "contracts/GraviGovernance.sol",
  "abi": [
    {
      "inputs": [
        {
          "internalType": "contract IVotes",
          "name": "token",
          "type": "address"
        },
        {
          "internalType": "contract TimelockController",
          "name": "timelock",
          "type": "address"
        },
        {
          "internalType": "contract IGraviCha",
          "name": "_graviCha",
          "type": "address"
        }
      ],
      "stateMutability": "nonpayable",
      "type": "constructor"
    },
    {
      "inputs": [],
      "name": "CheckpointUnorderedInsertion",
      "type": "error"
    },
    {
      "inputs": [],
      "name": "FailedCall",
      "type": "error"
    },
    {
      "inputs": [
        {
          "internalType": "address",
          "name": "voter",
          "type": "address"
        }
      ],
      "name": "GovernorAlreadyCastVote",
      "type": "error"
    },
    {
      "inputs": [
        {
          "internalType": "uint256",
          "name": "proposalId",
          "type": "uint256"
        }
      ],
      "name": "GovernorAlreadyQueuedProposal",
      "type": "error"
    },
    {
      "inputs": [],
      "name": "GovernorDisabledDeposit",
      "type": "error"
    },
    {
      "inputs": [
        {
          "internalType": "address",
          "name": "proposer",
          "type": "address"
        },
        {
          "internalType": "uint256",
          "name": "votes",
          "type": "uint256"
        },
        {
          "internalType": "uint256",
          "name": "threshold",
          "type": "uint256"
        }
      ],
      "name": "GovernorInsufficientProposerVotes",
      "type": "error"
    },
    {
      "inputs": [
        {
          "internalType": "uint256",
          "name": "targets",
          "type": "uint256"
        },
        {
          "internalType": "uint256",
          "name": "calldatas",
          "type": "uint256"
        },
        {
          "internalType": "uint256",
          "name": "values",
          "type": "uint256"
        }
      ],
      "name": "GovernorInvalidProposalLength",
      "type": "error"
    },
    {
      "inputs": [
        {
          "internalType": "uint256",
          "name": "quorumNumerator",
          "type": "uint256"
        },
        {
          "internalType": "uint256",
          "name": "quorumDenominator",
          "type": "uint256"
        }
      ],
      "name": "GovernorInvalidQuorumFraction",
      "type": "error"
    },
    {
      "inputs": [
        {
          "internalType": "address",
          "name": "voter",
          "type": "address"
        }
      ],
      "name": "GovernorInvalidSignature",
      "type": "error"
    },
    {
      "inputs": [],
      "name": "GovernorInvalidVoteParams",
      "type": "error"
    },
    {
      "inputs": [],
      "name": "GovernorInvalidVoteType",
      "type": "error"
    },
    {
      "inputs": [
        {
          "internalType": "uint256",
          "name": "votingPeriod",
          "type": "uint256"
        }
      ],
      "name": "GovernorInvalidVotingPeriod",
      "type": "error"
    },
    {
      "inputs": [
        {
          "internalType": "uint256",
          "name": "proposalId",
          "type": "uint256"
        }
      ],
      "name": "GovernorNonexistentProposal",
      "type": "error"
    },
    {
      "inputs": [
        {
          "internalType": "uint256",
          "name": "proposalId",
          "type": "uint256"
        }
      ],
      "name": "GovernorNotQueuedProposal",
      "type": "error"
    },
    {
      "inputs": [
        {
          "internalType": "address",
          "name": "account",
          "type": "address"
        }
      ],
      "name": "GovernorOnlyExecutor",
      "type": "error"
    },
    {
      "inputs": [
        {
          "internalType": "address",
          "name": "account",
          "type": "address"
        }
      ],
      "name": "GovernorOnlyProposer",
      "type": "error"
    },
    {
      "inputs": [],
      "name": "GovernorQueueNotImplemented",
      "type": "error"
    },
    {
      "inputs": [
        {
          "internalType": "address",
          "name": "proposer",
          "type": "address"
        }
      ],
      "name": "GovernorRestrictedProposer",
      "type": "error"
    },
    {
      "inputs": [
        {
          "internalType": "uint256",
          "name": "proposalId",
          "type": "uint256"
        },
        {
          "internalType": "enum IGovernor.ProposalState",
          "name": "current",
          "type": "uint8"
        },
        {
          "internalType": "bytes32",
          "name": "expectedStates",
          "type": "bytes32"
        }
      ],
      "name": "GovernorUnexpectedProposalState",
      "type": "error"
    },
    {
      "inputs": [
        {
          "internalType": "address",
          "name": "account",
          "type": "address"
        },
        {
          "internalType": "uint256",
          "name": "currentNonce",
          "type": "uint256"
        }
      ],
      "name": "InvalidAccountNonce",
      "type": "error"
    },
    {
      "inputs": [],
      "name": "InvalidShortString",
      "type": "error"
    },
    {
      "inputs": [
        {
          "internalType": "uint8",
          "name": "bits",
          "type": "uint8"
        },
        {
          "internalType": "uint256",
          "name": "value",
          "type": "uint256"
        }
      ],
      "name": "SafeCastOverflowedUintDowncast",
      "type": "error"
    },
    {
      "inputs": [
        {
          "internalType": "string",
          "name": "str",
          "type": "string"
        }
      ],
      "name": "StringTooLong",
      "type": "error"
    },
    {
      "anonymous": false,
      "inputs": [],
      "name": "EIP712DomainChanged",
      "type": "event"
    },
    {
      "anonymous": false,
      "inputs": [
        {
          "indexed": true,
          "internalType": "uint256",
          "name": "proposalId",
          "type": "uint256"
        },
        {
          "indexed": false,
          "internalType": "string",
          "name": "title",
          "type": "string"
        },
        {
          "indexed": false,
          "internalType": "address",
          "name": "proposer",
          "type": "address"
        }
      ],
      "name": "GraviProposalCreated",
      "type": "event"
    },
    {
      "anonymous": false,
      "inputs": [
        {
          "indexed": false,
          "internalType": "uint256",
          "name": "proposalId",
          "type": "uint256"
        }
      ],
      "name": "ProposalCanceled",
      "type": "event"
    },
    {
      "anonymous": false,
      "inputs": [
        {
          "indexed": false,
          "internalType": "uint256",
          "name": "proposalId",
          "type": "uint256"
        },
        {
          "indexed": false,
          "internalType": "address",
          "name": "proposer",
          "type": "address"
        },
        {
          "indexed": false,
          "internalType": "address[]",
          "name": "targets",
          "type": "address[]"
        },
        {
          "indexed": false,
          "internalType": "uint256[]",
          "name": "values",
          "type": "uint256[]"
        },
        {
          "indexed": false,
          "internalType": "string[]",
          "name": "signatures",
          "type": "string[]"
        },
        {
          "indexed": false,
          "internalType": "bytes[]",
          "name": "calldatas",
          "type": "bytes[]"
        },
        {
          "indexed": false,
          "internalType": "uint256",
          "name": "voteStart",
          "type": "uint256"
        },
        {
          "indexed": false,
          "internalType": "uint256",
          "name": "voteEnd",
          "type": "uint256"
        },
        {
          "indexed": false,
          "internalType": "string",
          "name": "description",
          "type": "string"
        }
      ],
      "name": "ProposalCreated",
      "type": "event"
    },
    {
      "anonymous": false,
      "inputs": [
        {
          "indexed": true,
          "internalType": "address",
          "name": "proposer",
          "type": "address"
        },
        {
          "indexed": true,
          "internalType": "uint256",
          "name": "proposalId",
          "type": "uint256"
        },
        {
          "indexed": false,
          "internalType": "uint256",
          "name": "amount",
          "type": "uint256"
        }
      ],
      "name": "ProposalCreationRewardClaimed",
      "type": "event"
    },
    {
      "anonymous": false,
      "inputs": [
        {
          "indexed": false,
          "internalType": "uint256",
          "name": "proposalId",
          "type": "uint256"
        }
      ],
      "name": "ProposalExecuted",
      "type": "event"
    },
    {
      "anonymous": false,
      "inputs": [
        {
          "indexed": false,
          "internalType": "uint256",
          "name": "proposalId",
          "type": "uint256"
        },
        {
          "indexed": false,
          "internalType": "uint256",
          "name": "etaSeconds",
          "type": "uint256"
        }
      ],
      "name": "ProposalQueued",
      "type": "event"
    },
    {
      "anonymous": false,
      "inputs": [
        {
          "indexed": false,
          "internalType": "uint256",
          "name": "oldQuorumNumerator",
          "type": "uint256"
        },
        {
          "indexed": false,
          "internalType": "uint256",
          "name": "newQuorumNumerator",
          "type": "uint256"
        }
      ],
      "name": "QuorumNumeratorUpdated",
      "type": "event"
    },
    {
      "anonymous": false,
      "inputs": [
        {
          "indexed": false,
          "internalType": "address",
          "name": "oldTimelock",
          "type": "address"
        },
        {
          "indexed": false,
          "internalType": "address",
          "name": "newTimelock",
          "type": "address"
        }
      ],
      "name": "TimelockChange",
      "type": "event"
    },
    {
      "anonymous": false,
      "inputs": [
        {
          "indexed": true,
          "internalType": "address",
          "name": "voter",
          "type": "address"
        },
        {
          "indexed": false,
          "internalType": "uint256",
          "name": "proposalId",
          "type": "uint256"
        },
        {
          "indexed": false,
          "internalType": "uint8",
          "name": "support",
          "type": "uint8"
        },
        {
          "indexed": false,
          "internalType": "uint256",
          "name": "weight",
          "type": "uint256"
        },
        {
          "indexed": false,
          "internalType": "string",
          "name": "reason",
          "type": "string"
        }
      ],
      "name": "VoteCast",
      "type": "event"
    },
    {
      "anonymous": false,
      "inputs": [
        {
          "indexed": true,
          "internalType": "address",
          "name": "voter",
          "type": "address"
        },
        {
          "indexed": false,
          "internalType": "uint256",
          "name": "proposalId",
          "type": "uint256"
        },
        {
          "indexed": false,
          "internalType": "uint8",
          "name": "support",
          "type": "uint8"
        },
        {
          "indexed": false,
          "internalType": "uint256",
          "name": "weight",
          "type": "uint256"
        },
        {
          "indexed": false,
          "internalType": "string",
          "name": "reason",
          "type": "string"
        },
        {
          "indexed": false,
          "internalType": "bytes",
          "name": "params",
          "type": "bytes"
        }
      ],
      "name": "VoteCastWithParams",
      "type": "event"
    },
    {
      "anonymous": false,
      "inputs": [
        {
          "indexed": false,
          "internalType": "uint256",
          "name": "oldAmount",
          "type": "uint256"
        },
        {
          "indexed": false,
          "internalType": "uint256",
          "name": "newAmount",
          "type": "uint256"
        }
      ],
      "name": "VoteRewardAmountUpdated",
      "type": "event"
    },
    {
      "anonymous": false,
      "inputs": [
        {
          "indexed": true,
          "internalType": "address",
          "name": "voter",
          "type": "address"
        },
        {
          "indexed": true,
          "internalType": "uint256",
          "name": "proposalId",
          "type": "uint256"
        },
        {
          "indexed": false,
          "internalType": "uint256",
          "name": "amount",
          "type": "uint256"
        }
      ],
      "name": "VoteRewardClaimed",
      "type": "event"
    },
    {
      "anonymous": false,
      "inputs": [
        {
          "indexed": false,
          "internalType": "bool",
          "name": "enabled",
          "type": "bool"
        }
      ],
      "name": "VoteRewardsToggled",
      "type": "event"
    },
    {
      "inputs": [],
      "name": "BALLOT_TYPEHASH",
      "outputs": [
        {
          "internalType": "bytes32",
          "name": "",
          "type": "bytes32"
        }
      ],
      "stateMutability": "view",
      "type": "function"
    },
    {
      "inputs": [],
      "name": "CLOCK_MODE",
      "outputs": [
        {
          "internalType": "string",
          "name": "",
          "type": "string"
        }
      ],
      "stateMutability": "view",
      "type": "function"
    },
    {
      "inputs": [],
      "name": "COUNTING_MODE",
      "outputs": [
        {
          "internalType": "string",
          "name": "",
          "type": "string"
        }
      ],
      "stateMutability": "pure",
      "type": "function"
    },
    {
      "inputs": [],
      "name": "EXTENDED_BALLOT_TYPEHASH",
      "outputs": [
        {
          "internalType": "bytes32",
          "name": "",
          "type": "bytes32"
        }
      ],
      "stateMutability": "view",
      "type": "function"
    },
    {
      "inputs": [
        {
          "internalType": "uint256",
          "name": "",
          "type": "uint256"
        }
      ],
      "name": "allProposalIds",
      "outputs": [
        {
          "internalType": "uint256",
          "name": "",
          "type": "uint256"
        }
      ],
      "stateMutability": "view",
      "type": "function"
    },
    {
      "inputs": [
        {
          "internalType": "address[]",
          "name": "targets",
          "type": "address[]"
        },
        {
          "internalType": "uint256[]",
          "name": "values",
          "type": "uint256[]"
        },
        {
          "internalType": "bytes[]",
          "name": "calldatas",
          "type": "bytes[]"
        },
        {
          "internalType": "bytes32",
          "name": "descriptionHash",
          "type": "bytes32"
        }
      ],
      "name": "cancel",
      "outputs": [
        {
          "internalType": "uint256",
          "name": "",
          "type": "uint256"
        }
      ],
      "stateMutability": "nonpayable",
      "type": "function"
    },
    {
      "inputs": [
        {
          "internalType": "uint256",
          "name": "proposalId",
          "type": "uint256"
        },
        {
          "internalType": "uint8",
          "name": "support",
          "type": "uint8"
        }
      ],
      "name": "castVote",
      "outputs": [
        {
          "internalType": "uint256",
          "name": "",
          "type": "uint256"
        }
      ],
      "stateMutability": "nonpayable",
      "type": "function"
    },
    {
      "inputs": [
        {
          "internalType": "uint256",
          "name": "proposalId",
          "type": "uint256"
        },
        {
          "internalType": "uint8",
          "name": "support",
          "type": "uint8"
        },
        {
          "internalType": "address",
          "name": "voter",
          "type": "address"
        },
        {
          "internalType": "bytes",
          "name": "signature",
          "type": "bytes"
        }
      ],
      "name": "castVoteBySig",
      "outputs": [
        {
          "internalType": "uint256",
          "name": "",
          "type": "uint256"
        }
      ],
      "stateMutability": "nonpayable",
      "type": "function"
    },
    {
      "inputs": [
        {
          "internalType": "uint256",
          "name": "proposalId",
          "type": "uint256"
        },
        {
          "internalType": "uint8",
          "name": "support",
          "type": "uint8"
        },
        {
          "internalType": "string",
          "name": "reason",
          "type": "string"
        }
      ],
      "name": "castVoteWithReason",
      "outputs": [
        {
          "internalType": "uint256",
          "name": "",
          "type": "uint256"
        }
      ],
      "stateMutability": "nonpayable",
      "type": "function"
    },
    {
      "inputs": [
        {
          "internalType": "uint256",
          "name": "proposalId",
          "type": "uint256"
        },
        {
          "internalType": "uint8",
          "name": "support",
          "type": "uint8"
        },
        {
          "internalType": "string",
          "name": "reason",
          "type": "string"
        },
        {
          "internalType": "bytes",
          "name": "params",
          "type": "bytes"
        }
      ],
      "name": "castVoteWithReasonAndParams",
      "outputs": [
        {
          "internalType": "uint256",
          "name": "",
          "type": "uint256"
        }
      ],
      "stateMutability": "nonpayable",
      "type": "function"
    },
    {
      "inputs": [
        {
          "internalType": "uint256",
          "name": "proposalId",
          "type": "uint256"
        },
        {
          "internalType": "uint8",
          "name": "support",
          "type": "uint8"
        },
        {
          "internalType": "address",
          "name": "voter",
          "type": "address"
        },
        {
          "internalType": "string",
          "name": "reason",
          "type": "string"
        },
        {
          "internalType": "bytes",
          "name": "params",
          "type": "bytes"
        },
        {
          "internalType": "bytes",
          "name": "signature",
          "type": "bytes"
        }
      ],
      "name": "castVoteWithReasonAndParamsBySig",
      "outputs": [
        {
          "internalType": "uint256",
          "name": "",
          "type": "uint256"
        }
      ],
      "stateMutability": "nonpayable",
      "type": "function"
    },
    {
      "inputs": [
        {
          "internalType": "uint256",
          "name": "proposalId",
          "type": "uint256"
        },
        {
          "internalType": "uint8",
          "name": "support",
          "type": "uint8"
        },
        {
          "internalType": "string",
          "name": "reason",
          "type": "string"
        }
      ],
      "name": "castVoteWithReasonAndReward",
      "outputs": [
        {
          "internalType": "uint256",
          "name": "",
          "type": "uint256"
        }
      ],
      "stateMutability": "nonpayable",
      "type": "function"
    },
    {
      "inputs": [
        {
          "internalType": "uint256",
          "name": "proposalId",
          "type": "uint256"
        },
        {
          "internalType": "uint8",
          "name": "support",
          "type": "uint8"
        }
      ],
      "name": "castVoteWithReward",
      "outputs": [
        {
          "internalType": "uint256",
          "name": "",
          "type": "uint256"
        }
      ],
      "stateMutability": "nonpayable",
      "type": "function"
    },
    {
      "inputs": [],
      "name": "clock",
      "outputs": [
        {
          "internalType": "uint48",
          "name": "",
          "type": "uint48"
        }
      ],
      "stateMutability": "view",
      "type": "function"
    },
    {
      "inputs": [
        {
          "internalType": "string",
          "name": "title",
          "type": "string"
        },
        {
          "internalType": "string",
          "name": "description",
          "type": "string"
        },
        {
          "internalType": "address[]",
          "name": "targets",
          "type": "address[]"
        },
        {
          "internalType": "uint256[]",
          "name": "values",
          "type": "uint256[]"
        },
        {
          "internalType": "bytes[]",
          "name": "calldatas",
          "type": "bytes[]"
        }
      ],
      "name": "createProposal",
      "outputs": [
        {
          "internalType": "uint256",
          "name": "proposalId",
          "type": "uint256"
        }
      ],
      "stateMutability": "nonpayable",
      "type": "function"
    },
    {
      "inputs": [
        {
          "internalType": "string",
          "name": "title",
          "type": "string"
        },
        {
          "internalType": "string",
          "name": "description",
          "type": "string"
        },
        {
          "internalType": "address[]",
          "name": "targets",
          "type": "address[]"
        },
        {
          "internalType": "uint256[]",
          "name": "values",
          "type": "uint256[]"
        },
        {
          "internalType": "bytes[]",
          "name": "calldatas",
          "type": "bytes[]"
        }
      ],
      "name": "createProposalWithReward",
      "outputs": [
        {
          "internalType": "uint256",
          "name": "proposalId",
          "type": "uint256"
        }
      ],
      "stateMutability": "nonpayable",
      "type": "function"
    },
    {
      "inputs": [],
      "name": "eip712Domain",
      "outputs": [
        {
          "internalType": "bytes1",
          "name": "fields",
          "type": "bytes1"
        },
        {
          "internalType": "string",
          "name": "name",
          "type": "string"
        },
        {
          "internalType": "string",
          "name": "version",
          "type": "string"
        },
        {
          "internalType": "uint256",
          "name": "chainId",
          "type": "uint256"
        },
        {
          "internalType": "address",
          "name": "verifyingContract",
          "type": "address"
        },
        {
          "internalType": "bytes32",
          "name": "salt",
          "type": "bytes32"
        },
        {
          "internalType": "uint256[]",
          "name": "extensions",
          "type": "uint256[]"
        }
      ],
      "stateMutability": "view",
      "type": "function"
    },
    {
      "inputs": [
        {
          "internalType": "address[]",
          "name": "targets",
          "type": "address[]"
        },
        {
          "internalType": "uint256[]",
          "name": "values",
          "type": "uint256[]"
        },
        {
          "internalType": "bytes[]",
          "name": "calldatas",
          "type": "bytes[]"
        },
        {
          "internalType": "bytes32",
          "name": "descriptionHash",
          "type": "bytes32"
        }
      ],
      "name": "execute",
      "outputs": [
        {
          "internalType": "uint256",
          "name": "",
          "type": "uint256"
        }
      ],
      "stateMutability": "payable",
      "type": "function"
    },
    {
      "inputs": [],
      "name": "getAllProposalIds",
      "outputs": [
        {
          "internalType": "uint256[]",
          "name": "",
          "type": "uint256[]"
        }
      ],
      "stateMutability": "view",
      "type": "function"
    },
    {
      "inputs": [],
      "name": "getProposalCount",
      "outputs": [
        {
          "internalType": "uint256",
          "name": "",
          "type": "uint256"
        }
      ],
      "stateMutability": "view",
      "type": "function"
    },
    {
      "inputs": [
        {
          "internalType": "uint256",
          "name": "proposalId",
          "type": "uint256"
        }
      ],
      "name": "getProposalDetail",
      "outputs": [
        {
          "components": [
            {
              "internalType": "uint256",
              "name": "id",
              "type": "uint256"
            },
            {
              "internalType": "string",
              "name": "title",
              "type": "string"
            },
            {
              "internalType": "string",
              "name": "description",
              "type": "string"
            },
            {
              "internalType": "address[]",
              "name": "targets",
              "type": "address[]"
            },
            {
              "internalType": "uint256[]",
              "name": "values",
              "type": "uint256[]"
            },
            {
              "internalType": "bytes[]",
              "name": "calldatas",
              "type": "bytes[]"
            },
            {
              "internalType": "address",
              "name": "proposer",
              "type": "address"
            },
            {
              "internalType": "uint256",
              "name": "created",
              "type": "uint256"
            }
          ],
          "internalType": "struct IGraviGovernance.ProposalData",
          "name": "",
          "type": "tuple"
        }
      ],
      "stateMutability": "view",
      "type": "function"
    },
    {
      "inputs": [],
      "name": "getRewardInfo",
      "outputs": [
        {
          "internalType": "bool",
          "name": "isEnabled",
          "type": "bool"
        },
        {
          "internalType": "uint256",
          "name": "rewardAmount",
          "type": "uint256"
        },
        {
          "internalType": "address",
          "name": "tokenAddress",
          "type": "address"
        }
      ],
      "stateMutability": "view",
      "type": "function"
    },
    {
      "inputs": [
        {
          "internalType": "address",
          "name": "account",
          "type": "address"
        },
        {
          "internalType": "uint256",
          "name": "timepoint",
          "type": "uint256"
        }
      ],
      "name": "getVotes",
      "outputs": [
        {
          "internalType": "uint256",
          "name": "",
          "type": "uint256"
        }
      ],
      "stateMutability": "view",
      "type": "function"
    },
    {
      "inputs": [
        {
          "internalType": "address",
          "name": "account",
          "type": "address"
        },
        {
          "internalType": "uint256",
          "name": "timepoint",
          "type": "uint256"
        },
        {
          "internalType": "bytes",
          "name": "params",
          "type": "bytes"
        }
      ],
      "name": "getVotesWithParams",
      "outputs": [
        {
          "internalType": "uint256",
          "name": "",
          "type": "uint256"
        }
      ],
      "stateMutability": "view",
      "type": "function"
    },
    {
      "inputs": [],
      "name": "govProposalThreshold",
      "outputs": [
        {
          "internalType": "uint256",
          "name": "",
          "type": "uint256"
        }
      ],
      "stateMutability": "view",
      "type": "function"
    },
    {
      "inputs": [],
      "name": "govVotingDelay",
      "outputs": [
        {
          "internalType": "uint256",
          "name": "",
          "type": "uint256"
        }
      ],
      "stateMutability": "view",
      "type": "function"
    },
    {
      "inputs": [],
      "name": "govVotingPeriod",
      "outputs": [
        {
          "internalType": "uint256",
          "name": "",
          "type": "uint256"
        }
      ],
      "stateMutability": "view",
      "type": "function"
    },
    {
      "inputs": [],
      "name": "graviCha",
      "outputs": [
        {
          "internalType": "contract IGraviCha",
          "name": "",
          "type": "address"
        }
      ],
      "stateMutability": "view",
      "type": "function"
    },
    {
      "inputs": [
        {
          "internalType": "uint256",
          "name": "",
          "type": "uint256"
        },
        {
          "internalType": "address",
          "name": "",
          "type": "address"
        }
      ],
      "name": "hasClaimedReward",
      "outputs": [
        {
          "internalType": "bool",
          "name": "",
          "type": "bool"
        }
      ],
      "stateMutability": "view",
      "type": "function"
    },
    {
      "inputs": [
        {
          "internalType": "uint256",
          "name": "",
          "type": "uint256"
        }
      ],
      "name": "hasProposerClaimedReward",
      "outputs": [
        {
          "internalType": "bool",
          "name": "",
          "type": "bool"
        }
      ],
      "stateMutability": "view",
      "type": "function"
    },
    {
      "inputs": [
        {
          "internalType": "uint256",
          "name": "proposalId",
          "type": "uint256"
        },
        {
          "internalType": "address",
          "name": "account",
          "type": "address"
        }
      ],
      "name": "hasVoted",
      "outputs": [
        {
          "internalType": "bool",
          "name": "",
          "type": "bool"
        }
      ],
      "stateMutability": "view",
      "type": "function"
    },
    {
      "inputs": [
        {
          "internalType": "uint256",
          "name": "proposalId",
          "type": "uint256"
        },
        {
          "internalType": "address",
          "name": "voter",
          "type": "address"
        }
      ],
      "name": "hasVoterClaimedReward",
      "outputs": [
        {
          "internalType": "bool",
          "name": "",
          "type": "bool"
        }
      ],
      "stateMutability": "view",
      "type": "function"
    },
    {
      "inputs": [
        {
          "internalType": "address[]",
          "name": "targets",
          "type": "address[]"
        },
        {
          "internalType": "uint256[]",
          "name": "values",
          "type": "uint256[]"
        },
        {
          "internalType": "bytes[]",
          "name": "calldatas",
          "type": "bytes[]"
        },
        {
          "internalType": "bytes32",
          "name": "descriptionHash",
          "type": "bytes32"
        }
      ],
      "name": "hashProposal",
      "outputs": [
        {
          "internalType": "uint256",
          "name": "",
          "type": "uint256"
        }
      ],
      "stateMutability": "pure",
      "type": "function"
    },
    {
      "inputs": [],
      "name": "name",
      "outputs": [
        {
          "internalType": "string",
          "name": "",
          "type": "string"
        }
      ],
      "stateMutability": "view",
      "type": "function"
    },
    {
      "inputs": [
        {
          "internalType": "address",
          "name": "owner",
          "type": "address"
        }
      ],
      "name": "nonces",
      "outputs": [
        {
          "internalType": "uint256",
          "name": "",
          "type": "uint256"
        }
      ],
      "stateMutability": "view",
      "type": "function"
    },
    {
      "inputs": [
        {
          "internalType": "address",
          "name": "",
          "type": "address"
        },
        {
          "internalType": "address",
          "name": "",
          "type": "address"
        },
        {
          "internalType": "uint256[]",
          "name": "",
          "type": "uint256[]"
        },
        {
          "internalType": "uint256[]",
          "name": "",
          "type": "uint256[]"
        },
        {
          "internalType": "bytes",
          "name": "",
          "type": "bytes"
        }
      ],
      "name": "onERC1155BatchReceived",
      "outputs": [
        {
          "internalType": "bytes4",
          "name": "",
          "type": "bytes4"
        }
      ],
      "stateMutability": "nonpayable",
      "type": "function"
    },
    {
      "inputs": [
        {
          "internalType": "address",
          "name": "",
          "type": "address"
        },
        {
          "internalType": "address",
          "name": "",
          "type": "address"
        },
        {
          "internalType": "uint256",
          "name": "",
          "type": "uint256"
        },
        {
          "internalType": "uint256",
          "name": "",
          "type": "uint256"
        },
        {
          "internalType": "bytes",
          "name": "",
          "type": "bytes"
        }
      ],
      "name": "onERC1155Received",
      "outputs": [
        {
          "internalType": "bytes4",
          "name": "",
          "type": "bytes4"
        }
      ],
      "stateMutability": "nonpayable",
      "type": "function"
    },
    {
      "inputs": [
        {
          "internalType": "address",
          "name": "",
          "type": "address"
        },
        {
          "internalType": "address",
          "name": "",
          "type": "address"
        },
        {
          "internalType": "uint256",
          "name": "",
          "type": "uint256"
        },
        {
          "internalType": "bytes",
          "name": "",
          "type": "bytes"
        }
      ],
      "name": "onERC721Received",
      "outputs": [
        {
          "internalType": "bytes4",
          "name": "",
          "type": "bytes4"
        }
      ],
      "stateMutability": "nonpayable",
      "type": "function"
    },
    {
      "inputs": [
        {
          "internalType": "uint256",
          "name": "proposalId",
          "type": "uint256"
        }
      ],
      "name": "proposalDeadline",
      "outputs": [
        {
          "internalType": "uint256",
          "name": "",
          "type": "uint256"
        }
      ],
      "stateMutability": "view",
      "type": "function"
    },
    {
      "inputs": [
        {
          "internalType": "uint256",
          "name": "proposalId",
          "type": "uint256"
        }
      ],
      "name": "proposalEta",
      "outputs": [
        {
          "internalType": "uint256",
          "name": "",
          "type": "uint256"
        }
      ],
      "stateMutability": "view",
      "type": "function"
    },
    {
      "inputs": [
        {
          "internalType": "uint256",
          "name": "proposalId",
          "type": "uint256"
        }
      ],
      "name": "proposalNeedsQueuing",
      "outputs": [
        {
          "internalType": "bool",
          "name": "",
          "type": "bool"
        }
      ],
      "stateMutability": "view",
      "type": "function"
    },
    {
      "inputs": [
        {
          "internalType": "uint256",
          "name": "proposalId",
          "type": "uint256"
        }
      ],
      "name": "proposalProposer",
      "outputs": [
        {
          "internalType": "address",
          "name": "",
          "type": "address"
        }
      ],
      "stateMutability": "view",
      "type": "function"
    },
    {
      "inputs": [
        {
          "internalType": "uint256",
          "name": "proposalId",
          "type": "uint256"
        }
      ],
      "name": "proposalSnapshot",
      "outputs": [
        {
          "internalType": "uint256",
          "name": "",
          "type": "uint256"
        }
      ],
      "stateMutability": "view",
      "type": "function"
    },
    {
      "inputs": [],
      "name": "proposalThreshold",
      "outputs": [
        {
          "internalType": "uint256",
          "name": "",
          "type": "uint256"
        }
      ],
      "stateMutability": "view",
      "type": "function"
    },
    {
      "inputs": [
        {
          "internalType": "uint256",
          "name": "proposalId",
          "type": "uint256"
        }
      ],
      "name": "proposalVotes",
      "outputs": [
        {
          "internalType": "uint256",
          "name": "againstVotes",
          "type": "uint256"
        },
        {
          "internalType": "uint256",
          "name": "forVotes",
          "type": "uint256"
        },
        {
          "internalType": "uint256",
          "name": "abstainVotes",
          "type": "uint256"
        }
      ],
      "stateMutability": "view",
      "type": "function"
    },
    {
      "inputs": [
        {
          "internalType": "uint256",
          "name": "",
          "type": "uint256"
        }
      ],
      "name": "proposals",
      "outputs": [
        {
          "internalType": "uint256",
          "name": "id",
          "type": "uint256"
        },
        {
          "internalType": "string",
          "name": "title",
          "type": "string"
        },
        {
          "internalType": "string",
          "name": "description",
          "type": "string"
        },
        {
          "internalType": "address",
          "name": "proposer",
          "type": "address"
        },
        {
          "internalType": "uint256",
          "name": "created",
          "type": "uint256"
        }
      ],
      "stateMutability": "view",
      "type": "function"
    },
    {
      "inputs": [
        {
          "internalType": "address[]",
          "name": "targets",
          "type": "address[]"
        },
        {
          "internalType": "uint256[]",
          "name": "values",
          "type": "uint256[]"
        },
        {
          "internalType": "bytes[]",
          "name": "calldatas",
          "type": "bytes[]"
        },
        {
          "internalType": "string",
          "name": "description",
          "type": "string"
        }
      ],
      "name": "propose",
      "outputs": [
        {
          "internalType": "uint256",
          "name": "",
          "type": "uint256"
        }
      ],
      "stateMutability": "nonpayable",
      "type": "function"
    },
    {
      "inputs": [
        {
          "internalType": "address[]",
          "name": "targets",
          "type": "address[]"
        },
        {
          "internalType": "uint256[]",
          "name": "values",
          "type": "uint256[]"
        },
        {
          "internalType": "bytes[]",
          "name": "calldatas",
          "type": "bytes[]"
        },
        {
          "internalType": "bytes32",
          "name": "descriptionHash",
          "type": "bytes32"
        }
      ],
      "name": "queue",
      "outputs": [
        {
          "internalType": "uint256",
          "name": "",
          "type": "uint256"
        }
      ],
      "stateMutability": "nonpayable",
      "type": "function"
    },
    {
      "inputs": [
        {
          "internalType": "uint256",
          "name": "timepoint",
          "type": "uint256"
        }
      ],
      "name": "quorum",
      "outputs": [
        {
          "internalType": "uint256",
          "name": "",
          "type": "uint256"
        }
      ],
      "stateMutability": "view",
      "type": "function"
    },
    {
      "inputs": [],
      "name": "quorumDenominator",
      "outputs": [
        {
          "internalType": "uint256",
          "name": "",
          "type": "uint256"
        }
      ],
      "stateMutability": "view",
      "type": "function"
    },
    {
      "inputs": [
        {
          "internalType": "uint256",
          "name": "timepoint",
          "type": "uint256"
        }
      ],
      "name": "quorumNumerator",
      "outputs": [
        {
          "internalType": "uint256",
          "name": "",
          "type": "uint256"
        }
      ],
      "stateMutability": "view",
      "type": "function"
    },
    {
      "inputs": [],
      "name": "quorumNumerator",
      "outputs": [
        {
          "internalType": "uint256",
          "name": "",
          "type": "uint256"
        }
      ],
      "stateMutability": "view",
      "type": "function"
    },
    {
      "inputs": [
        {
          "internalType": "address",
          "name": "target",
          "type": "address"
        },
        {
          "internalType": "uint256",
          "name": "value",
          "type": "uint256"
        },
        {
          "internalType": "bytes",
          "name": "data",
          "type": "bytes"
        }
      ],
      "name": "relay",
      "outputs": [],
      "stateMutability": "payable",
      "type": "function"
    },
    {
      "inputs": [],
      "name": "rewardsEnabled",
      "outputs": [
        {
          "internalType": "bool",
          "name": "",
          "type": "bool"
        }
      ],
      "stateMutability": "view",
      "type": "function"
    },
    {
      "inputs": [
        {
          "internalType": "uint256",
          "name": "newVotingDelay",
          "type": "uint256"
        },
        {
          "internalType": "uint256",
          "name": "newVotingPeriod",
          "type": "uint256"
        },
        {
          "internalType": "uint256",
          "name": "newProposalThreshold",
          "type": "uint256"
        }
      ],
      "name": "setGovernanceParameters",
      "outputs": [],
      "stateMutability": "nonpayable",
      "type": "function"
    },
    {
      "inputs": [
        {
          "internalType": "uint256",
          "name": "newAmount",
          "type": "uint256"
        }
      ],
      "name": "setVoteRewardAmount",
      "outputs": [],
      "stateMutability": "nonpayable",
      "type": "function"
    },
    {
      "inputs": [
        {
          "internalType": "uint256",
          "name": "proposalId",
          "type": "uint256"
        }
      ],
      "name": "state",
      "outputs": [
        {
          "internalType": "enum IGovernor.ProposalState",
          "name": "",
          "type": "uint8"
        }
      ],
      "stateMutability": "view",
      "type": "function"
    },
    {
      "inputs": [
        {
          "internalType": "bytes4",
          "name": "interfaceId",
          "type": "bytes4"
        }
      ],
      "name": "supportsInterface",
      "outputs": [
        {
          "internalType": "bool",
          "name": "",
          "type": "bool"
        }
      ],
      "stateMutability": "view",
      "type": "function"
    },
    {
      "inputs": [],
      "name": "timelock",
      "outputs": [
        {
          "internalType": "address",
          "name": "",
          "type": "address"
        }
      ],
      "stateMutability": "view",
      "type": "function"
    },
    {
      "inputs": [
        {
          "internalType": "bool",
          "name": "enabled",
          "type": "bool"
        }
      ],
      "name": "toggleVoteRewards",
      "outputs": [],
      "stateMutability": "nonpayable",
      "type": "function"
    },
    {
      "inputs": [],
      "name": "token",
      "outputs": [
        {
          "internalType": "contract IERC5805",
          "name": "",
          "type": "address"
        }
      ],
      "stateMutability": "view",
      "type": "function"
    },
    {
      "inputs": [
        {
          "internalType": "uint256",
          "name": "newQuorumNumerator",
          "type": "uint256"
        }
      ],
      "name": "updateQuorumNumerator",
      "outputs": [],
      "stateMutability": "nonpayable",
      "type": "function"
    },
    {
      "inputs": [
        {
          "internalType": "contract TimelockController",
          "name": "newTimelock",
          "type": "address"
        }
      ],
      "name": "updateTimelock",
      "outputs": [],
      "stateMutability": "nonpayable",
      "type": "function"
    },
    {
      "inputs": [],
      "name": "version",
      "outputs": [
        {
          "internalType": "string",
          "name": "",
          "type": "string"
        }
      ],
      "stateMutability": "view",
      "type": "function"
    },
    {
      "inputs": [],
      "name": "voteRewardAmount",
      "outputs": [
        {
          "internalType": "uint256",
          "name": "",
          "type": "uint256"
        }
      ],
      "stateMutability": "view",
      "type": "function"
    },
    {
      "inputs": [],
      "name": "votingDelay",
      "outputs": [
        {
          "internalType": "uint256",
          "name": "",
          "type": "uint256"
        }
      ],
      "stateMutability": "view",
      "type": "function"
    },
    {
      "inputs": [],
      "name": "votingPeriod",
      "outputs": [
        {
          "internalType": "uint256",
          "name": "",
          "type": "uint256"
        }
      ],
      "stateMutability": "view",
      "type": "function"
    },
    {
      "stateMutability": "payable",
      "type": "receive"
    }
  ],
  "bytecode": "0x6101a0604052346100d45761001b610015610139565b916101ce565b604051615cf29081610b54823960805181615155015260a0518161520c015260c0518161511f015260e051816151a4015261010051816151ca015261012051816124620152610140518161248e0152610160518181816126f501528181612e1801528181612fbd015281816135f401528181613f450152818161417c01528181614b9c0152614d65015261018051818181611e3f015281816122670152818161241b015281816128f80152818161483a015261493a0152f35b600080fd5b634e487b7160e01b600052604160045260246000fd5b601f909101601f19168101906001600160401b0382119082101761011257604052565b6100d9565b604051906101266040836100ef565b565b6001600160a01b038116036100d457565b616866906060823803928360405194859261015482856100ef565b8339810103126100d45781519061016a82610128565b604060208401519361017b85610128565b01519161018783610128565b929190565b6040519061019b6040836100ef565b60018252565b604051906101b06040836100ef565b600f82526e4772617669476f7665726e616e636560881b6020830152565b906101e1916101db6101a1565b916102d8565b6101f267016345785d8a0000601055565b610204600160ff196011541617601155565b61023260405180610224602082019067106c13933c745c02602083019252565b0390601f19820181526100ef565b6102526040518061022460208201906718be5b54694d29ae602083019252565b61025c6000600b55565b61027c60405180610224602082019067114fb5401936e9d2602083019252565b61028761c4e0600c55565b6102a760405180610224602082019067be3b0fd96c3223f6602083019252565b6102b26103e8600d55565b6102d260405180610224602082019067ed14ad42f9f5d0b2602083019252565b61018052565b90610385610126936102e861018c565b60208101603160f81b81526102fc83610641565b610120526103098261073b565b6101405282516020840120918260e05251902080610100524660a0526040519060208201927f8b73c3c69bb8fe3d512ecc4cf759cc79239f7b179b0ffacaa9a75d522b39400f8452604083015260608201524660808201523060a082015260a0815261037660c0826100ef565b5190206080523060c05261042d565b6001600160a01b03166101605261039c600461056a565b610517565b90600182811c921680156103d1575b60208310146103bb57565b634e487b7160e01b600052602260045260246000fd5b91607f16916103b0565b601f82116103e857505050565b6000526020600020906020601f840160051c83019310610423575b601f0160051c01905b818110610417575050565b6000815560010161040c565b9091508190610403565b80519091906001600160401b038111610112576104568161044f6003546103a1565b60036103db565b602092601f8211600114610498576104889293829160009261048d575b50508160011b916000199060031b1c19161790565b600355565b015190503880610473565b6003600052601f198216937fc2575a0e9e593c00f959f8c92f12db2869c3395a3b0502d05e2516446f71f85b9160005b8681106104ff57508360019596106104e6575b505050811b01600355565b015160001960f88460031b161c191690553880806104db565b919260206001819286850151815501940192016104c8565b600954604080516001600160a01b03808416825290931660208401819052927f08f74ea46ef7894f65eabfb5e6e695de773a000b47c529ab559178069b2264019190a16001600160a01b03191617600955565b90606482116106275760085460009290806105c457509091506000805160206168468339815191529060005b6105b06105a1610833565b6105aa846108bc565b90610a15565b5050604080519182526020820192909252a1565b806000198101116106135760089093527ff3f7a9fe364faab93b216da50a3214154f22a0a2b415b23a84c8169e8b636ee29092015490916000805160206168468339815191529160301c610596565b634e487b7160e01b84526011600452602484fd5b5063243e544560e01b600052600452606460245260446000fd5b9081516020811060001461065d57509061065a90610912565b90565b6001600160401b038111610112576106818161067a6000546103a1565b60006103db565b602092601f82116001146106ba576106b29293829160009261048d5750508160011b916000199060031b1c19161790565b60005560ff90565b60008052601f198216937f290decd9548b62a8d60345a988386fc84ba6bc95484008f6362f93160ef3e5639160005b868110610723575083600195961061070a575b505050811b0160005560ff90565b015160001960f88460031b161c191690553880806106fc565b919260206001819286850151815501940192016106e9565b9081516020811060001461075457509061065a90610912565b6001600160401b03811161011257610778816107716001546103a1565b60016103db565b602092601f82116001146107b1576107a99293829160009261048d5750508160011b916000199060031b1c19161790565b60015560ff90565b6001600052601f198216937fb10e2d527612073b26eecdfd717e6a320cf44b4afac2b0732d9fcbe2b7fa0cf69160005b86811061081b5750836001959610610802575b505050811b0160015560ff90565b015160001960f88460031b161c191690553880806107f4565b919260206001819286850151815501940192016107e1565b610160516040516324776b7d60e21b815290602090829060049082906001600160a01b03165afa8091600091610874575b509061065a575061065a43610b22565b6020813d6020116108b4575b8161088d602093836100ef565b810103126108b057519065ffffffffffff821682036108ad575038610864565b80fd5b5080fd5b3d9150610880565b6001600160d01b0381116108d6576001600160d01b031690565b6306dfcc6560e41b60005260d060045260245260446000fd5b602081519101519060208110610903575090565b6000199060200360031b1b1690565b601f81511161092a57610924816108ef565b90511790565b6040519063305a27a960e01b8252602060048301528181519182602483015260005b83811061096e5750508160006044809484010152601f80199101168101030190fd5b6020828201810151604487840101528593500161094c565b60001981019190821161099557565b634e487b7160e01b600052601160045260246000fd5b9081546801000000000000000081101561011257600181018084558110156109ff5760009283526020928390208251929093015160301b65ffffffffffff191665ffffffffffff9290921691909117910155565b634e487b7160e01b600052603260045260246000fd5b6008549192918015610af857610a2d610a5791610986565b60086000527ff3f7a9fe364faab93b216da50a3214154f22a0a2b415b23a84c8169e8b636ee30190565b908154610a73610a6c8265ffffffffffff1690565b9160301c90565b9265ffffffffffff808416921691808311610ae757869203610ab157610aad92509065ffffffffffff82549181199060301b169116179055565b9190565b5050610aad90610ad0610ac2610117565b65ffffffffffff9092168252565b6001600160d01b03851660208201525b60086109ab565b632520601d60e01b60005260046000fd5b50610b1c90610b08610ac2610117565b6001600160d01b0384166020820152610ae0565b60009190565b65ffffffffffff8111610b3a5765ffffffffffff1690565b6306dfcc6560e41b600052603060045260245260446000fdfe60806040526004361015610023575b361561001957600080fd5b6100216141fc565b005b60003560e01c8063013cf08b1461045357806301ffc9a71461044e57806302a251a31461044957806306f3f9e61461044457806306fdde031461043f57806307a9f02d1461043a5780630b7dee0514610435578063143489d014610430578063150b7a021461042b578063160cbed7146104265780631a163fea146104215780631dafe16b1461041c57806321d82495146104175780632656227d146104125780632a28ddff1461040d5780632d63f693146104085780632fe3e261146104035780633932abb1146103fe5780633e4f49e6146103f957806343859632146103f4578063452115d6146103ef5780634bf5d7e9146103ea5780634deea251146103e5578063544ffc9c146103e057806354fd4d50146103db57806356781388146103d65780635b8d0e0d146103d15780635f398a14146103cc57806360c4247f146103c75780636644cc18146103c2578063699c8f33146103bd5780637b3c71d3146103b85780637d5e81e2146103b35780637ecebe00146103ae578063813cdfd2146103a957806384b0196e146103a45780638597e49d1461039f5780638ff262e31461039a57806391ddadf41461039557806397c3d334146103905780639a802a6d1461038b5780639ee01b2114610386578063a7713a7014610381578063a890c9101461037c578063a9a9529414610377578063ab58fb8e14610372578063b04869ae1461036d578063b58131b014610368578063bb6ce65d14610363578063bc197c811461035e578063c01f9e3714610359578063c08cc02d14610354578063c28bc2fa1461034f578063c59057e41461034a578063c8b727a114610345578063c97bfe6b14610340578063d33219b41461033b578063dd4e2ba514610336578063deaaa7cc14610331578063e32c6ac71461032c578063e8e13e0d14610327578063eb9019d414610322578063efa90d361461031d578063f23a6e6114610318578063f8ce560a14610313578063fc0c546a1461030e5763fee6b7800361000e57612fec565b612fa7565b612f89565b612f17565b612e95565b612dc0565b612da2565b612ca0565b612c65565b612c06565b612bdd565b612b8c565b612b2c565b612b10565b612aa4565b612a2b565b612a0d565b612960565b612942565b612927565b6128e2565b6128ad565b612836565b6127be565b612792565b612761565b612690565b612674565b612649565b612531565b612513565b61244a565b612051565b611f6e565b611ed1565b611ea8565b611dae565b611cb9565b611c9b565b611c1b565b611b85565b611b31565b611aee565b611aab565b611988565b611948565b611789565b611730565b611701565b6116b3565b611678565b611641565b6114e3565b61138b565b6112d8565b6112b5565b611297565b610fda565b610d8f565b610cbe565b610b93565b610a1b565b6107cc565b6106e6565b6106c3565b61064a565b6105ba565b90600182811c92168015610488575b602083101461047257565b634e487b7160e01b600052602260045260246000fd5b91607f1691610467565b634e487b7160e01b600052604160045260246000fd5b90601f801991011681019081106001600160401b038211176104c957604052565b610492565b90604051918260008254926104e284610458565b80845293600181169081156105505750600114610509575b50610507925003836104a8565b565b90506000929192526020600020906000915b81831061053457505090602061050792820101386104fa565b602091935080600191548385890101520191019091849261051b565b90506020925061050794915060ff191682840152151560051b820101386104fa565b60005b8381106105855750506000910152565b8181015183820152602001610575565b906020916105ae81518092818552858086019101610572565b601f01601f1916010190565b3461064557602036600319011261064557600435600052600e602052604060002080546105e9600183016104ce565b916105f6600282016104ce565b610636600760018060a01b0360068501541693015491610628604051968796875260a0602088015260a0870190610595565b908582036040870152610595565b91606084015260808301520390f35b600080fd5b346106455760203660031901126106455760043563ffffffff60e01b8116809103610645576332a2ad4360e11b81149081156106a7575b8115610696575b506040519015158152602090f35b6301ffc9a760e01b14905038610688565b630271189760e51b81149150610681565b600091031261064557565b346106455760003660031901126106455760206106de61315a565b604051908152f35b3461064557602036600319011261064557600435610702614217565b6064811161079f576001600160d01b0361071a614dfd565b1690610724613f30565b916001600160d01b038211610785577f0553476bf02ef2726e8ce5ced78d63e26e602e4a2257b1f559418e24b463399792610769906001600160d01b03841690615915565b505060408051918252602082019290925290819081015b0390a1005b506306dfcc6560e41b60005260d060045260245260446000fd5b63243e544560e01b600052600452606460245260446000fd5b9060206107c9928181520190610595565b90565b346106455760003660031901126106455760405160006003546107ee81610458565b80845290600181169081156108855750600114610826575b61082283610816818503826104a8565b604051918291826107b8565b0390f35b600360009081527fc2575a0e9e593c00f959f8c92f12db2869c3395a3b0502d05e2516446f71f85b939250905b80821061086b57509091508101602001610816610806565b919260018160209254838588010152019101909291610853565b60ff191660208086019190915291151560051b840190910191506108169050610806565b906020808351928381520192019060005b8181106108c75750505090565b82516001600160a01b03168452602093840193909201916001016108ba565b906020808351928381520192019060005b8181106109045750505090565b82518452602093840193909201916001016108f7565b9080602083519182815201916020808360051b8301019401926000915b83831061094657505050505090565b9091929394602080610964600193601f198682030187528951610595565b97019301930191939290610937565b602081528151602082015261010060e0610a006109ea6109d46109be6109a860208901518760408a0152610120890190610595565b6040890151888203601f190160608a0152610595565b6060880151878203601f190160808901526108a9565b6080870151868203601f190160a08801526108e6565b60a0860151858203601f190160c087015261091a565b60c08501516001600160a01b03168483015293015191015290565b3461064557602036600319011261064557610822610b7d610b78600435610a406131ba565b50610a6f60405180610a61602082019067f66eebd64cb65b94602083019252565b0390601f19820181526104a8565b610a8f60405180610a61602082019067b8e2d4e821c9097b602083019252565b610aaf60405180610a6160208201906735f1cbd4e7c9a814602083019252565b610acf60405180610a61602082019067949b70171eb1e35c602083019252565b610b0860018060a01b03610b006006610af285600052600e602052604060002090565b01546001600160a01b031690565b16151561320c565b610b2860405180610a6160208201906780658839630d4d45602083019252565b610b4860405180610a61602082019067d6ae71acaaf6a1d5602083019252565b610b6860405180610a61602082019067cfd95951f229e791602083019252565b600052600e602052604060002090565b613426565b60405191829182610973565b8015150361064557565b34610645576020366003190112610645577fc24c407140d48a81119794cbc2d8280ac684c191a8e2d2b15a75e545d7682ea4610780600435610bd481610b89565b610bf2604080516782134a0e9053305e6020820152602081526104a8565b610bfa614217565b610c1860408051678e8fa01949c82b526020820152602081526104a8565b610c366040805167d627dfd8ebc772906020820152602081526104a8565b610c5660405180610a616020820190671edc489445723e3a602083019252565b610c6c8160ff8019601154169115151617601155565b610c8c60405180610a61602082019067ae756b8320391bac602083019252565b610cac60405180610a6160208201906795e8211eeb07a2bc602083019252565b60405190151581529081906020820190565b34610645576020366003190112610645576004356000526004602052602060018060a01b0360406000205416604051908152f35b6001600160a01b0381160361064557565b60405190610507610100836104a8565b604051906105076040836104a8565b6001600160401b0381116104c957601f01601f191660200190565b929192610d4982610d22565b91610d5760405193846104a8565b829481845281830111610645578281602093846000960137010152565b9080601f83011215610645578160206107c993359101610d3d565b3461064557608036600319011261064557610dab600435610cf2565b610db6602435610cf2565b6064356001600160401b03811161064557610dd5903690600401610d74565b50610dde6142a1565b306001600160a01b0390911603610e0157604051630a85bd0160e11b8152602090f35b637485328f60e11b60005260046000fd5b6001600160401b0381116104c95760051b60200190565b9080601f83011215610645578135610e4081610e12565b92610e4e60405194856104a8565b81845260208085019260051b82010192831161064557602001905b828210610e765750505090565b602080918335610e8581610cf2565b815201910190610e69565b9080601f83011215610645578135610ea781610e12565b92610eb560405194856104a8565b81845260208085019260051b82010192831161064557602001905b828210610edd5750505090565b8135815260209182019101610ed0565b9080601f83011215610645578135610f0481610e12565b92610f1260405194856104a8565b81845260208085019260051b820101918383116106455760208201905b838210610f3e57505050505090565b81356001600160401b03811161064557602091610f6087848094880101610d74565b815201910190610f2f565b6080600319820112610645576004356001600160401b0381116106455781610f9591600401610e29565b916024356001600160401b0381116106455782610fb491600401610e90565b91604435906001600160401b03821161064557610fd391600401610eed565b9060643590565b3461064557610fe836610f6b565b9092610ff6828585846140c9565b9361100085614337565b5061101f604080516770169833fd1f7d4a6020820152602081526104a8565b61103d60408051674a37e74b585df4e16020820152602081526104a8565b61105b60408051672811592488f9dcb76020820152602081526104a8565b600954611078906001600160a01b03165b6001600160a01b031690565b936040519363793d064960e11b8552602085600481895afa94851561124257600095611276575b506110c56110b8305b60601b6001600160601b03191690565b6001600160601b03191690565b18946020604051809263b1c5f42760e01b825281806110ea8b89898c60048601614eda565b03915afa90811561124257600091611247575b5061111287600052600a602052604060002090565b55600954611128906001600160a01b031661106c565b90813b15610645576000809461115587604051998a97889687956308f2a0bb60e41b875260048701614f20565b03925af1908115611242576111799261117492611227575b5042614cc8565b614c89565b9065ffffffffffff821615611216577f9a2e42fd6722813d69113e7d0079d3d940171428df7373df9c7f7617cfda2892611203836111e46108229560016111ca876000526004602052604060002090565b019065ffffffffffff1665ffffffffffff19825416179055565b6040805185815265ffffffffffff909216602083015290918291820190565b0390a16040519081529081906020820190565b634844252360e11b60005260046000fd5b80611236600061123c936104a8565b806106b8565b3861116d565b613583565b611269915060203d60201161126f575b61126181836104a8565b810190614130565b386110fd565b503d611257565b61129091955060203d60201161126f5761126181836104a8565b933861109f565b34610645576000366003190112610645576020601054604051908152f35b3461064557600036600319011261064557602060ff601154166040519015158152f35b3461064557604036600319011261064557610822610cac61138460243561136d60043561130483610cf2565b6113226040805167eef4a5224fc3a7486020820152602081526104a8565b61133f604080516637df98cfba46db6020820152602081526104a8565b61135d60408051677f7e47aaba50f7666020820152602081526104a8565b6000526012602052604060002090565b9060018060a01b0316600052602052604060002090565b5460ff1690565b61139436610f6b565b916113a1838383876140c9565b9360206113af6030876143fd565b506113da6113c7876000526004602052604060002090565b805460ff60f01b1916600160f01b179055565b6113e26142a1565b306001600160a01b039091160361147a575b509184939161140693610822966144a5565b3061141261106c6142a1565b14158061145b575b611451575b6040518181527f712ae1383f79ac853f8d882153778e0260ef8f03b504e2866e0593e04d2b291f908060208101611203565b600060055561141f565b506005546001600160801b03811660809190911c141561141a565b1590565b9490919360005b83518110156114d557600190306114ab61106c61149e84896134a7565b516001600160a01b031690565b146114b7575b01611481565b6114d06114c482886134a7565b5189815191012061443d565b6114b1565b5090945092906108226113f4565b34610645576020366003190112610645577f81b52b8f26cf0aece083094c1845a6886e34a910351b87b07247e4f039233adc6004356115366040805167a5b051a42671b90e6020820152602081526104a8565b61153e614217565b61155c6040805167ddf3c9031e42d3796020820152602081526104a8565b61157c60405180610a61602082019067ea71919e1efeb9fd602083019252565b61159c60405180610a61602082019067f6601443562373c7602083019252565b6115bc60405180610a61602082019067a06c3be53efb4d34602083019252565b6010546115df60405180610a61602082019067afd899f209710cbd602083019252565b6115e882601055565b61160860405180610a61602082019067e68b5dcb5f162bd1602083019252565b61162860405180610a616020820190679b6a7664eefade96602083019252565b6040805191825260208201929092529081908101610780565b34610645576020366003190112610645576004356000526004602052602065ffffffffffff60406000205460a01c16604051908152f35b346106455760003660031901126106455760206040517f3e83946653575f9a39005e1545185629e92736b7528ab20ca3816f315424a8118152f35b346106455760003660031901126106455760206106de6134c0565b634e487b7160e01b600052602160045260246000fd5b600811156116ee57565b6116ce565b60088110156116ee57602452565b346106455760203660031901126106455761171d600435613520565b60405160088210156116ee576020918152f35b3461064557604036600319011261064557602060ff61177d60243560043561175782610cf2565b6000526007845260036040600020019060018060a01b0316600052602052604060002090565b54166040519015158152f35b346106455761179736610f6b565b916117a4838383876140c9565b6117ad81614379565b506000908152600460205260409020546001600160a01b031633036119335761182f936117ee6040805167d1e92e1770c90e576020820152602081526104a8565b61180c6040805167a519de64c1075a886020820152602081526104a8565b61182a6040805167e223d7dca870ed6b6020820152602081526104a8565b6140c9565b60409061183d603b826143fd565b5061186a611855826000526004602052604060002090565b80546001600160f81b0316600160f81b179055565b81518181527f789cf55be980739dad1d0699b93b58e806b51c9d96619bfa8fe0a28abaa7b30c90602090a16118a981600052600a602052604060002090565b5491826118bb575b5190815260209150f35b6009546118d0906001600160a01b031661106c565b803b1561064557815163c4d252f560e01b815260048101949094526000908490602490829084905af1928315611242576108229361191e575b506000828152600a60205260408120556118b1565b80611236600061192d936104a8565b38611909565b63233d98e360e01b6000523360045260246000fd5b34610645576000366003190112610645576108226119646135df565b604051918291602083526020830190610595565b6024359060ff8216820361064557565b3461064557604036600319011261064557610822600435611a5b611a136119ad611978565b6119cd60405180610a616020820190677619a7577c79934e602083019252565b6119ed60405180610a6160208201906760f4de3e2bf8db05602083019252565b611a0d60405180610a61602082019067e3017b1a723bed34602083019252565b836136bc565b91611a3460405180610a61602082019067ba1c58667b1bdb9f602083019252565b611a5460405180610a616020820190672e3622592565499a602083019252565b33906146af565b611a7b60405180610a6160208201906702b218a4a54580d5602083019252565b611a9b60405180610a61602082019067e80dc3ecaf28d0c5602083019252565b6040519081529081906020820190565b3461064557602036600319011261064557600435600052600760205260606040600020805490600260018201549101549060405192835260208301526040820152f35b34610645576000366003190112610645576108226040805190611b1181836104a8565b60018252603160f81b602083015251918291602083526020830190610595565b346106455760403660031901126106455760206106de600435611b52611978565b906136bc565b9181601f84011215610645578235916001600160401b038311610645576020838186019501011161064557565b346106455760c036600319011261064557600435611ba1611978565b9060443590611baf82610cf2565b6064356001600160401b03811161064557611bce903690600401611b58565b6084356001600160401b03811161064557611bed903690600401610d74565b9160a435946001600160401b0386116106455761082296611c15611a9b973690600401610d74565b956136da565b3461064557608036600319011261064557600435611c37611978565b906044356001600160401b03811161064557611c57903690600401611b58565b9190926064356001600160401b03811161064557611c9094611c80611c88923690600401610d74565b943691610d3d565b913390614b41565b604051908152602090f35b346106455760203660031901126106455760206106de600435613807565b3461064557606036600319011261064557610021600435611d89602435611d6460443593611cfb6040805167ea081dd65b3d6cca6020820152602081526104a8565b611d03614217565b611d2160408051679c33d0e9b9a88ba86020820152602081526104a8565b611d3f6040805167a2ac478a4e1d886c6020820152602081526104a8565b611d5f60405180610a616020820190677700360ca8f6cb3a602083019252565b600b55565b611d8460405180610a6160208201906795df3fb41960f00f602083019252565b600c55565b611da960405180610a61602082019067d402b3e6fdbe0908602083019252565b600d55565b3461064557600036600319011261064557611ddd6040805167a37788c8a346a2086020820152602081526104a8565b611dfb60408051672a9d3cbecd785d496020820152602081526104a8565b611e1b60405180610a616020820190670c8a0abeda9135d0602083019252565b60115460ff1660105460408051921515835260208301919091526001600160a01b037f00000000000000000000000000000000000000000000000000000000000000001690820152606090f35b6060600319820112610645576004359160243560ff811681036106455791604435906001600160401b03821161064557611ea491600401611b58565b9091565b346106455760206106de611ec9611ebe36611e68565b939192933691610d3d565b9133906149c9565b34610645576080366003190112610645576004356001600160401b03811161064557611f01903690600401610e29565b6024356001600160401b03811161064557611f20903690600401610e90565b906044356001600160401b03811161064557611f40903690600401610eed565b90606435916001600160401b0383116106455761082293611f68611a9b943690600401610d74565b92613d2c565b3461064557602036600319011261064557600435611f8b81610cf2565b60018060a01b031660005260026020526020604060002054604051908152f35b60a0600319820112610645576004356001600160401b0381116106455781611fd591600401610d74565b916024356001600160401b0381116106455782611ff491600401610d74565b916044356001600160401b038111610645578161201391600401610e29565b916064356001600160401b038111610645578261203291600401610e90565b91608435906001600160401b038211610645576107c991600401610eed565b346106455761212461206236611fab565b90612088604096949395965180610a61602082019067de238bfdca728a7a602083019252565b6120a860405180610a616020820190673e35cbf3f7e5cbaa602083019252565b6120b483838388614cd5565b946120d560405180610a616020820190677a68ec2192ad7684602083019252565b6120dd610d03565b8681526020810188905260408101949094526060840152608083015260a08201523360c08201525b4260e082015261211f83600052600e602052604060002090565b613bfa565b61214460405180610a616020820190677bed9b8d96546221602083019252565b61216460405180610a616020820190677858f8a9d5eb3826602083019252565b61216d81613ce1565b61218d60405180610a61602082019067681b300612630809602083019252565b6121ad60405180610a61602082019067eae34035cdefa430602083019252565b60115460ff1680612418575b156123dc576121de60405180610a61602082019067ba6c35cfbc6cfe50602083019252565b6121fe60405180610a61602082019067b937c5ce98ce1072602083019252565b612222612215826000526013602052604060002090565b805460ff19166001179055565b61224260405180610a616020820190670d4c7e7aa4906942602083019252565b61226260405180610a616020820190672d6b1f291d4fc778602083019252565b6010547f00000000000000000000000000000000000000000000000000000000000000006001600160a01b03169290833b156106455761233383926000806122d461082298600080516020615c9d833981519152966040519485809481936340c10f1960e01b83523360048401613eed565b03925af190816123c7575b50612346575b61230560405180610a616020820190675c6eedc4b5de5d09602083019252565b61232560405180610a616020820190671969ca05a4a5321d602083019252565b604051918291339083613f08565b0390a26040519081529081906020820190565b61236660405180610a61602082019067980d3d8c6d23801f602083019252565b61238660405180610a616020820190670936061891eb8292602083019252565b836010547ff0c3618251eb6eca46b4b886abbc04ca7b2678102f9601650c87485697ffb97f604051806123bf3394829190602083019252565b0390a36122e5565b8061123660006123d6936104a8565b386122df565b80600080516020615c9d8339815191526123336108229461241360405180610a61602082019067bd7d94f2db607bb2602083019252565b6122e5565b507f00000000000000000000000000000000000000000000000000000000000000006001600160a01b031615156121b9565b346106455760003660031901126106455760e06124867f0000000000000000000000000000000000000000000000000000000000000000615832565b6108226124b27f000000000000000000000000000000000000000000000000000000000000000061588f565b916124f2602093610628604051936124ca87866104a8565b60008552601f1987013688870137604051978897600f60f81b895288015260e0870190610595565b90466060850152306080850152600060a085015283820360c08501526108e6565b34610645576000366003190112610645576020600d54604051908152f35b346106455760803660031901126106455760043561254d611978565b906044359161255b83610cf2565b6064356001600160401b0381116106455761147661258061260f923690600401610d74565b6001600160a01b03861660009081526002602052604090208054600181019091556126099060405160208101917ff2aad550cf55f045cb27e9c559f9889fdfb6e6cdaa032301d6ea397784ae51d7835288604083015260ff8816606083015260018060a01b038a16608083015260a082015260a0815261260160c0826104a8565b5190206149e7565b86614a17565b61262a5790611a9b916108229361262461358f565b926149c9565b6394ab6c0760e01b6000526001600160a01b03831660045260245b6000fd5b34610645576000366003190112610645576020612664613f30565b65ffffffffffff60405191168152f35b3461064557600036600319011261064557602060405160648152f35b34610645576060366003190112610645576004356126ad81610cf2565b6044356024356001600160401b038211610645576126f1926126d56020933690600401610d74565b50604051630748d63560e31b8152938492839260048401613eed565b03817f00000000000000000000000000000000000000000000000000000000000000006001600160a01b03165afa80156112425761082291600091612742575b506040519081529081906020820190565b61275b915060203d60201161126f5761126181836104a8565b38612731565b34610645576020366003190112610645576004356000526013602052602060ff604060002054166040519015158152f35b346106455760003660031901126106455760206001600160d01b036127b5614dfd565b16604051908152f35b34610645576020366003190112610645576004356127db81610cf2565b6127e3614217565b600954604080516001600160a01b03808416825290931660208401819052927f08f74ea46ef7894f65eabfb5e6e695de773a000b47c529ab559178069b2264019190a16001600160a01b03191617600955005b346106455760203660031901126106455761286560408051678d2abff74b4298a86020820152602081526104a8565b61288360408051672c816becf1bdca4a6020820152602081526104a8565b6128a1604080516755d1f8d057d97f446020820152602081526104a8565b60405160018152602090f35b346106455760203660031901126106455760206106de600435600052600460205265ffffffffffff6001604060002001541690565b34610645576000366003190112610645576040517f00000000000000000000000000000000000000000000000000000000000000006001600160a01b03168152602090f35b346106455760003660031901126106455760206106de613fca565b34610645576000366003190112610645576020600b54604051908152f35b346106455760a03660031901126106455761297c600435610cf2565b612987602435610cf2565b6044356001600160401b038111610645576129a6903690600401610e90565b506064356001600160401b038111610645576129c6903690600401610e90565b506084356001600160401b038111610645576129e6903690600401610d74565b506108226129f261402a565b6040516001600160e01b031990911681529081906020820190565b346106455760203660031901126106455760206106de60043561404e565b3461064557600036600319011261064557612a5a60408051671a83b462a4bfed986020820152602081526104a8565b612a7860408051674589756978cc7bdc6020820152602081526104a8565b612a9660408051674fe6ab123c9048376020820152602081526104a8565b600f54604051908152602090f35b606036600319011261064557600435612abc81610cf2565b6024356044356001600160401b0381116106455761002192600092612ae684933690600401611b58565b9190612af0614217565b826040519384928337810185815203925af1612b0a614099565b90614e44565b346106455760206106de612b2336610f6b565b929190916140c9565b3461064557604036600319011261064557602060ff61177d602435600435612b5382610cf2565b6000526012845260406000209060018060a01b0316600052602052604060002090565b634e487b7160e01b600052603260045260246000fd5b3461064557602036600319011261064557600435600f5481101561064557600f6000527f8d1108e10bcb7c27dddfc02ed9d693a074039d026cf4ea4240b40f7d581ac8020154604051908152602090f35b34610645576000366003190112610645576009546040516001600160a01b039091168152602090f35b34610645576000366003190112610645576108226040805190612c2981836104a8565b602082527f737570706f72743d627261766f2671756f72756d3d666f722c6162737461696e602083015251918291602083526020830190610595565b346106455760003660031901126106455760206040517ff2aad550cf55f045cb27e9c559f9889fdfb6e6cdaa032301d6ea397784ae51d78152f35b3461064557610822612d21612d62612cb736611e68565b91612cdb60409694965180610a616020820190670f23b64778a96367602083019252565b612cfb60405180610a61602082019067148441c682a9a590602083019252565b612d1b60405180610a61602082019067c3f71a463fd379d7602083019252565b85613932565b91612d4260405180610a6160208201906776a5fad791ecf6dc602083019252565b611a5460405180610a6160208201906776e2c7deb2ceb7b1602083019252565b612d8260405180610a616020820190674028e7517aecc340602083019252565b611a9b60405180610a616020820190673000d98736b5c956602083019252565b34610645576000366003190112610645576020600c54604051908152f35b3461064557604036600319011261064557600435612ddd81610cf2565b612e146024359160209283916000604051612df885826104a8565b52604051630748d63560e31b8152938492839260048401613eed565b03817f00000000000000000000000000000000000000000000000000000000000000006001600160a01b03165afa9081156112425761082292600092612e67575b50506040519081529081906020820190565b612e7d9250803d1061126f5761126181836104a8565b3880612e55565b9060206107c99281815201906108e6565b3461064557600036600319011261064557612ec460408051677604b38c762c6f5f6020820152602081526104a8565b612ee26040805167969880195a3213ea6020820152602081526104a8565b612f006040805167471c2716fddc4bb96020820152602081526104a8565b610822612f0b6132a6565b60405191829182612e84565b346106455760a036600319011261064557612f33600435610cf2565b612f3e602435610cf2565b6084356001600160401b03811161064557612f5d903690600401610d74565b50612f666142a1565b306001600160a01b0390911603610e015760405163f23a6e6160e01b8152602090f35b346106455760203660031901126106455760206106de60043561415f565b34610645576000366003190112610645576040517f00000000000000000000000000000000000000000000000000000000000000006001600160a01b03168152602090f35b34610645576108226123336130d2600080516020615c9d83398151915261301236611fab565b61303a604098959492989793975180610a6160208201906769922c56376fda3d602083019252565b61305a60405180610a6160208201906723836d2025142fd1602083019252565b61306682828a8a614cd5565b97889761308960405180610a6160208201906744ef9b7a52ae4971602083019252565b613091610d03565b8981526020810187905260408101949094526060840152608083015260a08201523360c08201524260e082015261211f86600052600e602052604060002090565b6130f260405180610a6160208201906748ed08d64dd904df602083019252565b61311260405180610a61602082019067e32df1a29536d596602083019252565b61311b84613ce1565b61313b60405180610a6160208201906795906cf4248b1642602083019252565b61232560405180610a6160208201906699c88322eec28f602083019252565b6131786040805167b5f8ab8d5e8782756020820152602081526104a8565b613196604080516755da416f402ed35f6020820152602081526104a8565b6131b46040805167e9e0fd245c7dc1686020820152602081526104a8565b600c5490565b6040519061010082018281106001600160401b038211176104c957604052600060e083828152606060208201526060604082015260608082015260606080820152606060a08201528260c08201520152565b1561321357565b60405162461bcd60e51b8152602060048201526017602482015276141c9bdc1bdcd85b08191bd95cc81b9bdd08195e1a5cdd604a1b6044820152606490fd5b906040519182815491828252602082019060005260206000209260005b818110613284575050610507925003836104a8565b84546001600160a01b031683526001948501948794506020909301920161326f565b60405190600f548083528260208101600f60005260206000209260005b8181106132d8575050610507925003836104a8565b84548352600194850194879450602090930192016132c3565b906040519182815491828252602082019060005260206000209260005b818110613323575050610507925003836104a8565b845483526001948501948794506020909301920161330e565b6000929181549161334c83610458565b80835292600181169081156133a2575060011461336857505050565b60009081526020812093945091925b838310613388575060209250010190565b600181602092949394548385870101520191019190613377565b915050602093945060ff929192191683830152151560051b010190565b9081546133cb81610e12565b926133d960405194856104a8565b818452602084019060005260206000206000915b8383106133fa5750505050565b60016020819260405161341881613411818961333c565b03826104a8565b8152019201920191906133ed565b906007613431610d03565b9280548452613442600182016104ce565b6020850152613453600282016104ce565b604085015261346460038201613252565b6060850152613475600482016132f1565b6080850152613486600582016133bf565b60a085015260068101546001600160a01b031660c0850152015460e0830152565b80518210156134bb5760209160051b010190565b612b76565b6134de6040805167552ccf87a72dce1c6020820152602081526104a8565b6134fc6040805167f67461b39fb942ed6020820152602081526104a8565b61351a6040805167a73c3ebc8c0de23a6020820152602081526104a8565b600b5490565b6107c9906135426040805167c4244ea09eb10d8d6020820152602081526104a8565b61356060408051677c72d66e797894906020820152602081526104a8565b61357e60408051674e7ce87014a0ec166020820152602081526104a8565b61459e565b6040513d6000823e3d90fd5b6040519061359e6020836104a8565b60008252565b604051906135b36040836104a8565b601d82527f6d6f64653d626c6f636b6e756d6265722666726f6d3d64656661756c740000006020830152565b604051634bf5d7e960e01b81526000816004817f00000000000000000000000000000000000000000000000000000000000000006001600160a01b03165afa60009181613635575b506107c957506107c96135a4565b90913d8082843e61364681846104a8565b8201916020818403126136b4578051906001600160401b0382116136b8570182601f820112156136b45780519161367c83610d22565b9361368a60405195866104a8565b838552602084840101116136b15750906136aa9160208085019101610572565b9038613627565b80fd5b5080fd5b8280fd5b6107c991604051916136cf6020846104a8565b6000835233906149c9565b939092919695611476613797916137918a6137108160018060a01b03166000526002602052604060002080549060018201905590565b61371b36888a610d3d565b602081519101208b5160208d0120906040519260208401947f3e83946653575f9a39005e1545185629e92736b7528ab20ca3816f315424a81186528d604086015260ff8d16606086015260018060a01b0316608085015260a084015260c083015260e082015260e08152612601610100826104a8565b8a614a17565b6137b2576107c99596916137ac913691610d3d565b92614b41565b6394ab6c0760e01b6000526001600160a01b03871660045260246000fd5b634e487b7160e01b600052601160045260246000fd5b6000198101919082116137f557565b6137d0565b919082039182116137f557565b6008549060001982018281116137f5578211156134bb5760086000527ff3f7a9fe364faab93b216da50a3214154f22a0a2b415b23a84c8169e8b636ee282015465ffffffffffff8116821015613929575061386190614c89565b60008291600584116138d2575b613878935061549f565b806138835750600090565b6138c66138bf6138956107c9936137e6565b60086000527ff3f7a9fe364faab93b216da50a3214154f22a0a2b415b23a84c8169e8b636ee30190565b5460301c90565b6001600160d01b031690565b91926138dd81615341565b81039081116137f55761387893600860005265ffffffffffff82602060002001541665ffffffffffff85161060001461391757509161386e565b92915061392390614cba565b9061386e565b91505060301c90565b91611ec9906107c9943691610d3d565b81811061394d575050565b60008155600101613942565b9190601f811161396857505050565b610507926000526020600020906020601f840160051c83019310613994575b601f0160051c0190613942565b9091508190613987565b91909182516001600160401b0381116104c9576139c5816139bf8454610458565b84613959565b6020601f8211600114613a065781906139f79394956000926139fb575b50508160011b916000199060031b1c19161790565b9055565b0151905038806139e2565b601f19821690613a1b84600052602060002090565b9160005b818110613a5757509583600195969710613a3e575b505050811b019055565b015160001960f88460031b161c19169055388080613a34565b9192602060018192868b015181550194019201613a1f565b908160011b91808304600214901517156137f557565b908160041b91808304601014901517156137f557565b91818110613aa857505050565b6105079260005260206000209182019101613942565b8151916001600160401b0383116104c957600160401b83116104c957602090613aec84845481865585613a9b565b0190600052602060002060005b838110613b065750505050565b600190602084519401938184015501613af9565b815191600160401b83116104c9578154838355808410613b77575b506020613b49910191600052602060002090565b6000915b838310613b5a5750505050565b6001602082613b6b8394518661399e565b01920192019190613b4d565b8260005283602060002091820191015b818110613b945750613b35565b80613ba160019254610458565b80613bae575b5001613b87565b601f81118314613bc45750600081555b38613ba7565b613be89083601f613bda85600052602060002090565b920160051c82019101613942565b60008181526020812081835555613bbe565b9080518255613c1060208201516001840161399e565b613c2160408201516002840161399e565b6060810151600383018151916001600160401b0383116104c957600160401b83116104c957602090613c5884845481865585613a9b565b0190600052602060002060005b838110613cc4575050505060e081613c866080600794015160048601613abe565b613c9760a082015160058601613b1a565b60c08101516006850180546001600160a01b0319166001600160a01b039092169190911790550151910155565b82516001600160a01b031681830155602090920191600101613c65565b600f54600160401b8110156104c95760018101600f556000600f548210156134bb57600f90527f8d1108e10bcb7c27dddfc02ed9d693a074039d026cf4ea4240b40f7d581ac8020155565b929091613df892613d5360405180610a616020820190673192c93d1a85ab55602083019252565b613d7360405180610a616020820190672327b6f30c8a25a8602083019252565b613d9360405180610a616020820190678e483974be675c5a602083019252565b613d9f83838388614cd5565b94613dc060405180610a6160208201906709a54abf5cf00878602083019252565b613dc8610d03565b93868552613dd461358f565b602086015260408501526060840152608083015260a08201523360c0820152612105565b613e1860405180610a616020820190673577a3d7f9fe50ce602083019252565b613e3860405180610a61602082019067faaab27b3ce37a59602083019252565b613e4181613ce1565b613e6160405180610a6160208201906742472b1fed4217cf602083019252565b613e8160405180610a6160208201906750c2f42a3f29d858602083019252565b604080518181526000918101919091523360208201528190600080516020615c9d83398151915290606090a2613ecd60405180610a61602082019067cac16f7ce87bbaa7602083019252565b6107c960405180610a61602082019067796f0854cf420366602083019252565b6001600160a01b039091168152602081019190915260400190565b90613f20602091949394604084526040840190610595565b6001600160a01b03909416910152565b6040516324776b7d60e21b81526020816004817f00000000000000000000000000000000000000000000000000000000000000006001600160a01b03165afa8091600091613f89575b50906107c957506107c943614c89565b6020813d602011613fc2575b81613fa2602093836104a8565b810103126136b457519065ffffffffffff821682036136b1575038613f79565b3d9150613f95565b613fe86040805167adc175677e9315a56020820152602081526104a8565b61400660408051673a55096484766aeb6020820152602081526104a8565b61402460408051677df519825b890cfa6020820152602081526104a8565b600d5490565b6140326142a1565b306001600160a01b0390911603610e015763bc197c8160e01b90565b80600052600460205265ffffffffffff60406000205460a01c1690600052600460205263ffffffff60406000205460d01c160165ffffffffffff81116137f55765ffffffffffff1690565b3d156140c4573d906140aa82610d22565b916140b860405193846104a8565b82523d6000602084013e565b606090565b929061412a91614116614104946040519586946140f2602087019960808b5260a08801906108a9565b868103601f19016040880152906108e6565b848103601f190160608601529061091a565b90608083015203601f1981018352826104a8565b51902090565b90816020910312610645575190565b8115614149570490565b634e487b7160e01b600052601260045260246000fd5b604051632394e7a360e21b815260048101829052906020826024817f00000000000000000000000000000000000000000000000000000000000000006001600160a01b03165afa918215611242576000926141d7575b506141bf90613807565b908181029181830414901517156137f5576064900490565b6141bf9192506141f59060203d60201161126f5761126181836104a8565b91906141b5565b6142046142a1565b306001600160a01b0390911603610e0157565b61421f6142a1565b336001600160a01b039091160361428c576142386142a1565b306001600160a01b039091160361424b57565b61425436610d22565b61426160405191826104a8565b368152602081019036600083376000602036830101525190205b80614284614e6c565b0361427b5750565b6347096e4760e01b6000523360045260246000fd5b6142bf6040805167bb8267469a7d0ae66020820152602081526104a8565b6142dd60408051670f2c1b0f75d624996020820152602081526104a8565b6142fb6040805167a17b2dc64e1161516020820152602081526104a8565b6009546001600160a01b031690565b60088110156116ee5760ff600191161b90565b6004526064919060088110156116ee576024526000604452565b61434081613520565b90601061434c8361430a565b1615614356575090565b6331b75e4d60e01b60005260045261436e91506116f3565b601060445260646000fd5b61438281613520565b90600161438e8361430a565b1615614398575090565b6331b75e4d60e01b6000526004526143b091506116f3565b600160445260646000fd5b6143c481613520565b9060026143d08361430a565b16156143da575090565b6331b75e4d60e01b6000526004526143f291506116f3565b600260445260646000fd5b9061440782613520565b91816144128461430a565b161561441d57505090565b6331b75e4d60e01b600052600452614434826116f3565b60445260646000fd5b6005546001608082901c9081016001600160801b03908116939216831461449257600090815260066020526040902055600580546001600160801b031660809290921b6001600160801b031916919091179055565b634e487b7160005260416020526024601cfd5b929091936144c76040805167dcb75b2bfd5781046020820152602081526104a8565b6144e56040805167a92d8b3722957ab16020820152602081526104a8565b614503604080516761612265aa1ad6f36020820152602081526104a8565b6009546001600160a01b03169061451c6110b8306110a8565b1894813b15610645576000936145486040519788958694859463e38335e560e01b865260048601614eda565b039134905af19081156112425760009261457292614575575b50600052600a602052604060002090565b55565b8061123685614583936104a8565b38614561565b9081602091031261064557516107c981610b89565b6145a781614f6e565b906145b1826116e4565b600582036146ab576145ce9150600052600a602052604060002090565b546009546145e4906001600160a01b031661106c565b604051632c258a9f60e11b815260048101839052602081602481855afa9081156112425760009161468c575b501561461d575050600590565b604051632ab0f52960e01b81526004810192909252602090829060249082905afa9081156112425760009161465d575b501561465857600790565b600290565b61467f915060203d602011614685575b61467781836104a8565b810190614589565b3861464d565b503d61466d565b6146a5915060203d6020116146855761467781836104a8565b38614610565b5090565b906146d060405180610a616020820190670feea3a5bb41399c602083019252565b6146f060405180610a616020820190677b2e69276e190e0f602083019252565b61471060405180610a616020820190675c8354698c39b489602083019252565b61471f61147660115460ff1690565b806149bb575b8015614977575b8015614937575b1561479a57505061475a60405180610a61602082019067f1522ec4ba606778602083019252565b61477a60405180610a61602082019067d82f8d8ad87025f9602083019252565b61050760405180610a616020820190675508e5f6c443414e602083019252565b6147ba60405180610a61602082019067afddec71461489b7602083019252565b6147da60405180610a616020820190674b46dfaac609958d602083019252565b6147f56122158261136d856000526012602052604060002090565b61481560405180610a6160208201906736cd68e38b21da35602083019252565b61483560405180610a616020820190673317571526a93443602083019252565b6010547f00000000000000000000000000000000000000000000000000000000000000006001600160a01b0316803b15610645576040516340c10f1960e01b8152916000918391829084908290614890908960048401613eed565b03925af19081614922575b506148a4575050565b6148c460405180610a61602082019067ab509498467861a4602083019252565b6148e460405180610a6160208201906768a9394c12cc1e22602083019252565b6010546040519081526001600160a01b0391909116907f229ce2adf50346057d2b3f58f69972516a126293c0b9b1c4616a55d397eec4d290602090a3565b806112366000614931936104a8565b3861489b565b507f00000000000000000000000000000000000000000000000000000000000000006001600160a01b031615801561473357506149726150fb565b614733565b506149936113848261136d856000526012602052604060002090565b806149ad575b801561472c57506149a86150da565b61472c565b506149b66150b9565b614999565b506149c4615093565b614725565b916107c99391604051936149de6020866104a8565b60008552614b41565b6042906149f261511c565b906040519161190160f01b8352600283015260228201522090565b600411156116ee57565b9190823b614a525790614a2991615232565b50614a3381614a0d565b159182614a3f57505090565b6001600160a01b03918216911614919050565b91600092614a89614a9785946040519283916020830195630b135d3f60e11b87526024840152604060448401526064830190610595565b03601f1981018352826104a8565b51915afa614aa3614099565b81614ad3575b81614ab2575090565b9050614acf630b135d3f60e11b9160208082518301019101614130565b1490565b905060208151101590614aa9565b93909260ff614b0d936107c997958752166020860152604085015260a0606085015260a0840190610595565b916080818403910152610595565b909260ff6080936107c99695845216602083015260408201528160608201520190610595565b929190614b4d846143bb565b50836000526004602052614b98602065ffffffffffff614b7b604060002065ffffffffffff905460a01c1690565b604051630748d63560e31b81529384928392168660048401613eed565b03817f00000000000000000000000000000000000000000000000000000000000000006001600160a01b03165afa801561124257614be191600091614c6a575b5083838761526e565b94805115600014614c2e5750614c287fb8e138887d0aa13bab447e82de9d5c1777041ecd21ca36ba824ff1e6c07ddda4938660405194859460018060a01b03169785614b1b565b0390a290565b614c28907fe2babfbac5889a709b63bb7f598b324e08bc5a4fb9ec647fb3cbc9ec07eb8712948760405195869560018060a01b03169886614ae1565b614c83915060203d60201161126f5761126181836104a8565b38614bd8565b65ffffffffffff8111614ca15765ffffffffffff1690565b6306dfcc6560e41b600052603060045260245260446000fd5b90600182018092116137f557565b919082018092116137f557565b9193929093614ce48233615519565b15614de857614cf1613fca565b9485614d05575b6107c99495503393615685565b60001965ffffffffffff614d17613f30565b160165ffffffffffff81116137f55765ffffffffffff1695614d61602060009889604051614d4584826104a8565b5260405180938192630748d63560e31b83523360048401613eed565b03817f00000000000000000000000000000000000000000000000000000000000000006001600160a01b03165afa9788156112425797614dc7575b50808710614daa5750614cf8565b636121770b60e11b60005233600452602487905260445260646000fd5b614de191975060203d60201161126f5761126181836104a8565b9538614d9c565b63d9b3955760e01b6000523360045260246000fd5b60085480614e0b5750600090565b806000198101116137f55760086000527ff3f7a9fe364faab93b216da50a3214154f22a0a2b415b23a84c8169e8b636ee2015460301c90565b9091906105075750805115614e5b57805190602001fd5b63d6bda27560e01b60005260046000fd5b6005546001600160801b038116919060801c8214614ec757600082815260066020526040808220546001600160801b03808616845291832092909255600580546001600160801b031916600190950190911693909317909255565b634e487b7160005260316020526024601cfd5b949392614f06608093614ef8614f149460a08a5260a08a01906108a9565b9088820360208a01526108e6565b90868203604088015261091a565b93600060608201520152565b9192614f4f60a094614f41614f5d949998979960c0875260c08701906108a9565b9085820360208701526108e6565b90838203604085015261091a565b946000606083015260808201520152565b614f82816000526004602052604060002090565b5460f881901c9060f01c60ff1661508c5761508657614fcb614fc0614fb1836000526004602052604060002090565b5460a01c65ffffffffffff1690565b65ffffffffffff1690565b801561507057614fdc614fc0613f30565b8091101561506957614fed8261404e565b10614ff85750600190565b615004611476826159f8565b8015615044575b156150165750600390565b61503690600052600460205265ffffffffffff6001604060002001541690565b61503f57600490565b600590565b506150646114768260005260076020526040600020600181015490541090565b61500b565b5050600090565b636ad0607560e01b600052600482905260246000fd5b50600290565b5050600790565b6150b460408051673f78c93ba549d96960c21b6020820152602081526104a8565b600190565b6150b460408051674a032023cf45f9b560c01b6020820152602081526104a8565b6150b46040805167fa26923c3e5e89b360c01b6020820152602081526104a8565b6150b4604080516702bb0549457be8b760c41b6020820152602081526104a8565b307f00000000000000000000000000000000000000000000000000000000000000006001600160a01b03161480615209575b15615177577f000000000000000000000000000000000000000000000000000000000000000090565b60405160208101907f8b73c3c69bb8fe3d512ecc4cf759cc79239f7b179b0ffacaa9a75d522b39400f82527f000000000000000000000000000000000000000000000000000000000000000060408201527f000000000000000000000000000000000000000000000000000000000000000060608201524660808201523060a082015260a0815261412a60c0826104a8565b507f0000000000000000000000000000000000000000000000000000000000000000461461514e565b81519190604183036152635761525c92506020820151906060604084015193015160001a90615a40565b9192909190565b505060009160029190565b615285909291926000526007602052604060002090565b91600383016152a961138483839060018060a01b0316600052602052604060002090565b6153235761221560ff93926152cf929060018060a01b0316600052602052604060002090565b16806152e657506152e1828254614cc8565b905590565b600181036152fd57506001016152e1828254614cc8565b600203615312576002016152e1828254614cc8565b6303599be160e11b60005260046000fd5b6371c6af4960e01b6000526001600160a01b03821660045260246000fd5b60018111156107c957806001600160801b821015615462575b6154086153fe6153f46153ea6153e06153d66153c561540f9760046154149a600160401b811015615455575b640100000000811015615448575b6201000081101561543b575b61010081101561542e575b6010811015615421575b1015615419575b60030260011c90565b6153cf818b61413f565b0160011c90565b6153cf818a61413f565b6153cf818961413f565b6153cf818861413f565b6153cf818761413f565b6153cf818661413f565b809361413f565b821190565b900390565b60011b6153bc565b60041c9160021b916153b5565b60081c9160041b916153ab565b60101c9160081b916153a0565b60201c9160101b91615394565b60401c9160201b91615386565b505061541461540f6154086153fe6153f46153ea6153e06153d66153c56154898a60801c90565b9850600160401b975061535a9650505050505050565b905b8281106154ad57505090565b90918082169080831860011c82018092116137f55760086000527ff3f7a9fe364faab93b216da50a3214154f22a0a2b415b23a84c8169e8b636ee382015465ffffffffffff90811690851610156155075750915b906154a1565b92915061551390614cba565b90615501565b908051603481106155665760131981830101516001600160b01b03191669dc8f8d908f908c9a8dc360b01b016155665761555891602919820190615abf565b9015918215614a3f57505090565b505050600190565b9061557882610e12565b61558560405191826104a8565b8281528092615596601f1991610e12565b019060005b8281106155a757505050565b80606060208093850101520161559b565b9599989697949391926155f9936155eb92885260018060a01b0316602088015261012060408801526101208701906108a9565b9085820360608701526108e6565b968388036080850152815180895260208901906020808260051b8c01019401916000905b82821061565957505050506107c9969750906156409184820360a086015261091a565b9360c083015260e0820152610100818403910152610595565b909192946020806156776001938f601f199082030186528951610595565b97019201920190929161561d565b92909493919461569d825160208401208783876140c9565b958451825190818114801590615827575b801561581f575b6157ff57505065ffffffffffff6156d9614fb1896000526004602052604060002090565b166157e157916157dc917f7d84a6263ae0d98d3329bd7b46bb4e8d6f98cd35a7adb45c274c8b7fd5ebd5e0959493615728615712613f30565b65ffffffffffff6157216134c0565b9116614cc8565b9061573161315a565b6157ba6157488c6000526004602052604060002090565b80546001600160a01b0319166001600160a01b038a1617815561579161576d86614c89565b825465ffffffffffff60a01b191660a09190911b65ffffffffffff60a01b16178255565b61579a83615b51565b815463ffffffff60d01b191660d09190911b63ffffffff60d01b16179055565b6157ce6157c7895161556e565b9184614cc8565b936040519889988d8a6155b8565b0390a1565b612645876157ee81613520565b6331b75e4d60e01b6000529061431d565b9151630447b05d60e41b6000908152600493909352602452604452606490fd5b5080156156b5565b5082518114156156ae565b60ff811461587c5760ff811690601f821161586b57604080519261585682856104a8565b6020808552840191601f190136833783525290565b632cd44ac360e21b60005260046000fd5b506040516107c98161341181600061333c565b60ff81146158b35760ff811690601f821161586b57604080519261585682856104a8565b506040516107c98161341181600161333c565b805490600160401b8210156104c957600182018155600081548310156134bb579081526020908190208351939091015160301b65ffffffffffff191665ffffffffffff90931692909217910155565b60085491929180156159ce5761389561592d916137e6565b9081546159496159428265ffffffffffff1690565b9160301c90565b9265ffffffffffff8084169216918083116159bd578692036159875761598392509065ffffffffffff82549181199060301b169116179055565b9190565b5050615983906159a6615998610d13565b65ffffffffffff9092168252565b6001600160d01b03851660208201525b60086158c6565b632520601d60e01b60005260046000fd5b506159f2906159de615998610d13565b6001600160d01b03841660208201526159b6565b60009190565b8060005260076020526040600020906000526004602052615a2865ffffffffffff60406000205460a01c1661415f565b6002600183015492015482018092116137f557111590565b91906fa2a8918ca85bafe22016d0b997e4df60600160ff1b038411615ab3579160209360809260ff60009560405194855216868401526040830152606082015282805260015afa15611242576000516001600160a01b03811615615aa75790600090600090565b50600090600190600090565b50505060009160039190565b9190825182118015615b48575b615b1f57615ad981614cba565b821180615b2a575b615aec901515613a6f565b602801806028116137f557615b0182846137fa565b03615b1f57615b0f92615b7e565b90916001600160a01b0390911690565b505050600090600090565b50602081840101516001600160f01b03191661060f60f31b14615ae1565b50818111615acc565b63ffffffff8111615b655763ffffffff1690565b6306dfcc6560e41b600052602060045260245260446000fd5b929092615b8a84614cba565b831180615c0c575b615ba4615bac91949293941515613a6f565b600095614cc8565b915b818310615bbe5750505060019190565b9092919360ff615bdf615bda6020888601015160ff60f81b1690565b615c2a565b1690600f8211615c005790615bf5600192613a85565b019401919290615bae565b50600094508493505050565b50602084820101516001600160f01b03191661060f60f31b14615b92565b60f81c602f811180615c92575b15615c4657602f190160ff1690565b6060811180615c88575b15615c5f576056190160ff1690565b6040811180615c7e575b15615c78576036190160ff1690565b5060ff90565b5060478110615c69565b5060678110615c50565b50603a8110615c3756fe8cfb460f974cd36d8e9ee4ed5681cac9f682065a80e06fc949fddfb2ab71a929a2646970667358221220b9d776eaed67fe3d5db7c7aa4c405198e3fc39ef0709c8f2b03a8fa5a8d6e23764736f6c634300081c00330553476bf02ef2726e8ce5ced78d63e26e602e4a2257b1f559418e24b4633997",
  "linkReferences": {},
  "deployedLinkReferences": {}
}