{
  "_format": "hh-sol-artifact-1",
  "contractName": "GraviGovernance",
  "sourceName": "contracts/GraviGovernance.sol",
  "abi": [
    {
      "inputs": [
        {
          "internalType": "contract IVotes",
          "name": "token",
          "type": "address"
        },
        {
          "internalType": "contract TimelockController",
          "name": "timelock",
          "type": "address"
        },
        {
          "internalType": "contract IGraviCha",
          "name": "_graviCha",
          "type": "address"
        }
      ],
      "stateMutability": "nonpayable",
      "type": "constructor"
    },
    {
      "inputs": [],
      "name": "CheckpointUnorderedInsertion",
      "type": "error"
    },
    {
      "inputs": [],
      "name": "FailedCall",
      "type": "error"
    },
    {
      "inputs": [
        {
          "internalType": "address",
          "name": "voter",
          "type": "address"
        }
      ],
      "name": "GovernorAlreadyCastVote",
      "type": "error"
    },
    {
      "inputs": [
        {
          "internalType": "uint256",
          "name": "proposalId",
          "type": "uint256"
        }
      ],
      "name": "GovernorAlreadyQueuedProposal",
      "type": "error"
    },
    {
      "inputs": [],
      "name": "GovernorDisabledDeposit",
      "type": "error"
    },
    {
      "inputs": [
        {
          "internalType": "address",
          "name": "proposer",
          "type": "address"
        },
        {
          "internalType": "uint256",
          "name": "votes",
          "type": "uint256"
        },
        {
          "internalType": "uint256",
          "name": "threshold",
          "type": "uint256"
        }
      ],
      "name": "GovernorInsufficientProposerVotes",
      "type": "error"
    },
    {
      "inputs": [
        {
          "internalType": "uint256",
          "name": "targets",
          "type": "uint256"
        },
        {
          "internalType": "uint256",
          "name": "calldatas",
          "type": "uint256"
        },
        {
          "internalType": "uint256",
          "name": "values",
          "type": "uint256"
        }
      ],
      "name": "GovernorInvalidProposalLength",
      "type": "error"
    },
    {
      "inputs": [
        {
          "internalType": "uint256",
          "name": "quorumNumerator",
          "type": "uint256"
        },
        {
          "internalType": "uint256",
          "name": "quorumDenominator",
          "type": "uint256"
        }
      ],
      "name": "GovernorInvalidQuorumFraction",
      "type": "error"
    },
    {
      "inputs": [
        {
          "internalType": "address",
          "name": "voter",
          "type": "address"
        }
      ],
      "name": "GovernorInvalidSignature",
      "type": "error"
    },
    {
      "inputs": [],
      "name": "GovernorInvalidVoteParams",
      "type": "error"
    },
    {
      "inputs": [],
      "name": "GovernorInvalidVoteType",
      "type": "error"
    },
    {
      "inputs": [
        {
          "internalType": "uint256",
          "name": "votingPeriod",
          "type": "uint256"
        }
      ],
      "name": "GovernorInvalidVotingPeriod",
      "type": "error"
    },
    {
      "inputs": [
        {
          "internalType": "uint256",
          "name": "proposalId",
          "type": "uint256"
        }
      ],
      "name": "GovernorNonexistentProposal",
      "type": "error"
    },
    {
      "inputs": [
        {
          "internalType": "uint256",
          "name": "proposalId",
          "type": "uint256"
        }
      ],
      "name": "GovernorNotQueuedProposal",
      "type": "error"
    },
    {
      "inputs": [
        {
          "internalType": "address",
          "name": "account",
          "type": "address"
        }
      ],
      "name": "GovernorOnlyExecutor",
      "type": "error"
    },
    {
      "inputs": [
        {
          "internalType": "address",
          "name": "account",
          "type": "address"
        }
      ],
      "name": "GovernorOnlyProposer",
      "type": "error"
    },
    {
      "inputs": [],
      "name": "GovernorQueueNotImplemented",
      "type": "error"
    },
    {
      "inputs": [
        {
          "internalType": "address",
          "name": "proposer",
          "type": "address"
        }
      ],
      "name": "GovernorRestrictedProposer",
      "type": "error"
    },
    {
      "inputs": [
        {
          "internalType": "uint256",
          "name": "proposalId",
          "type": "uint256"
        },
        {
          "internalType": "enum IGovernor.ProposalState",
          "name": "current",
          "type": "uint8"
        },
        {
          "internalType": "bytes32",
          "name": "expectedStates",
          "type": "bytes32"
        }
      ],
      "name": "GovernorUnexpectedProposalState",
      "type": "error"
    },
    {
      "inputs": [
        {
          "internalType": "address",
          "name": "account",
          "type": "address"
        },
        {
          "internalType": "uint256",
          "name": "currentNonce",
          "type": "uint256"
        }
      ],
      "name": "InvalidAccountNonce",
      "type": "error"
    },
    {
      "inputs": [],
      "name": "InvalidShortString",
      "type": "error"
    },
    {
      "inputs": [
        {
          "internalType": "uint8",
          "name": "bits",
          "type": "uint8"
        },
        {
          "internalType": "uint256",
          "name": "value",
          "type": "uint256"
        }
      ],
      "name": "SafeCastOverflowedUintDowncast",
      "type": "error"
    },
    {
      "inputs": [
        {
          "internalType": "string",
          "name": "str",
          "type": "string"
        }
      ],
      "name": "StringTooLong",
      "type": "error"
    },
    {
      "anonymous": false,
      "inputs": [],
      "name": "EIP712DomainChanged",
      "type": "event"
    },
    {
      "anonymous": false,
      "inputs": [
        {
          "indexed": true,
          "internalType": "uint256",
          "name": "proposalId",
          "type": "uint256"
        },
        {
          "indexed": false,
          "internalType": "string",
          "name": "title",
          "type": "string"
        },
        {
          "indexed": false,
          "internalType": "address",
          "name": "proposer",
          "type": "address"
        }
      ],
      "name": "GraviProposalCreated",
      "type": "event"
    },
    {
      "anonymous": false,
      "inputs": [
        {
          "indexed": false,
          "internalType": "uint256",
          "name": "proposalId",
          "type": "uint256"
        }
      ],
      "name": "ProposalCanceled",
      "type": "event"
    },
    {
      "anonymous": false,
      "inputs": [
        {
          "indexed": false,
          "internalType": "uint256",
          "name": "proposalId",
          "type": "uint256"
        },
        {
          "indexed": false,
          "internalType": "address",
          "name": "proposer",
          "type": "address"
        },
        {
          "indexed": false,
          "internalType": "address[]",
          "name": "targets",
          "type": "address[]"
        },
        {
          "indexed": false,
          "internalType": "uint256[]",
          "name": "values",
          "type": "uint256[]"
        },
        {
          "indexed": false,
          "internalType": "string[]",
          "name": "signatures",
          "type": "string[]"
        },
        {
          "indexed": false,
          "internalType": "bytes[]",
          "name": "calldatas",
          "type": "bytes[]"
        },
        {
          "indexed": false,
          "internalType": "uint256",
          "name": "voteStart",
          "type": "uint256"
        },
        {
          "indexed": false,
          "internalType": "uint256",
          "name": "voteEnd",
          "type": "uint256"
        },
        {
          "indexed": false,
          "internalType": "string",
          "name": "description",
          "type": "string"
        }
      ],
      "name": "ProposalCreated",
      "type": "event"
    },
    {
      "anonymous": false,
      "inputs": [
        {
          "indexed": true,
          "internalType": "address",
          "name": "proposer",
          "type": "address"
        },
        {
          "indexed": true,
          "internalType": "uint256",
          "name": "proposalId",
          "type": "uint256"
        },
        {
          "indexed": false,
          "internalType": "uint256",
          "name": "amount",
          "type": "uint256"
        }
      ],
      "name": "ProposalCreationRewardClaimed",
      "type": "event"
    },
    {
      "anonymous": false,
      "inputs": [
        {
          "indexed": false,
          "internalType": "uint256",
          "name": "proposalId",
          "type": "uint256"
        }
      ],
      "name": "ProposalExecuted",
      "type": "event"
    },
    {
      "anonymous": false,
      "inputs": [
        {
          "indexed": false,
          "internalType": "uint256",
          "name": "proposalId",
          "type": "uint256"
        },
        {
          "indexed": false,
          "internalType": "uint256",
          "name": "etaSeconds",
          "type": "uint256"
        }
      ],
      "name": "ProposalQueued",
      "type": "event"
    },
    {
      "anonymous": false,
      "inputs": [
        {
          "indexed": false,
          "internalType": "uint256",
          "name": "oldQuorumNumerator",
          "type": "uint256"
        },
        {
          "indexed": false,
          "internalType": "uint256",
          "name": "newQuorumNumerator",
          "type": "uint256"
        }
      ],
      "name": "QuorumNumeratorUpdated",
      "type": "event"
    },
    {
      "anonymous": false,
      "inputs": [
        {
          "indexed": false,
          "internalType": "address",
          "name": "oldTimelock",
          "type": "address"
        },
        {
          "indexed": false,
          "internalType": "address",
          "name": "newTimelock",
          "type": "address"
        }
      ],
      "name": "TimelockChange",
      "type": "event"
    },
    {
      "anonymous": false,
      "inputs": [
        {
          "indexed": true,
          "internalType": "address",
          "name": "voter",
          "type": "address"
        },
        {
          "indexed": false,
          "internalType": "uint256",
          "name": "proposalId",
          "type": "uint256"
        },
        {
          "indexed": false,
          "internalType": "uint8",
          "name": "support",
          "type": "uint8"
        },
        {
          "indexed": false,
          "internalType": "uint256",
          "name": "weight",
          "type": "uint256"
        },
        {
          "indexed": false,
          "internalType": "string",
          "name": "reason",
          "type": "string"
        }
      ],
      "name": "VoteCast",
      "type": "event"
    },
    {
      "anonymous": false,
      "inputs": [
        {
          "indexed": true,
          "internalType": "address",
          "name": "voter",
          "type": "address"
        },
        {
          "indexed": false,
          "internalType": "uint256",
          "name": "proposalId",
          "type": "uint256"
        },
        {
          "indexed": false,
          "internalType": "uint8",
          "name": "support",
          "type": "uint8"
        },
        {
          "indexed": false,
          "internalType": "uint256",
          "name": "weight",
          "type": "uint256"
        },
        {
          "indexed": false,
          "internalType": "string",
          "name": "reason",
          "type": "string"
        },
        {
          "indexed": false,
          "internalType": "bytes",
          "name": "params",
          "type": "bytes"
        }
      ],
      "name": "VoteCastWithParams",
      "type": "event"
    },
    {
      "anonymous": false,
      "inputs": [
        {
          "indexed": false,
          "internalType": "uint256",
          "name": "oldAmount",
          "type": "uint256"
        },
        {
          "indexed": false,
          "internalType": "uint256",
          "name": "newAmount",
          "type": "uint256"
        }
      ],
      "name": "VoteRewardAmountUpdated",
      "type": "event"
    },
    {
      "anonymous": false,
      "inputs": [
        {
          "indexed": true,
          "internalType": "address",
          "name": "voter",
          "type": "address"
        },
        {
          "indexed": true,
          "internalType": "uint256",
          "name": "proposalId",
          "type": "uint256"
        },
        {
          "indexed": false,
          "internalType": "uint256",
          "name": "amount",
          "type": "uint256"
        }
      ],
      "name": "VoteRewardClaimed",
      "type": "event"
    },
    {
      "anonymous": false,
      "inputs": [
        {
          "indexed": false,
          "internalType": "bool",
          "name": "enabled",
          "type": "bool"
        }
      ],
      "name": "VoteRewardsToggled",
      "type": "event"
    },
    {
      "inputs": [],
      "name": "BALLOT_TYPEHASH",
      "outputs": [
        {
          "internalType": "bytes32",
          "name": "",
          "type": "bytes32"
        }
      ],
      "stateMutability": "view",
      "type": "function"
    },
    {
      "inputs": [],
      "name": "CLOCK_MODE",
      "outputs": [
        {
          "internalType": "string",
          "name": "",
          "type": "string"
        }
      ],
      "stateMutability": "view",
      "type": "function"
    },
    {
      "inputs": [],
      "name": "COUNTING_MODE",
      "outputs": [
        {
          "internalType": "string",
          "name": "",
          "type": "string"
        }
      ],
      "stateMutability": "pure",
      "type": "function"
    },
    {
      "inputs": [],
      "name": "EXTENDED_BALLOT_TYPEHASH",
      "outputs": [
        {
          "internalType": "bytes32",
          "name": "",
          "type": "bytes32"
        }
      ],
      "stateMutability": "view",
      "type": "function"
    },
    {
      "inputs": [
        {
          "internalType": "uint256",
          "name": "",
          "type": "uint256"
        }
      ],
      "name": "allProposalIds",
      "outputs": [
        {
          "internalType": "uint256",
          "name": "",
          "type": "uint256"
        }
      ],
      "stateMutability": "view",
      "type": "function"
    },
    {
      "inputs": [
        {
          "internalType": "address[]",
          "name": "targets",
          "type": "address[]"
        },
        {
          "internalType": "uint256[]",
          "name": "values",
          "type": "uint256[]"
        },
        {
          "internalType": "bytes[]",
          "name": "calldatas",
          "type": "bytes[]"
        },
        {
          "internalType": "bytes32",
          "name": "descriptionHash",
          "type": "bytes32"
        }
      ],
      "name": "cancel",
      "outputs": [
        {
          "internalType": "uint256",
          "name": "",
          "type": "uint256"
        }
      ],
      "stateMutability": "nonpayable",
      "type": "function"
    },
    {
      "inputs": [
        {
          "internalType": "uint256",
          "name": "proposalId",
          "type": "uint256"
        },
        {
          "internalType": "uint8",
          "name": "support",
          "type": "uint8"
        }
      ],
      "name": "castVote",
      "outputs": [
        {
          "internalType": "uint256",
          "name": "",
          "type": "uint256"
        }
      ],
      "stateMutability": "nonpayable",
      "type": "function"
    },
    {
      "inputs": [
        {
          "internalType": "uint256",
          "name": "proposalId",
          "type": "uint256"
        },
        {
          "internalType": "uint8",
          "name": "support",
          "type": "uint8"
        },
        {
          "internalType": "address",
          "name": "voter",
          "type": "address"
        },
        {
          "internalType": "bytes",
          "name": "signature",
          "type": "bytes"
        }
      ],
      "name": "castVoteBySig",
      "outputs": [
        {
          "internalType": "uint256",
          "name": "",
          "type": "uint256"
        }
      ],
      "stateMutability": "nonpayable",
      "type": "function"
    },
    {
      "inputs": [
        {
          "internalType": "uint256",
          "name": "proposalId",
          "type": "uint256"
        },
        {
          "internalType": "uint8",
          "name": "support",
          "type": "uint8"
        },
        {
          "internalType": "string",
          "name": "reason",
          "type": "string"
        }
      ],
      "name": "castVoteWithReason",
      "outputs": [
        {
          "internalType": "uint256",
          "name": "",
          "type": "uint256"
        }
      ],
      "stateMutability": "nonpayable",
      "type": "function"
    },
    {
      "inputs": [
        {
          "internalType": "uint256",
          "name": "proposalId",
          "type": "uint256"
        },
        {
          "internalType": "uint8",
          "name": "support",
          "type": "uint8"
        },
        {
          "internalType": "string",
          "name": "reason",
          "type": "string"
        },
        {
          "internalType": "bytes",
          "name": "params",
          "type": "bytes"
        }
      ],
      "name": "castVoteWithReasonAndParams",
      "outputs": [
        {
          "internalType": "uint256",
          "name": "",
          "type": "uint256"
        }
      ],
      "stateMutability": "nonpayable",
      "type": "function"
    },
    {
      "inputs": [
        {
          "internalType": "uint256",
          "name": "proposalId",
          "type": "uint256"
        },
        {
          "internalType": "uint8",
          "name": "support",
          "type": "uint8"
        },
        {
          "internalType": "address",
          "name": "voter",
          "type": "address"
        },
        {
          "internalType": "string",
          "name": "reason",
          "type": "string"
        },
        {
          "internalType": "bytes",
          "name": "params",
          "type": "bytes"
        },
        {
          "internalType": "bytes",
          "name": "signature",
          "type": "bytes"
        }
      ],
      "name": "castVoteWithReasonAndParamsBySig",
      "outputs": [
        {
          "internalType": "uint256",
          "name": "",
          "type": "uint256"
        }
      ],
      "stateMutability": "nonpayable",
      "type": "function"
    },
    {
      "inputs": [
        {
          "internalType": "uint256",
          "name": "proposalId",
          "type": "uint256"
        },
        {
          "internalType": "uint8",
          "name": "support",
          "type": "uint8"
        },
        {
          "internalType": "string",
          "name": "reason",
          "type": "string"
        }
      ],
      "name": "castVoteWithReasonAndReward",
      "outputs": [
        {
          "internalType": "uint256",
          "name": "",
          "type": "uint256"
        }
      ],
      "stateMutability": "nonpayable",
      "type": "function"
    },
    {
      "inputs": [
        {
          "internalType": "uint256",
          "name": "proposalId",
          "type": "uint256"
        },
        {
          "internalType": "uint8",
          "name": "support",
          "type": "uint8"
        }
      ],
      "name": "castVoteWithReward",
      "outputs": [
        {
          "internalType": "uint256",
          "name": "",
          "type": "uint256"
        }
      ],
      "stateMutability": "nonpayable",
      "type": "function"
    },
    {
      "inputs": [],
      "name": "clock",
      "outputs": [
        {
          "internalType": "uint48",
          "name": "",
          "type": "uint48"
        }
      ],
      "stateMutability": "view",
      "type": "function"
    },
    {
      "inputs": [
        {
          "internalType": "string",
          "name": "title",
          "type": "string"
        },
        {
          "internalType": "string",
          "name": "description",
          "type": "string"
        },
        {
          "internalType": "address[]",
          "name": "targets",
          "type": "address[]"
        },
        {
          "internalType": "uint256[]",
          "name": "values",
          "type": "uint256[]"
        },
        {
          "internalType": "bytes[]",
          "name": "calldatas",
          "type": "bytes[]"
        }
      ],
      "name": "createProposal",
      "outputs": [
        {
          "internalType": "uint256",
          "name": "proposalId",
          "type": "uint256"
        }
      ],
      "stateMutability": "nonpayable",
      "type": "function"
    },
    {
      "inputs": [
        {
          "internalType": "string",
          "name": "title",
          "type": "string"
        },
        {
          "internalType": "string",
          "name": "description",
          "type": "string"
        },
        {
          "internalType": "address[]",
          "name": "targets",
          "type": "address[]"
        },
        {
          "internalType": "uint256[]",
          "name": "values",
          "type": "uint256[]"
        },
        {
          "internalType": "bytes[]",
          "name": "calldatas",
          "type": "bytes[]"
        }
      ],
      "name": "createProposalWithReward",
      "outputs": [
        {
          "internalType": "uint256",
          "name": "proposalId",
          "type": "uint256"
        }
      ],
      "stateMutability": "nonpayable",
      "type": "function"
    },
    {
      "inputs": [],
      "name": "eip712Domain",
      "outputs": [
        {
          "internalType": "bytes1",
          "name": "fields",
          "type": "bytes1"
        },
        {
          "internalType": "string",
          "name": "name",
          "type": "string"
        },
        {
          "internalType": "string",
          "name": "version",
          "type": "string"
        },
        {
          "internalType": "uint256",
          "name": "chainId",
          "type": "uint256"
        },
        {
          "internalType": "address",
          "name": "verifyingContract",
          "type": "address"
        },
        {
          "internalType": "bytes32",
          "name": "salt",
          "type": "bytes32"
        },
        {
          "internalType": "uint256[]",
          "name": "extensions",
          "type": "uint256[]"
        }
      ],
      "stateMutability": "view",
      "type": "function"
    },
    {
      "inputs": [
        {
          "internalType": "address[]",
          "name": "targets",
          "type": "address[]"
        },
        {
          "internalType": "uint256[]",
          "name": "values",
          "type": "uint256[]"
        },
        {
          "internalType": "bytes[]",
          "name": "calldatas",
          "type": "bytes[]"
        },
        {
          "internalType": "bytes32",
          "name": "descriptionHash",
          "type": "bytes32"
        }
      ],
      "name": "execute",
      "outputs": [
        {
          "internalType": "uint256",
          "name": "",
          "type": "uint256"
        }
      ],
      "stateMutability": "payable",
      "type": "function"
    },
    {
      "inputs": [],
      "name": "getAllProposalIds",
      "outputs": [
        {
          "internalType": "uint256[]",
          "name": "",
          "type": "uint256[]"
        }
      ],
      "stateMutability": "view",
      "type": "function"
    },
    {
      "inputs": [],
      "name": "getProposalCount",
      "outputs": [
        {
          "internalType": "uint256",
          "name": "",
          "type": "uint256"
        }
      ],
      "stateMutability": "view",
      "type": "function"
    },
    {
      "inputs": [
        {
          "internalType": "uint256",
          "name": "proposalId",
          "type": "uint256"
        }
      ],
      "name": "getProposalDetail",
      "outputs": [
        {
          "components": [
            {
              "internalType": "uint256",
              "name": "id",
              "type": "uint256"
            },
            {
              "internalType": "string",
              "name": "title",
              "type": "string"
            },
            {
              "internalType": "string",
              "name": "description",
              "type": "string"
            },
            {
              "internalType": "address[]",
              "name": "targets",
              "type": "address[]"
            },
            {
              "internalType": "uint256[]",
              "name": "values",
              "type": "uint256[]"
            },
            {
              "internalType": "bytes[]",
              "name": "calldatas",
              "type": "bytes[]"
            },
            {
              "internalType": "address",
              "name": "proposer",
              "type": "address"
            },
            {
              "internalType": "uint256",
              "name": "created",
              "type": "uint256"
            }
          ],
          "internalType": "struct IGraviGovernance.ProposalData",
          "name": "",
          "type": "tuple"
        }
      ],
      "stateMutability": "view",
      "type": "function"
    },
    {
      "inputs": [],
      "name": "getRewardInfo",
      "outputs": [
        {
          "internalType": "bool",
          "name": "isEnabled",
          "type": "bool"
        },
        {
          "internalType": "uint256",
          "name": "rewardAmount",
          "type": "uint256"
        },
        {
          "internalType": "address",
          "name": "tokenAddress",
          "type": "address"
        }
      ],
      "stateMutability": "view",
      "type": "function"
    },
    {
      "inputs": [
        {
          "internalType": "address",
          "name": "account",
          "type": "address"
        },
        {
          "internalType": "uint256",
          "name": "timepoint",
          "type": "uint256"
        }
      ],
      "name": "getVotes",
      "outputs": [
        {
          "internalType": "uint256",
          "name": "",
          "type": "uint256"
        }
      ],
      "stateMutability": "view",
      "type": "function"
    },
    {
      "inputs": [
        {
          "internalType": "address",
          "name": "account",
          "type": "address"
        },
        {
          "internalType": "uint256",
          "name": "timepoint",
          "type": "uint256"
        },
        {
          "internalType": "bytes",
          "name": "params",
          "type": "bytes"
        }
      ],
      "name": "getVotesWithParams",
      "outputs": [
        {
          "internalType": "uint256",
          "name": "",
          "type": "uint256"
        }
      ],
      "stateMutability": "view",
      "type": "function"
    },
    {
      "inputs": [],
      "name": "govProposalThreshold",
      "outputs": [
        {
          "internalType": "uint256",
          "name": "",
          "type": "uint256"
        }
      ],
      "stateMutability": "view",
      "type": "function"
    },
    {
      "inputs": [],
      "name": "govVotingDelay",
      "outputs": [
        {
          "internalType": "uint256",
          "name": "",
          "type": "uint256"
        }
      ],
      "stateMutability": "view",
      "type": "function"
    },
    {
      "inputs": [],
      "name": "govVotingPeriod",
      "outputs": [
        {
          "internalType": "uint256",
          "name": "",
          "type": "uint256"
        }
      ],
      "stateMutability": "view",
      "type": "function"
    },
    {
      "inputs": [],
      "name": "graviCha",
      "outputs": [
        {
          "internalType": "contract IGraviCha",
          "name": "",
          "type": "address"
        }
      ],
      "stateMutability": "view",
      "type": "function"
    },
    {
      "inputs": [
        {
          "internalType": "uint256",
          "name": "",
          "type": "uint256"
        },
        {
          "internalType": "address",
          "name": "",
          "type": "address"
        }
      ],
      "name": "hasClaimedReward",
      "outputs": [
        {
          "internalType": "bool",
          "name": "",
          "type": "bool"
        }
      ],
      "stateMutability": "view",
      "type": "function"
    },
    {
      "inputs": [
        {
          "internalType": "uint256",
          "name": "",
          "type": "uint256"
        }
      ],
      "name": "hasProposerClaimedReward",
      "outputs": [
        {
          "internalType": "bool",
          "name": "",
          "type": "bool"
        }
      ],
      "stateMutability": "view",
      "type": "function"
    },
    {
      "inputs": [
        {
          "internalType": "uint256",
          "name": "proposalId",
          "type": "uint256"
        },
        {
          "internalType": "address",
          "name": "account",
          "type": "address"
        }
      ],
      "name": "hasVoted",
      "outputs": [
        {
          "internalType": "bool",
          "name": "",
          "type": "bool"
        }
      ],
      "stateMutability": "view",
      "type": "function"
    },
    {
      "inputs": [
        {
          "internalType": "uint256",
          "name": "proposalId",
          "type": "uint256"
        },
        {
          "internalType": "address",
          "name": "voter",
          "type": "address"
        }
      ],
      "name": "hasVoterClaimedReward",
      "outputs": [
        {
          "internalType": "bool",
          "name": "",
          "type": "bool"
        }
      ],
      "stateMutability": "view",
      "type": "function"
    },
    {
      "inputs": [
        {
          "internalType": "address[]",
          "name": "targets",
          "type": "address[]"
        },
        {
          "internalType": "uint256[]",
          "name": "values",
          "type": "uint256[]"
        },
        {
          "internalType": "bytes[]",
          "name": "calldatas",
          "type": "bytes[]"
        },
        {
          "internalType": "bytes32",
          "name": "descriptionHash",
          "type": "bytes32"
        }
      ],
      "name": "hashProposal",
      "outputs": [
        {
          "internalType": "uint256",
          "name": "",
          "type": "uint256"
        }
      ],
      "stateMutability": "pure",
      "type": "function"
    },
    {
      "inputs": [],
      "name": "name",
      "outputs": [
        {
          "internalType": "string",
          "name": "",
          "type": "string"
        }
      ],
      "stateMutability": "view",
      "type": "function"
    },
    {
      "inputs": [
        {
          "internalType": "address",
          "name": "owner",
          "type": "address"
        }
      ],
      "name": "nonces",
      "outputs": [
        {
          "internalType": "uint256",
          "name": "",
          "type": "uint256"
        }
      ],
      "stateMutability": "view",
      "type": "function"
    },
    {
      "inputs": [
        {
          "internalType": "address",
          "name": "",
          "type": "address"
        },
        {
          "internalType": "address",
          "name": "",
          "type": "address"
        },
        {
          "internalType": "uint256[]",
          "name": "",
          "type": "uint256[]"
        },
        {
          "internalType": "uint256[]",
          "name": "",
          "type": "uint256[]"
        },
        {
          "internalType": "bytes",
          "name": "",
          "type": "bytes"
        }
      ],
      "name": "onERC1155BatchReceived",
      "outputs": [
        {
          "internalType": "bytes4",
          "name": "",
          "type": "bytes4"
        }
      ],
      "stateMutability": "nonpayable",
      "type": "function"
    },
    {
      "inputs": [
        {
          "internalType": "address",
          "name": "",
          "type": "address"
        },
        {
          "internalType": "address",
          "name": "",
          "type": "address"
        },
        {
          "internalType": "uint256",
          "name": "",
          "type": "uint256"
        },
        {
          "internalType": "uint256",
          "name": "",
          "type": "uint256"
        },
        {
          "internalType": "bytes",
          "name": "",
          "type": "bytes"
        }
      ],
      "name": "onERC1155Received",
      "outputs": [
        {
          "internalType": "bytes4",
          "name": "",
          "type": "bytes4"
        }
      ],
      "stateMutability": "nonpayable",
      "type": "function"
    },
    {
      "inputs": [
        {
          "internalType": "address",
          "name": "",
          "type": "address"
        },
        {
          "internalType": "address",
          "name": "",
          "type": "address"
        },
        {
          "internalType": "uint256",
          "name": "",
          "type": "uint256"
        },
        {
          "internalType": "bytes",
          "name": "",
          "type": "bytes"
        }
      ],
      "name": "onERC721Received",
      "outputs": [
        {
          "internalType": "bytes4",
          "name": "",
          "type": "bytes4"
        }
      ],
      "stateMutability": "nonpayable",
      "type": "function"
    },
    {
      "inputs": [
        {
          "internalType": "uint256",
          "name": "proposalId",
          "type": "uint256"
        }
      ],
      "name": "proposalDeadline",
      "outputs": [
        {
          "internalType": "uint256",
          "name": "",
          "type": "uint256"
        }
      ],
      "stateMutability": "view",
      "type": "function"
    },
    {
      "inputs": [
        {
          "internalType": "uint256",
          "name": "proposalId",
          "type": "uint256"
        }
      ],
      "name": "proposalEta",
      "outputs": [
        {
          "internalType": "uint256",
          "name": "",
          "type": "uint256"
        }
      ],
      "stateMutability": "view",
      "type": "function"
    },
    {
      "inputs": [
        {
          "internalType": "uint256",
          "name": "proposalId",
          "type": "uint256"
        }
      ],
      "name": "proposalNeedsQueuing",
      "outputs": [
        {
          "internalType": "bool",
          "name": "",
          "type": "bool"
        }
      ],
      "stateMutability": "view",
      "type": "function"
    },
    {
      "inputs": [
        {
          "internalType": "uint256",
          "name": "proposalId",
          "type": "uint256"
        }
      ],
      "name": "proposalProposer",
      "outputs": [
        {
          "internalType": "address",
          "name": "",
          "type": "address"
        }
      ],
      "stateMutability": "view",
      "type": "function"
    },
    {
      "inputs": [
        {
          "internalType": "uint256",
          "name": "proposalId",
          "type": "uint256"
        }
      ],
      "name": "proposalSnapshot",
      "outputs": [
        {
          "internalType": "uint256",
          "name": "",
          "type": "uint256"
        }
      ],
      "stateMutability": "view",
      "type": "function"
    },
    {
      "inputs": [],
      "name": "proposalThreshold",
      "outputs": [
        {
          "internalType": "uint256",
          "name": "",
          "type": "uint256"
        }
      ],
      "stateMutability": "view",
      "type": "function"
    },
    {
      "inputs": [
        {
          "internalType": "uint256",
          "name": "proposalId",
          "type": "uint256"
        }
      ],
      "name": "proposalVotes",
      "outputs": [
        {
          "internalType": "uint256",
          "name": "againstVotes",
          "type": "uint256"
        },
        {
          "internalType": "uint256",
          "name": "forVotes",
          "type": "uint256"
        },
        {
          "internalType": "uint256",
          "name": "abstainVotes",
          "type": "uint256"
        }
      ],
      "stateMutability": "view",
      "type": "function"
    },
    {
      "inputs": [
        {
          "internalType": "uint256",
          "name": "",
          "type": "uint256"
        }
      ],
      "name": "proposals",
      "outputs": [
        {
          "internalType": "uint256",
          "name": "id",
          "type": "uint256"
        },
        {
          "internalType": "string",
          "name": "title",
          "type": "string"
        },
        {
          "internalType": "string",
          "name": "description",
          "type": "string"
        },
        {
          "internalType": "address",
          "name": "proposer",
          "type": "address"
        },
        {
          "internalType": "uint256",
          "name": "created",
          "type": "uint256"
        }
      ],
      "stateMutability": "view",
      "type": "function"
    },
    {
      "inputs": [
        {
          "internalType": "address[]",
          "name": "targets",
          "type": "address[]"
        },
        {
          "internalType": "uint256[]",
          "name": "values",
          "type": "uint256[]"
        },
        {
          "internalType": "bytes[]",
          "name": "calldatas",
          "type": "bytes[]"
        },
        {
          "internalType": "string",
          "name": "description",
          "type": "string"
        }
      ],
      "name": "propose",
      "outputs": [
        {
          "internalType": "uint256",
          "name": "",
          "type": "uint256"
        }
      ],
      "stateMutability": "nonpayable",
      "type": "function"
    },
    {
      "inputs": [
        {
          "internalType": "address[]",
          "name": "targets",
          "type": "address[]"
        },
        {
          "internalType": "uint256[]",
          "name": "values",
          "type": "uint256[]"
        },
        {
          "internalType": "bytes[]",
          "name": "calldatas",
          "type": "bytes[]"
        },
        {
          "internalType": "bytes32",
          "name": "descriptionHash",
          "type": "bytes32"
        }
      ],
      "name": "queue",
      "outputs": [
        {
          "internalType": "uint256",
          "name": "",
          "type": "uint256"
        }
      ],
      "stateMutability": "nonpayable",
      "type": "function"
    },
    {
      "inputs": [
        {
          "internalType": "uint256",
          "name": "timepoint",
          "type": "uint256"
        }
      ],
      "name": "quorum",
      "outputs": [
        {
          "internalType": "uint256",
          "name": "",
          "type": "uint256"
        }
      ],
      "stateMutability": "view",
      "type": "function"
    },
    {
      "inputs": [],
      "name": "quorumDenominator",
      "outputs": [
        {
          "internalType": "uint256",
          "name": "",
          "type": "uint256"
        }
      ],
      "stateMutability": "view",
      "type": "function"
    },
    {
      "inputs": [
        {
          "internalType": "uint256",
          "name": "timepoint",
          "type": "uint256"
        }
      ],
      "name": "quorumNumerator",
      "outputs": [
        {
          "internalType": "uint256",
          "name": "",
          "type": "uint256"
        }
      ],
      "stateMutability": "view",
      "type": "function"
    },
    {
      "inputs": [],
      "name": "quorumNumerator",
      "outputs": [
        {
          "internalType": "uint256",
          "name": "",
          "type": "uint256"
        }
      ],
      "stateMutability": "view",
      "type": "function"
    },
    {
      "inputs": [
        {
          "internalType": "address",
          "name": "target",
          "type": "address"
        },
        {
          "internalType": "uint256",
          "name": "value",
          "type": "uint256"
        },
        {
          "internalType": "bytes",
          "name": "data",
          "type": "bytes"
        }
      ],
      "name": "relay",
      "outputs": [],
      "stateMutability": "payable",
      "type": "function"
    },
    {
      "inputs": [],
      "name": "rewardsEnabled",
      "outputs": [
        {
          "internalType": "bool",
          "name": "",
          "type": "bool"
        }
      ],
      "stateMutability": "view",
      "type": "function"
    },
    {
      "inputs": [
        {
          "internalType": "uint256",
          "name": "newVotingDelay",
          "type": "uint256"
        },
        {
          "internalType": "uint256",
          "name": "newVotingPeriod",
          "type": "uint256"
        },
        {
          "internalType": "uint256",
          "name": "newProposalThreshold",
          "type": "uint256"
        }
      ],
      "name": "setGovernanceParameters",
      "outputs": [],
      "stateMutability": "nonpayable",
      "type": "function"
    },
    {
      "inputs": [
        {
          "internalType": "uint256",
          "name": "newAmount",
          "type": "uint256"
        }
      ],
      "name": "setVoteRewardAmount",
      "outputs": [],
      "stateMutability": "nonpayable",
      "type": "function"
    },
    {
      "inputs": [
        {
          "internalType": "uint256",
          "name": "proposalId",
          "type": "uint256"
        }
      ],
      "name": "state",
      "outputs": [
        {
          "internalType": "enum IGovernor.ProposalState",
          "name": "",
          "type": "uint8"
        }
      ],
      "stateMutability": "view",
      "type": "function"
    },
    {
      "inputs": [
        {
          "internalType": "bytes4",
          "name": "interfaceId",
          "type": "bytes4"
        }
      ],
      "name": "supportsInterface",
      "outputs": [
        {
          "internalType": "bool",
          "name": "",
          "type": "bool"
        }
      ],
      "stateMutability": "view",
      "type": "function"
    },
    {
      "inputs": [],
      "name": "timelock",
      "outputs": [
        {
          "internalType": "address",
          "name": "",
          "type": "address"
        }
      ],
      "stateMutability": "view",
      "type": "function"
    },
    {
      "inputs": [
        {
          "internalType": "bool",
          "name": "enabled",
          "type": "bool"
        }
      ],
      "name": "toggleVoteRewards",
      "outputs": [],
      "stateMutability": "nonpayable",
      "type": "function"
    },
    {
      "inputs": [],
      "name": "token",
      "outputs": [
        {
          "internalType": "contract IERC5805",
          "name": "",
          "type": "address"
        }
      ],
      "stateMutability": "view",
      "type": "function"
    },
    {
      "inputs": [
        {
          "internalType": "uint256",
          "name": "newQuorumNumerator",
          "type": "uint256"
        }
      ],
      "name": "updateQuorumNumerator",
      "outputs": [],
      "stateMutability": "nonpayable",
      "type": "function"
    },
    {
      "inputs": [
        {
          "internalType": "contract TimelockController",
          "name": "newTimelock",
          "type": "address"
        }
      ],
      "name": "updateTimelock",
      "outputs": [],
      "stateMutability": "nonpayable",
      "type": "function"
    },
    {
      "inputs": [],
      "name": "version",
      "outputs": [
        {
          "internalType": "string",
          "name": "",
          "type": "string"
        }
      ],
      "stateMutability": "view",
      "type": "function"
    },
    {
      "inputs": [],
      "name": "voteRewardAmount",
      "outputs": [
        {
          "internalType": "uint256",
          "name": "",
          "type": "uint256"
        }
      ],
      "stateMutability": "view",
      "type": "function"
    },
    {
      "inputs": [],
      "name": "votingDelay",
      "outputs": [
        {
          "internalType": "uint256",
          "name": "",
          "type": "uint256"
        }
      ],
      "stateMutability": "view",
      "type": "function"
    },
    {
      "inputs": [],
      "name": "votingPeriod",
      "outputs": [
        {
          "internalType": "uint256",
          "name": "",
          "type": "uint256"
        }
      ],
      "stateMutability": "view",
      "type": "function"
    },
    {
      "stateMutability": "payable",
      "type": "receive"
    }
  ],
  "bytecode": "0x6101a0604052346100d45761001b610015610139565b916101b6565b604051614bc09081610a4382396080518161402d015260a051816140e4015260c05181613ff7015260e0518161407c015261010051816140a201526101205181611cae01526101405181611cda015261016051818181611f4101528181612437015281816125b201528181612957015281816131880152818161335a01528181613a770152613c3b01526101805181818161188a01528181611b8601528181611c67015281816120e90152818161378a015261384e0152f35b600080fd5b634e487b7160e01b600052604160045260246000fd5b601f909101601f19168101906001600160401b0382119082101761011257604052565b6100d9565b604051906101266040836100ef565b565b6001600160a01b038116036100d457565b615603906060823803928360405194859261015482856100ef565b8339810103126100d45781519061016a82610128565b604060208401519361017b85610128565b01519161018783610128565b929190565b6040519061019b6040836100ef565b600f8252565b604051906101b06040836100ef565b60018252565b9061029d916102836101c661018c565b602081016e4772617669476f7665726e616e636560881b81526101e76101a1565b906020820190603160f81b82526101fd84610563565b6101205261020a8361065d565b6101405283519020918260e05251902080610100524660a0526040519060208201927f8b73c3c69bb8fe3d512ecc4cf759cc79239f7b179b0ffacaa9a75d522b39400f8452604083015260608201524660808201523060a082015260a0815261027460c0826100ef565b5190206080523060c052610372565b6001600160a01b0316610160526102986104af565b61045c565b6102ae67016345785d8a0000601055565b6102c0600160ff196011541617601155565b6102ca6000600b55565b6102d561c4e0600c55565b6102e06103e8600d55565b61018052565b90600182811c92168015610316575b602083101461030057565b634e487b7160e01b600052602260045260246000fd5b91607f16916102f5565b601f821161032d57505050565b6000526020600020906020601f840160051c83019310610368575b601f0160051c01905b81811061035c575050565b60008155600101610351565b9091508190610348565b80519091906001600160401b0381116101125761039b816103946003546102e6565b6003610320565b602092601f82116001146103dd576103cd929382916000926103d2575b50508160011b916000199060031b1c19161790565b600355565b0151905038806103b8565b6003600052601f198216937fc2575a0e9e593c00f959f8c92f12db2869c3395a3b0502d05e2516446f71f85b9160005b868110610444575083600195961061042b575b505050811b01600355565b015160001960f88460031b161c19169055388080610420565b9192602060018192868501518155019401920161040d565b600954604080516001600160a01b03808416825290931660208401819052927f08f74ea46ef7894f65eabfb5e6e695de773a000b47c529ab559178069b2264019190a16001600160a01b03191617600955565b6008546000908061051457505060005b6001600160d01b03166104d0610755565b7f0553476bf02ef2726e8ce5ced78d63e26e602e4a2257b1f559418e24b463399791600491610500908390610904565b5050604080519182526020820192909252a1565b8060001981011161054f5760089091527ff3f7a9fe364faab93b216da50a3214154f22a0a2b415b23a84c8169e8b636ee2015460301c6104bf565b634e487b7160e01b82526011600452602482fd5b9081516020811060001461057f57509061057c90610801565b90565b6001600160401b038111610112576105a38161059c6000546102e6565b6000610320565b602092601f82116001146105dc576105d4929382916000926103d25750508160011b916000199060031b1c19161790565b60005560ff90565b60008052601f198216937f290decd9548b62a8d60345a988386fc84ba6bc95484008f6362f93160ef3e5639160005b868110610645575083600195961061062c575b505050811b0160005560ff90565b015160001960f88460031b161c1916905538808061061e565b9192602060018192868501518155019401920161060b565b9081516020811060001461067657509061057c90610801565b6001600160401b0381116101125761069a816106936001546102e6565b6001610320565b602092601f82116001146106d3576106cb929382916000926103d25750508160011b916000199060031b1c19161790565b60015560ff90565b6001600052601f198216937fb10e2d527612073b26eecdfd717e6a320cf44b4afac2b0732d9fcbe2b7fa0cf69160005b86811061073d5750836001959610610724575b505050811b0160015560ff90565b015160001960f88460031b161c19169055388080610716565b91926020600181928685015181550194019201610703565b610160516040516324776b7d60e21b815290602090829060049082906001600160a01b03165afa8091600091610796575b509061057c575061057c43610a11565b6020813d6020116107d6575b816107af602093836100ef565b810103126107d257519065ffffffffffff821682036107cf575038610786565b80fd5b5080fd5b3d91506107a2565b6020815191015190602081106107f2575090565b6000199060200360031b1b1690565b601f81511161081957610813816107de565b90511790565b6040519063305a27a960e01b8252602060048301528181519182602483015260005b83811061085d5750508160006044809484010152601f80199101168101030190fd5b6020828201810151604487840101528593500161083b565b60001981019190821161088457565b634e487b7160e01b600052601160045260246000fd5b9081546801000000000000000081101561011257600181018084558110156108ee5760009283526020928390208251929093015160301b65ffffffffffff191665ffffffffffff9290921691909117910155565b634e487b7160e01b600052603260045260246000fd5b60085491929180156109e75761091c61094691610875565b60086000527ff3f7a9fe364faab93b216da50a3214154f22a0a2b415b23a84c8169e8b636ee30190565b90815461096261095b8265ffffffffffff1690565b9160301c90565b9265ffffffffffff8084169216918083116109d6578692036109a05761099c92509065ffffffffffff82549181199060301b169116179055565b9190565b505061099c906109bf6109b1610117565b65ffffffffffff9092168252565b6001600160d01b03851660208201525b600861089a565b632520601d60e01b60005260046000fd5b50610a0b906109f76109b1610117565b6001600160d01b03841660208201526109cf565b60009190565b65ffffffffffff8111610a295765ffffffffffff1690565b6306dfcc6560e41b600052603060045260245260446000fdfe60806040526004361015610023575b361561001957600080fd5b6100216133da565b005b60003560e01c8063013cf08b1461043f57806301ffc9a71461043a57806302a251a31461032757806306f3f9e61461043557806306fdde031461043057806307a9f02d1461042b5780630b7dee0514610426578063143489d014610421578063150b7a021461041c578063160cbed7146104175780631a163fea146104125780631dafe16b1461040d57806321d82495146103455780632656227d146104085780632a28ddff146104035780632d63f693146103fe5780632fe3e261146103f95780633932abb1146103635780633e4f49e6146103f457806343859632146103ef578063452115d6146103ea5780634bf5d7e9146103e55780634deea251146103e0578063544ffc9c146103db57806354fd4d50146103d657806356781388146103d15780635b8d0e0d146103cc5780635f398a14146103c757806360c4247f146103c25780636644cc18146103bd578063699c8f33146103b85780637b3c71d3146103b35780637d5e81e2146103ae5780637ecebe00146103a9578063813cdfd2146103a457806384b0196e1461039f5780638597e49d146103685780638ff262e31461039a57806391ddadf41461039557806397c3d334146103905780639a802a6d1461038b5780639ee01b2114610386578063a7713a7014610381578063a890c9101461037c578063a9a9529414610377578063ab58fb8e14610372578063b04869ae1461036d578063b58131b014610368578063bb6ce65d14610363578063bc197c811461035e578063c01f9e3714610359578063c08cc02d14610354578063c28bc2fa1461034f578063c59057e41461034a578063c8b727a114610345578063c97bfe6b14610340578063d33219b41461033b578063dd4e2ba514610336578063deaaa7cc14610331578063e32c6ac71461032c578063e8e13e0d14610327578063eb9019d414610322578063efa90d361461031d578063f23a6e6114610318578063f8ce560a14610313578063fc0c546a1461030e5763fee6b7800361000e576125e1565b61259c565b61257e565b612511565b6124a3565b6123df565b6106cb565b6123b3565b612378565b612319565b6122f0565b61229f565b6110db565b61226d565b612201565b6121e3565b6121c5565b612118565b611361565b611d5f565b6120d3565b61209e565b612082565b61200a565b611fde565b611fad565b611edc565b611ec0565b611e95565b611d7d565b611c96565b611a9a565b6119b7565b61191a565b6118f1565b611858565b61182b565b61180d565b61178d565b6116e7565b611693565b611650565b61160d565b6115d3565b611593565b61142e565b6113e1565b6113b2565b611326565b6112ef565b61128f565b611131565b6110b8565b61109a565b610e4e565b610c08565b610b37565b610ad5565b610a1e565b6107cf565b6106e9565b610652565b6105c2565b90600182811c92168015610474575b602083101461045e57565b634e487b7160e01b600052602260045260246000fd5b91607f1691610453565b634e487b7160e01b600052604160045260246000fd5b61010081019081106001600160401b038211176104b057604052565b61047e565b90601f801991011681019081106001600160401b038211176104b057604052565b90604051918260008254926104ea84610444565b80845293600181169081156105585750600114610511575b5061050f925003836104b5565b565b90506000929192526020600020906000915b81831061053c57505090602061050f9282010138610502565b6020919350806001915483858901015201910190918492610523565b90506020925061050f94915060ff191682840152151560051b82010138610502565b60005b83811061058d5750506000910152565b818101518382015260200161057d565b906020916105b68151809281855285808601910161057a565b601f01601f1916010190565b3461064d57602036600319011261064d57600435600052600e602052604060002080546105f1600183016104d6565b916105fe600282016104d6565b61063e600760018060a01b0360068501541693015491610630604051968796875260a0602088015260a087019061059d565b90858203604087015261059d565b91606084015260808301520390f35b600080fd5b3461064d57602036600319011261064d5760043563ffffffff60e01b811680910361064d576020906332a2ad4360e11b81149081156106af575b811561069e575b506040519015158152f35b6301ffc9a760e01b14905038610693565b630271189760e51b8114915061068c565b600091031261064d57565b3461064d57600036600319011261064d576020600c54604051908152f35b3461064d57602036600319011261064d576004356107056133f0565b606481116107a2576001600160d01b0361071d613cd3565b1690610727613173565b916001600160d01b038211610788577f0553476bf02ef2726e8ce5ced78d63e26e602e4a2257b1f559418e24b46339979261076c906001600160d01b038416906147e3565b505060408051918252602082019290925290819081015b0390a1005b506306dfcc6560e41b60005260d060045260245260446000fd5b63243e544560e01b600052600452606460245260446000fd5b9060206107cc92818152019061059d565b90565b3461064d57600036600319011261064d5760405160006003546107f181610444565b80845290600181169081156108885750600114610829575b61082583610819818503826104b5565b604051918291826107bb565b0390f35b600360009081527fc2575a0e9e593c00f959f8c92f12db2869c3395a3b0502d05e2516446f71f85b939250905b80821061086e57509091508101602001610819610809565b919260018160209254838588010152019101909291610856565b60ff191660208086019190915291151560051b840190910191506108199050610809565b906020808351928381520192019060005b8181106108ca5750505090565b82516001600160a01b03168452602093840193909201916001016108bd565b906020808351928381520192019060005b8181106109075750505090565b82518452602093840193909201916001016108fa565b9080602083519182815201916020808360051b8301019401926000915b83831061094957505050505090565b9091929394602080610967600193601f19868203018752895161059d565b9701930193019193929061093a565b602081528151602082015261010060e0610a036109ed6109d76109c16109ab60208901518760408a015261012089019061059d565b6040890151888203601f190160608a015261059d565b6060880151878203601f190160808901526108ac565b6080870151868203601f190160a08801526108e9565b60a0860151858203601f190160c087015261091d565b60c08501516001600160a01b03168483015293015191015290565b3461064d57602036600319011261064d57610825610abf610aba600435600060e0604051610a4b81610494565b828152606060208201526060604082015260608082015260606080820152606060a08201528260c0820152015280600052600e602052610aaa60018060a01b03610aa260066040600020015460018060a01b031690565b16151561267d565b600052600e602052604060002090565b61284c565b60405191829182610976565b8015150361064d57565b3461064d57602036600319011261064d577fc24c407140d48a81119794cbc2d8280ac684c191a8e2d2b15a75e545d7682ea46020600435610b1581610acb565b610b1d6133f0565b151560ff196011541660ff821617601155604051908152a1005b3461064d57602036600319011261064d576004356000526004602052602060018060a01b0360406000205416604051908152f35b6001600160a01b0381160361064d57565b6040519061050f610100836104b5565b6040519061050f6040836104b5565b6001600160401b0381116104b057601f01601f191660200190565b929192610bc282610b9b565b91610bd060405193846104b5565b82948184528183011161064d578281602093846000960137010152565b9080601f8301121561064d578160206107cc93359101610bb6565b3461064d57608036600319011261064d57610c24600435610b6b565b610c2f602435610b6b565b6064356001600160401b03811161064d57610c4e903690600401610bed565b50600954306001600160a01b0390911603610c7557604051630a85bd0160e11b8152602090f35b637485328f60e11b60005260046000fd5b6001600160401b0381116104b05760051b60200190565b9080601f8301121561064d578135610cb481610c86565b92610cc260405194856104b5565b81845260208085019260051b82010192831161064d57602001905b828210610cea5750505090565b602080918335610cf981610b6b565b815201910190610cdd565b9080601f8301121561064d578135610d1b81610c86565b92610d2960405194856104b5565b81845260208085019260051b82010192831161064d57602001905b828210610d515750505090565b8135815260209182019101610d44565b9080601f8301121561064d578135610d7881610c86565b92610d8660405194856104b5565b81845260208085019260051b8201019183831161064d5760208201905b838210610db257505050505090565b81356001600160401b03811161064d57602091610dd487848094880101610bed565b815201910190610da3565b608060031982011261064d576004356001600160401b03811161064d5781610e0991600401610c9d565b916024356001600160401b03811161064d5782610e2891600401610d04565b91604435906001600160401b03821161064d57610e4791600401610d61565b9060643590565b3461064d57610e5c36610ddf565b9092610e6a828585846132a7565b93610e748561349d565b50600954610e92906001600160a01b03165b6001600160a01b031690565b936040519363793d064960e11b8552602085600481895afa94851561104557600095611079575b503060601b6001600160601b03191618946020604051809263b1c5f42760e01b82528180610eed8b89898c60048601613db0565b03915afa9081156110455760009161104a575b50610f1587600052600a602052604060002090565b55600954610f2b906001600160a01b0316610e86565b90813b1561064d5760008094610f5887604051998a97889687956308f2a0bb60e41b875260048701613df6565b03925af190811561104557610f7c92610f779261102a575b5042613ba3565b613b64565b9065ffffffffffff821615611019577f9a2e42fd6722813d69113e7d0079d3d940171428df7373df9c7f7617cfda289261100683610fe7610825956001610fcd876000526004602052604060002090565b019065ffffffffffff1665ffffffffffff19825416179055565b6040805185815265ffffffffffff909216602083015290918291820190565b0390a16040519081529081906020820190565b634844252360e11b60005260046000fd5b80611039600061103f936104b5565b806106c0565b38610f70565b6128e6565b61106c915060203d602011611072575b61106481836104b5565b81019061330e565b38610f00565b503d61105a565b61109391955060203d6020116110725761106481836104b5565b9338610eb9565b3461064d57600036600319011261064d576020601054604051908152f35b3461064d57600036600319011261064d57602060ff601154166040519015158152f35b3461064d57604036600319011261064d57602060ff61112560243560043561110282610b6b565b6000526012845260406000209060018060a01b0316600052602052604060002090565b54166040519015158152f35b61113a36610ddf565b91611147838383876132a7565b936020611155603087613563565b5061118061116d876000526004602052604060002090565b805460ff60f01b1916600160f01b179055565b600954306001600160a01b0390911603611226575b50918493916111a79361082596613e44565b60095430906111be906001600160a01b0316610e86565b141580611207575b6111fd575b6040518181527f712ae1383f79ac853f8d882153778e0260ef8f03b504e2866e0593e04d2b291f908060208101611006565b60006005556111cb565b506005546001600160801b03811660809190911c14156111c6565b1590565b9490919360005b83518110156112815760019030611257610e8661124a84896128cd565b516001600160a01b031690565b14611263575b0161122d565b61127c61127082886128cd565b518981519101206135a3565b61125d565b509094509290610825611195565b3461064d57602036600319011261064d577f81b52b8f26cf0aece083094c1845a6886e34a910351b87b07247e4f039233adc6004356112cc6133f0565b601054816010556107836040519283928360209093929193604081019481520152565b3461064d57602036600319011261064d576004356000526004602052602065ffffffffffff60406000205460a01c16604051908152f35b3461064d57600036600319011261064d5760206040517f3e83946653575f9a39005e1545185629e92736b7528ab20ca3816f315424a8118152f35b3461064d57600036600319011261064d576020600b54604051908152f35b634e487b7160e01b600052602160045260246000fd5b6008111561139f57565b61137f565b600881101561139f57602452565b3461064d57602036600319011261064d576113ce600435613620565b604051600882101561139f576020918152f35b3461064d57604036600319011261064d57602060ff61112560243560043561140882610b6b565b6000526007845260036040600020019060018060a01b0316600052602052604060002090565b3461064d5761143c36610ddf565b91611449838383876132a7565b611452816134df565b506000908152600460205260409020546001600160a01b0316330361157e5761147a936132a7565b604090611488603b82613563565b506114b56114a0826000526004602052604060002090565b80546001600160f81b0316600160f81b179055565b81518181527f789cf55be980739dad1d0699b93b58e806b51c9d96619bfa8fe0a28abaa7b30c90602090a16114f481600052600a602052604060002090565b549182611506575b5190815260209150f35b60095461151b906001600160a01b0316610e86565b803b1561064d57815163c4d252f560e01b815260048101949094526000908490602490829084905af19283156110455761082593611569575b506000828152600a60205260408120556114fc565b806110396000611578936104b5565b38611554565b63233d98e360e01b6000523360045260246000fd5b3461064d57600036600319011261064d576108256115af612942565b60405191829160208352602083019061059d565b6024359060ff8216820361064d57565b3461064d57604036600319011261064d5760206004356116056115fd6115f76115c3565b83612a1f565b913390613731565b604051908152f35b3461064d57602036600319011261064d57600435600052600760205260606040600020805490600260018201549101549060405192835260208301526040820152f35b3461064d57600036600319011261064d57610825604080519061167381836104b5565b60018252603160f81b60208301525191829160208352602083019061059d565b3461064d57604036600319011261064d5760206116056004356116b46115c3565b90612a1f565b9181601f8401121561064d578235916001600160401b03831161064d576020838186019501011161064d57565b3461064d5760c036600319011261064d576004356117036115c3565b906044359061171182610b6b565b6064356001600160401b03811161064d576117309036906004016116ba565b6084356001600160401b03811161064d5761174f903690600401610bed565b9160a435946001600160401b03861161064d576108259661177761177d973690600401610bed565b95612a3d565b6040519081529081906020820190565b3461064d57608036600319011261064d576004356117a96115c3565b906044356001600160401b03811161064d576117c99036906004016116ba565b9190926064356001600160401b03811161064d57611802946117f26117fa923690600401610bed565b943691610bb6565b913390613a1c565b604051908152602090f35b3461064d57602036600319011261064d576020611605600435612b6a565b3461064d57606036600319011261064d5760443560243560043561184d6133f0565b600b55600c55600d55005b3461064d57600036600319011261064d57606060ff601154166010546040519115158252602082015260018060a01b037f0000000000000000000000000000000000000000000000000000000000000000166040820152f35b606060031982011261064d576004359160243560ff8116810361064d5791604435906001600160401b03821161064d576118ed916004016116ba565b9091565b3461064d576020611605611912611907366118b1565b939192933691610bb6565b9133906138a4565b3461064d57608036600319011261064d576004356001600160401b03811161064d5761194a903690600401610c9d565b6024356001600160401b03811161064d57611969903690600401610d04565b906044356001600160401b03811161064d57611989903690600401610d61565b90606435916001600160401b03831161064d57610825936119b161177d943690600401610bed565b9261307f565b3461064d57602036600319011261064d576004356119d481610b6b565b60018060a01b031660005260026020526020604060002054604051908152f35b60a060031982011261064d576004356001600160401b03811161064d5781611a1e91600401610bed565b916024356001600160401b03811161064d5782611a3d91600401610bed565b916044356001600160401b03811161064d5781611a5c91600401610c9d565b916064356001600160401b03811161064d5782611a7b91600401610d04565b91608435906001600160401b03821161064d576107cc91600401610d61565b3461064d57611b0b611aab366119f4565b90611abc8483838698999796613bb0565b94611ac5610b7c565b8681526020810188905260408101949094526060840152608083015260a08201523360c08201524260e0820152611b0683600052600e602052604060002090565b612f4d565b611b1481613034565b60115460ff1680611c64575b611b5d575b80600080516020614b6b833981519152611b4a6108259460405191829133908361314b565b0390a26040519081529081906020820190565b611b81611b74826000526013602052604060002090565b805460ff19166001179055565b6010547f00000000000000000000000000000000000000000000000000000000000000006001600160a01b03169290833b1561064d57611b4a8392600080611bf361082598600080516020614b6b833981519152966040519485809481936340c10f1960e01b83523360048401613130565b03925af19081611c4f575b50611c0e575b9450505050611b25565b836010547ff0c3618251eb6eca46b4b886abbc04ca7b2678102f9601650c87485697ffb97f60405180611c473394829190602083019252565b0390a3611c04565b806110396000611c5e936104b5565b38611bfe565b507f00000000000000000000000000000000000000000000000000000000000000006001600160a01b03161515611b20565b3461064d57600036600319011261064d5760e0611cd27f0000000000000000000000000000000000000000000000000000000000000000614700565b610825611cfe7f000000000000000000000000000000000000000000000000000000000000000061475d565b91611d3e60209361063060405193611d1687866104b5565b60008552601f1987013688870137604051978897600f60f81b895288015260e087019061059d565b90466060850152306080850152600060a085015283820360c08501526108e9565b3461064d57600036600319011261064d576020600d54604051908152f35b3461064d57608036600319011261064d57600435611d996115c3565b9060443591611da783610b6b565b6064356001600160401b03811161064d57611222611dcc611e5b923690600401610bed565b6001600160a01b0386166000908152600260205260409020805460018101909155611e559060405160208101917ff2aad550cf55f045cb27e9c559f9889fdfb6e6cdaa032301d6ea397784ae51d7835288604083015260ff8816606083015260018060a01b038a16608083015260a082015260a08152611e4d60c0826104b5565b5190206138c2565b866138f2565b611e76579061177d9161082593611e706128f2565b926138a4565b6394ab6c0760e01b6000526001600160a01b03831660045260245b6000fd5b3461064d57600036600319011261064d576020611eb0613173565b65ffffffffffff60405191168152f35b3461064d57600036600319011261064d57602060405160648152f35b3461064d57606036600319011261064d57600435611ef981610b6b565b6044356024356001600160401b03821161064d57611f3d92611f216020933690600401610bed565b50604051630748d63560e31b8152938492839260048401613130565b03817f00000000000000000000000000000000000000000000000000000000000000006001600160a01b03165afa80156110455761082591600091611f8e575b506040519081529081906020820190565b611fa7915060203d6020116110725761106481836104b5565b38611f7d565b3461064d57602036600319011261064d576004356000526013602052602060ff604060002054166040519015158152f35b3461064d57600036600319011261064d5760206001600160d01b03612001613cd3565b16604051908152f35b3461064d57602036600319011261064d5760043561202781610b6b565b61202f6133f0565b600954604080516001600160a01b03808416825290931660208401819052927f08f74ea46ef7894f65eabfb5e6e695de773a000b47c529ab559178069b2264019190a16001600160a01b03191617600955005b3461064d57602036600319011261064d57602060405160018152f35b3461064d57602036600319011261064d576020611605600435600052600460205265ffffffffffff6001604060002001541690565b3461064d57600036600319011261064d576040517f00000000000000000000000000000000000000000000000000000000000000006001600160a01b03168152602090f35b3461064d5760a036600319011261064d57612134600435610b6b565b61213f602435610b6b565b6044356001600160401b03811161064d5761215e903690600401610d04565b506064356001600160401b03811161064d5761217e903690600401610d04565b506084356001600160401b03811161064d5761219e903690600401610bed565b506108256121aa61320d565b6040516001600160e01b031990911681529081906020820190565b3461064d57602036600319011261064d57602061160560043561322c565b3461064d57600036600319011261064d576020600f54604051908152f35b606036600319011261064d5760043561221981610b6b565b6024356044356001600160401b03811161064d5761002192600092612243849336906004016116ba565b919061224d6133f0565b826040519384928337810185815203925af1612267613277565b90613d1a565b3461064d57602061160561228036610ddf565b929190916132a7565b634e487b7160e01b600052603260045260246000fd5b3461064d57602036600319011261064d57600435600f5481101561064d57600f6000527f8d1108e10bcb7c27dddfc02ed9d693a074039d026cf4ea4240b40f7d581ac8020154604051908152602090f35b3461064d57600036600319011261064d576009546040516001600160a01b039091168152602090f35b3461064d57600036600319011261064d57610825604080519061233c81836104b5565b602082527f737570706f72743d627261766f2671756f72756d3d666f722c6162737461696e60208301525191829160208352602083019061059d565b3461064d57600036600319011261064d5760206040517ff2aad550cf55f045cb27e9c559f9889fdfb6e6cdaa032301d6ea397784ae51d78152f35b3461064d5760206123d76116056115fd6123cc366118b1565b959192953691610bb6565b9033856138a4565b3461064d57604036600319011261064d576004356123fc81610b6b565b612433602435916020928391600060405161241785826104b5565b52604051630748d63560e31b8152938492839260048401613130565b03817f00000000000000000000000000000000000000000000000000000000000000006001600160a01b03165afa9081156110455761082592600092612486575b50506040519081529081906020820190565b61249c9250803d106110725761106481836104b5565b3880612474565b3461064d57600036600319011261064d57604051600f548082526020820190600f60005260206000209060005b8181106124fb57610825856124e7818703826104b5565b6040519182916020835260208301906108e9565b82548452602090930192600192830192016124d0565b3461064d5760a036600319011261064d5761252d600435610b6b565b612538602435610b6b565b6084356001600160401b03811161064d57612557903690600401610bed565b50600954306001600160a01b0390911603610c755760405163f23a6e6160e01b8152602090f35b3461064d57602036600319011261064d57602061160560043561333d565b3461064d57600036600319011261064d576040517f00000000000000000000000000000000000000000000000000000000000000006001600160a01b03168152602090f35b3461064d57610825611b4a612666600080516020614b6b833981519152612607366119f4565b61261a848284869a969b9897959b613bb0565b9788976040519361262a85610494565b89855286602086015260408501526060840152608083015260a08201523360c08201524260e082015285600052600e6020526040600020612f4d565b61266f84613034565b60405191829133908361314b565b1561268457565b60405162461bcd60e51b8152602060048201526017602482015276141c9bdc1bdcd85b08191bd95cc81b9bdd08195e1a5cdd604a1b6044820152606490fd5b906040519182815491828252602082019060005260206000209260005b8181106126f557505061050f925003836104b5565b84546001600160a01b03168352600194850194879450602090930192016126e0565b906040519182815491828252602082019060005260206000209260005b81811061274957505061050f925003836104b5565b8454835260019485019487945060209093019201612734565b6000929181549161277283610444565b80835292600181169081156127c8575060011461278e57505050565b60009081526020812093945091925b8383106127ae575060209250010190565b60018160209294939454838587010152019101919061279d565b915050602093945060ff929192191683830152151560051b010190565b9081546127f181610c86565b926127ff60405194856104b5565b818452602084019060005260206000206000915b8383106128205750505050565b60016020819260405161283e816128378189612762565b03826104b5565b815201920192019190612813565b906007612857610b7c565b9280548452612868600182016104d6565b6020850152612879600282016104d6565b604085015261288a600382016126c3565b606085015261289b60048201612717565b60808501526128ac600582016127e5565b60a085015260068101546001600160a01b031660c0850152015460e0830152565b80518210156128e15760209160051b010190565b612289565b6040513d6000823e3d90fd5b604051906129016020836104b5565b60008252565b604051906129166040836104b5565b601d82527f6d6f64653d626c6f636b6e756d6265722666726f6d3d64656661756c740000006020830152565b604051634bf5d7e960e01b81526000816004817f00000000000000000000000000000000000000000000000000000000000000006001600160a01b03165afa60009181612998575b506107cc57506107cc612907565b90913d8082843e6129a981846104b5565b820191602081840312612a17578051906001600160401b038211612a1b570182601f82011215612a17578051916129df83610b9b565b936129ed60405195866104b5565b83855260208484010111612a14575090612a0d916020808501910161057a565b903861298a565b80fd5b5080fd5b8280fd5b6107cc9160405191612a326020846104b5565b6000835233906138a4565b939092919695611222612afa91612af48a612a738160018060a01b03166000526002602052604060002080549060018201905590565b612a7e36888a610bb6565b602081519101208b5160208d0120906040519260208401947f3e83946653575f9a39005e1545185629e92736b7528ab20ca3816f315424a81186528d604086015260ff8d16606086015260018060a01b0316608085015260a084015260c083015260e082015260e08152611e4d610100826104b5565b8a6138f2565b612b15576107cc959691612b0f913691610bb6565b92613a1c565b6394ab6c0760e01b6000526001600160a01b03871660045260246000fd5b634e487b7160e01b600052601160045260246000fd5b600019810191908211612b5857565b612b33565b91908203918211612b5857565b600854906000198201828111612b58578211156128e15760086000527ff3f7a9fe364faab93b216da50a3214154f22a0a2b415b23a84c8169e8b636ee282015465ffffffffffff8116821015612c8c5750612bc490613b64565b6000829160058411612c35575b612bdb9350614377565b80612be65750600090565b612c29612c22612bf86107cc93612b49565b60086000527ff3f7a9fe364faab93b216da50a3214154f22a0a2b415b23a84c8169e8b636ee30190565b5460301c90565b6001600160d01b031690565b9192612c4081614219565b8103908111612b5857612bdb93600860005265ffffffffffff82602060002001541665ffffffffffff851610600014612c7a575091612bd1565b929150612c8690613b95565b90612bd1565b91505060301c90565b818110612ca0575050565b60008155600101612c95565b9190601f8111612cbb57505050565b61050f926000526020600020906020601f840160051c83019310612ce7575b601f0160051c0190612c95565b9091508190612cda565b91909182516001600160401b0381116104b057612d1881612d128454610444565b84612cac565b6020601f8211600114612d59578190612d4a939495600092612d4e575b50508160011b916000199060031b1c19161790565b9055565b015190503880612d35565b601f19821690612d6e84600052602060002090565b9160005b818110612daa57509583600195969710612d91575b505050811b019055565b015160001960f88460031b161c19169055388080612d87565b9192602060018192868b015181550194019201612d72565b908160011b9180830460021490151715612b5857565b908160041b9180830460101490151715612b5857565b91818110612dfb57505050565b61050f9260005260206000209182019101612c95565b8151916001600160401b0383116104b057600160401b83116104b057602090612e3f84845481865585612dee565b0190600052602060002060005b838110612e595750505050565b600190602084519401938184015501612e4c565b815191600160401b83116104b0578154838355808410612eca575b506020612e9c910191600052602060002090565b6000915b838310612ead5750505050565b6001602082612ebe83945186612cf1565b01920192019190612ea0565b8260005283602060002091820191015b818110612ee75750612e88565b80612ef460019254610444565b80612f01575b5001612eda565b601f81118314612f175750600081555b38612efa565b612f3b9083601f612f2d85600052602060002090565b920160051c82019101612c95565b60008181526020812081835555612f11565b9080518255612f63602082015160018401612cf1565b612f74604082015160028401612cf1565b6060810151600383018151916001600160401b0383116104b057600160401b83116104b057602090612fab84845481865585612dee565b0190600052602060002060005b838110613017575050505060e081612fd96080600794015160048601612e11565b612fea60a082015160058601612e6d565b60c08101516006850180546001600160a01b0319166001600160a01b039092169190911790550151910155565b82516001600160a01b031681830155602090920191600101612fb8565b600f54600160401b8110156104b05760018101600f556000600f548210156128e157600f90527f8d1108e10bcb7c27dddfc02ed9d693a074039d026cf4ea4240b40f7d581ac8020155565b92613108600080516020614b6b8339815191529293946130a183878784613bb0565b958695604051926130b184610494565b8784526020956040516130c488826104b5565b600081528786015260408501526060840152608083015260a082015260018060a01b03331660c08201524260e0820152611b0685600052600e602052604060002090565b61311183613034565b604080518181526000918101919091523391810191909152606090a290565b6001600160a01b039091168152602081019190915260400190565b9061316360209194939460408452604084019061059d565b6001600160a01b03909416910152565b6040516324776b7d60e21b81526020816004817f00000000000000000000000000000000000000000000000000000000000000006001600160a01b03165afa80916000916131cc575b50906107cc57506107cc43613b64565b6020813d602011613205575b816131e5602093836104b5565b81010312612a1757519065ffffffffffff82168203612a145750386131bc565b3d91506131d8565b600954306001600160a01b0390911603610c755763bc197c8160e01b90565b80600052600460205265ffffffffffff60406000205460a01c1690600052600460205263ffffffff60406000205460d01c160165ffffffffffff8111612b585765ffffffffffff1690565b3d156132a2573d9061328882610b9b565b9161329660405193846104b5565b82523d6000602084013e565b606090565b9290613308916132f46132e2946040519586946132d0602087019960808b5260a08801906108ac565b868103601f19016040880152906108e9565b848103601f190160608601529061091d565b90608083015203601f1981018352826104b5565b51902090565b9081602091031261064d575190565b8115613327570490565b634e487b7160e01b600052601260045260246000fd5b604051632394e7a360e21b815260048101829052906020826024817f00000000000000000000000000000000000000000000000000000000000000006001600160a01b03165afa918215611045576000926133b5575b5061339d90612b6a565b90818102918183041490151715612b58576064900490565b61339d9192506133d39060203d6020116110725761106481836104b5565b9190613393565b600954306001600160a01b0390911603610c7557565b600954336001600160a01b039091160361345b57600954306001600160a01b039091160361341a57565b61342336610b9b565b61343060405191826104b5565b368152602081019036600083376000602036830101525190205b80613453613d42565b0361344a5750565b6347096e4760e01b6000523360045260246000fd5b600881101561139f5760ff600191161b90565b60045260649190600881101561139f576024526000604452565b6134a681613620565b9060106134b283613470565b16156134bc575090565b6331b75e4d60e01b6000526004526134d491506113a4565b601060445260646000fd5b6134e881613620565b9060016134f483613470565b16156134fe575090565b6331b75e4d60e01b60005260045261351691506113a4565b600160445260646000fd5b61352a81613620565b90600261353683613470565b1615613540575090565b6331b75e4d60e01b60005260045261355891506113a4565b600260445260646000fd5b9061356d82613620565b918161357884613470565b161561358357505090565b6331b75e4d60e01b60005260045261359a826113a4565b60445260646000fd5b6005546001608082901c9081016001600160801b0390811693921683146135f857600090815260066020526040902055600580546001600160801b031660809290921b6001600160801b031916919091179055565b634e487b7160005260416020526024601cfd5b9081602091031261064d57516107cc81610acb565b61362981613ecf565b9061363382611395565b6005820361372d576136509150600052600a602052604060002090565b54600954613666906001600160a01b0316610e86565b604051632c258a9f60e11b815260048101839052602081602481855afa9081156110455760009161370e575b501561369f575050600590565b604051632ab0f52960e01b81526004810192909252602090829060249082905afa908115611045576000916136df575b50156136da57600790565b600290565b613701915060203d602011613707575b6136f981836104b5565b81019061360b565b386136cf565b503d6136ef565b613727915060203d602011613707576136f981836104b5565b38613692565b5090565b9061374161122260115460ff1690565b801561387c575b801561384b575b61384757613785611b748261376e856000526012602052604060002090565b9060018060a01b0316600052602052604060002090565b6010547f00000000000000000000000000000000000000000000000000000000000000006001600160a01b0316803b1561064d576040516340c10f1960e01b81529160009183918290849082906137e0908960048401613130565b03925af19081613832575b506137f4575050565b6010546040519081526001600160a01b0391909116907f229ce2adf50346057d2b3f58f69972516a126293c0b9b1c4616a55d397eec4d290602090a3565b806110396000613841936104b5565b386137eb565b5050565b507f00000000000000000000000000000000000000000000000000000000000000006001600160a01b03161561374f565b5061389f6138988261376e856000526012602052604060002090565b5460ff1690565b613748565b916107cc9391604051936138b96020866104b5565b60008552613a1c565b6042906138cd613ff4565b906040519161190160f01b8352600283015260228201522090565b6004111561139f57565b9190823b61392d57906139049161410a565b5061390e816138e8565b15918261391a57505090565b6001600160a01b03918216911614919050565b9160009261396461397285946040519283916020830195630b135d3f60e11b8752602484015260406044840152606483019061059d565b03601f1981018352826104b5565b51915afa61397e613277565b816139ae575b8161398d575090565b90506139aa630b135d3f60e11b916020808251830101910161330e565b1490565b905060208151101590613984565b93909260ff6139e8936107cc97958752166020860152604085015260a0606085015260a084019061059d565b91608081840391015261059d565b909260ff6080936107cc969584521660208301526040820152816060820152019061059d565b929190613a2884613521565b50836000526004602052613a73602065ffffffffffff613a56604060002065ffffffffffff905460a01c1690565b604051630748d63560e31b81529384928392168660048401613130565b03817f00000000000000000000000000000000000000000000000000000000000000006001600160a01b03165afa801561104557613abc91600091613b45575b50838387614146565b94805115600014613b095750613b037fb8e138887d0aa13bab447e82de9d5c1777041ecd21ca36ba824ff1e6c07ddda4938660405194859460018060a01b031697856139f6565b0390a290565b613b03907fe2babfbac5889a709b63bb7f598b324e08bc5a4fb9ec647fb3cbc9ec07eb8712948760405195869560018060a01b031698866139bc565b613b5e915060203d6020116110725761106481836104b5565b38613ab3565b65ffffffffffff8111613b7c5765ffffffffffff1690565b6306dfcc6560e41b600052603060045260245260446000fd5b9060018201809211612b5857565b91908201809211612b5857565b9193929093613bbf82336143f1565b15613cbe57600d549485613bdb575b6107cc949550339361455d565b60001965ffffffffffff613bed613173565b160165ffffffffffff8111612b585765ffffffffffff1695613c37602060009889604051613c1b84826104b5565b5260405180938192630748d63560e31b83523360048401613130565b03817f00000000000000000000000000000000000000000000000000000000000000006001600160a01b03165afa9788156110455797613c9d575b50808710613c805750613bce565b636121770b60e11b60005233600452602487905260445260646000fd5b613cb791975060203d6020116110725761106481836104b5565b9538613c72565b63d9b3955760e01b6000523360045260246000fd5b60085480613ce15750600090565b80600019810111612b585760086000527ff3f7a9fe364faab93b216da50a3214154f22a0a2b415b23a84c8169e8b636ee2015460301c90565b90919061050f5750805115613d3157805190602001fd5b63d6bda27560e01b60005260046000fd5b6005546001600160801b038116919060801c8214613d9d57600082815260066020526040808220546001600160801b03808616845291832092909255600580546001600160801b031916600190950190911693909317909255565b634e487b7160005260316020526024601cfd5b949392613ddc608093613dce613dea9460a08a5260a08a01906108ac565b9088820360208a01526108e9565b90868203604088015261091d565b93600060608201520152565b9192613e2560a094613e17613e33949998979960c0875260c08701906108ac565b9085820360208701526108e9565b90838203604085015261091d565b946000606083015260808201520152565b60095490949192916001600160a01b03909116906001600160601b03193060601b16823b1561064d57613e926000956040519788968795869563e38335e560e01b8752189260048601613db0565b039134905af1801561104557613eb5575b506000908152600a6020526040812055565b80613ec2600080936104b5565b80031261064d5738613ea3565b613ee3816000526004602052604060002090565b5460f881901c9060f01c60ff16613fed57613fe757613f2c613f21613f12836000526004602052604060002090565b5460a01c65ffffffffffff1690565b65ffffffffffff1690565b8015613fd157613f3d613f21613173565b80911015613fca57613f4e8261322c565b10613f595750600190565b613f65611222826148c6565b8015613fa5575b15613f775750600390565b613f9790600052600460205265ffffffffffff6001604060002001541690565b613fa057600490565b600590565b50613fc56112228260005260076020526040600020600181015490541090565b613f6c565b5050600090565b636ad0607560e01b600052600482905260246000fd5b50600290565b5050600790565b307f00000000000000000000000000000000000000000000000000000000000000006001600160a01b031614806140e1575b1561404f577f000000000000000000000000000000000000000000000000000000000000000090565b60405160208101907f8b73c3c69bb8fe3d512ecc4cf759cc79239f7b179b0ffacaa9a75d522b39400f82527f000000000000000000000000000000000000000000000000000000000000000060408201527f000000000000000000000000000000000000000000000000000000000000000060608201524660808201523060a082015260a0815261330860c0826104b5565b507f00000000000000000000000000000000000000000000000000000000000000004614614026565b815191906041830361413b5761413492506020820151906060604084015193015160001a9061490e565b9192909190565b505060009160029190565b61415d909291926000526007602052604060002090565b916003830161418161389883839060018060a01b0316600052602052604060002090565b6141fb57611b7460ff93926141a7929060018060a01b0316600052602052604060002090565b16806141be57506141b9828254613ba3565b905590565b600181036141d557506001016141b9828254613ba3565b6002036141ea576002016141b9828254613ba3565b6303599be160e11b60005260046000fd5b6371c6af4960e01b6000526001600160a01b03821660045260246000fd5b60018111156107cc57806001600160801b82101561433a575b6142e06142d66142cc6142c26142b86142ae61429d6142e79760046142ec9a600160401b81101561432d575b640100000000811015614320575b62010000811015614313575b610100811015614306575b60108110156142f9575b10156142f1575b60030260011c90565b6142a7818b61331d565b0160011c90565b6142a7818a61331d565b6142a7818961331d565b6142a7818861331d565b6142a7818761331d565b6142a7818661331d565b809361331d565b821190565b900390565b60011b614294565b60041c9160021b9161428d565b60081c9160041b91614283565b60101c9160081b91614278565b60201c9160101b9161426c565b60401c9160201b9161425e565b50506142ec6142e76142e06142d66142cc6142c26142b86142ae61429d6143618a60801c90565b9850600160401b97506142329650505050505050565b905b82811061438557505090565b90918082169080831860011c8201809211612b585760086000527ff3f7a9fe364faab93b216da50a3214154f22a0a2b415b23a84c8169e8b636ee382015465ffffffffffff90811690851610156143df5750915b90614379565b9291506143eb90613b95565b906143d9565b9080516034811061443e5760131981830101516001600160b01b03191669dc8f8d908f908c9a8dc360b01b0161443e576144309160291982019061498d565b901591821561391a57505090565b505050600190565b9061445082610c86565b61445d60405191826104b5565b828152809261446e601f1991610c86565b019060005b82811061447f57505050565b806060602080938501015201614473565b9599989697949391926144d1936144c392885260018060a01b0316602088015261012060408801526101208701906108ac565b9085820360608701526108e9565b968388036080850152815180895260208901906020808260051b8c01019401916000905b82821061453157505050506107cc969750906145189184820360a086015261091d565b9360c083015260e082015261010081840391015261059d565b9091929460208061454f6001938f601f19908203018652895161059d565b9701920192019092916144f5565b929094939194614575825160208401208783876132a7565b9584518251908181148015906146f5575b80156146ed575b6146cd57505065ffffffffffff6145b1613f12896000526004602052604060002090565b166146af57916146aa917f7d84a6263ae0d98d3329bd7b46bb4e8d6f98cd35a7adb45c274c8b7fd5ebd5e09594936145fb6145ea613173565b65ffffffffffff600b549116613ba3565b90600c546146886146168c6000526004602052604060002090565b80546001600160a01b0319166001600160a01b038a1617815561465f61463b86613b64565b825465ffffffffffff60a01b191660a09190911b65ffffffffffff60a01b16178255565b61466883614a1f565b815463ffffffff60d01b191660d09190911b63ffffffff60d01b16179055565b61469c6146958951614446565b9184613ba3565b936040519889988d8a614490565b0390a1565b611e91876146bc81613620565b6331b75e4d60e01b60005290613483565b9151630447b05d60e41b6000908152600493909352602452604452606490fd5b50801561458d565b508251811415614586565b60ff811461474a5760ff811690601f821161473957604080519261472482856104b5565b6020808552840191601f190136833783525290565b632cd44ac360e21b60005260046000fd5b506040516107cc81612837816000612762565b60ff81146147815760ff811690601f821161473957604080519261472482856104b5565b506040516107cc81612837816001612762565b805490600160401b8210156104b057600182018155600081548310156128e1579081526020908190208351939091015160301b65ffffffffffff191665ffffffffffff90931692909217910155565b600854919291801561489c57612bf86147fb91612b49565b9081546148176148108265ffffffffffff1690565b9160301c90565b9265ffffffffffff80841692169180831161488b578692036148555761485192509065ffffffffffff82549181199060301b169116179055565b9190565b505061485190614874614866610b8c565b65ffffffffffff9092168252565b6001600160d01b03851660208201525b6008614794565b632520601d60e01b60005260046000fd5b506148c0906148ac614866610b8c565b6001600160d01b0384166020820152614884565b60009190565b80600052600760205260406000209060005260046020526148f665ffffffffffff60406000205460a01c1661333d565b600260018301549201548201809211612b5857111590565b91906fa2a8918ca85bafe22016d0b997e4df60600160ff1b038411614981579160209360809260ff60009560405194855216868401526040830152606082015282805260015afa15611045576000516001600160a01b038116156149755790600090600090565b50600090600190600090565b50505060009160039190565b9190825182118015614a16575b6149ed576149a781613b95565b8211806149f8575b6149ba901515612dc2565b60280180602811612b58576149cf8284612b5d565b036149ed576149dd92614a4c565b90916001600160a01b0390911690565b505050600090600090565b50602081840101516001600160f01b03191661060f60f31b146149af565b5081811161499a565b63ffffffff8111614a335763ffffffff1690565b6306dfcc6560e41b600052602060045260245260446000fd5b929092614a5884613b95565b831180614ada575b614a72614a7a91949293941515612dc2565b600095613ba3565b915b818310614a8c5750505060019190565b9092919360ff614aad614aa86020888601015160ff60f81b1690565b614af8565b1690600f8211614ace5790614ac3600192612dd8565b019401919290614a7c565b50600094508493505050565b50602084820101516001600160f01b03191661060f60f31b14614a60565b60f81c602f811180614b60575b15614b1457602f190160ff1690565b6060811180614b56575b15614b2d576056190160ff1690565b6040811180614b4c575b15614b46576036190160ff1690565b5060ff90565b5060478110614b37565b5060678110614b1e565b50603a8110614b0556fe8cfb460f974cd36d8e9ee4ed5681cac9f682065a80e06fc949fddfb2ab71a929a264697066735822122064f0180a34a32f64483d6ae187b85f028064dee6a6b739ab5574ceb5f652cc1764736f6c634300081c0033",
  "linkReferences": {},
  "deployedLinkReferences": {}
}