{
  "_format": "hh-sol-artifact-1",
  "contractName": "GraviGovernance",
  "sourceName": "contracts/GraviGovernance.sol",
  "abi": [
    {
      "inputs": [
        {
          "internalType": "contract IVotes",
          "name": "token",
          "type": "address"
        },
        {
          "internalType": "contract TimelockController",
          "name": "timelock",
          "type": "address"
        }
      ],
      "stateMutability": "nonpayable",
      "type": "constructor"
    },
    {
      "inputs": [],
      "name": "CheckpointUnorderedInsertion",
      "type": "error"
    },
    {
      "inputs": [],
      "name": "FailedCall",
      "type": "error"
    },
    {
      "inputs": [
        {
          "internalType": "address",
          "name": "voter",
          "type": "address"
        }
      ],
      "name": "GovernorAlreadyCastVote",
      "type": "error"
    },
    {
      "inputs": [
        {
          "internalType": "uint256",
          "name": "proposalId",
          "type": "uint256"
        }
      ],
      "name": "GovernorAlreadyQueuedProposal",
      "type": "error"
    },
    {
      "inputs": [],
      "name": "GovernorDisabledDeposit",
      "type": "error"
    },
    {
      "inputs": [
        {
          "internalType": "address",
          "name": "proposer",
          "type": "address"
        },
        {
          "internalType": "uint256",
          "name": "votes",
          "type": "uint256"
        },
        {
          "internalType": "uint256",
          "name": "threshold",
          "type": "uint256"
        }
      ],
      "name": "GovernorInsufficientProposerVotes",
      "type": "error"
    },
    {
      "inputs": [
        {
          "internalType": "uint256",
          "name": "targets",
          "type": "uint256"
        },
        {
          "internalType": "uint256",
          "name": "calldatas",
          "type": "uint256"
        },
        {
          "internalType": "uint256",
          "name": "values",
          "type": "uint256"
        }
      ],
      "name": "GovernorInvalidProposalLength",
      "type": "error"
    },
    {
      "inputs": [
        {
          "internalType": "uint256",
          "name": "quorumNumerator",
          "type": "uint256"
        },
        {
          "internalType": "uint256",
          "name": "quorumDenominator",
          "type": "uint256"
        }
      ],
      "name": "GovernorInvalidQuorumFraction",
      "type": "error"
    },
    {
      "inputs": [
        {
          "internalType": "address",
          "name": "voter",
          "type": "address"
        }
      ],
      "name": "GovernorInvalidSignature",
      "type": "error"
    },
    {
      "inputs": [],
      "name": "GovernorInvalidVoteParams",
      "type": "error"
    },
    {
      "inputs": [],
      "name": "GovernorInvalidVoteType",
      "type": "error"
    },
    {
      "inputs": [
        {
          "internalType": "uint256",
          "name": "votingPeriod",
          "type": "uint256"
        }
      ],
      "name": "GovernorInvalidVotingPeriod",
      "type": "error"
    },
    {
      "inputs": [
        {
          "internalType": "uint256",
          "name": "proposalId",
          "type": "uint256"
        }
      ],
      "name": "GovernorNonexistentProposal",
      "type": "error"
    },
    {
      "inputs": [
        {
          "internalType": "uint256",
          "name": "proposalId",
          "type": "uint256"
        }
      ],
      "name": "GovernorNotQueuedProposal",
      "type": "error"
    },
    {
      "inputs": [
        {
          "internalType": "address",
          "name": "account",
          "type": "address"
        }
      ],
      "name": "GovernorOnlyExecutor",
      "type": "error"
    },
    {
      "inputs": [
        {
          "internalType": "address",
          "name": "account",
          "type": "address"
        }
      ],
      "name": "GovernorOnlyProposer",
      "type": "error"
    },
    {
      "inputs": [],
      "name": "GovernorQueueNotImplemented",
      "type": "error"
    },
    {
      "inputs": [
        {
          "internalType": "address",
          "name": "proposer",
          "type": "address"
        }
      ],
      "name": "GovernorRestrictedProposer",
      "type": "error"
    },
    {
      "inputs": [
        {
          "internalType": "uint256",
          "name": "proposalId",
          "type": "uint256"
        },
        {
          "internalType": "enum IGovernor.ProposalState",
          "name": "current",
          "type": "uint8"
        },
        {
          "internalType": "bytes32",
          "name": "expectedStates",
          "type": "bytes32"
        }
      ],
      "name": "GovernorUnexpectedProposalState",
      "type": "error"
    },
    {
      "inputs": [
        {
          "internalType": "address",
          "name": "account",
          "type": "address"
        },
        {
          "internalType": "uint256",
          "name": "currentNonce",
          "type": "uint256"
        }
      ],
      "name": "InvalidAccountNonce",
      "type": "error"
    },
    {
      "inputs": [],
      "name": "InvalidShortString",
      "type": "error"
    },
    {
      "inputs": [
        {
          "internalType": "uint8",
          "name": "bits",
          "type": "uint8"
        },
        {
          "internalType": "uint256",
          "name": "value",
          "type": "uint256"
        }
      ],
      "name": "SafeCastOverflowedUintDowncast",
      "type": "error"
    },
    {
      "inputs": [
        {
          "internalType": "string",
          "name": "str",
          "type": "string"
        }
      ],
      "name": "StringTooLong",
      "type": "error"
    },
    {
      "anonymous": false,
      "inputs": [],
      "name": "EIP712DomainChanged",
      "type": "event"
    },
    {
      "anonymous": false,
      "inputs": [
        {
          "indexed": true,
          "internalType": "uint256",
          "name": "proposalId",
          "type": "uint256"
        },
        {
          "indexed": false,
          "internalType": "string",
          "name": "title",
          "type": "string"
        },
        {
          "indexed": false,
          "internalType": "address",
          "name": "proposer",
          "type": "address"
        }
      ],
      "name": "GraviProposalCreated",
      "type": "event"
    },
    {
      "anonymous": false,
      "inputs": [
        {
          "indexed": false,
          "internalType": "uint256",
          "name": "proposalId",
          "type": "uint256"
        }
      ],
      "name": "ProposalCanceled",
      "type": "event"
    },
    {
      "anonymous": false,
      "inputs": [
        {
          "indexed": false,
          "internalType": "uint256",
          "name": "proposalId",
          "type": "uint256"
        },
        {
          "indexed": false,
          "internalType": "address",
          "name": "proposer",
          "type": "address"
        },
        {
          "indexed": false,
          "internalType": "address[]",
          "name": "targets",
          "type": "address[]"
        },
        {
          "indexed": false,
          "internalType": "uint256[]",
          "name": "values",
          "type": "uint256[]"
        },
        {
          "indexed": false,
          "internalType": "string[]",
          "name": "signatures",
          "type": "string[]"
        },
        {
          "indexed": false,
          "internalType": "bytes[]",
          "name": "calldatas",
          "type": "bytes[]"
        },
        {
          "indexed": false,
          "internalType": "uint256",
          "name": "voteStart",
          "type": "uint256"
        },
        {
          "indexed": false,
          "internalType": "uint256",
          "name": "voteEnd",
          "type": "uint256"
        },
        {
          "indexed": false,
          "internalType": "string",
          "name": "description",
          "type": "string"
        }
      ],
      "name": "ProposalCreated",
      "type": "event"
    },
    {
      "anonymous": false,
      "inputs": [
        {
          "indexed": false,
          "internalType": "uint256",
          "name": "proposalId",
          "type": "uint256"
        }
      ],
      "name": "ProposalExecuted",
      "type": "event"
    },
    {
      "anonymous": false,
      "inputs": [
        {
          "indexed": false,
          "internalType": "uint256",
          "name": "proposalId",
          "type": "uint256"
        },
        {
          "indexed": false,
          "internalType": "uint256",
          "name": "etaSeconds",
          "type": "uint256"
        }
      ],
      "name": "ProposalQueued",
      "type": "event"
    },
    {
      "anonymous": false,
      "inputs": [
        {
          "indexed": false,
          "internalType": "uint256",
          "name": "oldQuorumNumerator",
          "type": "uint256"
        },
        {
          "indexed": false,
          "internalType": "uint256",
          "name": "newQuorumNumerator",
          "type": "uint256"
        }
      ],
      "name": "QuorumNumeratorUpdated",
      "type": "event"
    },
    {
      "anonymous": false,
      "inputs": [
        {
          "indexed": false,
          "internalType": "address",
          "name": "oldTimelock",
          "type": "address"
        },
        {
          "indexed": false,
          "internalType": "address",
          "name": "newTimelock",
          "type": "address"
        }
      ],
      "name": "TimelockChange",
      "type": "event"
    },
    {
      "anonymous": false,
      "inputs": [
        {
          "indexed": true,
          "internalType": "address",
          "name": "voter",
          "type": "address"
        },
        {
          "indexed": false,
          "internalType": "uint256",
          "name": "proposalId",
          "type": "uint256"
        },
        {
          "indexed": false,
          "internalType": "uint8",
          "name": "support",
          "type": "uint8"
        },
        {
          "indexed": false,
          "internalType": "uint256",
          "name": "weight",
          "type": "uint256"
        },
        {
          "indexed": false,
          "internalType": "string",
          "name": "reason",
          "type": "string"
        }
      ],
      "name": "VoteCast",
      "type": "event"
    },
    {
      "anonymous": false,
      "inputs": [
        {
          "indexed": true,
          "internalType": "address",
          "name": "voter",
          "type": "address"
        },
        {
          "indexed": false,
          "internalType": "uint256",
          "name": "proposalId",
          "type": "uint256"
        },
        {
          "indexed": false,
          "internalType": "uint8",
          "name": "support",
          "type": "uint8"
        },
        {
          "indexed": false,
          "internalType": "uint256",
          "name": "weight",
          "type": "uint256"
        },
        {
          "indexed": false,
          "internalType": "string",
          "name": "reason",
          "type": "string"
        },
        {
          "indexed": false,
          "internalType": "bytes",
          "name": "params",
          "type": "bytes"
        }
      ],
      "name": "VoteCastWithParams",
      "type": "event"
    },
    {
      "inputs": [],
      "name": "BALLOT_TYPEHASH",
      "outputs": [
        {
          "internalType": "bytes32",
          "name": "",
          "type": "bytes32"
        }
      ],
      "stateMutability": "view",
      "type": "function"
    },
    {
      "inputs": [],
      "name": "CLOCK_MODE",
      "outputs": [
        {
          "internalType": "string",
          "name": "",
          "type": "string"
        }
      ],
      "stateMutability": "view",
      "type": "function"
    },
    {
      "inputs": [],
      "name": "COUNTING_MODE",
      "outputs": [
        {
          "internalType": "string",
          "name": "",
          "type": "string"
        }
      ],
      "stateMutability": "pure",
      "type": "function"
    },
    {
      "inputs": [],
      "name": "EXTENDED_BALLOT_TYPEHASH",
      "outputs": [
        {
          "internalType": "bytes32",
          "name": "",
          "type": "bytes32"
        }
      ],
      "stateMutability": "view",
      "type": "function"
    },
    {
      "inputs": [
        {
          "internalType": "uint256",
          "name": "",
          "type": "uint256"
        }
      ],
      "name": "allProposalIds",
      "outputs": [
        {
          "internalType": "uint256",
          "name": "",
          "type": "uint256"
        }
      ],
      "stateMutability": "view",
      "type": "function"
    },
    {
      "inputs": [
        {
          "internalType": "address[]",
          "name": "targets",
          "type": "address[]"
        },
        {
          "internalType": "uint256[]",
          "name": "values",
          "type": "uint256[]"
        },
        {
          "internalType": "bytes[]",
          "name": "calldatas",
          "type": "bytes[]"
        },
        {
          "internalType": "bytes32",
          "name": "descriptionHash",
          "type": "bytes32"
        }
      ],
      "name": "cancel",
      "outputs": [
        {
          "internalType": "uint256",
          "name": "",
          "type": "uint256"
        }
      ],
      "stateMutability": "nonpayable",
      "type": "function"
    },
    {
      "inputs": [
        {
          "internalType": "uint256",
          "name": "proposalId",
          "type": "uint256"
        },
        {
          "internalType": "uint8",
          "name": "support",
          "type": "uint8"
        }
      ],
      "name": "castVote",
      "outputs": [
        {
          "internalType": "uint256",
          "name": "",
          "type": "uint256"
        }
      ],
      "stateMutability": "nonpayable",
      "type": "function"
    },
    {
      "inputs": [
        {
          "internalType": "uint256",
          "name": "proposalId",
          "type": "uint256"
        },
        {
          "internalType": "uint8",
          "name": "support",
          "type": "uint8"
        },
        {
          "internalType": "address",
          "name": "voter",
          "type": "address"
        },
        {
          "internalType": "bytes",
          "name": "signature",
          "type": "bytes"
        }
      ],
      "name": "castVoteBySig",
      "outputs": [
        {
          "internalType": "uint256",
          "name": "",
          "type": "uint256"
        }
      ],
      "stateMutability": "nonpayable",
      "type": "function"
    },
    {
      "inputs": [
        {
          "internalType": "uint256",
          "name": "proposalId",
          "type": "uint256"
        },
        {
          "internalType": "uint8",
          "name": "support",
          "type": "uint8"
        },
        {
          "internalType": "string",
          "name": "reason",
          "type": "string"
        }
      ],
      "name": "castVoteWithReason",
      "outputs": [
        {
          "internalType": "uint256",
          "name": "",
          "type": "uint256"
        }
      ],
      "stateMutability": "nonpayable",
      "type": "function"
    },
    {
      "inputs": [
        {
          "internalType": "uint256",
          "name": "proposalId",
          "type": "uint256"
        },
        {
          "internalType": "uint8",
          "name": "support",
          "type": "uint8"
        },
        {
          "internalType": "string",
          "name": "reason",
          "type": "string"
        },
        {
          "internalType": "bytes",
          "name": "params",
          "type": "bytes"
        }
      ],
      "name": "castVoteWithReasonAndParams",
      "outputs": [
        {
          "internalType": "uint256",
          "name": "",
          "type": "uint256"
        }
      ],
      "stateMutability": "nonpayable",
      "type": "function"
    },
    {
      "inputs": [
        {
          "internalType": "uint256",
          "name": "proposalId",
          "type": "uint256"
        },
        {
          "internalType": "uint8",
          "name": "support",
          "type": "uint8"
        },
        {
          "internalType": "address",
          "name": "voter",
          "type": "address"
        },
        {
          "internalType": "string",
          "name": "reason",
          "type": "string"
        },
        {
          "internalType": "bytes",
          "name": "params",
          "type": "bytes"
        },
        {
          "internalType": "bytes",
          "name": "signature",
          "type": "bytes"
        }
      ],
      "name": "castVoteWithReasonAndParamsBySig",
      "outputs": [
        {
          "internalType": "uint256",
          "name": "",
          "type": "uint256"
        }
      ],
      "stateMutability": "nonpayable",
      "type": "function"
    },
    {
      "inputs": [],
      "name": "clock",
      "outputs": [
        {
          "internalType": "uint48",
          "name": "",
          "type": "uint48"
        }
      ],
      "stateMutability": "view",
      "type": "function"
    },
    {
      "inputs": [
        {
          "internalType": "string",
          "name": "title",
          "type": "string"
        },
        {
          "internalType": "string",
          "name": "description",
          "type": "string"
        },
        {
          "internalType": "address[]",
          "name": "targets",
          "type": "address[]"
        },
        {
          "internalType": "uint256[]",
          "name": "values",
          "type": "uint256[]"
        },
        {
          "internalType": "bytes[]",
          "name": "calldatas",
          "type": "bytes[]"
        }
      ],
      "name": "createProposal",
      "outputs": [
        {
          "internalType": "uint256",
          "name": "proposalId",
          "type": "uint256"
        }
      ],
      "stateMutability": "nonpayable",
      "type": "function"
    },
    {
      "inputs": [],
      "name": "eip712Domain",
      "outputs": [
        {
          "internalType": "bytes1",
          "name": "fields",
          "type": "bytes1"
        },
        {
          "internalType": "string",
          "name": "name",
          "type": "string"
        },
        {
          "internalType": "string",
          "name": "version",
          "type": "string"
        },
        {
          "internalType": "uint256",
          "name": "chainId",
          "type": "uint256"
        },
        {
          "internalType": "address",
          "name": "verifyingContract",
          "type": "address"
        },
        {
          "internalType": "bytes32",
          "name": "salt",
          "type": "bytes32"
        },
        {
          "internalType": "uint256[]",
          "name": "extensions",
          "type": "uint256[]"
        }
      ],
      "stateMutability": "view",
      "type": "function"
    },
    {
      "inputs": [
        {
          "internalType": "address[]",
          "name": "targets",
          "type": "address[]"
        },
        {
          "internalType": "uint256[]",
          "name": "values",
          "type": "uint256[]"
        },
        {
          "internalType": "bytes[]",
          "name": "calldatas",
          "type": "bytes[]"
        },
        {
          "internalType": "bytes32",
          "name": "descriptionHash",
          "type": "bytes32"
        }
      ],
      "name": "execute",
      "outputs": [
        {
          "internalType": "uint256",
          "name": "",
          "type": "uint256"
        }
      ],
      "stateMutability": "payable",
      "type": "function"
    },
    {
      "inputs": [],
      "name": "getAllProposalIds",
      "outputs": [
        {
          "internalType": "uint256[]",
          "name": "",
          "type": "uint256[]"
        }
      ],
      "stateMutability": "view",
      "type": "function"
    },
    {
      "inputs": [],
      "name": "getProposalCount",
      "outputs": [
        {
          "internalType": "uint256",
          "name": "",
          "type": "uint256"
        }
      ],
      "stateMutability": "view",
      "type": "function"
    },
    {
      "inputs": [
        {
          "internalType": "uint256",
          "name": "proposalId",
          "type": "uint256"
        }
      ],
      "name": "getProposalDetail",
      "outputs": [
        {
          "components": [
            {
              "internalType": "uint256",
              "name": "id",
              "type": "uint256"
            },
            {
              "internalType": "string",
              "name": "title",
              "type": "string"
            },
            {
              "internalType": "string",
              "name": "description",
              "type": "string"
            },
            {
              "internalType": "address[]",
              "name": "targets",
              "type": "address[]"
            },
            {
              "internalType": "uint256[]",
              "name": "values",
              "type": "uint256[]"
            },
            {
              "internalType": "bytes[]",
              "name": "calldatas",
              "type": "bytes[]"
            },
            {
              "internalType": "address",
              "name": "proposer",
              "type": "address"
            },
            {
              "internalType": "uint256",
              "name": "created",
              "type": "uint256"
            }
          ],
          "internalType": "struct IGraviGovernance.ProposalData",
          "name": "",
          "type": "tuple"
        }
      ],
      "stateMutability": "view",
      "type": "function"
    },
    {
      "inputs": [
        {
          "internalType": "address",
          "name": "account",
          "type": "address"
        },
        {
          "internalType": "uint256",
          "name": "timepoint",
          "type": "uint256"
        }
      ],
      "name": "getVotes",
      "outputs": [
        {
          "internalType": "uint256",
          "name": "",
          "type": "uint256"
        }
      ],
      "stateMutability": "view",
      "type": "function"
    },
    {
      "inputs": [
        {
          "internalType": "address",
          "name": "account",
          "type": "address"
        },
        {
          "internalType": "uint256",
          "name": "timepoint",
          "type": "uint256"
        },
        {
          "internalType": "bytes",
          "name": "params",
          "type": "bytes"
        }
      ],
      "name": "getVotesWithParams",
      "outputs": [
        {
          "internalType": "uint256",
          "name": "",
          "type": "uint256"
        }
      ],
      "stateMutability": "view",
      "type": "function"
    },
    {
      "inputs": [],
      "name": "govProposalThreshold",
      "outputs": [
        {
          "internalType": "uint256",
          "name": "",
          "type": "uint256"
        }
      ],
      "stateMutability": "view",
      "type": "function"
    },
    {
      "inputs": [],
      "name": "govVotingDelay",
      "outputs": [
        {
          "internalType": "uint256",
          "name": "",
          "type": "uint256"
        }
      ],
      "stateMutability": "view",
      "type": "function"
    },
    {
      "inputs": [],
      "name": "govVotingPeriod",
      "outputs": [
        {
          "internalType": "uint256",
          "name": "",
          "type": "uint256"
        }
      ],
      "stateMutability": "view",
      "type": "function"
    },
    {
      "inputs": [
        {
          "internalType": "uint256",
          "name": "proposalId",
          "type": "uint256"
        },
        {
          "internalType": "address",
          "name": "account",
          "type": "address"
        }
      ],
      "name": "hasVoted",
      "outputs": [
        {
          "internalType": "bool",
          "name": "",
          "type": "bool"
        }
      ],
      "stateMutability": "view",
      "type": "function"
    },
    {
      "inputs": [
        {
          "internalType": "address[]",
          "name": "targets",
          "type": "address[]"
        },
        {
          "internalType": "uint256[]",
          "name": "values",
          "type": "uint256[]"
        },
        {
          "internalType": "bytes[]",
          "name": "calldatas",
          "type": "bytes[]"
        },
        {
          "internalType": "bytes32",
          "name": "descriptionHash",
          "type": "bytes32"
        }
      ],
      "name": "hashProposal",
      "outputs": [
        {
          "internalType": "uint256",
          "name": "",
          "type": "uint256"
        }
      ],
      "stateMutability": "pure",
      "type": "function"
    },
    {
      "inputs": [],
      "name": "name",
      "outputs": [
        {
          "internalType": "string",
          "name": "",
          "type": "string"
        }
      ],
      "stateMutability": "view",
      "type": "function"
    },
    {
      "inputs": [
        {
          "internalType": "address",
          "name": "owner",
          "type": "address"
        }
      ],
      "name": "nonces",
      "outputs": [
        {
          "internalType": "uint256",
          "name": "",
          "type": "uint256"
        }
      ],
      "stateMutability": "view",
      "type": "function"
    },
    {
      "inputs": [
        {
          "internalType": "address",
          "name": "",
          "type": "address"
        },
        {
          "internalType": "address",
          "name": "",
          "type": "address"
        },
        {
          "internalType": "uint256[]",
          "name": "",
          "type": "uint256[]"
        },
        {
          "internalType": "uint256[]",
          "name": "",
          "type": "uint256[]"
        },
        {
          "internalType": "bytes",
          "name": "",
          "type": "bytes"
        }
      ],
      "name": "onERC1155BatchReceived",
      "outputs": [
        {
          "internalType": "bytes4",
          "name": "",
          "type": "bytes4"
        }
      ],
      "stateMutability": "nonpayable",
      "type": "function"
    },
    {
      "inputs": [
        {
          "internalType": "address",
          "name": "",
          "type": "address"
        },
        {
          "internalType": "address",
          "name": "",
          "type": "address"
        },
        {
          "internalType": "uint256",
          "name": "",
          "type": "uint256"
        },
        {
          "internalType": "uint256",
          "name": "",
          "type": "uint256"
        },
        {
          "internalType": "bytes",
          "name": "",
          "type": "bytes"
        }
      ],
      "name": "onERC1155Received",
      "outputs": [
        {
          "internalType": "bytes4",
          "name": "",
          "type": "bytes4"
        }
      ],
      "stateMutability": "nonpayable",
      "type": "function"
    },
    {
      "inputs": [
        {
          "internalType": "address",
          "name": "",
          "type": "address"
        },
        {
          "internalType": "address",
          "name": "",
          "type": "address"
        },
        {
          "internalType": "uint256",
          "name": "",
          "type": "uint256"
        },
        {
          "internalType": "bytes",
          "name": "",
          "type": "bytes"
        }
      ],
      "name": "onERC721Received",
      "outputs": [
        {
          "internalType": "bytes4",
          "name": "",
          "type": "bytes4"
        }
      ],
      "stateMutability": "nonpayable",
      "type": "function"
    },
    {
      "inputs": [
        {
          "internalType": "uint256",
          "name": "proposalId",
          "type": "uint256"
        }
      ],
      "name": "proposalDeadline",
      "outputs": [
        {
          "internalType": "uint256",
          "name": "",
          "type": "uint256"
        }
      ],
      "stateMutability": "view",
      "type": "function"
    },
    {
      "inputs": [
        {
          "internalType": "uint256",
          "name": "proposalId",
          "type": "uint256"
        }
      ],
      "name": "proposalEta",
      "outputs": [
        {
          "internalType": "uint256",
          "name": "",
          "type": "uint256"
        }
      ],
      "stateMutability": "view",
      "type": "function"
    },
    {
      "inputs": [
        {
          "internalType": "uint256",
          "name": "proposalId",
          "type": "uint256"
        }
      ],
      "name": "proposalNeedsQueuing",
      "outputs": [
        {
          "internalType": "bool",
          "name": "",
          "type": "bool"
        }
      ],
      "stateMutability": "view",
      "type": "function"
    },
    {
      "inputs": [
        {
          "internalType": "uint256",
          "name": "proposalId",
          "type": "uint256"
        }
      ],
      "name": "proposalProposer",
      "outputs": [
        {
          "internalType": "address",
          "name": "",
          "type": "address"
        }
      ],
      "stateMutability": "view",
      "type": "function"
    },
    {
      "inputs": [
        {
          "internalType": "uint256",
          "name": "proposalId",
          "type": "uint256"
        }
      ],
      "name": "proposalSnapshot",
      "outputs": [
        {
          "internalType": "uint256",
          "name": "",
          "type": "uint256"
        }
      ],
      "stateMutability": "view",
      "type": "function"
    },
    {
      "inputs": [],
      "name": "proposalThreshold",
      "outputs": [
        {
          "internalType": "uint256",
          "name": "",
          "type": "uint256"
        }
      ],
      "stateMutability": "view",
      "type": "function"
    },
    {
      "inputs": [
        {
          "internalType": "uint256",
          "name": "proposalId",
          "type": "uint256"
        }
      ],
      "name": "proposalVotes",
      "outputs": [
        {
          "internalType": "uint256",
          "name": "againstVotes",
          "type": "uint256"
        },
        {
          "internalType": "uint256",
          "name": "forVotes",
          "type": "uint256"
        },
        {
          "internalType": "uint256",
          "name": "abstainVotes",
          "type": "uint256"
        }
      ],
      "stateMutability": "view",
      "type": "function"
    },
    {
      "inputs": [
        {
          "internalType": "uint256",
          "name": "",
          "type": "uint256"
        }
      ],
      "name": "proposals",
      "outputs": [
        {
          "internalType": "uint256",
          "name": "id",
          "type": "uint256"
        },
        {
          "internalType": "string",
          "name": "title",
          "type": "string"
        },
        {
          "internalType": "string",
          "name": "description",
          "type": "string"
        },
        {
          "internalType": "address",
          "name": "proposer",
          "type": "address"
        },
        {
          "internalType": "uint256",
          "name": "created",
          "type": "uint256"
        }
      ],
      "stateMutability": "view",
      "type": "function"
    },
    {
      "inputs": [
        {
          "internalType": "address[]",
          "name": "targets",
          "type": "address[]"
        },
        {
          "internalType": "uint256[]",
          "name": "values",
          "type": "uint256[]"
        },
        {
          "internalType": "bytes[]",
          "name": "calldatas",
          "type": "bytes[]"
        },
        {
          "internalType": "string",
          "name": "description",
          "type": "string"
        }
      ],
      "name": "propose",
      "outputs": [
        {
          "internalType": "uint256",
          "name": "",
          "type": "uint256"
        }
      ],
      "stateMutability": "nonpayable",
      "type": "function"
    },
    {
      "inputs": [
        {
          "internalType": "address[]",
          "name": "targets",
          "type": "address[]"
        },
        {
          "internalType": "uint256[]",
          "name": "values",
          "type": "uint256[]"
        },
        {
          "internalType": "bytes[]",
          "name": "calldatas",
          "type": "bytes[]"
        },
        {
          "internalType": "bytes32",
          "name": "descriptionHash",
          "type": "bytes32"
        }
      ],
      "name": "queue",
      "outputs": [
        {
          "internalType": "uint256",
          "name": "",
          "type": "uint256"
        }
      ],
      "stateMutability": "nonpayable",
      "type": "function"
    },
    {
      "inputs": [
        {
          "internalType": "uint256",
          "name": "timepoint",
          "type": "uint256"
        }
      ],
      "name": "quorum",
      "outputs": [
        {
          "internalType": "uint256",
          "name": "",
          "type": "uint256"
        }
      ],
      "stateMutability": "view",
      "type": "function"
    },
    {
      "inputs": [],
      "name": "quorumDenominator",
      "outputs": [
        {
          "internalType": "uint256",
          "name": "",
          "type": "uint256"
        }
      ],
      "stateMutability": "view",
      "type": "function"
    },
    {
      "inputs": [
        {
          "internalType": "uint256",
          "name": "timepoint",
          "type": "uint256"
        }
      ],
      "name": "quorumNumerator",
      "outputs": [
        {
          "internalType": "uint256",
          "name": "",
          "type": "uint256"
        }
      ],
      "stateMutability": "view",
      "type": "function"
    },
    {
      "inputs": [],
      "name": "quorumNumerator",
      "outputs": [
        {
          "internalType": "uint256",
          "name": "",
          "type": "uint256"
        }
      ],
      "stateMutability": "view",
      "type": "function"
    },
    {
      "inputs": [
        {
          "internalType": "address",
          "name": "target",
          "type": "address"
        },
        {
          "internalType": "uint256",
          "name": "value",
          "type": "uint256"
        },
        {
          "internalType": "bytes",
          "name": "data",
          "type": "bytes"
        }
      ],
      "name": "relay",
      "outputs": [],
      "stateMutability": "payable",
      "type": "function"
    },
    {
      "inputs": [
        {
          "internalType": "uint256",
          "name": "newVotingDelay",
          "type": "uint256"
        },
        {
          "internalType": "uint256",
          "name": "newVotingPeriod",
          "type": "uint256"
        },
        {
          "internalType": "uint256",
          "name": "newProposalThreshold",
          "type": "uint256"
        }
      ],
      "name": "setGovernanceParameters",
      "outputs": [],
      "stateMutability": "nonpayable",
      "type": "function"
    },
    {
      "inputs": [
        {
          "internalType": "uint256",
          "name": "proposalId",
          "type": "uint256"
        }
      ],
      "name": "state",
      "outputs": [
        {
          "internalType": "enum IGovernor.ProposalState",
          "name": "",
          "type": "uint8"
        }
      ],
      "stateMutability": "view",
      "type": "function"
    },
    {
      "inputs": [
        {
          "internalType": "bytes4",
          "name": "interfaceId",
          "type": "bytes4"
        }
      ],
      "name": "supportsInterface",
      "outputs": [
        {
          "internalType": "bool",
          "name": "",
          "type": "bool"
        }
      ],
      "stateMutability": "view",
      "type": "function"
    },
    {
      "inputs": [],
      "name": "timelock",
      "outputs": [
        {
          "internalType": "address",
          "name": "",
          "type": "address"
        }
      ],
      "stateMutability": "view",
      "type": "function"
    },
    {
      "inputs": [],
      "name": "token",
      "outputs": [
        {
          "internalType": "contract IERC5805",
          "name": "",
          "type": "address"
        }
      ],
      "stateMutability": "view",
      "type": "function"
    },
    {
      "inputs": [
        {
          "internalType": "uint256",
          "name": "newQuorumNumerator",
          "type": "uint256"
        }
      ],
      "name": "updateQuorumNumerator",
      "outputs": [],
      "stateMutability": "nonpayable",
      "type": "function"
    },
    {
      "inputs": [
        {
          "internalType": "contract TimelockController",
          "name": "newTimelock",
          "type": "address"
        }
      ],
      "name": "updateTimelock",
      "outputs": [],
      "stateMutability": "nonpayable",
      "type": "function"
    },
    {
      "inputs": [],
      "name": "version",
      "outputs": [
        {
          "internalType": "string",
          "name": "",
          "type": "string"
        }
      ],
      "stateMutability": "view",
      "type": "function"
    },
    {
      "inputs": [],
      "name": "votingDelay",
      "outputs": [
        {
          "internalType": "uint256",
          "name": "",
          "type": "uint256"
        }
      ],
      "stateMutability": "view",
      "type": "function"
    },
    {
      "inputs": [],
      "name": "votingPeriod",
      "outputs": [
        {
          "internalType": "uint256",
          "name": "",
          "type": "uint256"
        }
      ],
      "stateMutability": "view",
      "type": "function"
    },
    {
      "stateMutability": "payable",
      "type": "receive"
    }
  ],
  "bytecode": "0x610180604052346100a75761001b61001561010c565b90610178565b6040516144dd90816109d8823960805181613956015260a05181613a0d015260c05181613920015260e051816139a5015261010051816139cb0152610120518161176601526101405181611792015261016051818181611a0601528181611e5f01528181611fd20152818161239701528181612b7e01528181612d50015281816133b701526135640152f35b600080fd5b634e487b7160e01b600052604160045260246000fd5b601f909101601f19168101906001600160401b038211908210176100e557604052565b6100ac565b604051906100f96040836100c2565b565b6001600160a01b038116036100a757565b614eb59060408238039283825194859261012682856100c2565b8339810103126100a757602082519261013e846100fb565b01519161014a836100fb565b9190565b6040519061015d6040836100c2565b600f8252565b604051906101726040836100c2565b60018252565b9061025f9161024561018861014e565b602081016e4772617669476f7665726e616e636560881b81526101a9610163565b906020820190603160f81b82526101bf846104fc565b610120526101cc836105f6565b6101405283519020918260e05251902080610100524660a0526040519060208201927f8b73c3c69bb8fe3d512ecc4cf759cc79239f7b179b0ffacaa9a75d522b39400f8452604083015260608201524660808201523060a082015260a0815261023660c0826100c2565b5190206080523060c05261030b565b6001600160a01b03166101605261025a610448565b6103f5565b6102696000600b55565b61027461c4e0600c55565b6100f96103e8600d55565b90600182811c921680156102af575b602083101461029957565b634e487b7160e01b600052602260045260246000fd5b91607f169161028e565b601f82116102c657505050565b6000526020600020906020601f840160051c83019310610301575b601f0160051c01905b8181106102f5575050565b600081556001016102ea565b90915081906102e1565b80519091906001600160401b0381116100e5576103348161032d60035461027f565b60036102b9565b602092601f8211600114610376576103669293829160009261036b575b50508160011b916000199060031b1c19161790565b600355565b015190503880610351565b6003600052601f198216937fc2575a0e9e593c00f959f8c92f12db2869c3395a3b0502d05e2516446f71f85b9160005b8681106103dd57508360019596106103c4575b505050811b01600355565b015160001960f88460031b161c191690553880806103b9565b919260206001819286850151815501940192016103a6565b600954604080516001600160a01b03808416825290931660208401819052927f08f74ea46ef7894f65eabfb5e6e695de773a000b47c529ab559178069b2264019190a16001600160a01b03191617600955565b600854600090806104ad57505060005b6001600160d01b03166104696106ee565b7f0553476bf02ef2726e8ce5ced78d63e26e602e4a2257b1f559418e24b46339979160049161049990839061089d565b5050604080519182526020820192909252a1565b806000198101116104e85760089091527ff3f7a9fe364faab93b216da50a3214154f22a0a2b415b23a84c8169e8b636ee2015460301c610458565b634e487b7160e01b82526011600452602482fd5b908151602081106000146105185750906105159061079a565b90565b6001600160401b0381116100e55761053c8161053560005461027f565b60006102b9565b602092601f82116001146105755761056d9293829160009261036b5750508160011b916000199060031b1c19161790565b60005560ff90565b60008052601f198216937f290decd9548b62a8d60345a988386fc84ba6bc95484008f6362f93160ef3e5639160005b8681106105de57508360019596106105c5575b505050811b0160005560ff90565b015160001960f88460031b161c191690553880806105b7565b919260206001819286850151815501940192016105a4565b9081516020811060001461060f5750906105159061079a565b6001600160401b0381116100e5576106338161062c60015461027f565b60016102b9565b602092601f821160011461066c576106649293829160009261036b5750508160011b916000199060031b1c19161790565b60015560ff90565b6001600052601f198216937fb10e2d527612073b26eecdfd717e6a320cf44b4afac2b0732d9fcbe2b7fa0cf69160005b8681106106d657508360019596106106bd575b505050811b0160015560ff90565b015160001960f88460031b161c191690553880806106af565b9192602060018192868501518155019401920161069c565b610160516040516324776b7d60e21b815290602090829060049082906001600160a01b03165afa809160009161072f575b50906105155750610515436109a6565b6020813d60201161076f575b81610748602093836100c2565b8101031261076b57519065ffffffffffff8216820361076857503861071f565b80fd5b5080fd5b3d915061073b565b60208151910151906020811061078b575090565b6000199060200360031b1b1690565b601f8151116107b2576107ac81610777565b90511790565b6040519063305a27a960e01b8252602060048301528181519182602483015260005b8381106107f65750508160006044809484010152601f80199101168101030190fd5b602082820181015160448784010152859350016107d4565b60001981019190821161081d57565b634e487b7160e01b600052601160045260246000fd5b908154680100000000000000008110156100e557600181018084558110156108875760009283526020928390208251929093015160301b65ffffffffffff191665ffffffffffff9290921691909117910155565b634e487b7160e01b600052603260045260246000fd5b600854919291801561097c576108b56108df9161080e565b60086000527ff3f7a9fe364faab93b216da50a3214154f22a0a2b415b23a84c8169e8b636ee30190565b9081546108fb6108f48265ffffffffffff1690565b9160301c90565b9265ffffffffffff80841692169180831161096b578692036109355761014a92509065ffffffffffff82549181199060301b169116179055565b505061014a906109546109466100ea565b65ffffffffffff9092168252565b6001600160d01b03851660208201525b6008610833565b632520601d60e01b60005260046000fd5b506109a09061098c6109466100ea565b6001600160d01b0384166020820152610964565b60009190565b65ffffffffffff81116109be5765ffffffffffff1690565b6306dfcc6560e41b600052603060045260245260446000fdfe60806040526004361015610023575b361561001957600080fd5b610021612e7c565b005b60003560e01c8063013cf08b1461038457806301ffc9a71461037f57806302a251a3146102a357806306f3f9e61461037a57806306fdde031461037557806307a9f02d14610370578063143489d01461036b578063150b7a0214610366578063160cbed7146103615780632656227d1461035c5780632d63f693146103575780632fe3e261146103525780633932abb1146102d55780633e4f49e61461034d5780634385963214610348578063452115d6146103435780634bf5d7e91461033e578063544ffc9c1461033957806354fd4d5014610334578063567813881461032f5780635b8d0e0d1461032a5780635f398a141461032557806360c4247f146103205780636644cc181461031b5780637b3c71d3146103165780637d5e81e2146103115780637ecebe001461030c57806384b0196e146103075780638597e49d146102da5780638ff262e31461030257806391ddadf4146102fd57806397c3d334146102f85780639a802a6d146102f3578063a7713a70146102ee578063a890c910146102e9578063a9a95294146102e4578063ab58fb8e146102df578063b58131b0146102da578063bb6ce65d146102d5578063bc197c81146102d0578063c01f9e37146102cb578063c08cc02d146102c6578063c28bc2fa146102c1578063c59057e4146102bc578063c97bfe6b146102b7578063d33219b4146102b2578063dd4e2ba5146102ad578063deaaa7cc146102a8578063e8e13e0d146102a3578063eb9019d41461029e578063efa90d3614610299578063f23a6e6114610294578063f8ce560a1461028f578063fc0c546a1461028a5763fee6b7800361000e57612001565b611fbc565b611f9e565b611f31565b611ec3565b611dfa565b610610565b611dbf565b611d60565b611d37565b611ce6565b611cb4565b611c48565b611c2a565b611c0c565b611b5f565b61113b565b611817565b611b2a565b611b0e565b611a96565b611a6a565b611994565b611978565b61194d565b611835565b61174e565b611711565b611674565b61161f565b6115f2565b6115d4565b611554565b6114ae565b61143f565b6113ec565b6113a9565b611379565b611214565b6111bb565b61118c565b611100565b6110c9565b610f6b565b610d1f565b610ad9565b610a08565b61095b565b61070c565b61062e565b610597565b610507565b90600182811c921680156103b9575b60208310146103a357565b634e487b7160e01b600052602260045260246000fd5b91607f1691610398565b634e487b7160e01b600052604160045260246000fd5b61010081019081106001600160401b038211176103f557604052565b6103c3565b90601f801991011681019081106001600160401b038211176103f557604052565b906040519182600082549261042f84610389565b808452936001811690811561049d5750600114610456575b50610454925003836103fa565b565b90506000929192526020600020906000915b8183106104815750509060206104549282010138610447565b6020919350806001915483858901015201910190918492610468565b90506020925061045494915060ff191682840152151560051b82010138610447565b60005b8381106104d25750506000910152565b81810151838201526020016104c2565b906020916104fb815180928185528580860191016104bf565b601f01601f1916010190565b3461059257602036600319011261059257600435600052600e602052604060002080546105366001830161041b565b916105436002820161041b565b610583600760018060a01b0360068501541693015491610575604051968796875260a0602088015260a08701906104e2565b9085820360408701526104e2565b91606084015260808301520390f35b600080fd5b346105925760203660031901126105925760043563ffffffff60e01b8116809103610592576020906332a2ad4360e11b81149081156105f4575b81156105e3575b506040519015158152f35b6301ffc9a760e01b149050386105d8565b630271189760e51b811491506105d1565b600091031261059257565b34610592576000366003190112610592576020600c54604051908152f35b346105925760203660031901126105925760043561064a612e92565b606481116106df576001600160d01b036106626135fc565b169061066c612b69565b916001600160d01b0382116106c5577f0553476bf02ef2726e8ce5ced78d63e26e602e4a2257b1f559418e24b4633997926106b1906001600160d01b03841690614120565b5050604080519182526020820192909252a1005b506306dfcc6560e41b60005260d060045260245260446000fd5b63243e544560e01b600052600452606460245260446000fd5b9060206107099281815201906104e2565b90565b3461059257600036600319011261059257604051600060035461072e81610389565b80845290600181169081156107c55750600114610766575b61076283610756818503826103fa565b604051918291826106f8565b0390f35b600360009081527fc2575a0e9e593c00f959f8c92f12db2869c3395a3b0502d05e2516446f71f85b939250905b8082106107ab57509091508101602001610756610746565b919260018160209254838588010152019101909291610793565b60ff191660208086019190915291151560051b840190910191506107569050610746565b906020808351928381520192019060005b8181106108075750505090565b82516001600160a01b03168452602093840193909201916001016107fa565b906020808351928381520192019060005b8181106108445750505090565b8251845260209384019390920191600101610837565b9080602083519182815201916020808360051b8301019401926000915b83831061088657505050505090565b90919293946020806108a4600193601f1986820301875289516104e2565b97019301930191939290610877565b602081528151602082015261010060e061094061092a6109146108fe6108e860208901518760408a01526101208901906104e2565b6040890151888203601f190160608a01526104e2565b6060880151878203601f190160808901526107e9565b6080870151868203601f190160a0880152610826565b60a0860151858203601f190160c087015261085a565b60c08501516001600160a01b03168483015293015191015290565b34610592576020366003190112610592576107626109fc6109f7600435600060e0604051610988816103d9565b828152606060208201526060604082015260608082015260606080820152606060a08201528260c0820152015280600052600e6020526109e760018060a01b036109df60066040600020015460018060a01b031690565b1615156120bd565b600052600e602052604060002090565b61228c565b604051918291826108b3565b34610592576020366003190112610592576004356000526004602052602060018060a01b0360406000205416604051908152f35b6001600160a01b0381160361059257565b60405190610454610100836103fa565b604051906104546040836103fa565b6001600160401b0381116103f557601f01601f191660200190565b929192610a9382610a6c565b91610aa160405193846103fa565b829481845281830111610592578281602093846000960137010152565b9080601f830112156105925781602061070993359101610a87565b3461059257608036600319011261059257610af5600435610a3c565b610b00602435610a3c565b6064356001600160401b03811161059257610b1f903690600401610abe565b50600954306001600160a01b0390911603610b4657604051630a85bd0160e11b8152602090f35b637485328f60e11b60005260046000fd5b6001600160401b0381116103f55760051b60200190565b9080601f83011215610592578135610b8581610b57565b92610b9360405194856103fa565b81845260208085019260051b82010192831161059257602001905b828210610bbb5750505090565b602080918335610bca81610a3c565b815201910190610bae565b9080601f83011215610592578135610bec81610b57565b92610bfa60405194856103fa565b81845260208085019260051b82010192831161059257602001905b828210610c225750505090565b8135815260209182019101610c15565b9080601f83011215610592578135610c4981610b57565b92610c5760405194856103fa565b81845260208085019260051b820101918383116105925760208201905b838210610c8357505050505090565b81356001600160401b03811161059257602091610ca587848094880101610abe565b815201910190610c74565b6080600319820112610592576004356001600160401b0381116105925781610cda91600401610b6e565b916024356001600160401b0381116105925782610cf991600401610bd5565b91604435906001600160401b03821161059257610d1891600401610c32565b9060643590565b3461059257610d2d36610cb0565b9092610d3b82858584612c9d565b93610d4585612f3f565b50600954610d63906001600160a01b03165b6001600160a01b031690565b936040519363793d064960e11b8552602085600481895afa948515610f1657600095610f4a575b503060601b6001600160601b03191618946020604051809263b1c5f42760e01b82528180610dbe8b89898c600486016136d9565b03915afa908115610f1657600091610f1b575b50610de687600052600a602052604060002090565b55600954610dfc906001600160a01b0316610d57565b90813b156105925760008094610e2987604051998a97889687956308f2a0bb60e41b87526004870161371f565b03925af1908115610f1657610e4d92610e4892610efb575b50426134cc565b61348d565b9065ffffffffffff821615610eea577f9a2e42fd6722813d69113e7d0079d3d940171428df7373df9c7f7617cfda2892610ed783610eb8610762956001610e9e876000526004602052604060002090565b019065ffffffffffff1665ffffffffffff19825416179055565b6040805185815265ffffffffffff909216602083015290918291820190565b0390a16040519081529081906020820190565b634844252360e11b60005260046000fd5b80610f0a6000610f10936103fa565b80610605565b38610e41565b612326565b610f3d915060203d602011610f43575b610f3581836103fa565b810190612d04565b38610dd1565b503d610f2b565b610f6491955060203d602011610f4357610f3581836103fa565b9338610d8a565b610f7436610cb0565b91610f8183838387612c9d565b936020610f8f603087613005565b50610fba610fa7876000526004602052604060002090565b805460ff60f01b1916600160f01b179055565b600954306001600160a01b0390911603611060575b5091849391610fe1936107629661376d565b6009543090610ff8906001600160a01b0316610d57565b141580611041575b611037575b6040518181527f712ae1383f79ac853f8d882153778e0260ef8f03b504e2866e0593e04d2b291f908060208101610ed7565b6000600555611005565b506005546001600160801b03811660809190911c1415611000565b1590565b9490919360005b83518110156110bb5760019030611091610d57611084848961230d565b516001600160a01b031690565b1461109d575b01611067565b6110b66110aa828861230d565b51898151910120613045565b611097565b509094509290610762610fcf565b34610592576020366003190112610592576004356000526004602052602065ffffffffffff60406000205460a01c16604051908152f35b346105925760003660031901126105925760206040517f3e83946653575f9a39005e1545185629e92736b7528ab20ca3816f315424a8118152f35b34610592576000366003190112610592576020600b54604051908152f35b634e487b7160e01b600052602160045260246000fd5b6008111561117957565b611159565b600881101561117957602452565b34610592576020366003190112610592576111a86004356130c5565b6040516008821015611179576020918152f35b3461059257604036600319011261059257602060ff6112086024356004356111e282610a3c565b6000526007845260036040600020019060018060a01b0316600052602052604060002090565b54166040519015158152f35b346105925761122236610cb0565b9161122f83838387612c9d565b61123881612f81565b506000908152600460205260409020546001600160a01b031633036113645761126093612c9d565b60409061126e603b82613005565b5061129b611286826000526004602052604060002090565b80546001600160f81b0316600160f81b179055565b81518181527f789cf55be980739dad1d0699b93b58e806b51c9d96619bfa8fe0a28abaa7b30c90602090a16112da81600052600a602052604060002090565b5491826112ec575b5190815260209150f35b600954611301906001600160a01b0316610d57565b803b1561059257815163c4d252f560e01b815260048101949094526000908490602490829084905af1928315610f16576107629361134f575b506000828152600a60205260408120556112e2565b80610f0a600061135e936103fa565b3861133a565b63233d98e360e01b6000523360045260246000fd5b3461059257600036600319011261059257610762611395612382565b6040519182916020835260208301906104e2565b3461059257602036600319011261059257600435600052600760205260606040600020805490600260018201549101549060405192835260208301526040820152f35b3461059257600036600319011261059257610762604080519061140f81836103fa565b60018252603160f81b6020830152519182916020835260208301906104e2565b6024359060ff8216820361059257565b3461059257604036600319011261059257602061147960043561146061142f565b6040519161146e85846103fa565b6000835233906131d6565b604051908152f35b9181601f84011215610592578235916001600160401b038311610592576020838186019501011161059257565b346105925760c0366003190112610592576004356114ca61142f565b90604435906114d882610a3c565b6064356001600160401b038111610592576114f7903690600401611481565b6084356001600160401b03811161059257611516903690600401610abe565b9160a435946001600160401b038611610592576107629661153e611544973690600401610abe565b9561245f565b6040519081529081906020820190565b346105925760803660031901126105925760043561157061142f565b906044356001600160401b03811161059257611590903690600401611481565b9190926064356001600160401b038111610592576115c9946115b96115c1923690600401610abe565b943691610a87565b91339061334e565b604051908152602090f35b3461059257602036600319011261059257602061147960043561258c565b3461059257606036600319011261059257604435602435600435611614612e92565b600b55600c55600d55005b346105925760603660031901126105925760043561163b61142f565b90604435906001600160401b0382116105925760209261166c611665611479943690600401611481565b3691610a87565b9133906131d6565b34610592576080366003190112610592576004356001600160401b038111610592576116a4903690600401610b6e565b6024356001600160401b038111610592576116c3903690600401610bd5565b906044356001600160401b038111610592576116e3903690600401610c32565b90606435916001600160401b038311610592576107629361170b611544943690600401610abe565b92612aa1565b346105925760203660031901126105925760043561172e81610a3c565b60018060a01b031660005260026020526020604060002054604051908152f35b346105925760003660031901126105925760e061178a7f000000000000000000000000000000000000000000000000000000000000000061403d565b6107626117b67f000000000000000000000000000000000000000000000000000000000000000061409a565b916117f6602093610575604051936117ce87866103fa565b60008552601f1987013688870137604051978897600f60f81b895288015260e08701906104e2565b90466060850152306080850152600060a085015283820360c0850152610826565b34610592576000366003190112610592576020600d54604051908152f35b346105925760803660031901126105925760043561185161142f565b906044359161185f83610a3c565b6064356001600160401b0381116105925761105c611884611913923690600401610abe565b6001600160a01b038616600090815260026020526040902080546001810190915561190d9060405160208101917ff2aad550cf55f045cb27e9c559f9889fdfb6e6cdaa032301d6ea397784ae51d7835288604083015260ff8816606083015260018060a01b038a16608083015260a082015260a0815261190560c0826103fa565b5190206131f4565b86613224565b61192e57906115449161076293611928612332565b926131d6565b6394ab6c0760e01b6000526001600160a01b03831660045260245b6000fd5b34610592576000366003190112610592576020611968612b69565b65ffffffffffff60405191168152f35b3461059257600036600319011261059257602060405160648152f35b34610592576060366003190112610592576004356119b181610a3c565b6024356044356001600160401b038111610592576119d3903690600401610abe565b50604051630748d63560e31b81526001600160a01b039283166004820152602481019190915290602090829060449082907f0000000000000000000000000000000000000000000000000000000000000000165afa8015610f165761076291600091611a4b575b506040519081529081906020820190565b611a64915060203d602011610f4357610f3581836103fa565b38611a3a565b346105925760003660031901126105925760206001600160d01b03611a8d6135fc565b16604051908152f35b3461059257602036600319011261059257600435611ab381610a3c565b611abb612e92565b600954604080516001600160a01b03808416825290931660208401819052927f08f74ea46ef7894f65eabfb5e6e695de773a000b47c529ab559178069b2264019190a16001600160a01b03191617600955005b3461059257602036600319011261059257602060405160018152f35b34610592576020366003190112610592576020611479600435600052600460205265ffffffffffff6001604060002001541690565b346105925760a036600319011261059257611b7b600435610a3c565b611b86602435610a3c565b6044356001600160401b03811161059257611ba5903690600401610bd5565b506064356001600160401b03811161059257611bc5903690600401610bd5565b506084356001600160401b03811161059257611be5903690600401610abe565b50610762611bf1612c03565b6040516001600160e01b031990911681529081906020820190565b34610592576020366003190112610592576020611479600435612c22565b34610592576000366003190112610592576020600f54604051908152f35b606036600319011261059257600435611c6081610a3c565b6024356044356001600160401b0381116105925761002192600092611c8a84933690600401611481565b9190611c94612e92565b826040519384928337810185815203925af1611cae612c6d565b90613643565b34610592576020611479611cc736610cb0565b92919091612c9d565b634e487b7160e01b600052603260045260246000fd5b3461059257602036600319011261059257600435600f5481101561059257600f6000527f8d1108e10bcb7c27dddfc02ed9d693a074039d026cf4ea4240b40f7d581ac8020154604051908152602090f35b34610592576000366003190112610592576009546040516001600160a01b039091168152602090f35b34610592576000366003190112610592576107626040805190611d8381836103fa565b602082527f737570706f72743d627261766f2671756f72756d3d666f722c6162737461696e6020830152519182916020835260208301906104e2565b346105925760003660031901126105925760206040517ff2aad550cf55f045cb27e9c559f9889fdfb6e6cdaa032301d6ea397784ae51d78152f35b3461059257604036600319011261059257600435611e1781610a3c565b602435906020916000604051611e2d85826103fa565b52604051630748d63560e31b81526001600160a01b0392831660048201526024810191909152908290829060449082907f0000000000000000000000000000000000000000000000000000000000000000165afa908115610f165761076292600092611ea6575b50506040519081529081906020820190565b611ebc9250803d10610f4357610f3581836103fa565b3880611e94565b3461059257600036600319011261059257604051600f548082526020820190600f60005260206000209060005b818110611f1b5761076285611f07818703826103fa565b604051918291602083526020830190610826565b8254845260209093019260019283019201611ef0565b346105925760a036600319011261059257611f4d600435610a3c565b611f58602435610a3c565b6084356001600160401b03811161059257611f77903690600401610abe565b50600954306001600160a01b0390911603610b465760405163f23a6e6160e01b8152602090f35b34610592576020366003190112610592576020611479600435612d33565b34610592576000366003190112610592576040517f00000000000000000000000000000000000000000000000000000000000000006001600160a01b03168152602090f35b346105925760a0366003190112610592576004356001600160401b03811161059257612031903690600401610abe565b6024356001600160401b03811161059257612050903690600401610abe565b906044356001600160401b03811161059257612070903690600401610b6e565b906064356001600160401b03811161059257612090903690600401610bd5565b608435926001600160401b03841161059257610762946120b7611544953690600401610c32565b93612dd0565b156120c457565b60405162461bcd60e51b8152602060048201526017602482015276141c9bdc1bdcd85b08191bd95cc81b9bdd08195e1a5cdd604a1b6044820152606490fd5b906040519182815491828252602082019060005260206000209260005b818110612135575050610454925003836103fa565b84546001600160a01b0316835260019485019487945060209093019201612120565b906040519182815491828252602082019060005260206000209260005b818110612189575050610454925003836103fa565b8454835260019485019487945060209093019201612174565b600092918154916121b283610389565b808352926001811690811561220857506001146121ce57505050565b60009081526020812093945091925b8383106121ee575060209250010190565b6001816020929493945483858701015201910191906121dd565b915050602093945060ff929192191683830152151560051b010190565b90815461223181610b57565b9261223f60405194856103fa565b818452602084019060005260206000206000915b8383106122605750505050565b60016020819260405161227e8161227781896121a2565b03826103fa565b815201920192019190612253565b906007612297610a4d565b92805484526122a86001820161041b565b60208501526122b96002820161041b565b60408501526122ca60038201612103565b60608501526122db60048201612157565b60808501526122ec60058201612225565b60a085015260068101546001600160a01b031660c0850152015460e0830152565b80518210156123215760209160051b010190565b611cd0565b6040513d6000823e3d90fd5b604051906123416020836103fa565b60008252565b604051906123566040836103fa565b601d82527f6d6f64653d626c6f636b6e756d6265722666726f6d3d64656661756c740000006020830152565b604051634bf5d7e960e01b81526000816004817f00000000000000000000000000000000000000000000000000000000000000006001600160a01b03165afa600091816123d8575b506107095750610709612347565b90913d8082843e6123e981846103fa565b820191602081840312612457578051906001600160401b03821161245b570182601f820112156124575780519161241f83610a6c565b9361242d60405195866103fa565b8385526020848401011161245457509061244d91602080850191016104bf565b90386123ca565b80fd5b5080fd5b8280fd5b93909291969561105c61251c916125168a6124958160018060a01b03166000526002602052604060002080549060018201905590565b6124a036888a610a87565b602081519101208b5160208d0120906040519260208401947f3e83946653575f9a39005e1545185629e92736b7528ab20ca3816f315424a81186528d604086015260ff8d16606086015260018060a01b0316608085015260a084015260c083015260e082015260e08152611905610100826103fa565b8a613224565b61253757610709959691612531913691610a87565b9261334e565b6394ab6c0760e01b6000526001600160a01b03871660045260246000fd5b634e487b7160e01b600052601160045260246000fd5b60001981019190821161257a57565b612555565b9190820391821161257a57565b60085490600019820182811161257a578211156123215760086000527ff3f7a9fe364faab93b216da50a3214154f22a0a2b415b23a84c8169e8b636ee282015465ffffffffffff81168210156126ae57506125e69061348d565b6000829160058411612657575b6125fd9350613cb4565b806126085750600090565b61264b61264461261a6107099361256b565b60086000527ff3f7a9fe364faab93b216da50a3214154f22a0a2b415b23a84c8169e8b636ee30190565b5460301c90565b6001600160d01b031690565b919261266281613b56565b810390811161257a576125fd93600860005265ffffffffffff82602060002001541665ffffffffffff85161060001461269c5750916125f3565b9291506126a8906134be565b906125f3565b91505060301c90565b8181106126c2575050565b600081556001016126b7565b9190601f81116126dd57505050565b610454926000526020600020906020601f840160051c83019310612709575b601f0160051c01906126b7565b90915081906126fc565b91909182516001600160401b0381116103f55761273a816127348454610389565b846126ce565b6020601f821160011461277b57819061276c939495600092612770575b50508160011b916000199060031b1c19161790565b9055565b015190503880612757565b601f1982169061279084600052602060002090565b9160005b8181106127cc575095836001959697106127b3575b505050811b019055565b015160001960f88460031b161c191690553880806127a9565b9192602060018192868b015181550194019201612794565b908160011b918083046002149015171561257a57565b908160041b918083046010149015171561257a57565b9181811061281d57505050565b61045492600052602060002091820191016126b7565b8151916001600160401b0383116103f557600160401b83116103f55760209061286184845481865585612810565b0190600052602060002060005b83811061287b5750505050565b60019060208451940193818401550161286e565b815191600160401b83116103f55781548383558084106128ec575b5060206128be910191600052602060002090565b6000915b8383106128cf5750505050565b60016020826128e083945186612713565b019201920191906128c2565b8260005283602060002091820191015b81811061290957506128aa565b8061291660019254610389565b80612923575b50016128fc565b601f811183146129395750600081555b3861291c565b61295d9083601f61294f85600052602060002090565b920160051c820191016126b7565b60008181526020812081835555612933565b9080518255612985602082015160018401612713565b612996604082015160028401612713565b6060810151600383018151916001600160401b0383116103f557600160401b83116103f5576020906129cd84845481865585612810565b0190600052602060002060005b838110612a39575050505060e0816129fb6080600794015160048601612833565b612a0c60a08201516005860161288f565b60c08101516006850180546001600160a01b0319166001600160a01b039092169190911790550151910155565b82516001600160a01b0316818301556020909201916001016129da565b600f54600160401b8110156103f55760018101600f556000600f5482101561232157600f90527f8d1108e10bcb7c27dddfc02ed9d693a074039d026cf4ea4240b40f7d581ac8020155565b92612b417f8cfb460f974cd36d8e9ee4ed5681cac9f682065a80e06fc949fddfb2ab71a929929394612ad5838787846134d9565b95869560405192612ae5846103d9565b878452602095604051612af888826103fa565b600081528786015260408501526060840152608083015260a082015260018060a01b03331660c08201524260e0820152612b3c85600052600e602052604060002090565b61296f565b612b4a83612a56565b604080518181526000918101919091523391810191909152606090a290565b6040516324776b7d60e21b81526020816004817f00000000000000000000000000000000000000000000000000000000000000006001600160a01b03165afa8091600091612bc2575b509061070957506107094361348d565b6020813d602011612bfb575b81612bdb602093836103fa565b8101031261245757519065ffffffffffff82168203612454575038612bb2565b3d9150612bce565b600954306001600160a01b0390911603610b465763bc197c8160e01b90565b80600052600460205265ffffffffffff60406000205460a01c1690600052600460205263ffffffff60406000205460d01c160165ffffffffffff811161257a5765ffffffffffff1690565b3d15612c98573d90612c7e82610a6c565b91612c8c60405193846103fa565b82523d6000602084013e565b606090565b9290612cfe91612cea612cd894604051958694612cc6602087019960808b5260a08801906107e9565b868103601f1901604088015290610826565b848103601f190160608601529061085a565b90608083015203601f1981018352826103fa565b51902090565b90816020910312610592575190565b8115612d1d570490565b634e487b7160e01b600052601260045260246000fd5b604051632394e7a360e21b815260048101829052906020826024817f00000000000000000000000000000000000000000000000000000000000000006001600160a01b03165afa918215610f1657600092612dab575b50612d939061258c565b9081810291818304149015171561257a576064900490565b612d93919250612dc99060203d602011610f4357610f3581836103fa565b9190612d89565b612e54612e71927f8cfb460f974cd36d8e9ee4ed5681cac9f682065a80e06fc949fddfb2ab71a92994959796612e0882828b8a6134d9565b98899760405193612e18856103d9565b89855286602086015260408501526060840152608083015260a08201523360c08201524260e082015285600052600e602052604060002061296f565b612e5d84612a56565b6040519182916040835260408301906104e2565b3360208301520390a2565b600954306001600160a01b0390911603610b4657565b600954336001600160a01b0390911603612efd57600954306001600160a01b0390911603612ebc57565b612ec536610a6c565b612ed260405191826103fa565b368152602081019036600083376000602036830101525190205b80612ef561366b565b03612eec5750565b6347096e4760e01b6000523360045260246000fd5b60088110156111795760ff600191161b90565b600452606491906008811015611179576024526000604452565b612f48816130c5565b906010612f5483612f12565b1615612f5e575090565b6331b75e4d60e01b600052600452612f76915061117e565b601060445260646000fd5b612f8a816130c5565b906001612f9683612f12565b1615612fa0575090565b6331b75e4d60e01b600052600452612fb8915061117e565b600160445260646000fd5b612fcc816130c5565b906002612fd883612f12565b1615612fe2575090565b6331b75e4d60e01b600052600452612ffa915061117e565b600260445260646000fd5b9061300f826130c5565b918161301a84612f12565b161561302557505090565b6331b75e4d60e01b60005260045261303c8261117e565b60445260646000fd5b6005546001608082901c9081016001600160801b03908116939216831461309a57600090815260066020526040902055600580546001600160801b031660809290921b6001600160801b031916919091179055565b634e487b7160005260416020526024601cfd5b90816020910312610592575180151581036105925790565b6130ce816137f8565b906130d88261116f565b600582036131d2576130f59150600052600a602052604060002090565b5460095461310b906001600160a01b0316610d57565b604051632c258a9f60e11b815260048101839052602081602481855afa908115610f16576000916131b3575b5015613144575050600590565b604051632ab0f52960e01b81526004810192909252602090829060249082905afa908115610f1657600091613184575b501561317f57600790565b600290565b6131a6915060203d6020116131ac575b61319e81836103fa565b8101906130ad565b38613174565b503d613194565b6131cc915060203d6020116131ac5761319e81836103fa565b38613137565b5090565b916107099391604051936131eb6020866103fa565b6000855261334e565b6042906131ff61391d565b906040519161190160f01b8352600283015260228201522090565b6004111561117957565b9190823b61325f579061323691613a33565b506132408161321a565b15918261324c57505090565b6001600160a01b03918216911614919050565b916000926132966132a485946040519283916020830195630b135d3f60e11b875260248401526040604484015260648301906104e2565b03601f1981018352826103fa565b51915afa6132b0612c6d565b816132e0575b816132bf575090565b90506132dc630b135d3f60e11b9160208082518301019101612d04565b1490565b9050602081511015906132b6565b93909260ff61331a9361070997958752166020860152604085015260a0606085015260a08401906104e2565b9160808184039101526104e2565b909260ff60809361070996958452166020830152604082015281606082015201906104e2565b9291909261335b81612fc3565b5080600052600460205265ffffffffffff613384604060002065ffffffffffff905460a01c1690565b1693604051630748d63560e31b815260018060a01b03821695866004830152602482015260208160448160018060a01b037f0000000000000000000000000000000000000000000000000000000000000000165afa908115610f16576133f592859160009361346c575b5084613a6f565b9480511560001461343957506134337fb8e138887d0aa13bab447e82de9d5c1777041ecd21ca36ba824ff1e6c07ddda4938660405194859485613328565b0390a290565b613433907fe2babfbac5889a709b63bb7f598b324e08bc5a4fb9ec647fb3cbc9ec07eb87129487604051958695866132ee565b61348691935060203d602011610f4357610f3581836103fa565b91386133ee565b65ffffffffffff81116134a55765ffffffffffff1690565b6306dfcc6560e41b600052603060045260245260446000fd5b906001820180921161257a57565b9190820180921161257a57565b91939290936134e88233613d2e565b156135e757600d549485613504575b6107099495503393613e9a565b60001965ffffffffffff613516612b69565b160165ffffffffffff811161257a5765ffffffffffff1695600096876040516135406020826103fa565b52604051630748d63560e31b815233600482015260248101919091526020816044817f00000000000000000000000000000000000000000000000000000000000000006001600160a01b03165afa978815610f1657976135c6575b508087106135a957506134f7565b636121770b60e11b60005233600452602487905260445260646000fd5b6135e091975060203d602011610f4357610f3581836103fa565b953861359b565b63d9b3955760e01b6000523360045260246000fd5b6008548061360a5750600090565b8060001981011161257a5760086000527ff3f7a9fe364faab93b216da50a3214154f22a0a2b415b23a84c8169e8b636ee2015460301c90565b909190610454575080511561365a57805190602001fd5b63d6bda27560e01b60005260046000fd5b6005546001600160801b038116919060801c82146136c657600082815260066020526040808220546001600160801b03808616845291832092909255600580546001600160801b031916600190950190911693909317909255565b634e487b7160005260316020526024601cfd5b9493926137056080936136f76137139460a08a5260a08a01906107e9565b9088820360208a0152610826565b90868203604088015261085a565b93600060608201520152565b919261374e60a09461374061375c949998979960c0875260c08701906107e9565b908582036020870152610826565b90838203604085015261085a565b946000606083015260808201520152565b60095490949192916001600160a01b03909116906001600160601b03193060601b16823b15610592576137bb6000956040519788968795869563e38335e560e01b87521892600486016136d9565b039134905af18015610f16576137de575b506000908152600a6020526040812055565b806137eb600080936103fa565b80031261059257386137cc565b61380c816000526004602052604060002090565b5460f881901c9060f01c60ff16613916576139105761385561384a61383b836000526004602052604060002090565b5460a01c65ffffffffffff1690565b65ffffffffffff1690565b80156138fa5761386661384a612b69565b809110156138f35761387782612c22565b106138825750600190565b61388e61105c82614203565b80156138ce575b156138a05750600390565b6138c090600052600460205265ffffffffffff6001604060002001541690565b6138c957600490565b600590565b506138ee61105c8260005260076020526040600020600181015490541090565b613895565b5050600090565b636ad0607560e01b600052600482905260246000fd5b50600290565b5050600790565b307f00000000000000000000000000000000000000000000000000000000000000006001600160a01b03161480613a0a575b15613978577f000000000000000000000000000000000000000000000000000000000000000090565b60405160208101907f8b73c3c69bb8fe3d512ecc4cf759cc79239f7b179b0ffacaa9a75d522b39400f82527f000000000000000000000000000000000000000000000000000000000000000060408201527f000000000000000000000000000000000000000000000000000000000000000060608201524660808201523060a082015260a08152612cfe60c0826103fa565b507f0000000000000000000000000000000000000000000000000000000000000000461461394f565b8151919060418303613a6457613a5d92506020820151906060604084015193015160001a9061424b565b9192909190565b505060009160029190565b613a86909291926000526007602052604060002090565b9160038301613ab1613aaa83839060018060a01b0316600052602052604060002090565b5460ff1690565b613b3857613ad760ff9392613ae4929060018060a01b0316600052602052604060002090565b805460ff19166001179055565b1680613afb5750613af68282546134cc565b905590565b60018103613b125750600101613af68282546134cc565b600203613b2757600201613af68282546134cc565b6303599be160e11b60005260046000fd5b6371c6af4960e01b6000526001600160a01b03821660045260246000fd5b600181111561070957806001600160801b821015613c77575b613c1d613c13613c09613bff613bf5613beb613bda613c24976004613c299a600160401b811015613c6a575b640100000000811015613c5d575b62010000811015613c50575b610100811015613c43575b6010811015613c36575b1015613c2e575b60030260011c90565b613be4818b612d13565b0160011c90565b613be4818a612d13565b613be48189612d13565b613be48188612d13565b613be48187612d13565b613be48186612d13565b8093612d13565b821190565b900390565b60011b613bd1565b60041c9160021b91613bca565b60081c9160041b91613bc0565b60101c9160081b91613bb5565b60201c9160101b91613ba9565b60401c9160201b91613b9b565b5050613c29613c24613c1d613c13613c09613bff613bf5613beb613bda613c9e8a60801c90565b9850600160401b9750613b6f9650505050505050565b905b828110613cc257505090565b90918082169080831860011c820180921161257a5760086000527ff3f7a9fe364faab93b216da50a3214154f22a0a2b415b23a84c8169e8b636ee382015465ffffffffffff9081169085161015613d1c5750915b90613cb6565b929150613d28906134be565b90613d16565b90805160348110613d7b5760131981830101516001600160b01b03191669dc8f8d908f908c9a8dc360b01b01613d7b57613d6d916029198201906142ca565b901591821561324c57505090565b505050600190565b90613d8d82610b57565b613d9a60405191826103fa565b8281528092613dab601f1991610b57565b019060005b828110613dbc57505050565b806060602080938501015201613db0565b959998969794939192613e0e93613e0092885260018060a01b0316602088015261012060408801526101208701906107e9565b908582036060870152610826565b968388036080850152815180895260208901906020808260051b8c01019401916000905b828210613e6e575050505061070996975090613e559184820360a086015261085a565b9360c083015260e08201526101008184039101526104e2565b90919294602080613e8c6001938f601f1990820301865289516104e2565b970192019201909291613e32565b929094939194613eb282516020840120878387612c9d565b958451825190818114801590614032575b801561402a575b61400a57505065ffffffffffff613eee61383b896000526004602052604060002090565b16613fec5791613fe7917f7d84a6263ae0d98d3329bd7b46bb4e8d6f98cd35a7adb45c274c8b7fd5ebd5e0959493613f38613f27612b69565b65ffffffffffff600b5491166134cc565b90600c54613fc5613f538c6000526004602052604060002090565b80546001600160a01b0319166001600160a01b038a16178155613f9c613f788661348d565b825465ffffffffffff60a01b191660a09190911b65ffffffffffff60a01b16178255565b613fa58361435c565b815463ffffffff60d01b191660d09190911b63ffffffff60d01b16179055565b613fd9613fd28951613d83565b91846134cc565b936040519889988d8a613dcd565b0390a1565b61194987613ff9816130c5565b6331b75e4d60e01b60005290612f25565b9151630447b05d60e41b6000908152600493909352602452604452606490fd5b508015613eca565b508251811415613ec3565b60ff81146140875760ff811690601f821161407657604080519261406182856103fa565b6020808552840191601f190136833783525290565b632cd44ac360e21b60005260046000fd5b50604051610709816122778160006121a2565b60ff81146140be5760ff811690601f821161407657604080519261406182856103fa565b50604051610709816122778160016121a2565b805490600160401b8210156103f55760018201815560008154831015612321579081526020908190208351939091015160301b65ffffffffffff191665ffffffffffff90931692909217910155565b60085491929180156141d95761261a6141389161256b565b90815461415461414d8265ffffffffffff1690565b9160301c90565b9265ffffffffffff8084169216918083116141c8578692036141925761418e92509065ffffffffffff82549181199060301b169116179055565b9190565b505061418e906141b16141a3610a5d565b65ffffffffffff9092168252565b6001600160d01b03851660208201525b60086140d1565b632520601d60e01b60005260046000fd5b506141fd906141e96141a3610a5d565b6001600160d01b03841660208201526141c1565b60009190565b806000526007602052604060002090600052600460205261423365ffffffffffff60406000205460a01c16612d33565b60026001830154920154820180921161257a57111590565b91906fa2a8918ca85bafe22016d0b997e4df60600160ff1b0384116142be579160209360809260ff60009560405194855216868401526040830152606082015282805260015afa15610f16576000516001600160a01b038116156142b25790600090600090565b50600090600190600090565b50505060009160039190565b9190825182118015614353575b61432a576142e4816134be565b821180614335575b6142f79015156127e4565b6028018060281161257a5761430c828461257f565b0361432a5761431a92614389565b90916001600160a01b0390911690565b505050600090600090565b50602081840101516001600160f01b03191661060f60f31b146142ec565b508181116142d7565b63ffffffff81116143705763ffffffff1690565b6306dfcc6560e41b600052602060045260245260446000fd5b929092614395846134be565b831180614417575b6143af6143b7919492939415156127e4565b6000956134cc565b915b8183106143c95750505060019190565b9092919360ff6143ea6143e56020888601015160ff60f81b1690565b614435565b1690600f821161440b57906144006001926127fa565b0194019192906143b9565b50600094508493505050565b50602084820101516001600160f01b03191661060f60f31b1461439d565b60f81c602f81118061449d575b1561445157602f190160ff1690565b6060811180614493575b1561446a576056190160ff1690565b6040811180614489575b15614483576036190160ff1690565b5060ff90565b5060478110614474565b506067811061445b565b50603a811061444256fea2646970667358221220e71c4f1e7c9de169045b9bb787260c4439b2440056522254907297fac25a598664736f6c634300081c0033",
  "linkReferences": {},
  "deployedLinkReferences": {}
}