{
  "_format": "hh-sol-artifact-1",
  "contractName": "GraviDAO",
  "sourceName": "contracts/GraviDAO.sol",
  "abi": [
    {
      "inputs": [
        {
          "internalType": "address",
          "name": "_graviCha",
          "type": "address"
        },
        {
          "internalType": "address",
          "name": "_graviGov",
          "type": "address"
        }
      ],
      "stateMutability": "nonpayable",
      "type": "constructor"
    },
    {
      "inputs": [
        {
          "internalType": "address",
          "name": "owner",
          "type": "address"
        }
      ],
      "name": "OwnableInvalidOwner",
      "type": "error"
    },
    {
      "inputs": [
        {
          "internalType": "address",
          "name": "account",
          "type": "address"
        }
      ],
      "name": "OwnableUnauthorizedAccount",
      "type": "error"
    },
    {
      "anonymous": false,
      "inputs": [
        {
          "indexed": true,
          "internalType": "address",
          "name": "buyer",
          "type": "address"
        },
        {
          "indexed": false,
          "internalType": "uint256",
          "name": "amount",
          "type": "uint256"
        }
      ],
      "name": "GovTokensPurchased",
      "type": "event"
    },
    {
      "anonymous": false,
      "inputs": [
        {
          "indexed": false,
          "internalType": "string",
          "name": "disasterType",
          "type": "string"
        },
        {
          "indexed": false,
          "internalType": "address",
          "name": "poolAddress",
          "type": "address"
        }
      ],
      "name": "InsuranceCreated",
      "type": "event"
    },
    {
      "anonymous": false,
      "inputs": [
        {
          "indexed": false,
          "internalType": "string",
          "name": "disasterType",
          "type": "string"
        },
        {
          "indexed": false,
          "internalType": "address",
          "name": "poolAddress",
          "type": "address"
        }
      ],
      "name": "InsuranceRemoved",
      "type": "event"
    },
    {
      "anonymous": false,
      "inputs": [
        {
          "indexed": true,
          "internalType": "address",
          "name": "moderator",
          "type": "address"
        },
        {
          "indexed": true,
          "internalType": "address",
          "name": "nominator",
          "type": "address"
        },
        {
          "indexed": false,
          "internalType": "uint256",
          "name": "timestamp",
          "type": "uint256"
        }
      ],
      "name": "ModeratorNominated",
      "type": "event"
    },
    {
      "anonymous": false,
      "inputs": [
        {
          "indexed": false,
          "internalType": "uint256",
          "name": "nominationThreshold",
          "type": "uint256"
        },
        {
          "indexed": false,
          "internalType": "uint256",
          "name": "votingThreshold",
          "type": "uint256"
        }
      ],
      "name": "ModeratorThresholdsUpdated",
      "type": "event"
    },
    {
      "anonymous": false,
      "inputs": [
        {
          "indexed": true,
          "internalType": "address",
          "name": "moderator",
          "type": "address"
        },
        {
          "indexed": true,
          "internalType": "address",
          "name": "voter",
          "type": "address"
        },
        {
          "indexed": false,
          "internalType": "uint256",
          "name": "newTotalVotes",
          "type": "uint256"
        }
      ],
      "name": "ModeratorVoted",
      "type": "event"
    },
    {
      "anonymous": false,
      "inputs": [
        {
          "indexed": false,
          "internalType": "uint256",
          "name": "timestamp",
          "type": "uint256"
        }
      ],
      "name": "ModeratorsReset",
      "type": "event"
    },
    {
      "anonymous": false,
      "inputs": [
        {
          "indexed": false,
          "internalType": "address",
          "name": "poolAddress",
          "type": "address"
        }
      ],
      "name": "NFTPoolAdded",
      "type": "event"
    },
    {
      "anonymous": false,
      "inputs": [
        {
          "indexed": false,
          "internalType": "address",
          "name": "poolAddress",
          "type": "address"
        }
      ],
      "name": "NFTPoolRemoved",
      "type": "event"
    },
    {
      "anonymous": false,
      "inputs": [
        {
          "indexed": true,
          "internalType": "address",
          "name": "previousOwner",
          "type": "address"
        },
        {
          "indexed": true,
          "internalType": "address",
          "name": "newOwner",
          "type": "address"
        }
      ],
      "name": "OwnershipTransferred",
      "type": "event"
    },
    {
      "inputs": [
        {
          "internalType": "string",
          "name": "poolName",
          "type": "string"
        },
        {
          "internalType": "address",
          "name": "insurancePool",
          "type": "address"
        }
      ],
      "name": "addInsurancePool",
      "outputs": [],
      "stateMutability": "nonpayable",
      "type": "function"
    },
    {
      "inputs": [
        {
          "internalType": "uint256",
          "name": "",
          "type": "uint256"
        }
      ],
      "name": "allNominatedModerators",
      "outputs": [
        {
          "internalType": "address",
          "name": "",
          "type": "address"
        }
      ],
      "stateMutability": "view",
      "type": "function"
    },
    {
      "inputs": [
        {
          "internalType": "uint256",
          "name": "amount",
          "type": "uint256"
        }
      ],
      "name": "calculatesGovTokenPurchasePrice",
      "outputs": [
        {
          "internalType": "uint256",
          "name": "ethPrice",
          "type": "uint256"
        },
        {
          "internalType": "uint256",
          "name": "graviChaBurn",
          "type": "uint256"
        }
      ],
      "stateMutability": "view",
      "type": "function"
    },
    {
      "inputs": [],
      "name": "getAllInsurancePoolNames",
      "outputs": [
        {
          "internalType": "string[]",
          "name": "",
          "type": "string[]"
        }
      ],
      "stateMutability": "view",
      "type": "function"
    },
    {
      "inputs": [],
      "name": "getAllNominatedModerators",
      "outputs": [
        {
          "internalType": "address[]",
          "name": "moderators",
          "type": "address[]"
        },
        {
          "internalType": "uint256[]",
          "name": "votes",
          "type": "uint256[]"
        },
        {
          "internalType": "address[]",
          "name": "nominators",
          "type": "address[]"
        }
      ],
      "stateMutability": "view",
      "type": "function"
    },
    {
      "inputs": [
        {
          "internalType": "string",
          "name": "insuranceName",
          "type": "string"
        }
      ],
      "name": "getInsurancePoolAddresses",
      "outputs": [
        {
          "internalType": "address",
          "name": "insurancePoolAddress",
          "type": "address"
        },
        {
          "internalType": "address",
          "name": "nftPoolAddress",
          "type": "address"
        }
      ],
      "stateMutability": "view",
      "type": "function"
    },
    {
      "inputs": [],
      "name": "getNominatedModeratorCount",
      "outputs": [
        {
          "internalType": "uint256",
          "name": "count",
          "type": "uint256"
        }
      ],
      "stateMutability": "view",
      "type": "function"
    },
    {
      "inputs": [
        {
          "internalType": "uint256",
          "name": "_count",
          "type": "uint256"
        }
      ],
      "name": "getTopModerators",
      "outputs": [
        {
          "internalType": "address[]",
          "name": "moderators",
          "type": "address[]"
        },
        {
          "internalType": "uint256[]",
          "name": "votes",
          "type": "uint256[]"
        }
      ],
      "stateMutability": "view",
      "type": "function"
    },
    {
      "inputs": [],
      "name": "govTokenEthPrice",
      "outputs": [
        {
          "internalType": "uint256",
          "name": "",
          "type": "uint256"
        }
      ],
      "stateMutability": "view",
      "type": "function"
    },
    {
      "inputs": [],
      "name": "govTokenGraviChaBurn",
      "outputs": [
        {
          "internalType": "uint256",
          "name": "",
          "type": "uint256"
        }
      ],
      "stateMutability": "view",
      "type": "function"
    },
    {
      "inputs": [],
      "name": "graviCha",
      "outputs": [
        {
          "internalType": "contract IGraviCha",
          "name": "",
          "type": "address"
        }
      ],
      "stateMutability": "view",
      "type": "function"
    },
    {
      "inputs": [],
      "name": "graviGov",
      "outputs": [
        {
          "internalType": "contract IGraviGov",
          "name": "",
          "type": "address"
        }
      ],
      "stateMutability": "view",
      "type": "function"
    },
    {
      "inputs": [
        {
          "internalType": "address",
          "name": "",
          "type": "address"
        },
        {
          "internalType": "address",
          "name": "",
          "type": "address"
        }
      ],
      "name": "hasVotedForModerator",
      "outputs": [
        {
          "internalType": "bool",
          "name": "",
          "type": "bool"
        }
      ],
      "stateMutability": "view",
      "type": "function"
    },
    {
      "inputs": [
        {
          "internalType": "uint256",
          "name": "",
          "type": "uint256"
        }
      ],
      "name": "insurancePoolNames",
      "outputs": [
        {
          "internalType": "string",
          "name": "",
          "type": "string"
        }
      ],
      "stateMutability": "view",
      "type": "function"
    },
    {
      "inputs": [
        {
          "internalType": "string",
          "name": "",
          "type": "string"
        }
      ],
      "name": "insurancePools",
      "outputs": [
        {
          "internalType": "contract IGraviInsurance",
          "name": "",
          "type": "address"
        }
      ],
      "stateMutability": "view",
      "type": "function"
    },
    {
      "inputs": [
        {
          "internalType": "address",
          "name": "_moderator",
          "type": "address"
        },
        {
          "internalType": "uint256",
          "name": "_topCount",
          "type": "uint256"
        }
      ],
      "name": "isTopModerator",
      "outputs": [
        {
          "internalType": "bool",
          "name": "isATopModerator",
          "type": "bool"
        },
        {
          "internalType": "uint256",
          "name": "rank",
          "type": "uint256"
        }
      ],
      "stateMutability": "view",
      "type": "function"
    },
    {
      "inputs": [],
      "name": "lastModeratorResetTimestamp",
      "outputs": [
        {
          "internalType": "uint256",
          "name": "",
          "type": "uint256"
        }
      ],
      "stateMutability": "view",
      "type": "function"
    },
    {
      "inputs": [],
      "name": "moderatorNominationThreshold",
      "outputs": [
        {
          "internalType": "uint256",
          "name": "",
          "type": "uint256"
        }
      ],
      "stateMutability": "view",
      "type": "function"
    },
    {
      "inputs": [],
      "name": "moderatorVotingThreshold",
      "outputs": [
        {
          "internalType": "uint256",
          "name": "",
          "type": "uint256"
        }
      ],
      "stateMutability": "view",
      "type": "function"
    },
    {
      "inputs": [],
      "name": "monthlyMintGovTokens",
      "outputs": [],
      "stateMutability": "nonpayable",
      "type": "function"
    },
    {
      "inputs": [
        {
          "internalType": "string",
          "name": "insuranceName",
          "type": "string"
        },
        {
          "internalType": "string[]",
          "name": "tokenURIs",
          "type": "string[]"
        }
      ],
      "name": "monthlyMintNFTForPool",
      "outputs": [],
      "stateMutability": "nonpayable",
      "type": "function"
    },
    {
      "inputs": [
        {
          "internalType": "string",
          "name": "insuranceName",
          "type": "string"
        },
        {
          "internalType": "address payable",
          "name": "recipient",
          "type": "address"
        },
        {
          "internalType": "uint256",
          "name": "amount",
          "type": "uint256"
        }
      ],
      "name": "moveEtherFromInsurance",
      "outputs": [],
      "stateMutability": "nonpayable",
      "type": "function"
    },
    {
      "inputs": [],
      "name": "nftPool",
      "outputs": [
        {
          "internalType": "contract IGraviPoolNFT",
          "name": "",
          "type": "address"
        }
      ],
      "stateMutability": "view",
      "type": "function"
    },
    {
      "inputs": [
        {
          "internalType": "address",
          "name": "_moderator",
          "type": "address"
        }
      ],
      "name": "nominateModerator",
      "outputs": [],
      "stateMutability": "nonpayable",
      "type": "function"
    },
    {
      "inputs": [
        {
          "internalType": "address",
          "name": "",
          "type": "address"
        }
      ],
      "name": "nominatedModerators",
      "outputs": [
        {
          "internalType": "address",
          "name": "moderator",
          "type": "address"
        },
        {
          "internalType": "address",
          "name": "nominator",
          "type": "address"
        },
        {
          "internalType": "uint256",
          "name": "votes",
          "type": "uint256"
        },
        {
          "internalType": "uint256",
          "name": "nominatedAt",
          "type": "uint256"
        }
      ],
      "stateMutability": "view",
      "type": "function"
    },
    {
      "inputs": [],
      "name": "owner",
      "outputs": [
        {
          "internalType": "address",
          "name": "",
          "type": "address"
        }
      ],
      "stateMutability": "view",
      "type": "function"
    },
    {
      "inputs": [
        {
          "internalType": "uint256",
          "name": "amount",
          "type": "uint256"
        }
      ],
      "name": "purchaseGovTokens",
      "outputs": [],
      "stateMutability": "payable",
      "type": "function"
    },
    {
      "inputs": [
        {
          "internalType": "string",
          "name": "insuranceName",
          "type": "string"
        }
      ],
      "name": "removeInsurancePool",
      "outputs": [],
      "stateMutability": "nonpayable",
      "type": "function"
    },
    {
      "inputs": [],
      "name": "renounceOwnership",
      "outputs": [],
      "stateMutability": "nonpayable",
      "type": "function"
    },
    {
      "inputs": [],
      "name": "resetModerators",
      "outputs": [],
      "stateMutability": "nonpayable",
      "type": "function"
    },
    {
      "inputs": [
        {
          "internalType": "uint256",
          "name": "newPrice",
          "type": "uint256"
        },
        {
          "internalType": "uint256",
          "name": "newBurnAmount",
          "type": "uint256"
        },
        {
          "internalType": "uint256",
          "name": "mintAmount",
          "type": "uint256"
        }
      ],
      "name": "setGovernanceTokenParameters",
      "outputs": [],
      "stateMutability": "nonpayable",
      "type": "function"
    },
    {
      "inputs": [
        {
          "internalType": "uint256",
          "name": "_nominationThreshold",
          "type": "uint256"
        },
        {
          "internalType": "uint256",
          "name": "_votingThreshold",
          "type": "uint256"
        }
      ],
      "name": "setModeratorThresholds",
      "outputs": [],
      "stateMutability": "nonpayable",
      "type": "function"
    },
    {
      "inputs": [
        {
          "internalType": "uint256",
          "name": "newAmount",
          "type": "uint256"
        }
      ],
      "name": "setMonthlyGovMintAmount",
      "outputs": [],
      "stateMutability": "nonpayable",
      "type": "function"
    },
    {
      "inputs": [
        {
          "internalType": "address",
          "name": "_nftPool",
          "type": "address"
        }
      ],
      "name": "setNFTPool",
      "outputs": [],
      "stateMutability": "nonpayable",
      "type": "function"
    },
    {
      "inputs": [
        {
          "internalType": "address",
          "name": "_timelockController",
          "type": "address"
        }
      ],
      "name": "setTimelockController",
      "outputs": [],
      "stateMutability": "nonpayable",
      "type": "function"
    },
    {
      "inputs": [],
      "name": "timelockController",
      "outputs": [
        {
          "internalType": "address",
          "name": "",
          "type": "address"
        }
      ],
      "stateMutability": "view",
      "type": "function"
    },
    {
      "inputs": [
        {
          "internalType": "address",
          "name": "newOwner",
          "type": "address"
        }
      ],
      "name": "transferOwnership",
      "outputs": [],
      "stateMutability": "nonpayable",
      "type": "function"
    },
    {
      "inputs": [
        {
          "internalType": "address",
          "name": "_moderator",
          "type": "address"
        }
      ],
      "name": "voteForModerator",
      "outputs": [],
      "stateMutability": "nonpayable",
      "type": "function"
    }
  ],
  "bytecode": "0x60803461012657601f6129fb38819003918201601f19168301916001600160401b0383118484101761012b57808492604094855283398101031261012657610052602061004b83610141565b9201610141565b33156101105760008054336001600160a01b0319821681178355604051949290916001600160a01b0316907f8be0079c531659141344cd1fd0a4f28419497f9722a3daafe3b4186f6b6457e09080a3662386f26fc10000600455678ac7230489e8000060055568056bc75e2d63100000600955670de0b6b3a7640000600a55600280546001600160a01b039283166001600160a01b0319918216179091556003805493909216921691909117905542600b556128a590816101568239f35b631e4fbdf760e01b600052600060045260246000fd5b600080fd5b634e487b7160e01b600052604160045260246000fd5b51906001600160a01b03821682036101265756fe608080604052600436101561001357600080fd5b600090813560e01c9081630828862d14612225575080631051a346146121c25780631aba5fa41461218c57806321f320f614611f0957806323ed3bd814611e17578063241c1df914611df957806326fd16d114611d8d5780632a94ac3f14611d005780633646d52e14611ca6578063404c403e14611c8857806342762d8e14611c1f57806343205a5214611ba357806344bb2f9614611b6757806345a47fe314611b4957806352886f6414611b2b57806369cc20c11461199e578063715018a614611944578063744b8d471461170257806381b0ae921461162357806381b3e3f5146115a25780638da5cb5b1461157b5780638dd3cbd1146114ea57806391917070146114a657806397240e4d146113a257806397370aff1461132c5780639d4c3e691461130e5780639d7a10e61461111e578063a573be17146110f5578063a6da6d3b14610f30578063b04869ae14610f07578063b131d31514610ee9578063c27e067a14610af7578063d547f34314610a14578063d8345fe01461097b578063e54d9a4a14610731578063f2fde38b146106ab578063f3388e75146106825763fbc1d869146101c357600080fd5b3461067f57604036600319011261067f576004356001600160401b03811161067d576101f390369060040161243a565b906101fc612409565b9160018060a01b0382541633148015610669575b610219906126e3565b6040519281519360208301946102308183886123ab565b60069082019081528190036020019020546001600160a01b0316610624576007546001600160a01b03169384156105c557604051638da5cb5b60e01b81526001600160a01b03831695906020816004818a5afa9081156105ba57869161057c575b50306001600160a01b039091160361053757803b1561053357848091602460405180948193632eb97b0160e21b83528b60048401525af180156105285790859161050f575b505060206102ef916040518093819287519283916123ab565b60069082019081520301902080546001600160a01b0319166001600160a01b038616179055600854600160401b8110156104fb57806001610333920160085561224a565b9490946104e7578251946001600160401b0386116104d3576103558154612296565b601f8111610498575b50602095601f8111600114610434578086978795969791610429575b508160011b916000199060031b1c19161790555b6002546001600160a01b031690813b1561041a578291602483926040519485938492634c1d96ab60e11b845260048401525af1801561041e57610405575b50507f623af352474d44fabc0293cb2ede90259b04bc0a3f15730243cece612fec152e916103ff60405192839283612789565b0390a180f35b8161040f916122d0565b61041a5782386103cc565b8280fd5b6040513d84823e3d90fd5b90508601513861037a565b818652868620601f198216875b818110610480575090879883600194939997989910610467575b5050811b01905561038e565b88015160001960f88460031b161c19169055388061045b565b878a015183556020998a019960019093019201610441565b6104c39082875260208720601f890160051c81019160208a106104c9575b601f0160051c01906127e3565b3861035e565b90915081906104b6565b634e487b7160e01b85526041600452602485fd5b634e487b7160e01b84526004849052602484fd5b634e487b7160e01b84526041600452602484fd5b81610519916122d0565b6105245783386102d6565b8380fd5b6040513d87823e3d90fd5b8480fd5b60405162461bcd60e51b815260206004820152601b60248201527f44414f206d757374206f776e20696e737572616e636520706f6f6c00000000006044820152606490fd5b90506020813d6020116105b2575b81610597602093836122d0565b810103126105ae576105a890612509565b38610291565b8580fd5b3d915061058a565b6040513d88823e3d90fd5b60405162461bcd60e51b815260206004820152603160248201527f4e465420706f6f6c206d75737420626520736574206265666f726520616464696044820152701b99c81a5b9cdd5c985b98d9481c1bdbdb607a1b6064820152608490fd5b60405162461bcd60e51b815260206004820152601d60248201527f496e737572616e636520706f6f6c20616c7265616479206578697374730000006044820152606490fd5b506001546001600160a01b03163314610210565b505b80fd5b503461067f578060031936011261067f576001546040516001600160a01b039091168152602090f35b503461067f57602036600319011261067f576106c56123f3565b6106cd612846565b6001600160a01b0316801561071d5781546001600160a01b03198116821783556001600160a01b03167f8be0079c531659141344cd1fd0a4f28419497f9722a3daafe3b4186f6b6457e08380a380f35b631e4fbdf760e01b82526004829052602482fd5b503461067f57602036600319011261067f576001600160a01b036107536123f3565b16801561093657808252600c60205260408220546001600160a01b03166108fd576003546040516370a0823160e01b815233600482015290602090829060249082906001600160a01b03165afa80156108f25783906108b9575b6107bc915060095411156127fa565b604051608081018181106001600160401b038211176104fb5760409081528282523360208084019182528383018681524260608601908152868852600c909252928620935184546001600160a01b03199081166001600160a01b039283161786559251600186018054909416911617909155905160028301555160039190910155600d54600160401b8110156108a55780600161085c9201600d5561227b565b81549060031b9083821b9160018060a01b03901b1916179055604051904282527f6fcc8f439fbc77296e90ce156deca453be06aa82933f5d593ce9d433e93af44a60203393a380f35b634e487b7160e01b83526041600452602483fd5b506020813d6020116108ea575b816108d3602093836122d0565b810103126108e5576107bc90516107ad565b600080fd5b3d91506108c6565b6040513d85823e3d90fd5b60405162461bcd60e51b8152602060048201526011602482015270105b1c9958591e481b9bdb5a5b985d1959607a1b6044820152606490fd5b60405162461bcd60e51b815260206004820152601c60248201527f43616e6e6f74206e6f6d696e617465207a65726f2061646472657373000000006044820152606490fd5b503461067f57602036600319011261067f5780546001600160a01b031633148015610a00575b6109aa906126e3565b60035481906001600160a01b0316803b156109fd578180916024604051809481936364f6ad1160e01b835260043560048401525af1801561041e576109ec5750f35b816109f6916122d0565b61067f5780f35b50fd5b506001546001600160a01b031633146109a1565b503461067f578060031936011261067f57600854610a31816124f2565b610a3e60405191826122d0565b818152600883526020810191837ff3f7a9fe364faab93b216da50a3214154f22a0a2b415b23a84c8169e8b636ee3845b838310610ada57868587604051928392602084019060208552518091526040840160408260051b8601019392905b828210610aab57505050500390f35b91936001919395506020610aca8192603f198a820301865288516123ce565b9601920192018594939192610a9c565b600160208192610ae985612307565b815201920192019190610a6e565b50602036600319011261067f57600435670de0b6b3a7640000610b1c60045483612776565b04803410610eaa576003546040516370a0823160e01b815230600482015290602090829060249082906001600160a01b03165afa8015610d8a5783918591610e75575b5010610e2457670de0b6b3a7640000610b7a60055484612776565b0460018060a01b0360025416906040516370a0823160e01b8152336004820152602081602481865afa80156105ba5782918791610def575b5010610daa578185923b1561041a5760405163079cc67960e41b8152336004820152602481019290925282908290604490829084905af1801561041e57610d95575b505060035460405163a9059cbb60e01b815233600482015260248101849052906020908290604490829088906001600160a01b03165af1908115610d8a578491610d4f575b5015610d0e5780340390348211610cfa579083913403610c85575b50506040519081527f9df0abf6618a8dc2dc8ec10915f33087cca4c3916086a2f698d5264320d05f2a60203392a280f35b81808092335af13d15610cf5573d610c9c8161241f565b90610caa60405192836122d0565b81528360203d92013e5b15610cc0578138610c54565b60405162461bcd60e51b815260206004820152600d60248201526c1499599d5b990819985a5b1959609a1b6044820152606490fd5b610cb4565b634e487b7160e01b84526011600452602484fd5b60405162461bcd60e51b815260206004820152601960248201527811dbdd881d1bdad95b881d1c985b9cd9995c8819985a5b1959603a1b6044820152606490fd5b90506020813d602011610d82575b81610d6a602093836122d0565b81010312610524575180151581036105245738610c39565b3d9150610d5d565b6040513d86823e3d90fd5b81610d9f916122d0565b61041a578238610bf4565b60405162461bcd60e51b815260206004820152601b60248201527f496e73756666696369656e74206368617269747920746f6b656e7300000000006044820152606490fd5b9150506020813d602011610e1c575b81610e0b602093836122d0565b810103126108e55781905138610bb2565b3d9150610dfe565b60405162461bcd60e51b8152602060048201526024808201527f4e6f7420656e6f75676820676f7665726e616e636520746f6b656e7320696e206044820152631c1bdbdb60e21b6064820152608490fd5b9150506020813d602011610ea2575b81610e91602093836122d0565b810103126108e55782905138610b5f565b3d9150610e84565b60405162461bcd60e51b8152602060048201526017602482015276125b9cdd59999a58da595b9d08115d1a195c881cd95b9d604a1b6044820152606490fd5b503461067f578060031936011261067f576020600454604051908152f35b503461067f578060031936011261067f576002546040516001600160a01b039091168152602090f35b503461067f57602036600319011261067f576001600160a01b03610f526123f3565b16808252600c60205260408220546001600160a01b0316156110c057338252600e602052604082208160005260205260ff6040600020541661108b576003546040516370a0823160e01b815233600482015290602090829060249082906001600160a01b03165afa80156108f2578390611057575b610fd69150600a5411156127fa565b338252600e60205260408220816000526020526040600020600160ff19825416179055808252600c6020526002604083200180549060018201809211610cfa5755808252600c6020526002604083200154906040519182527fb7490e853f4984db29eb13bc17a247807c3a8dc41bac32d373e5401d943a566760203393a380f35b506020813d602011611083575b81611071602093836122d0565b810103126108e557610fd69051610fc7565b3d9150611064565b60405162461bcd60e51b815260206004820152600d60248201526c105b1c9958591e481d9bdd1959609a1b6044820152606490fd5b60405162461bcd60e51b815260206004820152600d60248201526c139bdd081b9bdb5a5b985d1959609a1b6044820152606490fd5b503461067f578060031936011261067f576003546040516001600160a01b039091168152602090f35b503461067f57602036600319011261067f57600d5460043581811115611308575080915b61114b826127b1565b91611155816127b1565b90825b8181106112bc575050815b8351831015611231576001830180841161121d575b84518110156112115760019061118e858561251d565b51611199828661251d565b51116111a6575b01611178565b6111b0858561251d565b516111bb828661251d565b516111c6878761251d565b526111d1828661251d565b52818060a01b036111e2868861251d565b5116828060a01b036111f4838961251d565b5116611200878961251d565b5261120b828861251d565b526111a0565b50600190920191611163565b634e487b7160e01b82526011600452602482fd5b93915061123d826127b1565b92611247836127b1565b945b83811061127e5761126c8561127a88604051938493604085526040850190612481565b9083820360208501526124be565b0390f35b6001906001600160a01b03611293828561251d565b511661129f828861251d565b526112aa818561251d565b516112b5828961251d565b5201611249565b806112cb60019297959761227b565b838060a01b0391549060031b1c16806112e4838961251d565b528752600c60205260026040882001546112fe828661251d565b5201949294611158565b91611142565b503461067f578060031936011261067f576020600a54604051908152f35b503461067f57602036600319011261067f57600435906001600160401b03821161067f57604061135f366004850161243a565b6020611373835192838151938492016123ab565b8101906006825260208160018060a01b039303019020541660018060a01b036007541682519182526020820152f35b503461067f578060031936011261067f5780546001600160a01b031633148015611492575b6113d0906126e3565b805b600d5481101561141a57806113e860019261227b565b838060a01b0391549060031b1c168352600c6020528260036040822082815582858201558260028201550155016113d2565b50600d5481600d558061145a575b5042600b557f07765f2eb0a181c9a08ca3f12c6522bf16f1c619a54c0d7fa0a6b19fe0cee9716020604051428152a180f35b600d825261148c907fd7b6990105719101dabeb77144f2a3385c8033acd3af97e9423a695e81ad1eb5908101906127e3565b38611428565b506001546001600160a01b031633146113c7565b503461067f57602036600319011261067f5760043590600d5482101561067f5760206114d18361227b565b905460405160039290921b1c6001600160a01b03168152f35b503461067f57606036600319011261067f5780546001600160a01b031633148015611567575b611519906126e3565b60048035905560243560055560035481906001600160a01b0316803b156109fd578180916024604051809481936364f6ad1160e01b835260443560048401525af1801561041e576109ec5750f35b506001546001600160a01b03163314611510565b503461067f578060031936011261067f57546040516001600160a01b039091168152602090f35b503461067f57604036600319011261067f577f6f22e0acd517461ba72f26dab03227b3f3eebc8f0f4564943503b8ece9bb256f604060043560243560018060a01b038554163314801561160f575b6115f9906126e3565b8160095580600a5582519182526020820152a180f35b506001546001600160a01b031633146115f0565b503461067f578060031936011261067f57600d5490611641826127b1565b9061164b836127b1565b92611655816127b1565b91805b82811061169b5761167f8561127a8661168d8a604051958695606087526060870190612481565b9085820360208701526124be565b908382036040850152612481565b806116a760019261227b565b838060a01b0391549060031b1c16806116c0838961251d565b52808452600c60205260026040852001546116db838a61251d565b528352600c602052818060a01b0382604085200154166116fb828761251d565b5201611658565b503461067f57604036600319011261067f576004356001600160401b03811161067d5761173390369060040161243a565b906024356001600160401b03811161067d573660238201121561067d578060040135906001600160401b03821161041a578160051b36602482840101116105245783546001600160a01b031633148015611930575b611791906126e3565b6007546001600160a01b03169485156118f65760206117b960405192838151938492016123ab565b60069082019081528190036020019020546001600160a01b0316906117df82151561272f565b6117e8846127b1565b91855b8581106118e1575050853b156105335760409392935193631a5c1b7960e11b8552836044860160406004880152526064808601928601019360248201928792604219813603015b83851061186b57505086860360031901602488015287808881818d81838161185a8f8f612481565b03925af1801561041e576109ec5750f35b9091929394966063198982030184528735828112156118dd5783016044602482013591016001600160401b0382116118d95781360381136118d957602083838e8184969585966001995285850137828201840152601f01601f19160101990196919091019493019190611832565b8b80fd5b8a80fd5b80826118ef6001938761251d565b52016117eb565b60405162461bcd60e51b8152602060048201526012602482015271139195081c1bdbdb081b9bdd08199bdd5b9960721b6044820152606490fd5b506001546001600160a01b03163314611788565b503461067f578060031936011261067f5761195d612846565b80546001600160a01b03198116825581906001600160a01b03167f8be0079c531659141344cd1fd0a4f28419497f9722a3daafe3b4186f6b6457e08280a380f35b503461067f57602036600319011261067f576004356001600160401b03811161067d576119cf90369060040161243a565b81546001600160a01b031633148015611b17575b6119ec906126e3565b604051908051916020820192611a038183866123ab565b60069082019081528190036020019020546001600160a01b0316908115611adc5760025484906001600160a01b0316803b1561067d57818091602460405180948193633092afd560e01b83528960048401525af1801561041e57611ac7575b5050611a9c60207fac01a30ac82ac5b47233b53a3e0d52ebe10441d12e832e65899f4bdd2bd1d9ae946040518093819286519283916123ab565b60069082019081520301902080546001600160a01b03191690556040519182916103ff919083612789565b81611ad1916122d0565b610524578338611a62565b60405162461bcd60e51b8152602060048201526013602482015272141bdbdb08191bd95cc81b9bdd08195e1a5cdd606a1b6044820152606490fd5b506001546001600160a01b031633146119e3565b503461067f578060031936011261067f576020600d54604051908152f35b503461067f578060031936011261067f576020600554604051908152f35b503461067f57602036600319011261067f576040600435611b97611b8d60045483612776565b9160055490612776565b82519182526020820152f35b503461067f578060031936011261067f5780546001600160a01b031633148015611c0b575b611bd1906126e3565b60035481906001600160a01b0316803b156109fd57818091600460405180948193638e8846a160e01b83525af1801561041e576109ec5750f35b506001546001600160a01b03163314611bc8565b503461067f57602036600319011261067f57600435906001600160401b03821161067f576020611c52366004850161243a565b81611c6660405192838151938492016123ab565b600690820190815281900382019020546040516001600160a01b039091168152f35b503461067f578060031936011261067f576020600b54604051908152f35b503461067f57604036600319011261067f576040611cc26123f3565b91611ccb612409565b9260018060a01b03168152600e602052209060018060a01b0316600052602052602060ff604060002054166040519015158152f35b503461067f57602036600319011261067f57611d1a6123f3565b611d22612846565b6001600160a01b03168015611d4857600180546001600160a01b03191691909117905580f35b60405162461bcd60e51b815260206004820152601f60248201527f54696d656c6f636b20616464726573732063616e6e6f74206265207a65726f006044820152606490fd5b503461067f57602036600319011261067f576080906040906001600160a01b03611db56123f3565b168152600c6020522060018060a01b038154169060018060a01b03600182015416906003600282015491015491604051938452602084015260408301526060820152f35b503461067f578060031936011261067f576020600954604051908152f35b503461067f57606036600319011261067f57806004356001600160401b0381116109fd57611e4990369060040161243a565b6024356001600160a01b0381169190829003611ef15782546001600160a01b031633148015611ef5575b611e7c906126e3565b6020611e9160405192838151938492016123ab565b60069082019081528190036020019020546001600160a01b031690611eb782151561272f565b813b15611ef15782916044839260405194859384926305b1137b60e01b84526004840152833560248401525af1801561041e576109ec5750f35b5050fd5b506001546001600160a01b03163314611e73565b503461067f57602036600319011261067f57611f236123f3565b81546001600160a01b031633148015612178575b611f40906126e3565b6001600160a01b031690811561213357604051638da5cb5b60e01b8152602081600481865afa90811561041e5782916120f9575b50306001600160a01b03909116036120bc576007546001600160a01b031680612030575b50600780546001600160a01b0319168317905560025490919082906001600160a01b0316803b1561067d57818091602460405180948193634c1d96ab60e11b83528860048401525af1801561041e5761201b575b507f462df8cbbf95fef6721ba53cb2a7589b9ffa9a04e59f8e93e9f72a71648f7cf2602083604051908152a180f35b81612025916122d0565b61067d578138611fec565b6002546001600160a01b031690813b1561041a578291602483926040519485938492633092afd560e01b845260048401525af1801561041e576120ac575b50907f3db3ddc3aa9620da53761479d4e80a562901f53d3c8c1254597727a11ac874a0602060018060a01b0360075416604051908152a19038611f98565b816120b6916122d0565b3861206e565b60405162461bcd60e51b8152602060048201526015602482015274111053c81b5d5cdd081bdddb88139195081c1bdbdb605a1b6044820152606490fd5b90506020813d60201161212b575b81612114602093836122d0565b8101031261067d5761212590612509565b38611f74565b3d9150612107565b60405162461bcd60e51b815260206004820152601f60248201527f4e465420706f6f6c20616464726573732063616e6e6f74206265207a65726f006044820152606490fd5b506001546001600160a01b03163314611f37565b503461067f57604036600319011261067f5760406121b46121ab6123f3565b60243590612531565b825191151582526020820152f35b503461067f57602036600319011261067f5760043560085481101561067d576121ea9061224a565b9190916122115761127a6121fd83612307565b6040519182916020835260208301906123ce565b634e487b7160e01b81526004819052602490fd5b90503461067d578160031936011261067d576007546001600160a01b03168152602090f35b60085481101561226557600860005260206000200190600090565b634e487b7160e01b600052603260045260246000fd5b600d5481101561226557600d60005260206000200190600090565b90600182811c921680156122c6575b60208310146122b057565b634e487b7160e01b600052602260045260246000fd5b91607f16916122a5565b90601f801991011681019081106001600160401b038211176122f157604052565b634e487b7160e01b600052604160045260246000fd5b906040519182600082549261231b84612296565b80845293600181169081156123895750600114612342575b50612340925003836122d0565b565b90506000929192526020600020906000915b81831061236d5750509060206123409282010138612333565b6020919350806001915483858901015201910190918492612354565b90506020925061234094915060ff191682840152151560051b82010138612333565b60005b8381106123be5750506000910152565b81810151838201526020016123ae565b906020916123e7815180928185528580860191016123ab565b601f01601f1916010190565b600435906001600160a01b03821682036108e557565b602435906001600160a01b03821682036108e557565b6001600160401b0381116122f157601f01601f191660200190565b81601f820112156108e5578035906124518261241f565b9261245f60405194856122d0565b828452602083830101116108e557816000926020809301838601378301015290565b906020808351928381520192019060005b81811061249f5750505090565b82516001600160a01b0316845260209384019390920191600101612492565b906020808351928381520192019060005b8181106124dc5750505090565b82518452602093840193909201916001016124cf565b6001600160401b0381116122f15760051b60200190565b51906001600160a01b03821682036108e557565b80518210156122655760209160051b010190565b91909160405192634ebd087360e11b84526004840152600083602481305afa9283156126d7576000936125ce575b5060005b83518110156125c2576001600160a01b0361257e828661251d565b51166001600160a01b0383161461259757600101612563565b80935060019150018092116125ac5760019190565b634e487b7160e01b600052601160045260246000fd5b50509050600090600090565b90923d8082843e6125df81846122d0565b82019060408383031261067f5782516001600160401b03811161067d5783019282601f8501121561067d57835193612616856124f2565b9461262460405196876122d0565b80865260208087019160051b8301019185831161053357602001905b8282106126bf575050506020810151906001600160401b03821161041a570182601f8201121561067d57805191602080612679856124f2565b61268660405191826122d0565b858152019360051b83010193841161067f5750602001905b8282106126af57505050913861255f565b815181526020918201910161269e565b602080916126cc84612509565b815201910190612640565b6040513d6000823e3d90fd5b156126ea57565b60405162461bcd60e51b815260206004820152601c60248201527f556e617574686f72697a65643a206e6f7420676f7665726e616e6365000000006044820152606490fd5b1561273657565b60405162461bcd60e51b8152602060048201526018602482015277125b9cdd5c985b98d9481c1bdbdb081b9bdd08199bdd5b9960421b6044820152606490fd5b818102929181159184041417156125ac57565b906127a16020919493946040845260408401906123ce565b6001600160a01b03909416910152565b906127bb826124f2565b6127c860405191826122d0565b82815280926127d9601f19916124f2565b0190602036910137565b8181106127ee575050565b600081556001016127e3565b1561280157565b60405162461bcd60e51b815260206004820152601e60248201527f496e73756666696369656e7420676f7665726e616e636520746f6b656e7300006044820152606490fd5b6000546001600160a01b0316330361285a57565b63118cdaa760e01b6000523360045260246000fdfea26469706673582212203c727d2df19a87c543e9621cea98b4a14a6390fa0eb2141f1a53535fc9d8284a64736f6c634300081c0033",
  "linkReferences": {},
  "deployedLinkReferences": {}
}