{
  "_format": "hh-sol-artifact-1",
  "contractName": "GraviDAO",
  "sourceName": "contracts/GraviDAO.sol",
  "abi": [
    {
      "inputs": [
        {
          "internalType": "contract IVotes",
          "name": "_token",
          "type": "address"
        },
        {
          "internalType": "contract TimelockController",
          "name": "_timelock",
          "type": "address"
        }
      ],
      "stateMutability": "nonpayable",
      "type": "constructor"
    },
    {
      "inputs": [],
      "name": "CheckpointUnorderedInsertion",
      "type": "error"
    },
    {
      "inputs": [],
      "name": "FailedCall",
      "type": "error"
    },
    {
      "inputs": [
        {
          "internalType": "address",
          "name": "voter",
          "type": "address"
        }
      ],
      "name": "GovernorAlreadyCastVote",
      "type": "error"
    },
    {
      "inputs": [
        {
          "internalType": "uint256",
          "name": "proposalId",
          "type": "uint256"
        }
      ],
      "name": "GovernorAlreadyQueuedProposal",
      "type": "error"
    },
    {
      "inputs": [],
      "name": "GovernorDisabledDeposit",
      "type": "error"
    },
    {
      "inputs": [
        {
          "internalType": "address",
          "name": "proposer",
          "type": "address"
        },
        {
          "internalType": "uint256",
          "name": "votes",
          "type": "uint256"
        },
        {
          "internalType": "uint256",
          "name": "threshold",
          "type": "uint256"
        }
      ],
      "name": "GovernorInsufficientProposerVotes",
      "type": "error"
    },
    {
      "inputs": [
        {
          "internalType": "uint256",
          "name": "targets",
          "type": "uint256"
        },
        {
          "internalType": "uint256",
          "name": "calldatas",
          "type": "uint256"
        },
        {
          "internalType": "uint256",
          "name": "values",
          "type": "uint256"
        }
      ],
      "name": "GovernorInvalidProposalLength",
      "type": "error"
    },
    {
      "inputs": [
        {
          "internalType": "uint256",
          "name": "quorumNumerator",
          "type": "uint256"
        },
        {
          "internalType": "uint256",
          "name": "quorumDenominator",
          "type": "uint256"
        }
      ],
      "name": "GovernorInvalidQuorumFraction",
      "type": "error"
    },
    {
      "inputs": [
        {
          "internalType": "address",
          "name": "voter",
          "type": "address"
        }
      ],
      "name": "GovernorInvalidSignature",
      "type": "error"
    },
    {
      "inputs": [],
      "name": "GovernorInvalidVoteParams",
      "type": "error"
    },
    {
      "inputs": [],
      "name": "GovernorInvalidVoteType",
      "type": "error"
    },
    {
      "inputs": [
        {
          "internalType": "uint256",
          "name": "votingPeriod",
          "type": "uint256"
        }
      ],
      "name": "GovernorInvalidVotingPeriod",
      "type": "error"
    },
    {
      "inputs": [
        {
          "internalType": "uint256",
          "name": "proposalId",
          "type": "uint256"
        }
      ],
      "name": "GovernorNonexistentProposal",
      "type": "error"
    },
    {
      "inputs": [
        {
          "internalType": "uint256",
          "name": "proposalId",
          "type": "uint256"
        }
      ],
      "name": "GovernorNotQueuedProposal",
      "type": "error"
    },
    {
      "inputs": [
        {
          "internalType": "address",
          "name": "account",
          "type": "address"
        }
      ],
      "name": "GovernorOnlyExecutor",
      "type": "error"
    },
    {
      "inputs": [
        {
          "internalType": "address",
          "name": "account",
          "type": "address"
        }
      ],
      "name": "GovernorOnlyProposer",
      "type": "error"
    },
    {
      "inputs": [],
      "name": "GovernorQueueNotImplemented",
      "type": "error"
    },
    {
      "inputs": [
        {
          "internalType": "address",
          "name": "proposer",
          "type": "address"
        }
      ],
      "name": "GovernorRestrictedProposer",
      "type": "error"
    },
    {
      "inputs": [
        {
          "internalType": "uint256",
          "name": "proposalId",
          "type": "uint256"
        },
        {
          "internalType": "enum IGovernor.ProposalState",
          "name": "current",
          "type": "uint8"
        },
        {
          "internalType": "bytes32",
          "name": "expectedStates",
          "type": "bytes32"
        }
      ],
      "name": "GovernorUnexpectedProposalState",
      "type": "error"
    },
    {
      "inputs": [
        {
          "internalType": "address",
          "name": "account",
          "type": "address"
        },
        {
          "internalType": "uint256",
          "name": "currentNonce",
          "type": "uint256"
        }
      ],
      "name": "InvalidAccountNonce",
      "type": "error"
    },
    {
      "inputs": [],
      "name": "InvalidInitialization",
      "type": "error"
    },
    {
      "inputs": [],
      "name": "InvalidShortString",
      "type": "error"
    },
    {
      "inputs": [],
      "name": "NotInitializing",
      "type": "error"
    },
    {
      "inputs": [
        {
          "internalType": "uint8",
          "name": "bits",
          "type": "uint8"
        },
        {
          "internalType": "uint256",
          "name": "value",
          "type": "uint256"
        }
      ],
      "name": "SafeCastOverflowedUintDowncast",
      "type": "error"
    },
    {
      "inputs": [
        {
          "internalType": "string",
          "name": "str",
          "type": "string"
        }
      ],
      "name": "StringTooLong",
      "type": "error"
    },
    {
      "anonymous": false,
      "inputs": [],
      "name": "EIP712DomainChanged",
      "type": "event"
    },
    {
      "anonymous": false,
      "inputs": [
        {
          "indexed": false,
          "internalType": "uint64",
          "name": "version",
          "type": "uint64"
        }
      ],
      "name": "Initialized",
      "type": "event"
    },
    {
      "anonymous": false,
      "inputs": [
        {
          "indexed": false,
          "internalType": "uint256",
          "name": "proposalId",
          "type": "uint256"
        }
      ],
      "name": "ProposalCanceled",
      "type": "event"
    },
    {
      "anonymous": false,
      "inputs": [
        {
          "indexed": false,
          "internalType": "uint256",
          "name": "proposalId",
          "type": "uint256"
        },
        {
          "indexed": false,
          "internalType": "address",
          "name": "proposer",
          "type": "address"
        },
        {
          "indexed": false,
          "internalType": "address[]",
          "name": "targets",
          "type": "address[]"
        },
        {
          "indexed": false,
          "internalType": "uint256[]",
          "name": "values",
          "type": "uint256[]"
        },
        {
          "indexed": false,
          "internalType": "string[]",
          "name": "signatures",
          "type": "string[]"
        },
        {
          "indexed": false,
          "internalType": "bytes[]",
          "name": "calldatas",
          "type": "bytes[]"
        },
        {
          "indexed": false,
          "internalType": "uint256",
          "name": "voteStart",
          "type": "uint256"
        },
        {
          "indexed": false,
          "internalType": "uint256",
          "name": "voteEnd",
          "type": "uint256"
        },
        {
          "indexed": false,
          "internalType": "string",
          "name": "description",
          "type": "string"
        }
      ],
      "name": "ProposalCreated",
      "type": "event"
    },
    {
      "anonymous": false,
      "inputs": [
        {
          "indexed": false,
          "internalType": "uint256",
          "name": "proposalId",
          "type": "uint256"
        }
      ],
      "name": "ProposalExecuted",
      "type": "event"
    },
    {
      "anonymous": false,
      "inputs": [
        {
          "indexed": false,
          "internalType": "uint256",
          "name": "proposalId",
          "type": "uint256"
        },
        {
          "indexed": false,
          "internalType": "uint256",
          "name": "etaSeconds",
          "type": "uint256"
        }
      ],
      "name": "ProposalQueued",
      "type": "event"
    },
    {
      "anonymous": false,
      "inputs": [
        {
          "indexed": false,
          "internalType": "uint256",
          "name": "oldQuorumNumerator",
          "type": "uint256"
        },
        {
          "indexed": false,
          "internalType": "uint256",
          "name": "newQuorumNumerator",
          "type": "uint256"
        }
      ],
      "name": "QuorumNumeratorUpdated",
      "type": "event"
    },
    {
      "anonymous": false,
      "inputs": [
        {
          "indexed": false,
          "internalType": "address",
          "name": "oldTimelock",
          "type": "address"
        },
        {
          "indexed": false,
          "internalType": "address",
          "name": "newTimelock",
          "type": "address"
        }
      ],
      "name": "TimelockChange",
      "type": "event"
    },
    {
      "anonymous": false,
      "inputs": [
        {
          "indexed": true,
          "internalType": "address",
          "name": "voter",
          "type": "address"
        },
        {
          "indexed": false,
          "internalType": "uint256",
          "name": "proposalId",
          "type": "uint256"
        },
        {
          "indexed": false,
          "internalType": "uint8",
          "name": "support",
          "type": "uint8"
        },
        {
          "indexed": false,
          "internalType": "uint256",
          "name": "weight",
          "type": "uint256"
        },
        {
          "indexed": false,
          "internalType": "string",
          "name": "reason",
          "type": "string"
        }
      ],
      "name": "VoteCast",
      "type": "event"
    },
    {
      "anonymous": false,
      "inputs": [
        {
          "indexed": true,
          "internalType": "address",
          "name": "voter",
          "type": "address"
        },
        {
          "indexed": false,
          "internalType": "uint256",
          "name": "proposalId",
          "type": "uint256"
        },
        {
          "indexed": false,
          "internalType": "uint8",
          "name": "support",
          "type": "uint8"
        },
        {
          "indexed": false,
          "internalType": "uint256",
          "name": "weight",
          "type": "uint256"
        },
        {
          "indexed": false,
          "internalType": "string",
          "name": "reason",
          "type": "string"
        },
        {
          "indexed": false,
          "internalType": "bytes",
          "name": "params",
          "type": "bytes"
        }
      ],
      "name": "VoteCastWithParams",
      "type": "event"
    },
    {
      "inputs": [],
      "name": "BALLOT_TYPEHASH",
      "outputs": [
        {
          "internalType": "bytes32",
          "name": "",
          "type": "bytes32"
        }
      ],
      "stateMutability": "view",
      "type": "function"
    },
    {
      "inputs": [],
      "name": "CLOCK_MODE",
      "outputs": [
        {
          "internalType": "string",
          "name": "",
          "type": "string"
        }
      ],
      "stateMutability": "view",
      "type": "function"
    },
    {
      "inputs": [],
      "name": "COUNTING_MODE",
      "outputs": [
        {
          "internalType": "string",
          "name": "",
          "type": "string"
        }
      ],
      "stateMutability": "pure",
      "type": "function"
    },
    {
      "inputs": [],
      "name": "EXTENDED_BALLOT_TYPEHASH",
      "outputs": [
        {
          "internalType": "bytes32",
          "name": "",
          "type": "bytes32"
        }
      ],
      "stateMutability": "view",
      "type": "function"
    },
    {
      "inputs": [
        {
          "internalType": "address[]",
          "name": "targets",
          "type": "address[]"
        },
        {
          "internalType": "uint256[]",
          "name": "values",
          "type": "uint256[]"
        },
        {
          "internalType": "bytes[]",
          "name": "calldatas",
          "type": "bytes[]"
        },
        {
          "internalType": "bytes32",
          "name": "descriptionHash",
          "type": "bytes32"
        }
      ],
      "name": "cancel",
      "outputs": [
        {
          "internalType": "uint256",
          "name": "",
          "type": "uint256"
        }
      ],
      "stateMutability": "nonpayable",
      "type": "function"
    },
    {
      "inputs": [
        {
          "internalType": "uint256",
          "name": "proposalId",
          "type": "uint256"
        },
        {
          "internalType": "uint8",
          "name": "support",
          "type": "uint8"
        }
      ],
      "name": "castVote",
      "outputs": [
        {
          "internalType": "uint256",
          "name": "",
          "type": "uint256"
        }
      ],
      "stateMutability": "nonpayable",
      "type": "function"
    },
    {
      "inputs": [
        {
          "internalType": "uint256",
          "name": "proposalId",
          "type": "uint256"
        },
        {
          "internalType": "uint8",
          "name": "support",
          "type": "uint8"
        },
        {
          "internalType": "address",
          "name": "voter",
          "type": "address"
        },
        {
          "internalType": "bytes",
          "name": "signature",
          "type": "bytes"
        }
      ],
      "name": "castVoteBySig",
      "outputs": [
        {
          "internalType": "uint256",
          "name": "",
          "type": "uint256"
        }
      ],
      "stateMutability": "nonpayable",
      "type": "function"
    },
    {
      "inputs": [
        {
          "internalType": "uint256",
          "name": "proposalId",
          "type": "uint256"
        },
        {
          "internalType": "uint8",
          "name": "support",
          "type": "uint8"
        },
        {
          "internalType": "string",
          "name": "reason",
          "type": "string"
        }
      ],
      "name": "castVoteWithReason",
      "outputs": [
        {
          "internalType": "uint256",
          "name": "",
          "type": "uint256"
        }
      ],
      "stateMutability": "nonpayable",
      "type": "function"
    },
    {
      "inputs": [
        {
          "internalType": "uint256",
          "name": "proposalId",
          "type": "uint256"
        },
        {
          "internalType": "uint8",
          "name": "support",
          "type": "uint8"
        },
        {
          "internalType": "string",
          "name": "reason",
          "type": "string"
        },
        {
          "internalType": "bytes",
          "name": "params",
          "type": "bytes"
        }
      ],
      "name": "castVoteWithReasonAndParams",
      "outputs": [
        {
          "internalType": "uint256",
          "name": "",
          "type": "uint256"
        }
      ],
      "stateMutability": "nonpayable",
      "type": "function"
    },
    {
      "inputs": [
        {
          "internalType": "uint256",
          "name": "proposalId",
          "type": "uint256"
        },
        {
          "internalType": "uint8",
          "name": "support",
          "type": "uint8"
        },
        {
          "internalType": "address",
          "name": "voter",
          "type": "address"
        },
        {
          "internalType": "string",
          "name": "reason",
          "type": "string"
        },
        {
          "internalType": "bytes",
          "name": "params",
          "type": "bytes"
        },
        {
          "internalType": "bytes",
          "name": "signature",
          "type": "bytes"
        }
      ],
      "name": "castVoteWithReasonAndParamsBySig",
      "outputs": [
        {
          "internalType": "uint256",
          "name": "",
          "type": "uint256"
        }
      ],
      "stateMutability": "nonpayable",
      "type": "function"
    },
    {
      "inputs": [],
      "name": "clock",
      "outputs": [
        {
          "internalType": "uint48",
          "name": "",
          "type": "uint48"
        }
      ],
      "stateMutability": "view",
      "type": "function"
    },
    {
      "inputs": [],
      "name": "eip712Domain",
      "outputs": [
        {
          "internalType": "bytes1",
          "name": "fields",
          "type": "bytes1"
        },
        {
          "internalType": "string",
          "name": "name",
          "type": "string"
        },
        {
          "internalType": "string",
          "name": "version",
          "type": "string"
        },
        {
          "internalType": "uint256",
          "name": "chainId",
          "type": "uint256"
        },
        {
          "internalType": "address",
          "name": "verifyingContract",
          "type": "address"
        },
        {
          "internalType": "bytes32",
          "name": "salt",
          "type": "bytes32"
        },
        {
          "internalType": "uint256[]",
          "name": "extensions",
          "type": "uint256[]"
        }
      ],
      "stateMutability": "view",
      "type": "function"
    },
    {
      "inputs": [
        {
          "internalType": "address[]",
          "name": "targets",
          "type": "address[]"
        },
        {
          "internalType": "uint256[]",
          "name": "values",
          "type": "uint256[]"
        },
        {
          "internalType": "bytes[]",
          "name": "calldatas",
          "type": "bytes[]"
        },
        {
          "internalType": "bytes32",
          "name": "descriptionHash",
          "type": "bytes32"
        }
      ],
      "name": "execute",
      "outputs": [
        {
          "internalType": "uint256",
          "name": "",
          "type": "uint256"
        }
      ],
      "stateMutability": "payable",
      "type": "function"
    },
    {
      "inputs": [
        {
          "internalType": "address",
          "name": "account",
          "type": "address"
        },
        {
          "internalType": "uint256",
          "name": "timepoint",
          "type": "uint256"
        }
      ],
      "name": "getVotes",
      "outputs": [
        {
          "internalType": "uint256",
          "name": "",
          "type": "uint256"
        }
      ],
      "stateMutability": "view",
      "type": "function"
    },
    {
      "inputs": [
        {
          "internalType": "address",
          "name": "account",
          "type": "address"
        },
        {
          "internalType": "uint256",
          "name": "timepoint",
          "type": "uint256"
        },
        {
          "internalType": "bytes",
          "name": "params",
          "type": "bytes"
        }
      ],
      "name": "getVotesWithParams",
      "outputs": [
        {
          "internalType": "uint256",
          "name": "",
          "type": "uint256"
        }
      ],
      "stateMutability": "view",
      "type": "function"
    },
    {
      "inputs": [
        {
          "internalType": "uint256",
          "name": "proposalId",
          "type": "uint256"
        },
        {
          "internalType": "address",
          "name": "account",
          "type": "address"
        }
      ],
      "name": "hasVoted",
      "outputs": [
        {
          "internalType": "bool",
          "name": "",
          "type": "bool"
        }
      ],
      "stateMutability": "view",
      "type": "function"
    },
    {
      "inputs": [
        {
          "internalType": "address[]",
          "name": "targets",
          "type": "address[]"
        },
        {
          "internalType": "uint256[]",
          "name": "values",
          "type": "uint256[]"
        },
        {
          "internalType": "bytes[]",
          "name": "calldatas",
          "type": "bytes[]"
        },
        {
          "internalType": "bytes32",
          "name": "descriptionHash",
          "type": "bytes32"
        }
      ],
      "name": "hashProposal",
      "outputs": [
        {
          "internalType": "uint256",
          "name": "",
          "type": "uint256"
        }
      ],
      "stateMutability": "pure",
      "type": "function"
    },
    {
      "inputs": [],
      "name": "name",
      "outputs": [
        {
          "internalType": "string",
          "name": "",
          "type": "string"
        }
      ],
      "stateMutability": "view",
      "type": "function"
    },
    {
      "inputs": [
        {
          "internalType": "address",
          "name": "owner",
          "type": "address"
        }
      ],
      "name": "nonces",
      "outputs": [
        {
          "internalType": "uint256",
          "name": "",
          "type": "uint256"
        }
      ],
      "stateMutability": "view",
      "type": "function"
    },
    {
      "inputs": [
        {
          "internalType": "address",
          "name": "",
          "type": "address"
        },
        {
          "internalType": "address",
          "name": "",
          "type": "address"
        },
        {
          "internalType": "uint256[]",
          "name": "",
          "type": "uint256[]"
        },
        {
          "internalType": "uint256[]",
          "name": "",
          "type": "uint256[]"
        },
        {
          "internalType": "bytes",
          "name": "",
          "type": "bytes"
        }
      ],
      "name": "onERC1155BatchReceived",
      "outputs": [
        {
          "internalType": "bytes4",
          "name": "",
          "type": "bytes4"
        }
      ],
      "stateMutability": "nonpayable",
      "type": "function"
    },
    {
      "inputs": [
        {
          "internalType": "address",
          "name": "",
          "type": "address"
        },
        {
          "internalType": "address",
          "name": "",
          "type": "address"
        },
        {
          "internalType": "uint256",
          "name": "",
          "type": "uint256"
        },
        {
          "internalType": "uint256",
          "name": "",
          "type": "uint256"
        },
        {
          "internalType": "bytes",
          "name": "",
          "type": "bytes"
        }
      ],
      "name": "onERC1155Received",
      "outputs": [
        {
          "internalType": "bytes4",
          "name": "",
          "type": "bytes4"
        }
      ],
      "stateMutability": "nonpayable",
      "type": "function"
    },
    {
      "inputs": [
        {
          "internalType": "address",
          "name": "",
          "type": "address"
        },
        {
          "internalType": "address",
          "name": "",
          "type": "address"
        },
        {
          "internalType": "uint256",
          "name": "",
          "type": "uint256"
        },
        {
          "internalType": "bytes",
          "name": "",
          "type": "bytes"
        }
      ],
      "name": "onERC721Received",
      "outputs": [
        {
          "internalType": "bytes4",
          "name": "",
          "type": "bytes4"
        }
      ],
      "stateMutability": "nonpayable",
      "type": "function"
    },
    {
      "inputs": [
        {
          "internalType": "uint256",
          "name": "proposalId",
          "type": "uint256"
        }
      ],
      "name": "proposalDeadline",
      "outputs": [
        {
          "internalType": "uint256",
          "name": "",
          "type": "uint256"
        }
      ],
      "stateMutability": "view",
      "type": "function"
    },
    {
      "inputs": [
        {
          "internalType": "uint256",
          "name": "proposalId",
          "type": "uint256"
        }
      ],
      "name": "proposalEta",
      "outputs": [
        {
          "internalType": "uint256",
          "name": "",
          "type": "uint256"
        }
      ],
      "stateMutability": "view",
      "type": "function"
    },
    {
      "inputs": [
        {
          "internalType": "uint256",
          "name": "proposalId",
          "type": "uint256"
        }
      ],
      "name": "proposalNeedsQueuing",
      "outputs": [
        {
          "internalType": "bool",
          "name": "",
          "type": "bool"
        }
      ],
      "stateMutability": "view",
      "type": "function"
    },
    {
      "inputs": [
        {
          "internalType": "uint256",
          "name": "proposalId",
          "type": "uint256"
        }
      ],
      "name": "proposalProposer",
      "outputs": [
        {
          "internalType": "address",
          "name": "",
          "type": "address"
        }
      ],
      "stateMutability": "view",
      "type": "function"
    },
    {
      "inputs": [
        {
          "internalType": "uint256",
          "name": "proposalId",
          "type": "uint256"
        }
      ],
      "name": "proposalSnapshot",
      "outputs": [
        {
          "internalType": "uint256",
          "name": "",
          "type": "uint256"
        }
      ],
      "stateMutability": "view",
      "type": "function"
    },
    {
      "inputs": [],
      "name": "proposalThreshold",
      "outputs": [
        {
          "internalType": "uint256",
          "name": "",
          "type": "uint256"
        }
      ],
      "stateMutability": "pure",
      "type": "function"
    },
    {
      "inputs": [
        {
          "internalType": "uint256",
          "name": "proposalId",
          "type": "uint256"
        }
      ],
      "name": "proposalVotes",
      "outputs": [
        {
          "internalType": "uint256",
          "name": "againstVotes",
          "type": "uint256"
        },
        {
          "internalType": "uint256",
          "name": "forVotes",
          "type": "uint256"
        },
        {
          "internalType": "uint256",
          "name": "abstainVotes",
          "type": "uint256"
        }
      ],
      "stateMutability": "view",
      "type": "function"
    },
    {
      "inputs": [
        {
          "internalType": "address[]",
          "name": "targets",
          "type": "address[]"
        },
        {
          "internalType": "uint256[]",
          "name": "values",
          "type": "uint256[]"
        },
        {
          "internalType": "bytes[]",
          "name": "calldatas",
          "type": "bytes[]"
        },
        {
          "internalType": "string",
          "name": "description",
          "type": "string"
        }
      ],
      "name": "propose",
      "outputs": [
        {
          "internalType": "uint256",
          "name": "",
          "type": "uint256"
        }
      ],
      "stateMutability": "nonpayable",
      "type": "function"
    },
    {
      "inputs": [
        {
          "internalType": "address[]",
          "name": "targets",
          "type": "address[]"
        },
        {
          "internalType": "uint256[]",
          "name": "values",
          "type": "uint256[]"
        },
        {
          "internalType": "bytes[]",
          "name": "calldatas",
          "type": "bytes[]"
        },
        {
          "internalType": "bytes32",
          "name": "descriptionHash",
          "type": "bytes32"
        }
      ],
      "name": "queue",
      "outputs": [
        {
          "internalType": "uint256",
          "name": "",
          "type": "uint256"
        }
      ],
      "stateMutability": "nonpayable",
      "type": "function"
    },
    {
      "inputs": [
        {
          "internalType": "uint256",
          "name": "timepoint",
          "type": "uint256"
        }
      ],
      "name": "quorum",
      "outputs": [
        {
          "internalType": "uint256",
          "name": "",
          "type": "uint256"
        }
      ],
      "stateMutability": "view",
      "type": "function"
    },
    {
      "inputs": [],
      "name": "quorumDenominator",
      "outputs": [
        {
          "internalType": "uint256",
          "name": "",
          "type": "uint256"
        }
      ],
      "stateMutability": "view",
      "type": "function"
    },
    {
      "inputs": [
        {
          "internalType": "uint256",
          "name": "timepoint",
          "type": "uint256"
        }
      ],
      "name": "quorumNumerator",
      "outputs": [
        {
          "internalType": "uint256",
          "name": "",
          "type": "uint256"
        }
      ],
      "stateMutability": "view",
      "type": "function"
    },
    {
      "inputs": [],
      "name": "quorumNumerator",
      "outputs": [
        {
          "internalType": "uint256",
          "name": "",
          "type": "uint256"
        }
      ],
      "stateMutability": "view",
      "type": "function"
    },
    {
      "inputs": [
        {
          "internalType": "address",
          "name": "target",
          "type": "address"
        },
        {
          "internalType": "uint256",
          "name": "value",
          "type": "uint256"
        },
        {
          "internalType": "bytes",
          "name": "data",
          "type": "bytes"
        }
      ],
      "name": "relay",
      "outputs": [],
      "stateMutability": "payable",
      "type": "function"
    },
    {
      "inputs": [
        {
          "internalType": "uint256",
          "name": "proposalId",
          "type": "uint256"
        }
      ],
      "name": "state",
      "outputs": [
        {
          "internalType": "enum IGovernor.ProposalState",
          "name": "",
          "type": "uint8"
        }
      ],
      "stateMutability": "view",
      "type": "function"
    },
    {
      "inputs": [
        {
          "internalType": "bytes4",
          "name": "interfaceId",
          "type": "bytes4"
        }
      ],
      "name": "supportsInterface",
      "outputs": [
        {
          "internalType": "bool",
          "name": "",
          "type": "bool"
        }
      ],
      "stateMutability": "view",
      "type": "function"
    },
    {
      "inputs": [],
      "name": "timelock",
      "outputs": [
        {
          "internalType": "address",
          "name": "",
          "type": "address"
        }
      ],
      "stateMutability": "view",
      "type": "function"
    },
    {
      "inputs": [],
      "name": "token",
      "outputs": [
        {
          "internalType": "contract IERC5805",
          "name": "",
          "type": "address"
        }
      ],
      "stateMutability": "view",
      "type": "function"
    },
    {
      "inputs": [
        {
          "internalType": "uint256",
          "name": "newQuorumNumerator",
          "type": "uint256"
        }
      ],
      "name": "updateQuorumNumerator",
      "outputs": [],
      "stateMutability": "nonpayable",
      "type": "function"
    },
    {
      "inputs": [
        {
          "internalType": "contract TimelockController",
          "name": "newTimelock",
          "type": "address"
        }
      ],
      "name": "updateTimelock",
      "outputs": [],
      "stateMutability": "nonpayable",
      "type": "function"
    },
    {
      "inputs": [],
      "name": "version",
      "outputs": [
        {
          "internalType": "string",
          "name": "",
          "type": "string"
        }
      ],
      "stateMutability": "view",
      "type": "function"
    },
    {
      "inputs": [],
      "name": "votingDelay",
      "outputs": [
        {
          "internalType": "uint256",
          "name": "",
          "type": "uint256"
        }
      ],
      "stateMutability": "pure",
      "type": "function"
    },
    {
      "inputs": [],
      "name": "votingPeriod",
      "outputs": [
        {
          "internalType": "uint256",
          "name": "",
          "type": "uint256"
        }
      ],
      "stateMutability": "pure",
      "type": "function"
    },
    {
      "stateMutability": "payable",
      "type": "receive"
    }
  ],
  "bytecode": "0x61018060405234801561001157600080fd5b50604051617f13380380617f1383398181016040528101906100339190610aa4565b806004836040518060400160405280600881526020017f477261766944414f0000000000000000000000000000000000000000000000008152508061007c61019460201b60201c565b6100906000836101d160201b90919060201c565b61012081815250506100ac6001826101d160201b90919060201c565b6101408181525050818051906020012060e08181525050808051906020012061010081815250504660a081815250506100e961022160201b60201c565b608081815250503073ffffffffffffffffffffffffffffffffffffffff1660c08173ffffffffffffffffffffffffffffffffffffffff1681525050505080600390816101359190610d34565b50508073ffffffffffffffffffffffffffffffffffffffff166101608173ffffffffffffffffffffffffffffffffffffffff16815250505061017c8161027c60201b60201c565b5061018c8161035860201b60201c565b5050506111c3565b60606040518060400160405280600181526020017f3100000000000000000000000000000000000000000000000000000000000000815250905090565b60006020835110156101f3576101ec836103f760201b60201c565b905061021b565b826102038361045f60201b60201c565b60000190816102129190610d34565b5060ff60001b90505b92915050565b60007f8b73c3c69bb8fe3d512ecc4cf759cc79239f7b179b0ffacaa9a75d522b39400f60e051610100514630604051602001610261959493929190610e3d565b60405160208183030381529060405280519060200120905090565b600061028c61046960201b60201c565b9050808211156102d55781816040517f243e54450000000000000000000000000000000000000000000000000000000081526004016102cc929190610e90565b60405180910390fd5b60006102e561047260201b60201c565b90506103186102f86104a560201b60201c565b6103078561053d60201b60201c565b60086105ab60201b9092919060201c565b50507f0553476bf02ef2726e8ce5ced78d63e26e602e4a2257b1f559418e24b4633997818460405161034b929190610e90565b60405180910390a1505050565b7f08f74ea46ef7894f65eabfb5e6e695de773a000b47c529ab559178069b226401600960009054906101000a900473ffffffffffffffffffffffffffffffffffffffff16826040516103ab929190610eb9565b60405180910390a180600960006101000a81548173ffffffffffffffffffffffffffffffffffffffff021916908373ffffffffffffffffffffffffffffffffffffffff16021790555050565b600080829050601f8151111561044457826040517f305a27a900000000000000000000000000000000000000000000000000000000815260040161043b9190610f67565b60405180910390fd5b80518161045090610fb9565b60001c1760001b915050919050565b6000819050919050565b60006064905090565b600061048460086105ce60201b60201c565b79ffffffffffffffffffffffffffffffffffffffffffffffffffff16905090565b60006104b561063c60201b60201c565b73ffffffffffffffffffffffffffffffffffffffff166391ddadf46040518163ffffffff1660e01b8152600401602060405180830381865afa92505050801561051c57506040513d601f19601f82011682018060405250810190610519919061105e565b60015b6105355761052e61064760201b60201c565b905061053a565b809150505b90565b600079ffffffffffffffffffffffffffffffffffffffffffffffffffff80168211156105a35760d0826040517f6dfcc65000000000000000000000000000000000000000000000000000000000815260040161059a9291906110d3565b60405180910390fd5b819050919050565b6000806105c285600001858561065d60201b60201c565b91509150935093915050565b600080826000018054905090506000811461063157610602836000016001836105f7919061112b565b61097060201b60201c565b60000160069054906101000a900479ffffffffffffffffffffffffffffffffffffffffffffffffffff16610634565b60005b915050919050565b600061016051905090565b60006106584361098560201b60201c565b905090565b600080600085805490509050600081111561088057600061069087600184610685919061112b565b61097060201b60201c565b905060008160000160009054906101000a900465ffffffffffff16905060008260000160069054906101000a900479ffffffffffffffffffffffffffffffffffffffffffffffffffff1690508765ffffffffffff168265ffffffffffff161115610726576040517f2520601d00000000000000000000000000000000000000000000000000000000815260040160405180910390fd5b8765ffffffffffff168265ffffffffffff160361079157868360000160066101000a81548179ffffffffffffffffffffffffffffffffffffffffffffffffffff021916908379ffffffffffffffffffffffffffffffffffffffffffffffffffff160217905550610871565b8860405180604001604052808a65ffffffffffff1681526020018979ffffffffffffffffffffffffffffffffffffffffffffffffffff168152509080600181540180825580915050600190039060005260206000200160009091909190915060008201518160000160006101000a81548165ffffffffffff021916908365ffffffffffff16021790555060208201518160000160066101000a81548179ffffffffffffffffffffffffffffffffffffffffffffffffffff021916908379ffffffffffffffffffffffffffffffffffffffffffffffffffff16021790555050505b80879550955050505050610968565b8560405180604001604052808765ffffffffffff1681526020018679ffffffffffffffffffffffffffffffffffffffffffffffffffff168152509080600181540180825580915050600190039060005260206000200160009091909190915060008201518160000160006101000a81548165ffffffffffff021916908365ffffffffffff16021790555060208201518160000160066101000a81548179ffffffffffffffffffffffffffffffffffffffffffffffffffff021916908379ffffffffffffffffffffffffffffffffffffffffffffffffffff160217905550505060008492509250505b935093915050565b60008260005281602060002001905092915050565b600065ffffffffffff80168211156109d7576030826040517f6dfcc6500000000000000000000000000000000000000000000000000000000081526004016109ce92919061119a565b60405180910390fd5b819050919050565b600080fd5b600073ffffffffffffffffffffffffffffffffffffffff82169050919050565b6000610a0f826109e4565b9050919050565b6000610a2182610a04565b9050919050565b610a3181610a16565b8114610a3c57600080fd5b50565b600081519050610a4e81610a28565b92915050565b6000610a5f826109e4565b9050919050565b6000610a7182610a54565b9050919050565b610a8181610a66565b8114610a8c57600080fd5b50565b600081519050610a9e81610a78565b92915050565b60008060408385031215610abb57610aba6109df565b5b6000610ac985828601610a3f565b9250506020610ada85828601610a8f565b9150509250929050565b600081519050919050565b7f4e487b7100000000000000000000000000000000000000000000000000000000600052604160045260246000fd5b7f4e487b7100000000000000000000000000000000000000000000000000000000600052602260045260246000fd5b60006002820490506001821680610b6557607f821691505b602082108103610b7857610b77610b1e565b5b50919050565b60008190508160005260206000209050919050565b60006020601f8301049050919050565b600082821b905092915050565b600060088302610be07fffffffffffffffffffffffffffffffffffffffffffffffffffffffffffffffff82610ba3565b610bea8683610ba3565b95508019841693508086168417925050509392505050565b6000819050919050565b6000819050919050565b6000610c31610c2c610c2784610c02565b610c0c565b610c02565b9050919050565b6000819050919050565b610c4b83610c16565b610c5f610c5782610c38565b848454610bb0565b825550505050565b600090565b610c74610c67565b610c7f818484610c42565b505050565b5b81811015610ca357610c98600082610c6c565b600181019050610c85565b5050565b601f821115610ce857610cb981610b7e565b610cc284610b93565b81016020851015610cd1578190505b610ce5610cdd85610b93565b830182610c84565b50505b505050565b600082821c905092915050565b6000610d0b60001984600802610ced565b1980831691505092915050565b6000610d248383610cfa565b9150826002028217905092915050565b610d3d82610ae4565b67ffffffffffffffff811115610d5657610d55610aef565b5b610d608254610b4d565b610d6b828285610ca7565b600060209050601f831160018114610d9e5760008415610d8c578287015190505b610d968582610d18565b865550610dfe565b601f198416610dac86610b7e565b60005b82811015610dd457848901518255600182019150602085019450602081019050610daf565b86831015610df15784890151610ded601f891682610cfa565b8355505b6001600288020188555050505b505050505050565b6000819050919050565b610e1981610e06565b82525050565b610e2881610c02565b82525050565b610e3781610a04565b82525050565b600060a082019050610e526000830188610e10565b610e5f6020830187610e10565b610e6c6040830186610e10565b610e796060830185610e1f565b610e866080830184610e2e565b9695505050505050565b6000604082019050610ea56000830185610e1f565b610eb26020830184610e1f565b9392505050565b6000604082019050610ece6000830185610e2e565b610edb6020830184610e2e565b9392505050565b600082825260208201905092915050565b60005b83811015610f11578082015181840152602081019050610ef6565b60008484015250505050565b6000601f19601f8301169050919050565b6000610f3982610ae4565b610f438185610ee2565b9350610f53818560208601610ef3565b610f5c81610f1d565b840191505092915050565b60006020820190508181036000830152610f818184610f2e565b905092915050565b600081519050919050565b6000819050602082019050919050565b6000610fb08251610e06565b80915050919050565b6000610fc482610f89565b82610fce84610f94565b9050610fd981610fa4565b92506020821015611019576110147fffffffffffffffffffffffffffffffffffffffffffffffffffffffffffffffff83602003600802610ba3565b831692505b5050919050565b600065ffffffffffff82169050919050565b61103b81611020565b811461104657600080fd5b50565b60008151905061105881611032565b92915050565b600060208284031215611074576110736109df565b5b600061108284828501611049565b91505092915050565b6000819050919050565b600060ff82169050919050565b60006110bd6110b86110b38461108b565b610c0c565b611095565b9050919050565b6110cd816110a2565b82525050565b60006040820190506110e860008301856110c4565b6110f56020830184610e1f565b9392505050565b7f4e487b7100000000000000000000000000000000000000000000000000000000600052601160045260246000fd5b600061113682610c02565b915061114183610c02565b9250828203905081811115611159576111586110fc565b5b92915050565b6000819050919050565b600061118461117f61117a8461115f565b610c0c565b611095565b9050919050565b61119481611169565b82525050565b60006040820190506111af600083018561118b565b6111bc6020830184610e1f565b9392505050565b60805160a05160c05160e05161010051610120516101405161016051616ceb6112286000396000611f3001526000612d9001526000612d550152600061449601526000614475015260006136b201526000613708015260006137310152616ceb6000f3fe6080604052600436106102765760003560e01c80637d5e81e21161014f578063b58131b0116100c1578063dd4e2ba51161007a578063dd4e2ba514610b13578063deaaa7cc14610b3e578063eb9019d414610b69578063f23a6e6114610ba6578063f8ce560a14610be3578063fc0c546a14610c20576102e9565b8063b58131b0146109ea578063bc197c8114610a15578063c01f9e3714610a52578063c28bc2fa14610a8f578063c59057e414610aab578063d33219b414610ae8576102e9565b806397c3d3341161011357806397c3d334146108b45780639a802a6d146108df578063a7713a701461091c578063a890c91014610947578063a9a9529414610970578063ab58fb8e146109ad576102e9565b80637d5e81e2146107a15780637ecebe00146107de57806384b0196e1461081b5780638ff262e31461084c57806391ddadf414610889576102e9565b80633e4f49e6116101e857806354fd4d50116101ac57806354fd4d501461064557806356781388146106705780635b8d0e0d146106ad5780635f398a14146106ea57806360c4247f146107275780637b3c71d314610764576102e9565b80633e4f49e6146105245780634385963214610561578063452115d61461059e5780634bf5d7e9146105db578063544ffc9c14610606576102e9565b8063150b7a021161023a578063150b7a02146103e7578063160cbed7146104245780632656227d146104615780632d63f693146104915780632fe3e261146104ce5780633932abb1146104f9576102e9565b806301ffc9a7146102ee57806302a251a31461032b57806306f3f9e61461035657806306fdde031461037f578063143489d0146103aa576102e9565b366102e9573073ffffffffffffffffffffffffffffffffffffffff1661029a610c4b565b73ffffffffffffffffffffffffffffffffffffffff16146102e7576040517fe90a651e00000000000000000000000000000000000000000000000000000000815260040160405180910390fd5b005b600080fd5b3480156102fa57600080fd5b5061031560048036038101906103109190614910565b610c5a565b6040516103229190614958565b60405180910390f35b34801561033757600080fd5b50610340610d3c565b60405161034d919061498c565b60405180910390f35b34801561036257600080fd5b5061037d600480360381019061037891906149d3565b610d46565b005b34801561038b57600080fd5b50610394610d5a565b6040516103a19190614a90565b60405180910390f35b3480156103b657600080fd5b506103d160048036038101906103cc91906149d3565b610dec565b6040516103de9190614af3565b60405180910390f35b3480156103f357600080fd5b5061040e60048036038101906104099190614c6f565b610e2c565b60405161041b9190614d01565b60405180910390f35b34801561043057600080fd5b5061044b60048036038101906104469190614fbe565b610eac565b604051610458919061498c565b60405180910390f35b61047b60048036038101906104769190614fbe565b610fa8565b604051610488919061498c565b60405180910390f35b34801561049d57600080fd5b506104b860048036038101906104b391906149d3565b611187565b6040516104c5919061498c565b60405180910390f35b3480156104da57600080fd5b506104e36111c1565b6040516104f09190615088565b60405180910390f35b34801561050557600080fd5b5061050e6111e5565b60405161051b919061498c565b60405180910390f35b34801561053057600080fd5b5061054b600480360381019061054691906149d3565b6111ef565b604051610558919061511a565b60405180910390f35b34801561056d57600080fd5b5061058860048036038101906105839190615135565b611201565b6040516105959190614958565b60405180910390f35b3480156105aa57600080fd5b506105c560048036038101906105c09190614fbe565b61126c565b6040516105d2919061498c565b60405180910390f35b3480156105e757600080fd5b506105f061132e565b6040516105fd9190614a90565b60405180910390f35b34801561061257600080fd5b5061062d600480360381019061062891906149d3565b6113ed565b60405161063c93929190615175565b60405180910390f35b34801561065157600080fd5b5061065a611425565b6040516106679190614a90565b60405180910390f35b34801561067c57600080fd5b50610697600480360381019061069291906151e5565b611462565b6040516106a4919061498c565b60405180910390f35b3480156106b957600080fd5b506106d460048036038101906106cf9190615280565b611493565b6040516106e1919061498c565b60405180910390f35b3480156106f657600080fd5b50610711600480360381019061070c9190615367565b6115c4565b60405161071e919061498c565b60405180910390f35b34801561073357600080fd5b5061074e600480360381019061074991906149d3565b61162e565b60405161075b919061498c565b60405180910390f35b34801561077057600080fd5b5061078b6004803603810190610786919061540b565b611732565b604051610798919061498c565b60405180910390f35b3480156107ad57600080fd5b506107c860048036038101906107c39190615520565b61179a565b6040516107d5919061498c565b60405180910390f35b3480156107ea57600080fd5b50610805600480360381019061080091906155f7565b611894565b604051610812919061498c565b60405180910390f35b34801561082757600080fd5b506108306118dd565b604051610843979695949392919061571d565b60405180910390f35b34801561085857600080fd5b50610873600480360381019061086e91906157a1565b611987565b604051610880919061498c565b60405180910390f35b34801561089557600080fd5b5061089e611a5d565b6040516108ab9190615845565b60405180910390f35b3480156108c057600080fd5b506108c9611ae9565b6040516108d6919061498c565b60405180910390f35b3480156108eb57600080fd5b5061090660048036038101906109019190615860565b611af2565b604051610913919061498c565b60405180910390f35b34801561092857600080fd5b50610931611b08565b60405161093e919061498c565b60405180910390f35b34801561095357600080fd5b5061096e6004803603810190610969919061591f565b611b35565b005b34801561097c57600080fd5b50610997600480360381019061099291906149d3565b611b49565b6040516109a49190614958565b60405180910390f35b3480156109b957600080fd5b506109d460048036038101906109cf91906149d3565b611b5b565b6040516109e1919061498c565b60405180910390f35b3480156109f657600080fd5b506109ff611b95565b604051610a0c919061498c565b60405180910390f35b348015610a2157600080fd5b50610a3c6004803603810190610a37919061594c565b611b9a565b604051610a499190614d01565b60405180910390f35b348015610a5e57600080fd5b50610a796004803603810190610a7491906149d3565b611c1b565b604051610a86919061498c565b60405180910390f35b610aa96004803603810190610aa49190615a71565b611c8c565b005b348015610ab757600080fd5b50610ad26004803603810190610acd9190614fbe565b611d19565b604051610adf919061498c565b60405180910390f35b348015610af457600080fd5b50610afd611d55565b604051610b0a9190614af3565b60405180910390f35b348015610b1f57600080fd5b50610b28611d7f565b604051610b359190614a90565b60405180910390f35b348015610b4a57600080fd5b50610b53611dbc565b604051610b609190615088565b60405180910390f35b348015610b7557600080fd5b50610b906004803603810190610b8b9190615ae5565b611de0565b604051610b9d919061498c565b60405180910390f35b348015610bb257600080fd5b50610bcd6004803603810190610bc89190615b25565b611dfc565b604051610bda9190614d01565b60405180910390f35b348015610bef57600080fd5b50610c0a6004803603810190610c0591906149d3565b611e7d565b604051610c17919061498c565b60405180910390f35b348015610c2c57600080fd5b50610c35611f2c565b604051610c429190615c1b565b60405180910390f35b6000610c55611f54565b905090565b60007f65455a86000000000000000000000000000000000000000000000000000000007bffffffffffffffffffffffffffffffffffffffffffffffffffffffff1916827bffffffffffffffffffffffffffffffffffffffffffffffffffffffff19161480610d2557507f4e2312e0000000000000000000000000000000000000000000000000000000007bffffffffffffffffffffffffffffffffffffffffffffffffffffffff1916827bffffffffffffffffffffffffffffffffffffffffffffffffffffffff1916145b80610d355750610d3482611f7e565b5b9050919050565b600061c4e0905090565b610d4e611fe8565b610d57816120de565b50565b606060038054610d6990615c65565b80601f0160208091040260200160405190810160405280929190818152602001828054610d9590615c65565b8015610de25780601f10610db757610100808354040283529160200191610de2565b820191906000526020600020905b815481529060010190602001808311610dc557829003601f168201915b5050505050905090565b60006004600083815260200190815260200160002060000160009054906101000a900473ffffffffffffffffffffffffffffffffffffffff169050919050565b60003073ffffffffffffffffffffffffffffffffffffffff16610e4d610c4b565b73ffffffffffffffffffffffffffffffffffffffff1614610e9a576040517fe90a651e00000000000000000000000000000000000000000000000000000000815260040160405180910390fd5b63150b7a0260e01b9050949350505050565b600080610ebb86868686611d19565b9050610ed081610ecb60046121a2565b6121c8565b506000610ee08288888888612235565b905060008165ffffffffffff1614610f6957806004600084815260200190815260200160002060010160006101000a81548165ffffffffffff021916908365ffffffffffff1602179055507f9a2e42fd6722813d69113e7d0079d3d940171428df7373df9c7f7617cfda28928282604051610f5c929190615cc7565b60405180910390a1610f9b565b6040517f90884a4600000000000000000000000000000000000000000000000000000000815260040160405180910390fd5b8192505050949350505050565b600080610fb786868686611d19565b9050610fd781610fc760056121a2565b610fd160046121a2565b176121c8565b50600160046000838152602001908152602001600020600001601e6101000a81548160ff0219169083151502179055503073ffffffffffffffffffffffffffffffffffffffff16611026610c4b565b73ffffffffffffffffffffffffffffffffffffffff16146110dd5760005b86518110156110db573073ffffffffffffffffffffffffffffffffffffffff1687828151811061107757611076615cf0565b5b602002602001015173ffffffffffffffffffffffffffffffffffffffff16036110d0576110cf8582815181106110b0576110af615cf0565b5b602002602001015180519060200120600561224f90919063ffffffff16565b5b806001019050611044565b505b6110ea818787878761234e565b3073ffffffffffffffffffffffffffffffffffffffff16611109610c4b565b73ffffffffffffffffffffffffffffffffffffffff161415801561113457506111326005612362565b155b156111445761114360056123d2565b5b7f712ae1383f79ac853f8d882153778e0260ef8f03b504e2866e0593e04d2b291f81604051611173919061498c565b60405180910390a180915050949350505050565b60006004600083815260200190815260200160002060000160149054906101000a900465ffffffffffff1665ffffffffffff169050919050565b7f3e83946653575f9a39005e1545185629e92736b7528ab20ca3816f315424a81181565b6000611c20905090565b60006111fa8261244d565b9050919050565b60006007600084815260200190815260200160002060030160008373ffffffffffffffffffffffffffffffffffffffff1673ffffffffffffffffffffffffffffffffffffffff16815260200190815260200160002060009054906101000a900460ff16905092915050565b60008061127b86868686611d19565b90506112908161128b60006121a2565b6121c8565b5061129a81610dec565b73ffffffffffffffffffffffffffffffffffffffff166112b861260c565b73ffffffffffffffffffffffffffffffffffffffff1614611317576112db61260c565b6040517f233d98e300000000000000000000000000000000000000000000000000000000815260040161130e9190614af3565b60405180910390fd5b61132386868686612614565b915050949350505050565b6060611338611f2c565b73ffffffffffffffffffffffffffffffffffffffff16634bf5d7e96040518163ffffffff1660e01b8152600401600060405180830381865afa9250505080156113a457506040513d6000823e3d601f19601f820116820180604052508101906113a19190615d8f565b60015b6113e5576040518060400160405280601d81526020017f6d6f64653d626c6f636b6e756d6265722666726f6d3d64656661756c7400000081525090506113ea565b809150505b90565b600080600080600760008681526020019081526020016000209050806000015481600101548260020154935093509350509193909250565b60606040518060400160405280600181526020017f3100000000000000000000000000000000000000000000000000000000000000815250905090565b60008061146d61260c565b905061148a8482856040518060200160405280600081525061262c565b91505092915050565b6000806115218761151b7f3e83946653575f9a39005e1545185629e92736b7528ab20ca3816f315424a8118c8c8c6114ca8e61264c565b8d8d6040516114da929190615e08565b60405180910390208c805190602001206040516020016115009796959493929190615e30565b604051602081830303815290604052805190602001206126a3565b856126bd565b90508061156557866040517f94ab6c0700000000000000000000000000000000000000000000000000000000815260040161155c9190614af3565b60405180910390fd5b6115b689888a89898080601f016020809104026020016040519081016040528093929190818152602001838380828437600081840152601f19601f820116905080830192505050505050508861276c565b915050979650505050505050565b6000806115cf61260c565b905061162287828888888080601f016020809104026020016040519081016040528093929190818152602001838380828437600081840152601f19601f820116905080830192505050505050508761276c565b91505095945050505050565b6000806008600001805490509050600060086000016001836116509190615ece565b8154811061166157611660615cf0565b5b90600052602060002001905060008160000160009054906101000a900465ffffffffffff16905060008260000160069054906101000a900479ffffffffffffffffffffffffffffffffffffffffffffffffffff169050858265ffffffffffff16116116ee578079ffffffffffffffffffffffffffffffffffffffffffffffffffff1694505050505061172d565b61170a6116fa8761287a565b60086128d490919063ffffffff16565b79ffffffffffffffffffffffffffffffffffffffffffffffffffff169450505050505b919050565b60008061173d61260c565b905061178f86828787878080601f016020809104026020016040519081016040528093929190818152602001838380828437600081840152601f19601f8201169050808301925050505050505061262c565b915050949350505050565b6000806117a561260c565b90506117b181846129ce565b6117f257806040517fd9b395570000000000000000000000000000000000000000000000000000000081526004016117e99190614af3565b60405180910390fd5b60006117fc611b95565b9050600081111561187b57600061182e836001611817611a5d565b6118219190615f02565b65ffffffffffff16611de0565b905081811015611879578281836040517fc242ee1600000000000000000000000000000000000000000000000000000000815260040161187093929190615f3c565b60405180910390fd5b505b6118888787878786612ab7565b92505050949350505050565b6000600260008373ffffffffffffffffffffffffffffffffffffffff1673ffffffffffffffffffffffffffffffffffffffff168152602001908152602001600020549050919050565b6000606080600080600060606118f1612d4c565b6118f9612d87565b46306000801b600067ffffffffffffffff81111561191a57611919614b44565b5b6040519080825280602002602001820160405280156119485781602001602082028036833780820191505090505b507f0f00000000000000000000000000000000000000000000000000000000000000959493929190965096509650965096509650965090919293949596565b6000806119f3846119ed7ff2aad550cf55f045cb27e9c559f9889fdfb6e6cdaa032301d6ea397784ae51d78989896119be8b61264c565b6040516020016119d2959493929190615f73565b604051602081830303815290604052805190602001206126a3565b856126bd565b905080611a3757836040517f94ab6c07000000000000000000000000000000000000000000000000000000008152600401611a2e9190614af3565b60405180910390fd5b611a528685876040518060200160405280600081525061262c565b915050949350505050565b6000611a67611f2c565b73ffffffffffffffffffffffffffffffffffffffff166391ddadf46040518163ffffffff1660e01b8152600401602060405180830381865afa925050508015611ace57506040513d601f19601f82011682018060405250810190611acb9190615ff2565b60015b611ae157611ada612dc2565b9050611ae6565b809150505b90565b60006064905090565b6000611aff848484612dd2565b90509392505050565b6000611b146008612e60565b79ffffffffffffffffffffffffffffffffffffffffffffffffffff16905090565b611b3d611fe8565b611b4681612ec8565b50565b6000611b5482612f67565b9050919050565b60006004600083815260200190815260200160002060010160009054906101000a900465ffffffffffff1665ffffffffffff169050919050565b600090565b60003073ffffffffffffffffffffffffffffffffffffffff16611bbb610c4b565b73ffffffffffffffffffffffffffffffffffffffff1614611c08576040517fe90a651e00000000000000000000000000000000000000000000000000000000815260040160405180910390fd5b63bc197c8160e01b905095945050505050565b600060046000838152602001908152602001600020600001601a9054906101000a900463ffffffff1663ffffffff166004600084815260200190815260200160002060000160149054906101000a900465ffffffffffff16611c7d919061601f565b65ffffffffffff169050919050565b611c94611fe8565b6000808573ffffffffffffffffffffffffffffffffffffffff16858585604051611cbf929190615e08565b60006040518083038185875af1925050503d8060008114611cfc576040519150601f19603f3d011682016040523d82523d6000602084013e611d01565b606091505b5091509150611d108282612f72565b50505050505050565b600084848484604051602001611d32949392919061622e565b6040516020818303038152906040528051906020012060001c9050949350505050565b6000600960009054906101000a900473ffffffffffffffffffffffffffffffffffffffff16905090565b60606040518060400160405280602081526020017f737570706f72743d627261766f2671756f72756d3d666f722c6162737461696e815250905090565b7ff2aad550cf55f045cb27e9c559f9889fdfb6e6cdaa032301d6ea397784ae51d781565b6000611df48383611def612f96565b612dd2565b905092915050565b60003073ffffffffffffffffffffffffffffffffffffffff16611e1d610c4b565b73ffffffffffffffffffffffffffffffffffffffff1614611e6a576040517fe90a651e00000000000000000000000000000000000000000000000000000000815260040160405180910390fd5b63f23a6e6160e01b905095945050505050565b6000611e87611ae9565b611e908361162e565b611e98611f2c565b73ffffffffffffffffffffffffffffffffffffffff16638e539e8c856040518263ffffffff1660e01b8152600401611ed0919061498c565b602060405180830381865afa158015611eed573d6000803e3d6000fd5b505050506040513d601f19601f82011682018060405250810190611f11919061629d565b611f1b91906162ca565b611f25919061633b565b9050919050565b60007f0000000000000000000000000000000000000000000000000000000000000000905090565b6000600960009054906101000a900473ffffffffffffffffffffffffffffffffffffffff16905090565b60007f01ffc9a7000000000000000000000000000000000000000000000000000000007bffffffffffffffffffffffffffffffffffffffffffffffffffffffff1916827bffffffffffffffffffffffffffffffffffffffffffffffffffffffff1916149050919050565b611ff061260c565b73ffffffffffffffffffffffffffffffffffffffff1661200e610c4b565b73ffffffffffffffffffffffffffffffffffffffff161461206d5761203161260c565b6040517f47096e470000000000000000000000000000000000000000000000000000000081526004016120649190614af3565b60405180910390fd5b3073ffffffffffffffffffffffffffffffffffffffff1661208c610c4b565b73ffffffffffffffffffffffffffffffffffffffff16146120dc5760006120b1612fad565b6040516120bf929190615e08565b604051809103902090505b806120d56005612fba565b036120ca57505b565b60006120e8611ae9565b9050808211156121315781816040517f243e544500000000000000000000000000000000000000000000000000000000815260040161212892919061636c565b60405180910390fd5b600061213b611b08565b9050612162612148611a5d565b612151856130f3565b60086131619092919063ffffffff16565b50507f0553476bf02ef2726e8ce5ced78d63e26e602e4a2257b1f559418e24b4633997818460405161219592919061636c565b60405180910390a1505050565b60008160078111156121b7576121b66150a3565b5b60ff166001901b60001b9050919050565b6000806121d4846111ef565b90506000801b836121e4836121a2565b160361222b578381846040517f31b75e4d00000000000000000000000000000000000000000000000000000000815260040161222293929190616395565b60405180910390fd5b8091505092915050565b6000612244868686868661317e565b905095945050505050565b60008260000160109054906101000a90046fffffffffffffffffffffffffffffffff1690508260000160009054906101000a90046fffffffffffffffffffffffffffffffff166fffffffffffffffffffffffffffffffff16600182016fffffffffffffffffffffffffffffffff16036122cd576122cc6041613396565b5b81836001016000836fffffffffffffffffffffffffffffffff166fffffffffffffffffffffffffffffffff16815260200190815260200160002081905550600181018360000160106101000a8154816fffffffffffffffffffffffffffffffff02191690836fffffffffffffffffffffffffffffffff160217905550505050565b61235b85858585856133a8565b5050505050565b60008160000160009054906101000a90046fffffffffffffffffffffffffffffffff166fffffffffffffffffffffffffffffffff168260000160109054906101000a90046fffffffffffffffffffffffffffffffff166fffffffffffffffffffffffffffffffff16149050919050565b60008160000160006101000a8154816fffffffffffffffffffffffffffffffff02191690836fffffffffffffffffffffffffffffffff16021790555060008160000160106101000a8154816fffffffffffffffffffffffffffffffff02191690836fffffffffffffffffffffffffffffffff16021790555050565b60008061245983613465565b90506005600781111561246f5761246e6150a3565b5b816007811115612482576124816150a3565b5b146124905780915050612607565b6000600a6000858152602001908152602001600020549050600960009054906101000a900473ffffffffffffffffffffffffffffffffffffffff1673ffffffffffffffffffffffffffffffffffffffff1663584b153e826040518263ffffffff1660e01b81526004016125039190615088565b602060405180830381865afa158015612520573d6000803e3d6000fd5b505050506040513d601f19601f8201168201806040525081019061254491906163f8565b1561255457600592505050612607565b600960009054906101000a900473ffffffffffffffffffffffffffffffffffffffff1673ffffffffffffffffffffffffffffffffffffffff16632ab0f529826040518263ffffffff1660e01b81526004016125af9190615088565b602060405180830381865afa1580156125cc573d6000803e3d6000fd5b505050506040513d601f19601f820116820180604052508101906125f091906163f8565b1561260057600792505050612607565b6002925050505b919050565b600033905090565b6000612622858585856135c9565b9050949350505050565b60006126428585858561263d612f96565b61276c565b9050949350505050565b6000600260008373ffffffffffffffffffffffffffffffffffffffff1673ffffffffffffffffffffffffffffffffffffffff1681526020019081526020016000206000815480929190600101919050559050919050565b60006126b66126b06136ae565b83613765565b9050919050565b6000808473ffffffffffffffffffffffffffffffffffffffff163b03612757576000806126ea85856137a6565b509150915060006003811115612703576127026150a3565b5b816003811115612716576127156150a3565b5b14801561274e57508573ffffffffffffffffffffffffffffffffffffffff168273ffffffffffffffffffffffffffffffffffffffff16145b92505050612765565b612762848484613802565b90505b9392505050565b60006127818661277c60016121a2565b6121c8565b5060006127978661279189611187565b85612dd2565b905060006127a88888888588613926565b9050600084510361280c578673ffffffffffffffffffffffffffffffffffffffff167fb8e138887d0aa13bab447e82de9d5c1777041ecd21ca36ba824ff1e6c07ddda4898884896040516127ff9493929190616425565b60405180910390a2612863565b8673ffffffffffffffffffffffffffffffffffffffff167fe2babfbac5889a709b63bb7f598b324e08bc5a4fb9ec647fb3cbc9ec07eb8712898884898960405161285a9594939291906164bb565b60405180910390a25b61286c88613b29565b809250505095945050505050565b600065ffffffffffff80168211156128cc576030826040517f6dfcc6500000000000000000000000000000000000000000000000000000000081526004016128c3929190616557565b60405180910390fd5b819050919050565b60008083600001805490509050600080829050600583111561295c5760006128fb84613b2c565b846129069190615ece565b90506129158760000182613cc9565b60000160009054906101000a900465ffffffffffff1665ffffffffffff168665ffffffffffff16101561294a5780915061295a565b6001816129579190616580565b92505b505b600061296d87600001878585613cde565b9050600081146129bf576129908760000160018361298b9190615ece565b613cc9565b60000160069054906101000a900479ffffffffffffffffffffffffffffffffffffffffffffffffffff166129c2565b60005b94505050505092915050565b6000808251905060348110156129e8576001915050612ab1565b60006129f78460348403613d57565b90507f2370726f706f7365723d0000000000000000000000000000000000000000000075ffffffffffffffffffffffffffffffffffffffffffff19168175ffffffffffffffffffffffffffffffffffffffffffff191614612a5d57600192505050612ab1565b600080612a6e86602a860386613d68565b91509150811580612aaa57508673ffffffffffffffffffffffffffffffffffffffff168173ffffffffffffffffffffffffffffffffffffffff16145b9450505050505b92915050565b6000612acc8686868680519060200120611d19565b905084518651141580612ae157508351865114155b80612aed575060008651145b15612b36578551845186516040517f447b05d0000000000000000000000000000000000000000000000000000000008152600401612b2d93929190615175565b60405180910390fd5b60006004600083815260200190815260200160002060000160149054906101000a900465ffffffffffff1665ffffffffffff1614612bba5780612b78826111ef565b6000801b6040517f31b75e4d000000000000000000000000000000000000000000000000000000008152600401612bb193929190616395565b60405180910390fd5b6000612bc46111e5565b612bcc611a5d565b65ffffffffffff16612bde9190616580565b90506000612bea610d3c565b90506000600460008581526020019081526020016000209050848160000160006101000a81548173ffffffffffffffffffffffffffffffffffffffff021916908373ffffffffffffffffffffffffffffffffffffffff160217905550612c4f8361287a565b8160000160146101000a81548165ffffffffffff021916908365ffffffffffff160217905550612c7e82613e7f565b81600001601a6101000a81548163ffffffff021916908363ffffffff1602179055507f7d84a6263ae0d98d3329bd7b46bb4e8d6f98cd35a7adb45c274c8b7fd5ebd5e084868b8b8d5167ffffffffffffffff811115612ce057612cdf614b44565b5b604051908082528060200260200182016040528015612d1357816020015b6060815260200190600190039081612cfe5790505b508c89898b612d229190616580565b8e604051612d38999897969594939291906166c0565b60405180910390a150505095945050505050565b6060612d8260007f0000000000000000000000000000000000000000000000000000000000000000613ed790919063ffffffff16565b905090565b6060612dbd60017f0000000000000000000000000000000000000000000000000000000000000000613ed790919063ffffffff16565b905090565b6000612dcd4361287a565b905090565b6000612ddc611f2c565b73ffffffffffffffffffffffffffffffffffffffff16633a46b1a885856040518363ffffffff1660e01b8152600401612e16929190616770565b602060405180830381865afa158015612e33573d6000803e3d6000fd5b505050506040513d601f19601f82011682018060405250810190612e57919061629d565b90509392505050565b6000808260000180549050905060008114612ebd57612e8e83600001600183612e899190615ece565b613cc9565b60000160069054906101000a900479ffffffffffffffffffffffffffffffffffffffffffffffffffff16612ec0565b60005b915050919050565b7f08f74ea46ef7894f65eabfb5e6e695de773a000b47c529ab559178069b226401600960009054906101000a900473ffffffffffffffffffffffffffffffffffffffff1682604051612f1b929190616799565b60405180910390a180600960006101000a81548173ffffffffffffffffffffffffffffffffffffffff021916908373ffffffffffffffffffffffffffffffffffffffff16021790555050565b600060019050919050565b606082612f8757612f8282613f87565b612f8f565b819050612f90565b5b92915050565b606060405180602001604052806000815250905090565b3660008036915091509091565b6000808260000160009054906101000a90046fffffffffffffffffffffffffffffffff1690508260000160109054906101000a90046fffffffffffffffffffffffffffffffff166fffffffffffffffffffffffffffffffff16816fffffffffffffffffffffffffffffffff1603613036576130356031613396565b5b826001016000826fffffffffffffffffffffffffffffffff166fffffffffffffffffffffffffffffffff168152602001908152602001600020549150826001016000826fffffffffffffffffffffffffffffffff166fffffffffffffffffffffffffffffffff16815260200190815260200160002060009055600181018360000160006101000a8154816fffffffffffffffffffffffffffffffff02191690836fffffffffffffffffffffffffffffffff16021790555050919050565b600079ffffffffffffffffffffffffffffffffffffffffffffffffffff80168211156131595760d0826040517f6dfcc6500000000000000000000000000000000000000000000000000000000081526004016131509291906167fd565b60405180910390fd5b819050919050565b600080613172856000018585613fcc565b91509150935093915050565b600080600960009054906101000a900473ffffffffffffffffffffffffffffffffffffffff1673ffffffffffffffffffffffffffffffffffffffff1663f27a0c926040518163ffffffff1660e01b8152600401602060405180830381865afa1580156131ee573d6000803e3d6000fd5b505050506040513d601f19601f82011682018060405250810190613212919061629d565b9050600061321f846142d9565b9050600960009054906101000a900473ffffffffffffffffffffffffffffffffffffffff1673ffffffffffffffffffffffffffffffffffffffff1663b1c5f4278888886000866040518663ffffffff1660e01b815260040161328595949392919061686e565b602060405180830381865afa1580156132a2573d6000803e3d6000fd5b505050506040513d601f19601f820116820180604052508101906132c691906168eb565b600a60008a815260200190815260200160002081905550600960009054906101000a900473ffffffffffffffffffffffffffffffffffffffff1673ffffffffffffffffffffffffffffffffffffffff16638f2a0bb0888888600086886040518763ffffffff1660e01b815260040161334396959493929190616918565b600060405180830381600087803b15801561335d57600080fd5b505af1158015613371573d6000803e3d6000fd5b5050505061338982426133849190616580565b61287a565b9250505095945050505050565b634e487b71600052806020526024601cfd5b600960009054906101000a900473ffffffffffffffffffffffffffffffffffffffff1673ffffffffffffffffffffffffffffffffffffffff1663e38335e53486868660006133f5886142d9565b6040518763ffffffff1660e01b815260040161341595949392919061686e565b6000604051808303818588803b15801561342e57600080fd5b505af1158015613442573d6000803e3d6000fd5b5050505050600a6000868152602001908152602001600020600090555050505050565b600080600460008481526020019081526020016000209050600081600001601e9054906101000a900460ff169050600082600001601f9054906101000a900460ff16905081156134bb57600793505050506135c4565b80156134cd57600293505050506135c4565b60006134d886611187565b90506000810361351f57856040517f6ad06075000000000000000000000000000000000000000000000000000000008152600401613516919061498c565b60405180910390fd5b6000613529611a5d565b65ffffffffffff169050808210613548576000955050505050506135c4565b600061355388611c1b565b905081811061356b57600196505050505050506135c4565b613574886142f7565b158061358657506135848861433e565b155b1561359a57600396505050505050506135c4565b60006135a589611b5b565b036135b957600496505050505050506135c4565b600596505050505050505b919050565b6000806135d886868686614369565b90506000600a60008381526020019081526020016000205490506000801b81146136a157600960009054906101000a900473ffffffffffffffffffffffffffffffffffffffff1673ffffffffffffffffffffffffffffffffffffffff1663c4d252f5826040518263ffffffff1660e01b81526004016136579190615088565b600060405180830381600087803b15801561367157600080fd5b505af1158015613685573d6000803e3d6000fd5b50505050600a6000838152602001908152602001600020600090555b8192505050949350505050565b60007f000000000000000000000000000000000000000000000000000000000000000073ffffffffffffffffffffffffffffffffffffffff163073ffffffffffffffffffffffffffffffffffffffff1614801561372a57507f000000000000000000000000000000000000000000000000000000000000000046145b15613757577f00000000000000000000000000000000000000000000000000000000000000009050613762565b61375f614450565b90505b90565b60006040517f190100000000000000000000000000000000000000000000000000000000000081528360028201528260228201526042812091505092915050565b600080600060418451036137eb5760008060006020870151925060408701519150606087015160001a90506137dd888285856144e6565b9550955095505050506137fb565b60006002855160001b9250925092505b9250925092565b60008060008573ffffffffffffffffffffffffffffffffffffffff16858560405160240161383192919061698e565b604051602081830303815290604052631626ba7e60e01b6020820180517bffffffffffffffffffffffffffffffffffffffffffffffffffffffff838183161783525050505060405161388391906169ef565b600060405180830381855afa9150503d80600081146138be576040519150601f19603f3d011682016040523d82523d6000602084013e6138c3565b606091505b50915091508180156138d757506020815110155b801561391b5750631626ba7e60e01b7bffffffffffffffffffffffffffffffffffffffffffffffffffffffff19168180602001905181019061391991906168eb565b145b925050509392505050565b6000806007600088815260200190815260200160002090508060030160008773ffffffffffffffffffffffffffffffffffffffff1673ffffffffffffffffffffffffffffffffffffffff16815260200190815260200160002060009054906101000a900460ff16156139cf57856040517f71c6af490000000000000000000000000000000000000000000000000000000081526004016139c69190614af3565b60405180910390fd5b60018160030160008873ffffffffffffffffffffffffffffffffffffffff1673ffffffffffffffffffffffffffffffffffffffff16815260200190815260200160002060006101000a81548160ff02191690831515021790555060006002811115613a3d57613a3c6150a3565b5b60ff168560ff1603613a695783816000016000828254613a5d9190616580565b92505081905550613b1c565b60016002811115613a7d57613a7c6150a3565b5b60ff168560ff1603613aa95783816001016000828254613a9d9190616580565b92505081905550613b1b565b600280811115613abc57613abb6150a3565b5b60ff168560ff1603613ae85783816002016000828254613adc9190616580565b92505081905550613b1a565b6040517f06b337c200000000000000000000000000000000000000000000000000000000815260040160405180910390fd5b5b5b8391505095945050505050565b50565b600060018211613b3e57819050613cc4565b60008290506000600190507001000000000000000000000000000000008210613b7057608082901c9150604081901b90505b680100000000000000008210613b8f57604082901c9150602081901b90505b6401000000008210613baa57602082901c9150601081901b90505b620100008210613bc357601082901c9150600881901b90505b6101008210613bdb57600882901c9150600481901b90505b60108210613bf257600482901c9150600281901b90505b60048210613c0257600181901b90505b600181600302901c90506001818581613c1e57613c1d61630c565b5b048201901c90506001818581613c3757613c3661630c565b5b048201901c90506001818581613c5057613c4f61630c565b5b048201901c90506001818581613c6957613c6861630c565b5b048201901c90506001818581613c8257613c8161630c565b5b048201901c90506001818581613c9b57613c9a61630c565b5b048201901c9050613cbd818581613cb557613cb461630c565b5b0482116145da565b8103925050505b919050565b60008260005281602060002001905092915050565b60005b81831015613d4c576000613cf584846145e6565b90508465ffffffffffff16613d0a8783613cc9565b60000160009054906101000a900465ffffffffffff1665ffffffffffff161115613d3657809250613d46565b600181613d439190616580565b93505b50613ce1565b819050949350505050565b600081602001830151905092915050565b6000808451831180613d7957508284115b15613d8a5760008091509150613e77565b6000600185613d999190616580565b84118015613e1157507f30780000000000000000000000000000000000000000000000000000000000007dffffffffffffffffffffffffffffffffffffffffffffffffffffffffffff1916613dee878761460c565b7dffffffffffffffffffffffffffffffffffffffffffffffffffffffffffff1916145b905060006002613e228315156145da565b613e2c91906162ca565b6028613e389190616580565b9050808686613e479190615ece565b03613e6d57600080613e5a89898961461d565b9150915081819550955050505050613e77565b6000809350935050505b935093915050565b600063ffffffff8016821115613ecf576020826040517f6dfcc650000000000000000000000000000000000000000000000000000000008152600401613ec6929190616a41565b60405180910390fd5b819050919050565b606060ff60001b8314613ef457613eed8361474f565b9050613f81565b818054613f0090615c65565b80601f0160208091040260200160405190810160405280929190818152602001828054613f2c90615c65565b8015613f795780601f10613f4e57610100808354040283529160200191613f79565b820191906000526020600020905b815481529060010190602001808311613f5c57829003601f168201915b505050505090505b92915050565b600081511115613f9a5780518082602001fd5b6040517fd6bda27500000000000000000000000000000000000000000000000000000000815260040160405180910390fd5b60008060008580549050905060008111156141e9576000613ff987600184613ff49190615ece565b613cc9565b905060008160000160009054906101000a900465ffffffffffff16905060008260000160069054906101000a900479ffffffffffffffffffffffffffffffffffffffffffffffffffff1690508765ffffffffffff168265ffffffffffff16111561408f576040517f2520601d00000000000000000000000000000000000000000000000000000000815260040160405180910390fd5b8765ffffffffffff168265ffffffffffff16036140fa57868360000160066101000a81548179ffffffffffffffffffffffffffffffffffffffffffffffffffff021916908379ffffffffffffffffffffffffffffffffffffffffffffffffffff1602179055506141da565b8860405180604001604052808a65ffffffffffff1681526020018979ffffffffffffffffffffffffffffffffffffffffffffffffffff168152509080600181540180825580915050600190039060005260206000200160009091909190915060008201518160000160006101000a81548165ffffffffffff021916908365ffffffffffff16021790555060208201518160000160066101000a81548179ffffffffffffffffffffffffffffffffffffffffffffffffffff021916908379ffffffffffffffffffffffffffffffffffffffffffffffffffff16021790555050505b808795509550505050506142d1565b8560405180604001604052808765ffffffffffff1681526020018679ffffffffffffffffffffffffffffffffffffffffffffffffffff168152509080600181540180825580915050600190039060005260206000200160009091909190915060008201518160000160006101000a81548165ffffffffffff021916908365ffffffffffff16021790555060208201518160000160066101000a81548179ffffffffffffffffffffffffffffffffffffffffffffffffffff021916908379ffffffffffffffffffffffffffffffffffffffffffffffffffff160217905550505060008492509250505b935093915050565b6000813060601b6bffffffffffffffffffffffff1916189050919050565b600080600760008481526020019081526020016000209050806002015481600101546143239190616580565b61433461432f85611187565b611e7d565b1115915050919050565b6000806007600084815260200190815260200160002090508060000154816001015411915050919050565b60008061437886868686611d19565b90506143dd8161438860076121a2565b61439260066121a2565b61439c60026121a2565b6001806007808111156143b2576143b16150a3565b5b6143bc9190616a6a565b60026143c89190616bd2565b6143d29190615ece565b60001b1818186121c8565b50600160046000838152602001908152602001600020600001601f6101000a81548160ff0219169083151502179055507f789cf55be980739dad1d0699b93b58e806b51c9d96619bfa8fe0a28abaa7b30c8160405161443c919061498c565b60405180910390a180915050949350505050565b60007f8b73c3c69bb8fe3d512ecc4cf759cc79239f7b179b0ffacaa9a75d522b39400f7f00000000000000000000000000000000000000000000000000000000000000007f000000000000000000000000000000000000000000000000000000000000000046306040516020016144cb959493929190616c1d565b60405160208183030381529060405280519060200120905090565b60008060007f7fffffffffffffffffffffffffffffff5d576e7357a4501ddfe92f46681b20a08460001c11156145265760006003859250925092506145d0565b60006001888888886040516000815260200160405260405161454b9493929190616c70565b6020604051602081039080840390855afa15801561456d573d6000803e3d6000fd5b505050602060405103519050600073ffffffffffffffffffffffffffffffffffffffff168173ffffffffffffffffffffffffffffffffffffffff16036145c157600060016000801b935093509350506145d0565b8060008060001b935093509350505b9450945094915050565b60008115159050919050565b600060028284186145f7919061633b565b8284166146049190616580565b905092915050565b600081602001830151905092915050565b600080600085905060006001866146349190616580565b851180156146ac57507f30780000000000000000000000000000000000000000000000000000000000007dffffffffffffffffffffffffffffffffffffffffffffffffffffffffffff1916614689838861460c565b7dffffffffffffffffffffffffffffffffffffffffffffffffffffffffffff1916145b9050600060026146bd8315156145da565b6146c791906162ca565b905060008082896146d89190616580565b90505b8781101561473a5760006146f76146f2878461460c565b6147c3565b9050600f8160ff1611156147175760008097509750505050505050614747565b60108361472491906162ca565b92508060ff1683019250508060010190506146db565b5060018195509550505050505b935093915050565b6060600061475c83614854565b90506000602067ffffffffffffffff81111561477b5761477a614b44565b5b6040519080825280601f01601f1916602001820160405280156147ad5781602001600182028036833780820191505090505b5090508181528360208201528092505050919050565b6000808260f81c9050602f8160ff161180156147e25750603a8160ff16105b156147f25760308103905061484a565b60608160ff16118015614808575060678160ff16105b1561481857605781039050614849565b60408160ff1611801561482e575060478160ff16105b1561483e57603781039050614848565b60ff91505061484f565b5b5b809150505b919050565b60008060ff8360001c169050601f81111561489b576040517fb3512b0c00000000000000000000000000000000000000000000000000000000815260040160405180910390fd5b80915050919050565b6000604051905090565b600080fd5b600080fd5b60007fffffffff0000000000000000000000000000000000000000000000000000000082169050919050565b6148ed816148b8565b81146148f857600080fd5b50565b60008135905061490a816148e4565b92915050565b600060208284031215614926576149256148ae565b5b6000614934848285016148fb565b91505092915050565b60008115159050919050565b6149528161493d565b82525050565b600060208201905061496d6000830184614949565b92915050565b6000819050919050565b61498681614973565b82525050565b60006020820190506149a1600083018461497d565b92915050565b6149b081614973565b81146149bb57600080fd5b50565b6000813590506149cd816149a7565b92915050565b6000602082840312156149e9576149e86148ae565b5b60006149f7848285016149be565b91505092915050565b600081519050919050565b600082825260208201905092915050565b60005b83811015614a3a578082015181840152602081019050614a1f565b60008484015250505050565b6000601f19601f8301169050919050565b6000614a6282614a00565b614a6c8185614a0b565b9350614a7c818560208601614a1c565b614a8581614a46565b840191505092915050565b60006020820190508181036000830152614aaa8184614a57565b905092915050565b600073ffffffffffffffffffffffffffffffffffffffff82169050919050565b6000614add82614ab2565b9050919050565b614aed81614ad2565b82525050565b6000602082019050614b086000830184614ae4565b92915050565b614b1781614ad2565b8114614b2257600080fd5b50565b600081359050614b3481614b0e565b92915050565b600080fd5b600080fd5b7f4e487b7100000000000000000000000000000000000000000000000000000000600052604160045260246000fd5b614b7c82614a46565b810181811067ffffffffffffffff82111715614b9b57614b9a614b44565b5b80604052505050565b6000614bae6148a4565b9050614bba8282614b73565b919050565b600067ffffffffffffffff821115614bda57614bd9614b44565b5b614be382614a46565b9050602081019050919050565b82818337600083830152505050565b6000614c12614c0d84614bbf565b614ba4565b905082815260208101848484011115614c2e57614c2d614b3f565b5b614c39848285614bf0565b509392505050565b600082601f830112614c5657614c55614b3a565b5b8135614c66848260208601614bff565b91505092915050565b60008060008060808587031215614c8957614c886148ae565b5b6000614c9787828801614b25565b9450506020614ca887828801614b25565b9350506040614cb9878288016149be565b925050606085013567ffffffffffffffff811115614cda57614cd96148b3565b5b614ce687828801614c41565b91505092959194509250565b614cfb816148b8565b82525050565b6000602082019050614d166000830184614cf2565b92915050565b600067ffffffffffffffff821115614d3757614d36614b44565b5b602082029050602081019050919050565b600080fd5b6000614d60614d5b84614d1c565b614ba4565b90508083825260208201905060208402830185811115614d8357614d82614d48565b5b835b81811015614dac5780614d988882614b25565b845260208401935050602081019050614d85565b5050509392505050565b600082601f830112614dcb57614dca614b3a565b5b8135614ddb848260208601614d4d565b91505092915050565b600067ffffffffffffffff821115614dff57614dfe614b44565b5b602082029050602081019050919050565b6000614e23614e1e84614de4565b614ba4565b90508083825260208201905060208402830185811115614e4657614e45614d48565b5b835b81811015614e6f5780614e5b88826149be565b845260208401935050602081019050614e48565b5050509392505050565b600082601f830112614e8e57614e8d614b3a565b5b8135614e9e848260208601614e10565b91505092915050565b600067ffffffffffffffff821115614ec257614ec1614b44565b5b602082029050602081019050919050565b6000614ee6614ee184614ea7565b614ba4565b90508083825260208201905060208402830185811115614f0957614f08614d48565b5b835b81811015614f5057803567ffffffffffffffff811115614f2e57614f2d614b3a565b5b808601614f3b8982614c41565b85526020850194505050602081019050614f0b565b5050509392505050565b600082601f830112614f6f57614f6e614b3a565b5b8135614f7f848260208601614ed3565b91505092915050565b6000819050919050565b614f9b81614f88565b8114614fa657600080fd5b50565b600081359050614fb881614f92565b92915050565b60008060008060808587031215614fd857614fd76148ae565b5b600085013567ffffffffffffffff811115614ff657614ff56148b3565b5b61500287828801614db6565b945050602085013567ffffffffffffffff811115615023576150226148b3565b5b61502f87828801614e79565b935050604085013567ffffffffffffffff8111156150505761504f6148b3565b5b61505c87828801614f5a565b925050606061506d87828801614fa9565b91505092959194509250565b61508281614f88565b82525050565b600060208201905061509d6000830184615079565b92915050565b7f4e487b7100000000000000000000000000000000000000000000000000000000600052602160045260246000fd5b600881106150e3576150e26150a3565b5b50565b60008190506150f4826150d2565b919050565b6000615104826150e6565b9050919050565b615114816150f9565b82525050565b600060208201905061512f600083018461510b565b92915050565b6000806040838503121561514c5761514b6148ae565b5b600061515a858286016149be565b925050602061516b85828601614b25565b9150509250929050565b600060608201905061518a600083018661497d565b615197602083018561497d565b6151a4604083018461497d565b949350505050565b600060ff82169050919050565b6151c2816151ac565b81146151cd57600080fd5b50565b6000813590506151df816151b9565b92915050565b600080604083850312156151fc576151fb6148ae565b5b600061520a858286016149be565b925050602061521b858286016151d0565b9150509250929050565b600080fd5b60008083601f8401126152405761523f614b3a565b5b8235905067ffffffffffffffff81111561525d5761525c615225565b5b60208301915083600182028301111561527957615278614d48565b5b9250929050565b600080600080600080600060c0888a03121561529f5761529e6148ae565b5b60006152ad8a828b016149be565b97505060206152be8a828b016151d0565b96505060406152cf8a828b01614b25565b955050606088013567ffffffffffffffff8111156152f0576152ef6148b3565b5b6152fc8a828b0161522a565b9450945050608088013567ffffffffffffffff81111561531f5761531e6148b3565b5b61532b8a828b01614c41565b92505060a088013567ffffffffffffffff81111561534c5761534b6148b3565b5b6153588a828b01614c41565b91505092959891949750929550565b600080600080600060808688031215615383576153826148ae565b5b6000615391888289016149be565b95505060206153a2888289016151d0565b945050604086013567ffffffffffffffff8111156153c3576153c26148b3565b5b6153cf8882890161522a565b9350935050606086013567ffffffffffffffff8111156153f2576153f16148b3565b5b6153fe88828901614c41565b9150509295509295909350565b60008060008060608587031215615425576154246148ae565b5b6000615433878288016149be565b9450506020615444878288016151d0565b935050604085013567ffffffffffffffff811115615465576154646148b3565b5b6154718782880161522a565b925092505092959194509250565b600067ffffffffffffffff82111561549a57615499614b44565b5b6154a382614a46565b9050602081019050919050565b60006154c36154be8461547f565b614ba4565b9050828152602081018484840111156154df576154de614b3f565b5b6154ea848285614bf0565b509392505050565b600082601f83011261550757615506614b3a565b5b81356155178482602086016154b0565b91505092915050565b6000806000806080858703121561553a576155396148ae565b5b600085013567ffffffffffffffff811115615558576155576148b3565b5b61556487828801614db6565b945050602085013567ffffffffffffffff811115615585576155846148b3565b5b61559187828801614e79565b935050604085013567ffffffffffffffff8111156155b2576155b16148b3565b5b6155be87828801614f5a565b925050606085013567ffffffffffffffff8111156155df576155de6148b3565b5b6155eb878288016154f2565b91505092959194509250565b60006020828403121561560d5761560c6148ae565b5b600061561b84828501614b25565b91505092915050565b60007fff0000000000000000000000000000000000000000000000000000000000000082169050919050565b61565981615624565b82525050565b600081519050919050565b600082825260208201905092915050565b6000819050602082019050919050565b61569481614973565b82525050565b60006156a6838361568b565b60208301905092915050565b6000602082019050919050565b60006156ca8261565f565b6156d4818561566a565b93506156df8361567b565b8060005b838110156157105781516156f7888261569a565b9750615702836156b2565b9250506001810190506156e3565b5085935050505092915050565b600060e082019050615732600083018a615650565b81810360208301526157448189614a57565b905081810360408301526157588188614a57565b9050615767606083018761497d565b6157746080830186614ae4565b61578160a0830185615079565b81810360c083015261579381846156bf565b905098975050505050505050565b600080600080608085870312156157bb576157ba6148ae565b5b60006157c9878288016149be565b94505060206157da878288016151d0565b93505060406157eb87828801614b25565b925050606085013567ffffffffffffffff81111561580c5761580b6148b3565b5b61581887828801614c41565b91505092959194509250565b600065ffffffffffff82169050919050565b61583f81615824565b82525050565b600060208201905061585a6000830184615836565b92915050565b600080600060608486031215615879576158786148ae565b5b600061588786828701614b25565b9350506020615898868287016149be565b925050604084013567ffffffffffffffff8111156158b9576158b86148b3565b5b6158c586828701614c41565b9150509250925092565b60006158da82614ab2565b9050919050565b60006158ec826158cf565b9050919050565b6158fc816158e1565b811461590757600080fd5b50565b600081359050615919816158f3565b92915050565b600060208284031215615935576159346148ae565b5b60006159438482850161590a565b91505092915050565b600080600080600060a08688031215615968576159676148ae565b5b600061597688828901614b25565b955050602061598788828901614b25565b945050604086013567ffffffffffffffff8111156159a8576159a76148b3565b5b6159b488828901614e79565b935050606086013567ffffffffffffffff8111156159d5576159d46148b3565b5b6159e188828901614e79565b925050608086013567ffffffffffffffff811115615a0257615a016148b3565b5b615a0e88828901614c41565b9150509295509295909350565b60008083601f840112615a3157615a30614b3a565b5b8235905067ffffffffffffffff811115615a4e57615a4d615225565b5b602083019150836001820283011115615a6a57615a69614d48565b5b9250929050565b60008060008060608587031215615a8b57615a8a6148ae565b5b6000615a9987828801614b25565b9450506020615aaa878288016149be565b935050604085013567ffffffffffffffff811115615acb57615aca6148b3565b5b615ad787828801615a1b565b925092505092959194509250565b60008060408385031215615afc57615afb6148ae565b5b6000615b0a85828601614b25565b9250506020615b1b858286016149be565b9150509250929050565b600080600080600060a08688031215615b4157615b406148ae565b5b6000615b4f88828901614b25565b9550506020615b6088828901614b25565b9450506040615b71888289016149be565b9350506060615b82888289016149be565b925050608086013567ffffffffffffffff811115615ba357615ba26148b3565b5b615baf88828901614c41565b9150509295509295909350565b6000819050919050565b6000615be1615bdc615bd784614ab2565b615bbc565b614ab2565b9050919050565b6000615bf382615bc6565b9050919050565b6000615c0582615be8565b9050919050565b615c1581615bfa565b82525050565b6000602082019050615c306000830184615c0c565b92915050565b7f4e487b7100000000000000000000000000000000000000000000000000000000600052602260045260246000fd5b60006002820490506001821680615c7d57607f821691505b602082108103615c9057615c8f615c36565b5b50919050565b6000615cb1615cac615ca784615824565b615bbc565b614973565b9050919050565b615cc181615c96565b82525050565b6000604082019050615cdc600083018561497d565b615ce96020830184615cb8565b9392505050565b7f4e487b7100000000000000000000000000000000000000000000000000000000600052603260045260246000fd5b6000615d32615d2d8461547f565b614ba4565b905082815260208101848484011115615d4e57615d4d614b3f565b5b615d59848285614a1c565b509392505050565b600082601f830112615d7657615d75614b3a565b5b8151615d86848260208601615d1f565b91505092915050565b600060208284031215615da557615da46148ae565b5b600082015167ffffffffffffffff811115615dc357615dc26148b3565b5b615dcf84828501615d61565b91505092915050565b600081905092915050565b6000615def8385615dd8565b9350615dfc838584614bf0565b82840190509392505050565b6000615e15828486615de3565b91508190509392505050565b615e2a816151ac565b82525050565b600060e082019050615e45600083018a615079565b615e52602083018961497d565b615e5f6040830188615e21565b615e6c6060830187614ae4565b615e79608083018661497d565b615e8660a0830185615079565b615e9360c0830184615079565b98975050505050505050565b7f4e487b7100000000000000000000000000000000000000000000000000000000600052601160045260246000fd5b6000615ed982614973565b9150615ee483614973565b9250828203905081811115615efc57615efb615e9f565b5b92915050565b6000615f0d82615824565b9150615f1883615824565b9250828203905065ffffffffffff811115615f3657615f35615e9f565b5b92915050565b6000606082019050615f516000830186614ae4565b615f5e602083018561497d565b615f6b604083018461497d565b949350505050565b600060a082019050615f886000830188615079565b615f95602083018761497d565b615fa26040830186615e21565b615faf6060830185614ae4565b615fbc608083018461497d565b9695505050505050565b615fcf81615824565b8114615fda57600080fd5b50565b600081519050615fec81615fc6565b92915050565b600060208284031215616008576160076148ae565b5b600061601684828501615fdd565b91505092915050565b600061602a82615824565b915061603583615824565b9250828201905065ffffffffffff81111561605357616052615e9f565b5b92915050565b600081519050919050565b600082825260208201905092915050565b6000819050602082019050919050565b61608e81614ad2565b82525050565b60006160a08383616085565b60208301905092915050565b6000602082019050919050565b60006160c482616059565b6160ce8185616064565b93506160d983616075565b8060005b8381101561610a5781516160f18882616094565b97506160fc836160ac565b9250506001810190506160dd565b5085935050505092915050565b600081519050919050565b600082825260208201905092915050565b6000819050602082019050919050565b600081519050919050565b600082825260208201905092915050565b600061616a82616143565b616174818561614e565b9350616184818560208601614a1c565b61618d81614a46565b840191505092915050565b60006161a4838361615f565b905092915050565b6000602082019050919050565b60006161c482616117565b6161ce8185616122565b9350836020820285016161e085616133565b8060005b8581101561621c57848403895281516161fd8582616198565b9450616208836161ac565b925060208a019950506001810190506161e4565b50829750879550505050505092915050565b6000608082019050818103600083015261624881876160b9565b9050818103602083015261625c81866156bf565b9050818103604083015261627081856161b9565b905061627f6060830184615079565b95945050505050565b600081519050616297816149a7565b92915050565b6000602082840312156162b3576162b26148ae565b5b60006162c184828501616288565b91505092915050565b60006162d582614973565b91506162e083614973565b92508282026162ee81614973565b9150828204841483151761630557616304615e9f565b5b5092915050565b7f4e487b7100000000000000000000000000000000000000000000000000000000600052601260045260246000fd5b600061634682614973565b915061635183614973565b9250826163615761636061630c565b5b828204905092915050565b6000604082019050616381600083018561497d565b61638e602083018461497d565b9392505050565b60006060820190506163aa600083018661497d565b6163b7602083018561510b565b6163c46040830184615079565b949350505050565b6163d58161493d565b81146163e057600080fd5b50565b6000815190506163f2816163cc565b92915050565b60006020828403121561640e5761640d6148ae565b5b600061641c848285016163e3565b91505092915050565b600060808201905061643a600083018761497d565b6164476020830186615e21565b616454604083018561497d565b81810360608301526164668184614a57565b905095945050505050565b600082825260208201905092915050565b600061648d82616143565b6164978185616471565b93506164a7818560208601614a1c565b6164b081614a46565b840191505092915050565b600060a0820190506164d0600083018861497d565b6164dd6020830187615e21565b6164ea604083018661497d565b81810360608301526164fc8185614a57565b905081810360808301526165108184616482565b90509695505050505050565b6000819050919050565b600061654161653c6165378461651c565b615bbc565b6151ac565b9050919050565b61655181616526565b82525050565b600060408201905061656c6000830185616548565b616579602083018461497d565b9392505050565b600061658b82614973565b915061659683614973565b92508282019050808211156165ae576165ad615e9f565b5b92915050565b600081519050919050565b600082825260208201905092915050565b6000819050602082019050919050565b600082825260208201905092915050565b60006165fc82614a00565b61660681856165e0565b9350616616818560208601614a1c565b61661f81614a46565b840191505092915050565b600061663683836165f1565b905092915050565b6000602082019050919050565b6000616656826165b4565b61666081856165bf565b935083602082028501616672856165d0565b8060005b858110156166ae578484038952815161668f858261662a565b945061669a8361663e565b925060208a01995050600181019050616676565b50829750879550505050505092915050565b6000610120820190506166d6600083018c61497d565b6166e3602083018b614ae4565b81810360408301526166f5818a6160b9565b9050818103606083015261670981896156bf565b9050818103608083015261671d818861664b565b905081810360a083015261673181876161b9565b905061674060c083018661497d565b61674d60e083018561497d565b8181036101008301526167608184614a57565b90509a9950505050505050505050565b60006040820190506167856000830185614ae4565b616792602083018461497d565b9392505050565b60006040820190506167ae6000830185614ae4565b6167bb6020830184614ae4565b9392505050565b6000819050919050565b60006167e76167e26167dd846167c2565b615bbc565b6151ac565b9050919050565b6167f7816167cc565b82525050565b600060408201905061681260008301856167ee565b61681f602083018461497d565b9392505050565b6000819050919050565b60008160001b9050919050565b600061685861685361684e84616826565b616830565b614f88565b9050919050565b6168688161683d565b82525050565b600060a082019050818103600083015261688881886160b9565b9050818103602083015261689c81876156bf565b905081810360408301526168b081866161b9565b90506168bf606083018561685f565b6168cc6080830184615079565b9695505050505050565b6000815190506168e581614f92565b92915050565b600060208284031215616901576169006148ae565b5b600061690f848285016168d6565b91505092915050565b600060c082019050818103600083015261693281896160b9565b9050818103602083015261694681886156bf565b9050818103604083015261695a81876161b9565b9050616969606083018661685f565b6169766080830185615079565b61698360a083018461497d565b979650505050505050565b60006040820190506169a36000830185615079565b81810360208301526169b58184616482565b90509392505050565b60006169c982616143565b6169d38185615dd8565b93506169e3818560208601614a1c565b80840191505092915050565b60006169fb82846169be565b915081905092915050565b6000819050919050565b6000616a2b616a26616a2184616a06565b615bbc565b6151ac565b9050919050565b616a3b81616a10565b82525050565b6000604082019050616a566000830185616a32565b616a63602083018461497d565b9392505050565b6000616a75826151ac565b9150616a80836151ac565b9250828201905060ff811115616a9957616a98615e9f565b5b92915050565b60008160011c9050919050565b6000808291508390505b6001851115616af657808604811115616ad257616ad1615e9f565b5b6001851615616ae15780820291505b8081029050616aef85616a9f565b9450616ab6565b94509492505050565b600082616b0f5760019050616bcb565b81616b1d5760009050616bcb565b8160018114616b335760028114616b3d57616b6c565b6001915050616bcb565b60ff841115616b4f57616b4e615e9f565b5b8360020a915084821115616b6657616b65615e9f565b5b50616bcb565b5060208310610133831016604e8410600b8410161715616ba15782820a905083811115616b9c57616b9b615e9f565b5b616bcb565b616bae8484846001616aac565b92509050818404811115616bc557616bc4615e9f565b5b81810290505b9392505050565b6000616bdd82614973565b9150616be8836151ac565b9250616c157fffffffffffffffffffffffffffffffffffffffffffffffffffffffffffffffff8484616aff565b905092915050565b600060a082019050616c326000830188615079565b616c3f6020830187615079565b616c4c6040830186615079565b616c59606083018561497d565b616c666080830184614ae4565b9695505050505050565b6000608082019050616c856000830187615079565b616c926020830186615e21565b616c9f6040830185615079565b616cac6060830184615079565b9594505050505056fea26469706673582212206636b247a20b83566d307de8fbe2231bf8fbbfe5c9714bd2ac51f01db11d405264736f6c634300081c0033",
  "linkReferences": {},
  "deployedLinkReferences": {}
}