{
  "_format": "hh-sol-artifact-1",
  "contractName": "GraviDAO",
  "sourceName": "contracts/GraviDAO.sol",
  "abi": [
    {
      "inputs": [
        {
          "internalType": "address",
          "name": "_graviCha",
          "type": "address"
        },
        {
          "internalType": "address",
          "name": "_graviGov",
          "type": "address"
        }
      ],
      "stateMutability": "nonpayable",
      "type": "constructor"
    },
    {
      "inputs": [
        {
          "internalType": "address",
          "name": "owner",
          "type": "address"
        }
      ],
      "name": "OwnableInvalidOwner",
      "type": "error"
    },
    {
      "inputs": [
        {
          "internalType": "address",
          "name": "account",
          "type": "address"
        }
      ],
      "name": "OwnableUnauthorizedAccount",
      "type": "error"
    },
    {
      "anonymous": false,
      "inputs": [
        {
          "indexed": true,
          "internalType": "address",
          "name": "buyer",
          "type": "address"
        },
        {
          "indexed": false,
          "internalType": "uint256",
          "name": "amount",
          "type": "uint256"
        }
      ],
      "name": "GovTokensPurchased",
      "type": "event"
    },
    {
      "anonymous": false,
      "inputs": [
        {
          "indexed": false,
          "internalType": "string",
          "name": "disasterType",
          "type": "string"
        },
        {
          "indexed": false,
          "internalType": "address",
          "name": "poolAddress",
          "type": "address"
        }
      ],
      "name": "InsuranceCreated",
      "type": "event"
    },
    {
      "anonymous": false,
      "inputs": [
        {
          "indexed": false,
          "internalType": "string",
          "name": "disasterType",
          "type": "string"
        },
        {
          "indexed": false,
          "internalType": "address",
          "name": "poolAddress",
          "type": "address"
        }
      ],
      "name": "InsuranceRemoved",
      "type": "event"
    },
    {
      "anonymous": false,
      "inputs": [
        {
          "indexed": true,
          "internalType": "address",
          "name": "moderator",
          "type": "address"
        },
        {
          "indexed": true,
          "internalType": "address",
          "name": "nominator",
          "type": "address"
        },
        {
          "indexed": false,
          "internalType": "uint256",
          "name": "timestamp",
          "type": "uint256"
        }
      ],
      "name": "ModeratorNominated",
      "type": "event"
    },
    {
      "anonymous": false,
      "inputs": [
        {
          "indexed": true,
          "internalType": "address",
          "name": "nominator",
          "type": "address"
        },
        {
          "indexed": true,
          "internalType": "address",
          "name": "moderator",
          "type": "address"
        },
        {
          "indexed": false,
          "internalType": "uint256",
          "name": "amount",
          "type": "uint256"
        }
      ],
      "name": "ModeratorNominationRewarded",
      "type": "event"
    },
    {
      "anonymous": false,
      "inputs": [
        {
          "indexed": false,
          "internalType": "uint256",
          "name": "nominationReward",
          "type": "uint256"
        },
        {
          "indexed": false,
          "internalType": "uint256",
          "name": "votingReward",
          "type": "uint256"
        }
      ],
      "name": "ModeratorRewardAmountsUpdated",
      "type": "event"
    },
    {
      "anonymous": false,
      "inputs": [
        {
          "indexed": false,
          "internalType": "bool",
          "name": "enabled",
          "type": "bool"
        }
      ],
      "name": "ModeratorRewardsToggled",
      "type": "event"
    },
    {
      "anonymous": false,
      "inputs": [
        {
          "indexed": false,
          "internalType": "uint256",
          "name": "nominationThreshold",
          "type": "uint256"
        },
        {
          "indexed": false,
          "internalType": "uint256",
          "name": "votingThreshold",
          "type": "uint256"
        }
      ],
      "name": "ModeratorThresholdsUpdated",
      "type": "event"
    },
    {
      "anonymous": false,
      "inputs": [
        {
          "indexed": true,
          "internalType": "address",
          "name": "voter",
          "type": "address"
        },
        {
          "indexed": true,
          "internalType": "address",
          "name": "moderator",
          "type": "address"
        },
        {
          "indexed": false,
          "internalType": "uint256",
          "name": "amount",
          "type": "uint256"
        }
      ],
      "name": "ModeratorVoteRewarded",
      "type": "event"
    },
    {
      "anonymous": false,
      "inputs": [
        {
          "indexed": true,
          "internalType": "address",
          "name": "moderator",
          "type": "address"
        },
        {
          "indexed": true,
          "internalType": "address",
          "name": "voter",
          "type": "address"
        },
        {
          "indexed": false,
          "internalType": "uint256",
          "name": "newTotalVotes",
          "type": "uint256"
        }
      ],
      "name": "ModeratorVoted",
      "type": "event"
    },
    {
      "anonymous": false,
      "inputs": [
        {
          "indexed": false,
          "internalType": "uint256",
          "name": "timestamp",
          "type": "uint256"
        }
      ],
      "name": "ModeratorsReset",
      "type": "event"
    },
    {
      "anonymous": false,
      "inputs": [
        {
          "indexed": false,
          "internalType": "address",
          "name": "poolAddress",
          "type": "address"
        }
      ],
      "name": "NFTPoolAdded",
      "type": "event"
    },
    {
      "anonymous": false,
      "inputs": [
        {
          "indexed": false,
          "internalType": "address",
          "name": "poolAddress",
          "type": "address"
        }
      ],
      "name": "NFTPoolRemoved",
      "type": "event"
    },
    {
      "anonymous": false,
      "inputs": [
        {
          "indexed": true,
          "internalType": "address",
          "name": "previousOwner",
          "type": "address"
        },
        {
          "indexed": true,
          "internalType": "address",
          "name": "newOwner",
          "type": "address"
        }
      ],
      "name": "OwnershipTransferred",
      "type": "event"
    },
    {
      "inputs": [
        {
          "internalType": "string",
          "name": "poolName",
          "type": "string"
        },
        {
          "internalType": "address",
          "name": "insurancePool",
          "type": "address"
        }
      ],
      "name": "addInsurancePool",
      "outputs": [],
      "stateMutability": "nonpayable",
      "type": "function"
    },
    {
      "inputs": [
        {
          "internalType": "uint256",
          "name": "",
          "type": "uint256"
        }
      ],
      "name": "allNominatedModerators",
      "outputs": [
        {
          "internalType": "address",
          "name": "",
          "type": "address"
        }
      ],
      "stateMutability": "view",
      "type": "function"
    },
    {
      "inputs": [
        {
          "internalType": "uint256",
          "name": "amount",
          "type": "uint256"
        }
      ],
      "name": "calculatesGovTokenPurchasePrice",
      "outputs": [
        {
          "internalType": "uint256",
          "name": "ethPrice",
          "type": "uint256"
        },
        {
          "internalType": "uint256",
          "name": "graviChaBurn",
          "type": "uint256"
        }
      ],
      "stateMutability": "view",
      "type": "function"
    },
    {
      "inputs": [],
      "name": "getAllInsurancePoolNames",
      "outputs": [
        {
          "internalType": "string[]",
          "name": "",
          "type": "string[]"
        }
      ],
      "stateMutability": "view",
      "type": "function"
    },
    {
      "inputs": [],
      "name": "getAllNominatedModerators",
      "outputs": [
        {
          "internalType": "address[]",
          "name": "moderators",
          "type": "address[]"
        },
        {
          "internalType": "uint256[]",
          "name": "votes",
          "type": "uint256[]"
        },
        {
          "internalType": "address[]",
          "name": "nominators",
          "type": "address[]"
        }
      ],
      "stateMutability": "view",
      "type": "function"
    },
    {
      "inputs": [
        {
          "internalType": "string",
          "name": "insuranceName",
          "type": "string"
        }
      ],
      "name": "getInsurancePoolAddresses",
      "outputs": [
        {
          "internalType": "address",
          "name": "insurancePoolAddress",
          "type": "address"
        },
        {
          "internalType": "address",
          "name": "nftPoolAddress",
          "type": "address"
        }
      ],
      "stateMutability": "view",
      "type": "function"
    },
    {
      "inputs": [],
      "name": "getModeratorRewardInfo",
      "outputs": [
        {
          "internalType": "bool",
          "name": "isEnabled",
          "type": "bool"
        },
        {
          "internalType": "uint256",
          "name": "nominationReward",
          "type": "uint256"
        },
        {
          "internalType": "uint256",
          "name": "votingReward",
          "type": "uint256"
        }
      ],
      "stateMutability": "view",
      "type": "function"
    },
    {
      "inputs": [],
      "name": "getNominatedModeratorCount",
      "outputs": [
        {
          "internalType": "uint256",
          "name": "count",
          "type": "uint256"
        }
      ],
      "stateMutability": "view",
      "type": "function"
    },
    {
      "inputs": [
        {
          "internalType": "uint256",
          "name": "_count",
          "type": "uint256"
        }
      ],
      "name": "getTopModerators",
      "outputs": [
        {
          "internalType": "address[]",
          "name": "moderators",
          "type": "address[]"
        },
        {
          "internalType": "uint256[]",
          "name": "votes",
          "type": "uint256[]"
        }
      ],
      "stateMutability": "view",
      "type": "function"
    },
    {
      "inputs": [],
      "name": "govTokenEthPrice",
      "outputs": [
        {
          "internalType": "uint256",
          "name": "",
          "type": "uint256"
        }
      ],
      "stateMutability": "view",
      "type": "function"
    },
    {
      "inputs": [],
      "name": "govTokenGraviChaBurn",
      "outputs": [
        {
          "internalType": "uint256",
          "name": "",
          "type": "uint256"
        }
      ],
      "stateMutability": "view",
      "type": "function"
    },
    {
      "inputs": [],
      "name": "graviCha",
      "outputs": [
        {
          "internalType": "contract IGraviCha",
          "name": "",
          "type": "address"
        }
      ],
      "stateMutability": "view",
      "type": "function"
    },
    {
      "inputs": [],
      "name": "graviGov",
      "outputs": [
        {
          "internalType": "contract IGraviGov",
          "name": "",
          "type": "address"
        }
      ],
      "stateMutability": "view",
      "type": "function"
    },
    {
      "inputs": [
        {
          "internalType": "address",
          "name": "",
          "type": "address"
        }
      ],
      "name": "hasReceivedNominationReward",
      "outputs": [
        {
          "internalType": "bool",
          "name": "",
          "type": "bool"
        }
      ],
      "stateMutability": "view",
      "type": "function"
    },
    {
      "inputs": [
        {
          "internalType": "address",
          "name": "",
          "type": "address"
        },
        {
          "internalType": "address",
          "name": "",
          "type": "address"
        }
      ],
      "name": "hasReceivedVotingReward",
      "outputs": [
        {
          "internalType": "bool",
          "name": "",
          "type": "bool"
        }
      ],
      "stateMutability": "view",
      "type": "function"
    },
    {
      "inputs": [
        {
          "internalType": "address",
          "name": "",
          "type": "address"
        },
        {
          "internalType": "address",
          "name": "",
          "type": "address"
        }
      ],
      "name": "hasVotedForModerator",
      "outputs": [
        {
          "internalType": "bool",
          "name": "",
          "type": "bool"
        }
      ],
      "stateMutability": "view",
      "type": "function"
    },
    {
      "inputs": [
        {
          "internalType": "uint256",
          "name": "",
          "type": "uint256"
        }
      ],
      "name": "insurancePoolNames",
      "outputs": [
        {
          "internalType": "string",
          "name": "",
          "type": "string"
        }
      ],
      "stateMutability": "view",
      "type": "function"
    },
    {
      "inputs": [
        {
          "internalType": "string",
          "name": "",
          "type": "string"
        }
      ],
      "name": "insurancePools",
      "outputs": [
        {
          "internalType": "contract IGraviInsurance",
          "name": "",
          "type": "address"
        }
      ],
      "stateMutability": "view",
      "type": "function"
    },
    {
      "inputs": [
        {
          "internalType": "address",
          "name": "_moderator",
          "type": "address"
        },
        {
          "internalType": "uint256",
          "name": "_topCount",
          "type": "uint256"
        }
      ],
      "name": "isTopModerator",
      "outputs": [
        {
          "internalType": "bool",
          "name": "isATopModerator",
          "type": "bool"
        },
        {
          "internalType": "uint256",
          "name": "rank",
          "type": "uint256"
        }
      ],
      "stateMutability": "view",
      "type": "function"
    },
    {
      "inputs": [],
      "name": "lastModeratorResetTimestamp",
      "outputs": [
        {
          "internalType": "uint256",
          "name": "",
          "type": "uint256"
        }
      ],
      "stateMutability": "view",
      "type": "function"
    },
    {
      "inputs": [],
      "name": "moderatorNominationReward",
      "outputs": [
        {
          "internalType": "uint256",
          "name": "",
          "type": "uint256"
        }
      ],
      "stateMutability": "view",
      "type": "function"
    },
    {
      "inputs": [],
      "name": "moderatorNominationThreshold",
      "outputs": [
        {
          "internalType": "uint256",
          "name": "",
          "type": "uint256"
        }
      ],
      "stateMutability": "view",
      "type": "function"
    },
    {
      "inputs": [],
      "name": "moderatorRewardsEnabled",
      "outputs": [
        {
          "internalType": "bool",
          "name": "",
          "type": "bool"
        }
      ],
      "stateMutability": "view",
      "type": "function"
    },
    {
      "inputs": [],
      "name": "moderatorVotingReward",
      "outputs": [
        {
          "internalType": "uint256",
          "name": "",
          "type": "uint256"
        }
      ],
      "stateMutability": "view",
      "type": "function"
    },
    {
      "inputs": [],
      "name": "moderatorVotingThreshold",
      "outputs": [
        {
          "internalType": "uint256",
          "name": "",
          "type": "uint256"
        }
      ],
      "stateMutability": "view",
      "type": "function"
    },
    {
      "inputs": [],
      "name": "monthlyMintGovTokens",
      "outputs": [],
      "stateMutability": "nonpayable",
      "type": "function"
    },
    {
      "inputs": [
        {
          "internalType": "string",
          "name": "insuranceName",
          "type": "string"
        },
        {
          "internalType": "string[]",
          "name": "tokenURIs",
          "type": "string[]"
        }
      ],
      "name": "monthlyMintNFTForPool",
      "outputs": [],
      "stateMutability": "nonpayable",
      "type": "function"
    },
    {
      "inputs": [
        {
          "internalType": "string",
          "name": "insuranceName",
          "type": "string"
        },
        {
          "internalType": "address payable",
          "name": "recipient",
          "type": "address"
        },
        {
          "internalType": "uint256",
          "name": "amount",
          "type": "uint256"
        }
      ],
      "name": "moveEtherFromInsurance",
      "outputs": [],
      "stateMutability": "nonpayable",
      "type": "function"
    },
    {
      "inputs": [],
      "name": "nftPool",
      "outputs": [
        {
          "internalType": "contract IGraviPoolNFT",
          "name": "",
          "type": "address"
        }
      ],
      "stateMutability": "view",
      "type": "function"
    },
    {
      "inputs": [
        {
          "internalType": "address",
          "name": "_moderator",
          "type": "address"
        }
      ],
      "name": "nominateModerator",
      "outputs": [],
      "stateMutability": "nonpayable",
      "type": "function"
    },
    {
      "inputs": [
        {
          "internalType": "address",
          "name": "",
          "type": "address"
        }
      ],
      "name": "nominatedModerators",
      "outputs": [
        {
          "internalType": "address",
          "name": "moderator",
          "type": "address"
        },
        {
          "internalType": "address",
          "name": "nominator",
          "type": "address"
        },
        {
          "internalType": "uint256",
          "name": "votes",
          "type": "uint256"
        },
        {
          "internalType": "uint256",
          "name": "nominatedAt",
          "type": "uint256"
        }
      ],
      "stateMutability": "view",
      "type": "function"
    },
    {
      "inputs": [],
      "name": "owner",
      "outputs": [
        {
          "internalType": "address",
          "name": "",
          "type": "address"
        }
      ],
      "stateMutability": "view",
      "type": "function"
    },
    {
      "inputs": [
        {
          "internalType": "uint256",
          "name": "amount",
          "type": "uint256"
        }
      ],
      "name": "purchaseGovTokens",
      "outputs": [],
      "stateMutability": "payable",
      "type": "function"
    },
    {
      "inputs": [
        {
          "internalType": "string",
          "name": "insuranceName",
          "type": "string"
        }
      ],
      "name": "removeInsurancePool",
      "outputs": [],
      "stateMutability": "nonpayable",
      "type": "function"
    },
    {
      "inputs": [],
      "name": "renounceOwnership",
      "outputs": [],
      "stateMutability": "nonpayable",
      "type": "function"
    },
    {
      "inputs": [],
      "name": "resetModerators",
      "outputs": [],
      "stateMutability": "nonpayable",
      "type": "function"
    },
    {
      "inputs": [
        {
          "internalType": "uint256",
          "name": "newPrice",
          "type": "uint256"
        },
        {
          "internalType": "uint256",
          "name": "newBurnAmount",
          "type": "uint256"
        },
        {
          "internalType": "uint256",
          "name": "mintAmount",
          "type": "uint256"
        }
      ],
      "name": "setGovernanceTokenParameters",
      "outputs": [],
      "stateMutability": "nonpayable",
      "type": "function"
    },
    {
      "inputs": [
        {
          "internalType": "uint256",
          "name": "newNominationReward",
          "type": "uint256"
        },
        {
          "internalType": "uint256",
          "name": "newVotingReward",
          "type": "uint256"
        }
      ],
      "name": "setModeratorRewardAmounts",
      "outputs": [],
      "stateMutability": "nonpayable",
      "type": "function"
    },
    {
      "inputs": [
        {
          "internalType": "uint256",
          "name": "_nominationThreshold",
          "type": "uint256"
        },
        {
          "internalType": "uint256",
          "name": "_votingThreshold",
          "type": "uint256"
        }
      ],
      "name": "setModeratorThresholds",
      "outputs": [],
      "stateMutability": "nonpayable",
      "type": "function"
    },
    {
      "inputs": [
        {
          "internalType": "uint256",
          "name": "newAmount",
          "type": "uint256"
        }
      ],
      "name": "setMonthlyGovMintAmount",
      "outputs": [],
      "stateMutability": "nonpayable",
      "type": "function"
    },
    {
      "inputs": [
        {
          "internalType": "address",
          "name": "_nftPool",
          "type": "address"
        }
      ],
      "name": "setNFTPool",
      "outputs": [],
      "stateMutability": "nonpayable",
      "type": "function"
    },
    {
      "inputs": [
        {
          "internalType": "address",
          "name": "_timelockController",
          "type": "address"
        }
      ],
      "name": "setTimelockController",
      "outputs": [],
      "stateMutability": "nonpayable",
      "type": "function"
    },
    {
      "inputs": [],
      "name": "timelockController",
      "outputs": [
        {
          "internalType": "address",
          "name": "",
          "type": "address"
        }
      ],
      "stateMutability": "view",
      "type": "function"
    },
    {
      "inputs": [
        {
          "internalType": "bool",
          "name": "enabled",
          "type": "bool"
        }
      ],
      "name": "toggleModeratorRewards",
      "outputs": [],
      "stateMutability": "nonpayable",
      "type": "function"
    },
    {
      "inputs": [
        {
          "internalType": "address",
          "name": "newOwner",
          "type": "address"
        }
      ],
      "name": "transferOwnership",
      "outputs": [],
      "stateMutability": "nonpayable",
      "type": "function"
    },
    {
      "inputs": [
        {
          "internalType": "address",
          "name": "_moderator",
          "type": "address"
        }
      ],
      "name": "voteForModerator",
      "outputs": [],
      "stateMutability": "nonpayable",
      "type": "function"
    }
  ],
  "bytecode": "0x60803461014a57601f612e8738819003918201601f19168301916001600160401b0383118484101761014f57808492604094855283398101031261014a57610052602061004b83610165565b9201610165565b33156101345760008054336001600160a01b0319821681178355604051949290916001600160a01b0316907f8be0079c531659141344cd1fd0a4f28419497f9722a3daafe3b4186f6b6457e09080a3662386f26fc10000600455678ac7230489e8000060055568056bc75e2d63100000600955670de0b6b3a7640000600a55600f805460ff1916600117905566b1a2bc2ec5000060105566470de4df820000601155600280546001600160a01b03199081166001600160a01b0393841617909155600380549091169290911691909117905542600b55612d0d908161017a8239f35b631e4fbdf760e01b600052600060045260246000fd5b600080fd5b634e487b7160e01b600052604160045260246000fd5b51906001600160a01b038216820361014a5756fe608080604052600436101561001357600080fd5b600090813560e01c9081630828862d14612677575080631051a346146126145780631aba5fa4146125de57806321f320f61461235b57806323ed3bd814612269578063241c1df91461224b57806324b4d1221461221757806326fd16d1146121ab5780632a94ac3f1461211e5780633646d52e146120c4578063404c403e146120a657806342762d8e1461203d57806343205a5214611fc157806344bb2f9614611f8557806345a47fe314611f6757806352886f6414611f495780635b9fe28e14611f2657806369cc20c114611d995780636eb83a1614611d7b578063715018a614611d21578063744b8d4714611adf57806381b0ae9214611a0057806381b3e3f5146119875780638da5cb5b146119605780638dd3cbd1146118cf578063919170701461188b57806397240e4d1461178757806397370aff146117115780639cf40dd5146116d25780639d4c3e69146116b45780639d7a10e6146114c4578063a573be171461149b578063a6da6d3b146111e4578063b04869ae146111bb578063b131d3151461119d578063c27e067a14610dab578063d547f34314610cc8578063d5895f8914610c3c578063d8345fe014610ba3578063e4de9f7614610b49578063e54d9a4a14610822578063f2fde38b1461079c578063f3388e7514610773578063f752a61a146106fa578063fbc1d8691461023b5763fd58503b1461021b57600080fd5b346102385780600319360112610238576020601054604051908152f35b80fd5b5034610238576040366003190112610238576004356001600160401b0381116106f65761026c90369060040161288c565b9061027561285b565b9160018060a01b03825416331480156106e2575b61029290612b4b565b6040519281519360208301946102a98183886127fd565b60069082019081528190036020019020546001600160a01b031661069d576007546001600160a01b031693841561063e57604051638da5cb5b60e01b81526001600160a01b03831695906020816004818a5afa9081156106335786916105f5575b50306001600160a01b03909116036105b057803b156105ac57848091602460405180948193632eb97b0160e21b83528b60048401525af180156105a157908591610588575b50506020610368916040518093819287519283916127fd565b60069082019081520301902080546001600160a01b0319166001600160a01b038616179055600854600160401b811015610574578060016103ac920160085561269c565b949094610560578251946001600160401b03861161054c576103ce81546126e8565b601f8111610511575b50602095601f81116001146104ad5780869787959697916104a2575b508160011b916000199060031b1c19161790555b6002546001600160a01b031690813b15610493578291602483926040519485938492634c1d96ab60e11b845260048401525af180156104975761047e575b50507f623af352474d44fabc0293cb2ede90259b04bc0a3f15730243cece612fec152e9161047860405192839283612bf1565b0390a180f35b8161048891612722565b610493578238610445565b8280fd5b6040513d84823e3d90fd5b9050860151386103f3565b818652868620601f198216875b8181106104f95750908798836001949399979899106104e0575b5050811b019055610407565b88015160001960f88460031b161c1916905538806104d4565b878a015183556020998a0199600190930192016104ba565b61053c9082875260208720601f890160051c81019160208a10610542575b601f0160051c0190612c4b565b386103d7565b909150819061052f565b634e487b7160e01b85526041600452602485fd5b634e487b7160e01b84526004849052602484fd5b634e487b7160e01b84526041600452602484fd5b8161059291612722565b61059d57833861034f565b8380fd5b6040513d87823e3d90fd5b8480fd5b60405162461bcd60e51b815260206004820152601b60248201527f44414f206d757374206f776e20696e737572616e636520706f6f6c00000000006044820152606490fd5b90506020813d60201161062b575b8161061060209383612722565b810103126106275761062190612971565b3861030a565b8580fd5b3d9150610603565b6040513d88823e3d90fd5b60405162461bcd60e51b815260206004820152603160248201527f4e465420706f6f6c206d75737420626520736574206265666f726520616464696044820152701b99c81a5b9cdd5c985b98d9481c1bdbdb607a1b6064820152608490fd5b60405162461bcd60e51b815260206004820152601d60248201527f496e737572616e636520706f6f6c20616c7265616479206578697374730000006044820152606490fd5b506001546001600160a01b03163314610289565b5080fd5b5034610238577fe357af7b52a887dc59a7502bd9428f0550f293d0b8068e310879ff768cd34be3604061072c36612944565b84546001600160a01b03163314801561075f575b61074990612b4b565b816010558060115582519182526020820152a180f35b506001546001600160a01b03163314610740565b50346102385780600319360112610238576001546040516001600160a01b039091168152602090f35b5034610238576020366003190112610238576107b6612845565b6107be612cae565b6001600160a01b0316801561080e5781546001600160a01b03198116821783556001600160a01b03167f8be0079c531659141344cd1fd0a4f28419497f9722a3daafe3b4186f6b6457e08380a380f35b631e4fbdf760e01b82526004829052602482fd5b5034610238576020366003190112610238576001600160a01b03610844612845565b168015610b0457808252600c60205260408220546001600160a01b0316610acb576003546040516370a0823160e01b815233600482015290602090829060249082906001600160a01b03165afa8015610ac0578390610a87575b6108ad91506009541115612c62565b604051608081018181106001600160401b038211176105745760409081528282523360208084019182528383018681524260608601908152868852600c909252928620935184546001600160a01b03199081166001600160a01b039283161786559251600186018054909416911617909155905160028301555160039190910155600d54600160401b811015610a735780600161094d9201600d556126cd565b81546001600160a01b0360039290921b91821b19169083901b179055600f5460ff1680610a5c575b6109aa575b604051904282527f6fcc8f439fbc77296e90ce156deca453be06aa82933f5d593ce9d433e93af44a60203393a380f35b338252601260205260408220805460ff1916600117905560025460105483916001600160a01b0316803b15610493576040516340c10f1960e01b8152336004820152602481019290925290919081908390604490829084905af19182610a47575b50501561097a57806010546040519081527f45c5f96896c0eaf5ea7b15ee3abb58918f669ad4f182c039875201988e45bef660203392a361097a565b81610a5191612722565b610493578238610a0b565b50338252601260205260ff60408320541615610975565b634e487b7160e01b83526041600452602483fd5b506020813d602011610ab8575b81610aa160209383612722565b81010312610ab3576108ad905161089e565b600080fd5b3d9150610a94565b6040513d85823e3d90fd5b60405162461bcd60e51b8152602060048201526011602482015270105b1c9958591e481b9bdb5a5b985d1959607a1b6044820152606490fd5b60405162461bcd60e51b815260206004820152601c60248201527f43616e6e6f74206e6f6d696e617465207a65726f2061646472657373000000006044820152606490fd5b5034610238576040366003190112610238576040610b65612845565b91610b6e61285b565b9260018060a01b031681526013602052209060018060a01b0316600052602052602060ff604060002054166040519015158152f35b50346102385760203660031901126102385780546001600160a01b031633148015610c28575b610bd290612b4b565b60035481906001600160a01b0316803b15610c25578180916024604051809481936364f6ad1160e01b835260043560048401525af1801561049757610c145750f35b81610c1e91612722565b6102385780f35b50fd5b506001546001600160a01b03163314610bc9565b5034610238576020366003190112610238576004358015158091036106f65760207fb302b84abe7fd6f7a33d00f9fb641baaaba6b5deb4c102220485f9f87536dc829160018060a01b0384541633148015610cb4575b610c9b90612b4b565b60ff19600f541660ff821617600f55604051908152a180f35b506001546001600160a01b03163314610c92565b5034610238578060031936011261023857600854610ce58161295a565b610cf26040519182612722565b818152600883526020810191837ff3f7a9fe364faab93b216da50a3214154f22a0a2b415b23a84c8169e8b636ee3845b838310610d8e57868587604051928392602084019060208552518091526040840160408260051b8601019392905b828210610d5f57505050500390f35b91936001919395506020610d7e8192603f198a82030186528851612820565b9601920192018594939192610d50565b600160208192610d9d85612759565b815201920192019190610d22565b50602036600319011261023857600435670de0b6b3a7640000610dd060045483612bde565b0480341061115e576003546040516370a0823160e01b815230600482015290602090829060249082906001600160a01b03165afa801561103e5783918591611129575b50106110d857670de0b6b3a7640000610e2e60055484612bde565b0460018060a01b0360025416906040516370a0823160e01b8152336004820152602081602481865afa801561063357829187916110a3575b501061105e578185923b156104935760405163079cc67960e41b8152336004820152602481019290925282908290604490829084905af1801561049757611049575b505060035460405163a9059cbb60e01b815233600482015260248101849052906020908290604490829088906001600160a01b03165af190811561103e578491611003575b5015610fc25780340390348211610fae579083913403610f39575b50506040519081527f9df0abf6618a8dc2dc8ec10915f33087cca4c3916086a2f698d5264320d05f2a60203392a280f35b81808092335af13d15610fa9573d610f5081612871565b90610f5e6040519283612722565b81528360203d92013e5b15610f74578138610f08565b60405162461bcd60e51b815260206004820152600d60248201526c1499599d5b990819985a5b1959609a1b6044820152606490fd5b610f68565b634e487b7160e01b84526011600452602484fd5b60405162461bcd60e51b815260206004820152601960248201527811dbdd881d1bdad95b881d1c985b9cd9995c8819985a5b1959603a1b6044820152606490fd5b90506020813d602011611036575b8161101e60209383612722565b8101031261059d5751801515810361059d5738610eed565b3d9150611011565b6040513d86823e3d90fd5b8161105391612722565b610493578238610ea8565b60405162461bcd60e51b815260206004820152601b60248201527f496e73756666696369656e74206368617269747920746f6b656e7300000000006044820152606490fd5b9150506020813d6020116110d0575b816110bf60209383612722565b81010312610ab35781905138610e66565b3d91506110b2565b60405162461bcd60e51b8152602060048201526024808201527f4e6f7420656e6f75676820676f7665726e616e636520746f6b656e7320696e206044820152631c1bdbdb60e21b6064820152608490fd5b9150506020813d602011611156575b8161114560209383612722565b81010312610ab35782905138610e13565b3d9150611138565b60405162461bcd60e51b8152602060048201526017602482015276125b9cdd59999a58da595b9d08115d1a195c881cd95b9d604a1b6044820152606490fd5b50346102385780600319360112610238576020600454604051908152f35b50346102385780600319360112610238576002546040516001600160a01b039091168152602090f35b5034610238576020366003190112610238576001600160a01b03611206612845565b16808252600c60205260408220546001600160a01b03161561146657338252600e602052604082208160005260205260ff60406000205416611431576003546040516370a0823160e01b815233600482015290602090829060249082906001600160a01b03165afa8015610ac05783906113fd575b61128a9150600a541115612c62565b338252600e60205260408220816000526020526040600020600160ff19825416179055808252600c6020526002604083200180549060018201809211610fae575560ff600f5416806113da575b61131c575b808252600c6020526002604083200154906040519182527fb7490e853f4984db29eb13bc17a247807c3a8dc41bac32d373e5401d943a566760203393a380f35b338252601360209081526040808420600084815292529020805460ff1916600117905560025460115483916001600160a01b0316803b15610493576040516340c10f1960e01b8152336004820152602481019290925290919081908390604490829084905af191826113c5575b5050156112dc57806011546040519081527fc4e92a2b75f63e59e309432c3c63d1aa41f82a48f4cb4d5275d8abf37d584af460203392a36112dc565b816113cf91612722565b610493578238611389565b503382526013602052604082208160005260205260ff60406000205416156112d7565b506020813d602011611429575b8161141760209383612722565b81010312610ab35761128a905161127b565b3d915061140a565b60405162461bcd60e51b815260206004820152600d60248201526c105b1c9958591e481d9bdd1959609a1b6044820152606490fd5b60405162461bcd60e51b815260206004820152600d60248201526c139bdd081b9bdb5a5b985d1959609a1b6044820152606490fd5b50346102385780600319360112610238576003546040516001600160a01b039091168152602090f35b503461023857602036600319011261023857600d54600435818111156116ae575080915b6114f182612c19565b916114fb81612c19565b90825b818110611662575050815b83518310156115d757600183018084116115c3575b84518110156115b7576001906115348585612985565b5161153f8286612985565b511161154c575b0161151e565b6115568585612985565b516115618286612985565b5161156c8787612985565b526115778286612985565b52818060a01b036115888688612985565b5116828060a01b0361159a8389612985565b51166115a68789612985565b526115b18288612985565b52611546565b50600190920191611509565b634e487b7160e01b82526011600452602482fd5b9391506115e382612c19565b926115ed83612c19565b945b8381106116245761161285611620886040519384936040855260408501906128d3565b908382036020850152612910565b0390f35b6001906001600160a01b036116398285612985565b51166116458288612985565b526116508185612985565b5161165b8289612985565b52016115ef565b806116716001929795976126cd565b838060a01b0391549060031b1c168061168a8389612985565b528752600c60205260026040882001546116a48286612985565b52019492946114fe565b916114e8565b50346102385780600319360112610238576020600a54604051908152f35b50346102385760203660031901126102385760209060ff906040906001600160a01b036116fd612845565b168152601284522054166040519015158152f35b503461023857602036600319011261023857600435906001600160401b038211610238576040611744366004850161288c565b6020611758835192838151938492016127fd565b8101906006825260208160018060a01b039303019020541660018060a01b036007541682519182526020820152f35b503461023857806003193601126102385780546001600160a01b031633148015611877575b6117b590612b4b565b805b600d548110156117ff57806117cd6001926126cd565b838060a01b0391549060031b1c168352600c6020528260036040822082815582858201558260028201550155016117b7565b50600d5481600d558061183f575b5042600b557f07765f2eb0a181c9a08ca3f12c6522bf16f1c619a54c0d7fa0a6b19fe0cee9716020604051428152a180f35b600d8252611871907fd7b6990105719101dabeb77144f2a3385c8033acd3af97e9423a695e81ad1eb590810190612c4b565b3861180d565b506001546001600160a01b031633146117ac565b50346102385760203660031901126102385760043590600d548210156102385760206118b6836126cd565b905460405160039290921b1c6001600160a01b03168152f35b50346102385760603660031901126102385780546001600160a01b03163314801561194c575b6118fe90612b4b565b60048035905560243560055560035481906001600160a01b0316803b15610c25578180916024604051809481936364f6ad1160e01b835260443560048401525af1801561049757610c145750f35b506001546001600160a01b031633146118f5565b5034610238578060031936011261023857546040516001600160a01b039091168152602090f35b5034610238577f6f22e0acd517461ba72f26dab03227b3f3eebc8f0f4564943503b8ece9bb256f60406119b936612944565b84546001600160a01b0316331480156119ec575b6119d690612b4b565b8160095580600a5582519182526020820152a180f35b506001546001600160a01b031633146119cd565b5034610238578060031936011261023857600d5490611a1e82612c19565b90611a2883612c19565b92611a3281612c19565b91805b828110611a7857611a5c8561162086611a6a8a6040519586956060875260608701906128d3565b908582036020870152612910565b9083820360408501526128d3565b80611a846001926126cd565b838060a01b0391549060031b1c1680611a9d8389612985565b52808452600c6020526002604085200154611ab8838a612985565b528352600c602052818060a01b038260408520015416611ad88287612985565b5201611a35565b5034610238576040366003190112610238576004356001600160401b0381116106f657611b1090369060040161288c565b906024356001600160401b0381116106f657366023820112156106f6578060040135906001600160401b038211610493578160051b366024828401011161059d5783546001600160a01b031633148015611d0d575b611b6e90612b4b565b6007546001600160a01b0316948515611cd3576020611b9660405192838151938492016127fd565b60069082019081528190036020019020546001600160a01b031690611bbc821515612b97565b611bc584612c19565b91855b858110611cbe575050853b156105ac5760409392935193631a5c1b7960e11b8552836044860160406004880152526064808601928601019360248201928792604219813603015b838510611c4857505086860360031901602488015287808881818d818381611c378f8f6128d3565b03925af1801561049757610c145750f35b909192939496606319898203018452873582811215611cba5783016044602482013591016001600160401b038211611cb6578136038113611cb657602083838e8184969585966001995285850137828201840152601f01601f19160101990196919091019493019190611c0f565b8b80fd5b8a80fd5b8082611ccc60019387612985565b5201611bc8565b60405162461bcd60e51b8152602060048201526012602482015271139195081c1bdbdb081b9bdd08199bdd5b9960721b6044820152606490fd5b506001546001600160a01b03163314611b65565b5034610238578060031936011261023857611d3a612cae565b80546001600160a01b03198116825581906001600160a01b03167f8be0079c531659141344cd1fd0a4f28419497f9722a3daafe3b4186f6b6457e08280a380f35b50346102385780600319360112610238576020601154604051908152f35b5034610238576020366003190112610238576004356001600160401b0381116106f657611dca90369060040161288c565b81546001600160a01b031633148015611f12575b611de790612b4b565b604051908051916020820192611dfe8183866127fd565b60069082019081528190036020019020546001600160a01b0316908115611ed75760025484906001600160a01b0316803b156106f657818091602460405180948193633092afd560e01b83528960048401525af1801561049757611ec2575b5050611e9760207fac01a30ac82ac5b47233b53a3e0d52ebe10441d12e832e65899f4bdd2bd1d9ae946040518093819286519283916127fd565b60069082019081520301902080546001600160a01b0319169055604051918291610478919083612bf1565b81611ecc91612722565b61059d578338611e5d565b60405162461bcd60e51b8152602060048201526013602482015272141bdbdb08191bd95cc81b9bdd08195e1a5cdd606a1b6044820152606490fd5b506001546001600160a01b03163314611dde565b5034610238578060031936011261023857602060ff600f54166040519015158152f35b50346102385780600319360112610238576020600d54604051908152f35b50346102385780600319360112610238576020600554604051908152f35b5034610238576020366003190112610238576040600435611fb5611fab60045483612bde565b9160055490612bde565b82519182526020820152f35b503461023857806003193601126102385780546001600160a01b031633148015612029575b611fef90612b4b565b60035481906001600160a01b0316803b15610c2557818091600460405180948193638e8846a160e01b83525af1801561049757610c145750f35b506001546001600160a01b03163314611fe6565b503461023857602036600319011261023857600435906001600160401b038211610238576020612070366004850161288c565b8161208460405192838151938492016127fd565b600690820190815281900382019020546040516001600160a01b039091168152f35b50346102385780600319360112610238576020600b54604051908152f35b50346102385760403660031901126102385760406120e0612845565b916120e961285b565b9260018060a01b03168152600e602052209060018060a01b0316600052602052602060ff604060002054166040519015158152f35b503461023857602036600319011261023857612138612845565b612140612cae565b6001600160a01b0316801561216657600180546001600160a01b03191691909117905580f35b60405162461bcd60e51b815260206004820152601f60248201527f54696d656c6f636b20616464726573732063616e6e6f74206265207a65726f006044820152606490fd5b5034610238576020366003190112610238576080906040906001600160a01b036121d3612845565b168152600c6020522060018060a01b038154169060018060a01b03600182015416906003600282015491015491604051938452602084015260408301526060820152f35b5034610238578060031936011261023857606060ff600f541660105460115490604051921515835260208301526040820152f35b50346102385780600319360112610238576020600954604051908152f35b503461023857606036600319011261023857806004356001600160401b038111610c255761229b90369060040161288c565b6024356001600160a01b03811691908290036123435782546001600160a01b031633148015612347575b6122ce90612b4b565b60206122e360405192838151938492016127fd565b60069082019081528190036020019020546001600160a01b031690612309821515612b97565b813b156123435782916044839260405194859384926305b1137b60e01b84526004840152833560248401525af1801561049757610c145750f35b5050fd5b506001546001600160a01b031633146122c5565b503461023857602036600319011261023857612375612845565b81546001600160a01b0316331480156125ca575b61239290612b4b565b6001600160a01b031690811561258557604051638da5cb5b60e01b8152602081600481865afa90811561049757829161254b575b50306001600160a01b039091160361250e576007546001600160a01b031680612482575b50600780546001600160a01b0319168317905560025490919082906001600160a01b0316803b156106f657818091602460405180948193634c1d96ab60e11b83528860048401525af180156104975761246d575b507f462df8cbbf95fef6721ba53cb2a7589b9ffa9a04e59f8e93e9f72a71648f7cf2602083604051908152a180f35b8161247791612722565b6106f657813861243e565b6002546001600160a01b031690813b15610493578291602483926040519485938492633092afd560e01b845260048401525af18015610497576124fe575b50907f3db3ddc3aa9620da53761479d4e80a562901f53d3c8c1254597727a11ac874a0602060018060a01b0360075416604051908152a190386123ea565b8161250891612722565b386124c0565b60405162461bcd60e51b8152602060048201526015602482015274111053c81b5d5cdd081bdddb88139195081c1bdbdb605a1b6044820152606490fd5b90506020813d60201161257d575b8161256660209383612722565b810103126106f65761257790612971565b386123c6565b3d9150612559565b60405162461bcd60e51b815260206004820152601f60248201527f4e465420706f6f6c20616464726573732063616e6e6f74206265207a65726f006044820152606490fd5b506001546001600160a01b03163314612389565b50346102385760403660031901126102385760406126066125fd612845565b60243590612999565b825191151582526020820152f35b5034610238576020366003190112610238576004356008548110156106f65761263c9061269c565b9190916126635761162061264f83612759565b604051918291602083526020830190612820565b634e487b7160e01b81526004819052602490fd5b9050346106f657816003193601126106f6576007546001600160a01b03168152602090f35b6008548110156126b757600860005260206000200190600090565b634e487b7160e01b600052603260045260246000fd5b600d548110156126b757600d60005260206000200190600090565b90600182811c92168015612718575b602083101461270257565b634e487b7160e01b600052602260045260246000fd5b91607f16916126f7565b90601f801991011681019081106001600160401b0382111761274357604052565b634e487b7160e01b600052604160045260246000fd5b906040519182600082549261276d846126e8565b80845293600181169081156127db5750600114612794575b5061279292500383612722565b565b90506000929192526020600020906000915b8183106127bf5750509060206127929282010138612785565b60209193508060019154838589010152019101909184926127a6565b90506020925061279294915060ff191682840152151560051b82010138612785565b60005b8381106128105750506000910152565b8181015183820152602001612800565b90602091612839815180928185528580860191016127fd565b601f01601f1916010190565b600435906001600160a01b0382168203610ab357565b602435906001600160a01b0382168203610ab357565b6001600160401b03811161274357601f01601f191660200190565b81601f82011215610ab3578035906128a382612871565b926128b16040519485612722565b82845260208383010111610ab357816000926020809301838601378301015290565b906020808351928381520192019060005b8181106128f15750505090565b82516001600160a01b03168452602093840193909201916001016128e4565b906020808351928381520192019060005b81811061292e5750505090565b8251845260209384019390920191600101612921565b6040906003190112610ab3576004359060243590565b6001600160401b0381116127435760051b60200190565b51906001600160a01b0382168203610ab357565b80518210156126b75760209160051b010190565b91909160405192634ebd087360e11b84526004840152600083602481305afa928315612b3f57600093612a36575b5060005b8351811015612a2a576001600160a01b036129e68286612985565b51166001600160a01b038316146129ff576001016129cb565b8093506001915001809211612a145760019190565b634e487b7160e01b600052601160045260246000fd5b50509050600090600090565b90923d8082843e612a478184612722565b8201906040838303126102385782516001600160401b0381116106f65783019282601f850112156106f657835193612a7e8561295a565b94612a8c6040519687612722565b80865260208087019160051b830101918583116105ac57602001905b828210612b27575050506020810151906001600160401b038211610493570182601f820112156106f657805191602080612ae18561295a565b612aee6040519182612722565b858152019360051b8301019384116102385750602001905b828210612b175750505091386129c7565b8151815260209182019101612b06565b60208091612b3484612971565b815201910190612aa8565b6040513d6000823e3d90fd5b15612b5257565b60405162461bcd60e51b815260206004820152601c60248201527f556e617574686f72697a65643a206e6f7420676f7665726e616e6365000000006044820152606490fd5b15612b9e57565b60405162461bcd60e51b8152602060048201526018602482015277125b9cdd5c985b98d9481c1bdbdb081b9bdd08199bdd5b9960421b6044820152606490fd5b81810292918115918404141715612a1457565b90612c09602091949394604084526040840190612820565b6001600160a01b03909416910152565b90612c238261295a565b612c306040519182612722565b8281528092612c41601f199161295a565b0190602036910137565b818110612c56575050565b60008155600101612c4b565b15612c6957565b60405162461bcd60e51b815260206004820152601e60248201527f496e73756666696369656e7420676f7665726e616e636520746f6b656e7300006044820152606490fd5b6000546001600160a01b03163303612cc257565b63118cdaa760e01b6000523360045260246000fdfea2646970667358221220da35a7408f864300f26e4e6b7e413848276fd09b04fbe4382d49993bfdbf7f3f64736f6c634300081c0033",
  "linkReferences": {},
  "deployedLinkReferences": {}
}