{
  "_format": "hh-sol-artifact-1",
  "contractName": "GraviDAO",
  "sourceName": "contracts/GraviDAO.sol",
  "abi": [
    {
      "inputs": [
        {
          "internalType": "address",
          "name": "_graviCha",
          "type": "address"
        },
        {
          "internalType": "address",
          "name": "_graviGov",
          "type": "address"
        }
      ],
      "stateMutability": "nonpayable",
      "type": "constructor"
    },
    {
      "inputs": [
        {
          "internalType": "address",
          "name": "owner",
          "type": "address"
        }
      ],
      "name": "OwnableInvalidOwner",
      "type": "error"
    },
    {
      "inputs": [
        {
          "internalType": "address",
          "name": "account",
          "type": "address"
        }
      ],
      "name": "OwnableUnauthorizedAccount",
      "type": "error"
    },
    {
      "anonymous": false,
      "inputs": [
        {
          "indexed": true,
          "internalType": "address",
          "name": "buyer",
          "type": "address"
        },
        {
          "indexed": false,
          "internalType": "uint256",
          "name": "amount",
          "type": "uint256"
        }
      ],
      "name": "GovTokensPurchased",
      "type": "event"
    },
    {
      "anonymous": false,
      "inputs": [
        {
          "indexed": false,
          "internalType": "string",
          "name": "disasterType",
          "type": "string"
        },
        {
          "indexed": false,
          "internalType": "address",
          "name": "poolAddress",
          "type": "address"
        }
      ],
      "name": "InsuranceCreated",
      "type": "event"
    },
    {
      "anonymous": false,
      "inputs": [
        {
          "indexed": false,
          "internalType": "string",
          "name": "disasterType",
          "type": "string"
        },
        {
          "indexed": false,
          "internalType": "address",
          "name": "poolAddress",
          "type": "address"
        }
      ],
      "name": "InsuranceRemoved",
      "type": "event"
    },
    {
      "anonymous": false,
      "inputs": [
        {
          "indexed": false,
          "internalType": "address",
          "name": "poolAddress",
          "type": "address"
        }
      ],
      "name": "NFTPoolAdded",
      "type": "event"
    },
    {
      "anonymous": false,
      "inputs": [
        {
          "indexed": false,
          "internalType": "address",
          "name": "poolAddress",
          "type": "address"
        }
      ],
      "name": "NFTPoolRemoved",
      "type": "event"
    },
    {
      "anonymous": false,
      "inputs": [
        {
          "indexed": true,
          "internalType": "address",
          "name": "previousOwner",
          "type": "address"
        },
        {
          "indexed": true,
          "internalType": "address",
          "name": "newOwner",
          "type": "address"
        }
      ],
      "name": "OwnershipTransferred",
      "type": "event"
    },
    {
      "inputs": [
        {
          "internalType": "string",
          "name": "poolName",
          "type": "string"
        },
        {
          "internalType": "address",
          "name": "insurancePool",
          "type": "address"
        }
      ],
      "name": "addInsurancePool",
      "outputs": [],
      "stateMutability": "nonpayable",
      "type": "function"
    },
    {
      "inputs": [
        {
          "internalType": "uint256",
          "name": "amount",
          "type": "uint256"
        }
      ],
      "name": "calculatesGovTokenPurchasePrice",
      "outputs": [
        {
          "internalType": "uint256",
          "name": "ethPrice",
          "type": "uint256"
        },
        {
          "internalType": "uint256",
          "name": "graviChaBurn",
          "type": "uint256"
        }
      ],
      "stateMutability": "view",
      "type": "function"
    },
    {
      "inputs": [],
      "name": "getAllInsurancePoolNames",
      "outputs": [
        {
          "internalType": "string[]",
          "name": "",
          "type": "string[]"
        }
      ],
      "stateMutability": "view",
      "type": "function"
    },
    {
      "inputs": [
        {
          "internalType": "string",
          "name": "insuranceName",
          "type": "string"
        }
      ],
      "name": "getInsurancePoolAddresses",
      "outputs": [
        {
          "internalType": "address",
          "name": "insurancePoolAddress",
          "type": "address"
        },
        {
          "internalType": "address",
          "name": "nftPoolAddress",
          "type": "address"
        }
      ],
      "stateMutability": "view",
      "type": "function"
    },
    {
      "inputs": [],
      "name": "govTokenEthPrice",
      "outputs": [
        {
          "internalType": "uint256",
          "name": "",
          "type": "uint256"
        }
      ],
      "stateMutability": "view",
      "type": "function"
    },
    {
      "inputs": [],
      "name": "govTokenGraviChaBurn",
      "outputs": [
        {
          "internalType": "uint256",
          "name": "",
          "type": "uint256"
        }
      ],
      "stateMutability": "view",
      "type": "function"
    },
    {
      "inputs": [],
      "name": "graviCha",
      "outputs": [
        {
          "internalType": "contract IGraviCha",
          "name": "",
          "type": "address"
        }
      ],
      "stateMutability": "view",
      "type": "function"
    },
    {
      "inputs": [],
      "name": "graviGov",
      "outputs": [
        {
          "internalType": "contract IGraviGov",
          "name": "",
          "type": "address"
        }
      ],
      "stateMutability": "view",
      "type": "function"
    },
    {
      "inputs": [
        {
          "internalType": "uint256",
          "name": "",
          "type": "uint256"
        }
      ],
      "name": "insurancePoolNames",
      "outputs": [
        {
          "internalType": "string",
          "name": "",
          "type": "string"
        }
      ],
      "stateMutability": "view",
      "type": "function"
    },
    {
      "inputs": [
        {
          "internalType": "string",
          "name": "",
          "type": "string"
        }
      ],
      "name": "insurancePools",
      "outputs": [
        {
          "internalType": "contract IGraviInsurance",
          "name": "",
          "type": "address"
        }
      ],
      "stateMutability": "view",
      "type": "function"
    },
    {
      "inputs": [],
      "name": "monthlyMintGovTokens",
      "outputs": [],
      "stateMutability": "nonpayable",
      "type": "function"
    },
    {
      "inputs": [
        {
          "internalType": "string",
          "name": "insuranceName",
          "type": "string"
        },
        {
          "internalType": "string[]",
          "name": "tokenURIs",
          "type": "string[]"
        }
      ],
      "name": "monthlyMintNFTForPool",
      "outputs": [],
      "stateMutability": "nonpayable",
      "type": "function"
    },
    {
      "inputs": [
        {
          "internalType": "string",
          "name": "insuranceName",
          "type": "string"
        },
        {
          "internalType": "address payable",
          "name": "recipient",
          "type": "address"
        },
        {
          "internalType": "uint256",
          "name": "amount",
          "type": "uint256"
        }
      ],
      "name": "moveEtherFromInsurance",
      "outputs": [],
      "stateMutability": "nonpayable",
      "type": "function"
    },
    {
      "inputs": [],
      "name": "nftPool",
      "outputs": [
        {
          "internalType": "contract IGraviPoolNFT",
          "name": "",
          "type": "address"
        }
      ],
      "stateMutability": "view",
      "type": "function"
    },
    {
      "inputs": [],
      "name": "owner",
      "outputs": [
        {
          "internalType": "address",
          "name": "",
          "type": "address"
        }
      ],
      "stateMutability": "view",
      "type": "function"
    },
    {
      "inputs": [
        {
          "internalType": "uint256",
          "name": "amount",
          "type": "uint256"
        }
      ],
      "name": "purchaseGovTokens",
      "outputs": [],
      "stateMutability": "payable",
      "type": "function"
    },
    {
      "inputs": [
        {
          "internalType": "string",
          "name": "insuranceName",
          "type": "string"
        }
      ],
      "name": "removeInsurancePool",
      "outputs": [],
      "stateMutability": "nonpayable",
      "type": "function"
    },
    {
      "inputs": [],
      "name": "renounceOwnership",
      "outputs": [],
      "stateMutability": "nonpayable",
      "type": "function"
    },
    {
      "inputs": [
        {
          "internalType": "uint256",
          "name": "newRate",
          "type": "uint256"
        }
      ],
      "name": "setCharityTokenExchangeRate",
      "outputs": [],
      "stateMutability": "nonpayable",
      "type": "function"
    },
    {
      "inputs": [
        {
          "internalType": "uint256",
          "name": "newRate",
          "type": "uint256"
        },
        {
          "internalType": "uint256",
          "name": "newPrice",
          "type": "uint256"
        },
        {
          "internalType": "uint256",
          "name": "newBurnAmount",
          "type": "uint256"
        },
        {
          "internalType": "uint256",
          "name": "mintAmount",
          "type": "uint256"
        }
      ],
      "name": "setGovernanceTokenParameters",
      "outputs": [],
      "stateMutability": "nonpayable",
      "type": "function"
    },
    {
      "inputs": [
        {
          "internalType": "uint256",
          "name": "newAmount",
          "type": "uint256"
        }
      ],
      "name": "setMonthlyGovMintAmount",
      "outputs": [],
      "stateMutability": "nonpayable",
      "type": "function"
    },
    {
      "inputs": [
        {
          "internalType": "address",
          "name": "_nftPool",
          "type": "address"
        }
      ],
      "name": "setNFTPool",
      "outputs": [],
      "stateMutability": "nonpayable",
      "type": "function"
    },
    {
      "inputs": [
        {
          "internalType": "address",
          "name": "_timelockController",
          "type": "address"
        }
      ],
      "name": "setTimelockController",
      "outputs": [],
      "stateMutability": "nonpayable",
      "type": "function"
    },
    {
      "inputs": [],
      "name": "timelockController",
      "outputs": [
        {
          "internalType": "address",
          "name": "",
          "type": "address"
        }
      ],
      "stateMutability": "view",
      "type": "function"
    },
    {
      "inputs": [
        {
          "internalType": "address",
          "name": "newOwner",
          "type": "address"
        }
      ],
      "name": "transferOwnership",
      "outputs": [],
      "stateMutability": "nonpayable",
      "type": "function"
    }
  ],
  "bytecode": "0x60803461010957601f611dc738819003918201601f19168301916001600160401b0383118484101761010e57808492604094855283398101031261010957610052602061004b83610124565b9201610124565b33156100f35760008054336001600160a01b0319821681178355604051949290916001600160a01b0316907f8be0079c531659141344cd1fd0a4f28419497f9722a3daafe3b4186f6b6457e09080a3662386f26fc10000600455678ac7230489e80000600555600280546001600160a01b039283166001600160a01b03199182161790915560038054939092169216919091179055611c8e90816101398239f35b631e4fbdf760e01b600052600060045260246000fd5b600080fd5b634e487b7160e01b600052604160045260246000fd5b51906001600160a01b03821682036101095756fe6080604052600436101561001257600080fd5b6000803560e01c806304a6e87e146118595780630828862d146118305780631051a346146117c957806321f320f61461155257806323ed3bd8146114605780632a94ac3f146113d357806342762d8e1461136a57806343205a52146112ee57806344bb2f96146112b257806345a47fe31461129457806367442247146111af57806369cc20c114611022578063715018a614610fc8578063744b8d4714610d105780638da5cb5b14610ce957806397370aff14610c73578063a573be1714610c4a578063b04869ae14610c21578063b131d31514610c03578063c27e067a1461080c578063d547f34314610729578063d8345fe014610690578063f2fde38b1461060a578063f3388e75146105e15763fbc1d8691461013057600080fd5b346105de5760403660031901126105de576004356001600160401b0381116105dc57610160903690600401611ab8565b6024356001600160a01b03811692919083810361037e5782546001600160a01b0316331480156105c8575b61019490611aff565b60405182519060208401916101aa818385611a3f565b60069082019081528190036020019020546001600160a01b0316610583576007546001600160a01b0316801561052457604051638da5cb5b60e01b81526020816004818a5afa9081156105195786916104ea575b50306001600160a01b03909116036104a557803b156104a157848091602460405180948193632eb97b0160e21b83528b60048401525af180156104965790859161047d575b5050602061025c91604051809381928751928391611a3f565b60069082019081520301902080546001600160a01b03191685179055600854600160401b8110156104695780600161029792016008556118f9565b949094610455578251946001600160401b038611610441576102b9815461192a565b601f81116103fc575b50602095601f811160011461039857808697879596979161038d575b508160011b916000199060031b1c19161790555b6002546001600160a01b031690813b1561037e578291602483926040519485938492634c1d96ab60e11b845260048401525af1801561038257610369575b50507f623af352474d44fabc0293cb2ede90259b04bc0a3f15730243cece612fec152e9161036360405192839283611bf0565b0390a180f35b8161037391611964565b61037e578238610330565b8280fd5b6040513d84823e3d90fd5b9050860151386102de565b818652868620601f198216875b8181106103e45750908798836001949399979899106103cb575b5050811b0190556102f2565b88015160001960f88460031b161c1916905538806103bf565b878a015183556020998a0199600190930192016103a5565b81865260208620601f880160051c81019160208910610437575b601f0160051c01905b81811061042c57506102c2565b86815560010161041f565b9091508190610416565b634e487b7160e01b85526041600452602485fd5b634e487b7160e01b84526004849052602484fd5b634e487b7160e01b84526041600452602484fd5b8161048791611964565b610492578338610243565b8380fd5b6040513d87823e3d90fd5b8480fd5b60405162461bcd60e51b815260206004820152601b60248201527f44414f206d757374206f776e20696e737572616e636520706f6f6c00000000006044820152606490fd5b61050c915060203d602011610512575b6105048183611964565b810190611b61565b386101fe565b503d6104fa565b6040513d88823e3d90fd5b60405162461bcd60e51b815260206004820152603160248201527f4e465420706f6f6c206d75737420626520736574206265666f726520616464696044820152701b99c81a5b9cdd5c985b98d9481c1bdbdb607a1b6064820152608490fd5b60405162461bcd60e51b815260206004820152601d60248201527f496e737572616e636520706f6f6c20616c7265616479206578697374730000006044820152606490fd5b506001546001600160a01b0316331461018b565b505b80fd5b50346105de57806003193601126105de576001546040516001600160a01b039091168152602090f35b50346105de5760203660031901126105de57610624611a87565b61062c611c2f565b6001600160a01b0316801561067c5781546001600160a01b03198116821783556001600160a01b03167f8be0079c531659141344cd1fd0a4f28419497f9722a3daafe3b4186f6b6457e08380a380f35b631e4fbdf760e01b82526004829052602482fd5b50346105de5760203660031901126105de5780546001600160a01b031633148015610715575b6106bf90611aff565b60035481906001600160a01b0316803b15610712578180916024604051809481936364f6ad1160e01b835260043560048401525af18015610382576107015750f35b8161070b91611964565b6105de5780f35b50fd5b506001546001600160a01b031633146106b6565b50346105de57806003193601126105de5760085461074681611c18565b6107536040519182611964565b818152600883526020810191837ff3f7a9fe364faab93b216da50a3214154f22a0a2b415b23a84c8169e8b636ee3845b8383106107ef57868587604051928392602084019060208552518091526040840160408260051b8601019392905b8282106107c057505050500390f35b919360019193955060206107df8192603f198a82030186528851611a62565b96019201920185949391926107b1565b6001602081926107fe8561199b565b815201920192019190610783565b5060203660031901126105de57600435670de0b6b3a764000061083160045483611bc7565b04803410610bc4576003546040516370a0823160e01b815230600482015290602090829060249082906001600160a01b03165afa8015610a9f5783918591610b8f575b5010610b3e57670de0b6b3a764000061088f60055484611bc7565b0460018060a01b0360025416906040516370a0823160e01b8152336004820152602081602481865afa80156105195782918791610b04575b5010610abf578185923b1561037e5760405163079cc67960e41b8152336004820152602481019290925282908290604490829084905af1801561038257610aaa575b505060035460405163a9059cbb60e01b815233600482015260248101849052906020908290604490829088906001600160a01b03165af1908115610a9f578491610a64575b5015610a235780340390348211610a0f57908391340361099a575b50506040519081527f9df0abf6618a8dc2dc8ec10915f33087cca4c3916086a2f698d5264320d05f2a60203392a280f35b81808092335af13d15610a0a573d6109b181611a9d565b906109bf6040519283611964565b81528360203d92013e5b156109d5578138610969565b60405162461bcd60e51b815260206004820152600d60248201526c1499599d5b990819985a5b1959609a1b6044820152606490fd5b6109c9565b634e487b7160e01b84526011600452602484fd5b60405162461bcd60e51b815260206004820152601960248201527811dbdd881d1bdad95b881d1c985b9cd9995c8819985a5b1959603a1b6044820152606490fd5b90506020813d602011610a97575b81610a7f60209383611964565b8101031261049257518015158103610492573861094e565b3d9150610a72565b6040513d86823e3d90fd5b81610ab491611964565b61037e578238610909565b60405162461bcd60e51b815260206004820152601b60248201527f496e73756666696369656e74206368617269747920746f6b656e7300000000006044820152606490fd5b9150506020813d602011610b36575b81610b2060209383611964565b81010312610b3157819051386108c7565b600080fd5b3d9150610b13565b60405162461bcd60e51b8152602060048201526024808201527f4e6f7420656e6f75676820676f7665726e616e636520746f6b656e7320696e206044820152631c1bdbdb60e21b6064820152608490fd5b9150506020813d602011610bbc575b81610bab60209383611964565b81010312610b315782905138610874565b3d9150610b9e565b60405162461bcd60e51b8152602060048201526017602482015276125b9cdd59999a58da595b9d08115d1a195c881cd95b9d604a1b6044820152606490fd5b50346105de57806003193601126105de576020600454604051908152f35b50346105de57806003193601126105de576002546040516001600160a01b039091168152602090f35b50346105de57806003193601126105de576003546040516001600160a01b039091168152602090f35b50346105de5760203660031901126105de57600435906001600160401b0382116105de576040610ca63660048501611ab8565b6020610cba83519283815193849201611a3f565b8101906006825260208160018060a01b039303019020541660018060a01b036007541682519182526020820152f35b50346105de57806003193601126105de57546040516001600160a01b039091168152602090f35b50346105de5760403660031901126105de576004356001600160401b0381116105dc57610d41903690600401611ab8565b906024356001600160401b0381116105dc57366023820112156105dc578060040135906001600160401b03821161037e578160051b9036602483830101116104925783546001600160a01b031633148015610fb4575b610da090611aff565b6007546001600160a01b0316948515610f7a576020610dc86040519283815193849201611a3f565b60069082019081528190036020019020546001600160a01b031691610dee831515611b80565b610df784611c18565b90610e056040519283611964565b848252610e1185611c18565b602083019490601f1901368637865b868110610f49575050863b15610f455760409492945194631a5c1b7960e11b8652836044870160406004890152526064808701928701019360248201928892604219813603015b838510610ecf575050505050506020906003198584030160248601525191828152019190845b818110610eb057505050818394818581819503925af18015610382576107015750f35b82516001600160a01b0316845260209384019390920191600101610e8d565b9091929394966063198a8203018452873582811215610f415783016044602482013591016001600160401b038211610f3d578136038113610f3d57602083838f8184969585966001995285850137828201840152601f01601f19160101990196919091019493019190610e67565b8c80fd5b8b80fd5b8580fd5b8351811015610f66578082602060019360051b8701015201610e20565b634e487b7160e01b88526032600452602488fd5b60405162461bcd60e51b8152602060048201526012602482015271139195081c1bdbdb081b9bdd08199bdd5b9960721b6044820152606490fd5b506001546001600160a01b03163314610d97565b50346105de57806003193601126105de57610fe1611c2f565b80546001600160a01b03198116825581906001600160a01b03167f8be0079c531659141344cd1fd0a4f28419497f9722a3daafe3b4186f6b6457e08280a380f35b50346105de5760203660031901126105de576004356001600160401b0381116105dc57611053903690600401611ab8565b81546001600160a01b03163314801561119b575b61107090611aff565b604051908051916020820192611087818386611a3f565b60069082019081528190036020019020546001600160a01b03169081156111605760025484906001600160a01b0316803b156105dc57818091602460405180948193633092afd560e01b83528960048401525af180156103825761114b575b505061112060207fac01a30ac82ac5b47233b53a3e0d52ebe10441d12e832e65899f4bdd2bd1d9ae94604051809381928651928391611a3f565b60069082019081520301902080546001600160a01b0319169055604051918291610363919083611bf0565b8161115591611964565b6104925783386110e6565b60405162461bcd60e51b8152602060048201526013602482015272141bdbdb08191bd95cc81b9bdd08195e1a5cdd606a1b6044820152606490fd5b506001546001600160a01b03163314611067565b50346105de5760803660031901126105de5780546001600160a01b031633148015611280575b6111de90611aff565b60243560045560443560055560035481906001600160a01b0316803b1561071257818091602460405180948193630253743f60e11b835260043560048401525af180156103825761126b575b506003546001600160a01b0316803b15610712578180916024604051809481936364f6ad1160e01b835260643560048401525af18015610382576107015750f35b8161127591611964565b6105de57803861122a565b506001546001600160a01b031633146111d5565b50346105de57806003193601126105de576020600554604051908152f35b50346105de5760203660031901126105de5760406004356112e26112d860045483611bc7565b9160055490611bc7565b82519182526020820152f35b50346105de57806003193601126105de5780546001600160a01b031633148015611356575b61131c90611aff565b60035481906001600160a01b0316803b1561071257818091600460405180948193638e8846a160e01b83525af18015610382576107015750f35b506001546001600160a01b03163314611313565b50346105de5760203660031901126105de57600435906001600160401b0382116105de57602061139d3660048501611ab8565b816113b16040519283815193849201611a3f565b600690820190815281900382019020546040516001600160a01b039091168152f35b50346105de5760203660031901126105de576113ed611a87565b6113f5611c2f565b6001600160a01b0316801561141b57600180546001600160a01b03191691909117905580f35b60405162461bcd60e51b815260206004820152601f60248201527f54696d656c6f636b20616464726573732063616e6e6f74206265207a65726f006044820152606490fd5b50346105de5760603660031901126105de57806004356001600160401b03811161071257611492903690600401611ab8565b6024356001600160a01b038116919082900361153a5782546001600160a01b03163314801561153e575b6114c590611aff565b60206114da6040519283815193849201611a3f565b60069082019081528190036020019020546001600160a01b031690611500821515611b80565b813b1561153a5782916044839260405194859384926305b1137b60e01b84526004840152833560248401525af18015610382576107015750f35b5050fd5b506001546001600160a01b031633146114bc565b50346105de5760203660031901126105de5761156c611a87565b81546001600160a01b0316331480156117b5575b61158990611aff565b6001600160a01b0316801561177057604051638da5cb5b60e01b8152602081600481855afa908115611765578391611746575b50306001600160a01b03909116036117095760075482906001600160a01b031680611678575b5050600780546001600160a01b0319168217905560025482906001600160a01b0316803b156105dc57818091602460405180948193634c1d96ab60e11b83528860048401525af1801561038257611663575b507f462df8cbbf95fef6721ba53cb2a7589b9ffa9a04e59f8e93e9f72a71648f7cf2602083604051908152a180f35b8161166d91611964565b6105dc578138611634565b6002546001600160a01b031690813b1561037e578291602483926040519485938492633092afd560e01b845260048401525af18015610382576116f4575b50507f3db3ddc3aa9620da53761479d4e80a562901f53d3c8c1254597727a11ac874a0602060018060a01b0360075416604051908152a181386115e2565b816116fe91611964565b6105dc5781386116b6565b60405162461bcd60e51b8152602060048201526015602482015274111053c81b5d5cdd081bdddb88139195081c1bdbdb605a1b6044820152606490fd5b61175f915060203d602011610512576105048183611964565b386115bc565b6040513d85823e3d90fd5b60405162461bcd60e51b815260206004820152601f60248201527f4e465420706f6f6c20616464726573732063616e6e6f74206265207a65726f006044820152606490fd5b506001546001600160a01b03163314611580565b50346105de5760203660031901126105de576004356008548110156105dc576117f1906118f9565b91909161181c576118186118048361199b565b604051918291602083526020830190611a62565b0390f35b634e487b7160e01b81526004819052602490fd5b50346105de57806003193601126105de576007546040516001600160a01b039091168152602090f35b50346105de5760203660031901126105de5780546001600160a01b0316331480156118e5575b61188890611aff565b60035481906001600160a01b0316803b1561071257818091602460405180958193630253743f60e11b835260043560048401525af180156118d8576118ca5780f35b6118d391611964565b388180f35b50604051903d90823e3d90fd5b506001546001600160a01b0316331461187f565b60085481101561191457600860005260206000200190600090565b634e487b7160e01b600052603260045260246000fd5b90600182811c9216801561195a575b602083101461194457565b634e487b7160e01b600052602260045260246000fd5b91607f1691611939565b90601f801991011681019081106001600160401b0382111761198557604052565b634e487b7160e01b600052604160045260246000fd5b90604051918260008254926119af8461192a565b8084529360018116908115611a1d57506001146119d6575b506119d492500383611964565b565b90506000929192526020600020906000915b818310611a015750509060206119d492820101386119c7565b60209193508060019154838589010152019101909184926119e8565b9050602092506119d494915060ff191682840152151560051b820101386119c7565b60005b838110611a525750506000910152565b8181015183820152602001611a42565b90602091611a7b81518092818552858086019101611a3f565b601f01601f1916010190565b600435906001600160a01b0382168203610b3157565b6001600160401b03811161198557601f01601f191660200190565b81601f82011215610b3157803590611acf82611a9d565b92611add6040519485611964565b82845260208383010111610b3157816000926020809301838601378301015290565b15611b0657565b60405162461bcd60e51b815260206004820152602d60248201527f556e617574686f72697a65643a2063616c6c6572206973206e6f74206f776e6560448201526c72206f722074696d656c6f636b60981b6064820152608490fd5b90816020910312610b3157516001600160a01b0381168103610b315790565b15611b8757565b60405162461bcd60e51b8152602060048201526018602482015277125b9cdd5c985b98d9481c1bdbdb081b9bdd08199bdd5b9960421b6044820152606490fd5b81810292918115918404141715611bda57565b634e487b7160e01b600052601160045260246000fd5b90611c08602091949394604084526040840190611a62565b6001600160a01b03909416910152565b6001600160401b0381116119855760051b60200190565b6000546001600160a01b03163303611c4357565b63118cdaa760e01b6000523360045260246000fdfea26469706673582212206735b6feb050cff9ebd64dd5aa3acb23b89334eb7b654f17dae17a55215a0afc64736f6c634300081c0033",
  "linkReferences": {},
  "deployedLinkReferences": {}
}