{
  "_format": "hh-sol-artifact-1",
  "contractName": "GraviDAO",
  "sourceName": "contracts/GraviDAO.sol",
  "abi": [
    {
      "inputs": [
        {
          "internalType": "address",
          "name": "_graviCha",
          "type": "address"
        },
        {
          "internalType": "address",
          "name": "_graviGov",
          "type": "address"
        }
      ],
      "stateMutability": "nonpayable",
      "type": "constructor"
    },
    {
      "inputs": [
        {
          "internalType": "address",
          "name": "owner",
          "type": "address"
        }
      ],
      "name": "OwnableInvalidOwner",
      "type": "error"
    },
    {
      "inputs": [
        {
          "internalType": "address",
          "name": "account",
          "type": "address"
        }
      ],
      "name": "OwnableUnauthorizedAccount",
      "type": "error"
    },
    {
      "anonymous": false,
      "inputs": [
        {
          "indexed": true,
          "internalType": "address",
          "name": "buyer",
          "type": "address"
        },
        {
          "indexed": false,
          "internalType": "uint256",
          "name": "amount",
          "type": "uint256"
        }
      ],
      "name": "GovTokensPurchased",
      "type": "event"
    },
    {
      "anonymous": false,
      "inputs": [
        {
          "indexed": false,
          "internalType": "string",
          "name": "disasterType",
          "type": "string"
        },
        {
          "indexed": false,
          "internalType": "address",
          "name": "poolAddress",
          "type": "address"
        }
      ],
      "name": "InsuranceCreated",
      "type": "event"
    },
    {
      "anonymous": false,
      "inputs": [
        {
          "indexed": false,
          "internalType": "string",
          "name": "disasterType",
          "type": "string"
        },
        {
          "indexed": false,
          "internalType": "address",
          "name": "poolAddress",
          "type": "address"
        }
      ],
      "name": "InsuranceRemoved",
      "type": "event"
    },
    {
      "anonymous": false,
      "inputs": [
        {
          "indexed": true,
          "internalType": "address",
          "name": "moderator",
          "type": "address"
        },
        {
          "indexed": true,
          "internalType": "address",
          "name": "nominator",
          "type": "address"
        },
        {
          "indexed": false,
          "internalType": "uint256",
          "name": "timestamp",
          "type": "uint256"
        }
      ],
      "name": "ModeratorNominated",
      "type": "event"
    },
    {
      "anonymous": false,
      "inputs": [
        {
          "indexed": true,
          "internalType": "address",
          "name": "nominator",
          "type": "address"
        },
        {
          "indexed": true,
          "internalType": "address",
          "name": "moderator",
          "type": "address"
        },
        {
          "indexed": false,
          "internalType": "uint256",
          "name": "amount",
          "type": "uint256"
        }
      ],
      "name": "ModeratorNominationRewarded",
      "type": "event"
    },
    {
      "anonymous": false,
      "inputs": [
        {
          "indexed": false,
          "internalType": "uint256",
          "name": "nominationReward",
          "type": "uint256"
        },
        {
          "indexed": false,
          "internalType": "uint256",
          "name": "votingReward",
          "type": "uint256"
        }
      ],
      "name": "ModeratorRewardAmountsUpdated",
      "type": "event"
    },
    {
      "anonymous": false,
      "inputs": [
        {
          "indexed": false,
          "internalType": "bool",
          "name": "enabled",
          "type": "bool"
        }
      ],
      "name": "ModeratorRewardsToggled",
      "type": "event"
    },
    {
      "anonymous": false,
      "inputs": [
        {
          "indexed": false,
          "internalType": "uint256",
          "name": "nominationThreshold",
          "type": "uint256"
        },
        {
          "indexed": false,
          "internalType": "uint256",
          "name": "votingThreshold",
          "type": "uint256"
        }
      ],
      "name": "ModeratorThresholdsUpdated",
      "type": "event"
    },
    {
      "anonymous": false,
      "inputs": [
        {
          "indexed": true,
          "internalType": "address",
          "name": "voter",
          "type": "address"
        },
        {
          "indexed": true,
          "internalType": "address",
          "name": "moderator",
          "type": "address"
        },
        {
          "indexed": false,
          "internalType": "uint256",
          "name": "amount",
          "type": "uint256"
        }
      ],
      "name": "ModeratorVoteRewarded",
      "type": "event"
    },
    {
      "anonymous": false,
      "inputs": [
        {
          "indexed": true,
          "internalType": "address",
          "name": "moderator",
          "type": "address"
        },
        {
          "indexed": true,
          "internalType": "address",
          "name": "voter",
          "type": "address"
        },
        {
          "indexed": false,
          "internalType": "uint256",
          "name": "newTotalVotes",
          "type": "uint256"
        }
      ],
      "name": "ModeratorVoted",
      "type": "event"
    },
    {
      "anonymous": false,
      "inputs": [
        {
          "indexed": false,
          "internalType": "uint256",
          "name": "timestamp",
          "type": "uint256"
        }
      ],
      "name": "ModeratorsReset",
      "type": "event"
    },
    {
      "anonymous": false,
      "inputs": [
        {
          "indexed": false,
          "internalType": "address",
          "name": "poolAddress",
          "type": "address"
        }
      ],
      "name": "NFTPoolAdded",
      "type": "event"
    },
    {
      "anonymous": false,
      "inputs": [
        {
          "indexed": false,
          "internalType": "address",
          "name": "poolAddress",
          "type": "address"
        }
      ],
      "name": "NFTPoolRemoved",
      "type": "event"
    },
    {
      "anonymous": false,
      "inputs": [
        {
          "indexed": true,
          "internalType": "address",
          "name": "previousOwner",
          "type": "address"
        },
        {
          "indexed": true,
          "internalType": "address",
          "name": "newOwner",
          "type": "address"
        }
      ],
      "name": "OwnershipTransferred",
      "type": "event"
    },
    {
      "inputs": [
        {
          "internalType": "string",
          "name": "poolName",
          "type": "string"
        },
        {
          "internalType": "address",
          "name": "insurancePool",
          "type": "address"
        }
      ],
      "name": "addInsurancePool",
      "outputs": [],
      "stateMutability": "nonpayable",
      "type": "function"
    },
    {
      "inputs": [
        {
          "internalType": "uint256",
          "name": "",
          "type": "uint256"
        }
      ],
      "name": "allNominatedModerators",
      "outputs": [
        {
          "internalType": "address",
          "name": "",
          "type": "address"
        }
      ],
      "stateMutability": "view",
      "type": "function"
    },
    {
      "inputs": [
        {
          "internalType": "uint256",
          "name": "amount",
          "type": "uint256"
        }
      ],
      "name": "calculatesGovTokenPurchasePrice",
      "outputs": [
        {
          "internalType": "uint256",
          "name": "ethPrice",
          "type": "uint256"
        },
        {
          "internalType": "uint256",
          "name": "graviChaBurn",
          "type": "uint256"
        }
      ],
      "stateMutability": "view",
      "type": "function"
    },
    {
      "inputs": [],
      "name": "getAllInsurancePoolNames",
      "outputs": [
        {
          "internalType": "string[]",
          "name": "",
          "type": "string[]"
        }
      ],
      "stateMutability": "view",
      "type": "function"
    },
    {
      "inputs": [],
      "name": "getAllNominatedModerators",
      "outputs": [
        {
          "internalType": "address[]",
          "name": "moderators",
          "type": "address[]"
        },
        {
          "internalType": "uint256[]",
          "name": "votes",
          "type": "uint256[]"
        },
        {
          "internalType": "address[]",
          "name": "nominators",
          "type": "address[]"
        }
      ],
      "stateMutability": "view",
      "type": "function"
    },
    {
      "inputs": [
        {
          "internalType": "string",
          "name": "insuranceName",
          "type": "string"
        }
      ],
      "name": "getInsurancePoolAddresses",
      "outputs": [
        {
          "internalType": "address",
          "name": "insurancePoolAddress",
          "type": "address"
        },
        {
          "internalType": "address",
          "name": "nftPoolAddress",
          "type": "address"
        }
      ],
      "stateMutability": "view",
      "type": "function"
    },
    {
      "inputs": [],
      "name": "getModeratorRewardInfo",
      "outputs": [
        {
          "internalType": "bool",
          "name": "isEnabled",
          "type": "bool"
        },
        {
          "internalType": "uint256",
          "name": "nominationReward",
          "type": "uint256"
        },
        {
          "internalType": "uint256",
          "name": "votingReward",
          "type": "uint256"
        }
      ],
      "stateMutability": "view",
      "type": "function"
    },
    {
      "inputs": [],
      "name": "getNominatedModeratorCount",
      "outputs": [
        {
          "internalType": "uint256",
          "name": "count",
          "type": "uint256"
        }
      ],
      "stateMutability": "view",
      "type": "function"
    },
    {
      "inputs": [
        {
          "internalType": "uint256",
          "name": "_count",
          "type": "uint256"
        }
      ],
      "name": "getTopModerators",
      "outputs": [
        {
          "internalType": "address[]",
          "name": "moderators",
          "type": "address[]"
        },
        {
          "internalType": "uint256[]",
          "name": "votes",
          "type": "uint256[]"
        }
      ],
      "stateMutability": "view",
      "type": "function"
    },
    {
      "inputs": [],
      "name": "govTokenEthPrice",
      "outputs": [
        {
          "internalType": "uint256",
          "name": "",
          "type": "uint256"
        }
      ],
      "stateMutability": "view",
      "type": "function"
    },
    {
      "inputs": [],
      "name": "govTokenGraviChaBurn",
      "outputs": [
        {
          "internalType": "uint256",
          "name": "",
          "type": "uint256"
        }
      ],
      "stateMutability": "view",
      "type": "function"
    },
    {
      "inputs": [],
      "name": "graviCha",
      "outputs": [
        {
          "internalType": "contract IGraviCha",
          "name": "",
          "type": "address"
        }
      ],
      "stateMutability": "view",
      "type": "function"
    },
    {
      "inputs": [],
      "name": "graviGov",
      "outputs": [
        {
          "internalType": "contract IGraviGov",
          "name": "",
          "type": "address"
        }
      ],
      "stateMutability": "view",
      "type": "function"
    },
    {
      "inputs": [
        {
          "internalType": "address",
          "name": "",
          "type": "address"
        }
      ],
      "name": "hasReceivedNominationReward",
      "outputs": [
        {
          "internalType": "bool",
          "name": "",
          "type": "bool"
        }
      ],
      "stateMutability": "view",
      "type": "function"
    },
    {
      "inputs": [
        {
          "internalType": "address",
          "name": "",
          "type": "address"
        },
        {
          "internalType": "address",
          "name": "",
          "type": "address"
        }
      ],
      "name": "hasReceivedVotingReward",
      "outputs": [
        {
          "internalType": "bool",
          "name": "",
          "type": "bool"
        }
      ],
      "stateMutability": "view",
      "type": "function"
    },
    {
      "inputs": [
        {
          "internalType": "address",
          "name": "",
          "type": "address"
        },
        {
          "internalType": "address",
          "name": "",
          "type": "address"
        }
      ],
      "name": "hasVotedForModerator",
      "outputs": [
        {
          "internalType": "bool",
          "name": "",
          "type": "bool"
        }
      ],
      "stateMutability": "view",
      "type": "function"
    },
    {
      "inputs": [
        {
          "internalType": "uint256",
          "name": "",
          "type": "uint256"
        }
      ],
      "name": "insurancePoolNames",
      "outputs": [
        {
          "internalType": "string",
          "name": "",
          "type": "string"
        }
      ],
      "stateMutability": "view",
      "type": "function"
    },
    {
      "inputs": [
        {
          "internalType": "string",
          "name": "",
          "type": "string"
        }
      ],
      "name": "insurancePools",
      "outputs": [
        {
          "internalType": "contract IGraviInsurance",
          "name": "",
          "type": "address"
        }
      ],
      "stateMutability": "view",
      "type": "function"
    },
    {
      "inputs": [
        {
          "internalType": "address",
          "name": "_moderator",
          "type": "address"
        },
        {
          "internalType": "uint256",
          "name": "_topCount",
          "type": "uint256"
        }
      ],
      "name": "isTopModerator",
      "outputs": [
        {
          "internalType": "bool",
          "name": "isATopModerator",
          "type": "bool"
        },
        {
          "internalType": "uint256",
          "name": "rank",
          "type": "uint256"
        }
      ],
      "stateMutability": "view",
      "type": "function"
    },
    {
      "inputs": [],
      "name": "lastModeratorResetTimestamp",
      "outputs": [
        {
          "internalType": "uint256",
          "name": "",
          "type": "uint256"
        }
      ],
      "stateMutability": "view",
      "type": "function"
    },
    {
      "inputs": [],
      "name": "moderatorNominationReward",
      "outputs": [
        {
          "internalType": "uint256",
          "name": "",
          "type": "uint256"
        }
      ],
      "stateMutability": "view",
      "type": "function"
    },
    {
      "inputs": [],
      "name": "moderatorNominationThreshold",
      "outputs": [
        {
          "internalType": "uint256",
          "name": "",
          "type": "uint256"
        }
      ],
      "stateMutability": "view",
      "type": "function"
    },
    {
      "inputs": [],
      "name": "moderatorRewardsEnabled",
      "outputs": [
        {
          "internalType": "bool",
          "name": "",
          "type": "bool"
        }
      ],
      "stateMutability": "view",
      "type": "function"
    },
    {
      "inputs": [],
      "name": "moderatorVotingReward",
      "outputs": [
        {
          "internalType": "uint256",
          "name": "",
          "type": "uint256"
        }
      ],
      "stateMutability": "view",
      "type": "function"
    },
    {
      "inputs": [],
      "name": "moderatorVotingThreshold",
      "outputs": [
        {
          "internalType": "uint256",
          "name": "",
          "type": "uint256"
        }
      ],
      "stateMutability": "view",
      "type": "function"
    },
    {
      "inputs": [],
      "name": "monthlyMintGovTokens",
      "outputs": [],
      "stateMutability": "nonpayable",
      "type": "function"
    },
    {
      "inputs": [
        {
          "internalType": "string",
          "name": "insuranceName",
          "type": "string"
        },
        {
          "internalType": "string[]",
          "name": "tokenURIs",
          "type": "string[]"
        }
      ],
      "name": "monthlyMintNFTForPool",
      "outputs": [],
      "stateMutability": "nonpayable",
      "type": "function"
    },
    {
      "inputs": [
        {
          "internalType": "string",
          "name": "insuranceName",
          "type": "string"
        },
        {
          "internalType": "address payable",
          "name": "recipient",
          "type": "address"
        },
        {
          "internalType": "uint256",
          "name": "amount",
          "type": "uint256"
        }
      ],
      "name": "moveEtherFromInsurance",
      "outputs": [],
      "stateMutability": "nonpayable",
      "type": "function"
    },
    {
      "inputs": [],
      "name": "nftPool",
      "outputs": [
        {
          "internalType": "contract IGraviPoolNFT",
          "name": "",
          "type": "address"
        }
      ],
      "stateMutability": "view",
      "type": "function"
    },
    {
      "inputs": [
        {
          "internalType": "address",
          "name": "_moderator",
          "type": "address"
        }
      ],
      "name": "nominateModerator",
      "outputs": [],
      "stateMutability": "nonpayable",
      "type": "function"
    },
    {
      "inputs": [
        {
          "internalType": "address",
          "name": "",
          "type": "address"
        }
      ],
      "name": "nominatedModerators",
      "outputs": [
        {
          "internalType": "address",
          "name": "moderator",
          "type": "address"
        },
        {
          "internalType": "address",
          "name": "nominator",
          "type": "address"
        },
        {
          "internalType": "uint256",
          "name": "votes",
          "type": "uint256"
        },
        {
          "internalType": "uint256",
          "name": "nominatedAt",
          "type": "uint256"
        }
      ],
      "stateMutability": "view",
      "type": "function"
    },
    {
      "inputs": [],
      "name": "owner",
      "outputs": [
        {
          "internalType": "address",
          "name": "",
          "type": "address"
        }
      ],
      "stateMutability": "view",
      "type": "function"
    },
    {
      "inputs": [
        {
          "internalType": "uint256",
          "name": "amount",
          "type": "uint256"
        }
      ],
      "name": "purchaseGovTokens",
      "outputs": [],
      "stateMutability": "payable",
      "type": "function"
    },
    {
      "inputs": [
        {
          "internalType": "string",
          "name": "insuranceName",
          "type": "string"
        }
      ],
      "name": "removeInsurancePool",
      "outputs": [],
      "stateMutability": "nonpayable",
      "type": "function"
    },
    {
      "inputs": [],
      "name": "renounceOwnership",
      "outputs": [],
      "stateMutability": "nonpayable",
      "type": "function"
    },
    {
      "inputs": [],
      "name": "resetModerators",
      "outputs": [],
      "stateMutability": "nonpayable",
      "type": "function"
    },
    {
      "inputs": [
        {
          "internalType": "uint256",
          "name": "newPrice",
          "type": "uint256"
        },
        {
          "internalType": "uint256",
          "name": "newBurnAmount",
          "type": "uint256"
        },
        {
          "internalType": "uint256",
          "name": "mintAmount",
          "type": "uint256"
        }
      ],
      "name": "setGovernanceTokenParameters",
      "outputs": [],
      "stateMutability": "nonpayable",
      "type": "function"
    },
    {
      "inputs": [
        {
          "internalType": "uint256",
          "name": "newNominationReward",
          "type": "uint256"
        },
        {
          "internalType": "uint256",
          "name": "newVotingReward",
          "type": "uint256"
        }
      ],
      "name": "setModeratorRewardAmounts",
      "outputs": [],
      "stateMutability": "nonpayable",
      "type": "function"
    },
    {
      "inputs": [
        {
          "internalType": "uint256",
          "name": "_nominationThreshold",
          "type": "uint256"
        },
        {
          "internalType": "uint256",
          "name": "_votingThreshold",
          "type": "uint256"
        }
      ],
      "name": "setModeratorThresholds",
      "outputs": [],
      "stateMutability": "nonpayable",
      "type": "function"
    },
    {
      "inputs": [
        {
          "internalType": "uint256",
          "name": "newAmount",
          "type": "uint256"
        }
      ],
      "name": "setMonthlyGovMintAmount",
      "outputs": [],
      "stateMutability": "nonpayable",
      "type": "function"
    },
    {
      "inputs": [
        {
          "internalType": "address",
          "name": "_nftPool",
          "type": "address"
        }
      ],
      "name": "setNFTPool",
      "outputs": [],
      "stateMutability": "nonpayable",
      "type": "function"
    },
    {
      "inputs": [
        {
          "internalType": "address",
          "name": "_timelockController",
          "type": "address"
        }
      ],
      "name": "setTimelockController",
      "outputs": [],
      "stateMutability": "nonpayable",
      "type": "function"
    },
    {
      "inputs": [],
      "name": "timelockController",
      "outputs": [
        {
          "internalType": "address",
          "name": "",
          "type": "address"
        }
      ],
      "stateMutability": "view",
      "type": "function"
    },
    {
      "inputs": [
        {
          "internalType": "bool",
          "name": "enabled",
          "type": "bool"
        }
      ],
      "name": "toggleModeratorRewards",
      "outputs": [],
      "stateMutability": "nonpayable",
      "type": "function"
    },
    {
      "inputs": [
        {
          "internalType": "address",
          "name": "newOwner",
          "type": "address"
        }
      ],
      "name": "transferOwnership",
      "outputs": [],
      "stateMutability": "nonpayable",
      "type": "function"
    },
    {
      "inputs": [
        {
          "internalType": "address",
          "name": "_moderator",
          "type": "address"
        }
      ],
      "name": "voteForModerator",
      "outputs": [],
      "stateMutability": "nonpayable",
      "type": "function"
    }
  ],
  "bytecode": "0x608080604052346101ab57604081616082803803809161001f82856101b0565b8339810103126101ab5761003e6020610037836101e9565b92016101e9565b903315610195576100f860406000543360018060a01b0319821617600055815190339060018060a01b03167f8be0079c531659141344cd1fd0a4f28419497f9722a3daafe3b4186f6b6457e0600080a3662386f26fc10000600455678ac7230489e8000060055568056bc75e2d63100000600955670de0b6b3a7640000600a55600160ff19600f541617600f5566b1a2bc2ec5000060105566470de4df82000060115567dbda37a42d4890cb6020820152602081526101b0565b610116604080516752c70aa6d70f96656020820152602081526101b0565b60018060a01b031660018060a01b0319600254161760025561014c60408051672a4b4b7651b6eb666020820152602081526101b0565b60018060a01b031660018060a01b03196003541617600355610182604080516710b02f3fb74f27d26020820152602081526101b0565b42600b55604051615e8490816101fe8239f35b631e4fbdf760e01b600052600060045260246000fd5b600080fd5b601f909101601f19168101906001600160401b038211908210176101d357604052565b634e487b7160e01b600052604160045260246000fd5b51906001600160a01b03821682036101ab5756fe608080604052600436101561001357600080fd5b600090813560e01c9081630828862d146154c1575080631051a3461461545e5780631aba5fa41461542857806321f320f614614dcf57806323ed3bd814614ab9578063241c1df914614a9b57806324b4d12214614a0d57806326fd16d1146149a15780632a94ac3f146148245780633646d52e146147ca578063404c403e146147ac57806342762d8e1461474357806343205a521461455557806344bb2f961461452a57806345a47fe31461450c57806352886f64146144945780635b9fe28e1461447157806369cc20c11461407c5780636eb83a161461405e578063715018a614614004578063744b8d4714613a1957806381b0ae92146137b457806381b3e3f5146135a85780638da5cb5b146135815780638dd3cbd11461334257806391917070146132fe57806397240e4d14612fb657806397370aff14612ee85780639cf40dd514612ea95780639d4c3e6914612e8b5780639d7a10e6146127e8578063a573be17146127bf578063a6da6d3b146121fb578063b04869ae146121d2578063b131d315146121b4578063c27e067a1461196b578063d547f3431461182e578063d5895f8914611629578063d8345fe01461141e578063e4de9f76146113c4578063e54d9a4a14610d72578063f2fde38b14610cec578063f3388e7514610cc3578063f752a61a14610aa9578063fbc1d8691461023b5763fd58503b1461021b57600080fd5b346102385780600319360112610238576020601054604051908152f35b80fd5b5034610238576040366003190112610238576004356001600160401b038111610aa55761026c9036906004016156d6565b906102756156a5565b91610294604080516710589c7c618c33e360208201526020815261556c565b6102b26040805167837f29f2864dda8960208201526020815261556c565b6102d060408051676189292c124d2e2d60208201526020815261556c565b6102ee6040805167f37b0507f288d43660208201526020815261556c565b61030c60408051678876368cc00f5fa760208201526020815261556c565b81546001600160a01b0316331480610a97575b8015610a6f575b61032f90615b21565b61034d60408051677914983e6605cf5a60208201526020815261556c565b61036b60408051678e48f756380653a160208201526020815261556c565b6103896040805167bce08a64e82baacc60208201526020815261556c565b6103a760408051679417e96ecf95757d60208201526020815261556c565b6103c560408051679d615ffb1237a03c60208201526020815261556c565b6103e36040805167771893a398b5515160208201526020815261556c565b6104016040805167d00cde4703bff1ed60208201526020815261556c565b604051928151936020830194610418818388615647565b60069082019081528190036020019020546001600160a01b0316610a2a57610454604080516769e5274912ec0d3360208201526020815261556c565b6104726040805167e1a3efaaf687e8c460208201526020815261556c565b6104906040805167668820b10786476c60208201526020815261556c565b6104ae60408051672e36c1eeeb25578a60208201526020815261556c565b6007546001600160a01b03169384156109cb576104df6040805167b3743387c9256fff60208201526020815261556c565b6104fd60408051670986c40b308e32a260208201526020815261556c565b61051b6040805167d2c06f337f42f02f60208201526020815261556c565b6105396040805167a6c1f6fd9cee280360208201526020815261556c565b604051638da5cb5b60e01b81526001600160a01b03831695906020816004818a5afa9081156109c0578691610982575b50306001600160a01b039091160361093d576105996040805167d460ae8ecf38c5ea60208201526020815261556c565b6105b760408051676d42b11a0d880d4e60208201526020815261556c565b6105d560408051676b1fda3d6c7c67e160208201526020815261556c565b803b1561093957848091602460405180948193632eb97b0160e21b83528b60048401525af1801561092e57908591610915575b5050602061063d9161062c60408051672a2f442c9a62c5a78582015284815261556c565b604051809381928751928391615647565b60069082019081520301902080546001600160a01b0319166001600160a01b0386161790556040805167a95b167c8f4a2b736020808301919091528152610684919061556c565b6106a26040805167eb2430bf2aec425a60208201526020815261556c565b600854600160401b811015610901578060016106c192016008556154e6565b9490946108ed578251946001600160401b0386116108d9576106e38154615532565b601f811161089e575b50602095601f811160011461083a57808697879596979161082f575b508160011b916000199060031b1c19161790555b61073a60408051670ce1beb8a58eaffe60208201526020815261556c565b6107586040805167b4d5c9c71d1f118360208201526020815261556c565b6002546001600160a01b031690813b15610820578291602483926040519485938492634c1d96ab60e11b845260048401525af180156108245761080b575b50507f623af352474d44fabc0293cb2ede90259b04bc0a3f15730243cece612fec152e916107d860408051676c6df08355ac5c2d60208201526020815261556c565b6107f66040805167bb2d5d66c193eb0860208201526020815261556c565b61080560405192839283615d21565b0390a180f35b816108159161556c565b610820578238610796565b8280fd5b6040513d84823e3d90fd5b905086015138610708565b818652868620601f198216875b81811061088657509087988360019493999798991061086d575b5050811b01905561071c565b88015160001960f88460031b161c191690553880610861565b878a015183556020998a019960019093019201610847565b6108c99082875260208720601f890160051c81019160208a106108cf575b601f0160051c0190615d7b565b386106ec565b90915081906108bc565b634e487b7160e01b85526041600452602485fd5b634e487b7160e01b84526004849052602484fd5b634e487b7160e01b84526041600452602484fd5b8161091f9161556c565b61092a578338610608565b8380fd5b6040513d87823e3d90fd5b8480fd5b60405162461bcd60e51b815260206004820152601b60248201527f44414f206d757374206f776e20696e737572616e636520706f6f6c00000000006044820152606490fd5b90506020813d6020116109b8575b8161099d6020938361556c565b810103126109b4576109ae906157bb565b38610569565b8580fd5b3d9150610990565b6040513d88823e3d90fd5b60405162461bcd60e51b815260206004820152603160248201527f4e465420706f6f6c206d75737420626520736574206265666f726520616464696044820152701b99c81a5b9cdd5c985b98d9481c1bdbdb607a1b6064820152608490fd5b60405162461bcd60e51b815260206004820152601d60248201527f496e737572616e636520706f6f6c20616c7265616479206578697374730000006044820152606490fd5b506001546001600160a01b031633148015610326575061032f610a90615e04565b9050610326565b50610aa0615dde565b61031f565b5080fd5b5034610238577fe357af7b52a887dc59a7502bd9428f0550f293d0b8068e310879ff768cd34be36040610adb3661578e565b610af8838051671768b3580f30e0da60208201526020815261556c565b610b1583805167837f29f2864dda8960208201526020815261556c565b610b32838051676189292c124d2e2d60208201526020815261556c565b610b4f83805167f37b0507f288d43660208201526020815261556c565b610b6c838051678876368cc00f5fa760208201526020815261556c565b84546001600160a01b0316331480610cb5575b8015610c8d575b610b8f90615b21565b610bac838051677914983e6605cf5a60208201526020815261556c565b610bc9838051678e48f756380653a160208201526020815261556c565b610be6838051678ff2fa19a078074d60208201526020815261556c565b610c038380516718b675e325efc3ce60208201526020815261556c565b610c2083805167cc2c933db433e38d60208201526020815261556c565b81601055610c41838051674f7173811d1d957360208201526020815261556c565b80601155610c6283805167edb586e10deb5b8a60208201526020815261556c565b610c7f838051676d97fac46121f0ec60208201526020815261556c565b82519182526020820152a180f35b506001546001600160a01b031633148015610b865750610b8f610cae615e04565b9050610b86565b50610cbe615dde565b610b7f565b50346102385780600319360112610238576001546040516001600160a01b039091168152602090f35b503461023857602036600319011261023857610d0661568f565b610d0e615e25565b6001600160a01b03168015610d5e5781546001600160a01b03198116821783556001600160a01b03167f8be0079c531659141344cd1fd0a4f28419497f9722a3daafe3b4186f6b6457e08380a380f35b631e4fbdf760e01b82526004829052602482fd5b503461023857602036600319011261023857610d8c61568f565b610daa6040805167b5ff1d6ae44d3e0360208201526020815261556c565b610dc8604080516788887409dc81edac60208201526020815261556c565b610de6604080516726d8861e876f5fad60208201526020815261556c565b610e046040805167188942a6f910251a60208201526020815261556c565b6001600160a01b0316801561137f57610e3160408051670dbd226248a188c360208201526020815261556c565b610e4f60408051672147cd6cca4b378360208201526020815261556c565b610e6d604080516752ff5e4dd3d4b70560208201526020815261556c565b610e8b6040805167153a050accced1fa60208201526020815261556c565b808252600c60205260408220546001600160a01b031661134657610ec36040805167f8b8a80160babf7560208201526020815261556c565b610ee16040805167ea891651edd56cbc60208201526020815261556c565b610eff6040805167abeb313c7af0d58060208201526020815261556c565b610f1d60408051674d1f56f35ff292b960208201526020815261556c565b6003546040516370a0823160e01b815233600482015290602090829060249082906001600160a01b03165afa801561133b578390611302575b610f6591506009541115615d92565b610f8360408051670e0c975821cae5fe60208201526020815261556c565b610fa160408051670dc3976d0d1e7bd360208201526020815261556c565b604051608081018181106001600160401b038211176109015760409081528282523360208084019182528383018681524260608601908152868852600c8352848820955186546001600160a01b03199081166001600160a01b039283161788559451600188018054909616911617909355516002850155905160039390930192909255805167af2b9e06518d4fb58184015291825261103f9161556c565b61105d60408051678dcae9f765136d3260208201526020815261556c565b600d54600160401b8110156112ee5780600161107c9201600d55615517565b81549060031b9083821b9160018060a01b03901b19161790556110b36040805167491f70fe8cc5265060208201526020815261556c565b6110d1604080516799b4c6bab0fa019b60208201526020815261556c565b60ff600f5416806112d7575b156112b457611100604080516723735968f844574960208201526020815261556c565b61111e604080516764df43f9a28f2a3360208201526020815261556c565b338252601260205260408220600160ff1982541617905561115360408051676bb124d7147e3c8d60208201526020815261556c565b611171604080516776bd7ddeeea2e4b060208201526020815261556c565b60025460105483916001600160a01b0316803b15610820576040516340c10f1960e01b8152336004820152602481019290925290919081908390604490829084905af1918261129f575b505061122e575b6111e06040805167841dcc8c28399db860208201526020815261556c565b6111fe6040805167354560bf158ed47f60208201526020815261556c565b604051904282527f6fcc8f439fbc77296e90ce156deca453be06aa82933f5d593ce9d433e93af44a60203393a380f35b61124c60408051675bb5be6d4e35d6eb60208201526020815261556c565b61126a6040805167bd2cc8b7341c7e6360208201526020815261556c565b806010546040519081527f45c5f96896c0eaf5ea7b15ee3abb58918f669ad4f182c039875201988e45bef660203392a36111c2565b816112a99161556c565b6108205782386111bb565b6112d2604080516729508d631cd5ca4260208201526020815261556c565b6111c2565b50338252601260205260ff604083205416156110dd565b634e487b7160e01b83526041600452602483fd5b506020813d602011611333575b8161131c6020938361556c565b8101031261132e57610f659051610f56565b600080fd5b3d915061130f565b6040513d85823e3d90fd5b60405162461bcd60e51b8152602060048201526011602482015270105b1c9958591e481b9bdb5a5b985d1959607a1b6044820152606490fd5b60405162461bcd60e51b815260206004820152601c60248201527f43616e6e6f74206e6f6d696e617465207a65726f2061646472657373000000006044820152606490fd5b50346102385760403660031901126102385760406113e061568f565b916113e96156a5565b9260018060a01b031681526013602052209060018060a01b0316600052602052602060ff604060002054166040519015158152f35b50346102385760203660031901126102385761144e60408051672a746ad4e3e30fdb60208201526020815261556c565b61146c6040805167837f29f2864dda8960208201526020815261556c565b61148a60408051676189292c124d2e2d60208201526020815261556c565b6114a86040805167f37b0507f288d43660208201526020815261556c565b6114c660408051678876368cc00f5fa760208201526020815261556c565b80546001600160a01b031633148061161b575b80156115f3575b6114e990615b21565b61150760408051677914983e6605cf5a60208201526020815261556c565b61152560408051678e48f756380653a160208201526020815261556c565b6115436040805167439fac3b5372dc4860208201526020815261556c565b61156160408051671f3c054127da04d660208201526020815261556c565b61157f6040805167fbccfe7d4ecca1a860208201526020815261556c565b61159d60408051675e6a4a6645d7ef1a60208201526020815261556c565b60035481906001600160a01b0316803b156115f0578180916024604051809481936364f6ad1160e01b835260043560048401525af18015610824576115df5750f35b816115e99161556c565b6102385780f35b50fd5b506001546001600160a01b0316331480156114e057506114e9611614615e04565b90506114e0565b50611624615dde565b6114d9565b503461023857602036600319011261023857600435801515809103610aa55760207fb302b84abe7fd6f7a33d00f9fb641baaaba6b5deb4c102220485f9f87536dc829161168860408051671f013d67e02c2b4c8582015284815261556c565b6116a46040805167837f29f2864dda898582015284815261556c565b6116c060408051676189292c124d2e2d8582015284815261556c565b6116dc6040805167f37b0507f288d4368582015284815261556c565b6116f860408051678876368cc00f5fa78582015284815261556c565b83546001600160a01b0316331480611820575b80156117f8575b61171b90615b21565b61173760408051677914983e6605cf5a8582015284815261556c565b61175360408051678e48f756380653a18582015284815261556c565b61176f6040805167c116e3e8fff18d7f8582015284815261556c565b61178b6040805167d0a3d8b58aac05da8582015284815261556c565b6117a76040805167586013c1ddea56288582015284815261556c565b60ff19600f541660ff821617600f556117d260408051675e8b34aa0bdb6dd98582015284815261556c565b6117ee604080516709820ff2b91709928582015284815261556c565b604051908152a180f35b506001546001600160a01b031633148015611712575061171b611819615e04565b9050611712565b50611829615dde565b61170b565b503461023857806003193601126102385761185d6040805167dd421d67a8f18be760208201526020815261556c565b61187b604080516764b8c9e984e2141d60208201526020815261556c565b611899604080516769e5a1c4c7a8751e60208201526020815261556c565b6008546118a5816157a4565b6118b2604051918261556c565b818152600883526020810191837ff3f7a9fe364faab93b216da50a3214154f22a0a2b415b23a84c8169e8b636ee3845b83831061194e57868587604051928392602084019060208552518091526040840160408260051b8601019392905b82821061191f57505050500390f35b9193600191939550602061193e8192603f198a8203018652885161566a565b9601920192018594939192611910565b60016020819261195d856155a3565b8152019201920191906118e2565b50602036600319011261023857600435611999604080516718025d5afb6ea08a60208201526020815261556c565b6119b760408051675b473ed552b7110460208201526020815261556c565b6119d56040805167adc8bdb6745e88f260208201526020815261556c565b670de0b6b3a76400006119ea60045483615bb4565b04611a096040805167dc845d3ead9d52b860208201526020815261556c565b611a276040805167550f682b4fbcfaaa60208201526020815261556c565b611a456040805167670073c681aaaf5060208201526020815261556c565b80341061217557611a6a6040805167536b64da8b949f2060208201526020815261556c565b611a886040805167746eecc65b5ab08a60208201526020815261556c565b611aa66040805167f8e1d5ccc30c956c60208201526020815261556c565b611ac46040805167ddc4f2bcd729fca060208201526020815261556c565b6003546040516370a0823160e01b815230600482015290602090829060249082906001600160a01b03165afa80156120555783918591612140575b50106120ef57611b2360408051674a8f33908e95194160208201526020815261556c565b611b416040805167257eb8f6964d9f8f60208201526020815261556c565b611b5f6040805167c96729d0887a78ef60208201526020815261556c565b670de0b6b3a7640000611b7460055484615bb4565b04611b936040805167bcc0e16b60fe8e7760208201526020815261556c565b611bb16040805167311843d8200cba3260208201526020815261556c565b611bcf6040805167ae5831a4b0e3c79c60208201526020815261556c565b6002546040516370a0823160e01b81523360048201526001600160a01b039091169190602081602481865afa80156109c057829187916120ba575b5010612075578491611c3060408051670d6287017d0aa94160208201526020815261556c565b611c4e604080516729ff3200d6f4461660208201526020815261556c565b611c6c60408051674bafd4e41fef64cb60208201526020815261556c565b803b156108205760405163079cc67960e41b8152336004820152602481019290925282908290604490829084905af1801561082457612060575b5050611cc660408051676efde73dc982db7b60208201526020815261556c565b611ce46040805167d580794fe701bdce60208201526020815261556c565b611d026040805167613ae1f6e03edd8160208201526020815261556c565b60035460405163a9059cbb60e01b815233600482015260248101849052906020908290604490829088906001600160a01b03165af190811561205557849161201a575b5015611fd957611d696040805167dc3c84a21bca297260208201526020815261556c565b611d8760408051677b9c201654aa8f5e60208201526020815261556c565b611da56040805167c3db1a4198b4ab5c60208201526020815261556c565b80340390348211611fc557908391611dd16040805167a496f450c69a06cb60208201526020815261556c565b611def6040805167c1e8f16b3f4e209460208201526020815261556c565b3414611fa05781808092611e176040805167fea233c9d293b0ef60208201526020815261556c565b611e35604080516787f0d444be8c36af60208201526020815261556c565b611e536040805167462f9c2f16deb24d60208201526020815261556c565b335af13d15611f9b573d611e66816156bb565b90611e74604051928361556c565b81528360203d92013e5b611e9c60408051672a43638a430a17b660208201526020815261556c565b611eba604080516707ed3726252aeda460208201526020815261556c565b611ed8604080516772eb6f2b3b264cbb60208201526020815261556c565b15611f6657611efb6040805167688103bd24e17c5d60208201526020815261556c565b611f196040805167b3579695f26b23a860208201526020815261556c565b611f376040805167be15c3322136ce0960208201526020815261556c565b6040519081527f9df0abf6618a8dc2dc8ec10915f33087cca4c3916086a2f698d5264320d05f2a60203392a280f35b60405162461bcd60e51b815260206004820152600d60248201526c1499599d5b990819985a5b1959609a1b6044820152606490fd5b611e7e565b5050611fc06040805167e0f4020ebbb7513160208201526020815261556c565b611efb565b634e487b7160e01b84526011600452602484fd5b60405162461bcd60e51b815260206004820152601960248201527811dbdd881d1bdad95b881d1c985b9cd9995c8819985a5b1959603a1b6044820152606490fd5b90506020813d60201161204d575b816120356020938361556c565b8101031261092a5751801515810361092a5738611d45565b3d9150612028565b6040513d86823e3d90fd5b8161206a9161556c565b610820578238611ca6565b60405162461bcd60e51b815260206004820152601b60248201527f496e73756666696369656e74206368617269747920746f6b656e7300000000006044820152606490fd5b9150506020813d6020116120e7575b816120d66020938361556c565b8101031261132e5781905138611c0a565b3d91506120c9565b60405162461bcd60e51b8152602060048201526024808201527f4e6f7420656e6f75676820676f7665726e616e636520746f6b656e7320696e206044820152631c1bdbdb60e21b6064820152608490fd5b9150506020813d60201161216d575b8161215c6020938361556c565b8101031261132e5782905138611aff565b3d915061214f565b60405162461bcd60e51b8152602060048201526017602482015276125b9cdd59999a58da595b9d08115d1a195c881cd95b9d604a1b6044820152606490fd5b50346102385780600319360112610238576020600454604051908152f35b50346102385780600319360112610238576002546040516001600160a01b039091168152602090f35b50346102385760203660031901126102385761221561568f565b6122336040805167e2478f39b7c0044260208201526020815261556c565b6122516040805167dd78144a34d1248d60208201526020815261556c565b61226f604080516758c79eaf19717b8f60208201526020815261556c565b61228d60408051671e81efdec76250e860208201526020815261556c565b6001600160a01b03908116808352600c60205260408320549091161561278a576122cb6040805167d5dcb76f4ad924a260208201526020815261556c565b6122e960408051678c7cf70ebb38260060208201526020815261556c565b6123076040805167d2964fc81d5aca7760208201526020815261556c565b61232560408051675df54dba30dc807260208201526020815261556c565b338252600e602052604082208160005260205260ff604060002054166127555761236360408051670160375d5ca6eadb60208201526020815261556c565b6123816040805167ddd92eddd9bb90c860208201526020815261556c565b61239f6040805167bdd04649b1abfd6960208201526020815261556c565b6123bd6040805167a08a179a2f8334af60208201526020815261556c565b6003546040516370a0823160e01b815233600482015290602090829060249082906001600160a01b03165afa801561133b578390612721575b6124059150600a541115615d92565b612423604080516721820d0e59efa05660208201526020815261556c565b6124416040805167c0764de07a7e565160208201526020815261556c565b338252600e60205260408220816000526020526040600020600160ff198254161790556124826040805167d2b9a21c3f2d647160208201526020815261556c565b808252600c6020526002604083200180549060018201809211611fc557556124be604080516746c78a15a172450460208201526020815261556c565b6124dc6040805167ff997c233efa339860208201526020815261556c565b60ff600f5416806126fe575b156126db5761250b6040805167838ae145d0f68c2e60208201526020815261556c565b612529604080516756178c5d064a5b7960208201526020815261556c565b338252601360205260408220816000526020526040600020600160ff1982541617905561256a60408051678992fb3c235aa90360208201526020815261556c565b6125886040805167b7790512c2a94f2e60208201526020815261556c565b60025460115483916001600160a01b0316803b15610820576040516340c10f1960e01b8152336004820152602481019290925290919081908390604490829084905af191826126c6575b5050612655575b6125f76040805167e6dfe307df75ce3d60208201526020815261556c565b61261560408051674a38afba6bde3fbf60208201526020815261556c565b808252600c6020526002604083200154906040519182527fb7490e853f4984db29eb13bc17a247807c3a8dc41bac32d373e5401d943a566760203393a380f35b6126736040805167d896ea58fbc9d79f60208201526020815261556c565b612691604080516772742579ea09a18e60208201526020815261556c565b806011546040519081527fc4e92a2b75f63e59e309432c3c63d1aa41f82a48f4cb4d5275d8abf37d584af460203392a36125d9565b816126d09161556c565b6108205782386125d2565b6126f960408051674500a9d5d0ed7e6e60208201526020815261556c565b6125d9565b503382526013602052604082208160005260205260ff60406000205416156124e8565b506020813d60201161274d575b8161273b6020938361556c565b8101031261132e5761240590516123f6565b3d915061272e565b60405162461bcd60e51b815260206004820152600d60248201526c105b1c9958591e481d9bdd1959609a1b6044820152606490fd5b60405162461bcd60e51b815260206004820152600d60248201526c139bdd081b9bdb5a5b985d1959609a1b6044820152606490fd5b50346102385780600319360112610238576003546040516001600160a01b039091168152602090f35b50346102385760203660031901126102385760043561281b6040805167c931bf13a183e5a460208201526020815261556c565b61283960408051678c4c2f596de8a5b760208201526020815261556c565b612857604080516738f91b848e815f2d60208201526020815261556c565b600d54908181118015612e63575b80612e3a575b15612e34575080915b612892604080516720b94d75ea50025360208201526020815261556c565b6128b06040805167b7279739c643bbbb60208201526020815261556c565b6128b982615d49565b916128d86040805167a003930f8d7277bb60208201526020815261556c565b6128f66040805167120e54f43221b3a360208201526020815261556c565b6128ff81615d49565b9061291e60408051678a11f128ce51bac860208201526020815261556c565b61293c6040805167a70955bfe7db9eda60208201526020815261556c565b825b818110612d70575050612965604080516733e3104c6be5adfd60208201526020815261556c565b61298360408051676e018ebe1e61c34960208201526020815261556c565b815b8351831015612bf8576129ac60408051670e8f28f973eb99b260208201526020815261556c565b6129ca6040805167783d31eaec7394aa60208201526020815261556c565b60018301808411612be4575b8451811015612bd857600190612a0060408051679f260617d8ee62ba60208201526020815261556c565b612a1e6040805167cda2aadb98da808960208201526020815261556c565b612a2885856157cf565b51612a3382866157cf565b511115612bb557612a586040805167af3caa4cd59b748560208201526020815261556c565b612a766040805167a4e101254633ef0660208201526020815261556c565b612a946040805167773e555eb40c7f3b60208201526020815261556c565b612a9e85856157cf565b51612abd604080516788e43c8fc0bba41060208201526020815261556c565b612ac782866157cf565b51612ad287876157cf565b52612af1604080516762b566d85c1c235b60208201526020815261556c565b612afb82866157cf565b52612b1a60408051675f8466bfc13e6bd960208201526020815261556c565b612b386040805167bf10d7043fa8ed2960208201526020815261556c565b818060a01b03612b4886886157cf565b5116612b68604080516791983a1b633944e060208201526020815261556c565b828060a01b03612b7883896157cf565b5116612b8487896157cf565b52612ba36040805167b83baadcb4a8089660208201526020815261556c565b612bad82886157cf565b525b016129d6565b612bd36040805167b495deaaffceb76e60208201526020815261556c565b612baf565b50600190920191612985565b634e487b7160e01b82526011600452602482fd5b939150612c196040805167d7b777a55af6f6c060208201526020815261556c565b612c2282615d49565b92612c416040805167be815861d99fcfe460208201526020815261556c565b612c4a83615d49565b94612c696040805167675ce9c99976322960208201526020815261556c565b612c87604080516715afc1aadc9d718660208201526020815261556c565b838110612cf857612ce685612cf488612cb460408051675507b6c707abddf260208201526020815261556c565b612cd260408051674979c4374549c17060208201526020815261556c565b60405193849360408552604085019061571d565b90838203602085015261575a565b0390f35b600190612d196040805167747027783b35a49760208201526020815261556c565b818060a01b03612d2982856157cf565b5116612d3582886157cf565b52612d5460408051678f97980b79fffad260208201526020815261556c565b612d5e81856157cf565b51612d6982896157cf565b5201612c87565b600190612d9460408098969851674d7c0511d40e5da160208201526020815261556c565b612db26040805167bce047afa3982fc160208201526020815261556c565b612dbb81615517565b838060a01b0391549060031b1c16612de7604080516770bd6e5dc7874f5460208201526020815261556c565b80612df283896157cf565b52612e1160408051670ff4bdca74dc163060208201526020815261556c565b8752600c6020526002604088200154612e2a82866157cf565b520194929461293e565b91612874565b50612e5c60408051672b1885878618e8c160c21b60208201526020815261556c565b600161286b565b50612e8560408051676d5d303b8902811d60c11b60208201526020815261556c565b82612865565b50346102385780600319360112610238576020600a54604051908152f35b50346102385760203660031901126102385760209060ff906040906001600160a01b03612ed461568f565b168152601284522054166040519015158152f35b503461023857602036600319011261023857600435906001600160401b038211610238576040612f1b36600485016156d6565b612f388280516791c66476ae3fec8660208201526020815261556c565b612f558280516727a0c201a2d4476460208201526020815261556c565b6020612f6983519283815193849201615647565b8101906006825260208160018060a01b0393030190205416612f9e82805167bd4e357b692614d160208201526020815261556c565b60075482519182526001600160a01b03166020820152f35b5034610238578060031936011261023857612fe56040805167d28de81c879311e260208201526020815261556c565b6130036040805167837f29f2864dda8960208201526020815261556c565b61302160408051676189292c124d2e2d60208201526020815261556c565b61303f6040805167f37b0507f288d43660208201526020815261556c565b61305d60408051678876368cc00f5fa760208201526020815261556c565b80546001600160a01b03163314806132f0575b80156132c8575b61308090615b21565b61309e60408051677914983e6605cf5a60208201526020815261556c565b6130bc60408051678e48f756380653a160208201526020815261556c565b6130da60408051676747d688c56a87e960208201526020815261556c565b6130f86040805167e18c6a48d5a9f4e560208201526020815261556c565b6131166040805167f90850221685ddbc60208201526020815261556c565b61313460408051679e24e6ca99e324fb60208201526020815261556c565b805b600d548110156131d8576001906131616040805167841a23bcdcbab2b160208201526020815261556c565b61317f6040805167141f3032643d15e760208201526020815261556c565b61318881615517565b838060a01b0391549060031b1c166131b46040805167cb40068dc3876cf560208201526020815261556c565b8352600c602052826003604082208281558285820155826002820155015501613136565b506131f760408051679618952e98b40b7d60208201526020815261556c565b600d5481600d5580613290575b506132236040805167abf48db8f9b29fe860208201526020815261556c565b42600b5561324560408051679397f1fbfe8be02e60208201526020815261556c565b61326360408051679e642d22670a857760208201526020815261556c565b7f07765f2eb0a181c9a08ca3f12c6522bf16f1c619a54c0d7fa0a6b19fe0cee9716020604051428152a180f35b600d82526132c2907fd7b6990105719101dabeb77144f2a3385c8033acd3af97e9423a695e81ad1eb590810190615d7b565b38613204565b506001546001600160a01b03163314801561307757506130806132e9615e04565b9050613077565b506132f9615dde565b613070565b50346102385760203660031901126102385760043590600d5482101561023857602061332983615517565b905460405160039290921b1c6001600160a01b03168152f35b5034610238576060366003190112610238576133726040805167ee6aa2c4b049678d60208201526020815261556c565b6133906040805167837f29f2864dda8960208201526020815261556c565b6133ae60408051676189292c124d2e2d60208201526020815261556c565b6133cc6040805167f37b0507f288d43660208201526020815261556c565b6133ea60408051678876368cc00f5fa760208201526020815261556c565b80546001600160a01b0316331480613573575b801561354b575b61340d90615b21565b61342b60408051677914983e6605cf5a60208201526020815261556c565b61344960408051678e48f756380653a160208201526020815261556c565b6134676040805167cfd3213e85589dab60208201526020815261556c565b6134856040805167efc63ddddd5ee44a60208201526020815261556c565b6134a3604080516774c79c2761f3015160208201526020815261556c565b6004356004556134c76040805167cf80784987ee3a2460208201526020815261556c565b6024356005556134eb6040805167c0e118be446320b260208201526020815261556c565b6135096040805167ef75fd3c6c76f88d60208201526020815261556c565b60035481906001600160a01b0316803b156115f0578180916024604051809481936364f6ad1160e01b835260443560048401525af18015610824576115df5750f35b506001546001600160a01b031633148015613404575061340d61356c615e04565b9050613404565b5061357c615dde565b6133fd565b5034610238578060031936011261023857546040516001600160a01b039091168152602090f35b5034610238577f6f22e0acd517461ba72f26dab03227b3f3eebc8f0f4564943503b8ece9bb256f60406135da3661578e565b6135f783805167b69921bcc0a8175660208201526020815261556c565b61361483805167837f29f2864dda8960208201526020815261556c565b613631838051676189292c124d2e2d60208201526020815261556c565b61364e83805167f37b0507f288d43660208201526020815261556c565b61366b838051678876368cc00f5fa760208201526020815261556c565b84546001600160a01b03163314806137a6575b801561377e575b61368e90615b21565b6136ab838051677914983e6605cf5a60208201526020815261556c565b6136c8838051678e48f756380653a160208201526020815261556c565b6136e5838051670d371163af0bd87e60208201526020815261556c565b613702838051670be0399bfa1d216e60208201526020815261556c565b61371f83805167f03046601159f10660208201526020815261556c565b8160095561374083805167885caba6def56be660208201526020815261556c565b80600a5561376183805167de413c10938b609660208201526020815261556c565b610c7f8380516701a774b3e6f125a660208201526020815261556c565b506001546001600160a01b031633148015613685575061368e61379f615e04565b9050613685565b506137af615dde565b61367e565b50346102385780600319360112610238576137e360408051675b8cc5c8bb322b0a60208201526020815261556c565b61380160408051673cec3b9b8cc3447260208201526020815261556c565b600d549061380e82615d49565b9061382d6040805167e81c5a4ad856d05d60208201526020815261556c565b61383683615d49565b9261385560408051673f30ff7941398c9360208201526020815261556c565b61385e81615d49565b9161387d604080516790fa6a764607dddf60208201526020815261556c565b61389b60408051672540275923c3953560208201526020815261556c565b805b82811061391c5761390085612cf48661390e8a6138ce60408051672e9a682b3e28121460208201526020815261556c565b6138ec6040805167c17e1340f3d3b6bf60208201526020815261556c565b60405195869560608752606087019061571d565b90858203602087015261575a565b90838203604085015261571d565b60019061393d60408051673c41de87a904c0d860208201526020815261556c565b61395b6040805167501e95a40e79a42a60208201526020815261556c565b61396481615517565b838060a01b0391549060031b1c1661399060408051675362c19327c86dff60208201526020815261556c565b8061399b83896157cf565b526139ba60408051670e1e377d576fd65660208201526020815261556c565b808452600c60205260026040852001546139d4838a6157cf565b526139f360408051678309551ba73091a160208201526020815261556c565b8352600c602052818060a01b038260408520015416613a1282876157cf565b520161389d565b5034610238576040366003190112610238576004356001600160401b038111610aa557613a4a9036906004016156d6565b906024356001600160401b038111610aa55736602382011215610aa5578060040135906001600160401b038211610820578160051b366024828401011161092a57613aa960408051670c9a095d52a2440d60208201526020815261556c565b613ac76040805167837f29f2864dda8960208201526020815261556c565b613ae560408051676189292c124d2e2d60208201526020815261556c565b613b036040805167f37b0507f288d43660208201526020815261556c565b613b2160408051678876368cc00f5fa760208201526020815261556c565b83546001600160a01b0316331480613ff6575b8015613fce575b613b4490615b21565b613b6260408051677914983e6605cf5a60208201526020815261556c565b613b8060408051678e48f756380653a160208201526020815261556c565b613b9e60408051672240b48928c5dfa060208201526020815261556c565b613bbc604080516782bd78cb217abb7f60208201526020815261556c565b613bda604080516796fb6d1cdbe3a5ec60208201526020815261556c565b613bf86040805167f38735aaba69b9e160208201526020815261556c565b60018060a01b036007541694613c22604080516752095c23e66b49ac60208201526020815261556c565b613c4060408051670bdb60bab910f86b60208201526020815261556c565b613c5e6040805167a1d1d9e6797ac14f60208201526020815261556c565b8515613f9457613c8260408051675c1f4432c9a806c360208201526020815261556c565b613ca0604080516747fcbff50ccf256260208201526020815261556c565b613cbe6040805167af56c129215df3bf60208201526020815261556c565b6020613cd36040519283815193849201615647565b8101906006825260208160018060a01b039303019020541690613d0a6040805167fdc20df981230e4d60208201526020815261556c565b613d286040805167f6c8aac0218ec43160208201526020815261556c565b613d4660408051671929dda6f043dc9f60208201526020815261556c565b613d51821515615b6d565b613d6f60408051672471fddd543485ba60208201526020815261556c565b613d8d6040805167fa5c1fab4bb19ef060208201526020815261556c565b613dab60408051674b3988c821325a6d60208201526020815261556c565b613db484615d49565b91613dd3604080516714c14ac48944653860208201526020815261556c565b613df160408051679bfc591b0c10ee5d60208201526020815261556c565b855b858110613f61575050613e1a6040805167f66a68effd33d51f60208201526020815261556c565b613e386040805167248f41823ef2221160208201526020815261556c565b613e566040805167f804e9b44f8d5b4260208201526020815261556c565b613e746040805167c0ef5a6cf8c620c860208201526020815261556c565b853b156109395760409392935193631a5c1b7960e11b8552836044860160406004880152526064808601928601019360248201928792604219813603015b838510613eeb57505086860360031901602488015287808881818d818381613eda8f8f61571d565b03925af18015610824576115df5750f35b909192939496606319898203018452873582811215613f5d5783016044602482013591016001600160401b038211613f59578136038113613f5957602083838e8184969585966001995285850137828201840152601f01601f19160101990196919091019493019190613eb2565b8b80fd5b8a80fd5b600190613f826040805167a7dbf6d4694581df60208201526020815261556c565b82613f8d82876157cf565b5201613df3565b60405162461bcd60e51b8152602060048201526012602482015271139195081c1bdbdb081b9bdd08199bdd5b9960721b6044820152606490fd5b506001546001600160a01b031633148015613b3b5750613b44613fef615e04565b9050613b3b565b50613fff615dde565b613b34565b503461023857806003193601126102385761401d615e25565b80546001600160a01b03198116825581906001600160a01b03167f8be0079c531659141344cd1fd0a4f28419497f9722a3daafe3b4186f6b6457e08280a380f35b50346102385780600319360112610238576020601154604051908152f35b5034610238576020366003190112610238576004356001600160401b038111610aa5576140ad9036906004016156d6565b6140cb6040805167479a73a0a8dbafe860208201526020815261556c565b6140e96040805167837f29f2864dda8960208201526020815261556c565b61410760408051676189292c124d2e2d60208201526020815261556c565b6141256040805167f37b0507f288d43660208201526020815261556c565b61414360408051678876368cc00f5fa760208201526020815261556c565b81546001600160a01b0316331480614463575b801561443b575b61416690615b21565b61418460408051677914983e6605cf5a60208201526020815261556c565b6141a260408051678e48f756380653a160208201526020815261556c565b6141c06040805167d7b784fdf48d181360208201526020815261556c565b6141de6040805167a7ff21b702033e2760208201526020815261556c565b6141fc604080516726860b0e4243fa3660208201526020815261556c565b61421a60408051679d88b45e45d6a81760208201526020815261556c565b604051908051916020820192614231818386615647565b8101906006825260208160018060a01b0393030190205416906142686040805167f6628a647f6e988e60208201526020815261556c565b61428660408051673d45083aa87ece6160208201526020815261556c565b6142a46040805167dddacda95ad1483760208201526020815261556c565b8115614400576142c860408051679e559877d93b5f1460208201526020815261556c565b6142e66040805167af6da37bb21c35eb60208201526020815261556c565b61430460408051674a2c8afb0b5c9b1260208201526020815261556c565b60025484906001600160a01b0316803b15610aa557818091602460405180948193633092afd560e01b83528960048401525af18015610824576143eb575b505061439860207fac01a30ac82ac5b47233b53a3e0d52ebe10441d12e832e65899f4bdd2bd1d9ae946143876040805167e66aeff4869ca82b8582015284815261556c565b604051809381928651928391615647565b81016006815203019020805460018060a01b03191690556143cd6040805167ba3771500d2fc3c160208201526020815261556c565b6107f660408051675aaf0ad1b4e82d7a60208201526020815261556c565b816143f59161556c565b61092a578338614342565b60405162461bcd60e51b8152602060048201526013602482015272141bdbdb08191bd95cc81b9bdd08195e1a5cdd606a1b6044820152606490fd5b506001546001600160a01b03163314801561415d575061416661445c615e04565b905061415d565b5061446c615dde565b614156565b5034610238578060031936011261023857602060ff600f54166040519015158152f35b50346102385780600319360112610238576144c3604080516745216f4a467bf9a760208201526020815261556c565b6144e16040805167d8bb08a7882d40df60208201526020815261556c565b6144ff6040805167bdba2b4cf1b6cf1160208201526020815261556c565b6020600d54604051908152f35b50346102385780600319360112610238576020600554604051908152f35b5034610238576020366003190112610238576040614549600435615bc7565b82519182526020820152f35b50346102385780600319360112610238576145846040805167f46073f45344c47a60208201526020815261556c565b6145a26040805167837f29f2864dda8960208201526020815261556c565b6145c060408051676189292c124d2e2d60208201526020815261556c565b6145de6040805167f37b0507f288d43660208201526020815261556c565b6145fc60408051678876368cc00f5fa760208201526020815261556c565b80546001600160a01b0316331480614735575b801561470d575b61461f90615b21565b61463d60408051677914983e6605cf5a60208201526020815261556c565b61465b60408051678e48f756380653a160208201526020815261556c565b614679604080516752d3532f8b9cca8160208201526020815261556c565b6146976040805167b4e90537938cfac760208201526020815261556c565b6146b5604080516729a420e62b0b8f8b60208201526020815261556c565b6146d36040805167a6bc667b47d5547f60208201526020815261556c565b60035481906001600160a01b0316803b156115f057818091600460405180948193638e8846a160e01b83525af18015610824576115df5750f35b506001546001600160a01b031633148015614616575061461f61472e615e04565b9050614616565b5061473e615dde565b61460f565b503461023857602036600319011261023857600435906001600160401b03821161023857602061477636600485016156d6565b8161478a6040519283815193849201615647565b600690820190815281900382019020546040516001600160a01b039091168152f35b50346102385780600319360112610238576020600b54604051908152f35b50346102385760403660031901126102385760406147e661568f565b916147ef6156a5565b9260018060a01b03168152600e602052209060018060a01b0316600052602052602060ff604060002054166040519015158152f35b50346102385760203660031901126102385761483e61568f565b61485c6040805167b3a7079c23870af560208201526020815261556c565b614864615e25565b61488260408051679d55c9f5a880494660208201526020815261556c565b6148a060408051678e75ab5576a993f260208201526020815261556c565b6148be6040805167e1049d645226863660208201526020815261556c565b6148dc60408051673c12f54d15811b7b60208201526020815261556c565b6148fa60408051677577e9267fcfbdc160208201526020815261556c565b6001600160a01b0316801561495c5761492760408051676adc69c44f0dd34060208201526020815261556c565b614945604080516734d6015365f19f3d60208201526020815261556c565b600180546001600160a01b03191691909117905580f35b60405162461bcd60e51b815260206004820152601f60248201527f54696d656c6f636b20616464726573732063616e6e6f74206265207a65726f006044820152606490fd5b5034610238576020366003190112610238576080906040906001600160a01b036149c961568f565b168152600c6020522060018060a01b038154169060018060a01b03600182015416906003600282015491015491604051938452602084015260408301526060820152f35b5034610238578060031936011261023857614a3c6040805167c52f5db98492de6460208201526020815261556c565b614a5a604080516797b47774568476e460208201526020815261556c565b614a786040805167c754d7d291e353d060208201526020815261556c565b606060ff600f541660105460115490604051921515835260208301526040820152f35b50346102385780600319360112610238576020600954604051908152f35b503461023857606036600319011261023857806004356001600160401b0381116115f057614aeb9036906004016156d6565b6024356001600160a01b0381169190829003614d9557614b1f6040805167ab206175b5dcd76f60208201526020815261556c565b614b3d6040805167837f29f2864dda8960208201526020815261556c565b614b5b60408051676189292c124d2e2d60208201526020815261556c565b614b796040805167f37b0507f288d43660208201526020815261556c565b614b9760408051678876368cc00f5fa760208201526020815261556c565b82546001600160a01b0316331480614dc1575b8015614d99575b614bba90615b21565b614bd860408051677914983e6605cf5a60208201526020815261556c565b614bf660408051678e48f756380653a160208201526020815261556c565b614c1460408051671088fe3d04f39ddb60208201526020815261556c565b614c326040805167124aeca408faa0cf60208201526020815261556c565b614c506040805167e18a6f5e62c4f50d60208201526020815261556c565b614c6e6040805167399f5ec310da24fc60208201526020815261556c565b6020614c836040519283815193849201615647565b8101906006825260208160018060a01b039303019020541690614cba60408051672b0f987dc373799560208201526020815261556c565b614cd860408051673ff31ce728a2c45760208201526020815261556c565b614cf66040805167a7cbde323ad792fb60208201526020815261556c565b614d01821515615b6d565b614d1f604080516763153da5ed3795c660208201526020815261556c565b614d3d604080516758e553b8c493236160208201526020815261556c565b614d5b604080516760b020d2afd24b8360208201526020815261556c565b813b15614d955782916044839260405194859384926305b1137b60e01b84526004840152833560248401525af18015610824576115df5750f35b5050fd5b506001546001600160a01b031633148015614bb15750614bba614dba615e04565b9050614bb1565b50614dca615dde565b614baa565b503461023857602036600319011261023857614de961568f565b614e076040805167478915df534df62c60208201526020815261556c565b614e256040805167837f29f2864dda8960208201526020815261556c565b614e4360408051676189292c124d2e2d60208201526020815261556c565b614e616040805167f37b0507f288d43660208201526020815261556c565b614e7f60408051678876368cc00f5fa760208201526020815261556c565b81546001600160a01b031633148061541a575b80156153f2575b614ea290615b21565b614ec060408051677914983e6605cf5a60208201526020815261556c565b614ede60408051678e48f756380653a160208201526020815261556c565b614efc6040805167e8c58cdc02ad17df60208201526020815261556c565b614f1a60408051674970d65f51e0831460208201526020815261556c565b614f386040805167c493cf9234d7ce3260208201526020815261556c565b614f5660408051674e6ff8c8dc76c3c760208201526020815261556c565b614f746040805167defb08928a3ea74f60208201526020815261556c565b6001600160a01b03169081156153ad57614fa26040805167b4efd0dbaad9241760208201526020815261556c565b614fc06040805167afe87645e517c13460208201526020815261556c565b614fde6040805167a3b2baee514c1f1460208201526020815261556c565b614ffc6040805167cd0cf5200e30ba7660208201526020815261556c565b604051638da5cb5b60e01b8152602081600481865afa908115610824578291615373575b50306001600160a01b0390911603615336576150506040805167b1224ae5f53e7d8360208201526020815261556c565b61506e6040805167ecfb0f73c4750d1a60208201526020815261556c565b61508c6040805167951295744f7cbc8e60208201526020815261556c565b6150aa6040805167685a37f97e4a9aec60208201526020815261556c565b6150c86040805167bc553651db76e29d60208201526020815261556c565b6007546001600160a01b03168015615311576150f860408051673e9000ec165d18e460208201526020815261556c565b6151166040805167162121ade568d87d60208201526020815261556c565b61513460408051671034575b2f02025060208201526020815261556c565b6002546001600160a01b031690813b15610820578291602483926040519485938492633092afd560e01b845260048401525af1801561082457615301575b509061519260408051678abbf90276d1a75660208201526020815261556c565b6151b06040805167fee536ecd672b8d060208201526020815261556c565b7f3db3ddc3aa9620da53761479d4e80a562901f53d3c8c1254597727a11ac874a0602060018060a01b0360075416604051908152a15b615204604080516719c9a6ac7e05743560208201526020815261556c565b8060018060a01b03196007541617600755615233604080516791d74d926659de5260208201526020815261556c565b6152516040805167a510f55ba82bf00860208201526020815261556c565b60025482906001600160a01b0316803b15610aa557818091602460405180948193634c1d96ab60e11b83528860048401525af18015610824576152ec575b507f462df8cbbf95fef6721ba53cb2a7589b9ffa9a04e59f8e93e9f72a71648f7cf26020836152d060408051679a36dbc89026fc7c8582015284815261556c565b6117ee60408051677bcb5e15a173c3258582015284815261556c565b816152f69161556c565b610aa557813861528f565b8161530b9161556c565b38615172565b50906153316040805167e88ce9740db3aac260208201526020815261556c565b6151e6565b60405162461bcd60e51b8152602060048201526015602482015274111053c81b5d5cdd081bdddb88139195081c1bdbdb605a1b6044820152606490fd5b90506020813d6020116153a5575b8161538e6020938361556c565b81010312610aa55761539f906157bb565b38615020565b3d9150615381565b60405162461bcd60e51b815260206004820152601f60248201527f4e465420706f6f6c20616464726573732063616e6e6f74206265207a65726f006044820152606490fd5b506001546001600160a01b031633148015614e995750614ea2615413615e04565b9050614e99565b50615423615dde565b614e92565b503461023857604036600319011261023857604061545061544761568f565b602435906157e3565b825191151582526020820152f35b503461023857602036600319011261023857600435600854811015610aa557615486906154e6565b9190916154ad57612cf4615499836155a3565b60405191829160208352602083019061566a565b634e487b7160e01b81526004819052602490fd5b905034610aa55781600319360112610aa5576007546001600160a01b03168152602090f35b60085481101561550157600860005260206000200190600090565b634e487b7160e01b600052603260045260246000fd5b600d5481101561550157600d60005260206000200190600090565b90600182811c92168015615562575b602083101461554c57565b634e487b7160e01b600052602260045260246000fd5b91607f1691615541565b90601f801991011681019081106001600160401b0382111761558d57604052565b634e487b7160e01b600052604160045260246000fd5b90604051918260008254926155b784615532565b808452936001811690811561562557506001146155de575b506155dc9250038361556c565b565b90506000929192526020600020906000915b8183106156095750509060206155dc92820101386155cf565b60209193508060019154838589010152019101909184926155f0565b9050602092506155dc94915060ff191682840152151560051b820101386155cf565b60005b83811061565a5750506000910152565b818101518382015260200161564a565b9060209161568381518092818552858086019101615647565b601f01601f1916010190565b600435906001600160a01b038216820361132e57565b602435906001600160a01b038216820361132e57565b6001600160401b03811161558d57601f01601f191660200190565b81601f8201121561132e578035906156ed826156bb565b926156fb604051948561556c565b8284526020838301011161132e57816000926020809301838601378301015290565b906020808351928381520192019060005b81811061573b5750505090565b82516001600160a01b031684526020938401939092019160010161572e565b906020808351928381520192019060005b8181106157785750505090565b825184526020938401939092019160010161576b565b604090600319011261132e576004359060243590565b6001600160401b03811161558d5760051b60200190565b51906001600160a01b038216820361132e57565b80518210156155015760209160051b010190565b91909161580460408051678018cb2b5a70d32360208201526020815261556c565b61582260408051671fb3c953a519582360208201526020815261556c565b61584060408051678e573463d420ab6660208201526020815261556c565b60405192634ebd087360e11b84526004840152600083602481305afa928315615b1557600093615a0c575b509161588b604080516748268d4a8a06e16a60208201526020815261556c565b6158a96040805167ec00f30e74d9589960208201526020815261556c565b6000925b81518410156159c4576158d46040805167e770c3a0ec65dfd760208201526020815261556c565b6158f260408051671bf721252a63487260208201526020815261556c565b6001600160a01b0361590485846157cf565b516001600160a01b03831691160361599957505061593660408051670fa5bfe0fee6c75f60208201526020815261556c565b6159546040805167196c10e7451416e260208201526020815261556c565b61597260408051674c32fbcbf2483a9d60208201526020815261556c565b600182018092116159835760019190565b634e487b7160e01b600052601160045260246000fd5b90926001906159bc6040805167982c0bc3ebd3062860208201526020815261556c565b0192906158ad565b505090506159e66040805167118edfe6eb07e73060208201526020815261556c565b615a046040805167d20c38de529f0c3f60208201526020815261556c565b600090600090565b90923d8082843e615a1d818461556c565b8201906040838303126102385782516001600160401b038111610aa55783019282601f85011215610aa557835193615a54856157a4565b94615a62604051968761556c565b80865260208087019160051b8301019185831161093957602001905b828210615afd575050506020810151906001600160401b038211610820570182601f82011215610aa557805191602080615ab7856157a4565b615ac4604051918261556c565b858152019360051b8301019384116102385750602001905b828210615aed57505050913861586b565b8151815260209182019101615adc565b60208091615b0a846157bb565b815201910190615a7e565b6040513d6000823e3d90fd5b15615b2857565b60405162461bcd60e51b815260206004820152601c60248201527f556e617574686f72697a65643a206e6f7420676f7665726e616e6365000000006044820152606490fd5b15615b7457565b60405162461bcd60e51b8152602060048201526018602482015277125b9cdd5c985b98d9481c1bdbdb081b9bdd08199bdd5b9960421b6044820152606490fd5b8181029291811591840414171561598357565b615be560408051672fd53fb92c06d8a560208201526020815261556c565b615c036040805167618d1e10a42389a760208201526020815261556c565b615c2160408051673042fe9e57663cbd60208201526020815261556c565b80615c635750615c4560408051674bf8b8ff41f736ca60208201526020815261556c565b615a0460408051670c861f11e589c16c60208201526020815261556c565b670de0b6b3a764000090615c8b60408051674c607dad3cb0179960208201526020815261556c565b615ca9604080516749ff83a63f18e08760208201526020815261556c565b615cc760408051679dcc9039d697b4e660208201526020815261556c565b0490615ce76040805167cc6fe1fe81d9c95560208201526020815261556c565b615d0560408051678179872ced014f2660208201526020815261556c565b615d1e615d1460045484615bb4565b9260055490615bb4565b90565b90615d3960209194939460408452604084019061566a565b6001600160a01b03909416910152565b90615d53826157a4565b615d60604051918261556c565b8281528092615d71601f19916157a4565b0190602036910137565b818110615d86575050565b60008155600101615d7b565b15615d9957565b60405162461bcd60e51b815260206004820152601e60248201527f496e73756666696369656e7420676f7665726e616e636520746f6b656e7300006044820152606490fd5b615dff6040805167256f18db1e15b3df60c11b60208201526020815261556c565b600190565b615dff60408051670ca986ecbcab6bbb60c31b60208201526020815261556c565b6000546001600160a01b03163303615e3957565b63118cdaa760e01b6000523360045260246000fdfea26469706673582212204cafae8a65d894162ba304dc482560713795f79bf890539e7148a10c312ca49564736f6c634300081c0033",
  "linkReferences": {},
  "deployedLinkReferences": {}
}