{
  "_format": "hh-sol-artifact-1",
  "contractName": "GraviGov",
  "sourceName": "contracts/tokens/GraviGov.sol",
  "abi": [
    {
      "inputs": [],
      "stateMutability": "nonpayable",
      "type": "constructor"
    },
    {
      "inputs": [],
      "name": "CheckpointUnorderedInsertion",
      "type": "error"
    },
    {
      "inputs": [],
      "name": "ECDSAInvalidSignature",
      "type": "error"
    },
    {
      "inputs": [
        {
          "internalType": "uint256",
          "name": "length",
          "type": "uint256"
        }
      ],
      "name": "ECDSAInvalidSignatureLength",
      "type": "error"
    },
    {
      "inputs": [
        {
          "internalType": "bytes32",
          "name": "s",
          "type": "bytes32"
        }
      ],
      "name": "ECDSAInvalidSignatureS",
      "type": "error"
    },
    {
      "inputs": [
        {
          "internalType": "uint256",
          "name": "increasedSupply",
          "type": "uint256"
        },
        {
          "internalType": "uint256",
          "name": "cap",
          "type": "uint256"
        }
      ],
      "name": "ERC20ExceededSafeSupply",
      "type": "error"
    },
    {
      "inputs": [
        {
          "internalType": "address",
          "name": "spender",
          "type": "address"
        },
        {
          "internalType": "uint256",
          "name": "allowance",
          "type": "uint256"
        },
        {
          "internalType": "uint256",
          "name": "needed",
          "type": "uint256"
        }
      ],
      "name": "ERC20InsufficientAllowance",
      "type": "error"
    },
    {
      "inputs": [
        {
          "internalType": "address",
          "name": "sender",
          "type": "address"
        },
        {
          "internalType": "uint256",
          "name": "balance",
          "type": "uint256"
        },
        {
          "internalType": "uint256",
          "name": "needed",
          "type": "uint256"
        }
      ],
      "name": "ERC20InsufficientBalance",
      "type": "error"
    },
    {
      "inputs": [
        {
          "internalType": "address",
          "name": "approver",
          "type": "address"
        }
      ],
      "name": "ERC20InvalidApprover",
      "type": "error"
    },
    {
      "inputs": [
        {
          "internalType": "address",
          "name": "receiver",
          "type": "address"
        }
      ],
      "name": "ERC20InvalidReceiver",
      "type": "error"
    },
    {
      "inputs": [
        {
          "internalType": "address",
          "name": "sender",
          "type": "address"
        }
      ],
      "name": "ERC20InvalidSender",
      "type": "error"
    },
    {
      "inputs": [
        {
          "internalType": "address",
          "name": "spender",
          "type": "address"
        }
      ],
      "name": "ERC20InvalidSpender",
      "type": "error"
    },
    {
      "inputs": [
        {
          "internalType": "uint256",
          "name": "deadline",
          "type": "uint256"
        }
      ],
      "name": "ERC2612ExpiredSignature",
      "type": "error"
    },
    {
      "inputs": [
        {
          "internalType": "address",
          "name": "signer",
          "type": "address"
        },
        {
          "internalType": "address",
          "name": "owner",
          "type": "address"
        }
      ],
      "name": "ERC2612InvalidSigner",
      "type": "error"
    },
    {
      "inputs": [
        {
          "internalType": "uint256",
          "name": "timepoint",
          "type": "uint256"
        },
        {
          "internalType": "uint48",
          "name": "clock",
          "type": "uint48"
        }
      ],
      "name": "ERC5805FutureLookup",
      "type": "error"
    },
    {
      "inputs": [],
      "name": "ERC6372InconsistentClock",
      "type": "error"
    },
    {
      "inputs": [
        {
          "internalType": "address",
          "name": "account",
          "type": "address"
        },
        {
          "internalType": "uint256",
          "name": "currentNonce",
          "type": "uint256"
        }
      ],
      "name": "InvalidAccountNonce",
      "type": "error"
    },
    {
      "inputs": [],
      "name": "InvalidShortString",
      "type": "error"
    },
    {
      "inputs": [
        {
          "internalType": "address",
          "name": "owner",
          "type": "address"
        }
      ],
      "name": "OwnableInvalidOwner",
      "type": "error"
    },
    {
      "inputs": [
        {
          "internalType": "address",
          "name": "account",
          "type": "address"
        }
      ],
      "name": "OwnableUnauthorizedAccount",
      "type": "error"
    },
    {
      "inputs": [
        {
          "internalType": "uint8",
          "name": "bits",
          "type": "uint8"
        },
        {
          "internalType": "uint256",
          "name": "value",
          "type": "uint256"
        }
      ],
      "name": "SafeCastOverflowedUintDowncast",
      "type": "error"
    },
    {
      "inputs": [
        {
          "internalType": "string",
          "name": "str",
          "type": "string"
        }
      ],
      "name": "StringTooLong",
      "type": "error"
    },
    {
      "inputs": [
        {
          "internalType": "uint256",
          "name": "expiry",
          "type": "uint256"
        }
      ],
      "name": "VotesExpiredSignature",
      "type": "error"
    },
    {
      "anonymous": false,
      "inputs": [
        {
          "indexed": true,
          "internalType": "address",
          "name": "owner",
          "type": "address"
        },
        {
          "indexed": true,
          "internalType": "address",
          "name": "spender",
          "type": "address"
        },
        {
          "indexed": false,
          "internalType": "uint256",
          "name": "value",
          "type": "uint256"
        }
      ],
      "name": "Approval",
      "type": "event"
    },
    {
      "anonymous": false,
      "inputs": [
        {
          "indexed": true,
          "internalType": "address",
          "name": "delegator",
          "type": "address"
        },
        {
          "indexed": true,
          "internalType": "address",
          "name": "fromDelegate",
          "type": "address"
        },
        {
          "indexed": true,
          "internalType": "address",
          "name": "toDelegate",
          "type": "address"
        }
      ],
      "name": "DelegateChanged",
      "type": "event"
    },
    {
      "anonymous": false,
      "inputs": [
        {
          "indexed": true,
          "internalType": "address",
          "name": "delegate",
          "type": "address"
        },
        {
          "indexed": false,
          "internalType": "uint256",
          "name": "previousVotes",
          "type": "uint256"
        },
        {
          "indexed": false,
          "internalType": "uint256",
          "name": "newVotes",
          "type": "uint256"
        }
      ],
      "name": "DelegateVotesChanged",
      "type": "event"
    },
    {
      "anonymous": false,
      "inputs": [],
      "name": "EIP712DomainChanged",
      "type": "event"
    },
    {
      "anonymous": false,
      "inputs": [
        {
          "indexed": true,
          "internalType": "address",
          "name": "previousOwner",
          "type": "address"
        },
        {
          "indexed": true,
          "internalType": "address",
          "name": "newOwner",
          "type": "address"
        }
      ],
      "name": "OwnershipTransferred",
      "type": "event"
    },
    {
      "anonymous": false,
      "inputs": [
        {
          "indexed": true,
          "internalType": "address",
          "name": "from",
          "type": "address"
        },
        {
          "indexed": true,
          "internalType": "address",
          "name": "to",
          "type": "address"
        },
        {
          "indexed": false,
          "internalType": "uint256",
          "name": "value",
          "type": "uint256"
        }
      ],
      "name": "Transfer",
      "type": "event"
    },
    {
      "inputs": [],
      "name": "CLOCK_MODE",
      "outputs": [
        {
          "internalType": "string",
          "name": "",
          "type": "string"
        }
      ],
      "stateMutability": "view",
      "type": "function"
    },
    {
      "inputs": [],
      "name": "DOMAIN_SEPARATOR",
      "outputs": [
        {
          "internalType": "bytes32",
          "name": "",
          "type": "bytes32"
        }
      ],
      "stateMutability": "view",
      "type": "function"
    },
    {
      "inputs": [
        {
          "internalType": "address",
          "name": "owner",
          "type": "address"
        },
        {
          "internalType": "address",
          "name": "spender",
          "type": "address"
        }
      ],
      "name": "allowance",
      "outputs": [
        {
          "internalType": "uint256",
          "name": "",
          "type": "uint256"
        }
      ],
      "stateMutability": "view",
      "type": "function"
    },
    {
      "inputs": [
        {
          "internalType": "address",
          "name": "spender",
          "type": "address"
        },
        {
          "internalType": "uint256",
          "name": "value",
          "type": "uint256"
        }
      ],
      "name": "approve",
      "outputs": [
        {
          "internalType": "bool",
          "name": "",
          "type": "bool"
        }
      ],
      "stateMutability": "nonpayable",
      "type": "function"
    },
    {
      "inputs": [
        {
          "internalType": "address",
          "name": "account",
          "type": "address"
        }
      ],
      "name": "balanceOf",
      "outputs": [
        {
          "internalType": "uint256",
          "name": "",
          "type": "uint256"
        }
      ],
      "stateMutability": "view",
      "type": "function"
    },
    {
      "inputs": [
        {
          "internalType": "address",
          "name": "account",
          "type": "address"
        },
        {
          "internalType": "uint32",
          "name": "pos",
          "type": "uint32"
        }
      ],
      "name": "checkpoints",
      "outputs": [
        {
          "components": [
            {
              "internalType": "uint48",
              "name": "_key",
              "type": "uint48"
            },
            {
              "internalType": "uint208",
              "name": "_value",
              "type": "uint208"
            }
          ],
          "internalType": "struct Checkpoints.Checkpoint208",
          "name": "",
          "type": "tuple"
        }
      ],
      "stateMutability": "view",
      "type": "function"
    },
    {
      "inputs": [],
      "name": "clock",
      "outputs": [
        {
          "internalType": "uint48",
          "name": "",
          "type": "uint48"
        }
      ],
      "stateMutability": "view",
      "type": "function"
    },
    {
      "inputs": [],
      "name": "decimals",
      "outputs": [
        {
          "internalType": "uint8",
          "name": "",
          "type": "uint8"
        }
      ],
      "stateMutability": "view",
      "type": "function"
    },
    {
      "inputs": [
        {
          "internalType": "address",
          "name": "delegatee",
          "type": "address"
        }
      ],
      "name": "delegate",
      "outputs": [],
      "stateMutability": "nonpayable",
      "type": "function"
    },
    {
      "inputs": [
        {
          "internalType": "address",
          "name": "delegatee",
          "type": "address"
        },
        {
          "internalType": "uint256",
          "name": "nonce",
          "type": "uint256"
        },
        {
          "internalType": "uint256",
          "name": "expiry",
          "type": "uint256"
        },
        {
          "internalType": "uint8",
          "name": "v",
          "type": "uint8"
        },
        {
          "internalType": "bytes32",
          "name": "r",
          "type": "bytes32"
        },
        {
          "internalType": "bytes32",
          "name": "s",
          "type": "bytes32"
        }
      ],
      "name": "delegateBySig",
      "outputs": [],
      "stateMutability": "nonpayable",
      "type": "function"
    },
    {
      "inputs": [
        {
          "internalType": "address",
          "name": "account",
          "type": "address"
        }
      ],
      "name": "delegates",
      "outputs": [
        {
          "internalType": "address",
          "name": "",
          "type": "address"
        }
      ],
      "stateMutability": "view",
      "type": "function"
    },
    {
      "inputs": [],
      "name": "eip712Domain",
      "outputs": [
        {
          "internalType": "bytes1",
          "name": "fields",
          "type": "bytes1"
        },
        {
          "internalType": "string",
          "name": "name",
          "type": "string"
        },
        {
          "internalType": "string",
          "name": "version",
          "type": "string"
        },
        {
          "internalType": "uint256",
          "name": "chainId",
          "type": "uint256"
        },
        {
          "internalType": "address",
          "name": "verifyingContract",
          "type": "address"
        },
        {
          "internalType": "bytes32",
          "name": "salt",
          "type": "bytes32"
        },
        {
          "internalType": "uint256[]",
          "name": "extensions",
          "type": "uint256[]"
        }
      ],
      "stateMutability": "view",
      "type": "function"
    },
    {
      "inputs": [
        {
          "internalType": "uint256",
          "name": "timepoint",
          "type": "uint256"
        }
      ],
      "name": "getPastTotalSupply",
      "outputs": [
        {
          "internalType": "uint256",
          "name": "",
          "type": "uint256"
        }
      ],
      "stateMutability": "view",
      "type": "function"
    },
    {
      "inputs": [
        {
          "internalType": "address",
          "name": "account",
          "type": "address"
        },
        {
          "internalType": "uint256",
          "name": "timepoint",
          "type": "uint256"
        }
      ],
      "name": "getPastVotes",
      "outputs": [
        {
          "internalType": "uint256",
          "name": "",
          "type": "uint256"
        }
      ],
      "stateMutability": "view",
      "type": "function"
    },
    {
      "inputs": [
        {
          "internalType": "address",
          "name": "account",
          "type": "address"
        }
      ],
      "name": "getVotes",
      "outputs": [
        {
          "internalType": "uint256",
          "name": "",
          "type": "uint256"
        }
      ],
      "stateMutability": "view",
      "type": "function"
    },
    {
      "inputs": [],
      "name": "lastMintTimestamp",
      "outputs": [
        {
          "internalType": "uint256",
          "name": "",
          "type": "uint256"
        }
      ],
      "stateMutability": "view",
      "type": "function"
    },
    {
      "inputs": [
        {
          "internalType": "address",
          "name": "to",
          "type": "address"
        },
        {
          "internalType": "uint256",
          "name": "amount",
          "type": "uint256"
        }
      ],
      "name": "mint",
      "outputs": [],
      "stateMutability": "nonpayable",
      "type": "function"
    },
    {
      "inputs": [],
      "name": "mintMonthly",
      "outputs": [],
      "stateMutability": "nonpayable",
      "type": "function"
    },
    {
      "inputs": [],
      "name": "monthlyMintAmount",
      "outputs": [
        {
          "internalType": "uint256",
          "name": "",
          "type": "uint256"
        }
      ],
      "stateMutability": "view",
      "type": "function"
    },
    {
      "inputs": [],
      "name": "name",
      "outputs": [
        {
          "internalType": "string",
          "name": "",
          "type": "string"
        }
      ],
      "stateMutability": "view",
      "type": "function"
    },
    {
      "inputs": [
        {
          "internalType": "address",
          "name": "owner",
          "type": "address"
        }
      ],
      "name": "nonces",
      "outputs": [
        {
          "internalType": "uint256",
          "name": "",
          "type": "uint256"
        }
      ],
      "stateMutability": "view",
      "type": "function"
    },
    {
      "inputs": [
        {
          "internalType": "address",
          "name": "account",
          "type": "address"
        }
      ],
      "name": "numCheckpoints",
      "outputs": [
        {
          "internalType": "uint32",
          "name": "",
          "type": "uint32"
        }
      ],
      "stateMutability": "view",
      "type": "function"
    },
    {
      "inputs": [],
      "name": "owner",
      "outputs": [
        {
          "internalType": "address",
          "name": "",
          "type": "address"
        }
      ],
      "stateMutability": "view",
      "type": "function"
    },
    {
      "inputs": [
        {
          "internalType": "address",
          "name": "owner",
          "type": "address"
        },
        {
          "internalType": "address",
          "name": "spender",
          "type": "address"
        },
        {
          "internalType": "uint256",
          "name": "value",
          "type": "uint256"
        },
        {
          "internalType": "uint256",
          "name": "deadline",
          "type": "uint256"
        },
        {
          "internalType": "uint8",
          "name": "v",
          "type": "uint8"
        },
        {
          "internalType": "bytes32",
          "name": "r",
          "type": "bytes32"
        },
        {
          "internalType": "bytes32",
          "name": "s",
          "type": "bytes32"
        }
      ],
      "name": "permit",
      "outputs": [],
      "stateMutability": "nonpayable",
      "type": "function"
    },
    {
      "inputs": [],
      "name": "renounceOwnership",
      "outputs": [],
      "stateMutability": "nonpayable",
      "type": "function"
    },
    {
      "inputs": [
        {
          "internalType": "uint256",
          "name": "_monthlyMintAmount",
          "type": "uint256"
        }
      ],
      "name": "setMonthlyMintAmount",
      "outputs": [],
      "stateMutability": "nonpayable",
      "type": "function"
    },
    {
      "inputs": [],
      "name": "symbol",
      "outputs": [
        {
          "internalType": "string",
          "name": "",
          "type": "string"
        }
      ],
      "stateMutability": "view",
      "type": "function"
    },
    {
      "inputs": [],
      "name": "totalSupply",
      "outputs": [
        {
          "internalType": "uint256",
          "name": "",
          "type": "uint256"
        }
      ],
      "stateMutability": "view",
      "type": "function"
    },
    {
      "inputs": [
        {
          "internalType": "address",
          "name": "to",
          "type": "address"
        },
        {
          "internalType": "uint256",
          "name": "value",
          "type": "uint256"
        }
      ],
      "name": "transfer",
      "outputs": [
        {
          "internalType": "bool",
          "name": "",
          "type": "bool"
        }
      ],
      "stateMutability": "nonpayable",
      "type": "function"
    },
    {
      "inputs": [
        {
          "internalType": "address",
          "name": "from",
          "type": "address"
        },
        {
          "internalType": "address",
          "name": "to",
          "type": "address"
        },
        {
          "internalType": "uint256",
          "name": "value",
          "type": "uint256"
        }
      ],
      "name": "transferFrom",
      "outputs": [
        {
          "internalType": "bool",
          "name": "",
          "type": "bool"
        }
      ],
      "stateMutability": "nonpayable",
      "type": "function"
    },
    {
      "inputs": [
        {
          "internalType": "address",
          "name": "newOwner",
          "type": "address"
        }
      ],
      "name": "transferOwnership",
      "outputs": [],
      "stateMutability": "nonpayable",
      "type": "function"
    }
  ],
  "bytecode": "0x610160604052346104ed576040516100186040826104f2565b60088152602081016723b930bb34a3b7bb60c11b81526040519061003d6040836104f2565b600882526723b930bb34a3b7bb60c11b6020830152604051926100616040856104f2565b600484526323a3a7ab60e11b6020850152604051936100816040866104f2565b60018552603160f81b60208601908152845190946001600160401b0382116103ea5760035490600182811c921680156104e3575b60208310146103ca5781601f849311610473575b50602090601f831160011461040b57600092610400575b50508160011b916000199060031b1c1916176003555b8051906001600160401b0382116103ea5760045490600182811c921680156103e0575b60208310146103ca5781601f84931161035a575b50602090601f83116001146102f2576000926102e7575b50508160011b916000199060031b1c1916176004555b61016381610515565b61012052610170846106c3565b61014052519020918260e05251902080610100524660a0526040519060208201927f8b73c3c69bb8fe3d512ecc4cf759cc79239f7b179b0ffacaa9a75d522b39400f8452604083015260608201524660808201523060a082015260a081526101d960c0826104f2565b5190206080523060c05233156102d157600b8054336001600160a01b0319821681179092556040805161025e9391929091906001600160a01b03167f8be0079c531659141344cd1fd0a4f28419497f9722a3daafe3b4186f6b6457e0600080a369021e19e0c9bab2400000600c556765b7d410b86fdfe16020820152602081526104f2565b61027c6040805167e64e10647ca172336020820152602081526104f2565b42600d5560405161214990816108628239608051816114c3015260a05181611580015260c0518161148d015260e0518161151201526101005181611538015261012051816109ae015261014051816109d70152f35b631e4fbdf760e01b600052600060045260246000fd5b015190503880610144565b600460009081528281209350601f198516905b8181106103425750908460019594939210610329575b505050811b0160045561015a565b015160001960f88460031b161c1916905538808061031b565b92936020600181928786015181550195019301610305565b60046000529091507f8a35acfbc15ff81a39ae7d344fd709f28e8600b4aa8c65c6b64bfe7fe36bd19b601f840160051c810191602085106103c0575b90601f859493920160051c01905b8181106103b1575061012d565b600081558493506001016103a4565b9091508190610396565b634e487b7160e01b600052602260045260246000fd5b91607f1691610119565b634e487b7160e01b600052604160045260246000fd5b0151905038806100e0565b600360009081528281209350601f198516905b81811061045b5750908460019594939210610442575b505050811b016003556100f6565b015160001960f88460031b161c19169055388080610434565b9293602060018192878601518155019501930161041e565b60036000529091507fc2575a0e9e593c00f959f8c92f12db2869c3395a3b0502d05e2516446f71f85b601f840160051c810191602085106104d9575b90601f859493920160051c01905b8181106104ca57506100c9565b600081558493506001016104bd565b90915081906104af565b91607f16916100b5565b600080fd5b601f909101601f19168101906001600160401b038211908210176103ea57604052565b908151602081106000146105ad575090601f815111610551576020815191015160208210610541571790565b6000198260200360031b1b161790565b6040519063305a27a960e01b8252602060048301528181519182602483015260005b8381106105955750508160006044809484010152601f80199101168101030190fd5b60208282018101516044878401015285935001610573565b6001600160401b0381116103ea57600554600181811c911680156106b9575b60208210146103ca57601f8111610683575b50602092601f821160011461061e5792819293600092610613575b50508160011b916000199060031b1c19161760055560ff90565b0151905038806105f9565b601f198216936005600052806000209160005b86811061066b5750836001959610610652575b505050811b0160055560ff90565b015160001960f88460031b161c19169055388080610644565b91926020600181928685015181550194019201610631565b6005600052601f6020600020910160051c810190601f830160051c015b8181106106ad57506105de565b600081556001016106a0565b90607f16906105cc565b9081516020811060001461074b575090601f8151116106ef576020815191015160208210610541571790565b6040519063305a27a960e01b8252602060048301528181519182602483015260005b8381106107335750508160006044809484010152601f80199101168101030190fd5b60208282018101516044878401015285935001610711565b6001600160401b0381116103ea57600654600181811c91168015610857575b60208210146103ca57601f8111610821575b50602092601f82116001146107bc57928192936000926107b1575b50508160011b916000199060031b1c19161760065560ff90565b015190503880610797565b601f198216936006600052806000209160005b86811061080957508360019596106107f0575b505050811b0160065560ff90565b015160001960f88460031b161c191690553880806107e2565b919260206001819286850151815501940192016107cf565b6006600052601f6020600020910160051c810190601f830160051c015b81811061084b575061077c565b6000815560010161083e565b90607f169061076a56fe6080604052600436101561001257600080fd5b60003560e01c806306fdde0314610207578063095ea7b31461020257806318160ddd146101fd57806323b872dd146101f8578063313ce567146101f35780633644e515146101ee5780633a46b1a8146101e957806340c10f19146101e45780634bf5d7e9146101df578063587cde1e146101da5780635c19a95c146101d557806364f6ad11146101d05780636a350214146101cb5780636fcfff45146101c657806370a08231146101c1578063715018a6146101bc5780637ecebe00146101b757806384b0196e146101b25780638da5cb5b146101ad5780638e539e8c146101a85780638e80ff5d146101a35780638e8846a11461019e57806391ddadf41461019957806395d89b41146101945780639ab24eb01461018f578063a9059cbb1461018a578063c3cda52014610185578063d505accf14610180578063dd62ed3e1461017b578063f1127ed8146101765763f2fde38b1461017157600080fd5b61115b565b6110a8565b611050565b610f27565b610e13565b610dcd565b610d84565b610cdc565b610cb0565b610bae565b610b90565b610abf565b610a96565b610995565b6108fe565b6108a1565b610868565b610802565b6107e4565b61074b565b610729565b6106e7565b610655565b610590565b6104a1565b61047e565b610462565b6103be565b6103a0565b61036f565b610261565b919082519283825260005b848110610238575050826000602080949584010152601f8019910116010190565b80602080928401015182828601015201610217565b90602061025e92818152019061020c565b90565b3461033e57600036600319011261033e576040516000600354610283816111e5565b808452906001811690811561031a57506001146102bb575b6102b7836102ab818503826112d9565b6040519182918261024d565b0390f35b600360009081527fc2575a0e9e593c00f959f8c92f12db2869c3395a3b0502d05e2516446f71f85b939250905b808210610300575090915081016020016102ab61029b565b9192600181602092548385880101520191019092916102e8565b60ff191660208086019190915291151560051b840190910191506102ab905061029b565b600080fd5b600435906001600160a01b038216820361033e57565b602435906001600160a01b038216820361033e57565b3461033e57604036600319011261033e5761039561038b610343565b6024359033611831565b602060405160018152f35b3461033e57600036600319011261033e576020600254604051908152f35b3461033e57606036600319011261033e576103d7610343565b6103df610359565b6001600160a01b03821660009081526001602090815260408083203384529091529020549160443591906000198410610429575b61041d9350611325565b60405160018152602090f35b828410610445576104408361041d950333836118d6565b610413565b8284637dc7a0d960e11b6000523360045260245260445260646000fd5b3461033e57600036600319011261033e57602060405160128152f35b3461033e57600036600319011261033e57602061049961148a565b604051908152f35b3461033e57604036600319011261033e576104ba610343565b6001600160a01b031660009081526009602052604090206104dc6024356115a6565b90600090805482938160058111610531575b50906020946104fd9284611acf565b806105175750505b6040516001600160d01b039091168152f35b610520906115f7565b90825290829020015460301c610505565b9461053b86611971565b860395861161058b576020956104fd9385875265ffffffffffff8289892001541665ffffffffffff8516106000146105795750915b919250946104ee565b92915061058590611606565b90610570565b6115e1565b3461033e57604036600319011261033e576106536105ac610343565b602435906105ce604080516717fe7ed3d5f3e9306020820152602081526112d9565b6105d6611621565b6105f460408051675188d4c924671c416020820152602081526112d9565b6106126040805167d04f0298bb5ebee86020820152602081526112d9565b6106306040805167d4fe1953d4e94d616020820152602081526112d9565b61064e6040805167bfb68881b5e807266020820152602081526112d9565b61164a565b005b3461033e57600036600319011261033e5761066f43611920565b65ffffffffffff8061068043611920565b169116036106d6576102b7604080519061069a81836112d9565b601d82527f6d6f64653d626c6f636b6e756d6265722666726f6d3d64656661756c7400000060208301525191829160208352602083019061020c565b6301bfc1c560e61b60005260046000fd5b3461033e57602036600319011261033e576001600160a01b03610708610343565b166000526008602052602060018060a01b0360406000205416604051908152f35b3461033e57602036600319011261033e57610653610745610343565b3361174a565b3461033e57602036600319011261033e5760043561077d6040805167bb9ab453db72821d6020820152602081526112d9565b610785611621565b6107a3604080516713bb8cf7a4a3677b6020820152602081526112d9565b6107c1604080516789d5e8d9fc271c5c6020820152602081526112d9565b6107df60408051671f426fc5d6f2168d6020820152602081526112d9565b600c55005b3461033e57600036600319011261033e576020600c54604051908152f35b3461033e57602036600319011261033e576001600160a01b03610823610343565b16600052600960205260406000205463ffffffff811161084f5760405163ffffffff9091168152602090f35b6306dfcc6560e41b600052602060045260245260446000fd5b3461033e57602036600319011261033e576020610499610886610343565b6001600160a01b031660009081526020819052604090205490565b3461033e57600036600319011261033e576108ba611621565b600b80546001600160a01b031981169091556000906001600160a01b03167f8be0079c531659141344cd1fd0a4f28419497f9722a3daafe3b4186f6b6457e08280a3005b3461033e57602036600319011261033e57610917610343565b6109356040805167c3443511d602489e6020820152602081526112d9565b610953604080516787a7949667ec02646020820152602081526112d9565b61097160408051670c50a325e93962226020820152602081526112d9565b6001600160a01b031660009081526007602090815260409182902054915191825290f35b3461033e57600036600319011261033e57610a3b6109d27f0000000000000000000000000000000000000000000000000000000000000000611c5a565b6109fb7f0000000000000000000000000000000000000000000000000000000000000000611cbe565b6020604051610a0a82826112d9565b6000815281610a4981830194601f198301368737604051978897600f60f81b895260e0858a015260e089019061020c565b90878203604089015261020c565b91466060870152306080870152600060a087015285830360c0870152519182815201929160005b828110610a7f57505050500390f35b835185528695509381019392810192600101610a70565b3461033e57600036600319011261033e57600b546040516001600160a01b039091168152602090f35b3461033e57602036600319011261033e57610adb6004356115a6565b6000600a5481928160058111610b35575b5090602093610afc92600a611acf565b80610b1457506040516001600160d01b039091168152f35b9082610b22610b30936115f7565b91600a815220015460301c90565b610505565b93610b3f85611971565b850394851161058b57602094610afc93600a865265ffffffffffff8288882001541665ffffffffffff851610600014610b7e5750915b91925093610aec565b929150610b8a90611606565b90610b75565b3461033e57600036600319011261033e576020600d54604051908152f35b3461033e57600036600319011261033e57610bdd60408051670b4d030efd27d9a66020820152602081526112d9565b610be5611621565b610c036040805167b1c11e161938ca146020820152602081526112d9565b610c216040805167f3fe6cad69672de66020820152602081526112d9565b610c4f60405180610c41602082019067244dea7d23e751fa602083019252565b0390601f19820181526112d9565b610c6f60405180610c41602082019067159825be890f3243602083019252565b600b54600c54610c87916001600160a01b031661164a565b610ca760405180610c416020820190670c6a634652dde0d9602083019252565b61065342600d55565b3461033e57600036600319011261033e576020610ccc43611920565b65ffffffffffff60405191168152f35b3461033e57600036600319011261033e576040516000600454610cfe816111e5565b808452906001811690811561031a5750600114610d25576102b7836102ab818503826112d9565b600460009081527f8a35acfbc15ff81a39ae7d344fd709f28e8600b4aa8c65c6b64bfe7fe36bd19b939250905b808210610d6a575090915081016020016102ab61029b565b919260018160209254838588010152019101909291610d52565b3461033e57602036600319011261033e576001600160a01b03610da5610343565b166000526009602052602060018060d01b03610dc460406000206117cd565b16604051908152f35b3461033e57604036600319011261033e57610395610de9610343565b6024359033611325565b6064359060ff8216820361033e57565b6084359060ff8216820361033e57565b3461033e5760c036600319011261033e57610e2c610343565b60243590604435610e3b610df3565b6084359060a43592804211610f135791610ec09391610eb2610eb79460405160208101917fe48329057bfd03d55e49b547132e39cffd9c1820ad7b9d4c5307691425d15adf835260018060a01b038a1660408301528a6060830152608082015260808152610eaa60a0826112d9565b5190206117fc565b611cf5565b90929192611da0565b6001600160a01b0381166000908152600760205260409020805460018101909155809303610ef257610653925061174a565b90506301d4b62360e61b60005260018060a01b031660045260245260446000fd5b632341d78760e11b60005260045260246000fd5b3461033e5760e036600319011261033e57610f40610343565b610f48610359565b6044359060643592610f58610e03565b60a43560c4359086421161103b576001600160a01b0384166000908152600760205260409020805460018101909155610ffe9390610ff9909860405160208101917f6e71edae12b1b97f4d1f60370fef10105fa2faae0126114a169c64845d6126c9835260018060a01b0389169b8c604084015260018060a01b038b1660608401528b608084015260a083015260c082015260c08152610eaa60e0826112d9565b611822565b936001600160a01b03851603611018576106539350611831565b6325c0072360e11b6000526001600160a01b038085166004521660245260446000fd5b8663313c898160e11b60005260045260246000fd5b3461033e57604036600319011261033e57602061109f61106e610343565b611076610359565b6001600160a01b0391821660009081526001855260408082209290931681526020919091522090565b54604051908152f35b3461033e57604036600319011261033e576110c1610343565b6024359063ffffffff8216820361033e576102b791611111916110e261130c565b506110eb61130c565b506001600160a01b0316600090815260096020526040902061110b61130c565b50611e22565b506040519061111f826112b8565b5465ffffffffffff811680835260309190911c60209283019081526040805192835290516001600160d01b031692820192909252918291820190565b3461033e57602036600319011261033e57611174610343565b61117c611621565b6001600160a01b031680156111cf57600b80546001600160a01b0319811683179091556001600160a01b03167f8be0079c531659141344cd1fd0a4f28419497f9722a3daafe3b4186f6b6457e0600080a3005b631e4fbdf760e01b600052600060045260246000fd5b90600182811c92168015611215575b60208310146111ff57565b634e487b7160e01b600052602260045260246000fd5b91607f16916111f4565b6000929181549161122f836111e5565b8083529260018116908115611285575060011461124b57505050565b60009081526020812093945091925b83831061126b575060209250010190565b60018160209294939454838587010152019101919061125a565b915050602093945060ff929192191683830152151560051b010190565b634e487b7160e01b600052604160045260246000fd5b6040810190811067ffffffffffffffff8211176112d457604052565b6112a2565b90601f8019910116810190811067ffffffffffffffff8211176112d457604052565b6040519061130a6040836112d9565b565b60405190611319826112b8565b60006020838281520152565b6001600160a01b038116939291908415611474576001600160a01b038216801561145e5761136760408051673b2b3e0c0b859f7a6020820152602081526112d9565b61138560408051675aa9ff04f50dfd896020820152602081526112d9565b6113a360408051675c6689674be075286020820152602081526112d9565b6001600160a01b03821660009081526020819052604090205495848710611436578461130a9697036113e78460018060a01b03166000526000602052604060002090565b556001600160a01b0384166000908152602081815260409182902080548801905590518681527fddf252ad1be2c89b69c2b068fc378daa952ba7f163c4a11628f55a4df523b3ef9190a3611f24565b63391434e360e21b6000526001600160a01b0383166004526024879052604485905260646000fd5b63ec442f0560e01b600052600060045260246000fd5b634b637e8f60e11b600052600060045260246000fd5b307f00000000000000000000000000000000000000000000000000000000000000006001600160a01b0316148061157d575b156114e5577f000000000000000000000000000000000000000000000000000000000000000090565b60405160208101907f8b73c3c69bb8fe3d512ecc4cf759cc79239f7b179b0ffacaa9a75d522b39400f82527f000000000000000000000000000000000000000000000000000000000000000060408201527f000000000000000000000000000000000000000000000000000000000000000060608201524660808201523060a082015260a0815261157760c0826112d9565b51902090565b507f000000000000000000000000000000000000000000000000000000000000000046146114bc565b65ffffffffffff6115b643611920565b16808210156115c9575061025e90611920565b90637669fc0f60e11b60005260045260245260446000fd5b634e487b7160e01b600052601160045260246000fd5b60001981019190821161058b57565b906001820180921161058b57565b9190820180921161058b57565b600b546001600160a01b0316330361163557565b63118cdaa760e01b6000523360045260246000fd5b6001600160a01b038116929190831561145e5761167b60408051673b2b3e0c0b859f7a6020820152602081526112d9565b61169960408051675aa9ff04f50dfd896020820152602081526112d9565b6116b760408051675c6689674be075286020820152602081526112d9565b6116cb6116c683600254611614565b600255565b6001600160a01b0381166000908152602081815260408083208054860190555184815291959186917fddf252ad1be2c89b69c2b068fc378daa952ba7f163c4a11628f55a4df523b3ef91a36002546001600160d01b039081811161173557505061130a9293611f24565b630e58ae9360e11b8652600452602452604484fd5b6001600160a01b03818116600081815260086020526040812080548685166001600160a01b03198216811790925561130a969416946117c79390928691907f3134e8a2e6d97e929a7e54011ea5485d7d196dd5f0ba4d4ef95803e8e3fc257f9080a46001600160a01b031660009081526020819052604090205490565b91611b36565b805490816117dc575050600090565b8160001981011161058b5760005260001990602060002001015460301c90565b60429061180761148a565b906040519161190160f01b8352600283015260228201522090565b9161025e9391610eb793611cf5565b6001600160a01b03169081156118c0576001600160a01b0381169283156118aa578061189d7f8c5be1e5ebec7d5bd14f71427d1e84f3dd0314c0f7b2291e5b200ac8c7c3b9259385600052600160205260406000209060018060a01b0316600052602052604060002090565b55604051908152602090a3565b634a1406b160e11b600052600060045260246000fd5b63e602df0560e01b600052600060045260246000fd5b6001600160a01b03169081156118c0576001600160a01b038116156118aa5761191d91600052600160205260406000209060018060a01b0316600052602052604060002090565b55565b65ffffffffffff81116119385765ffffffffffff1690565b6306dfcc6560e41b600052603060045260245260446000fd5b811561195b570490565b634e487b7160e01b600052601260045260246000fd5b600181111561025e57806001600160801b821015611a92575b611a38611a2e611a24611a1a611a10611a066119f5611a3f976004611a449a600160401b811015611a85575b640100000000811015611a78575b62010000811015611a6b575b610100811015611a5e575b6010811015611a51575b1015611a49575b60030260011c90565b6119ff818b611951565b0160011c90565b6119ff818a611951565b6119ff8189611951565b6119ff8188611951565b6119ff8187611951565b6119ff8186611951565b8093611951565b821190565b900390565b60011b6119ec565b60041c9160021b916119e5565b60081c9160041b916119db565b60101c9160081b916119d0565b60201c9160101b916119c4565b60401c9160201b916119b6565b5050611a44611a3f611a38611a2e611a24611a1a611a10611a066119f5611ab98a60801c90565b9850600160401b975061198a9650505050505050565b91905b838210611adf5750505090565b9091928083169080841860011c820180921161058b578460005265ffffffffffff82602060002001541665ffffffffffff841610600014611b245750925b9190611ad2565b939250611b3090611606565b91611b1d565b6001600160a01b03808316939291908116908185141580611c51575b611b5e575b5050505050565b81611be3575b505082611b73575b8080611b57565b6001600160a01b031660009081526009602052604090207fdec2bacdd2f05b59de34da9b523dff8be42e5e38e818c82fdb0bae774387a72491611bc091611bba9091611e50565b90611ebb565b604080516001600160d01b039384168152919092166020820152a2388080611b6c565b6001600160a01b031660009081526009602052604090207fdec2bacdd2f05b59de34da9b523dff8be42e5e38e818c82fdb0bae774387a72490611c2f90611c2986611e50565b90611e83565b604080516001600160d01b039384168152919092166020820152a23880611b64565b50831515611b52565b60ff8114611ca45760ff811690601f8211611c93576040805192611c7e82856112d9565b6020808552840191601f190136833783525290565b632cd44ac360e21b60005260046000fd5b5060405161025e81611cb781600561121f565b03826112d9565b60ff8114611ce25760ff811690601f8211611c93576040805192611c7e82856112d9565b5060405161025e81611cb781600661121f565b91906fa2a8918ca85bafe22016d0b997e4df60600160ff1b038411611d74579160209360809260ff60009560405194855216868401526040830152606082015282805260015afa15611d68576000516001600160a01b03811615611d5c5790600090600090565b50600090600190600090565b6040513d6000823e3d90fd5b50505060009160039190565b60041115611d8a57565b634e487b7160e01b600052602160045260246000fd5b611da981611d80565b80611db2575050565b611dbb81611d80565b60018103611dd45763f645eedf60e01b60005260046000fd5b611ddd81611d80565b60028103611dfa575063fce698f760e01b60005260045260246000fd5b80611e06600392611d80565b14611e0e5750565b6335e2f38360e21b60005260045260246000fd5b8054821015611e3a5760005260206000200190600090565b634e487b7160e01b600052603260045260246000fd5b6001600160d01b038111611e6a576001600160d01b031690565b6306dfcc6560e41b60005260d060045260245260446000fd5b90611e8d43611920565b90611e97836117cd565b6001600160d01b03918216908216039190821161058b57611eb792612038565b9091565b90611ec543611920565b90611ecf836117cd565b6001600160d01b03918216908216019190821161058b57611eb792612038565b611ef843611920565b90611f03600a6117cd565b6001600160d01b039182169082160390811161058b57611eb791600a612038565b9091906001600160a01b03168015611f8c575b61130a926001600160a01b0316908115611f74575b600090815260086020526040808220549282529020546001600160a01b039081169116611b36565b611f85611f8084611e50565b611eef565b5050611f4c565b611f9582611e50565b92611f9f43611920565b93611faa600a6117cd565b6001600160d01b03918216908216019490851161058b5761130a94611fd091600a612038565b9050509250611f37565b8054600160401b8110156112d457611ff791600182018155611e22565b61202257815160209092015160301b65ffffffffffff191665ffffffffffff92909216919091179055565b634e487b7160e01b600052600060045260246000fd5b805492939280156120e85761204f61205c916115f7565b8260005260206000200190565b8054603081901c9365ffffffffffff918216929181168084116120d7578793036120a3575061209f92509065ffffffffffff82549181199060301b169116179055565b9190565b91505061209f916120c36120b56112fb565b65ffffffffffff9093168352565b6001600160d01b0386166020830152611fda565b632520601d60e01b60005260046000fd5b509061210d916120f96120b56112fb565b6001600160d01b0385166020830152611fda565b6000919056fea264697066735822122016ce2c5caf707330671d6f005deb4076b9eab94a9ad3d27546aa73cedb78b5d764736f6c634300081c0033",
  "linkReferences": {},
  "deployedLinkReferences": {}
}