{
  "_format": "hh-sol-artifact-1",
  "contractName": "GraviGov",
  "sourceName": "contracts/tokens/GraviGov.sol",
  "abi": [
    {
      "inputs": [
        {
          "internalType": "address",
          "name": "_charityToken",
          "type": "address"
        }
      ],
      "stateMutability": "nonpayable",
      "type": "constructor"
    },
    {
      "inputs": [],
      "name": "CheckpointUnorderedInsertion",
      "type": "error"
    },
    {
      "inputs": [],
      "name": "ECDSAInvalidSignature",
      "type": "error"
    },
    {
      "inputs": [
        {
          "internalType": "uint256",
          "name": "length",
          "type": "uint256"
        }
      ],
      "name": "ECDSAInvalidSignatureLength",
      "type": "error"
    },
    {
      "inputs": [
        {
          "internalType": "bytes32",
          "name": "s",
          "type": "bytes32"
        }
      ],
      "name": "ECDSAInvalidSignatureS",
      "type": "error"
    },
    {
      "inputs": [
        {
          "internalType": "uint256",
          "name": "increasedSupply",
          "type": "uint256"
        },
        {
          "internalType": "uint256",
          "name": "cap",
          "type": "uint256"
        }
      ],
      "name": "ERC20ExceededSafeSupply",
      "type": "error"
    },
    {
      "inputs": [
        {
          "internalType": "address",
          "name": "spender",
          "type": "address"
        },
        {
          "internalType": "uint256",
          "name": "allowance",
          "type": "uint256"
        },
        {
          "internalType": "uint256",
          "name": "needed",
          "type": "uint256"
        }
      ],
      "name": "ERC20InsufficientAllowance",
      "type": "error"
    },
    {
      "inputs": [
        {
          "internalType": "address",
          "name": "sender",
          "type": "address"
        },
        {
          "internalType": "uint256",
          "name": "balance",
          "type": "uint256"
        },
        {
          "internalType": "uint256",
          "name": "needed",
          "type": "uint256"
        }
      ],
      "name": "ERC20InsufficientBalance",
      "type": "error"
    },
    {
      "inputs": [
        {
          "internalType": "address",
          "name": "approver",
          "type": "address"
        }
      ],
      "name": "ERC20InvalidApprover",
      "type": "error"
    },
    {
      "inputs": [
        {
          "internalType": "address",
          "name": "receiver",
          "type": "address"
        }
      ],
      "name": "ERC20InvalidReceiver",
      "type": "error"
    },
    {
      "inputs": [
        {
          "internalType": "address",
          "name": "sender",
          "type": "address"
        }
      ],
      "name": "ERC20InvalidSender",
      "type": "error"
    },
    {
      "inputs": [
        {
          "internalType": "address",
          "name": "spender",
          "type": "address"
        }
      ],
      "name": "ERC20InvalidSpender",
      "type": "error"
    },
    {
      "inputs": [
        {
          "internalType": "uint256",
          "name": "deadline",
          "type": "uint256"
        }
      ],
      "name": "ERC2612ExpiredSignature",
      "type": "error"
    },
    {
      "inputs": [
        {
          "internalType": "address",
          "name": "signer",
          "type": "address"
        },
        {
          "internalType": "address",
          "name": "owner",
          "type": "address"
        }
      ],
      "name": "ERC2612InvalidSigner",
      "type": "error"
    },
    {
      "inputs": [
        {
          "internalType": "uint256",
          "name": "timepoint",
          "type": "uint256"
        },
        {
          "internalType": "uint48",
          "name": "clock",
          "type": "uint48"
        }
      ],
      "name": "ERC5805FutureLookup",
      "type": "error"
    },
    {
      "inputs": [],
      "name": "ERC6372InconsistentClock",
      "type": "error"
    },
    {
      "inputs": [
        {
          "internalType": "address",
          "name": "account",
          "type": "address"
        },
        {
          "internalType": "uint256",
          "name": "currentNonce",
          "type": "uint256"
        }
      ],
      "name": "InvalidAccountNonce",
      "type": "error"
    },
    {
      "inputs": [],
      "name": "InvalidShortString",
      "type": "error"
    },
    {
      "inputs": [
        {
          "internalType": "address",
          "name": "owner",
          "type": "address"
        }
      ],
      "name": "OwnableInvalidOwner",
      "type": "error"
    },
    {
      "inputs": [
        {
          "internalType": "address",
          "name": "account",
          "type": "address"
        }
      ],
      "name": "OwnableUnauthorizedAccount",
      "type": "error"
    },
    {
      "inputs": [
        {
          "internalType": "uint8",
          "name": "bits",
          "type": "uint8"
        },
        {
          "internalType": "uint256",
          "name": "value",
          "type": "uint256"
        }
      ],
      "name": "SafeCastOverflowedUintDowncast",
      "type": "error"
    },
    {
      "inputs": [
        {
          "internalType": "string",
          "name": "str",
          "type": "string"
        }
      ],
      "name": "StringTooLong",
      "type": "error"
    },
    {
      "inputs": [
        {
          "internalType": "uint256",
          "name": "expiry",
          "type": "uint256"
        }
      ],
      "name": "VotesExpiredSignature",
      "type": "error"
    },
    {
      "anonymous": false,
      "inputs": [
        {
          "indexed": true,
          "internalType": "address",
          "name": "owner",
          "type": "address"
        },
        {
          "indexed": true,
          "internalType": "address",
          "name": "spender",
          "type": "address"
        },
        {
          "indexed": false,
          "internalType": "uint256",
          "name": "value",
          "type": "uint256"
        }
      ],
      "name": "Approval",
      "type": "event"
    },
    {
      "anonymous": false,
      "inputs": [
        {
          "indexed": true,
          "internalType": "address",
          "name": "delegator",
          "type": "address"
        },
        {
          "indexed": true,
          "internalType": "address",
          "name": "fromDelegate",
          "type": "address"
        },
        {
          "indexed": true,
          "internalType": "address",
          "name": "toDelegate",
          "type": "address"
        }
      ],
      "name": "DelegateChanged",
      "type": "event"
    },
    {
      "anonymous": false,
      "inputs": [
        {
          "indexed": true,
          "internalType": "address",
          "name": "delegate",
          "type": "address"
        },
        {
          "indexed": false,
          "internalType": "uint256",
          "name": "previousVotes",
          "type": "uint256"
        },
        {
          "indexed": false,
          "internalType": "uint256",
          "name": "newVotes",
          "type": "uint256"
        }
      ],
      "name": "DelegateVotesChanged",
      "type": "event"
    },
    {
      "anonymous": false,
      "inputs": [],
      "name": "EIP712DomainChanged",
      "type": "event"
    },
    {
      "anonymous": false,
      "inputs": [
        {
          "indexed": true,
          "internalType": "address",
          "name": "previousOwner",
          "type": "address"
        },
        {
          "indexed": true,
          "internalType": "address",
          "name": "newOwner",
          "type": "address"
        }
      ],
      "name": "OwnershipTransferred",
      "type": "event"
    },
    {
      "anonymous": false,
      "inputs": [
        {
          "indexed": true,
          "internalType": "address",
          "name": "from",
          "type": "address"
        },
        {
          "indexed": true,
          "internalType": "address",
          "name": "to",
          "type": "address"
        },
        {
          "indexed": false,
          "internalType": "uint256",
          "name": "value",
          "type": "uint256"
        }
      ],
      "name": "Transfer",
      "type": "event"
    },
    {
      "inputs": [],
      "name": "CLOCK_MODE",
      "outputs": [
        {
          "internalType": "string",
          "name": "",
          "type": "string"
        }
      ],
      "stateMutability": "view",
      "type": "function"
    },
    {
      "inputs": [],
      "name": "DOMAIN_SEPARATOR",
      "outputs": [
        {
          "internalType": "bytes32",
          "name": "",
          "type": "bytes32"
        }
      ],
      "stateMutability": "view",
      "type": "function"
    },
    {
      "inputs": [
        {
          "internalType": "address",
          "name": "owner",
          "type": "address"
        },
        {
          "internalType": "address",
          "name": "spender",
          "type": "address"
        }
      ],
      "name": "allowance",
      "outputs": [
        {
          "internalType": "uint256",
          "name": "",
          "type": "uint256"
        }
      ],
      "stateMutability": "view",
      "type": "function"
    },
    {
      "inputs": [
        {
          "internalType": "address",
          "name": "spender",
          "type": "address"
        },
        {
          "internalType": "uint256",
          "name": "value",
          "type": "uint256"
        }
      ],
      "name": "approve",
      "outputs": [
        {
          "internalType": "bool",
          "name": "",
          "type": "bool"
        }
      ],
      "stateMutability": "nonpayable",
      "type": "function"
    },
    {
      "inputs": [
        {
          "internalType": "address",
          "name": "account",
          "type": "address"
        }
      ],
      "name": "balanceOf",
      "outputs": [
        {
          "internalType": "uint256",
          "name": "",
          "type": "uint256"
        }
      ],
      "stateMutability": "view",
      "type": "function"
    },
    {
      "inputs": [],
      "name": "charityToken",
      "outputs": [
        {
          "internalType": "contract IGraviCha",
          "name": "",
          "type": "address"
        }
      ],
      "stateMutability": "view",
      "type": "function"
    },
    {
      "inputs": [],
      "name": "charityTokenExchangeRate",
      "outputs": [
        {
          "internalType": "uint256",
          "name": "",
          "type": "uint256"
        }
      ],
      "stateMutability": "view",
      "type": "function"
    },
    {
      "inputs": [
        {
          "internalType": "address",
          "name": "account",
          "type": "address"
        },
        {
          "internalType": "uint32",
          "name": "pos",
          "type": "uint32"
        }
      ],
      "name": "checkpoints",
      "outputs": [
        {
          "components": [
            {
              "internalType": "uint48",
              "name": "_key",
              "type": "uint48"
            },
            {
              "internalType": "uint208",
              "name": "_value",
              "type": "uint208"
            }
          ],
          "internalType": "struct Checkpoints.Checkpoint208",
          "name": "",
          "type": "tuple"
        }
      ],
      "stateMutability": "view",
      "type": "function"
    },
    {
      "inputs": [],
      "name": "clock",
      "outputs": [
        {
          "internalType": "uint48",
          "name": "",
          "type": "uint48"
        }
      ],
      "stateMutability": "view",
      "type": "function"
    },
    {
      "inputs": [
        {
          "internalType": "uint256",
          "name": "amount",
          "type": "uint256"
        }
      ],
      "name": "convertToCharityTokens",
      "outputs": [],
      "stateMutability": "nonpayable",
      "type": "function"
    },
    {
      "inputs": [],
      "name": "dao",
      "outputs": [
        {
          "internalType": "contract IGraviDAO",
          "name": "",
          "type": "address"
        }
      ],
      "stateMutability": "view",
      "type": "function"
    },
    {
      "inputs": [],
      "name": "decimals",
      "outputs": [
        {
          "internalType": "uint8",
          "name": "",
          "type": "uint8"
        }
      ],
      "stateMutability": "pure",
      "type": "function"
    },
    {
      "inputs": [
        {
          "internalType": "address",
          "name": "delegatee",
          "type": "address"
        }
      ],
      "name": "delegate",
      "outputs": [],
      "stateMutability": "nonpayable",
      "type": "function"
    },
    {
      "inputs": [
        {
          "internalType": "address",
          "name": "delegatee",
          "type": "address"
        },
        {
          "internalType": "uint256",
          "name": "nonce",
          "type": "uint256"
        },
        {
          "internalType": "uint256",
          "name": "expiry",
          "type": "uint256"
        },
        {
          "internalType": "uint8",
          "name": "v",
          "type": "uint8"
        },
        {
          "internalType": "bytes32",
          "name": "r",
          "type": "bytes32"
        },
        {
          "internalType": "bytes32",
          "name": "s",
          "type": "bytes32"
        }
      ],
      "name": "delegateBySig",
      "outputs": [],
      "stateMutability": "nonpayable",
      "type": "function"
    },
    {
      "inputs": [
        {
          "internalType": "address",
          "name": "account",
          "type": "address"
        }
      ],
      "name": "delegates",
      "outputs": [
        {
          "internalType": "address",
          "name": "",
          "type": "address"
        }
      ],
      "stateMutability": "view",
      "type": "function"
    },
    {
      "inputs": [],
      "name": "eip712Domain",
      "outputs": [
        {
          "internalType": "bytes1",
          "name": "fields",
          "type": "bytes1"
        },
        {
          "internalType": "string",
          "name": "name",
          "type": "string"
        },
        {
          "internalType": "string",
          "name": "version",
          "type": "string"
        },
        {
          "internalType": "uint256",
          "name": "chainId",
          "type": "uint256"
        },
        {
          "internalType": "address",
          "name": "verifyingContract",
          "type": "address"
        },
        {
          "internalType": "bytes32",
          "name": "salt",
          "type": "bytes32"
        },
        {
          "internalType": "uint256[]",
          "name": "extensions",
          "type": "uint256[]"
        }
      ],
      "stateMutability": "view",
      "type": "function"
    },
    {
      "inputs": [
        {
          "internalType": "uint256",
          "name": "timepoint",
          "type": "uint256"
        }
      ],
      "name": "getPastTotalSupply",
      "outputs": [
        {
          "internalType": "uint256",
          "name": "",
          "type": "uint256"
        }
      ],
      "stateMutability": "view",
      "type": "function"
    },
    {
      "inputs": [
        {
          "internalType": "address",
          "name": "account",
          "type": "address"
        },
        {
          "internalType": "uint256",
          "name": "timepoint",
          "type": "uint256"
        }
      ],
      "name": "getPastVotes",
      "outputs": [
        {
          "internalType": "uint256",
          "name": "",
          "type": "uint256"
        }
      ],
      "stateMutability": "view",
      "type": "function"
    },
    {
      "inputs": [
        {
          "internalType": "address",
          "name": "account",
          "type": "address"
        }
      ],
      "name": "getVotes",
      "outputs": [
        {
          "internalType": "uint256",
          "name": "",
          "type": "uint256"
        }
      ],
      "stateMutability": "view",
      "type": "function"
    },
    {
      "inputs": [],
      "name": "lastMintTimestamp",
      "outputs": [
        {
          "internalType": "uint256",
          "name": "",
          "type": "uint256"
        }
      ],
      "stateMutability": "view",
      "type": "function"
    },
    {
      "inputs": [
        {
          "internalType": "address",
          "name": "to",
          "type": "address"
        },
        {
          "internalType": "uint256",
          "name": "amount",
          "type": "uint256"
        }
      ],
      "name": "mint",
      "outputs": [],
      "stateMutability": "nonpayable",
      "type": "function"
    },
    {
      "inputs": [],
      "name": "mintMonthly",
      "outputs": [],
      "stateMutability": "nonpayable",
      "type": "function"
    },
    {
      "inputs": [],
      "name": "monthlyMintAmount",
      "outputs": [
        {
          "internalType": "uint256",
          "name": "",
          "type": "uint256"
        }
      ],
      "stateMutability": "view",
      "type": "function"
    },
    {
      "inputs": [],
      "name": "name",
      "outputs": [
        {
          "internalType": "string",
          "name": "",
          "type": "string"
        }
      ],
      "stateMutability": "view",
      "type": "function"
    },
    {
      "inputs": [
        {
          "internalType": "address",
          "name": "owner",
          "type": "address"
        }
      ],
      "name": "nonces",
      "outputs": [
        {
          "internalType": "uint256",
          "name": "",
          "type": "uint256"
        }
      ],
      "stateMutability": "view",
      "type": "function"
    },
    {
      "inputs": [
        {
          "internalType": "address",
          "name": "account",
          "type": "address"
        }
      ],
      "name": "numCheckpoints",
      "outputs": [
        {
          "internalType": "uint32",
          "name": "",
          "type": "uint32"
        }
      ],
      "stateMutability": "view",
      "type": "function"
    },
    {
      "inputs": [],
      "name": "owner",
      "outputs": [
        {
          "internalType": "address",
          "name": "",
          "type": "address"
        }
      ],
      "stateMutability": "view",
      "type": "function"
    },
    {
      "inputs": [
        {
          "internalType": "address",
          "name": "owner",
          "type": "address"
        },
        {
          "internalType": "address",
          "name": "spender",
          "type": "address"
        },
        {
          "internalType": "uint256",
          "name": "value",
          "type": "uint256"
        },
        {
          "internalType": "uint256",
          "name": "deadline",
          "type": "uint256"
        },
        {
          "internalType": "uint8",
          "name": "v",
          "type": "uint8"
        },
        {
          "internalType": "bytes32",
          "name": "r",
          "type": "bytes32"
        },
        {
          "internalType": "bytes32",
          "name": "s",
          "type": "bytes32"
        }
      ],
      "name": "permit",
      "outputs": [],
      "stateMutability": "nonpayable",
      "type": "function"
    },
    {
      "inputs": [],
      "name": "renounceOwnership",
      "outputs": [],
      "stateMutability": "nonpayable",
      "type": "function"
    },
    {
      "inputs": [
        {
          "internalType": "uint256",
          "name": "_charityTokenExchangeRate",
          "type": "uint256"
        }
      ],
      "name": "setCharityTokenExchangeRate",
      "outputs": [],
      "stateMutability": "nonpayable",
      "type": "function"
    },
    {
      "inputs": [
        {
          "internalType": "address",
          "name": "_dao",
          "type": "address"
        }
      ],
      "name": "setDAO",
      "outputs": [],
      "stateMutability": "nonpayable",
      "type": "function"
    },
    {
      "inputs": [
        {
          "internalType": "uint256",
          "name": "_monthlyMintAmount",
          "type": "uint256"
        }
      ],
      "name": "setMonthlyMintAmount",
      "outputs": [],
      "stateMutability": "nonpayable",
      "type": "function"
    },
    {
      "inputs": [],
      "name": "symbol",
      "outputs": [
        {
          "internalType": "string",
          "name": "",
          "type": "string"
        }
      ],
      "stateMutability": "view",
      "type": "function"
    },
    {
      "inputs": [],
      "name": "totalSupply",
      "outputs": [
        {
          "internalType": "uint256",
          "name": "",
          "type": "uint256"
        }
      ],
      "stateMutability": "view",
      "type": "function"
    },
    {
      "inputs": [
        {
          "internalType": "address",
          "name": "to",
          "type": "address"
        },
        {
          "internalType": "uint256",
          "name": "value",
          "type": "uint256"
        }
      ],
      "name": "transfer",
      "outputs": [
        {
          "internalType": "bool",
          "name": "",
          "type": "bool"
        }
      ],
      "stateMutability": "nonpayable",
      "type": "function"
    },
    {
      "inputs": [
        {
          "internalType": "address",
          "name": "from",
          "type": "address"
        },
        {
          "internalType": "address",
          "name": "to",
          "type": "address"
        },
        {
          "internalType": "uint256",
          "name": "value",
          "type": "uint256"
        }
      ],
      "name": "transferFrom",
      "outputs": [
        {
          "internalType": "bool",
          "name": "",
          "type": "bool"
        }
      ],
      "stateMutability": "nonpayable",
      "type": "function"
    },
    {
      "inputs": [
        {
          "internalType": "address",
          "name": "newOwner",
          "type": "address"
        }
      ],
      "name": "transferOwnership",
      "outputs": [],
      "stateMutability": "nonpayable",
      "type": "function"
    }
  ],
  "bytecode": "0x61016080604052346104f3576020816129aa803803809161002082856104f8565b8339810103126104f357516001600160a01b038116908190036104f35760405161004b6040826104f8565b60088152602081016723b930bb34a3b7bb60c11b8152604051906100706040836104f8565b600882526723b930bb34a3b7bb60c11b6020830152604051926100946040856104f8565b600484526323a3a7ab60e11b6020850152604051936100b46040866104f8565b60018552603160f81b60208601908152845190946001600160401b0382116103f05760035490600182811c921680156104e9575b60208310146103d05781601f849311610479575b50602090601f831160011461041157600092610406575b50508160011b916000199060031b1c1916176003555b8051906001600160401b0382116103f05760045490600182811c921680156103e6575b60208310146103d05781601f849311610360575b50602090601f83116001146102f8576000926102ed575b50508160011b916000199060031b1c1916176004555b6101968161051b565b610120526101a3846106c9565b61014052519020918260e05251902080610100524660a0526040519060208201927f8b73c3c69bb8fe3d512ecc4cf759cc79239f7b179b0ffacaa9a75d522b39400f8452604083015260608201524660808201523060a082015260a0815261020c60c0826104f8565b5190206080523060c05233156102d757600b8054336001600160a01b0319821681179092556040519291906001600160a01b03167f8be0079c531659141344cd1fd0a4f28419497f9722a3daafe3b4186f6b6457e0600080a3612710600c556103e8600e5542600d55600f80546001600160a01b03191691909117905561214290816108688239608051816114f4015260a051816115b1015260c051816114be015260e051816115430152610100518161156901526101205181610a1301526101405181610a3c0152f35b631e4fbdf760e01b600052600060045260246000fd5b015190503880610177565b600460009081528281209350601f198516905b818110610348575090846001959493921061032f575b505050811b0160045561018d565b015160001960f88460031b161c19169055388080610321565b9293602060018192878601518155019501930161030b565b60046000529091507f8a35acfbc15ff81a39ae7d344fd709f28e8600b4aa8c65c6b64bfe7fe36bd19b601f840160051c810191602085106103c6575b90601f859493920160051c01905b8181106103b75750610160565b600081558493506001016103aa565b909150819061039c565b634e487b7160e01b600052602260045260246000fd5b91607f169161014c565b634e487b7160e01b600052604160045260246000fd5b015190503880610113565b600360009081528281209350601f198516905b8181106104615750908460019594939210610448575b505050811b01600355610129565b015160001960f88460031b161c1916905538808061043a565b92936020600181928786015181550195019301610424565b60036000529091507fc2575a0e9e593c00f959f8c92f12db2869c3395a3b0502d05e2516446f71f85b601f840160051c810191602085106104df575b90601f859493920160051c01905b8181106104d057506100fc565b600081558493506001016104c3565b90915081906104b5565b91607f16916100e8565b600080fd5b601f909101601f19168101906001600160401b038211908210176103f057604052565b908151602081106000146105b3575090601f815111610557576020815191015160208210610547571790565b6000198260200360031b1b161790565b6040519063305a27a960e01b8252602060048301528181519182602483015260005b83811061059b5750508160006044809484010152601f80199101168101030190fd5b60208282018101516044878401015285935001610579565b6001600160401b0381116103f057600554600181811c911680156106bf575b60208210146103d057601f8111610689575b50602092601f82116001146106245792819293600092610619575b50508160011b916000199060031b1c19161760055560ff90565b0151905038806105ff565b601f198216936005600052806000209160005b8681106106715750836001959610610658575b505050811b0160055560ff90565b015160001960f88460031b161c1916905538808061064a565b91926020600181928685015181550194019201610637565b6005600052601f6020600020910160051c810190601f830160051c015b8181106106b357506105e4565b600081556001016106a6565b90607f16906105d2565b90815160208110600014610751575090601f8151116106f5576020815191015160208210610547571790565b6040519063305a27a960e01b8252602060048301528181519182602483015260005b8381106107395750508160006044809484010152601f80199101168101030190fd5b60208282018101516044878401015285935001610717565b6001600160401b0381116103f057600654600181811c9116801561085d575b60208210146103d057601f8111610827575b50602092601f82116001146107c257928192936000926107b7575b50508160011b916000199060031b1c19161760065560ff90565b01519050388061079d565b601f198216936006600052806000209160005b86811061080f57508360019596106107f6575b505050811b0160065560ff90565b015160001960f88460031b161c191690553880806107e8565b919260206001819286850151815501940192016107d5565b6006600052601f6020600020910160051c810190601f830160051c015b8181106108515750610782565b60008155600101610844565b90607f169061077056fe6080604052600436101561001257600080fd5b60003560e01c8063012252131461026757806304a6e87e1461026257806306fdde031461025d578063095ea7b314610258578063099217ce146102535780630f972c821461024e57806318160ddd1461024957806323b872dd14610244578063313ce5671461023f5780633644e5151461023a5780633a46b1a81461023557806340c10f19146102305780634162169f1461022b5780634bf5d7e914610226578063587cde1e146102215780635c19a95c1461021c57806364f6ad11146102175780636a350214146102125780636fcfff451461020d57806370a0823114610208578063715018a6146102035780637ecebe00146101fe57806384b0196e146101f95780638da5cb5b146101f45780638e539e8c146101ef5780638e80ff5d146101ea5780638e8846a1146101e557806391ddadf4146101e057806395d89b41146101db5780639ab24eb0146101d6578063a9059cbb146101d1578063c3cda520146101cc578063d505accf146101c7578063dd62ed3e146101c2578063e73a914c146101bd578063f1127ed8146101b85763f2fde38b146101b357600080fd5b611138565b611085565b611042565b610fea565b610ec1565b610dad565b610d67565b610d1e565b610c76565b610c4a565b610c13565b610bf5565b610b24565b610afb565b6109fa565b6109c0565b610963565b61092a565b6108c4565b6108a6565b610885565b610863565b610821565b61078f565b610766565b610739565b61064a565b610627565b61060b565b610567565b610549565b610473565b610455565b610424565b61031b565b6102a5565b61027c565b600091031261027757565b600080fd5b3461027757600036600319011261027757600f546040516001600160a01b039091168152602090f35b34610277576020366003190112610277576004356102c1611393565b600e55005b919082519283825260005b8481106102f2575050826000602080949584010152601f8019910116010190565b806020809284010151828286010152016102d1565b9060206103189281815201906102c6565b90565b3461027757600036600319011261027757604051600060035461033d816111c2565b80845290600181169081156103d45750600114610375575b61037183610365818503826112b6565b60405191829182610307565b0390f35b600360009081527fc2575a0e9e593c00f959f8c92f12db2869c3395a3b0502d05e2516446f71f85b939250905b8082106103ba57509091508101602001610365610355565b9192600181602092548385880101520191019092916103a2565b60ff191660208086019190915291151560051b840190910191506103659050610355565b600435906001600160a01b038216820361027757565b602435906001600160a01b038216820361027757565b346102775760403660031901126102775761044a6104406103f8565b60243590336117bc565b602060405160018152f35b34610277576000366003190112610277576020600e54604051908152f35b34610277576020366003190112610277576004353360009081526020819052604090206104a49082905410156112d8565b6010546104cc9082906104c7906001600160a01b03165b6001600160a01b031690565b61136a565b50600f546104f0906104e6906001600160a01b03166104bb565b91600e549061133a565b90803b15610277576040516340c10f1960e01b815233600482015260248101839052906000908290604490829084905af180156105445761052d57005b8061053c6000610542936112b6565b8061026c565b005b61134d565b34610277576000366003190112610277576020600254604051908152f35b34610277576060366003190112610277576105806103f8565b61058861040e565b6001600160a01b038216600090815260016020908152604080832033845290915290205491604435919060001984106105d2575b6105c693506113bc565b60405160018152602090f35b8284106105ee576105e9836105c695033383611861565b6105bc565b8284637dc7a0d960e11b6000523360045260245260445260646000fd5b3461027757600036600319011261027757602060405160128152f35b346102775760003660031901126102775760206106426114bb565b604051908152f35b34610277576040366003190112610277576106636103f8565b6001600160a01b031660009081526009602052604090206106856024356115d7565b906000908054829381600581116106da575b50906020946106a69284611a5a565b806106c05750505b6040516001600160d01b039091168152f35b6106c990611612565b90825290829020015460301c6106ae565b946106e4866118fc565b8603958611610734576020956106a69385875265ffffffffffff8289892001541665ffffffffffff8516106000146107225750915b91925094610697565b92915061072e90611621565b90610719565b611324565b34610277576040366003190112610277576105426107556103f8565b60243590610761611393565b61162f565b34610277576000366003190112610277576010546040516001600160a01b039091168152602090f35b34610277576000366003190112610277576107a9436118ab565b65ffffffffffff806107ba436118ab565b169116036108105761037160408051906107d481836112b6565b601d82527f6d6f64653d626c6f636b6e756d6265722666726f6d3d64656661756c740000006020830152519182916020835260208301906102c6565b6301bfc1c560e61b60005260046000fd5b34610277576020366003190112610277576001600160a01b036108426103f8565b166000526008602052602060018060a01b0360406000205416604051908152f35b346102775760203660031901126102775761054261087f6103f8565b336116d5565b34610277576020366003190112610277576004356108a1611393565b600c55005b34610277576000366003190112610277576020600c54604051908152f35b34610277576020366003190112610277576001600160a01b036108e56103f8565b16600052600960205260406000205463ffffffff81116109115760405163ffffffff9091168152602090f35b6306dfcc6560e41b600052602060045260245260446000fd5b346102775760203660031901126102775760206106426109486103f8565b6001600160a01b031660009081526020819052604090205490565b346102775760003660031901126102775761097c611393565b600b80546001600160a01b031981169091556000906001600160a01b03167f8be0079c531659141344cd1fd0a4f28419497f9722a3daafe3b4186f6b6457e08280a3005b34610277576020366003190112610277576001600160a01b036109e16103f8565b1660005260076020526020604060002054604051908152f35b3461027757600036600319011261027757610aa0610a377f0000000000000000000000000000000000000000000000000000000000000000611be5565b610a607f0000000000000000000000000000000000000000000000000000000000000000611c49565b6020604051610a6f82826112b6565b6000815281610aae81830194601f198301368737604051978897600f60f81b895260e0858a015260e08901906102c6565b9087820360408901526102c6565b91466060870152306080870152600060a087015285830360c0870152519182815201929160005b828110610ae457505050500390f35b835185528695509381019392810192600101610ad5565b3461027757600036600319011261027757600b546040516001600160a01b039091168152602090f35b3461027757602036600319011261027757610b406004356115d7565b6000600a5481928160058111610b9a575b5090602093610b6192600a611a5a565b80610b7957506040516001600160d01b039091168152f35b9082610b87610b9593611612565b91600a815220015460301c90565b6106ae565b93610ba4856118fc565b850394851161073457602094610b6193600a865265ffffffffffff8288882001541665ffffffffffff851610600014610be35750915b91925093610b51565b929150610bef90611621565b90610bda565b34610277576000366003190112610277576020600d54604051908152f35b3461027757600036600319011261027757610c2c611393565b600b54600c54610c44916001600160a01b031661162f565b42600d55005b34610277576000366003190112610277576020610c66436118ab565b65ffffffffffff60405191168152f35b34610277576000366003190112610277576040516000600454610c98816111c2565b80845290600181169081156103d45750600114610cbf5761037183610365818503826112b6565b600460009081527f8a35acfbc15ff81a39ae7d344fd709f28e8600b4aa8c65c6b64bfe7fe36bd19b939250905b808210610d0457509091508101602001610365610355565b919260018160209254838588010152019101909291610cec565b34610277576020366003190112610277576001600160a01b03610d3f6103f8565b166000526009602052602060018060d01b03610d5e6040600020611758565b16604051908152f35b346102775760403660031901126102775761044a610d836103f8565b60243590336113bc565b6064359060ff8216820361027757565b6084359060ff8216820361027757565b346102775760c036600319011261027757610dc66103f8565b60243590604435610dd5610d8d565b6084359060a43592804211610ead5791610e5a9391610e4c610e519460405160208101917fe48329057bfd03d55e49b547132e39cffd9c1820ad7b9d4c5307691425d15adf835260018060a01b038a1660408301528a6060830152608082015260808152610e4460a0826112b6565b519020611787565b611c80565b90929192611d1f565b6001600160a01b0381166000908152600760205260409020805460018101909155809303610e8c5761054292506116d5565b90506301d4b62360e61b60005260018060a01b031660045260245260446000fd5b632341d78760e11b60005260045260246000fd5b346102775760e036600319011261027757610eda6103f8565b610ee261040e565b6044359060643592610ef2610d9d565b60a43560c43590864211610fd5576001600160a01b0384166000908152600760205260409020805460018101909155610f989390610f93909860405160208101917f6e71edae12b1b97f4d1f60370fef10105fa2faae0126114a169c64845d6126c9835260018060a01b0389169b8c604084015260018060a01b038b1660608401528b608084015260a083015260c082015260c08152610e4460e0826112b6565b6117ad565b936001600160a01b03851603610fb25761054293506117bc565b6325c0072360e11b6000526001600160a01b038085166004521660245260446000fd5b8663313c898160e11b60005260045260246000fd5b346102775760403660031901126102775760206110396110086103f8565b61101061040e565b6001600160a01b0391821660009081526001855260408082209290931681526020919091522090565b54604051908152f35b346102775760203660031901126102775761105b6103f8565b611063611393565b601080546001600160a01b0319166001600160a01b0392909216919091179055005b346102775760403660031901126102775761109e6103f8565b6024359063ffffffff8216820361027757610371916110ee916110bf61137a565b506110c861137a565b506001600160a01b031660009081526009602052604090206110e861137a565b50611da1565b50604051906110fc82611295565b5465ffffffffffff811680835260309190911c60209283019081526040805192835290516001600160d01b031692820192909252918291820190565b34610277576020366003190112610277576111516103f8565b611159611393565b6001600160a01b031680156111ac57600b80546001600160a01b0319811683179091556001600160a01b03167f8be0079c531659141344cd1fd0a4f28419497f9722a3daafe3b4186f6b6457e0600080a3005b631e4fbdf760e01b600052600060045260246000fd5b90600182811c921680156111f2575b60208310146111dc57565b634e487b7160e01b600052602260045260246000fd5b91607f16916111d1565b6000929181549161120c836111c2565b8083529260018116908115611262575060011461122857505050565b60009081526020812093945091925b838310611248575060209250010190565b600181602092949394548385870101520191019190611237565b915050602093945060ff929192191683830152151560051b010190565b634e487b7160e01b600052604160045260246000fd5b6040810190811067ffffffffffffffff8211176112b157604052565b61127f565b90601f8019910116810190811067ffffffffffffffff8211176112b157604052565b156112df57565b60405162461bcd60e51b815260206004820152601b60248201527f4772617669476f763a204e6f7420656e6f75676820746f6b656e7300000000006044820152606490fd5b634e487b7160e01b600052601160045260246000fd5b8181029291811591840414171561073457565b6040513d6000823e3d90fd5b604051906113686040836112b6565b565b9061137591336113bc565b600190565b6040519061138782611295565b60006020838281520152565b600b546001600160a01b031633036113a757565b63118cdaa760e01b6000523360045260246000fd5b6001600160a01b0381169392919084156114a5576001600160a01b038216801561148f576001600160a01b038216600090815260208190526040812054969085881061147557856113689798036114258560018060a01b03166000526000602052604060002090565b55506001600160a01b0384166000908152602081815260409182902080548801905590518681527fddf252ad1be2c89b69c2b068fc378daa952ba7f163c4a11628f55a4df523b3ef9190a3611f5c565b858860649363391434e360e21b8452600452602452604452fd5b63ec442f0560e01b600052600060045260246000fd5b634b637e8f60e11b600052600060045260246000fd5b307f00000000000000000000000000000000000000000000000000000000000000006001600160a01b031614806115ae575b15611516577f000000000000000000000000000000000000000000000000000000000000000090565b60405160208101907f8b73c3c69bb8fe3d512ecc4cf759cc79239f7b179b0ffacaa9a75d522b39400f82527f000000000000000000000000000000000000000000000000000000000000000060408201527f000000000000000000000000000000000000000000000000000000000000000060608201524660808201523060a082015260a081526115a860c0826112b6565b51902090565b507f000000000000000000000000000000000000000000000000000000000000000046146114ed565b65ffffffffffff6115e7436118ab565b16808210156115fa5750610318906118ab565b90637669fc0f60e11b60005260045260245260446000fd5b60001981019190821161073457565b906001820180921161073457565b6001600160a01b038116929190831561148f57600254828101809111610734576002556001600160a01b0381166000908152602081815260408083208054860190555184815291959186917fddf252ad1be2c89b69c2b068fc378daa952ba7f163c4a11628f55a4df523b3ef91a3600254936001600160d01b038086116116bd575050611368929350611ed8565b630e58ae9360e11b8252600486905260245260449150fd5b6001600160a01b03818116600081815260086020526040812080548685166001600160a01b031982168117909255611368969416946117529390928691907f3134e8a2e6d97e929a7e54011ea5485d7d196dd5f0ba4d4ef95803e8e3fc257f9080a46001600160a01b031660009081526020819052604090205490565b91611ac1565b80549081611767575050600090565b816000198101116107345760005260001990602060002001015460301c90565b6042906117926114bb565b906040519161190160f01b8352600283015260228201522090565b916103189391610e5193611c80565b6001600160a01b031690811561184b576001600160a01b03811692831561183557806118287f8c5be1e5ebec7d5bd14f71427d1e84f3dd0314c0f7b2291e5b200ac8c7c3b9259385600052600160205260406000209060018060a01b0316600052602052604060002090565b55604051908152602090a3565b634a1406b160e11b600052600060045260246000fd5b63e602df0560e01b600052600060045260246000fd5b6001600160a01b031690811561184b576001600160a01b03811615611835576118a891600052600160205260406000209060018060a01b0316600052602052604060002090565b55565b65ffffffffffff81116118c35765ffffffffffff1690565b6306dfcc6560e41b600052603060045260245260446000fd5b81156118e6570490565b634e487b7160e01b600052601260045260246000fd5b600181111561031857806001600160801b821015611a1d575b6119c36119b96119af6119a561199b6119916119806119ca9760046119cf9a600160401b811015611a10575b640100000000811015611a03575b620100008110156119f6575b6101008110156119e9575b60108110156119dc575b10156119d4575b60030260011c90565b61198a818b6118dc565b0160011c90565b61198a818a6118dc565b61198a81896118dc565b61198a81886118dc565b61198a81876118dc565b61198a81866118dc565b80936118dc565b821190565b900390565b60011b611977565b60041c9160021b91611970565b60081c9160041b91611966565b60101c9160081b9161195b565b60201c9160101b9161194f565b60401c9160201b91611941565b50506119cf6119ca6119c36119b96119af6119a561199b611991611980611a448a60801c90565b9850600160401b97506119159650505050505050565b91905b838210611a6a5750505090565b9091928083169080841860011c8201809211610734578460005265ffffffffffff82602060002001541665ffffffffffff841610600014611aaf5750925b9190611a5d565b939250611abb90611621565b91611aa8565b6001600160a01b03808316939291908116908185141580611bdc575b611ae9575b5050505050565b81611b6e575b505082611afe575b8080611ae2565b6001600160a01b031660009081526009602052604090207fdec2bacdd2f05b59de34da9b523dff8be42e5e38e818c82fdb0bae774387a72491611b4b91611b459091611dcf565b90611e3a565b604080516001600160d01b039384168152919092166020820152a2388080611af7565b6001600160a01b031660009081526009602052604090207fdec2bacdd2f05b59de34da9b523dff8be42e5e38e818c82fdb0bae774387a72490611bba90611bb486611dcf565b90611e02565b604080516001600160d01b039384168152919092166020820152a23880611aef565b50831515611add565b60ff8114611c2f5760ff811690601f8211611c1e576040805192611c0982856112b6565b6020808552840191601f190136833783525290565b632cd44ac360e21b60005260046000fd5b5060405161031881611c428160056111fc565b03826112b6565b60ff8114611c6d5760ff811690601f8211611c1e576040805192611c0982856112b6565b5060405161031881611c428160066111fc565b91906fa2a8918ca85bafe22016d0b997e4df60600160ff1b038411611cf3579160209360809260ff60009560405194855216868401526040830152606082015282805260015afa15610544576000516001600160a01b03811615611ce75790600090600090565b50600090600190600090565b50505060009160039190565b60041115611d0957565b634e487b7160e01b600052602160045260246000fd5b611d2881611cff565b80611d31575050565b611d3a81611cff565b60018103611d535763f645eedf60e01b60005260046000fd5b611d5c81611cff565b60028103611d79575063fce698f760e01b60005260045260246000fd5b80611d85600392611cff565b14611d8d5750565b6335e2f38360e21b60005260045260246000fd5b8054821015611db95760005260206000200190600090565b634e487b7160e01b600052603260045260246000fd5b6001600160d01b038111611de9576001600160d01b031690565b6306dfcc6560e41b60005260d060045260245260446000fd5b90611e0c436118ab565b90611e1683611758565b6001600160d01b03918216908216039190821161073457611e3692612031565b9091565b90611e44436118ab565b90611e4e83611758565b6001600160d01b03918216908216019190821161073457611e3692612031565b611e77436118ab565b90611e82600a611758565b6001600160d01b039182169082160190811161073457611e3691600a612031565b611eac436118ab565b90611eb7600a611758565b6001600160d01b039182169082160390811161073457611e3691600a612031565b9061136891611eee611ee983611dcf565b611e6e565b50506001600160a01b03168015611f44575b60086020527f5eff886ea0ce6ca488a3d6e336d6c0f75f46d19b42c06ce5ee98e42c96d256c75460009182526040909120546001600160a01b039081169116611ac1565b611f55611f5083611dcf565b611ea3565b5050611f00565b61136892916001600160a01b03909116908115611fc0575b6001600160a01b0316908115611fad575b600090815260086020526040808220549282529020546001600160a01b039081169116611ac1565b611fb9611f5084611dcf565b5050611f85565b611fcc611ee984611dcf565b5050611f74565b8054600160401b8110156112b157611ff091600182018155611da1565b61201b57815160209092015160301b65ffffffffffff191665ffffffffffff92909216919091179055565b634e487b7160e01b600052600060045260246000fd5b805492939280156120e15761204861205591611612565b8260005260206000200190565b8054603081901c9365ffffffffffff918216929181168084116120d05787930361209c575061209892509065ffffffffffff82549181199060301b169116179055565b9190565b915050612098916120bc6120ae611359565b65ffffffffffff9093168352565b6001600160d01b0386166020830152611fd3565b632520601d60e01b60005260046000fd5b5090612106916120f26120ae611359565b6001600160d01b0385166020830152611fd3565b6000919056fea2646970667358221220099e71d62a403b4f67f847ed3e04102e7a563c88d87cbee2e3138c9a220623af64736f6c634300081c0033",
  "linkReferences": {},
  "deployedLinkReferences": {}
}