{
  "_format": "hh-sol-artifact-1",
  "contractName": "GraviGov",
  "sourceName": "contracts/tokens/GraviGov.sol",
  "abi": [
    {
      "inputs": [
        {
          "internalType": "address",
          "name": "_charityToken",
          "type": "address"
        }
      ],
      "stateMutability": "nonpayable",
      "type": "constructor"
    },
    {
      "inputs": [],
      "name": "CheckpointUnorderedInsertion",
      "type": "error"
    },
    {
      "inputs": [],
      "name": "ECDSAInvalidSignature",
      "type": "error"
    },
    {
      "inputs": [
        {
          "internalType": "uint256",
          "name": "length",
          "type": "uint256"
        }
      ],
      "name": "ECDSAInvalidSignatureLength",
      "type": "error"
    },
    {
      "inputs": [
        {
          "internalType": "bytes32",
          "name": "s",
          "type": "bytes32"
        }
      ],
      "name": "ECDSAInvalidSignatureS",
      "type": "error"
    },
    {
      "inputs": [
        {
          "internalType": "uint256",
          "name": "increasedSupply",
          "type": "uint256"
        },
        {
          "internalType": "uint256",
          "name": "cap",
          "type": "uint256"
        }
      ],
      "name": "ERC20ExceededSafeSupply",
      "type": "error"
    },
    {
      "inputs": [
        {
          "internalType": "address",
          "name": "spender",
          "type": "address"
        },
        {
          "internalType": "uint256",
          "name": "allowance",
          "type": "uint256"
        },
        {
          "internalType": "uint256",
          "name": "needed",
          "type": "uint256"
        }
      ],
      "name": "ERC20InsufficientAllowance",
      "type": "error"
    },
    {
      "inputs": [
        {
          "internalType": "address",
          "name": "sender",
          "type": "address"
        },
        {
          "internalType": "uint256",
          "name": "balance",
          "type": "uint256"
        },
        {
          "internalType": "uint256",
          "name": "needed",
          "type": "uint256"
        }
      ],
      "name": "ERC20InsufficientBalance",
      "type": "error"
    },
    {
      "inputs": [
        {
          "internalType": "address",
          "name": "approver",
          "type": "address"
        }
      ],
      "name": "ERC20InvalidApprover",
      "type": "error"
    },
    {
      "inputs": [
        {
          "internalType": "address",
          "name": "receiver",
          "type": "address"
        }
      ],
      "name": "ERC20InvalidReceiver",
      "type": "error"
    },
    {
      "inputs": [
        {
          "internalType": "address",
          "name": "sender",
          "type": "address"
        }
      ],
      "name": "ERC20InvalidSender",
      "type": "error"
    },
    {
      "inputs": [
        {
          "internalType": "address",
          "name": "spender",
          "type": "address"
        }
      ],
      "name": "ERC20InvalidSpender",
      "type": "error"
    },
    {
      "inputs": [
        {
          "internalType": "uint256",
          "name": "deadline",
          "type": "uint256"
        }
      ],
      "name": "ERC2612ExpiredSignature",
      "type": "error"
    },
    {
      "inputs": [
        {
          "internalType": "address",
          "name": "signer",
          "type": "address"
        },
        {
          "internalType": "address",
          "name": "owner",
          "type": "address"
        }
      ],
      "name": "ERC2612InvalidSigner",
      "type": "error"
    },
    {
      "inputs": [
        {
          "internalType": "uint256",
          "name": "timepoint",
          "type": "uint256"
        },
        {
          "internalType": "uint48",
          "name": "clock",
          "type": "uint48"
        }
      ],
      "name": "ERC5805FutureLookup",
      "type": "error"
    },
    {
      "inputs": [],
      "name": "ERC6372InconsistentClock",
      "type": "error"
    },
    {
      "inputs": [
        {
          "internalType": "address",
          "name": "account",
          "type": "address"
        },
        {
          "internalType": "uint256",
          "name": "currentNonce",
          "type": "uint256"
        }
      ],
      "name": "InvalidAccountNonce",
      "type": "error"
    },
    {
      "inputs": [],
      "name": "InvalidShortString",
      "type": "error"
    },
    {
      "inputs": [
        {
          "internalType": "address",
          "name": "owner",
          "type": "address"
        }
      ],
      "name": "OwnableInvalidOwner",
      "type": "error"
    },
    {
      "inputs": [
        {
          "internalType": "address",
          "name": "account",
          "type": "address"
        }
      ],
      "name": "OwnableUnauthorizedAccount",
      "type": "error"
    },
    {
      "inputs": [
        {
          "internalType": "uint8",
          "name": "bits",
          "type": "uint8"
        },
        {
          "internalType": "uint256",
          "name": "value",
          "type": "uint256"
        }
      ],
      "name": "SafeCastOverflowedUintDowncast",
      "type": "error"
    },
    {
      "inputs": [
        {
          "internalType": "string",
          "name": "str",
          "type": "string"
        }
      ],
      "name": "StringTooLong",
      "type": "error"
    },
    {
      "inputs": [
        {
          "internalType": "uint256",
          "name": "expiry",
          "type": "uint256"
        }
      ],
      "name": "VotesExpiredSignature",
      "type": "error"
    },
    {
      "anonymous": false,
      "inputs": [
        {
          "indexed": true,
          "internalType": "address",
          "name": "owner",
          "type": "address"
        },
        {
          "indexed": true,
          "internalType": "address",
          "name": "spender",
          "type": "address"
        },
        {
          "indexed": false,
          "internalType": "uint256",
          "name": "value",
          "type": "uint256"
        }
      ],
      "name": "Approval",
      "type": "event"
    },
    {
      "anonymous": false,
      "inputs": [
        {
          "indexed": true,
          "internalType": "address",
          "name": "delegator",
          "type": "address"
        },
        {
          "indexed": true,
          "internalType": "address",
          "name": "fromDelegate",
          "type": "address"
        },
        {
          "indexed": true,
          "internalType": "address",
          "name": "toDelegate",
          "type": "address"
        }
      ],
      "name": "DelegateChanged",
      "type": "event"
    },
    {
      "anonymous": false,
      "inputs": [
        {
          "indexed": true,
          "internalType": "address",
          "name": "delegate",
          "type": "address"
        },
        {
          "indexed": false,
          "internalType": "uint256",
          "name": "previousVotes",
          "type": "uint256"
        },
        {
          "indexed": false,
          "internalType": "uint256",
          "name": "newVotes",
          "type": "uint256"
        }
      ],
      "name": "DelegateVotesChanged",
      "type": "event"
    },
    {
      "anonymous": false,
      "inputs": [],
      "name": "EIP712DomainChanged",
      "type": "event"
    },
    {
      "anonymous": false,
      "inputs": [
        {
          "indexed": true,
          "internalType": "address",
          "name": "previousOwner",
          "type": "address"
        },
        {
          "indexed": true,
          "internalType": "address",
          "name": "newOwner",
          "type": "address"
        }
      ],
      "name": "OwnershipTransferred",
      "type": "event"
    },
    {
      "anonymous": false,
      "inputs": [
        {
          "indexed": true,
          "internalType": "address",
          "name": "from",
          "type": "address"
        },
        {
          "indexed": true,
          "internalType": "address",
          "name": "to",
          "type": "address"
        },
        {
          "indexed": false,
          "internalType": "uint256",
          "name": "value",
          "type": "uint256"
        }
      ],
      "name": "Transfer",
      "type": "event"
    },
    {
      "inputs": [],
      "name": "CLOCK_MODE",
      "outputs": [
        {
          "internalType": "string",
          "name": "",
          "type": "string"
        }
      ],
      "stateMutability": "view",
      "type": "function"
    },
    {
      "inputs": [],
      "name": "DOMAIN_SEPARATOR",
      "outputs": [
        {
          "internalType": "bytes32",
          "name": "",
          "type": "bytes32"
        }
      ],
      "stateMutability": "view",
      "type": "function"
    },
    {
      "inputs": [],
      "name": "MONTHLY_MINT",
      "outputs": [
        {
          "internalType": "uint256",
          "name": "",
          "type": "uint256"
        }
      ],
      "stateMutability": "view",
      "type": "function"
    },
    {
      "inputs": [
        {
          "internalType": "address",
          "name": "owner",
          "type": "address"
        },
        {
          "internalType": "address",
          "name": "spender",
          "type": "address"
        }
      ],
      "name": "allowance",
      "outputs": [
        {
          "internalType": "uint256",
          "name": "",
          "type": "uint256"
        }
      ],
      "stateMutability": "view",
      "type": "function"
    },
    {
      "inputs": [
        {
          "internalType": "address",
          "name": "spender",
          "type": "address"
        },
        {
          "internalType": "uint256",
          "name": "value",
          "type": "uint256"
        }
      ],
      "name": "approve",
      "outputs": [
        {
          "internalType": "bool",
          "name": "",
          "type": "bool"
        }
      ],
      "stateMutability": "nonpayable",
      "type": "function"
    },
    {
      "inputs": [
        {
          "internalType": "address",
          "name": "account",
          "type": "address"
        }
      ],
      "name": "balanceOf",
      "outputs": [
        {
          "internalType": "uint256",
          "name": "",
          "type": "uint256"
        }
      ],
      "stateMutability": "view",
      "type": "function"
    },
    {
      "inputs": [
        {
          "internalType": "uint256",
          "name": "value",
          "type": "uint256"
        }
      ],
      "name": "burn",
      "outputs": [],
      "stateMutability": "nonpayable",
      "type": "function"
    },
    {
      "inputs": [
        {
          "internalType": "address",
          "name": "account",
          "type": "address"
        },
        {
          "internalType": "uint256",
          "name": "value",
          "type": "uint256"
        }
      ],
      "name": "burnFrom",
      "outputs": [],
      "stateMutability": "nonpayable",
      "type": "function"
    },
    {
      "inputs": [
        {
          "internalType": "uint256",
          "name": "amount",
          "type": "uint256"
        }
      ],
      "name": "burnToCharityTokens",
      "outputs": [],
      "stateMutability": "nonpayable",
      "type": "function"
    },
    {
      "inputs": [],
      "name": "charityToken",
      "outputs": [
        {
          "internalType": "contract IGraviCha",
          "name": "",
          "type": "address"
        }
      ],
      "stateMutability": "view",
      "type": "function"
    },
    {
      "inputs": [],
      "name": "charityTokenExchangeRate",
      "outputs": [
        {
          "internalType": "uint256",
          "name": "",
          "type": "uint256"
        }
      ],
      "stateMutability": "view",
      "type": "function"
    },
    {
      "inputs": [
        {
          "internalType": "address",
          "name": "account",
          "type": "address"
        },
        {
          "internalType": "uint32",
          "name": "pos",
          "type": "uint32"
        }
      ],
      "name": "checkpoints",
      "outputs": [
        {
          "components": [
            {
              "internalType": "uint48",
              "name": "_key",
              "type": "uint48"
            },
            {
              "internalType": "uint208",
              "name": "_value",
              "type": "uint208"
            }
          ],
          "internalType": "struct Checkpoints.Checkpoint208",
          "name": "",
          "type": "tuple"
        }
      ],
      "stateMutability": "view",
      "type": "function"
    },
    {
      "inputs": [],
      "name": "clock",
      "outputs": [
        {
          "internalType": "uint48",
          "name": "",
          "type": "uint48"
        }
      ],
      "stateMutability": "view",
      "type": "function"
    },
    {
      "inputs": [],
      "name": "decimals",
      "outputs": [
        {
          "internalType": "uint8",
          "name": "",
          "type": "uint8"
        }
      ],
      "stateMutability": "view",
      "type": "function"
    },
    {
      "inputs": [
        {
          "internalType": "address",
          "name": "delegatee",
          "type": "address"
        }
      ],
      "name": "delegate",
      "outputs": [],
      "stateMutability": "nonpayable",
      "type": "function"
    },
    {
      "inputs": [
        {
          "internalType": "address",
          "name": "delegatee",
          "type": "address"
        },
        {
          "internalType": "uint256",
          "name": "nonce",
          "type": "uint256"
        },
        {
          "internalType": "uint256",
          "name": "expiry",
          "type": "uint256"
        },
        {
          "internalType": "uint8",
          "name": "v",
          "type": "uint8"
        },
        {
          "internalType": "bytes32",
          "name": "r",
          "type": "bytes32"
        },
        {
          "internalType": "bytes32",
          "name": "s",
          "type": "bytes32"
        }
      ],
      "name": "delegateBySig",
      "outputs": [],
      "stateMutability": "nonpayable",
      "type": "function"
    },
    {
      "inputs": [
        {
          "internalType": "address",
          "name": "account",
          "type": "address"
        }
      ],
      "name": "delegates",
      "outputs": [
        {
          "internalType": "address",
          "name": "",
          "type": "address"
        }
      ],
      "stateMutability": "view",
      "type": "function"
    },
    {
      "inputs": [],
      "name": "eip712Domain",
      "outputs": [
        {
          "internalType": "bytes1",
          "name": "fields",
          "type": "bytes1"
        },
        {
          "internalType": "string",
          "name": "name",
          "type": "string"
        },
        {
          "internalType": "string",
          "name": "version",
          "type": "string"
        },
        {
          "internalType": "uint256",
          "name": "chainId",
          "type": "uint256"
        },
        {
          "internalType": "address",
          "name": "verifyingContract",
          "type": "address"
        },
        {
          "internalType": "bytes32",
          "name": "salt",
          "type": "bytes32"
        },
        {
          "internalType": "uint256[]",
          "name": "extensions",
          "type": "uint256[]"
        }
      ],
      "stateMutability": "view",
      "type": "function"
    },
    {
      "inputs": [
        {
          "internalType": "uint256",
          "name": "timepoint",
          "type": "uint256"
        }
      ],
      "name": "getPastTotalSupply",
      "outputs": [
        {
          "internalType": "uint256",
          "name": "",
          "type": "uint256"
        }
      ],
      "stateMutability": "view",
      "type": "function"
    },
    {
      "inputs": [
        {
          "internalType": "address",
          "name": "account",
          "type": "address"
        },
        {
          "internalType": "uint256",
          "name": "timepoint",
          "type": "uint256"
        }
      ],
      "name": "getPastVotes",
      "outputs": [
        {
          "internalType": "uint256",
          "name": "",
          "type": "uint256"
        }
      ],
      "stateMutability": "view",
      "type": "function"
    },
    {
      "inputs": [
        {
          "internalType": "address",
          "name": "account",
          "type": "address"
        }
      ],
      "name": "getVotes",
      "outputs": [
        {
          "internalType": "uint256",
          "name": "",
          "type": "uint256"
        }
      ],
      "stateMutability": "view",
      "type": "function"
    },
    {
      "inputs": [],
      "name": "lastMintTimestamp",
      "outputs": [
        {
          "internalType": "uint256",
          "name": "",
          "type": "uint256"
        }
      ],
      "stateMutability": "view",
      "type": "function"
    },
    {
      "inputs": [],
      "name": "mintMonthly",
      "outputs": [],
      "stateMutability": "nonpayable",
      "type": "function"
    },
    {
      "inputs": [],
      "name": "monthlyMintAvailable",
      "outputs": [
        {
          "internalType": "bool",
          "name": "",
          "type": "bool"
        }
      ],
      "stateMutability": "view",
      "type": "function"
    },
    {
      "inputs": [],
      "name": "name",
      "outputs": [
        {
          "internalType": "string",
          "name": "",
          "type": "string"
        }
      ],
      "stateMutability": "view",
      "type": "function"
    },
    {
      "inputs": [
        {
          "internalType": "address",
          "name": "owner",
          "type": "address"
        }
      ],
      "name": "nonces",
      "outputs": [
        {
          "internalType": "uint256",
          "name": "",
          "type": "uint256"
        }
      ],
      "stateMutability": "view",
      "type": "function"
    },
    {
      "inputs": [
        {
          "internalType": "address",
          "name": "account",
          "type": "address"
        }
      ],
      "name": "numCheckpoints",
      "outputs": [
        {
          "internalType": "uint32",
          "name": "",
          "type": "uint32"
        }
      ],
      "stateMutability": "view",
      "type": "function"
    },
    {
      "inputs": [],
      "name": "owner",
      "outputs": [
        {
          "internalType": "address",
          "name": "",
          "type": "address"
        }
      ],
      "stateMutability": "view",
      "type": "function"
    },
    {
      "inputs": [
        {
          "internalType": "address",
          "name": "owner",
          "type": "address"
        },
        {
          "internalType": "address",
          "name": "spender",
          "type": "address"
        },
        {
          "internalType": "uint256",
          "name": "value",
          "type": "uint256"
        },
        {
          "internalType": "uint256",
          "name": "deadline",
          "type": "uint256"
        },
        {
          "internalType": "uint8",
          "name": "v",
          "type": "uint8"
        },
        {
          "internalType": "bytes32",
          "name": "r",
          "type": "bytes32"
        },
        {
          "internalType": "bytes32",
          "name": "s",
          "type": "bytes32"
        }
      ],
      "name": "permit",
      "outputs": [],
      "stateMutability": "nonpayable",
      "type": "function"
    },
    {
      "inputs": [],
      "name": "renounceOwnership",
      "outputs": [],
      "stateMutability": "nonpayable",
      "type": "function"
    },
    {
      "inputs": [
        {
          "internalType": "uint256",
          "name": "_charityTokenExchangeRate",
          "type": "uint256"
        }
      ],
      "name": "setCharityTokenExchangeRate",
      "outputs": [],
      "stateMutability": "nonpayable",
      "type": "function"
    },
    {
      "inputs": [],
      "name": "symbol",
      "outputs": [
        {
          "internalType": "string",
          "name": "",
          "type": "string"
        }
      ],
      "stateMutability": "view",
      "type": "function"
    },
    {
      "inputs": [],
      "name": "totalSupply",
      "outputs": [
        {
          "internalType": "uint256",
          "name": "",
          "type": "uint256"
        }
      ],
      "stateMutability": "view",
      "type": "function"
    },
    {
      "inputs": [
        {
          "internalType": "address",
          "name": "to",
          "type": "address"
        },
        {
          "internalType": "uint256",
          "name": "value",
          "type": "uint256"
        }
      ],
      "name": "transfer",
      "outputs": [
        {
          "internalType": "bool",
          "name": "",
          "type": "bool"
        }
      ],
      "stateMutability": "nonpayable",
      "type": "function"
    },
    {
      "inputs": [
        {
          "internalType": "address",
          "name": "from",
          "type": "address"
        },
        {
          "internalType": "address",
          "name": "to",
          "type": "address"
        },
        {
          "internalType": "uint256",
          "name": "value",
          "type": "uint256"
        }
      ],
      "name": "transferFrom",
      "outputs": [
        {
          "internalType": "bool",
          "name": "",
          "type": "bool"
        }
      ],
      "stateMutability": "nonpayable",
      "type": "function"
    },
    {
      "inputs": [
        {
          "internalType": "address",
          "name": "newOwner",
          "type": "address"
        }
      ],
      "name": "transferOwnership",
      "outputs": [],
      "stateMutability": "nonpayable",
      "type": "function"
    }
  ],
  "bytecode": "0x6101606040526103e8600d5534801561001757600080fd5b50604051614945380380614945833981810160405281019061003991906104f6565b336040518060400160405280600881526020017f4772617669476f76000000000000000000000000000000000000000000000000815250806040518060400160405280600181526020017f31000000000000000000000000000000000000000000000000000000000000008152506040518060400160405280600881526020017f4772617669476f760000000000000000000000000000000000000000000000008152506040518060400160405280600481526020017f47474f560000000000000000000000000000000000000000000000000000000081525081600390816101229190610773565b5080600490816101329190610773565b5050506101496005836102b060201b90919060201c565b61012081815250506101656006826102b060201b90919060201c565b6101408181525050818051906020012060e08181525050808051906020012061010081815250504660a081815250506101a261030060201b60201c565b608081815250503073ffffffffffffffffffffffffffffffffffffffff1660c08173ffffffffffffffffffffffffffffffffffffffff1681525050505050600073ffffffffffffffffffffffffffffffffffffffff168173ffffffffffffffffffffffffffffffffffffffff16036102525760006040517f1e4fbdf70000000000000000000000000000000000000000000000000000000081526004016102499190610854565b60405180910390fd5b6102618161035b60201b60201c565b5042600c8190555080600e60006101000a81548173ffffffffffffffffffffffffffffffffffffffff021916908373ffffffffffffffffffffffffffffffffffffffff16021790555050610a28565b60006020835110156102d2576102cb8361042160201b60201c565b90506102fa565b826102e28361048960201b60201c565b60000190816102f19190610773565b5060ff60001b90505b92915050565b60007f8b73c3c69bb8fe3d512ecc4cf759cc79239f7b179b0ffacaa9a75d522b39400f60e051610100514630604051602001610340959493929190610897565b60405160208183030381529060405280519060200120905090565b6000600b60009054906101000a900473ffffffffffffffffffffffffffffffffffffffff16905081600b60006101000a81548173ffffffffffffffffffffffffffffffffffffffff021916908373ffffffffffffffffffffffffffffffffffffffff1602179055508173ffffffffffffffffffffffffffffffffffffffff168173ffffffffffffffffffffffffffffffffffffffff167f8be0079c531659141344cd1fd0a4f28419497f9722a3daafe3b4186f6b6457e060405160405180910390a35050565b600080829050601f8151111561046e57826040517f305a27a9000000000000000000000000000000000000000000000000000000008152600401610465919061096f565b60405180910390fd5b80518161047a906109c1565b60001c1760001b915050919050565b6000819050919050565b600080fd5b600073ffffffffffffffffffffffffffffffffffffffff82169050919050565b60006104c382610498565b9050919050565b6104d3816104b8565b81146104de57600080fd5b50565b6000815190506104f0816104ca565b92915050565b60006020828403121561050c5761050b610493565b5b600061051a848285016104e1565b91505092915050565b600081519050919050565b7f4e487b7100000000000000000000000000000000000000000000000000000000600052604160045260246000fd5b7f4e487b7100000000000000000000000000000000000000000000000000000000600052602260045260246000fd5b600060028204905060018216806105a457607f821691505b6020821081036105b7576105b661055d565b5b50919050565b60008190508160005260206000209050919050565b60006020601f8301049050919050565b600082821b905092915050565b60006008830261061f7fffffffffffffffffffffffffffffffffffffffffffffffffffffffffffffffff826105e2565b61062986836105e2565b95508019841693508086168417925050509392505050565b6000819050919050565b6000819050919050565b600061067061066b61066684610641565b61064b565b610641565b9050919050565b6000819050919050565b61068a83610655565b61069e61069682610677565b8484546105ef565b825550505050565b600090565b6106b36106a6565b6106be818484610681565b505050565b5b818110156106e2576106d76000826106ab565b6001810190506106c4565b5050565b601f821115610727576106f8816105bd565b610701846105d2565b81016020851015610710578190505b61072461071c856105d2565b8301826106c3565b50505b505050565b600082821c905092915050565b600061074a6000198460080261072c565b1980831691505092915050565b60006107638383610739565b9150826002028217905092915050565b61077c82610523565b67ffffffffffffffff8111156107955761079461052e565b5b61079f825461058c565b6107aa8282856106e6565b600060209050601f8311600181146107dd57600084156107cb578287015190505b6107d58582610757565b86555061083d565b601f1984166107eb866105bd565b60005b82811015610813578489015182556001820191506020850194506020810190506107ee565b86831015610830578489015161082c601f891682610739565b8355505b6001600288020188555050505b505050505050565b61084e816104b8565b82525050565b60006020820190506108696000830184610845565b92915050565b6000819050919050565b6108828161086f565b82525050565b61089181610641565b82525050565b600060a0820190506108ac6000830188610879565b6108b96020830187610879565b6108c66040830186610879565b6108d36060830185610888565b6108e06080830184610845565b9695505050505050565b600082825260208201905092915050565b60005b838110156109195780820151818401526020810190506108fe565b60008484015250505050565b6000601f19601f8301169050919050565b600061094182610523565b61094b81856108ea565b935061095b8185602086016108fb565b61096481610925565b840191505092915050565b600060208201905081810360008301526109898184610936565b905092915050565b600081519050919050565b6000819050602082019050919050565b60006109b8825161086f565b80915050919050565b60006109cc82610991565b826109d68461099c565b90506109e1816109ac565b92506020821015610a2157610a1c7fffffffffffffffffffffffffffffffffffffffffffffffffffffffffffffffff836020036008026105e2565b831692505b5050919050565b60805160a05160c05160e051610100516101205161014051613ec3610a82600039600061186c0152600061183101526000611d0f01526000611cee015260006113bb015260006114110152600061143a0152613ec36000f3fe608060405234801561001057600080fd5b506004361061021c5760003560e01c806370a082311161012557806391ddadf4116100ad578063c3cda5201161007c578063c3cda5201461064b578063d505accf14610667578063dd62ed3e14610683578063f1127ed8146106b3578063f2fde38b146106e35761021c565b806391ddadf4146105af57806395d89b41146105cd5780639ab24eb0146105eb578063a9059cbb1461061b5761021c565b806384b0196e116100f457806384b0196e146105155780638da5cb5b146105395780638e539e8c146105575780638e80ff5d146105875780638e8846a1146105a55761021c565b806370a082311461048f578063715018a6146104bf57806379cc6790146104c95780637ecebe00146104e55761021c565b8063313ce567116101a85780634bf5d7e9116101775780634bf5d7e9146103d75780634d362791146103f5578063587cde1e146104135780635c19a95c146104435780636fcfff451461045f5761021c565b8063313ce5671461034f5780633644e5151461036d5780633a46b1a81461038b57806342966c68146103bb5761021c565b8063099217ce116101ef578063099217ce146102a957806318160ddd146102c75780631f87fa20146102e557806323b872dd146103035780632a18e773146103335761021c565b8063012252131461022157806304a6e87e1461023f57806306fdde031461025b578063095ea7b314610279575b600080fd5b6102296106ff565b60405161023691906130aa565b60405180910390f35b61025960048036038101906102549190613100565b610725565b005b610263610737565b60405161027091906131bd565b60405180910390f35b610293600480360381019061028e919061321d565b6107c9565b6040516102a09190613278565b60405180910390f35b6102b16107ec565b6040516102be91906132a2565b60405180910390f35b6102cf6107f2565b6040516102dc91906132a2565b60405180910390f35b6102ed6107fc565b6040516102fa91906132a2565b60405180910390f35b61031d600480360381019061031891906132bd565b61080a565b60405161032a9190613278565b60405180910390f35b61034d60048036038101906103489190613100565b610839565b005b6103576108e2565b604051610364919061332c565b60405180910390f35b6103756108eb565b6040516103829190613360565b60405180910390f35b6103a560048036038101906103a0919061321d565b6108fa565b6040516103b291906132a2565b60405180910390f35b6103d560048036038101906103d09190613100565b610979565b005b6103df61098d565b6040516103ec91906131bd565b60405180910390f35b6103fd610a21565b60405161040a9190613278565b60405180910390f35b61042d6004803603810190610428919061337b565b610a3c565b60405161043a91906133b7565b60405180910390f35b61045d6004803603810190610458919061337b565b610aa5565b005b6104796004803603810190610474919061337b565b610abf565b60405161048691906133f1565b60405180910390f35b6104a960048036038101906104a4919061337b565b610ad1565b6040516104b691906132a2565b60405180910390f35b6104c7610b19565b005b6104e360048036038101906104de919061321d565b610b2d565b005b6104ff60048036038101906104fa919061337b565b610b4d565b60405161050c91906132a2565b60405180910390f35b61051d610b5f565b6040516105309796959493929190613505565b60405180910390f35b610541610c09565b60405161054e91906133b7565b60405180910390f35b610571600480360381019061056c9190613100565b610c33565b60405161057e91906132a2565b60405180910390f35b61058f610c74565b60405161059c91906132a2565b60405180910390f35b6105ad610c7a565b005b6105b7610ca6565b6040516105c491906135aa565b60405180910390f35b6105d5610cb5565b6040516105e291906131bd565b60405180910390f35b6106056004803603810190610600919061337b565b610d47565b60405161061291906132a2565b60405180910390f35b6106356004803603810190610630919061321d565b610db3565b6040516106429190613278565b60405180910390f35b6106656004803603810190610660919061361d565b610dd6565b005b610681600480360381019061067c91906136aa565b610e9c565b005b61069d6004803603810190610698919061374c565b610fe4565b6040516106aa91906132a2565b60405180910390f35b6106cd60048036038101906106c891906137b8565b61106b565b6040516106da919061386b565b60405180910390f35b6106fd60048036038101906106f8919061337b565b611085565b005b600e60009054906101000a900473ffffffffffffffffffffffffffffffffffffffff1681565b61072d61110b565b80600d8190555050565b606060038054610746906138b5565b80601f0160208091040260200160405190810160405280929190818152602001828054610772906138b5565b80156107bf5780601f10610794576101008083540402835291602001916107bf565b820191906000526020600020905b8154815290600101906020018083116107a257829003601f168201915b5050505050905090565b6000806107d4611192565b90506107e181858561119a565b600191505092915050565b600d5481565b6000600254905090565b69021e19e0c9bab240000081565b600080610815611192565b90506108228582856111ac565b61082d858585611241565b60019150509392505050565b6108433382611335565b600e60009054906101000a900473ffffffffffffffffffffffffffffffffffffffff1673ffffffffffffffffffffffffffffffffffffffff166340c10f1933600d54846108909190613915565b6040518363ffffffff1660e01b81526004016108ad929190613957565b600060405180830381600087803b1580156108c757600080fd5b505af11580156108db573d6000803e3d6000fd5b5050505050565b60006012905090565b60006108f56113b7565b905090565b60006109556109088361146e565b600960008673ffffffffffffffffffffffffffffffffffffffff1673ffffffffffffffffffffffffffffffffffffffff1681526020019081526020016000206114da90919063ffffffff16565b79ffffffffffffffffffffffffffffffffffffffffffffffffffff16905092915050565b61098a610984611192565b82611335565b50565b60606109976115d4565b65ffffffffffff166109a7610ca6565b65ffffffffffff16146109e6576040517f6ff0714000000000000000000000000000000000000000000000000000000000815260040160405180910390fd5b6040518060400160405280601d81526020017f6d6f64653d626c6f636b6e756d6265722666726f6d3d64656661756c74000000815250905090565b600062278d00600c54610a349190613980565b421015905090565b6000600860008373ffffffffffffffffffffffffffffffffffffffff1673ffffffffffffffffffffffffffffffffffffffff16815260200190815260200160002060009054906101000a900473ffffffffffffffffffffffffffffffffffffffff169050919050565b6000610aaf611192565b9050610abb81836115e4565b5050565b6000610aca826116f8565b9050919050565b60008060008373ffffffffffffffffffffffffffffffffffffffff1673ffffffffffffffffffffffffffffffffffffffff168152602001908152602001600020549050919050565b610b2161110b565b610b2b6000611750565b565b610b3f82610b39611192565b836111ac565b610b498282611335565b5050565b6000610b5882611816565b9050919050565b600060608060008060006060610b73611828565b610b7b611863565b46306000801b600067ffffffffffffffff811115610b9c57610b9b6139b4565b5b604051908082528060200260200182016040528015610bca5781602001602082028036833780820191505090505b507f0f00000000000000000000000000000000000000000000000000000000000000959493929190965096509650965096509650965090919293949596565b6000600b60009054906101000a900473ffffffffffffffffffffffffffffffffffffffff16905090565b6000610c51610c418361146e565b600a6114da90919063ffffffff16565b79ffffffffffffffffffffffffffffffffffffffffffffffffffff169050919050565b600c5481565b610c8261110b565b610c9d610c8d610c09565b69021e19e0c9bab240000061189e565b42600c81905550565b6000610cb06115d4565b905090565b606060048054610cc4906138b5565b80601f0160208091040260200160405190810160405280929190818152602001828054610cf0906138b5565b8015610d3d5780601f10610d1257610100808354040283529160200191610d3d565b820191906000526020600020905b815481529060010190602001808311610d2057829003601f168201915b5050505050905090565b6000610d90600960008473ffffffffffffffffffffffffffffffffffffffff1673ffffffffffffffffffffffffffffffffffffffff168152602001908152602001600020611920565b79ffffffffffffffffffffffffffffffffffffffffffffffffffff169050919050565b600080610dbe611192565b9050610dcb818585611241565b600191505092915050565b83421115610e1b57836040517f4683af0e000000000000000000000000000000000000000000000000000000008152600401610e1291906132a2565b60405180910390fd5b6000610e7d610e757fe48329057bfd03d55e49b547132e39cffd9c1820ad7b9d4c5307691425d15adf898989604051602001610e5a94939291906139e3565b60405160208183030381529060405280519060200120611988565b8585856119a2565b9050610e8981876119d2565b610e9381886115e4565b50505050505050565b83421115610ee157836040517f62791302000000000000000000000000000000000000000000000000000000008152600401610ed891906132a2565b60405180910390fd5b60007f6e71edae12b1b97f4d1f60370fef10105fa2faae0126114a169c64845d6126c9888888610f108c611a2a565b89604051602001610f2696959493929190613a28565b6040516020818303038152906040528051906020012090506000610f4982611988565b90506000610f59828787876119a2565b90508973ffffffffffffffffffffffffffffffffffffffff168173ffffffffffffffffffffffffffffffffffffffff1614610fcd57808a6040517f4b800e46000000000000000000000000000000000000000000000000000000008152600401610fc4929190613a89565b60405180910390fd5b610fd88a8a8a61119a565b50505050505050505050565b6000600160008473ffffffffffffffffffffffffffffffffffffffff1673ffffffffffffffffffffffffffffffffffffffff16815260200190815260200160002060008373ffffffffffffffffffffffffffffffffffffffff1673ffffffffffffffffffffffffffffffffffffffff16815260200190815260200160002054905092915050565b611073612fed565b61107d8383611a81565b905092915050565b61108d61110b565b600073ffffffffffffffffffffffffffffffffffffffff168173ffffffffffffffffffffffffffffffffffffffff16036110ff5760006040517f1e4fbdf70000000000000000000000000000000000000000000000000000000081526004016110f691906133b7565b60405180910390fd5b61110881611750565b50565b611113611192565b73ffffffffffffffffffffffffffffffffffffffff16611131610c09565b73ffffffffffffffffffffffffffffffffffffffff161461119057611154611192565b6040517f118cdaa700000000000000000000000000000000000000000000000000000000815260040161118791906133b7565b60405180910390fd5b565b600033905090565b6111a78383836001611ae2565b505050565b60006111b88484610fe4565b90507fffffffffffffffffffffffffffffffffffffffffffffffffffffffffffffffff81101561123b578181101561122b578281836040517ffb8f41b200000000000000000000000000000000000000000000000000000000815260040161122293929190613ab2565b60405180910390fd5b61123a84848484036000611ae2565b5b50505050565b600073ffffffffffffffffffffffffffffffffffffffff168373ffffffffffffffffffffffffffffffffffffffff16036112b35760006040517f96c6fd1e0000000000000000000000000000000000000000000000000000000081526004016112aa91906133b7565b60405180910390fd5b600073ffffffffffffffffffffffffffffffffffffffff168273ffffffffffffffffffffffffffffffffffffffff16036113255760006040517fec442f0500000000000000000000000000000000000000000000000000000000815260040161131c91906133b7565b60405180910390fd5b611330838383611cb9565b505050565b600073ffffffffffffffffffffffffffffffffffffffff168273ffffffffffffffffffffffffffffffffffffffff16036113a75760006040517f96c6fd1e00000000000000000000000000000000000000000000000000000000815260040161139e91906133b7565b60405180910390fd5b6113b382600083611cb9565b5050565b60007f000000000000000000000000000000000000000000000000000000000000000073ffffffffffffffffffffffffffffffffffffffff163073ffffffffffffffffffffffffffffffffffffffff1614801561143357507f000000000000000000000000000000000000000000000000000000000000000046145b15611460577f0000000000000000000000000000000000000000000000000000000000000000905061146b565b611468611cc9565b90505b90565b600080611479610ca6565b90508065ffffffffffff1683106114c95782816040517fecd3f81e0000000000000000000000000000000000000000000000000000000081526004016114c0929190613ae9565b60405180910390fd5b6114d283611d5f565b915050919050565b60008083600001805490509050600080829050600583111561156257600061150184611db9565b8461150c9190613b12565b905061151b8760000182611f56565b60000160009054906101000a900465ffffffffffff1665ffffffffffff168665ffffffffffff16101561155057809150611560565b60018161155d9190613980565b92505b505b600061157387600001878585611f6b565b9050600081146115c557611596876000016001836115919190613b12565b611f56565b60000160069054906101000a900479ffffffffffffffffffffffffffffffffffffffffffffffffffff166115c8565b60005b94505050505092915050565b60006115df43611d5f565b905090565b60006115ef83610a3c565b905081600860008573ffffffffffffffffffffffffffffffffffffffff1673ffffffffffffffffffffffffffffffffffffffff16815260200190815260200160002060006101000a81548173ffffffffffffffffffffffffffffffffffffffff021916908373ffffffffffffffffffffffffffffffffffffffff1602179055508173ffffffffffffffffffffffffffffffffffffffff168173ffffffffffffffffffffffffffffffffffffffff168473ffffffffffffffffffffffffffffffffffffffff167f3134e8a2e6d97e929a7e54011ea5485d7d196dd5f0ba4d4ef95803e8e3fc257f60405160405180910390a46116f381836116ee86611fe4565b611ff6565b505050565b6000611749611744600960008573ffffffffffffffffffffffffffffffffffffffff1673ffffffffffffffffffffffffffffffffffffffff16815260200190815260200160002061226f565b612280565b9050919050565b6000600b60009054906101000a900473ffffffffffffffffffffffffffffffffffffffff16905081600b60006101000a81548173ffffffffffffffffffffffffffffffffffffffff021916908373ffffffffffffffffffffffffffffffffffffffff1602179055508173ffffffffffffffffffffffffffffffffffffffff168173ffffffffffffffffffffffffffffffffffffffff167f8be0079c531659141344cd1fd0a4f28419497f9722a3daafe3b4186f6b6457e060405160405180910390a35050565b6000611821826122d8565b9050919050565b606061185e60057f000000000000000000000000000000000000000000000000000000000000000061232190919063ffffffff16565b905090565b606061189960067f000000000000000000000000000000000000000000000000000000000000000061232190919063ffffffff16565b905090565b600073ffffffffffffffffffffffffffffffffffffffff168273ffffffffffffffffffffffffffffffffffffffff16036119105760006040517fec442f0500000000000000000000000000000000000000000000000000000000815260040161190791906133b7565b60405180910390fd5b61191c60008383611cb9565b5050565b600080826000018054905090506000811461197d5761194e836000016001836119499190613b12565b611f56565b60000160069054906101000a900479ffffffffffffffffffffffffffffffffffffffffffffffffffff16611980565b60005b915050919050565b600061199b6119956113b7565b836123d1565b9050919050565b6000806000806119b488888888612412565b9250925092506119c48282612506565b829350505050949350505050565b60006119dd83611a2a565b9050808214611a255782816040517f752d88c0000000000000000000000000000000000000000000000000000000008152600401611a1c929190613957565b60405180910390fd5b505050565b6000600760008373ffffffffffffffffffffffffffffffffffffffff1673ffffffffffffffffffffffffffffffffffffffff1681526020019081526020016000206000815480929190600101919050559050919050565b611a89612fed565b611ada82600960008673ffffffffffffffffffffffffffffffffffffffff1673ffffffffffffffffffffffffffffffffffffffff16815260200190815260200160002061266a90919063ffffffff16565b905092915050565b600073ffffffffffffffffffffffffffffffffffffffff168473ffffffffffffffffffffffffffffffffffffffff1603611b545760006040517fe602df05000000000000000000000000000000000000000000000000000000008152600401611b4b91906133b7565b60405180910390fd5b600073ffffffffffffffffffffffffffffffffffffffff168373ffffffffffffffffffffffffffffffffffffffff1603611bc65760006040517f94280d62000000000000000000000000000000000000000000000000000000008152600401611bbd91906133b7565b60405180910390fd5b81600160008673ffffffffffffffffffffffffffffffffffffffff1673ffffffffffffffffffffffffffffffffffffffff16815260200190815260200160002060008573ffffffffffffffffffffffffffffffffffffffff1673ffffffffffffffffffffffffffffffffffffffff168152602001908152602001600020819055508015611cb3578273ffffffffffffffffffffffffffffffffffffffff168473ffffffffffffffffffffffffffffffffffffffff167f8c5be1e5ebec7d5bd14f71427d1e84f3dd0314c0f7b2291e5b200ac8c7c3b92584604051611caa91906132a2565b60405180910390a35b50505050565b611cc483838361273f565b505050565b60007f8b73c3c69bb8fe3d512ecc4cf759cc79239f7b179b0ffacaa9a75d522b39400f7f00000000000000000000000000000000000000000000000000000000000000007f00000000000000000000000000000000000000000000000000000000000000004630604051602001611d44959493929190613b46565b60405160208183030381529060405280519060200120905090565b600065ffffffffffff8016821115611db1576030826040517f6dfcc650000000000000000000000000000000000000000000000000000000008152600401611da8929190613bd4565b60405180910390fd5b819050919050565b600060018211611dcb57819050611f51565b60008290506000600190507001000000000000000000000000000000008210611dfd57608082901c9150604081901b90505b680100000000000000008210611e1c57604082901c9150602081901b90505b6401000000008210611e3757602082901c9150601081901b90505b620100008210611e5057601082901c9150600881901b90505b6101008210611e6857600882901c9150600481901b90505b60108210611e7f57600482901c9150600281901b90505b60048210611e8f57600181901b90505b600181600302901c90506001818581611eab57611eaa613bfd565b5b048201901c90506001818581611ec457611ec3613bfd565b5b048201901c90506001818581611edd57611edc613bfd565b5b048201901c90506001818581611ef657611ef5613bfd565b5b048201901c90506001818581611f0f57611f0e613bfd565b5b048201901c90506001818581611f2857611f27613bfd565b5b048201901c9050611f4a818581611f4257611f41613bfd565b5b0482116127f0565b8103925050505b919050565b60008260005281602060002001905092915050565b60005b81831015611fd9576000611f8284846127fc565b90508465ffffffffffff16611f978783611f56565b60000160009054906101000a900465ffffffffffff1665ffffffffffff161115611fc357809250611fd3565b600181611fd09190613980565b93505b50611f6e565b819050949350505050565b6000611fef82610ad1565b9050919050565b8173ffffffffffffffffffffffffffffffffffffffff168373ffffffffffffffffffffffffffffffffffffffff16141580156120325750600081115b1561226a57600073ffffffffffffffffffffffffffffffffffffffff168373ffffffffffffffffffffffffffffffffffffffff1614612150576000806120c1600960008773ffffffffffffffffffffffffffffffffffffffff1673ffffffffffffffffffffffffffffffffffffffff1681526020019081526020016000206128226120bc86612838565b6128a6565b79ffffffffffffffffffffffffffffffffffffffffffffffffffff16915079ffffffffffffffffffffffffffffffffffffffffffffffffffff1691508473ffffffffffffffffffffffffffffffffffffffff167fdec2bacdd2f05b59de34da9b523dff8be42e5e38e818c82fdb0bae774387a7248383604051612145929190613c2c565b60405180910390a250505b600073ffffffffffffffffffffffffffffffffffffffff168273ffffffffffffffffffffffffffffffffffffffff1614612269576000806121da600960008673ffffffffffffffffffffffffffffffffffffffff1673ffffffffffffffffffffffffffffffffffffffff1681526020019081526020016000206128e66121d586612838565b6128a6565b79ffffffffffffffffffffffffffffffffffffffffffffffffffff16915079ffffffffffffffffffffffffffffffffffffffffffffffffffff1691508373ffffffffffffffffffffffffffffffffffffffff167fdec2bacdd2f05b59de34da9b523dff8be42e5e38e818c82fdb0bae774387a724838360405161225e929190613c2c565b60405180910390a250505b5b505050565b600081600001805490509050919050565b600063ffffffff80168211156122d0576020826040517f6dfcc6500000000000000000000000000000000000000000000000000000000081526004016122c7929190613c90565b60405180910390fd5b819050919050565b6000600760008373ffffffffffffffffffffffffffffffffffffffff1673ffffffffffffffffffffffffffffffffffffffff168152602001908152602001600020549050919050565b606060ff60001b831461233e57612337836128fc565b90506123cb565b81805461234a906138b5565b80601f0160208091040260200160405190810160405280929190818152602001828054612376906138b5565b80156123c35780601f10612398576101008083540402835291602001916123c3565b820191906000526020600020905b8154815290600101906020018083116123a657829003601f168201915b505050505090505b92915050565b60006040517f190100000000000000000000000000000000000000000000000000000000000081528360028201528260228201526042812091505092915050565b60008060007f7fffffffffffffffffffffffffffffff5d576e7357a4501ddfe92f46681b20a08460001c11156124525760006003859250925092506124fc565b6000600188888888604051600081526020016040526040516124779493929190613cb9565b6020604051602081039080840390855afa158015612499573d6000803e3d6000fd5b505050602060405103519050600073ffffffffffffffffffffffffffffffffffffffff168173ffffffffffffffffffffffffffffffffffffffff16036124ed57600060016000801b935093509350506124fc565b8060008060001b935093509350505b9450945094915050565b6000600381111561251a57612519613cfe565b5b82600381111561252d5761252c613cfe565b5b0315612666576001600381111561254757612546613cfe565b5b82600381111561255a57612559613cfe565b5b03612591576040517ff645eedf00000000000000000000000000000000000000000000000000000000815260040160405180910390fd5b600260038111156125a5576125a4613cfe565b5b8260038111156125b8576125b7613cfe565b5b036125fd578060001c6040517ffce698f70000000000000000000000000000000000000000000000000000000081526004016125f491906132a2565b60405180910390fd5b6003808111156126105761260f613cfe565b5b82600381111561262357612622613cfe565b5b0361266557806040517fd78bce0c00000000000000000000000000000000000000000000000000000000815260040161265c9190613360565b60405180910390fd5b5b5050565b612672612fed565b826000018263ffffffff168154811061268e5761268d613d2d565b5b906000526020600020016040518060400160405290816000820160009054906101000a900465ffffffffffff1665ffffffffffff1665ffffffffffff1681526020016000820160069054906101000a900479ffffffffffffffffffffffffffffffffffffffffffffffffffff1679ffffffffffffffffffffffffffffffffffffffffffffffffffff1679ffffffffffffffffffffffffffffffffffffffffffffffffffff1681525050905092915050565b61274a838383612970565b600073ffffffffffffffffffffffffffffffffffffffff168373ffffffffffffffffffffffffffffffffffffffff16036127e05760006127886107f2565b90506000612794612b95565b9050808211156127dd5781816040517f1cb15d260000000000000000000000000000000000000000000000000000000081526004016127d4929190613c2c565b60405180910390fd5b50505b6127eb838383612bb9565b505050565b60008115159050919050565b6000600282841861280d9190613d5c565b82841661281a9190613980565b905092915050565b600081836128309190613d8d565b905092915050565b600079ffffffffffffffffffffffffffffffffffffffffffffffffffff801682111561289e5760d0826040517f6dfcc650000000000000000000000000000000000000000000000000000000008152600401612895929190613e16565b60405180910390fd5b819050919050565b6000806128da6128b4610ca6565b6128ca6128c088611920565b868863ffffffff16565b87612c739092919063ffffffff16565b91509150935093915050565b600081836128f49190613e3f565b905092915050565b6060600061290983612c90565b90506000602067ffffffffffffffff811115612928576129276139b4565b5b6040519080825280601f01601f19166020018201604052801561295a5781602001600182028036833780820191505090505b5090508181528360208201528092505050919050565b600073ffffffffffffffffffffffffffffffffffffffff168373ffffffffffffffffffffffffffffffffffffffff16036129c25780600260008282546129b69190613980565b92505081905550612a95565b60008060008573ffffffffffffffffffffffffffffffffffffffff1673ffffffffffffffffffffffffffffffffffffffff16815260200190815260200160002054905081811015612a4e578381836040517fe450d38c000000000000000000000000000000000000000000000000000000008152600401612a4593929190613ab2565b60405180910390fd5b8181036000808673ffffffffffffffffffffffffffffffffffffffff1673ffffffffffffffffffffffffffffffffffffffff16815260200190815260200160002081905550505b600073ffffffffffffffffffffffffffffffffffffffff168273ffffffffffffffffffffffffffffffffffffffff1603612ade5780600260008282540392505081905550612b2b565b806000808473ffffffffffffffffffffffffffffffffffffffff1673ffffffffffffffffffffffffffffffffffffffff168152602001908152602001600020600082825401925050819055505b8173ffffffffffffffffffffffffffffffffffffffff168373ffffffffffffffffffffffffffffffffffffffff167fddf252ad1be2c89b69c2b068fc378daa952ba7f163c4a11628f55a4df523b3ef83604051612b8891906132a2565b60405180910390a3505050565b600079ffffffffffffffffffffffffffffffffffffffffffffffffffff8016905090565b600073ffffffffffffffffffffffffffffffffffffffff168373ffffffffffffffffffffffffffffffffffffffff1603612c0657612c03600a6128e6612bfe84612838565b6128a6565b50505b600073ffffffffffffffffffffffffffffffffffffffff168273ffffffffffffffffffffffffffffffffffffffff1603612c5357612c50600a612822612c4b84612838565b6128a6565b50505b612c6e612c5f84610a3c565b612c6884610a3c565b83611ff6565b505050565b600080612c84856000018585612ce0565b91509150935093915050565b60008060ff8360001c169050601f811115612cd7576040517fb3512b0c00000000000000000000000000000000000000000000000000000000815260040160405180910390fd5b80915050919050565b6000806000858054905090506000811115612efd576000612d0d87600184612d089190613b12565b611f56565b905060008160000160009054906101000a900465ffffffffffff16905060008260000160069054906101000a900479ffffffffffffffffffffffffffffffffffffffffffffffffffff1690508765ffffffffffff168265ffffffffffff161115612da3576040517f2520601d00000000000000000000000000000000000000000000000000000000815260040160405180910390fd5b8765ffffffffffff168265ffffffffffff1603612e0e57868360000160066101000a81548179ffffffffffffffffffffffffffffffffffffffffffffffffffff021916908379ffffffffffffffffffffffffffffffffffffffffffffffffffff160217905550612eee565b8860405180604001604052808a65ffffffffffff1681526020018979ffffffffffffffffffffffffffffffffffffffffffffffffffff168152509080600181540180825580915050600190039060005260206000200160009091909190915060008201518160000160006101000a81548165ffffffffffff021916908365ffffffffffff16021790555060208201518160000160066101000a81548179ffffffffffffffffffffffffffffffffffffffffffffffffffff021916908379ffffffffffffffffffffffffffffffffffffffffffffffffffff16021790555050505b80879550955050505050612fe5565b8560405180604001604052808765ffffffffffff1681526020018679ffffffffffffffffffffffffffffffffffffffffffffffffffff168152509080600181540180825580915050600190039060005260206000200160009091909190915060008201518160000160006101000a81548165ffffffffffff021916908365ffffffffffff16021790555060208201518160000160066101000a81548179ffffffffffffffffffffffffffffffffffffffffffffffffffff021916908379ffffffffffffffffffffffffffffffffffffffffffffffffffff160217905550505060008492509250505b935093915050565b6040518060400160405280600065ffffffffffff168152602001600079ffffffffffffffffffffffffffffffffffffffffffffffffffff1681525090565b600073ffffffffffffffffffffffffffffffffffffffff82169050919050565b6000819050919050565b600061307061306b6130668461302b565b61304b565b61302b565b9050919050565b600061308282613055565b9050919050565b600061309482613077565b9050919050565b6130a481613089565b82525050565b60006020820190506130bf600083018461309b565b92915050565b600080fd5b6000819050919050565b6130dd816130ca565b81146130e857600080fd5b50565b6000813590506130fa816130d4565b92915050565b600060208284031215613116576131156130c5565b5b6000613124848285016130eb565b91505092915050565b600081519050919050565b600082825260208201905092915050565b60005b8381101561316757808201518184015260208101905061314c565b60008484015250505050565b6000601f19601f8301169050919050565b600061318f8261312d565b6131998185613138565b93506131a9818560208601613149565b6131b281613173565b840191505092915050565b600060208201905081810360008301526131d78184613184565b905092915050565b60006131ea8261302b565b9050919050565b6131fa816131df565b811461320557600080fd5b50565b600081359050613217816131f1565b92915050565b60008060408385031215613234576132336130c5565b5b600061324285828601613208565b9250506020613253858286016130eb565b9150509250929050565b60008115159050919050565b6132728161325d565b82525050565b600060208201905061328d6000830184613269565b92915050565b61329c816130ca565b82525050565b60006020820190506132b76000830184613293565b92915050565b6000806000606084860312156132d6576132d56130c5565b5b60006132e486828701613208565b93505060206132f586828701613208565b9250506040613306868287016130eb565b9150509250925092565b600060ff82169050919050565b61332681613310565b82525050565b6000602082019050613341600083018461331d565b92915050565b6000819050919050565b61335a81613347565b82525050565b60006020820190506133756000830184613351565b92915050565b600060208284031215613391576133906130c5565b5b600061339f84828501613208565b91505092915050565b6133b1816131df565b82525050565b60006020820190506133cc60008301846133a8565b92915050565b600063ffffffff82169050919050565b6133eb816133d2565b82525050565b600060208201905061340660008301846133e2565b92915050565b60007fff0000000000000000000000000000000000000000000000000000000000000082169050919050565b6134418161340c565b82525050565b600081519050919050565b600082825260208201905092915050565b6000819050602082019050919050565b61347c816130ca565b82525050565b600061348e8383613473565b60208301905092915050565b6000602082019050919050565b60006134b282613447565b6134bc8185613452565b93506134c783613463565b8060005b838110156134f85781516134df8882613482565b97506134ea8361349a565b9250506001810190506134cb565b5085935050505092915050565b600060e08201905061351a600083018a613438565b818103602083015261352c8189613184565b905081810360408301526135408188613184565b905061354f6060830187613293565b61355c60808301866133a8565b61356960a0830185613351565b81810360c083015261357b81846134a7565b905098975050505050505050565b600065ffffffffffff82169050919050565b6135a481613589565b82525050565b60006020820190506135bf600083018461359b565b92915050565b6135ce81613310565b81146135d957600080fd5b50565b6000813590506135eb816135c5565b92915050565b6135fa81613347565b811461360557600080fd5b50565b600081359050613617816135f1565b92915050565b60008060008060008060c0878903121561363a576136396130c5565b5b600061364889828a01613208565b965050602061365989828a016130eb565b955050604061366a89828a016130eb565b945050606061367b89828a016135dc565b935050608061368c89828a01613608565b92505060a061369d89828a01613608565b9150509295509295509295565b600080600080600080600060e0888a0312156136c9576136c86130c5565b5b60006136d78a828b01613208565b97505060206136e88a828b01613208565b96505060406136f98a828b016130eb565b955050606061370a8a828b016130eb565b945050608061371b8a828b016135dc565b93505060a061372c8a828b01613608565b92505060c061373d8a828b01613608565b91505092959891949750929550565b60008060408385031215613763576137626130c5565b5b600061377185828601613208565b925050602061378285828601613208565b9150509250929050565b613795816133d2565b81146137a057600080fd5b50565b6000813590506137b28161378c565b92915050565b600080604083850312156137cf576137ce6130c5565b5b60006137dd85828601613208565b92505060206137ee858286016137a3565b9150509250929050565b61380181613589565b82525050565b600079ffffffffffffffffffffffffffffffffffffffffffffffffffff82169050919050565b61383681613807565b82525050565b60408201600082015161385260008501826137f8565b506020820151613865602085018261382d565b50505050565b6000604082019050613880600083018461383c565b92915050565b7f4e487b7100000000000000000000000000000000000000000000000000000000600052602260045260246000fd5b600060028204905060018216806138cd57607f821691505b6020821081036138e0576138df613886565b5b50919050565b7f4e487b7100000000000000000000000000000000000000000000000000000000600052601160045260246000fd5b6000613920826130ca565b915061392b836130ca565b9250828202613939816130ca565b915082820484148315176139505761394f6138e6565b5b5092915050565b600060408201905061396c60008301856133a8565b6139796020830184613293565b9392505050565b600061398b826130ca565b9150613996836130ca565b92508282019050808211156139ae576139ad6138e6565b5b92915050565b7f4e487b7100000000000000000000000000000000000000000000000000000000600052604160045260246000fd5b60006080820190506139f86000830187613351565b613a0560208301866133a8565b613a126040830185613293565b613a1f6060830184613293565b95945050505050565b600060c082019050613a3d6000830189613351565b613a4a60208301886133a8565b613a5760408301876133a8565b613a646060830186613293565b613a716080830185613293565b613a7e60a0830184613293565b979650505050505050565b6000604082019050613a9e60008301856133a8565b613aab60208301846133a8565b9392505050565b6000606082019050613ac760008301866133a8565b613ad46020830185613293565b613ae16040830184613293565b949350505050565b6000604082019050613afe6000830185613293565b613b0b602083018461359b565b9392505050565b6000613b1d826130ca565b9150613b28836130ca565b9250828203905081811115613b4057613b3f6138e6565b5b92915050565b600060a082019050613b5b6000830188613351565b613b686020830187613351565b613b756040830186613351565b613b826060830185613293565b613b8f60808301846133a8565b9695505050505050565b6000819050919050565b6000613bbe613bb9613bb484613b99565b61304b565b613310565b9050919050565b613bce81613ba3565b82525050565b6000604082019050613be96000830185613bc5565b613bf66020830184613293565b9392505050565b7f4e487b7100000000000000000000000000000000000000000000000000000000600052601260045260246000fd5b6000604082019050613c416000830185613293565b613c4e6020830184613293565b9392505050565b6000819050919050565b6000613c7a613c75613c7084613c55565b61304b565b613310565b9050919050565b613c8a81613c5f565b82525050565b6000604082019050613ca56000830185613c81565b613cb26020830184613293565b9392505050565b6000608082019050613cce6000830187613351565b613cdb602083018661331d565b613ce86040830185613351565b613cf56060830184613351565b95945050505050565b7f4e487b7100000000000000000000000000000000000000000000000000000000600052602160045260246000fd5b7f4e487b7100000000000000000000000000000000000000000000000000000000600052603260045260246000fd5b6000613d67826130ca565b9150613d72836130ca565b925082613d8257613d81613bfd565b5b828204905092915050565b6000613d9882613807565b9150613da383613807565b9250828203905079ffffffffffffffffffffffffffffffffffffffffffffffffffff811115613dd557613dd46138e6565b5b92915050565b6000819050919050565b6000613e00613dfb613df684613ddb565b61304b565b613310565b9050919050565b613e1081613de5565b82525050565b6000604082019050613e2b6000830185613e07565b613e386020830184613293565b9392505050565b6000613e4a82613807565b9150613e5583613807565b9250828201905079ffffffffffffffffffffffffffffffffffffffffffffffffffff811115613e8757613e866138e6565b5b9291505056fea2646970667358221220c739fc30eaac2b8e2701d9550410e995a90890479c5546088be5d49a93747dc864736f6c634300081c0033",
  "linkReferences": {},
  "deployedLinkReferences": {}
}