{
  "_format": "hh-sol-artifact-1",
  "contractName": "GraviGov",
  "sourceName": "contracts/tokens/GraviGov.sol",
  "abi": [
    {
      "inputs": [
        {
          "internalType": "address",
          "name": "_charityToken",
          "type": "address"
        }
      ],
      "stateMutability": "nonpayable",
      "type": "constructor"
    },
    {
      "inputs": [],
      "name": "CheckpointUnorderedInsertion",
      "type": "error"
    },
    {
      "inputs": [],
      "name": "ECDSAInvalidSignature",
      "type": "error"
    },
    {
      "inputs": [
        {
          "internalType": "uint256",
          "name": "length",
          "type": "uint256"
        }
      ],
      "name": "ECDSAInvalidSignatureLength",
      "type": "error"
    },
    {
      "inputs": [
        {
          "internalType": "bytes32",
          "name": "s",
          "type": "bytes32"
        }
      ],
      "name": "ECDSAInvalidSignatureS",
      "type": "error"
    },
    {
      "inputs": [
        {
          "internalType": "uint256",
          "name": "increasedSupply",
          "type": "uint256"
        },
        {
          "internalType": "uint256",
          "name": "cap",
          "type": "uint256"
        }
      ],
      "name": "ERC20ExceededSafeSupply",
      "type": "error"
    },
    {
      "inputs": [
        {
          "internalType": "address",
          "name": "spender",
          "type": "address"
        },
        {
          "internalType": "uint256",
          "name": "allowance",
          "type": "uint256"
        },
        {
          "internalType": "uint256",
          "name": "needed",
          "type": "uint256"
        }
      ],
      "name": "ERC20InsufficientAllowance",
      "type": "error"
    },
    {
      "inputs": [
        {
          "internalType": "address",
          "name": "sender",
          "type": "address"
        },
        {
          "internalType": "uint256",
          "name": "balance",
          "type": "uint256"
        },
        {
          "internalType": "uint256",
          "name": "needed",
          "type": "uint256"
        }
      ],
      "name": "ERC20InsufficientBalance",
      "type": "error"
    },
    {
      "inputs": [
        {
          "internalType": "address",
          "name": "approver",
          "type": "address"
        }
      ],
      "name": "ERC20InvalidApprover",
      "type": "error"
    },
    {
      "inputs": [
        {
          "internalType": "address",
          "name": "receiver",
          "type": "address"
        }
      ],
      "name": "ERC20InvalidReceiver",
      "type": "error"
    },
    {
      "inputs": [
        {
          "internalType": "address",
          "name": "sender",
          "type": "address"
        }
      ],
      "name": "ERC20InvalidSender",
      "type": "error"
    },
    {
      "inputs": [
        {
          "internalType": "address",
          "name": "spender",
          "type": "address"
        }
      ],
      "name": "ERC20InvalidSpender",
      "type": "error"
    },
    {
      "inputs": [
        {
          "internalType": "uint256",
          "name": "deadline",
          "type": "uint256"
        }
      ],
      "name": "ERC2612ExpiredSignature",
      "type": "error"
    },
    {
      "inputs": [
        {
          "internalType": "address",
          "name": "signer",
          "type": "address"
        },
        {
          "internalType": "address",
          "name": "owner",
          "type": "address"
        }
      ],
      "name": "ERC2612InvalidSigner",
      "type": "error"
    },
    {
      "inputs": [
        {
          "internalType": "uint256",
          "name": "timepoint",
          "type": "uint256"
        },
        {
          "internalType": "uint48",
          "name": "clock",
          "type": "uint48"
        }
      ],
      "name": "ERC5805FutureLookup",
      "type": "error"
    },
    {
      "inputs": [],
      "name": "ERC6372InconsistentClock",
      "type": "error"
    },
    {
      "inputs": [
        {
          "internalType": "address",
          "name": "account",
          "type": "address"
        },
        {
          "internalType": "uint256",
          "name": "currentNonce",
          "type": "uint256"
        }
      ],
      "name": "InvalidAccountNonce",
      "type": "error"
    },
    {
      "inputs": [],
      "name": "InvalidShortString",
      "type": "error"
    },
    {
      "inputs": [
        {
          "internalType": "address",
          "name": "owner",
          "type": "address"
        }
      ],
      "name": "OwnableInvalidOwner",
      "type": "error"
    },
    {
      "inputs": [
        {
          "internalType": "address",
          "name": "account",
          "type": "address"
        }
      ],
      "name": "OwnableUnauthorizedAccount",
      "type": "error"
    },
    {
      "inputs": [
        {
          "internalType": "uint8",
          "name": "bits",
          "type": "uint8"
        },
        {
          "internalType": "uint256",
          "name": "value",
          "type": "uint256"
        }
      ],
      "name": "SafeCastOverflowedUintDowncast",
      "type": "error"
    },
    {
      "inputs": [
        {
          "internalType": "string",
          "name": "str",
          "type": "string"
        }
      ],
      "name": "StringTooLong",
      "type": "error"
    },
    {
      "inputs": [
        {
          "internalType": "uint256",
          "name": "expiry",
          "type": "uint256"
        }
      ],
      "name": "VotesExpiredSignature",
      "type": "error"
    },
    {
      "anonymous": false,
      "inputs": [
        {
          "indexed": true,
          "internalType": "address",
          "name": "owner",
          "type": "address"
        },
        {
          "indexed": true,
          "internalType": "address",
          "name": "spender",
          "type": "address"
        },
        {
          "indexed": false,
          "internalType": "uint256",
          "name": "value",
          "type": "uint256"
        }
      ],
      "name": "Approval",
      "type": "event"
    },
    {
      "anonymous": false,
      "inputs": [
        {
          "indexed": true,
          "internalType": "address",
          "name": "delegator",
          "type": "address"
        },
        {
          "indexed": true,
          "internalType": "address",
          "name": "fromDelegate",
          "type": "address"
        },
        {
          "indexed": true,
          "internalType": "address",
          "name": "toDelegate",
          "type": "address"
        }
      ],
      "name": "DelegateChanged",
      "type": "event"
    },
    {
      "anonymous": false,
      "inputs": [
        {
          "indexed": true,
          "internalType": "address",
          "name": "delegate",
          "type": "address"
        },
        {
          "indexed": false,
          "internalType": "uint256",
          "name": "previousVotes",
          "type": "uint256"
        },
        {
          "indexed": false,
          "internalType": "uint256",
          "name": "newVotes",
          "type": "uint256"
        }
      ],
      "name": "DelegateVotesChanged",
      "type": "event"
    },
    {
      "anonymous": false,
      "inputs": [],
      "name": "EIP712DomainChanged",
      "type": "event"
    },
    {
      "anonymous": false,
      "inputs": [
        {
          "indexed": true,
          "internalType": "address",
          "name": "previousOwner",
          "type": "address"
        },
        {
          "indexed": true,
          "internalType": "address",
          "name": "newOwner",
          "type": "address"
        }
      ],
      "name": "OwnershipTransferred",
      "type": "event"
    },
    {
      "anonymous": false,
      "inputs": [
        {
          "indexed": true,
          "internalType": "address",
          "name": "from",
          "type": "address"
        },
        {
          "indexed": true,
          "internalType": "address",
          "name": "to",
          "type": "address"
        },
        {
          "indexed": false,
          "internalType": "uint256",
          "name": "value",
          "type": "uint256"
        }
      ],
      "name": "Transfer",
      "type": "event"
    },
    {
      "inputs": [],
      "name": "CLOCK_MODE",
      "outputs": [
        {
          "internalType": "string",
          "name": "",
          "type": "string"
        }
      ],
      "stateMutability": "view",
      "type": "function"
    },
    {
      "inputs": [],
      "name": "DOMAIN_SEPARATOR",
      "outputs": [
        {
          "internalType": "bytes32",
          "name": "",
          "type": "bytes32"
        }
      ],
      "stateMutability": "view",
      "type": "function"
    },
    {
      "inputs": [
        {
          "internalType": "address",
          "name": "owner",
          "type": "address"
        },
        {
          "internalType": "address",
          "name": "spender",
          "type": "address"
        }
      ],
      "name": "allowance",
      "outputs": [
        {
          "internalType": "uint256",
          "name": "",
          "type": "uint256"
        }
      ],
      "stateMutability": "view",
      "type": "function"
    },
    {
      "inputs": [
        {
          "internalType": "address",
          "name": "spender",
          "type": "address"
        },
        {
          "internalType": "uint256",
          "name": "value",
          "type": "uint256"
        }
      ],
      "name": "approve",
      "outputs": [
        {
          "internalType": "bool",
          "name": "",
          "type": "bool"
        }
      ],
      "stateMutability": "nonpayable",
      "type": "function"
    },
    {
      "inputs": [
        {
          "internalType": "address",
          "name": "account",
          "type": "address"
        }
      ],
      "name": "balanceOf",
      "outputs": [
        {
          "internalType": "uint256",
          "name": "",
          "type": "uint256"
        }
      ],
      "stateMutability": "view",
      "type": "function"
    },
    {
      "inputs": [],
      "name": "charityToken",
      "outputs": [
        {
          "internalType": "contract IGraviCha",
          "name": "",
          "type": "address"
        }
      ],
      "stateMutability": "view",
      "type": "function"
    },
    {
      "inputs": [],
      "name": "charityTokenExchangeRate",
      "outputs": [
        {
          "internalType": "uint256",
          "name": "",
          "type": "uint256"
        }
      ],
      "stateMutability": "view",
      "type": "function"
    },
    {
      "inputs": [
        {
          "internalType": "address",
          "name": "account",
          "type": "address"
        },
        {
          "internalType": "uint32",
          "name": "pos",
          "type": "uint32"
        }
      ],
      "name": "checkpoints",
      "outputs": [
        {
          "components": [
            {
              "internalType": "uint48",
              "name": "_key",
              "type": "uint48"
            },
            {
              "internalType": "uint208",
              "name": "_value",
              "type": "uint208"
            }
          ],
          "internalType": "struct Checkpoints.Checkpoint208",
          "name": "",
          "type": "tuple"
        }
      ],
      "stateMutability": "view",
      "type": "function"
    },
    {
      "inputs": [],
      "name": "clock",
      "outputs": [
        {
          "internalType": "uint48",
          "name": "",
          "type": "uint48"
        }
      ],
      "stateMutability": "view",
      "type": "function"
    },
    {
      "inputs": [
        {
          "internalType": "uint256",
          "name": "amount",
          "type": "uint256"
        }
      ],
      "name": "convertToCharityTokens",
      "outputs": [],
      "stateMutability": "nonpayable",
      "type": "function"
    },
    {
      "inputs": [],
      "name": "dao",
      "outputs": [
        {
          "internalType": "contract IGraviDAO",
          "name": "",
          "type": "address"
        }
      ],
      "stateMutability": "view",
      "type": "function"
    },
    {
      "inputs": [],
      "name": "decimals",
      "outputs": [
        {
          "internalType": "uint8",
          "name": "",
          "type": "uint8"
        }
      ],
      "stateMutability": "view",
      "type": "function"
    },
    {
      "inputs": [
        {
          "internalType": "address",
          "name": "delegatee",
          "type": "address"
        }
      ],
      "name": "delegate",
      "outputs": [],
      "stateMutability": "nonpayable",
      "type": "function"
    },
    {
      "inputs": [
        {
          "internalType": "address",
          "name": "delegatee",
          "type": "address"
        },
        {
          "internalType": "uint256",
          "name": "nonce",
          "type": "uint256"
        },
        {
          "internalType": "uint256",
          "name": "expiry",
          "type": "uint256"
        },
        {
          "internalType": "uint8",
          "name": "v",
          "type": "uint8"
        },
        {
          "internalType": "bytes32",
          "name": "r",
          "type": "bytes32"
        },
        {
          "internalType": "bytes32",
          "name": "s",
          "type": "bytes32"
        }
      ],
      "name": "delegateBySig",
      "outputs": [],
      "stateMutability": "nonpayable",
      "type": "function"
    },
    {
      "inputs": [
        {
          "internalType": "address",
          "name": "account",
          "type": "address"
        }
      ],
      "name": "delegates",
      "outputs": [
        {
          "internalType": "address",
          "name": "",
          "type": "address"
        }
      ],
      "stateMutability": "view",
      "type": "function"
    },
    {
      "inputs": [],
      "name": "eip712Domain",
      "outputs": [
        {
          "internalType": "bytes1",
          "name": "fields",
          "type": "bytes1"
        },
        {
          "internalType": "string",
          "name": "name",
          "type": "string"
        },
        {
          "internalType": "string",
          "name": "version",
          "type": "string"
        },
        {
          "internalType": "uint256",
          "name": "chainId",
          "type": "uint256"
        },
        {
          "internalType": "address",
          "name": "verifyingContract",
          "type": "address"
        },
        {
          "internalType": "bytes32",
          "name": "salt",
          "type": "bytes32"
        },
        {
          "internalType": "uint256[]",
          "name": "extensions",
          "type": "uint256[]"
        }
      ],
      "stateMutability": "view",
      "type": "function"
    },
    {
      "inputs": [],
      "name": "getCharityTokenExchangeRate",
      "outputs": [
        {
          "internalType": "uint256",
          "name": "",
          "type": "uint256"
        }
      ],
      "stateMutability": "view",
      "type": "function"
    },
    {
      "inputs": [
        {
          "internalType": "uint256",
          "name": "timepoint",
          "type": "uint256"
        }
      ],
      "name": "getPastTotalSupply",
      "outputs": [
        {
          "internalType": "uint256",
          "name": "",
          "type": "uint256"
        }
      ],
      "stateMutability": "view",
      "type": "function"
    },
    {
      "inputs": [
        {
          "internalType": "address",
          "name": "account",
          "type": "address"
        },
        {
          "internalType": "uint256",
          "name": "timepoint",
          "type": "uint256"
        }
      ],
      "name": "getPastVotes",
      "outputs": [
        {
          "internalType": "uint256",
          "name": "",
          "type": "uint256"
        }
      ],
      "stateMutability": "view",
      "type": "function"
    },
    {
      "inputs": [
        {
          "internalType": "address",
          "name": "account",
          "type": "address"
        }
      ],
      "name": "getVotes",
      "outputs": [
        {
          "internalType": "uint256",
          "name": "",
          "type": "uint256"
        }
      ],
      "stateMutability": "view",
      "type": "function"
    },
    {
      "inputs": [],
      "name": "lastMintTimestamp",
      "outputs": [
        {
          "internalType": "uint256",
          "name": "",
          "type": "uint256"
        }
      ],
      "stateMutability": "view",
      "type": "function"
    },
    {
      "inputs": [
        {
          "internalType": "address",
          "name": "to",
          "type": "address"
        },
        {
          "internalType": "uint256",
          "name": "amount",
          "type": "uint256"
        }
      ],
      "name": "mint",
      "outputs": [],
      "stateMutability": "nonpayable",
      "type": "function"
    },
    {
      "inputs": [],
      "name": "mintMonthly",
      "outputs": [],
      "stateMutability": "nonpayable",
      "type": "function"
    },
    {
      "inputs": [],
      "name": "monthlyMintAmount",
      "outputs": [
        {
          "internalType": "uint256",
          "name": "",
          "type": "uint256"
        }
      ],
      "stateMutability": "view",
      "type": "function"
    },
    {
      "inputs": [],
      "name": "name",
      "outputs": [
        {
          "internalType": "string",
          "name": "",
          "type": "string"
        }
      ],
      "stateMutability": "view",
      "type": "function"
    },
    {
      "inputs": [
        {
          "internalType": "address",
          "name": "owner",
          "type": "address"
        }
      ],
      "name": "nonces",
      "outputs": [
        {
          "internalType": "uint256",
          "name": "",
          "type": "uint256"
        }
      ],
      "stateMutability": "view",
      "type": "function"
    },
    {
      "inputs": [
        {
          "internalType": "address",
          "name": "account",
          "type": "address"
        }
      ],
      "name": "numCheckpoints",
      "outputs": [
        {
          "internalType": "uint32",
          "name": "",
          "type": "uint32"
        }
      ],
      "stateMutability": "view",
      "type": "function"
    },
    {
      "inputs": [],
      "name": "owner",
      "outputs": [
        {
          "internalType": "address",
          "name": "",
          "type": "address"
        }
      ],
      "stateMutability": "view",
      "type": "function"
    },
    {
      "inputs": [
        {
          "internalType": "address",
          "name": "owner",
          "type": "address"
        },
        {
          "internalType": "address",
          "name": "spender",
          "type": "address"
        },
        {
          "internalType": "uint256",
          "name": "value",
          "type": "uint256"
        },
        {
          "internalType": "uint256",
          "name": "deadline",
          "type": "uint256"
        },
        {
          "internalType": "uint8",
          "name": "v",
          "type": "uint8"
        },
        {
          "internalType": "bytes32",
          "name": "r",
          "type": "bytes32"
        },
        {
          "internalType": "bytes32",
          "name": "s",
          "type": "bytes32"
        }
      ],
      "name": "permit",
      "outputs": [],
      "stateMutability": "nonpayable",
      "type": "function"
    },
    {
      "inputs": [],
      "name": "renounceOwnership",
      "outputs": [],
      "stateMutability": "nonpayable",
      "type": "function"
    },
    {
      "inputs": [
        {
          "internalType": "uint256",
          "name": "_charityTokenExchangeRate",
          "type": "uint256"
        }
      ],
      "name": "setCharityTokenExchangeRate",
      "outputs": [],
      "stateMutability": "nonpayable",
      "type": "function"
    },
    {
      "inputs": [
        {
          "internalType": "address",
          "name": "_dao",
          "type": "address"
        }
      ],
      "name": "setDAO",
      "outputs": [],
      "stateMutability": "nonpayable",
      "type": "function"
    },
    {
      "inputs": [
        {
          "internalType": "uint256",
          "name": "_monthlyMintAmount",
          "type": "uint256"
        }
      ],
      "name": "setMonthlyMintAmount",
      "outputs": [],
      "stateMutability": "nonpayable",
      "type": "function"
    },
    {
      "inputs": [],
      "name": "symbol",
      "outputs": [
        {
          "internalType": "string",
          "name": "",
          "type": "string"
        }
      ],
      "stateMutability": "view",
      "type": "function"
    },
    {
      "inputs": [],
      "name": "totalSupply",
      "outputs": [
        {
          "internalType": "uint256",
          "name": "",
          "type": "uint256"
        }
      ],
      "stateMutability": "view",
      "type": "function"
    },
    {
      "inputs": [
        {
          "internalType": "address",
          "name": "to",
          "type": "address"
        },
        {
          "internalType": "uint256",
          "name": "value",
          "type": "uint256"
        }
      ],
      "name": "transfer",
      "outputs": [
        {
          "internalType": "bool",
          "name": "",
          "type": "bool"
        }
      ],
      "stateMutability": "nonpayable",
      "type": "function"
    },
    {
      "inputs": [
        {
          "internalType": "address",
          "name": "from",
          "type": "address"
        },
        {
          "internalType": "address",
          "name": "to",
          "type": "address"
        },
        {
          "internalType": "uint256",
          "name": "value",
          "type": "uint256"
        }
      ],
      "name": "transferFrom",
      "outputs": [
        {
          "internalType": "bool",
          "name": "",
          "type": "bool"
        }
      ],
      "stateMutability": "nonpayable",
      "type": "function"
    },
    {
      "inputs": [
        {
          "internalType": "address",
          "name": "newOwner",
          "type": "address"
        }
      ],
      "name": "transferOwnership",
      "outputs": [],
      "stateMutability": "nonpayable",
      "type": "function"
    }
  ],
  "bytecode": "0x61016080604052346104fa576020816129bc803803809161002082856104ff565b8339810103126104fa57516001600160a01b038116908190036104fa5760405161004b6040826104ff565b60088152602081016723b930bb34a3b7bb60c11b8152604051906100706040836104ff565b600882526723b930bb34a3b7bb60c11b6020830152604051926100946040856104ff565b600484526323a3a7ab60e11b6020850152604051936100b46040866104ff565b60018552603160f81b60208601908152845190946001600160401b0382116103f75760035490600182811c921680156104f0575b60208310146103d75781601f849311610480575b50602090601f83116001146104185760009261040d575b50508160011b916000199060031b1c1916176003555b8051906001600160401b0382116103f75760045490600182811c921680156103ed575b60208310146103d75781601f849311610367575b50602090601f83116001146102ff576000926102f4575b50508160011b916000199060031b1c1916176004555b61019681610522565b610120526101a3846106d0565b61014052519020918260e05251902080610100524660a0526040519060208201927f8b73c3c69bb8fe3d512ecc4cf759cc79239f7b179b0ffacaa9a75d522b39400f8452604083015260608201524660808201523060a082015260a0815261020c60c0826104ff565b5190206080523060c05233156102de57600b8054336001600160a01b0319821681179092556040519291906001600160a01b03167f8be0079c531659141344cd1fd0a4f28419497f9722a3daafe3b4186f6b6457e0600080a369021e19e0c9bab2400000600c55600a600e5542600d55600f80546001600160a01b03191691909117905561214d908161086f8239608051816114ff015260a051816115bc015260c051816114c9015260e0518161154e0152610100518161157401526101205181610a1e01526101405181610a470152f35b631e4fbdf760e01b600052600060045260246000fd5b015190503880610177565b600460009081528281209350601f198516905b81811061034f5750908460019594939210610336575b505050811b0160045561018d565b015160001960f88460031b161c19169055388080610328565b92936020600181928786015181550195019301610312565b60046000529091507f8a35acfbc15ff81a39ae7d344fd709f28e8600b4aa8c65c6b64bfe7fe36bd19b601f840160051c810191602085106103cd575b90601f859493920160051c01905b8181106103be5750610160565b600081558493506001016103b1565b90915081906103a3565b634e487b7160e01b600052602260045260246000fd5b91607f169161014c565b634e487b7160e01b600052604160045260246000fd5b015190503880610113565b600360009081528281209350601f198516905b818110610468575090846001959493921061044f575b505050811b01600355610129565b015160001960f88460031b161c19169055388080610441565b9293602060018192878601518155019501930161042b565b60036000529091507fc2575a0e9e593c00f959f8c92f12db2869c3395a3b0502d05e2516446f71f85b601f840160051c810191602085106104e6575b90601f859493920160051c01905b8181106104d757506100fc565b600081558493506001016104ca565b90915081906104bc565b91607f16916100e8565b600080fd5b601f909101601f19168101906001600160401b038211908210176103f757604052565b908151602081106000146105ba575090601f81511161055e57602081519101516020821061054e571790565b6000198260200360031b1b161790565b6040519063305a27a960e01b8252602060048301528181519182602483015260005b8381106105a25750508160006044809484010152601f80199101168101030190fd5b60208282018101516044878401015285935001610580565b6001600160401b0381116103f757600554600181811c911680156106c6575b60208210146103d757601f8111610690575b50602092601f821160011461062b5792819293600092610620575b50508160011b916000199060031b1c19161760055560ff90565b015190503880610606565b601f198216936005600052806000209160005b868110610678575083600195961061065f575b505050811b0160055560ff90565b015160001960f88460031b161c19169055388080610651565b9192602060018192868501518155019401920161063e565b6005600052601f6020600020910160051c810190601f830160051c015b8181106106ba57506105eb565b600081556001016106ad565b90607f16906105d9565b90815160208110600014610758575090601f8151116106fc57602081519101516020821061054e571790565b6040519063305a27a960e01b8252602060048301528181519182602483015260005b8381106107405750508160006044809484010152601f80199101168101030190fd5b6020828201810151604487840101528593500161071e565b6001600160401b0381116103f757600654600181811c91168015610864575b60208210146103d757601f811161082e575b50602092601f82116001146107c957928192936000926107be575b50508160011b916000199060031b1c19161760065560ff90565b0151905038806107a4565b601f198216936006600052806000209160005b86811061081657508360019596106107fd575b505050811b0160065560ff90565b015160001960f88460031b161c191690553880806107ef565b919260206001819286850151815501940192016107dc565b6006600052601f6020600020910160051c810190601f830160051c015b8181106108585750610789565b6000815560010161084b565b90607f169061077756fe6080604052600436101561001257600080fd5b60003560e01c8063012252131461027257806304a6e87e1461026d57806306fdde0314610268578063095ea7b314610263578063099217ce146101cd5780630f972c821461025e57806318160ddd1461025957806323b872dd14610254578063313ce5671461024f5780633644e5151461024a5780633a46b1a81461024557806340c10f19146102405780634162169f1461023b5780634bf5d7e914610236578063587cde1e146102315780635c19a95c1461022c57806364f6ad11146102275780636a350214146102225780636fcfff451461021d57806370a0823114610218578063715018a6146102135780637ecebe001461020e57806384b0196e146102095780638da5cb5b146102045780638e539e8c146101ff5780638e80ff5d146101fa5780638e8846a1146101f557806391ddadf4146101f057806395d89b41146101eb5780639ab24eb0146101e6578063a9059cbb146101e1578063c3cda520146101dc578063d505accf146101d7578063dd62ed3e146101d2578063e1535252146101cd578063e73a914c146101c8578063f1127ed8146101c35763f2fde38b146101be57600080fd5b611143565b611090565b61104d565b610460565b610ff5565b610ecc565b610db8565b610d72565b610d29565b610c81565b610c55565b610c1e565b610c00565b610b2f565b610b06565b610a05565b6109cb565b61096e565b610935565b6108cf565b6108b1565b610890565b61086e565b61082c565b61079a565b610771565b610744565b610655565b610632565b610616565b610572565b610554565b61047e565b61042f565b610326565b6102b0565b610287565b600091031261028257565b600080fd5b3461028257600036600319011261028257600f546040516001600160a01b039091168152602090f35b34610282576020366003190112610282576004356102cc61139e565b600e55005b919082519283825260005b8481106102fd575050826000602080949584010152601f8019910116010190565b806020809284010151828286010152016102dc565b9060206103239281815201906102d1565b90565b34610282576000366003190112610282576040516000600354610348816111cd565b80845290600181169081156103df5750600114610380575b61037c83610370818503826112c1565b60405191829182610312565b0390f35b600360009081527fc2575a0e9e593c00f959f8c92f12db2869c3395a3b0502d05e2516446f71f85b939250905b8082106103c557509091508101602001610370610360565b9192600181602092548385880101520191019092916103ad565b60ff191660208086019190915291151560051b840190910191506103709050610360565b600435906001600160a01b038216820361028257565b602435906001600160a01b038216820361028257565b346102825760403660031901126102825761045561044b610403565b60243590336117c7565b602060405160018152f35b34610282576000366003190112610282576020600e54604051908152f35b34610282576020366003190112610282576004353360009081526020819052604090206104af9082905410156112e3565b6010546104d79082906104d2906001600160a01b03165b6001600160a01b031690565b611375565b50600f546104fb906104f1906001600160a01b03166104c6565b91600e5490611345565b90803b15610282576040516340c10f1960e01b815233600482015260248101839052906000908290604490829084905af1801561054f5761053857005b80610547600061054d936112c1565b80610277565b005b611358565b34610282576000366003190112610282576020600254604051908152f35b346102825760603660031901126102825761058b610403565b610593610419565b6001600160a01b038216600090815260016020908152604080832033845290915290205491604435919060001984106105dd575b6105d193506113c7565b60405160018152602090f35b8284106105f9576105f4836105d19503338361186c565b6105c7565b8284637dc7a0d960e11b6000523360045260245260445260646000fd5b3461028257600036600319011261028257602060405160128152f35b3461028257600036600319011261028257602061064d6114c6565b604051908152f35b346102825760403660031901126102825761066e610403565b6001600160a01b031660009081526009602052604090206106906024356115e2565b906000908054829381600581116106e5575b50906020946106b19284611a65565b806106cb5750505b6040516001600160d01b039091168152f35b6106d49061161d565b90825290829020015460301c6106b9565b946106ef86611907565b860395861161073f576020956106b19385875265ffffffffffff8289892001541665ffffffffffff85161060001461072d5750915b919250946106a2565b9291506107399061162c565b90610724565b61132f565b346102825760403660031901126102825761054d610760610403565b6024359061076c61139e565b61163a565b34610282576000366003190112610282576010546040516001600160a01b039091168152602090f35b34610282576000366003190112610282576107b4436118b6565b65ffffffffffff806107c5436118b6565b1691160361081b5761037c60408051906107df81836112c1565b601d82527f6d6f64653d626c6f636b6e756d6265722666726f6d3d64656661756c740000006020830152519182916020835260208301906102d1565b6301bfc1c560e61b60005260046000fd5b34610282576020366003190112610282576001600160a01b0361084d610403565b166000526008602052602060018060a01b0360406000205416604051908152f35b346102825760203660031901126102825761054d61088a610403565b336116e0565b34610282576020366003190112610282576004356108ac61139e565b600c55005b34610282576000366003190112610282576020600c54604051908152f35b34610282576020366003190112610282576001600160a01b036108f0610403565b16600052600960205260406000205463ffffffff811161091c5760405163ffffffff9091168152602090f35b6306dfcc6560e41b600052602060045260245260446000fd5b3461028257602036600319011261028257602061064d610953610403565b6001600160a01b031660009081526020819052604090205490565b346102825760003660031901126102825761098761139e565b600b80546001600160a01b031981169091556000906001600160a01b03167f8be0079c531659141344cd1fd0a4f28419497f9722a3daafe3b4186f6b6457e08280a3005b34610282576020366003190112610282576001600160a01b036109ec610403565b1660005260076020526020604060002054604051908152f35b3461028257600036600319011261028257610aab610a427f0000000000000000000000000000000000000000000000000000000000000000611bf0565b610a6b7f0000000000000000000000000000000000000000000000000000000000000000611c54565b6020604051610a7a82826112c1565b6000815281610ab981830194601f198301368737604051978897600f60f81b895260e0858a015260e08901906102d1565b9087820360408901526102d1565b91466060870152306080870152600060a087015285830360c0870152519182815201929160005b828110610aef57505050500390f35b835185528695509381019392810192600101610ae0565b3461028257600036600319011261028257600b546040516001600160a01b039091168152602090f35b3461028257602036600319011261028257610b4b6004356115e2565b6000600a5481928160058111610ba5575b5090602093610b6c92600a611a65565b80610b8457506040516001600160d01b039091168152f35b9082610b92610ba09361161d565b91600a815220015460301c90565b6106b9565b93610baf85611907565b850394851161073f57602094610b6c93600a865265ffffffffffff8288882001541665ffffffffffff851610600014610bee5750915b91925093610b5c565b929150610bfa9061162c565b90610be5565b34610282576000366003190112610282576020600d54604051908152f35b3461028257600036600319011261028257610c3761139e565b600b54600c54610c4f916001600160a01b031661163a565b42600d55005b34610282576000366003190112610282576020610c71436118b6565b65ffffffffffff60405191168152f35b34610282576000366003190112610282576040516000600454610ca3816111cd565b80845290600181169081156103df5750600114610cca5761037c83610370818503826112c1565b600460009081527f8a35acfbc15ff81a39ae7d344fd709f28e8600b4aa8c65c6b64bfe7fe36bd19b939250905b808210610d0f57509091508101602001610370610360565b919260018160209254838588010152019101909291610cf7565b34610282576020366003190112610282576001600160a01b03610d4a610403565b166000526009602052602060018060d01b03610d696040600020611763565b16604051908152f35b3461028257604036600319011261028257610455610d8e610403565b60243590336113c7565b6064359060ff8216820361028257565b6084359060ff8216820361028257565b346102825760c036600319011261028257610dd1610403565b60243590604435610de0610d98565b6084359060a43592804211610eb85791610e659391610e57610e5c9460405160208101917fe48329057bfd03d55e49b547132e39cffd9c1820ad7b9d4c5307691425d15adf835260018060a01b038a1660408301528a6060830152608082015260808152610e4f60a0826112c1565b519020611792565b611c8b565b90929192611d2a565b6001600160a01b0381166000908152600760205260409020805460018101909155809303610e975761054d92506116e0565b90506301d4b62360e61b60005260018060a01b031660045260245260446000fd5b632341d78760e11b60005260045260246000fd5b346102825760e036600319011261028257610ee5610403565b610eed610419565b6044359060643592610efd610da8565b60a43560c43590864211610fe0576001600160a01b0384166000908152600760205260409020805460018101909155610fa39390610f9e909860405160208101917f6e71edae12b1b97f4d1f60370fef10105fa2faae0126114a169c64845d6126c9835260018060a01b0389169b8c604084015260018060a01b038b1660608401528b608084015260a083015260c082015260c08152610e4f60e0826112c1565b6117b8565b936001600160a01b03851603610fbd5761054d93506117c7565b6325c0072360e11b6000526001600160a01b038085166004521660245260446000fd5b8663313c898160e11b60005260045260246000fd5b34610282576040366003190112610282576020611044611013610403565b61101b610419565b6001600160a01b0391821660009081526001855260408082209290931681526020919091522090565b54604051908152f35b3461028257602036600319011261028257611066610403565b61106e61139e565b601080546001600160a01b0319166001600160a01b0392909216919091179055005b34610282576040366003190112610282576110a9610403565b6024359063ffffffff821682036102825761037c916110f9916110ca611385565b506110d3611385565b506001600160a01b031660009081526009602052604090206110f3611385565b50611dac565b5060405190611107826112a0565b5465ffffffffffff811680835260309190911c60209283019081526040805192835290516001600160d01b031692820192909252918291820190565b346102825760203660031901126102825761115c610403565b61116461139e565b6001600160a01b031680156111b757600b80546001600160a01b0319811683179091556001600160a01b03167f8be0079c531659141344cd1fd0a4f28419497f9722a3daafe3b4186f6b6457e0600080a3005b631e4fbdf760e01b600052600060045260246000fd5b90600182811c921680156111fd575b60208310146111e757565b634e487b7160e01b600052602260045260246000fd5b91607f16916111dc565b60009291815491611217836111cd565b808352926001811690811561126d575060011461123357505050565b60009081526020812093945091925b838310611253575060209250010190565b600181602092949394548385870101520191019190611242565b915050602093945060ff929192191683830152151560051b010190565b634e487b7160e01b600052604160045260246000fd5b6040810190811067ffffffffffffffff8211176112bc57604052565b61128a565b90601f8019910116810190811067ffffffffffffffff8211176112bc57604052565b156112ea57565b60405162461bcd60e51b815260206004820152601b60248201527f4772617669476f763a204e6f7420656e6f75676820746f6b656e7300000000006044820152606490fd5b634e487b7160e01b600052601160045260246000fd5b8181029291811591840414171561073f57565b6040513d6000823e3d90fd5b604051906113736040836112c1565b565b9061138091336113c7565b600190565b60405190611392826112a0565b60006020838281520152565b600b546001600160a01b031633036113b257565b63118cdaa760e01b6000523360045260246000fd5b6001600160a01b0381169392919084156114b0576001600160a01b038216801561149a576001600160a01b038216600090815260208190526040812054969085881061148057856113739798036114308560018060a01b03166000526000602052604060002090565b55506001600160a01b0384166000908152602081815260409182902080548801905590518681527fddf252ad1be2c89b69c2b068fc378daa952ba7f163c4a11628f55a4df523b3ef9190a3611f67565b858860649363391434e360e21b8452600452602452604452fd5b63ec442f0560e01b600052600060045260246000fd5b634b637e8f60e11b600052600060045260246000fd5b307f00000000000000000000000000000000000000000000000000000000000000006001600160a01b031614806115b9575b15611521577f000000000000000000000000000000000000000000000000000000000000000090565b60405160208101907f8b73c3c69bb8fe3d512ecc4cf759cc79239f7b179b0ffacaa9a75d522b39400f82527f000000000000000000000000000000000000000000000000000000000000000060408201527f000000000000000000000000000000000000000000000000000000000000000060608201524660808201523060a082015260a081526115b360c0826112c1565b51902090565b507f000000000000000000000000000000000000000000000000000000000000000046146114f8565b65ffffffffffff6115f2436118b6565b16808210156116055750610323906118b6565b90637669fc0f60e11b60005260045260245260446000fd5b60001981019190821161073f57565b906001820180921161073f57565b6001600160a01b038116929190831561149a5760025482810180911161073f576002556001600160a01b0381166000908152602081815260408083208054860190555184815291959186917fddf252ad1be2c89b69c2b068fc378daa952ba7f163c4a11628f55a4df523b3ef91a3600254936001600160d01b038086116116c8575050611373929350611ee3565b630e58ae9360e11b8252600486905260245260449150fd5b6001600160a01b03818116600081815260086020526040812080548685166001600160a01b0319821681179092556113739694169461175d9390928691907f3134e8a2e6d97e929a7e54011ea5485d7d196dd5f0ba4d4ef95803e8e3fc257f9080a46001600160a01b031660009081526020819052604090205490565b91611acc565b80549081611772575050600090565b8160001981011161073f5760005260001990602060002001015460301c90565b60429061179d6114c6565b906040519161190160f01b8352600283015260228201522090565b916103239391610e5c93611c8b565b6001600160a01b0316908115611856576001600160a01b03811692831561184057806118337f8c5be1e5ebec7d5bd14f71427d1e84f3dd0314c0f7b2291e5b200ac8c7c3b9259385600052600160205260406000209060018060a01b0316600052602052604060002090565b55604051908152602090a3565b634a1406b160e11b600052600060045260246000fd5b63e602df0560e01b600052600060045260246000fd5b6001600160a01b0316908115611856576001600160a01b03811615611840576118b391600052600160205260406000209060018060a01b0316600052602052604060002090565b55565b65ffffffffffff81116118ce5765ffffffffffff1690565b6306dfcc6560e41b600052603060045260245260446000fd5b81156118f1570490565b634e487b7160e01b600052601260045260246000fd5b600181111561032357806001600160801b821015611a28575b6119ce6119c46119ba6119b06119a661199c61198b6119d59760046119da9a600160401b811015611a1b575b640100000000811015611a0e575b62010000811015611a01575b6101008110156119f4575b60108110156119e7575b10156119df575b60030260011c90565b611995818b6118e7565b0160011c90565b611995818a6118e7565b61199581896118e7565b61199581886118e7565b61199581876118e7565b61199581866118e7565b80936118e7565b821190565b900390565b60011b611982565b60041c9160021b9161197b565b60081c9160041b91611971565b60101c9160081b91611966565b60201c9160101b9161195a565b60401c9160201b9161194c565b50506119da6119d56119ce6119c46119ba6119b06119a661199c61198b611a4f8a60801c90565b9850600160401b97506119209650505050505050565b91905b838210611a755750505090565b9091928083169080841860011c820180921161073f578460005265ffffffffffff82602060002001541665ffffffffffff841610600014611aba5750925b9190611a68565b939250611ac69061162c565b91611ab3565b6001600160a01b03808316939291908116908185141580611be7575b611af4575b5050505050565b81611b79575b505082611b09575b8080611aed565b6001600160a01b031660009081526009602052604090207fdec2bacdd2f05b59de34da9b523dff8be42e5e38e818c82fdb0bae774387a72491611b5691611b509091611dda565b90611e45565b604080516001600160d01b039384168152919092166020820152a2388080611b02565b6001600160a01b031660009081526009602052604090207fdec2bacdd2f05b59de34da9b523dff8be42e5e38e818c82fdb0bae774387a72490611bc590611bbf86611dda565b90611e0d565b604080516001600160d01b039384168152919092166020820152a23880611afa565b50831515611ae8565b60ff8114611c3a5760ff811690601f8211611c29576040805192611c1482856112c1565b6020808552840191601f190136833783525290565b632cd44ac360e21b60005260046000fd5b5060405161032381611c4d816005611207565b03826112c1565b60ff8114611c785760ff811690601f8211611c29576040805192611c1482856112c1565b5060405161032381611c4d816006611207565b91906fa2a8918ca85bafe22016d0b997e4df60600160ff1b038411611cfe579160209360809260ff60009560405194855216868401526040830152606082015282805260015afa1561054f576000516001600160a01b03811615611cf25790600090600090565b50600090600190600090565b50505060009160039190565b60041115611d1457565b634e487b7160e01b600052602160045260246000fd5b611d3381611d0a565b80611d3c575050565b611d4581611d0a565b60018103611d5e5763f645eedf60e01b60005260046000fd5b611d6781611d0a565b60028103611d84575063fce698f760e01b60005260045260246000fd5b80611d90600392611d0a565b14611d985750565b6335e2f38360e21b60005260045260246000fd5b8054821015611dc45760005260206000200190600090565b634e487b7160e01b600052603260045260246000fd5b6001600160d01b038111611df4576001600160d01b031690565b6306dfcc6560e41b60005260d060045260245260446000fd5b90611e17436118b6565b90611e2183611763565b6001600160d01b03918216908216039190821161073f57611e419261203c565b9091565b90611e4f436118b6565b90611e5983611763565b6001600160d01b03918216908216019190821161073f57611e419261203c565b611e82436118b6565b90611e8d600a611763565b6001600160d01b039182169082160190811161073f57611e4191600a61203c565b611eb7436118b6565b90611ec2600a611763565b6001600160d01b039182169082160390811161073f57611e4191600a61203c565b9061137391611ef9611ef483611dda565b611e79565b50506001600160a01b03168015611f4f575b60086020527f5eff886ea0ce6ca488a3d6e336d6c0f75f46d19b42c06ce5ee98e42c96d256c75460009182526040909120546001600160a01b039081169116611acc565b611f60611f5b83611dda565b611eae565b5050611f0b565b61137392916001600160a01b03909116908115611fcb575b6001600160a01b0316908115611fb8575b600090815260086020526040808220549282529020546001600160a01b039081169116611acc565b611fc4611f5b84611dda565b5050611f90565b611fd7611ef484611dda565b5050611f7f565b8054600160401b8110156112bc57611ffb91600182018155611dac565b61202657815160209092015160301b65ffffffffffff191665ffffffffffff92909216919091179055565b634e487b7160e01b600052600060045260246000fd5b805492939280156120ec576120536120609161161d565b8260005260206000200190565b8054603081901c9365ffffffffffff918216929181168084116120db578793036120a757506120a392509065ffffffffffff82549181199060301b169116179055565b9190565b9150506120a3916120c76120b9611364565b65ffffffffffff9093168352565b6001600160d01b0386166020830152611fde565b632520601d60e01b60005260046000fd5b5090612111916120fd6120b9611364565b6001600160d01b0385166020830152611fde565b6000919056fea26469706673582212200c808674e41f28a566cbe4b929aaa7944e556fb7223154af214c01b7b40ceed564736f6c634300081c0033",
  "linkReferences": {},
  "deployedLinkReferences": {}
}