{
  "_format": "hh-sol-artifact-1",
  "contractName": "GraviGov",
  "sourceName": "contracts/tokens/GraviGov.sol",
  "abi": [
    {
      "inputs": [],
      "stateMutability": "nonpayable",
      "type": "constructor"
    },
    {
      "inputs": [],
      "name": "CheckpointUnorderedInsertion",
      "type": "error"
    },
    {
      "inputs": [],
      "name": "ECDSAInvalidSignature",
      "type": "error"
    },
    {
      "inputs": [
        {
          "internalType": "uint256",
          "name": "length",
          "type": "uint256"
        }
      ],
      "name": "ECDSAInvalidSignatureLength",
      "type": "error"
    },
    {
      "inputs": [
        {
          "internalType": "bytes32",
          "name": "s",
          "type": "bytes32"
        }
      ],
      "name": "ECDSAInvalidSignatureS",
      "type": "error"
    },
    {
      "inputs": [
        {
          "internalType": "uint256",
          "name": "increasedSupply",
          "type": "uint256"
        },
        {
          "internalType": "uint256",
          "name": "cap",
          "type": "uint256"
        }
      ],
      "name": "ERC20ExceededSafeSupply",
      "type": "error"
    },
    {
      "inputs": [
        {
          "internalType": "address",
          "name": "spender",
          "type": "address"
        },
        {
          "internalType": "uint256",
          "name": "allowance",
          "type": "uint256"
        },
        {
          "internalType": "uint256",
          "name": "needed",
          "type": "uint256"
        }
      ],
      "name": "ERC20InsufficientAllowance",
      "type": "error"
    },
    {
      "inputs": [
        {
          "internalType": "address",
          "name": "sender",
          "type": "address"
        },
        {
          "internalType": "uint256",
          "name": "balance",
          "type": "uint256"
        },
        {
          "internalType": "uint256",
          "name": "needed",
          "type": "uint256"
        }
      ],
      "name": "ERC20InsufficientBalance",
      "type": "error"
    },
    {
      "inputs": [
        {
          "internalType": "address",
          "name": "approver",
          "type": "address"
        }
      ],
      "name": "ERC20InvalidApprover",
      "type": "error"
    },
    {
      "inputs": [
        {
          "internalType": "address",
          "name": "receiver",
          "type": "address"
        }
      ],
      "name": "ERC20InvalidReceiver",
      "type": "error"
    },
    {
      "inputs": [
        {
          "internalType": "address",
          "name": "sender",
          "type": "address"
        }
      ],
      "name": "ERC20InvalidSender",
      "type": "error"
    },
    {
      "inputs": [
        {
          "internalType": "address",
          "name": "spender",
          "type": "address"
        }
      ],
      "name": "ERC20InvalidSpender",
      "type": "error"
    },
    {
      "inputs": [
        {
          "internalType": "uint256",
          "name": "deadline",
          "type": "uint256"
        }
      ],
      "name": "ERC2612ExpiredSignature",
      "type": "error"
    },
    {
      "inputs": [
        {
          "internalType": "address",
          "name": "signer",
          "type": "address"
        },
        {
          "internalType": "address",
          "name": "owner",
          "type": "address"
        }
      ],
      "name": "ERC2612InvalidSigner",
      "type": "error"
    },
    {
      "inputs": [
        {
          "internalType": "uint256",
          "name": "timepoint",
          "type": "uint256"
        },
        {
          "internalType": "uint48",
          "name": "clock",
          "type": "uint48"
        }
      ],
      "name": "ERC5805FutureLookup",
      "type": "error"
    },
    {
      "inputs": [],
      "name": "ERC6372InconsistentClock",
      "type": "error"
    },
    {
      "inputs": [
        {
          "internalType": "address",
          "name": "account",
          "type": "address"
        },
        {
          "internalType": "uint256",
          "name": "currentNonce",
          "type": "uint256"
        }
      ],
      "name": "InvalidAccountNonce",
      "type": "error"
    },
    {
      "inputs": [],
      "name": "InvalidShortString",
      "type": "error"
    },
    {
      "inputs": [
        {
          "internalType": "address",
          "name": "owner",
          "type": "address"
        }
      ],
      "name": "OwnableInvalidOwner",
      "type": "error"
    },
    {
      "inputs": [
        {
          "internalType": "address",
          "name": "account",
          "type": "address"
        }
      ],
      "name": "OwnableUnauthorizedAccount",
      "type": "error"
    },
    {
      "inputs": [
        {
          "internalType": "uint8",
          "name": "bits",
          "type": "uint8"
        },
        {
          "internalType": "uint256",
          "name": "value",
          "type": "uint256"
        }
      ],
      "name": "SafeCastOverflowedUintDowncast",
      "type": "error"
    },
    {
      "inputs": [
        {
          "internalType": "string",
          "name": "str",
          "type": "string"
        }
      ],
      "name": "StringTooLong",
      "type": "error"
    },
    {
      "inputs": [
        {
          "internalType": "uint256",
          "name": "expiry",
          "type": "uint256"
        }
      ],
      "name": "VotesExpiredSignature",
      "type": "error"
    },
    {
      "anonymous": false,
      "inputs": [
        {
          "indexed": true,
          "internalType": "address",
          "name": "owner",
          "type": "address"
        },
        {
          "indexed": true,
          "internalType": "address",
          "name": "spender",
          "type": "address"
        },
        {
          "indexed": false,
          "internalType": "uint256",
          "name": "value",
          "type": "uint256"
        }
      ],
      "name": "Approval",
      "type": "event"
    },
    {
      "anonymous": false,
      "inputs": [
        {
          "indexed": true,
          "internalType": "address",
          "name": "delegator",
          "type": "address"
        },
        {
          "indexed": true,
          "internalType": "address",
          "name": "fromDelegate",
          "type": "address"
        },
        {
          "indexed": true,
          "internalType": "address",
          "name": "toDelegate",
          "type": "address"
        }
      ],
      "name": "DelegateChanged",
      "type": "event"
    },
    {
      "anonymous": false,
      "inputs": [
        {
          "indexed": true,
          "internalType": "address",
          "name": "delegate",
          "type": "address"
        },
        {
          "indexed": false,
          "internalType": "uint256",
          "name": "previousVotes",
          "type": "uint256"
        },
        {
          "indexed": false,
          "internalType": "uint256",
          "name": "newVotes",
          "type": "uint256"
        }
      ],
      "name": "DelegateVotesChanged",
      "type": "event"
    },
    {
      "anonymous": false,
      "inputs": [],
      "name": "EIP712DomainChanged",
      "type": "event"
    },
    {
      "anonymous": false,
      "inputs": [
        {
          "indexed": true,
          "internalType": "address",
          "name": "previousOwner",
          "type": "address"
        },
        {
          "indexed": true,
          "internalType": "address",
          "name": "newOwner",
          "type": "address"
        }
      ],
      "name": "OwnershipTransferred",
      "type": "event"
    },
    {
      "anonymous": false,
      "inputs": [
        {
          "indexed": true,
          "internalType": "address",
          "name": "from",
          "type": "address"
        },
        {
          "indexed": true,
          "internalType": "address",
          "name": "to",
          "type": "address"
        },
        {
          "indexed": false,
          "internalType": "uint256",
          "name": "value",
          "type": "uint256"
        }
      ],
      "name": "Transfer",
      "type": "event"
    },
    {
      "inputs": [],
      "name": "CLOCK_MODE",
      "outputs": [
        {
          "internalType": "string",
          "name": "",
          "type": "string"
        }
      ],
      "stateMutability": "view",
      "type": "function"
    },
    {
      "inputs": [],
      "name": "DOMAIN_SEPARATOR",
      "outputs": [
        {
          "internalType": "bytes32",
          "name": "",
          "type": "bytes32"
        }
      ],
      "stateMutability": "view",
      "type": "function"
    },
    {
      "inputs": [
        {
          "internalType": "address",
          "name": "owner",
          "type": "address"
        },
        {
          "internalType": "address",
          "name": "spender",
          "type": "address"
        }
      ],
      "name": "allowance",
      "outputs": [
        {
          "internalType": "uint256",
          "name": "",
          "type": "uint256"
        }
      ],
      "stateMutability": "view",
      "type": "function"
    },
    {
      "inputs": [
        {
          "internalType": "address",
          "name": "spender",
          "type": "address"
        },
        {
          "internalType": "uint256",
          "name": "value",
          "type": "uint256"
        }
      ],
      "name": "approve",
      "outputs": [
        {
          "internalType": "bool",
          "name": "",
          "type": "bool"
        }
      ],
      "stateMutability": "nonpayable",
      "type": "function"
    },
    {
      "inputs": [
        {
          "internalType": "address",
          "name": "account",
          "type": "address"
        }
      ],
      "name": "balanceOf",
      "outputs": [
        {
          "internalType": "uint256",
          "name": "",
          "type": "uint256"
        }
      ],
      "stateMutability": "view",
      "type": "function"
    },
    {
      "inputs": [
        {
          "internalType": "address",
          "name": "account",
          "type": "address"
        },
        {
          "internalType": "uint32",
          "name": "pos",
          "type": "uint32"
        }
      ],
      "name": "checkpoints",
      "outputs": [
        {
          "components": [
            {
              "internalType": "uint48",
              "name": "_key",
              "type": "uint48"
            },
            {
              "internalType": "uint208",
              "name": "_value",
              "type": "uint208"
            }
          ],
          "internalType": "struct Checkpoints.Checkpoint208",
          "name": "",
          "type": "tuple"
        }
      ],
      "stateMutability": "view",
      "type": "function"
    },
    {
      "inputs": [],
      "name": "clock",
      "outputs": [
        {
          "internalType": "uint48",
          "name": "",
          "type": "uint48"
        }
      ],
      "stateMutability": "view",
      "type": "function"
    },
    {
      "inputs": [],
      "name": "decimals",
      "outputs": [
        {
          "internalType": "uint8",
          "name": "",
          "type": "uint8"
        }
      ],
      "stateMutability": "view",
      "type": "function"
    },
    {
      "inputs": [
        {
          "internalType": "address",
          "name": "delegatee",
          "type": "address"
        }
      ],
      "name": "delegate",
      "outputs": [],
      "stateMutability": "nonpayable",
      "type": "function"
    },
    {
      "inputs": [
        {
          "internalType": "address",
          "name": "delegatee",
          "type": "address"
        },
        {
          "internalType": "uint256",
          "name": "nonce",
          "type": "uint256"
        },
        {
          "internalType": "uint256",
          "name": "expiry",
          "type": "uint256"
        },
        {
          "internalType": "uint8",
          "name": "v",
          "type": "uint8"
        },
        {
          "internalType": "bytes32",
          "name": "r",
          "type": "bytes32"
        },
        {
          "internalType": "bytes32",
          "name": "s",
          "type": "bytes32"
        }
      ],
      "name": "delegateBySig",
      "outputs": [],
      "stateMutability": "nonpayable",
      "type": "function"
    },
    {
      "inputs": [
        {
          "internalType": "address",
          "name": "account",
          "type": "address"
        }
      ],
      "name": "delegates",
      "outputs": [
        {
          "internalType": "address",
          "name": "",
          "type": "address"
        }
      ],
      "stateMutability": "view",
      "type": "function"
    },
    {
      "inputs": [],
      "name": "eip712Domain",
      "outputs": [
        {
          "internalType": "bytes1",
          "name": "fields",
          "type": "bytes1"
        },
        {
          "internalType": "string",
          "name": "name",
          "type": "string"
        },
        {
          "internalType": "string",
          "name": "version",
          "type": "string"
        },
        {
          "internalType": "uint256",
          "name": "chainId",
          "type": "uint256"
        },
        {
          "internalType": "address",
          "name": "verifyingContract",
          "type": "address"
        },
        {
          "internalType": "bytes32",
          "name": "salt",
          "type": "bytes32"
        },
        {
          "internalType": "uint256[]",
          "name": "extensions",
          "type": "uint256[]"
        }
      ],
      "stateMutability": "view",
      "type": "function"
    },
    {
      "inputs": [
        {
          "internalType": "uint256",
          "name": "timepoint",
          "type": "uint256"
        }
      ],
      "name": "getPastTotalSupply",
      "outputs": [
        {
          "internalType": "uint256",
          "name": "",
          "type": "uint256"
        }
      ],
      "stateMutability": "view",
      "type": "function"
    },
    {
      "inputs": [
        {
          "internalType": "address",
          "name": "account",
          "type": "address"
        },
        {
          "internalType": "uint256",
          "name": "timepoint",
          "type": "uint256"
        }
      ],
      "name": "getPastVotes",
      "outputs": [
        {
          "internalType": "uint256",
          "name": "",
          "type": "uint256"
        }
      ],
      "stateMutability": "view",
      "type": "function"
    },
    {
      "inputs": [
        {
          "internalType": "address",
          "name": "account",
          "type": "address"
        }
      ],
      "name": "getVotes",
      "outputs": [
        {
          "internalType": "uint256",
          "name": "",
          "type": "uint256"
        }
      ],
      "stateMutability": "view",
      "type": "function"
    },
    {
      "inputs": [],
      "name": "lastMintTimestamp",
      "outputs": [
        {
          "internalType": "uint256",
          "name": "",
          "type": "uint256"
        }
      ],
      "stateMutability": "view",
      "type": "function"
    },
    {
      "inputs": [
        {
          "internalType": "address",
          "name": "to",
          "type": "address"
        },
        {
          "internalType": "uint256",
          "name": "amount",
          "type": "uint256"
        }
      ],
      "name": "mint",
      "outputs": [],
      "stateMutability": "nonpayable",
      "type": "function"
    },
    {
      "inputs": [],
      "name": "mintMonthly",
      "outputs": [],
      "stateMutability": "nonpayable",
      "type": "function"
    },
    {
      "inputs": [],
      "name": "monthlyMintAmount",
      "outputs": [
        {
          "internalType": "uint256",
          "name": "",
          "type": "uint256"
        }
      ],
      "stateMutability": "view",
      "type": "function"
    },
    {
      "inputs": [],
      "name": "name",
      "outputs": [
        {
          "internalType": "string",
          "name": "",
          "type": "string"
        }
      ],
      "stateMutability": "view",
      "type": "function"
    },
    {
      "inputs": [
        {
          "internalType": "address",
          "name": "owner",
          "type": "address"
        }
      ],
      "name": "nonces",
      "outputs": [
        {
          "internalType": "uint256",
          "name": "",
          "type": "uint256"
        }
      ],
      "stateMutability": "view",
      "type": "function"
    },
    {
      "inputs": [
        {
          "internalType": "address",
          "name": "account",
          "type": "address"
        }
      ],
      "name": "numCheckpoints",
      "outputs": [
        {
          "internalType": "uint32",
          "name": "",
          "type": "uint32"
        }
      ],
      "stateMutability": "view",
      "type": "function"
    },
    {
      "inputs": [],
      "name": "owner",
      "outputs": [
        {
          "internalType": "address",
          "name": "",
          "type": "address"
        }
      ],
      "stateMutability": "view",
      "type": "function"
    },
    {
      "inputs": [
        {
          "internalType": "address",
          "name": "owner",
          "type": "address"
        },
        {
          "internalType": "address",
          "name": "spender",
          "type": "address"
        },
        {
          "internalType": "uint256",
          "name": "value",
          "type": "uint256"
        },
        {
          "internalType": "uint256",
          "name": "deadline",
          "type": "uint256"
        },
        {
          "internalType": "uint8",
          "name": "v",
          "type": "uint8"
        },
        {
          "internalType": "bytes32",
          "name": "r",
          "type": "bytes32"
        },
        {
          "internalType": "bytes32",
          "name": "s",
          "type": "bytes32"
        }
      ],
      "name": "permit",
      "outputs": [],
      "stateMutability": "nonpayable",
      "type": "function"
    },
    {
      "inputs": [],
      "name": "renounceOwnership",
      "outputs": [],
      "stateMutability": "nonpayable",
      "type": "function"
    },
    {
      "inputs": [
        {
          "internalType": "uint256",
          "name": "_monthlyMintAmount",
          "type": "uint256"
        }
      ],
      "name": "setMonthlyMintAmount",
      "outputs": [],
      "stateMutability": "nonpayable",
      "type": "function"
    },
    {
      "inputs": [],
      "name": "symbol",
      "outputs": [
        {
          "internalType": "string",
          "name": "",
          "type": "string"
        }
      ],
      "stateMutability": "view",
      "type": "function"
    },
    {
      "inputs": [],
      "name": "totalSupply",
      "outputs": [
        {
          "internalType": "uint256",
          "name": "",
          "type": "uint256"
        }
      ],
      "stateMutability": "view",
      "type": "function"
    },
    {
      "inputs": [
        {
          "internalType": "address",
          "name": "to",
          "type": "address"
        },
        {
          "internalType": "uint256",
          "name": "value",
          "type": "uint256"
        }
      ],
      "name": "transfer",
      "outputs": [
        {
          "internalType": "bool",
          "name": "",
          "type": "bool"
        }
      ],
      "stateMutability": "nonpayable",
      "type": "function"
    },
    {
      "inputs": [
        {
          "internalType": "address",
          "name": "from",
          "type": "address"
        },
        {
          "internalType": "address",
          "name": "to",
          "type": "address"
        },
        {
          "internalType": "uint256",
          "name": "value",
          "type": "uint256"
        }
      ],
      "name": "transferFrom",
      "outputs": [
        {
          "internalType": "bool",
          "name": "",
          "type": "bool"
        }
      ],
      "stateMutability": "nonpayable",
      "type": "function"
    },
    {
      "inputs": [
        {
          "internalType": "address",
          "name": "newOwner",
          "type": "address"
        }
      ],
      "name": "transferOwnership",
      "outputs": [],
      "stateMutability": "nonpayable",
      "type": "function"
    }
  ],
  "bytecode": "0x610160604052346104ad576040516100186040826104b2565b60088152602081016723b930bb34a3b7bb60c11b81526040519061003d6040836104b2565b600882526723b930bb34a3b7bb60c11b6020830152604051926100616040856104b2565b600484526323a3a7ab60e11b6020850152604051936100816040866104b2565b60018552603160f81b60208601908152845190946001600160401b0382116103aa5760035490600182811c921680156104a3575b602083101461038a5781601f849311610433575b50602090601f83116001146103cb576000926103c0575b50508160011b916000199060031b1c1916176003555b8051906001600160401b0382116103aa5760045490600182811c921680156103a0575b602083101461038a5781601f84931161031a575b50602090601f83116001146102b2576000926102a7575b50508160011b916000199060031b1c1916176004555b610163816104d5565b6101205261017084610683565b61014052519020918260e05251902080610100524660a0526040519060208201927f8b73c3c69bb8fe3d512ecc4cf759cc79239f7b179b0ffacaa9a75d522b39400f8452604083015260608201524660808201523060a082015260a081526101d960c0826104b2565b5190206080523060c052331561029157600b8054336001600160a01b03198216811790925560405191906001600160a01b03167f8be0079c531659141344cd1fd0a4f28419497f9722a3daafe3b4186f6b6457e0600080a369021e19e0c9bab2400000600c5542600d55611ec09081610822823960805181611227015260a051816112e4015260c051816111f1015260e051816112760152610100518161129c015261012051816108430152610140518161086c0152f35b631e4fbdf760e01b600052600060045260246000fd5b015190503880610144565b600460009081528281209350601f198516905b81811061030257509084600195949392106102e9575b505050811b0160045561015a565b015160001960f88460031b161c191690553880806102db565b929360206001819287860151815501950193016102c5565b60046000529091507f8a35acfbc15ff81a39ae7d344fd709f28e8600b4aa8c65c6b64bfe7fe36bd19b601f840160051c81019160208510610380575b90601f859493920160051c01905b818110610371575061012d565b60008155849350600101610364565b9091508190610356565b634e487b7160e01b600052602260045260246000fd5b91607f1691610119565b634e487b7160e01b600052604160045260246000fd5b0151905038806100e0565b600360009081528281209350601f198516905b81811061041b5750908460019594939210610402575b505050811b016003556100f6565b015160001960f88460031b161c191690553880806103f4565b929360206001819287860151815501950193016103de565b60036000529091507fc2575a0e9e593c00f959f8c92f12db2869c3395a3b0502d05e2516446f71f85b601f840160051c81019160208510610499575b90601f859493920160051c01905b81811061048a57506100c9565b6000815584935060010161047d565b909150819061046f565b91607f16916100b5565b600080fd5b601f909101601f19168101906001600160401b038211908210176103aa57604052565b9081516020811060001461056d575090601f815111610511576020815191015160208210610501571790565b6000198260200360031b1b161790565b6040519063305a27a960e01b8252602060048301528181519182602483015260005b8381106105555750508160006044809484010152601f80199101168101030190fd5b60208282018101516044878401015285935001610533565b6001600160401b0381116103aa57600554600181811c91168015610679575b602082101461038a57601f8111610643575b50602092601f82116001146105de57928192936000926105d3575b50508160011b916000199060031b1c19161760055560ff90565b0151905038806105b9565b601f198216936005600052806000209160005b86811061062b5750836001959610610612575b505050811b0160055560ff90565b015160001960f88460031b161c19169055388080610604565b919260206001819286850151815501940192016105f1565b6005600052601f6020600020910160051c810190601f830160051c015b81811061066d575061059e565b60008155600101610660565b90607f169061058c565b9081516020811060001461070b575090601f8151116106af576020815191015160208210610501571790565b6040519063305a27a960e01b8252602060048301528181519182602483015260005b8381106106f35750508160006044809484010152601f80199101168101030190fd5b602082820181015160448784010152859350016106d1565b6001600160401b0381116103aa57600654600181811c91168015610817575b602082101461038a57601f81116107e1575b50602092601f821160011461077c5792819293600092610771575b50508160011b916000199060031b1c19161760065560ff90565b015190503880610757565b601f198216936006600052806000209160005b8681106107c957508360019596106107b0575b505050811b0160065560ff90565b015160001960f88460031b161c191690553880806107a2565b9192602060018192868501518155019401920161078f565b6006600052601f6020600020910160051c810190601f830160051c015b81811061080b575061073c565b600081556001016107fe565b90607f169061072a56fe6080604052600436101561001257600080fd5b60003560e01c806306fdde0314610207578063095ea7b31461020257806318160ddd146101fd57806323b872dd146101f8578063313ce567146101f35780633644e515146101ee5780633a46b1a8146101e957806340c10f19146101e45780634bf5d7e9146101df578063587cde1e146101da5780635c19a95c146101d557806364f6ad11146101d05780636a350214146101cb5780636fcfff45146101c657806370a08231146101c1578063715018a6146101bc5780637ecebe00146101b757806384b0196e146101b25780638da5cb5b146101ad5780638e539e8c146101a85780638e80ff5d146101a35780638e8846a11461019e57806391ddadf41461019957806395d89b41146101945780639ab24eb01461018f578063a9059cbb1461018a578063c3cda52014610185578063d505accf14610180578063dd62ed3e1461017b578063f1127ed8146101765763f2fde38b1461017157600080fd5b610f25565b610e72565b610e1a565b610cf1565b610bdd565b610b97565b610b4e565b610aa6565b610a7a565b610a43565b610a25565b610954565b61092b565b61082a565b6107f0565b610793565b61075a565b6106f4565b6106d6565b6106b5565b610693565b610651565b6105bf565b610590565b6104a1565b61047e565b610462565b6103be565b6103a0565b61036f565b610261565b919082519283825260005b848110610238575050826000602080949584010152601f8019910116010190565b80602080928401015182828601015201610217565b90602061025e92818152019061020c565b90565b3461033e57600036600319011261033e57604051600060035461028381610faf565b808452906001811690811561031a57506001146102bb575b6102b7836102ab818503826110a3565b6040519182918261024d565b0390f35b600360009081527fc2575a0e9e593c00f959f8c92f12db2869c3395a3b0502d05e2516446f71f85b939250905b808210610300575090915081016020016102ab61029b565b9192600181602092548385880101520191019092916102e8565b60ff191660208086019190915291151560051b840190910191506102ab905061029b565b600080fd5b600435906001600160a01b038216820361033e57565b602435906001600160a01b038216820361033e57565b3461033e57604036600319011261033e5761039561038b610343565b602435903361152e565b602060405160018152f35b3461033e57600036600319011261033e576020600254604051908152f35b3461033e57606036600319011261033e576103d7610343565b6103df610359565b6001600160a01b03821660009081526001602090815260408083203384529091529020549160443591906000198410610429575b61041d93506110ef565b60405160018152602090f35b828410610445576104408361041d950333836115d3565b610413565b8284637dc7a0d960e11b6000523360045260245260445260646000fd5b3461033e57600036600319011261033e57602060405160128152f35b3461033e57600036600319011261033e5760206104996111ee565b604051908152f35b3461033e57604036600319011261033e576104ba610343565b6001600160a01b031660009081526009602052604090206104dc60243561130a565b90600090805482938160058111610531575b50906020946104fd92846117cc565b806105175750505b6040516001600160d01b039091168152f35b6105209061135b565b90825290829020015460301c610505565b9461053b8661166e565b860395861161058b576020956104fd9385875265ffffffffffff8289892001541665ffffffffffff8516106000146105795750915b919250946104ee565b9291506105859061136a565b90610570565b611345565b3461033e57604036600319011261033e576105bd6105ac610343565b602435906105b8611378565b6113a1565b005b3461033e57600036600319011261033e576105d94361161d565b65ffffffffffff806105ea4361161d565b16911603610640576102b7604080519061060481836110a3565b601d82527f6d6f64653d626c6f636b6e756d6265722666726f6d3d64656661756c7400000060208301525191829160208352602083019061020c565b6301bfc1c560e61b60005260046000fd5b3461033e57602036600319011261033e576001600160a01b03610672610343565b166000526008602052602060018060a01b0360406000205416604051908152f35b3461033e57602036600319011261033e576105bd6106af610343565b33611447565b3461033e57602036600319011261033e576004356106d1611378565b600c55005b3461033e57600036600319011261033e576020600c54604051908152f35b3461033e57602036600319011261033e576001600160a01b03610715610343565b16600052600960205260406000205463ffffffff81116107415760405163ffffffff9091168152602090f35b6306dfcc6560e41b600052602060045260245260446000fd5b3461033e57602036600319011261033e576020610499610778610343565b6001600160a01b031660009081526020819052604090205490565b3461033e57600036600319011261033e576107ac611378565b600b80546001600160a01b031981169091556000906001600160a01b03167f8be0079c531659141344cd1fd0a4f28419497f9722a3daafe3b4186f6b6457e08280a3005b3461033e57602036600319011261033e576001600160a01b03610811610343565b1660005260076020526020604060002054604051908152f35b3461033e57600036600319011261033e576108d06108677f0000000000000000000000000000000000000000000000000000000000000000611957565b6108907f00000000000000000000000000000000000000000000000000000000000000006119bb565b602060405161089f82826110a3565b60008152816108de81830194601f198301368737604051978897600f60f81b895260e0858a015260e089019061020c565b90878203604089015261020c565b91466060870152306080870152600060a087015285830360c0870152519182815201929160005b82811061091457505050500390f35b835185528695509381019392810192600101610905565b3461033e57600036600319011261033e57600b546040516001600160a01b039091168152602090f35b3461033e57602036600319011261033e5761097060043561130a565b6000600a54819281600581116109ca575b509060209361099192600a6117cc565b806109a957506040516001600160d01b039091168152f35b90826109b76109c59361135b565b91600a815220015460301c90565b610505565b936109d48561166e565b850394851161058b5760209461099193600a865265ffffffffffff8288882001541665ffffffffffff851610600014610a135750915b91925093610981565b929150610a1f9061136a565b90610a0a565b3461033e57600036600319011261033e576020600d54604051908152f35b3461033e57600036600319011261033e57610a5c611378565b600b54600c54610a74916001600160a01b03166113a1565b42600d55005b3461033e57600036600319011261033e576020610a964361161d565b65ffffffffffff60405191168152f35b3461033e57600036600319011261033e576040516000600454610ac881610faf565b808452906001811690811561031a5750600114610aef576102b7836102ab818503826110a3565b600460009081527f8a35acfbc15ff81a39ae7d344fd709f28e8600b4aa8c65c6b64bfe7fe36bd19b939250905b808210610b34575090915081016020016102ab61029b565b919260018160209254838588010152019101909291610b1c565b3461033e57602036600319011261033e576001600160a01b03610b6f610343565b166000526009602052602060018060d01b03610b8e60406000206114ca565b16604051908152f35b3461033e57604036600319011261033e57610395610bb3610343565b60243590336110ef565b6064359060ff8216820361033e57565b6084359060ff8216820361033e57565b3461033e5760c036600319011261033e57610bf6610343565b60243590604435610c05610bbd565b6084359060a43592804211610cdd5791610c8a9391610c7c610c819460405160208101917fe48329057bfd03d55e49b547132e39cffd9c1820ad7b9d4c5307691425d15adf835260018060a01b038a1660408301528a6060830152608082015260808152610c7460a0826110a3565b5190206114f9565b6119f2565b90929192611a9d565b6001600160a01b0381166000908152600760205260409020805460018101909155809303610cbc576105bd9250611447565b90506301d4b62360e61b60005260018060a01b031660045260245260446000fd5b632341d78760e11b60005260045260246000fd5b3461033e5760e036600319011261033e57610d0a610343565b610d12610359565b6044359060643592610d22610bcd565b60a43560c43590864211610e05576001600160a01b0384166000908152600760205260409020805460018101909155610dc89390610dc3909860405160208101917f6e71edae12b1b97f4d1f60370fef10105fa2faae0126114a169c64845d6126c9835260018060a01b0389169b8c604084015260018060a01b038b1660608401528b608084015260a083015260c082015260c08152610c7460e0826110a3565b61151f565b936001600160a01b03851603610de2576105bd935061152e565b6325c0072360e11b6000526001600160a01b038085166004521660245260446000fd5b8663313c898160e11b60005260045260246000fd5b3461033e57604036600319011261033e576020610e69610e38610343565b610e40610359565b6001600160a01b0391821660009081526001855260408082209290931681526020919091522090565b54604051908152f35b3461033e57604036600319011261033e57610e8b610343565b6024359063ffffffff8216820361033e576102b791610edb91610eac6110d6565b50610eb56110d6565b506001600160a01b03166000908152600960205260409020610ed56110d6565b50611b1f565b5060405190610ee982611082565b5465ffffffffffff811680835260309190911c60209283019081526040805192835290516001600160d01b031692820192909252918291820190565b3461033e57602036600319011261033e57610f3e610343565b610f46611378565b6001600160a01b03168015610f9957600b80546001600160a01b0319811683179091556001600160a01b03167f8be0079c531659141344cd1fd0a4f28419497f9722a3daafe3b4186f6b6457e0600080a3005b631e4fbdf760e01b600052600060045260246000fd5b90600182811c92168015610fdf575b6020831014610fc957565b634e487b7160e01b600052602260045260246000fd5b91607f1691610fbe565b60009291815491610ff983610faf565b808352926001811690811561104f575060011461101557505050565b60009081526020812093945091925b838310611035575060209250010190565b600181602092949394548385870101520191019190611024565b915050602093945060ff929192191683830152151560051b010190565b634e487b7160e01b600052604160045260246000fd5b6040810190811067ffffffffffffffff82111761109e57604052565b61106c565b90601f8019910116810190811067ffffffffffffffff82111761109e57604052565b604051906110d46040836110a3565b565b604051906110e382611082565b60006020838281520152565b6001600160a01b0381169392919084156111d8576001600160a01b03821680156111c2576001600160a01b03821660009081526020819052604081205496908588106111a857856110d49798036111588560018060a01b03166000526000602052604060002090565b55506001600160a01b0384166000908152602081815260409182902080548801905590518681527fddf252ad1be2c89b69c2b068fc378daa952ba7f163c4a11628f55a4df523b3ef9190a3611cda565b858860649363391434e360e21b8452600452602452604452fd5b63ec442f0560e01b600052600060045260246000fd5b634b637e8f60e11b600052600060045260246000fd5b307f00000000000000000000000000000000000000000000000000000000000000006001600160a01b031614806112e1575b15611249577f000000000000000000000000000000000000000000000000000000000000000090565b60405160208101907f8b73c3c69bb8fe3d512ecc4cf759cc79239f7b179b0ffacaa9a75d522b39400f82527f000000000000000000000000000000000000000000000000000000000000000060408201527f000000000000000000000000000000000000000000000000000000000000000060608201524660808201523060a082015260a081526112db60c0826110a3565b51902090565b507f00000000000000000000000000000000000000000000000000000000000000004614611220565b65ffffffffffff61131a4361161d565b168082101561132d575061025e9061161d565b90637669fc0f60e11b60005260045260245260446000fd5b634e487b7160e01b600052601160045260246000fd5b60001981019190821161058b57565b906001820180921161058b57565b600b546001600160a01b0316330361138c57565b63118cdaa760e01b6000523360045260246000fd5b6001600160a01b03811692919083156111c25760025482810180911161058b576002556001600160a01b0381166000908152602081815260408083208054860190555184815291959186917fddf252ad1be2c89b69c2b068fc378daa952ba7f163c4a11628f55a4df523b3ef91a3600254936001600160d01b0380861161142f5750506110d4929350611c56565b630e58ae9360e11b8252600486905260245260449150fd5b6001600160a01b03818116600081815260086020526040812080548685166001600160a01b0319821681179092556110d4969416946114c49390928691907f3134e8a2e6d97e929a7e54011ea5485d7d196dd5f0ba4d4ef95803e8e3fc257f9080a46001600160a01b031660009081526020819052604090205490565b91611833565b805490816114d9575050600090565b8160001981011161058b5760005260001990602060002001015460301c90565b6042906115046111ee565b906040519161190160f01b8352600283015260228201522090565b9161025e9391610c81936119f2565b6001600160a01b03169081156115bd576001600160a01b0381169283156115a7578061159a7f8c5be1e5ebec7d5bd14f71427d1e84f3dd0314c0f7b2291e5b200ac8c7c3b9259385600052600160205260406000209060018060a01b0316600052602052604060002090565b55604051908152602090a3565b634a1406b160e11b600052600060045260246000fd5b63e602df0560e01b600052600060045260246000fd5b6001600160a01b03169081156115bd576001600160a01b038116156115a75761161a91600052600160205260406000209060018060a01b0316600052602052604060002090565b55565b65ffffffffffff81116116355765ffffffffffff1690565b6306dfcc6560e41b600052603060045260245260446000fd5b8115611658570490565b634e487b7160e01b600052601260045260246000fd5b600181111561025e57806001600160801b82101561178f575b61173561172b61172161171761170d6117036116f261173c9760046117419a600160401b811015611782575b640100000000811015611775575b62010000811015611768575b61010081101561175b575b601081101561174e575b1015611746575b60030260011c90565b6116fc818b61164e565b0160011c90565b6116fc818a61164e565b6116fc818961164e565b6116fc818861164e565b6116fc818761164e565b6116fc818661164e565b809361164e565b821190565b900390565b60011b6116e9565b60041c9160021b916116e2565b60081c9160041b916116d8565b60101c9160081b916116cd565b60201c9160101b916116c1565b60401c9160201b916116b3565b505061174161173c61173561172b61172161171761170d6117036116f26117b68a60801c90565b9850600160401b97506116879650505050505050565b91905b8382106117dc5750505090565b9091928083169080841860011c820180921161058b578460005265ffffffffffff82602060002001541665ffffffffffff8416106000146118215750925b91906117cf565b93925061182d9061136a565b9161181a565b6001600160a01b0380831693929190811690818514158061194e575b61185b575b5050505050565b816118e0575b505082611870575b8080611854565b6001600160a01b031660009081526009602052604090207fdec2bacdd2f05b59de34da9b523dff8be42e5e38e818c82fdb0bae774387a724916118bd916118b79091611b4d565b90611bb8565b604080516001600160d01b039384168152919092166020820152a2388080611869565b6001600160a01b031660009081526009602052604090207fdec2bacdd2f05b59de34da9b523dff8be42e5e38e818c82fdb0bae774387a7249061192c9061192686611b4d565b90611b80565b604080516001600160d01b039384168152919092166020820152a23880611861565b5083151561184f565b60ff81146119a15760ff811690601f821161199057604080519261197b82856110a3565b6020808552840191601f190136833783525290565b632cd44ac360e21b60005260046000fd5b5060405161025e816119b4816005610fe9565b03826110a3565b60ff81146119df5760ff811690601f821161199057604080519261197b82856110a3565b5060405161025e816119b4816006610fe9565b91906fa2a8918ca85bafe22016d0b997e4df60600160ff1b038411611a71579160209360809260ff60009560405194855216868401526040830152606082015282805260015afa15611a65576000516001600160a01b03811615611a595790600090600090565b50600090600190600090565b6040513d6000823e3d90fd5b50505060009160039190565b60041115611a8757565b634e487b7160e01b600052602160045260246000fd5b611aa681611a7d565b80611aaf575050565b611ab881611a7d565b60018103611ad15763f645eedf60e01b60005260046000fd5b611ada81611a7d565b60028103611af7575063fce698f760e01b60005260045260246000fd5b80611b03600392611a7d565b14611b0b5750565b6335e2f38360e21b60005260045260246000fd5b8054821015611b375760005260206000200190600090565b634e487b7160e01b600052603260045260246000fd5b6001600160d01b038111611b67576001600160d01b031690565b6306dfcc6560e41b60005260d060045260245260446000fd5b90611b8a4361161d565b90611b94836114ca565b6001600160d01b03918216908216039190821161058b57611bb492611daf565b9091565b90611bc24361161d565b90611bcc836114ca565b6001600160d01b03918216908216019190821161058b57611bb492611daf565b611bf54361161d565b90611c00600a6114ca565b6001600160d01b039182169082160190811161058b57611bb491600a611daf565b611c2a4361161d565b90611c35600a6114ca565b6001600160d01b039182169082160390811161058b57611bb491600a611daf565b906110d491611c6c611c6783611b4d565b611bec565b50506001600160a01b03168015611cc2575b60086020527f5eff886ea0ce6ca488a3d6e336d6c0f75f46d19b42c06ce5ee98e42c96d256c75460009182526040909120546001600160a01b039081169116611833565b611cd3611cce83611b4d565b611c21565b5050611c7e565b6110d492916001600160a01b03909116908115611d3e575b6001600160a01b0316908115611d2b575b600090815260086020526040808220549282529020546001600160a01b039081169116611833565b611d37611cce84611b4d565b5050611d03565b611d4a611c6784611b4d565b5050611cf2565b8054600160401b81101561109e57611d6e91600182018155611b1f565b611d9957815160209092015160301b65ffffffffffff191665ffffffffffff92909216919091179055565b634e487b7160e01b600052600060045260246000fd5b80549293928015611e5f57611dc6611dd39161135b565b8260005260206000200190565b8054603081901c9365ffffffffffff91821692918116808411611e4e57879303611e1a5750611e1692509065ffffffffffff82549181199060301b169116179055565b9190565b915050611e1691611e3a611e2c6110c5565b65ffffffffffff9093168352565b6001600160d01b0386166020830152611d51565b632520601d60e01b60005260046000fd5b5090611e8491611e70611e2c6110c5565b6001600160d01b0385166020830152611d51565b6000919056fea26469706673582212208ccf53fc04619fcf930358ee121f50f8321c54b86e880e60fad64ca8c9cfd6e764736f6c634300081c0033",
  "linkReferences": {},
  "deployedLinkReferences": {}
}