{
  "_format": "hh-sol-artifact-1",
  "contractName": "GraviInsurance",
  "sourceName": "contracts/GraviInsurance.sol",
  "abi": [
    {
      "inputs": [
        {
          "internalType": "string",
          "name": "_disasterType",
          "type": "string"
        },
        {
          "internalType": "uint256",
          "name": "_premiumRate",
          "type": "uint256"
        },
        {
          "internalType": "address",
          "name": "_graviCha",
          "type": "address"
        }
      ],
      "stateMutability": "nonpayable",
      "type": "constructor"
    },
    {
      "inputs": [
        {
          "internalType": "address",
          "name": "owner",
          "type": "address"
        }
      ],
      "name": "OwnableInvalidOwner",
      "type": "error"
    },
    {
      "inputs": [
        {
          "internalType": "address",
          "name": "account",
          "type": "address"
        }
      ],
      "name": "OwnableUnauthorizedAccount",
      "type": "error"
    },
    {
      "anonymous": false,
      "inputs": [
        {
          "indexed": true,
          "internalType": "address",
          "name": "user",
          "type": "address"
        },
        {
          "indexed": false,
          "internalType": "bytes32",
          "name": "policyId",
          "type": "bytes32"
        },
        {
          "indexed": false,
          "internalType": "uint256",
          "name": "payout",
          "type": "uint256"
        }
      ],
      "name": "ClaimApproved",
      "type": "event"
    },
    {
      "anonymous": false,
      "inputs": [
        {
          "indexed": false,
          "internalType": "address",
          "name": "moderator",
          "type": "address"
        },
        {
          "indexed": false,
          "internalType": "uint256",
          "name": "claimId",
          "type": "uint256"
        },
        {
          "indexed": false,
          "internalType": "bool",
          "name": "isApproved",
          "type": "bool"
        },
        {
          "indexed": false,
          "internalType": "uint256",
          "name": "amount",
          "type": "uint256"
        }
      ],
      "name": "ClaimAssessed",
      "type": "event"
    },
    {
      "anonymous": false,
      "inputs": [
        {
          "indexed": false,
          "internalType": "uint256",
          "name": "claimId",
          "type": "uint256"
        },
        {
          "indexed": false,
          "internalType": "enum GraviInsurance.ClaimStatus",
          "name": "claimStatus",
          "type": "uint8"
        },
        {
          "indexed": false,
          "internalType": "uint256",
          "name": "approvedClaimAmount",
          "type": "uint256"
        }
      ],
      "name": "ClaimProcessed",
      "type": "event"
    },
    {
      "anonymous": false,
      "inputs": [
        {
          "indexed": false,
          "internalType": "uint256",
          "name": "claimId",
          "type": "uint256"
        },
        {
          "indexed": false,
          "internalType": "string",
          "name": "incidentDescription",
          "type": "string"
        }
      ],
      "name": "ClaimStarted",
      "type": "event"
    },
    {
      "anonymous": false,
      "inputs": [
        {
          "indexed": false,
          "internalType": "string",
          "name": "eventId",
          "type": "string"
        }
      ],
      "name": "DisasterEventAdded",
      "type": "event"
    },
    {
      "anonymous": false,
      "inputs": [
        {
          "indexed": false,
          "internalType": "string",
          "name": "eventId",
          "type": "string"
        }
      ],
      "name": "DisasterEventModified",
      "type": "event"
    },
    {
      "anonymous": false,
      "inputs": [
        {
          "indexed": false,
          "internalType": "string",
          "name": "eventId",
          "type": "string"
        }
      ],
      "name": "DisasterEventRemoved",
      "type": "event"
    },
    {
      "anonymous": false,
      "inputs": [
        {
          "indexed": true,
          "internalType": "address",
          "name": "donor",
          "type": "address"
        },
        {
          "indexed": false,
          "internalType": "uint256",
          "name": "amount",
          "type": "uint256"
        }
      ],
      "name": "FundsDonated",
      "type": "event"
    },
    {
      "anonymous": false,
      "inputs": [
        {
          "indexed": false,
          "internalType": "address",
          "name": "moderator",
          "type": "address"
        },
        {
          "indexed": false,
          "internalType": "uint256",
          "name": "maxAmount",
          "type": "uint256"
        }
      ],
      "name": "ModeratorAdded",
      "type": "event"
    },
    {
      "anonymous": false,
      "inputs": [
        {
          "indexed": false,
          "internalType": "address",
          "name": "moderator",
          "type": "address"
        }
      ],
      "name": "ModeratorRemoved",
      "type": "event"
    },
    {
      "anonymous": false,
      "inputs": [
        {
          "indexed": true,
          "internalType": "address",
          "name": "previousOwner",
          "type": "address"
        },
        {
          "indexed": true,
          "internalType": "address",
          "name": "newOwner",
          "type": "address"
        }
      ],
      "name": "OwnershipTransferred",
      "type": "event"
    },
    {
      "anonymous": false,
      "inputs": [
        {
          "indexed": true,
          "internalType": "address",
          "name": "user",
          "type": "address"
        },
        {
          "indexed": false,
          "internalType": "bytes32",
          "name": "policyId",
          "type": "bytes32"
        },
        {
          "indexed": false,
          "internalType": "uint256",
          "name": "coverageAmount",
          "type": "uint256"
        },
        {
          "indexed": false,
          "internalType": "uint256",
          "name": "premium",
          "type": "uint256"
        },
        {
          "indexed": false,
          "internalType": "uint256",
          "name": "startTime",
          "type": "uint256"
        },
        {
          "indexed": false,
          "internalType": "uint256",
          "name": "endTime",
          "type": "uint256"
        }
      ],
      "name": "PolicyPurchased",
      "type": "event"
    },
    {
      "inputs": [
        {
          "internalType": "string",
          "name": "eventName",
          "type": "string"
        },
        {
          "internalType": "string",
          "name": "eventDescription",
          "type": "string"
        },
        {
          "internalType": "uint256",
          "name": "disasterDate",
          "type": "uint256"
        }
      ],
      "name": "addDisasterEvent",
      "outputs": [],
      "stateMutability": "nonpayable",
      "type": "function"
    },
    {
      "inputs": [
        {
          "internalType": "address",
          "name": "_moderatorAddress",
          "type": "address"
        },
        {
          "internalType": "uint256",
          "name": "maxAmount",
          "type": "uint256"
        }
      ],
      "name": "addModeratorToPool",
      "outputs": [],
      "stateMutability": "nonpayable",
      "type": "function"
    },
    {
      "inputs": [
        {
          "internalType": "uint256",
          "name": "claimId",
          "type": "uint256"
        },
        {
          "internalType": "bool",
          "name": "isApproved",
          "type": "bool"
        },
        {
          "internalType": "uint256",
          "name": "amount",
          "type": "uint256"
        }
      ],
      "name": "assessClaim",
      "outputs": [],
      "stateMutability": "nonpayable",
      "type": "function"
    },
    {
      "inputs": [
        {
          "internalType": "uint256",
          "name": "startTime",
          "type": "uint256"
        },
        {
          "internalType": "uint256",
          "name": "coveragePeriod",
          "type": "uint256"
        },
        {
          "internalType": "string",
          "name": "propertyAddress",
          "type": "string"
        },
        {
          "internalType": "uint256",
          "name": "propertyValue",
          "type": "uint256"
        }
      ],
      "name": "buyInsurance",
      "outputs": [
        {
          "internalType": "bytes32",
          "name": "",
          "type": "bytes32"
        }
      ],
      "stateMutability": "payable",
      "type": "function"
    },
    {
      "inputs": [
        {
          "internalType": "uint256",
          "name": "premium",
          "type": "uint256"
        }
      ],
      "name": "calculateCoverageAmountFromPremium",
      "outputs": [
        {
          "internalType": "uint256",
          "name": "coverageAmount",
          "type": "uint256"
        }
      ],
      "stateMutability": "pure",
      "type": "function"
    },
    {
      "inputs": [
        {
          "internalType": "string",
          "name": "propertyAddress",
          "type": "string"
        },
        {
          "internalType": "uint256",
          "name": "propertyValue",
          "type": "uint256"
        },
        {
          "internalType": "uint256",
          "name": "coveragePeriod",
          "type": "uint256"
        }
      ],
      "name": "calculatePremium",
      "outputs": [
        {
          "internalType": "uint256",
          "name": "premium",
          "type": "uint256"
        }
      ],
      "stateMutability": "pure",
      "type": "function"
    },
    {
      "inputs": [
        {
          "internalType": "uint256",
          "name": "",
          "type": "uint256"
        }
      ],
      "name": "claimRecords",
      "outputs": [
        {
          "internalType": "uint256",
          "name": "claimId",
          "type": "uint256"
        },
        {
          "internalType": "bytes32",
          "name": "policyId",
          "type": "bytes32"
        },
        {
          "internalType": "string",
          "name": "eventId",
          "type": "string"
        },
        {
          "internalType": "uint256",
          "name": "approvedClaimAmount",
          "type": "uint256"
        },
        {
          "internalType": "uint256",
          "name": "assessmentStart",
          "type": "uint256"
        },
        {
          "internalType": "uint256",
          "name": "assessmentEnd",
          "type": "uint256"
        },
        {
          "internalType": "enum GraviInsurance.ClaimStatus",
          "name": "status",
          "type": "uint8"
        },
        {
          "internalType": "string",
          "name": "incidentDescription",
          "type": "string"
        }
      ],
      "stateMutability": "view",
      "type": "function"
    },
    {
      "inputs": [
        {
          "internalType": "string",
          "name": "",
          "type": "string"
        }
      ],
      "name": "disasterEvents",
      "outputs": [
        {
          "internalType": "string",
          "name": "eventId",
          "type": "string"
        },
        {
          "internalType": "string",
          "name": "name",
          "type": "string"
        },
        {
          "internalType": "uint256",
          "name": "disasterDate",
          "type": "uint256"
        },
        {
          "internalType": "string",
          "name": "eventDescription",
          "type": "string"
        }
      ],
      "stateMutability": "view",
      "type": "function"
    },
    {
      "inputs": [],
      "name": "disasterType",
      "outputs": [
        {
          "internalType": "string",
          "name": "",
          "type": "string"
        }
      ],
      "stateMutability": "view",
      "type": "function"
    },
    {
      "inputs": [],
      "name": "donate",
      "outputs": [
        {
          "internalType": "uint256",
          "name": "tokensReceived",
          "type": "uint256"
        }
      ],
      "stateMutability": "payable",
      "type": "function"
    },
    {
      "inputs": [],
      "name": "donationRewardRate",
      "outputs": [
        {
          "internalType": "uint256",
          "name": "",
          "type": "uint256"
        }
      ],
      "stateMutability": "view",
      "type": "function"
    },
    {
      "inputs": [
        {
          "internalType": "uint256",
          "name": "",
          "type": "uint256"
        }
      ],
      "name": "donors",
      "outputs": [
        {
          "internalType": "address",
          "name": "",
          "type": "address"
        }
      ],
      "stateMutability": "view",
      "type": "function"
    },
    {
      "inputs": [
        {
          "internalType": "address",
          "name": "user",
          "type": "address"
        }
      ],
      "name": "fetchInsuranceIds",
      "outputs": [
        {
          "internalType": "bytes32[]",
          "name": "",
          "type": "bytes32[]"
        }
      ],
      "stateMutability": "view",
      "type": "function"
    },
    {
      "inputs": [],
      "name": "getAllClaims",
      "outputs": [
        {
          "components": [
            {
              "internalType": "uint256",
              "name": "claimId",
              "type": "uint256"
            },
            {
              "internalType": "bytes32",
              "name": "policyId",
              "type": "bytes32"
            },
            {
              "internalType": "string",
              "name": "eventId",
              "type": "string"
            },
            {
              "internalType": "uint256",
              "name": "approvedClaimAmount",
              "type": "uint256"
            },
            {
              "internalType": "uint256",
              "name": "assessmentStart",
              "type": "uint256"
            },
            {
              "internalType": "uint256",
              "name": "assessmentEnd",
              "type": "uint256"
            },
            {
              "internalType": "enum GraviInsurance.ClaimStatus",
              "name": "status",
              "type": "uint8"
            },
            {
              "internalType": "string",
              "name": "incidentDescription",
              "type": "string"
            },
            {
              "components": [
                {
                  "components": [
                    {
                      "internalType": "address",
                      "name": "moderatorAddress",
                      "type": "address"
                    },
                    {
                      "internalType": "uint256",
                      "name": "maxApprovalAmount",
                      "type": "uint256"
                    },
                    {
                      "internalType": "uint256",
                      "name": "totalClaimsAssessed",
                      "type": "uint256"
                    },
                    {
                      "internalType": "uint256",
                      "name": "totalClaimsApproved",
                      "type": "uint256"
                    },
                    {
                      "internalType": "uint256",
                      "name": "totalApprovedAmount",
                      "type": "uint256"
                    }
                  ],
                  "internalType": "struct GraviInsurance.Moderator",
                  "name": "moderator",
                  "type": "tuple"
                },
                {
                  "internalType": "bool",
                  "name": "hasDecided",
                  "type": "bool"
                },
                {
                  "internalType": "bool",
                  "name": "isApproved",
                  "type": "bool"
                },
                {
                  "internalType": "uint256",
                  "name": "approvedAmount",
                  "type": "uint256"
                }
              ],
              "internalType": "struct GraviInsurance.ModeratorInfo[]",
              "name": "moderatorTeam",
              "type": "tuple[]"
            }
          ],
          "internalType": "struct GraviInsurance.ClaimRecord[]",
          "name": "",
          "type": "tuple[]"
        }
      ],
      "stateMutability": "view",
      "type": "function"
    },
    {
      "inputs": [],
      "name": "getAllDonors",
      "outputs": [
        {
          "internalType": "address[]",
          "name": "",
          "type": "address[]"
        },
        {
          "internalType": "uint256[]",
          "name": "",
          "type": "uint256[]"
        }
      ],
      "stateMutability": "view",
      "type": "function"
    },
    {
      "inputs": [
        {
          "internalType": "uint256",
          "name": "claimId",
          "type": "uint256"
        }
      ],
      "name": "getClaimModerators",
      "outputs": [
        {
          "internalType": "address[]",
          "name": "",
          "type": "address[]"
        }
      ],
      "stateMutability": "view",
      "type": "function"
    },
    {
      "inputs": [],
      "name": "getDonationRewardRate",
      "outputs": [
        {
          "internalType": "uint256",
          "name": "",
          "type": "uint256"
        }
      ],
      "stateMutability": "view",
      "type": "function"
    },
    {
      "inputs": [],
      "name": "getTopDonors",
      "outputs": [
        {
          "internalType": "address[]",
          "name": "topDonors",
          "type": "address[]"
        },
        {
          "internalType": "uint256[]",
          "name": "topAmounts",
          "type": "uint256[]"
        }
      ],
      "stateMutability": "view",
      "type": "function"
    },
    {
      "inputs": [],
      "name": "getUserClaims",
      "outputs": [
        {
          "internalType": "uint256[]",
          "name": "claimIds",
          "type": "uint256[]"
        },
        {
          "internalType": "bytes32[]",
          "name": "policyIds",
          "type": "bytes32[]"
        },
        {
          "internalType": "address[][]",
          "name": "moderatorList",
          "type": "address[][]"
        },
        {
          "internalType": "string[]",
          "name": "statuses",
          "type": "string[]"
        },
        {
          "internalType": "string[]",
          "name": "descriptions",
          "type": "string[]"
        }
      ],
      "stateMutability": "view",
      "type": "function"
    },
    {
      "inputs": [],
      "name": "getUserPolicies",
      "outputs": [
        {
          "internalType": "bytes32[]",
          "name": "policyIds",
          "type": "bytes32[]"
        },
        {
          "internalType": "address[]",
          "name": "policyHolders",
          "type": "address[]"
        },
        {
          "internalType": "uint256[]",
          "name": "maxCoverageAmounts",
          "type": "uint256[]"
        },
        {
          "internalType": "uint256[]",
          "name": "premiums",
          "type": "uint256[]"
        },
        {
          "internalType": "uint256[]",
          "name": "startTimes",
          "type": "uint256[]"
        },
        {
          "internalType": "uint256[]",
          "name": "endTimes",
          "type": "uint256[]"
        },
        {
          "internalType": "bool[]",
          "name": "isClaimedList",
          "type": "bool[]"
        },
        {
          "internalType": "string[]",
          "name": "propertyAddresses",
          "type": "string[]"
        },
        {
          "internalType": "uint256[]",
          "name": "propertyValues",
          "type": "uint256[]"
        }
      ],
      "stateMutability": "view",
      "type": "function"
    },
    {
      "inputs": [
        {
          "internalType": "bytes32",
          "name": "policyId",
          "type": "bytes32"
        }
      ],
      "name": "getUserPolicy",
      "outputs": [
        {
          "internalType": "bytes32",
          "name": "_policyId",
          "type": "bytes32"
        },
        {
          "internalType": "address",
          "name": "_policyHolder",
          "type": "address"
        },
        {
          "internalType": "uint256",
          "name": "_maxCoverageAmount",
          "type": "uint256"
        },
        {
          "internalType": "uint256",
          "name": "_premiumPaid",
          "type": "uint256"
        },
        {
          "internalType": "uint256",
          "name": "_startTime",
          "type": "uint256"
        },
        {
          "internalType": "uint256",
          "name": "_endTime",
          "type": "uint256"
        },
        {
          "internalType": "bool",
          "name": "_isClaimed",
          "type": "bool"
        },
        {
          "internalType": "string",
          "name": "_propertyAddress",
          "type": "string"
        },
        {
          "internalType": "uint256",
          "name": "_propertyValue",
          "type": "uint256"
        }
      ],
      "stateMutability": "view",
      "type": "function"
    },
    {
      "inputs": [],
      "name": "graviCha",
      "outputs": [
        {
          "internalType": "contract IGraviCha",
          "name": "",
          "type": "address"
        }
      ],
      "stateMutability": "view",
      "type": "function"
    },
    {
      "inputs": [
        {
          "internalType": "address",
          "name": "",
          "type": "address"
        }
      ],
      "name": "moderators",
      "outputs": [
        {
          "internalType": "address",
          "name": "moderatorAddress",
          "type": "address"
        },
        {
          "internalType": "uint256",
          "name": "maxApprovalAmount",
          "type": "uint256"
        },
        {
          "internalType": "uint256",
          "name": "totalClaimsAssessed",
          "type": "uint256"
        },
        {
          "internalType": "uint256",
          "name": "totalClaimsApproved",
          "type": "uint256"
        },
        {
          "internalType": "uint256",
          "name": "totalApprovedAmount",
          "type": "uint256"
        }
      ],
      "stateMutability": "view",
      "type": "function"
    },
    {
      "inputs": [
        {
          "internalType": "string",
          "name": "eventId",
          "type": "string"
        },
        {
          "internalType": "string",
          "name": "newName",
          "type": "string"
        },
        {
          "internalType": "string",
          "name": "newEventDescription",
          "type": "string"
        },
        {
          "internalType": "uint256",
          "name": "disasterDate",
          "type": "uint256"
        }
      ],
      "name": "modifyDisasterEvent",
      "outputs": [],
      "stateMutability": "nonpayable",
      "type": "function"
    },
    {
      "inputs": [],
      "name": "nextClaimId",
      "outputs": [
        {
          "internalType": "uint256",
          "name": "",
          "type": "uint256"
        }
      ],
      "stateMutability": "view",
      "type": "function"
    },
    {
      "inputs": [],
      "name": "nextEventId",
      "outputs": [
        {
          "internalType": "uint256",
          "name": "",
          "type": "uint256"
        }
      ],
      "stateMutability": "view",
      "type": "function"
    },
    {
      "inputs": [],
      "name": "owner",
      "outputs": [
        {
          "internalType": "address",
          "name": "",
          "type": "address"
        }
      ],
      "stateMutability": "view",
      "type": "function"
    },
    {
      "inputs": [
        {
          "internalType": "uint256",
          "name": "claimId",
          "type": "uint256"
        }
      ],
      "name": "payoutClaim",
      "outputs": [],
      "stateMutability": "nonpayable",
      "type": "function"
    },
    {
      "inputs": [
        {
          "internalType": "bytes32",
          "name": "",
          "type": "bytes32"
        }
      ],
      "name": "policies",
      "outputs": [
        {
          "internalType": "bytes32",
          "name": "policyId",
          "type": "bytes32"
        },
        {
          "internalType": "address",
          "name": "policyHolder",
          "type": "address"
        },
        {
          "internalType": "uint256",
          "name": "maxCoverageAmount",
          "type": "uint256"
        },
        {
          "internalType": "uint256",
          "name": "premiumPaid",
          "type": "uint256"
        },
        {
          "internalType": "uint256",
          "name": "startTime",
          "type": "uint256"
        },
        {
          "internalType": "uint256",
          "name": "endTime",
          "type": "uint256"
        },
        {
          "internalType": "bool",
          "name": "isClaimed",
          "type": "bool"
        },
        {
          "internalType": "string",
          "name": "propertyAddress",
          "type": "string"
        },
        {
          "internalType": "uint256",
          "name": "propertyValue",
          "type": "uint256"
        }
      ],
      "stateMutability": "view",
      "type": "function"
    },
    {
      "inputs": [],
      "name": "premiumRate",
      "outputs": [
        {
          "internalType": "uint256",
          "name": "",
          "type": "uint256"
        }
      ],
      "stateMutability": "view",
      "type": "function"
    },
    {
      "inputs": [
        {
          "internalType": "uint256",
          "name": "claimId",
          "type": "uint256"
        }
      ],
      "name": "processClaim",
      "outputs": [],
      "stateMutability": "nonpayable",
      "type": "function"
    },
    {
      "inputs": [
        {
          "internalType": "string",
          "name": "eventId",
          "type": "string"
        }
      ],
      "name": "removeDisasterEvent",
      "outputs": [],
      "stateMutability": "nonpayable",
      "type": "function"
    },
    {
      "inputs": [
        {
          "internalType": "address",
          "name": "moderator",
          "type": "address"
        }
      ],
      "name": "removeModeratorFromPool",
      "outputs": [],
      "stateMutability": "nonpayable",
      "type": "function"
    },
    {
      "inputs": [],
      "name": "renounceOwnership",
      "outputs": [],
      "stateMutability": "nonpayable",
      "type": "function"
    },
    {
      "inputs": [
        {
          "internalType": "uint256",
          "name": "newRate",
          "type": "uint256"
        }
      ],
      "name": "setDonationRewardRate",
      "outputs": [],
      "stateMutability": "nonpayable",
      "type": "function"
    },
    {
      "inputs": [
        {
          "internalType": "string",
          "name": "eventId",
          "type": "string"
        },
        {
          "internalType": "bytes32",
          "name": "policyId",
          "type": "bytes32"
        },
        {
          "internalType": "string",
          "name": "incidentDescription",
          "type": "string"
        }
      ],
      "name": "startAClaim",
      "outputs": [
        {
          "internalType": "bool",
          "name": "",
          "type": "bool"
        }
      ],
      "stateMutability": "nonpayable",
      "type": "function"
    },
    {
      "inputs": [],
      "name": "totalPoolFunds",
      "outputs": [
        {
          "internalType": "uint256",
          "name": "",
          "type": "uint256"
        }
      ],
      "stateMutability": "view",
      "type": "function"
    },
    {
      "inputs": [
        {
          "internalType": "address payable",
          "name": "recipient",
          "type": "address"
        },
        {
          "internalType": "uint256",
          "name": "amount",
          "type": "uint256"
        }
      ],
      "name": "transferEther",
      "outputs": [],
      "stateMutability": "payable",
      "type": "function"
    },
    {
      "inputs": [
        {
          "internalType": "address",
          "name": "newOwner",
          "type": "address"
        }
      ],
      "name": "transferOwnership",
      "outputs": [],
      "stateMutability": "nonpayable",
      "type": "function"
    },
    {
      "inputs": [
        {
          "internalType": "address",
          "name": "",
          "type": "address"
        }
      ],
      "name": "userRecords",
      "outputs": [
        {
          "internalType": "uint256",
          "name": "donationTotal",
          "type": "uint256"
        }
      ],
      "stateMutability": "view",
      "type": "function"
    },
    {
      "stateMutability": "payable",
      "type": "receive"
    }
  ],
  "bytecode": "0x6080604052346102fc576143328038038061001981610316565b9283398101906060818303126102fc5780516001600160401b0381116102fc57810182601f820112156102fc578051906001600160401b03821161028e5761006a601f8301601f1916602001610316565b93828552602083830101116102fc5760005b828110610301575050602060009184010152604060208201519101519060018060a01b0382168092036102fc5733156102e65760008054336001600160a01b03198216811783556040519290916001600160a01b0316907f8be0079c531659141344cd1fd0a4f28419497f9722a3daafe3b4186f6b6457e09080a36001600a556001600c55612710600d5581156102a4575082516001600160401b03811161028e57600154600181811c91168015610284575b602082101461026e57601f8111610209575b506020601f82116001146101a25781929394600092610197575b50508160011b916000199060031b1c1916176001555b600255600480546001600160a01b031916919091179055604051613ff6908161033c8239f35b01519050388061015b565b601f198216906001600052806000209160005b8181106101f1575095836001959697106101d8575b505050811b01600155610171565b015160001960f88460031b161c191690553880806101ca565b9192602060018192868b0151815501940192016101b5565b60016000527fb10e2d527612073b26eecdfd717e6a320cf44b4afac2b0732d9fcbe2b7fa0cf6601f830160051c81019160208410610264575b601f0160051c01905b8181106102585750610141565b6000815560010161024b565b9091508190610242565b634e487b7160e01b600052602260045260246000fd5b90607f169061012f565b634e487b7160e01b600052604160045260246000fd5b62461bcd60e51b815260206004820152601460248201527f496e76616c6964207072656d69756d20726174650000000000000000000000006044820152606490fd5b631e4fbdf760e01b600052600060045260246000fd5b600080fd5b8060208092840101518282880101520161007c565b6040519190601f01601f191682016001600160401b0381118382101761028e5760405256fe6080604052600436101561002a575b361561001957600080fd5b61002534600354613dee565b600355005b6000803560e01c806305b1137b1461359d578063098464f3146134ea5780630d13fa5a146132b1578063100772cb146131815780631120fe7c14612e8057806314d0f1ba14612e1357806317b46b1b14612d535780631ef4f7bc14612c84578063216e14fb146129e85780632425b2e91461270957806333c7072e146122f85780633defbf281461223f5780634abfa163146121fb5780634e8402f314611cee57806353591ad61461170a5780635b23c27d14611a535780635d0040d314611a3557806365eaf548146119f257806366a3e4c814611728578063678f93501461170a57806369b5198a1461156a5780636a0ecf5014611522578063715018a6146114c85780637257dfc91461119857806377c8add8146110e65780638da5cb5b146110bf57806398e36b04146110205780639f9d903a14611002578063a0021cf114610fe4578063a591a0f414610f87578063b04869ae14610f5e578063bcd47032146108c3578063c06e34d2146107de578063d6387ed81461060a578063dabd2c80146105cd578063ddbfd8ef1461055d578063ed88c68e1461031e578063f019602e14610294578063f1139d0f146102765763f2fde38b146101ee575061000e565b34610273576020366003190112610273576102076138b8565b61020f613eed565b6001600160a01b0316801561025f5781546001600160a01b03198116821783556001600160a01b03167f8be0079c531659141344cd1fd0a4f28419497f9722a3daafe3b4186f6b6457e08380a380f35b631e4fbdf760e01b82526004829052602482fd5b80fd5b50346102735780600319360112610273576020600354604051908152f35b5034610273576020366003190112610273576001600160a01b036102b66138b8565b168152600660205260408120604051918260208354918281520192825260208220915b81811061030857610304856102f081870382613735565b604051918291602083526020830190613935565b0390f35b82548452602090930192600192830192016102d9565b50806003193601126102735734156105285761033c34600354613dee565b60035533815260066020526002604082200154156104d4575b33815260066020526002604082200161036f348254613dee565b9055600454600d5482916001600160a01b03169061038d9034613c7f565b90803b156104b3576040516340c10f1960e01b8152336004820152602481019290925290919081908390604490829084905af180156104c7576104b7575b50506040513481527fd143b3fca8f81682799e935736170faff446dc630e9babfdc72e4ae53c181a2660203392a2600454600d5482916001600160a01b0316906104159034613c7f565b90803b156104b3576040516340c10f1960e01b8152336004820152602481019290925282908290604490829084905af180156104a857610493575b506040519081527fd143b3fca8f81682799e935736170faff446dc630e9babfdc72e4ae53c181a2660203392a2602061048b600d5434613c7f565b604051908152f35b8161049d91613735565b610273578038610450565b6040513d84823e3d90fd5b5050fd5b6104c091613735565b38816103cb565b50604051903d90823e3d90fd5b600754600160401b811015610514578060016104f392016007556139ff565b81546001600160a01b0360039290921b91821b19163390911b179055610355565b634e487b7160e01b82526041600452602482fd5b60405162461bcd60e51b815260206004820152600d60248201526c09aeae6e840e6cadcc8408aa89609b1b6044820152606490fd5b5034610273576020366003190112610273576040906004358152600560205220805461030460018060a01b03600184015416926002810154906003810154600482015460058301549060ff6006850154169260086105bd60078701613756565b95015495604051998a998a613865565b5034610273576020366003190112610273576020906002906040906001600160a01b036105f86138b8565b16815260068452200154604051908152f35b5034610273578060031936011261027357600754600a8110156107d757805b61063281613d0e565b9161063c82613d0e565b9361064682613d0e565b9061065083613d0e565b92815b81811061077b5750815b8181106106bb5750505b83811061067d5760405180610304888883613a5f565b6001906001600160a01b036106928285613d92565b511661069e8288613d92565b526106a98185613d92565b516106b48289613d92565b5201610667565b60018101808211610767575b8281106106d7575060010161065d565b6001906106e48388613d92565b516106ef8289613d92565b51116106fc575b016106c7565b6107068188613d92565b516107118489613d92565b5161071c838a613d92565b526107278489613d92565b52818060a01b036107388288613d92565b5116828060a01b0361074a8589613d92565b51166107568389613d92565b526107618488613d92565b526106f6565b634e487b7160e01b84526011600452602484fd5b806107876001926139ff565b838060a01b0391549060031b1c1661079f8287613d92565b526107a9816139ff565b838060a01b0391549060031b1c168452600660205260026040852001546107d08288613d92565b5201610653565b600a610629565b5034610273576020366003190112610273576107f86138b8565b610800613eed565b6001600160a01b0316610814811515613da6565b8082526008602052600160408320015415610883576020817f7a9f1e23d5426b34819d173153d59084cc3578d5a129b80bb27df683ac6b2278928452600882526108796040852060046000918281558260018201558260028201558260038201550155565b604051908152a180f35b60405162461bcd60e51b8152602060048201526018602482015277135bd9195c985d1bdc88191bd95cc81b9bdd08195e1a5cdd60421b6044820152606490fd5b5034610273576060366003190112610273576004356001600160401b038111610f5a576108f49036906004016138ee565b6024356044356001600160401b038111610f56576109169036906004016138ee565b9061094961094260405160208187516109328183858c016137fa565b8101600981520301902054613693565b1515613c25565b808452600560205260408420600101546001600160a01b03163303610f195780845260056020526040842060405190610981826136cd565b8054825260018060a01b03600182015416602083015260028101546040830152600381015460608301526109fc6004820154916080840192835260058101549360a08101948552610100600860ff6006850154169360c0840194151585526109eb60078201613756565b60e085015201549101525115613af6565b514210610edc57514211610ea2576203f480420192834211610e8e57600c5491610a2583613e40565b600c55604051602095610a388783613735565b87825260405193610a48856136cd565b8585528785019384526040850190815260608501898152608086019142835260a0870193845260c08701948b86528960e0890152610100880152600b54600160401b811015610e6657806001610aa19201600b5561365e565b969096610e7a57875187555160018701555180516001600160401b038111610e6657610add81610ad460028a0154613693565b60028a01613dfb565b8a918c601f8311600114610df857610b0c93909183610d5b575b50508160011b916000199060031b1c19161790565b60028601555b5160038501555160048401555160058301556006820190516003811015610de45760ff801983541691161790556007810160e08301518051906001600160401b038211610dd057610b6d82610b678554613693565b85613dfb565b8790601f8311600114610d665782610100959360089593610ba3938d92610d5b5750508160011b916000199060031b1c19161790565b90555b0191015190815191600160401b8311610d475785908254848455808510610ca7575b50019086528486208587925b848410610c885750503387525050600684525060408420600101805494600160401b861015610c745750610c4b610c3486849360017f5decab71e0179c4a357e5f497297b72c7f2271c2350638169cc1d509062adc3a9899018155613a1a565b819391549060031b91821b91600019901b19161790565b9055610c686040519283928352604086840152604083019061381d565b0390a160405160018152f35b634e487b7160e01b81526041600452602490fd5b60019181610c996007935186613b9c565b019201920191908690610bd4565b80919250600702906007820403610d335783600702600781048503610d1f57838952878920889392810191015b818110610ce15750610bc8565b600791929350610d098160046000918281558260018201558260028201558260038201550155565b8960058201558960068201550190879291610cd4565b634e487b7160e01b89526011600452602489fd5b634e487b7160e01b88526011600452602488fd5b634e487b7160e01b87526041600452602487fd5b015190503880610af7565b838a52888a209190601f1984168b5b8b828210610dba57505092600192859261010098966008989610610da1575b505050811b019055610ba6565b015160001960f88460031b161c19169055388080610d94565b6001859682939686015181550195019301610d75565b634e487b7160e01b89526041600452602489fd5b634e487b7160e01b88526021600452602488fd5b5091600288018d528b8d20908d935b8d601f1985168610610e4d57506001945083601f19811610610e34575b505050811b016002860155610b12565b015160001960f88460031b161c19169055388080610e24565b8282015184559485019460019093019290910190610e07565b634e487b7160e01b8c52604160045260248cfd5b634e487b7160e01b8c5260048c905260248cfd5b634e487b7160e01b85526011600452602485fd5b60405162461bcd60e51b8152602060048201526012602482015271141bdb1a58de481a185cc8195e1c1a5c995960721b6044820152606490fd5b60405162461bcd60e51b8152602060048201526015602482015274506f6c696379206e6f74207965742061637469766560581b6044820152606490fd5b60405162461bcd60e51b81526020600482015260156024820152742737ba103a3432903837b634b1bc903437b63232b960591b6044820152606490fd5b8380fd5b5080fd5b50346102735780600319360112610273576004546040516001600160a01b039091168152602090f35b503461027357602036600319011261027357600435610fa4613eed565b8015610fb057600d5580f35b60405162461bcd60e51b815260206004820152600c60248201526b496e76616c6964207261746560a01b6044820152606490fd5b50346102735780600319360112610273576020600c54604051908152f35b50346102735780600319360112610273576020600a54604051908152f35b503461027357806003193601126102735760075461103d81613d0e565b9061104781613d0e565b92805b8281106110635750505061030460405192839283613a5f565b8061106f6001926139ff565b838060a01b0391549060031b1c166110878287613d92565b52611091816139ff565b838060a01b0391549060031b1c168352600660205260026040842001546110b88288613d92565b520161104a565b5034610273578060031936011261027357546040516001600160a01b039091168152602090f35b5034610273576020366003190112610273576004358015158061118d575b61110d90613ab7565b60001981019081116111795761112460089161365e565b500180549061113282613d0e565b925b828110611151576040516020808252819061030490820187613969565b8061115e60019284613b3b565b50828060a01b039054166111728287613d92565b5201611134565b634e487b7160e01b82526011600452602482fd5b50600c548110611104565b503461027357602036600319011261027357600435801515806114bd575b6111bf90613ab7565b60001981018181116114a9576111d49061365e565b50906006820160ff8154166003811015611495576114565760088301805490600382106113fa57859286938360011c9060018201809211610d1f57885b8581106113a2575088958115801561137b575b50501061132757600160ff19825416179055826003860155855b82811061128a575050507f131884885e3b15c22fcaa4e2b49df807c03ab9e54bc149f6447e3c9166ce881491606091604051918252600160208301526040820152a15b60054291015580f35b806112a061129a60019385613b3b565b50613e4f565b60408101516112d4575b828060a01b039051511688526008602052600260408920016112cc8154613e40565b90550161123e565b828060a01b038151511689526008602052600360408a20016112f68154613e40565b90556060810151838060a01b03825151168a526008602052611320600460408c2001918254613dee565b90556112aa565b9050606092507f131884885e3b15c22fcaa4e2b49df807c03ab9e54bc149f6447e3c9166ce8814939150600260ff1982541617905584600385015560405190815260026020820152846040820152a1611281565b9091965061138e57859004943880611224565b634e487b7160e01b89526012600452602489fd5b6113af61129a8287613b3b565b60208101511515806113ed575b6113ca575b50600101611211565b916001919760606113dd6113e693613e40565b94015190613dee565b96906113c1565b50604081015115156113bc565b60405162461bcd60e51b815260206004820152602e60248201527f4e6f7420656e6f756768206d6f64657261746f7273206861766520617373657360448201526d736564207468697320636c61696d60901b6064820152608490fd5b60405162461bcd60e51b815260206004820152601760248201527610db185a5b48185b1c9958591e48199a5b985b1a5e9959604a1b6044820152606490fd5b634e487b7160e01b85526021600452602485fd5b634e487b7160e01b83526011600452602483fd5b50600c5481106111b6565b50346102735780600319360112610273576114e1613eed565b80546001600160a01b03198116825581906001600160a01b03167f8be0079c531659141344cd1fd0a4f28419497f9722a3daafe3b4186f6b6457e08280a380f35b5034610273576020366003190112610273576004359060058202918083046005149015171561155657602082604051908152f35b634e487b7160e01b81526011600452602490fd5b5034610273576040366003190112610273576115846138b8565b60243561158f613eed565b6001600160a01b038216916115a5831515613da6565b81156116af578284526008602052600160408520015461166f577f7100a86ecf94bef5c32984e74b6847c32372ee773dd408da230116e910b2f274926004604051916115f08361371a565b808352602080840186815260408086018a8152606087018b8152608088018c8152958c5260088552828c20975188546001600160a01b0319166001600160a01b03918216178955935160018901559051600288015551600387015592519390940192909255805193909216835282019290925290819081015b0390a180f35b60405162461bcd60e51b81526020600482015260186024820152774d6f64657261746f7220616c72656164792065786973747360401b6044820152606490fd5b60405162461bcd60e51b815260206004820152602d60248201527f4d617820617070726f76616c20616d6f756e74206d757374206265206772656160448201526c746572207468616e207a65726f60981b6064820152608490fd5b50346102735780600319360112610273576020600d54604051908152f35b5034610273576080366003190112610273576004356001600160401b038111610f5a576117599036906004016138ee565b6024356001600160401b0381116119ee57611778903690600401613a32565b906044356001600160401b0381116119ea57611798903690600401613a32565b90916117a2613eed565b6117d560206040516117c46109428951928481818d01956109328183896137fa565b604051809381928a519283916137fa565b810160098152030190209360018501916001600160401b0382116119d65761180182610b678554613693565b8790601f83116001146119725761182f92918991836118c85750508160011b916000199060031b1c19161790565b90555b60038301916001600160401b03821161195e5761185382610b678554613693565b8590601f83116001146118d3578261166995937fa35de865ec4f1cbf701c0b24f4131c3881f019afaab526e3fd3a2986651c48ec9795936118a9938a926118c85750508160011b916000199060031b1c19161790565b90555b600260643591015560405191829160208352602083019061381d565b013590503880610af7565b8387526020872091601f198416885b818110611946575092600192859261166998967fa35de865ec4f1cbf701c0b24f4131c3881f019afaab526e3fd3a2986651c48ec9a98961061192c575b505050811b0190556118ac565b0135600019600384901b60f8161c1916905538808061191f565b919360206001819287870135815501950192016118e2565b634e487b7160e01b86526041600452602486fd5b8389526020892091601f1984168a5b8181106119be57509084600195949392106119a4575b505050811b019055611832565b0135600019600384901b60f8161c19169055388080611997565b91936020600181928787013581550195019201611981565b634e487b7160e01b88526041600452602488fd5b8480fd5b8280fd5b503461027357606036600319011261027357600435906001600160401b03821161027357602061048b611a2836600486016138ee565b6044359060243590613e90565b50346102735780600319360112610273576020600254604051908152f35b5034610273578060031936011261027357600b5490611a7182613cf7565b611a7e6040519182613735565b828152600b82526020810192827f0175b7a638427703f0dbe7bb9bbf987a2551717b34e79f33b5b1008d1fa01db9855b838310611c0b578585886040519160208301906020845251809152604083019360408260051b8501019294815b838310611ae85785850386f35b90919293603f1986820301835286518051825260208101516020830152610100611b68611b266040840151610120604087015261012086019061381d565b606084015160608601526080840151608086015260a084015160a0860152611b5660c085015160c0870190613842565b60e084015185820360e087015261381d565b910151916101008183039101526020808351928381520192019083905b808210611ba357505050602096870196909493600101920190611adb565b90919260206101006001926060875160808151878060a01b03815116855286810151878601526040810151604086015283810151848601520151608084015284810151151560a08401526040810151151560c0840152015160e0820152019401920190611b85565b604051611c17816136cd565b8254815260018301546020820152611c3160028401613756565b60408201526003830154606082015260048301546080820152600583015460a082015260ff6006840154166003811015610de45760c0820152611c7660078401613756565b60e0820152600883018054611c8a81613cf7565b91611c986040519384613735565b81835289526020808a20908a9084015b838210611cd05750505050600192826020926101006009950152815201920192019190611aae565b60076020600192611ce086613e4f565b815201930191019091611ca8565b5034610273576060366003190112610273576004356001600160401b038111610f5a57611d1f9036906004016138ee565b906024356001600160401b038111610f5a57611d3f9036906004016138ee565b90611d48613eed565b600a548190808072184f03e93ff9f4daa797ed6e38ed64bf6a1f0160401b8110156121d8575b806d04ee2d6d415b85acef8100000000600a9210156121bd575b662386f26fc100008110156121a9575b6305f5e100811015612198575b612710811015612189575b606481101561217b575b1015612171575b6001830191600a6021611dec611dd6866138d3565b95611de46040519788613735565b8087526138d3565b602086019690601f19013688378501015b60001901916f181899199a1a9b1b9c1cb0b131b232b360811b8282061a835304908115611e2c57600a90611dfd565b5050611e7090611e6b60246040518096611e5a6020830197634556542360e01b8952518092858501906137fa565b81010301601f198101865285613735565b613e40565b600a5560405190611e80826136ff565b82825260208201958652611eb1602060408401926044358452606085019788526040518093819288519283916137fa565b8101600981520301902091518051906001600160401b03821161195e57611ee282611edc8654613693565b86613dfb565b602090601f831160011461210e57611f119291879183610d5b5750508160011b916000199060031b1c19161790565b82555b6001820195519586516001600160401b03811161195e57611f3f81611f398454613693565b84613dfb565b6020601f82116001146120a8579080611f739288999a6003989992610d5b5750508160011b916000199060031b1c19161790565b90555b5160028201550192519283516001600160401b03811161209457611f9e81611f398454613693565b6020601f821160011461200b5781611669949392611ff49287987f0edea3c9f900aa84820ccf471d6139121481d600b8dd8963e85aa7a7fb8035349892610d5b5750508160011b916000199060031b1c19161790565b90555b60405191829160208352602083019061381d565b82855280852095601f198316865b81811061207c57509660019284926116699796957f0edea3c9f900aa84820ccf471d6139121481d600b8dd8963e85aa7a7fb803534999a10612063575b505050811b019055611ff7565b015160001960f88460031b161c19169055388080612056565b83830151895560019098019760209384019301612019565b634e487b7160e01b84526041600452602484fd5b82875280872098601f198316885b8181106120f657509160039798999a918460019594106120de575b505050811b019055611f76565b015160001983891b60f8161c191690553880806120d1565b838301518c556001909b019a602093840193016120b6565b8487528187209190601f198416885b8181106121595750908460019594939210612140575b505050811b018255611f14565b015160001960f88460031b161c19169055388080612133565b9293602060018192878601518155019501930161211d565b9160010191611dc1565b606460029104940193611dba565b61271060049104940193611db0565b6305f5e10060089104940193611da5565b662386f26fc1000060109104940193611d98565b6d04ee2d6d415b85acef810000000060209104940193611d88565b506040925072184f03e93ff9f4daa797ed6e38ed64bf6a1f0160401b8204611d6e565b50346102735760203660031901126102735760043590600754821015610273576020612226836139ff565b905460405160039290921b1c6001600160a01b03168152f35b503461027357602036600319011261027357600435906001600160401b038211610273576122d761228b602061227836600487016138ee565b81604051938285809451938492016137fa565b810160098152030190206103046122a182613756565b916122ae60018201613756565b6122e56122c2600360028501549401613756565b9160405196879660808852608088019061381d565b90868203602088015261381d565b916040850152838203606085015261381d565b506080366003190112610273576024356004356044356001600160401b038111610f565761232a9036906004016138ee565b91606435914281116126b9576201518082028281046201518014831517156126a5576123569082613dee565b91828210156126555761236a908486613e90565b8015612610578034036125d45760405160208101903060601b82523360601b6034820152426048820152604881526123a3606882613735565b519020946005820290828204600503610d3357859061246e88878b604051966123cb886136cd565b83885260208801903382526040890190815260608901918a8352604060808b01948d865260a08c0196875260c08c019781895260e08d019a8b526101008d019b8c52815260056020522099518a5560018060a01b0390511660018a019060018060a01b031660018060a01b0319825416179055516002890155516003880155516004870155516005860155511515600685019060ff801983541691151516179055565b51805160078401916001600160401b0382116125c05761249282610b678554613693565b6020908b601f84116001146125585760089594936124c693909283610d5b5750508160011b916000199060031b1c19161790565b90555b51910155338652600660205260408620805496600160401b881015610c7457506124ff610c34888893600160209b018155613a1a565b905561250d81600354613dee565b60035560405193858552868501526040840152606083015260808201527f4bdf67d7576c88a1f1180f8844338e7be49ba2c0bc3cf1e411753f442663331560a03392a2604051908152f35b50838c52818c209190601f1984168d5b8181106125a857509160019391856008989796941061258f575b505050811b0190556124c9565b015160001960f88460031b161c19169055388080612582565b92936020600181928786015181550195019301612568565b634e487b7160e01b8b52604160045260248bfd5b60405162461bcd60e51b8152602060048201526014602482015273125b98dbdc9c9958dd0811551208185b5bdd5b9d60621b6044820152606490fd5b60405162461bcd60e51b815260206004820152601e60248201527f5072656d69756d206d7573742062652067726561746572207468616e203000006044820152606490fd5b60405162461bcd60e51b815260206004820152602260248201527f53746172742074696d65206d757374206265206265666f726520656e642074696044820152616d6560f01b6064820152608490fd5b634e487b7160e01b86526011600452602486fd5b60405162461bcd60e51b815260206004820152602260248201527f53746172742074696d65206d757374206265203c3d2063757272656e742074696044820152616d6560f01b6064820152608490fd5b50346102735780600319360112610273573381526006602052604081205461273081613d0e565b9061273a81613d0e565b9261274482613d0e565b61274d83613d0e565b9161275784613d0e565b61276085613d0e565b61276986613cf7565b916127776040519384613735565b86835261278387613cf7565b602084019690601f190136883761279988613d5d565b956127a389613d0e565b98865b81811061287b5750506040519a8b9a6101208c526101208c016127c891613935565b8b810360208d01526127d991613969565b8a810360408c01526127ea91613935565b89810360608b01526127fb91613935565b88810360808a015261280c91613935565b87810360a089015261281d91613935565b9086820360c0880152519081815260200193915b8181106128605750505081612851918561030495940360e08701526139a6565b90838203610100850152613935565b82511515855287965060209485019490920191600101612831565b808b6129d68e9f95969798999b9c9d9e936101006001958f8f8f918f918f928f938f948f958a9660406129cd9933815260066020526128bc8a838320613a1a565b90549060031b1c81526005602052209960086040519b6128db8d6136cd565b80548d5260018101546001600160a01b031660208e0152600281015460408e0152600381015460608e0152600481015460808e0152600581015460a08e0152600681015460ff16151560c08e01528c60e061293860078401613756565b91015201548c8c015261294d898c5192613d92565b528f88816129659260a01b0360208d01511692613d92565b526129758760408b015192613d92565b526129858660608a015192613d92565b5261299585608089015192613d92565b526129a58460a088015192613d92565b526129b78360c0870151151592613d92565b5260e08401516129c78383613d92565b52613d92565b50015192613d92565b52019b9a99989795949392919b6127a6565b5034610273578060031936011261027357338152600660205260016040822001548015612c4a57612a1881613d0e565b91612a2282613d0e565b612a2b83613cf7565b91612a396040519384613735565b838352612a4584613cf7565b92612a586020820194601f190185613d40565b612a6185613d5d565b92612a6b86613d5d565b95835b818110612b2557612a96898989898989612aa48a60405198899860a08a5260a08a0190613935565b9088820360208a0152613935565b90868203604088015251908181526020810160208360051b8301019593915b838310612af05788806103048a612ae28b8b85820360608701526139a6565b9083820360808501526139a6565b9193969750919394602080612b11600193601f198682030187528a51613969565b980193019301909288979695949293612ac3565b3385526006602052612b3d8160016040882001613a1a565b90549060031b1c80151580612c3f575b612b5690613ab7565b60001981019081116126a557612b6d60089161365e565b508054612b7a848d613d92565b526001810154612b8a8487613d92565b52612b9760078201613756565b612ba1848c613d92565b52612bac838b613d92565b50612bbd60ff600683015416613f16565b612bc7848a613d92565b52612bd28389613d92565b50018054612bdf81613d0e565b91875b828110612c0c5750505090600191612bfa8287613d92565b52612c058186613d92565b5001612a6e565b80612c1960019284613b3b565b50828060a01b03905416612c2e811515613da6565b612c388287613d92565b5201612be2565b50600c548110612b4d565b60405162461bcd60e51b81526020600482015260126024820152715573657220686173206e6f20636c61696d7360701b6044820152606490fd5b5034610273578060031936011261027357604051908060015490612ca782613693565b8085529160018116908115612d2c5750600114612ccf575b61030484611ff781860382613735565b600181527fb10e2d527612073b26eecdfd717e6a320cf44b4afac2b0732d9fcbe2b7fa0cf6939250905b808210612d1257509091508101602001611ff782612cbf565b919260018160209254838588010152019101909291612cf9565b60ff191660208087019190915292151560051b85019092019250611ff79150839050612cbf565b5034610273576020366003190112610273576004356001600160401b038111610f5a57611669612da87ffec510cf8dc709165f06d672244480e0718dc5ef561cfaa29c05b11869fcc0449236906004016138ee565b612db0613eed565b611ff76003612de86020604051612dd76109428751928481818b01956109328183896137fa565b6040518093819288519283916137fa565b81016009815203019020612dfb81613ca8565b612e0760018201613ca8565b86600282015501613ca8565b50346102735760203660031901126102735760a0906040906001600160a01b03612e3b6138b8565b168152600860205220600180831b0381541690600181015490600281015460046003830154920154926040519485526020850152604084015260608301526080820152f35b503461027357606036600319011261027357600435602435801515808203610f56576044359183151580613176575b612eb890613ab7565b60001984018481116126a557612ecd9061365e565b509060ff6006830154166003811015613162576131235733865260086020526001604087200154156130de57156130d657821561307f5733855260086020526001604086200154831161303a575b6008018054855b818110612fdf575033865260086020526040862091612f4c60405193612f47856136ff565b613b57565b835260016020840152836040840152846060840152600160401b821015610d475790612f7d91600182018155613b3b565b612fcb5791612fb1608094927fea011128836db08a6e5385e82ae9ef7ec1f6756b3bf6d266c0809eec75ccdf889694613b9c565b60405192338452602084015260408301526060820152a180f35b634e487b7160e01b86526004869052602486fd5b612fe98184613b3b565b50546001600160a01b0316331461300257600101612f22565b60405162461bcd60e51b815260206004820152601060248201526f105b1c9958591e48185cdcd95cdcd95960821b6044820152606490fd5b60405162461bcd60e51b815260206004820152601c60248201527f416d6f756e742065786365656473206d6f64657261746f7220636170000000006044820152606490fd5b60405162461bcd60e51b815260206004820152602960248201527f417070726f76616c20616d6f756e74206d7573742062652067726561746572206044820152687468616e207a65726f60b81b6064820152608490fd5b849250612f1b565b60405162461bcd60e51b815260206004820152601a60248201527f4e6f7420612072656769737465726564206d6f64657261746f720000000000006044820152606490fd5b60405162461bcd60e51b815260206004820152601760248201527610db185a5b48185b1c9958591e481c1c9bd8d95cdcd959604a1b6044820152606490fd5b634e487b7160e01b87526021600452602487fd5b50600c548410612eaf565b50346102735760203660031901126102735760409060043581526005602052206040516131ad816136cd565b8154815260018060a01b036001830154169060208101918252600283015492604082019384526003810154906060830191825260048101549060808401918252600581015460a0850190815260ff6006830154169060c086019115158252600861321960078501613756565b60e08801908152930154610100870190815287519094906001600160a01b0316330361326c5761030496519760018060a01b039051169851955190519151925115159351945195604051998a998a613865565b60405162461bcd60e51b815260206004820152601b60248201527f43616c6c6572206973206e6f7420706f6c69637920686f6c64657200000000006044820152606490fd5b5034610273576020366003190112610273576004356132ce613eed565b801515806134df575b6132e090613ab7565b6000198101908111611179576132f59061365e565b50600681019060ff82541660038110156134cb5760010361349157600181015483526005602052604083209160068301600381549361333760ff861615613af6565b015492831561345157836003541061340c5760ff19166001179055600354828103908111610e8e576003556001830191848080808460018060a01b038854165af1613380613a87565b50156133d1577fe64ba0c150ba8da1befe0c879808734569d6e16bf75e2b77c4e1db04e359cba592604092600160ff1982541617905560018060a01b0390541693549082519182526020820152a280f35b60405162461bcd60e51b8152602060048201526013602482015272115512081d1c985b9cd9995c8819985a5b1959606a1b6044820152606490fd5b60405162461bcd60e51b815260206004820152601e60248201527f496e73756666696369656e742066756e647320696e2074686520706f6f6c00006044820152606490fd5b60405162461bcd60e51b8152602060048201526018602482015277139bc8185c1c1c9bdd99590818db185a5b48185b5bdd5b9d60421b6044820152606490fd5b60405162461bcd60e51b815260206004820152601260248201527110db185a5b481b9bdd081858d8d95c1d195960721b6044820152606490fd5b634e487b7160e01b84526021600452602484fd5b50600c5481106132d7565b503461027357602036600319011261027357600435600b54811015610f5a576135129061365e565b50805461030460018301549261352a60028201613756565b6135906003830154926004810154600582015490613576613555600760ff6006870154169501613756565b956040519a8b9a8b5260208b015261010060408b01526101008a019061381d565b956060890152608088015260a087015260c0860190613842565b83820360e085015261381d565b506040366003190112610273576004356001600160a01b03811690819003610f5a57602435906135cb613eed565b814710613622578280809381935af16135e2613a87565b50156135eb5780f35b60405162461bcd60e51b815260206004820152600f60248201526e151c985b9cd9995c8819985a5b1959608a1b6044820152606490fd5b60405162461bcd60e51b8152602060048201526014602482015273496e73756666696369656e742062616c616e636560601b6044820152606490fd5b600b5481101561367d57600b6000526009602060002091020190600090565b634e487b7160e01b600052603260045260246000fd5b90600182811c921680156136c3575b60208310146136ad57565b634e487b7160e01b600052602260045260246000fd5b91607f16916136a2565b61012081019081106001600160401b038211176136e957604052565b634e487b7160e01b600052604160045260246000fd5b608081019081106001600160401b038211176136e957604052565b60a081019081106001600160401b038211176136e957604052565b90601f801991011681019081106001600160401b038211176136e957604052565b906040519182600082549261376a84613693565b80845293600181169081156137d85750600114613791575b5061378f92500383613735565b565b90506000929192526020600020906000915b8183106137bc57505090602061378f9282010138613782565b60209193508060019154838589010152019101909184926137a3565b90506020925061378f94915060ff191682840152151560051b82010138613782565b60005b83811061380d5750506000910152565b81810151838201526020016137fd565b90602091613836815180928185528580860191016137fa565b601f01601f1916010190565b90600382101561384f5752565b634e487b7160e01b600052602160045260246000fd5b9998979491926138b396936101009895928c5260018060a01b031660208c015260408b015260608a0152608089015260a0880152151560c087015261012060e087015261012086019061381d565b930152565b600435906001600160a01b03821682036138ce57565b600080fd5b6001600160401b0381116136e957601f01601f191660200190565b81601f820112156138ce57803590613905826138d3565b926139136040519485613735565b828452602083830101116138ce57816000926020809301838601378301015290565b906020808351928381520192019060005b8181106139535750505090565b8251845260209384019390920191600101613946565b906020808351928381520192019060005b8181106139875750505090565b82516001600160a01b031684526020938401939092019160010161397a565b9080602083519182815201916020808360051b8301019401926000915b8383106139d257505050505090565b90919293946020806139f0600193601f19868203018752895161381d565b970193019301919392906139c3565b60075481101561367d57600760005260206000200190600090565b805482101561367d5760005260206000200190600090565b9181601f840112156138ce578235916001600160401b0383116138ce57602083818601950101116138ce57565b9091613a76613a8493604084526040840190613969565b916020818403910152613935565b90565b3d15613ab2573d90613a98826138d3565b91613aa66040519384613735565b82523d6000602084013e565b606090565b15613abe57565b60405162461bcd60e51b815260206004820152601060248201526f125b9d985b1a590818db185a5b48125160821b6044820152606490fd5b15613afd57565b60405162461bcd60e51b8152602060048201526016602482015275141bdb1a58de48185b1c9958591e4818db185a5b595960521b6044820152606490fd5b805482101561367d576000526007602060002091020190600090565b90604051613b648161371a565b82546001600160a01b031681526001830154602082015260028301546040820152600383015460608201526004909201546080830152565b8151805182546001600160a01b039091166001600160a01b03199091161782556020808201516001840155604082015160028401556060808301516003850155608090920151600484015583015160058301805460ff191691151560ff1691909117815591926006926040820151815461ff00191690151560081b61ff00161790550151910155565b15613c2c57565b60405162461bcd60e51b8152602060048201526014602482015273115d995b9d08191bd95cc81b9bdd08195e1a5cdd60621b6044820152606490fd5b818110613c73575050565b60008155600101613c68565b81810292918115918404141715613c9257565b634e487b7160e01b600052601160045260246000fd5b613cb28154613693565b9081613cbc575050565b81601f60009311600114613cce575055565b81835260208320613cea91601f0160051c810190600101613c68565b8082528160208120915555565b6001600160401b0381116136e95760051b60200190565b90613d1882613cf7565b613d256040519182613735565b8281528092613d36601f1991613cf7565b0190602036910137565b60005b828110613d4f57505050565b606082820152602001613d43565b9061378f613d6a83613cf7565b613d776040519182613735565b83815260208194613d8a601f1991613cf7565b019101613d40565b805182101561367d5760209160051b010190565b15613dad57565b60405162461bcd60e51b8152602060048201526019602482015278496e76616c6964206d6f64657261746f72206164647265737360381b6044820152606490fd5b91908201809211613c9257565b9190601f8111613e0a57505050565b61378f926000526020600020906020601f840160051c83019310613e36575b601f0160051c0190613c68565b9091508190613e29565b6000198114613c925760010190565b90604051613e5c816136ff565b606060068294613e6b81613b57565b845260ff60058201548181161515602087015260081c16151560408501520154910152565b606490929192604051613ec460208281613eb381830196878151938492016137fa565b81010301601f198101835282613735565b5190200660018101809111613c9257613ee4613ee992623d090094613c7f565b613c7f565b0490565b6000546001600160a01b03163303613f0157565b63118cdaa760e01b6000523360045260246000fd5b600381101561384f578015613f9a5760009060018114613f72576002915014613f4e57604051613f47602082613735565b6000815290565b604051613f5c604082613735565b600681526511195b9a595960d21b602082015290565b5050604051613f82604082613735565b60088152671058d8d95c1d195960c21b602082015290565b50604051613fa9604082613735565b600781526650656e64696e6760c81b60208201529056fea264697066735822122035e801b346f3e473aaebbd5e07d6edb53abadd62cfeb2ea3179bc9a1db69691c64736f6c634300081c0033",
  "linkReferences": {},
  "deployedLinkReferences": {}
}