{
  "_format": "hh-sol-artifact-1",
  "contractName": "GraviInsurance",
  "sourceName": "contracts/GraviInsurance.sol",
  "abi": [
    {
      "inputs": [
        {
          "internalType": "string",
          "name": "_disasterType",
          "type": "string"
        },
        {
          "internalType": "uint256",
          "name": "_premiumRate",
          "type": "uint256"
        },
        {
          "internalType": "address",
          "name": "_graviCha",
          "type": "address"
        },
        {
          "internalType": "address",
          "name": "_oracleAddress",
          "type": "address"
        }
      ],
      "stateMutability": "nonpayable",
      "type": "constructor"
    },
    {
      "inputs": [
        {
          "internalType": "address",
          "name": "owner",
          "type": "address"
        }
      ],
      "name": "OwnableInvalidOwner",
      "type": "error"
    },
    {
      "inputs": [
        {
          "internalType": "address",
          "name": "account",
          "type": "address"
        }
      ],
      "name": "OwnableUnauthorizedAccount",
      "type": "error"
    },
    {
      "anonymous": false,
      "inputs": [
        {
          "indexed": true,
          "internalType": "address",
          "name": "user",
          "type": "address"
        },
        {
          "indexed": false,
          "internalType": "bytes32",
          "name": "policyId",
          "type": "bytes32"
        },
        {
          "indexed": false,
          "internalType": "uint256",
          "name": "payout",
          "type": "uint256"
        }
      ],
      "name": "ClaimApproved",
      "type": "event"
    },
    {
      "anonymous": false,
      "inputs": [
        {
          "indexed": false,
          "internalType": "address",
          "name": "moderator",
          "type": "address"
        },
        {
          "indexed": false,
          "internalType": "uint256",
          "name": "claimId",
          "type": "uint256"
        },
        {
          "indexed": false,
          "internalType": "bool",
          "name": "isApproved",
          "type": "bool"
        },
        {
          "indexed": false,
          "internalType": "uint256",
          "name": "amount",
          "type": "uint256"
        }
      ],
      "name": "ClaimAssessed",
      "type": "event"
    },
    {
      "anonymous": false,
      "inputs": [
        {
          "indexed": false,
          "internalType": "uint256",
          "name": "claimId",
          "type": "uint256"
        },
        {
          "indexed": false,
          "internalType": "enum GraviInsurance.ClaimStatus",
          "name": "claimStatus",
          "type": "uint8"
        },
        {
          "indexed": false,
          "internalType": "uint256",
          "name": "approvedClaimAmount",
          "type": "uint256"
        }
      ],
      "name": "ClaimProcessed",
      "type": "event"
    },
    {
      "anonymous": false,
      "inputs": [
        {
          "indexed": false,
          "internalType": "uint256",
          "name": "claimId",
          "type": "uint256"
        },
        {
          "indexed": false,
          "internalType": "string",
          "name": "incidentDescription",
          "type": "string"
        }
      ],
      "name": "ClaimStarted",
      "type": "event"
    },
    {
      "anonymous": false,
      "inputs": [
        {
          "indexed": false,
          "internalType": "string",
          "name": "eventId",
          "type": "string"
        }
      ],
      "name": "DisasterEventAdded",
      "type": "event"
    },
    {
      "anonymous": false,
      "inputs": [
        {
          "indexed": false,
          "internalType": "string",
          "name": "eventId",
          "type": "string"
        }
      ],
      "name": "DisasterEventModified",
      "type": "event"
    },
    {
      "anonymous": false,
      "inputs": [
        {
          "indexed": false,
          "internalType": "string",
          "name": "eventId",
          "type": "string"
        }
      ],
      "name": "DisasterEventRemoved",
      "type": "event"
    },
    {
      "anonymous": false,
      "inputs": [
        {
          "indexed": true,
          "internalType": "address",
          "name": "donor",
          "type": "address"
        },
        {
          "indexed": false,
          "internalType": "uint256",
          "name": "amount",
          "type": "uint256"
        }
      ],
      "name": "FundsDonated",
      "type": "event"
    },
    {
      "anonymous": false,
      "inputs": [
        {
          "indexed": false,
          "internalType": "address",
          "name": "moderator",
          "type": "address"
        },
        {
          "indexed": false,
          "internalType": "uint256",
          "name": "maxAmount",
          "type": "uint256"
        }
      ],
      "name": "ModeratorAdded",
      "type": "event"
    },
    {
      "anonymous": false,
      "inputs": [
        {
          "indexed": false,
          "internalType": "address",
          "name": "moderator",
          "type": "address"
        }
      ],
      "name": "ModeratorRemoved",
      "type": "event"
    },
    {
      "anonymous": false,
      "inputs": [
        {
          "indexed": true,
          "internalType": "address",
          "name": "previousOwner",
          "type": "address"
        },
        {
          "indexed": true,
          "internalType": "address",
          "name": "newOwner",
          "type": "address"
        }
      ],
      "name": "OwnershipTransferred",
      "type": "event"
    },
    {
      "anonymous": false,
      "inputs": [
        {
          "indexed": true,
          "internalType": "address",
          "name": "user",
          "type": "address"
        },
        {
          "indexed": false,
          "internalType": "bytes32",
          "name": "policyId",
          "type": "bytes32"
        },
        {
          "indexed": false,
          "internalType": "uint256",
          "name": "coverageAmount",
          "type": "uint256"
        },
        {
          "indexed": false,
          "internalType": "uint256",
          "name": "premium",
          "type": "uint256"
        },
        {
          "indexed": false,
          "internalType": "uint256",
          "name": "startTime",
          "type": "uint256"
        },
        {
          "indexed": false,
          "internalType": "uint256",
          "name": "endTime",
          "type": "uint256"
        }
      ],
      "name": "PolicyPurchased",
      "type": "event"
    },
    {
      "inputs": [
        {
          "internalType": "string",
          "name": "eventName",
          "type": "string"
        },
        {
          "internalType": "string",
          "name": "eventDescription",
          "type": "string"
        },
        {
          "internalType": "uint256",
          "name": "disasterDate",
          "type": "uint256"
        }
      ],
      "name": "addDisasterEvent",
      "outputs": [],
      "stateMutability": "nonpayable",
      "type": "function"
    },
    {
      "inputs": [
        {
          "internalType": "address",
          "name": "_moderatorAddress",
          "type": "address"
        },
        {
          "internalType": "uint256",
          "name": "maxAmount",
          "type": "uint256"
        }
      ],
      "name": "addModeratorToPool",
      "outputs": [],
      "stateMutability": "nonpayable",
      "type": "function"
    },
    {
      "inputs": [
        {
          "internalType": "uint256",
          "name": "claimId",
          "type": "uint256"
        },
        {
          "internalType": "bool",
          "name": "isApproved",
          "type": "bool"
        },
        {
          "internalType": "uint256",
          "name": "amount",
          "type": "uint256"
        }
      ],
      "name": "assessClaim",
      "outputs": [],
      "stateMutability": "nonpayable",
      "type": "function"
    },
    {
      "inputs": [
        {
          "internalType": "uint256",
          "name": "startTime",
          "type": "uint256"
        },
        {
          "internalType": "uint256",
          "name": "coveragePeriod",
          "type": "uint256"
        },
        {
          "internalType": "string",
          "name": "propertyAddress",
          "type": "string"
        },
        {
          "internalType": "uint256",
          "name": "propertyValue",
          "type": "uint256"
        }
      ],
      "name": "buyInsurance",
      "outputs": [
        {
          "internalType": "bytes32",
          "name": "",
          "type": "bytes32"
        }
      ],
      "stateMutability": "payable",
      "type": "function"
    },
    {
      "inputs": [
        {
          "internalType": "string",
          "name": "propertyAddress",
          "type": "string"
        },
        {
          "internalType": "uint256",
          "name": "propertyValue",
          "type": "uint256"
        },
        {
          "internalType": "uint256",
          "name": "coveragePeriod",
          "type": "uint256"
        }
      ],
      "name": "calculateCoverageAmount",
      "outputs": [
        {
          "internalType": "uint256",
          "name": "coverageAmount",
          "type": "uint256"
        }
      ],
      "stateMutability": "view",
      "type": "function"
    },
    {
      "inputs": [
        {
          "internalType": "string",
          "name": "propertyAddress",
          "type": "string"
        },
        {
          "internalType": "uint256",
          "name": "propertyValue",
          "type": "uint256"
        },
        {
          "internalType": "uint256",
          "name": "coveragePeriod",
          "type": "uint256"
        }
      ],
      "name": "calculatePremium",
      "outputs": [
        {
          "internalType": "uint256",
          "name": "premium",
          "type": "uint256"
        }
      ],
      "stateMutability": "view",
      "type": "function"
    },
    {
      "inputs": [
        {
          "internalType": "uint256",
          "name": "claimId",
          "type": "uint256"
        }
      ],
      "name": "cancelClaim",
      "outputs": [
        {
          "internalType": "bool",
          "name": "success",
          "type": "bool"
        }
      ],
      "stateMutability": "nonpayable",
      "type": "function"
    },
    {
      "inputs": [
        {
          "internalType": "uint256",
          "name": "",
          "type": "uint256"
        }
      ],
      "name": "claimRecords",
      "outputs": [
        {
          "internalType": "uint256",
          "name": "claimId",
          "type": "uint256"
        },
        {
          "internalType": "bytes32",
          "name": "policyId",
          "type": "bytes32"
        },
        {
          "internalType": "string",
          "name": "eventId",
          "type": "string"
        },
        {
          "internalType": "uint256",
          "name": "approvedClaimAmount",
          "type": "uint256"
        },
        {
          "internalType": "uint256",
          "name": "assessmentStart",
          "type": "uint256"
        },
        {
          "internalType": "uint256",
          "name": "assessmentEnd",
          "type": "uint256"
        },
        {
          "internalType": "enum GraviInsurance.ClaimStatus",
          "name": "status",
          "type": "uint8"
        },
        {
          "internalType": "string",
          "name": "incidentDescription",
          "type": "string"
        }
      ],
      "stateMutability": "view",
      "type": "function"
    },
    {
      "inputs": [
        {
          "internalType": "string",
          "name": "",
          "type": "string"
        }
      ],
      "name": "disasterEvents",
      "outputs": [
        {
          "internalType": "string",
          "name": "eventId",
          "type": "string"
        },
        {
          "internalType": "string",
          "name": "name",
          "type": "string"
        },
        {
          "internalType": "uint256",
          "name": "disasterDate",
          "type": "uint256"
        },
        {
          "internalType": "string",
          "name": "eventDescription",
          "type": "string"
        }
      ],
      "stateMutability": "view",
      "type": "function"
    },
    {
      "inputs": [],
      "name": "disasterOracle",
      "outputs": [
        {
          "internalType": "contract IGraviDisasterOracle",
          "name": "",
          "type": "address"
        }
      ],
      "stateMutability": "view",
      "type": "function"
    },
    {
      "inputs": [],
      "name": "disasterType",
      "outputs": [
        {
          "internalType": "string",
          "name": "",
          "type": "string"
        }
      ],
      "stateMutability": "view",
      "type": "function"
    },
    {
      "inputs": [],
      "name": "donate",
      "outputs": [
        {
          "internalType": "uint256",
          "name": "tokensReceived",
          "type": "uint256"
        }
      ],
      "stateMutability": "payable",
      "type": "function"
    },
    {
      "inputs": [],
      "name": "donationRewardRate",
      "outputs": [
        {
          "internalType": "uint256",
          "name": "",
          "type": "uint256"
        }
      ],
      "stateMutability": "view",
      "type": "function"
    },
    {
      "inputs": [
        {
          "internalType": "uint256",
          "name": "",
          "type": "uint256"
        }
      ],
      "name": "donors",
      "outputs": [
        {
          "internalType": "address",
          "name": "",
          "type": "address"
        }
      ],
      "stateMutability": "view",
      "type": "function"
    },
    {
      "inputs": [
        {
          "internalType": "address",
          "name": "user",
          "type": "address"
        }
      ],
      "name": "fetchClaimIds",
      "outputs": [
        {
          "internalType": "uint256[]",
          "name": "",
          "type": "uint256[]"
        }
      ],
      "stateMutability": "view",
      "type": "function"
    },
    {
      "inputs": [
        {
          "internalType": "address",
          "name": "user",
          "type": "address"
        }
      ],
      "name": "fetchInsuranceIds",
      "outputs": [
        {
          "internalType": "bytes32[]",
          "name": "",
          "type": "bytes32[]"
        }
      ],
      "stateMutability": "view",
      "type": "function"
    },
    {
      "inputs": [],
      "name": "getAllClaims",
      "outputs": [
        {
          "components": [
            {
              "internalType": "uint256",
              "name": "claimId",
              "type": "uint256"
            },
            {
              "internalType": "bytes32",
              "name": "policyId",
              "type": "bytes32"
            },
            {
              "internalType": "string",
              "name": "eventId",
              "type": "string"
            },
            {
              "internalType": "uint256",
              "name": "approvedClaimAmount",
              "type": "uint256"
            },
            {
              "internalType": "uint256",
              "name": "assessmentStart",
              "type": "uint256"
            },
            {
              "internalType": "uint256",
              "name": "assessmentEnd",
              "type": "uint256"
            },
            {
              "internalType": "enum GraviInsurance.ClaimStatus",
              "name": "status",
              "type": "uint8"
            },
            {
              "internalType": "string",
              "name": "incidentDescription",
              "type": "string"
            },
            {
              "components": [
                {
                  "components": [
                    {
                      "internalType": "address",
                      "name": "moderatorAddress",
                      "type": "address"
                    },
                    {
                      "internalType": "uint256",
                      "name": "maxApprovalAmount",
                      "type": "uint256"
                    },
                    {
                      "internalType": "uint256",
                      "name": "totalClaimsAssessed",
                      "type": "uint256"
                    },
                    {
                      "internalType": "uint256",
                      "name": "totalClaimsApproved",
                      "type": "uint256"
                    },
                    {
                      "internalType": "uint256",
                      "name": "totalApprovedAmount",
                      "type": "uint256"
                    }
                  ],
                  "internalType": "struct GraviInsurance.Moderator",
                  "name": "moderator",
                  "type": "tuple"
                },
                {
                  "internalType": "bool",
                  "name": "hasDecided",
                  "type": "bool"
                },
                {
                  "internalType": "bool",
                  "name": "isApproved",
                  "type": "bool"
                },
                {
                  "internalType": "uint256",
                  "name": "approvedAmount",
                  "type": "uint256"
                }
              ],
              "internalType": "struct GraviInsurance.ModeratorInfo[]",
              "name": "moderatorTeam",
              "type": "tuple[]"
            }
          ],
          "internalType": "struct GraviInsurance.ClaimRecord[]",
          "name": "",
          "type": "tuple[]"
        }
      ],
      "stateMutability": "view",
      "type": "function"
    },
    {
      "inputs": [],
      "name": "getAllDisasterEvents",
      "outputs": [
        {
          "internalType": "string[]",
          "name": "eventIds",
          "type": "string[]"
        }
      ],
      "stateMutability": "view",
      "type": "function"
    },
    {
      "inputs": [],
      "name": "getAllDonors",
      "outputs": [
        {
          "internalType": "address[]",
          "name": "",
          "type": "address[]"
        },
        {
          "internalType": "uint256[]",
          "name": "",
          "type": "uint256[]"
        }
      ],
      "stateMutability": "view",
      "type": "function"
    },
    {
      "inputs": [
        {
          "internalType": "uint256",
          "name": "claimId",
          "type": "uint256"
        }
      ],
      "name": "getClaimDetails",
      "outputs": [
        {
          "internalType": "uint256",
          "name": "_claimId",
          "type": "uint256"
        },
        {
          "internalType": "bytes32",
          "name": "_policyId",
          "type": "bytes32"
        },
        {
          "internalType": "string",
          "name": "_eventId",
          "type": "string"
        },
        {
          "internalType": "uint256",
          "name": "_approvedClaimAmount",
          "type": "uint256"
        },
        {
          "internalType": "uint256",
          "name": "_assessmentStart",
          "type": "uint256"
        },
        {
          "internalType": "uint256",
          "name": "_assessmentEnd",
          "type": "uint256"
        },
        {
          "internalType": "string",
          "name": "_status",
          "type": "string"
        },
        {
          "internalType": "string",
          "name": "_incidentDescription",
          "type": "string"
        },
        {
          "internalType": "address[]",
          "name": "moderatorAddresses",
          "type": "address[]"
        },
        {
          "internalType": "bool[]",
          "name": "hasDecidedList",
          "type": "bool[]"
        },
        {
          "internalType": "bool[]",
          "name": "isApprovedList",
          "type": "bool[]"
        },
        {
          "internalType": "uint256[]",
          "name": "approvedAmounts",
          "type": "uint256[]"
        }
      ],
      "stateMutability": "view",
      "type": "function"
    },
    {
      "inputs": [
        {
          "internalType": "uint256",
          "name": "claimId",
          "type": "uint256"
        }
      ],
      "name": "getClaimModerators",
      "outputs": [
        {
          "internalType": "address[]",
          "name": "",
          "type": "address[]"
        }
      ],
      "stateMutability": "view",
      "type": "function"
    },
    {
      "inputs": [
        {
          "internalType": "string",
          "name": "eventId",
          "type": "string"
        }
      ],
      "name": "getDisasterEvent",
      "outputs": [
        {
          "internalType": "string",
          "name": "eventName",
          "type": "string"
        },
        {
          "internalType": "string",
          "name": "eventDescription",
          "type": "string"
        },
        {
          "internalType": "uint256",
          "name": "disasterDate",
          "type": "uint256"
        }
      ],
      "stateMutability": "view",
      "type": "function"
    },
    {
      "inputs": [],
      "name": "getDonationRewardRate",
      "outputs": [
        {
          "internalType": "uint256",
          "name": "",
          "type": "uint256"
        }
      ],
      "stateMutability": "view",
      "type": "function"
    },
    {
      "inputs": [],
      "name": "getTopDonors",
      "outputs": [
        {
          "internalType": "address[]",
          "name": "topDonors",
          "type": "address[]"
        },
        {
          "internalType": "uint256[]",
          "name": "topAmounts",
          "type": "uint256[]"
        }
      ],
      "stateMutability": "view",
      "type": "function"
    },
    {
      "inputs": [],
      "name": "getUserClaims",
      "outputs": [
        {
          "internalType": "uint256[]",
          "name": "claimIds",
          "type": "uint256[]"
        },
        {
          "internalType": "bytes32[]",
          "name": "policyIds",
          "type": "bytes32[]"
        },
        {
          "internalType": "address[][]",
          "name": "moderatorList",
          "type": "address[][]"
        },
        {
          "internalType": "string[]",
          "name": "statuses",
          "type": "string[]"
        },
        {
          "internalType": "string[]",
          "name": "descriptions",
          "type": "string[]"
        }
      ],
      "stateMutability": "view",
      "type": "function"
    },
    {
      "inputs": [],
      "name": "getUserPolicies",
      "outputs": [
        {
          "internalType": "bytes32[]",
          "name": "policyIds",
          "type": "bytes32[]"
        },
        {
          "internalType": "address[]",
          "name": "policyHolders",
          "type": "address[]"
        },
        {
          "internalType": "uint256[]",
          "name": "maxCoverageAmounts",
          "type": "uint256[]"
        },
        {
          "internalType": "uint256[]",
          "name": "premiums",
          "type": "uint256[]"
        },
        {
          "internalType": "uint256[]",
          "name": "startTimes",
          "type": "uint256[]"
        },
        {
          "internalType": "uint256[]",
          "name": "endTimes",
          "type": "uint256[]"
        },
        {
          "internalType": "bool[]",
          "name": "isClaimedList",
          "type": "bool[]"
        },
        {
          "internalType": "string[]",
          "name": "propertyAddresses",
          "type": "string[]"
        },
        {
          "internalType": "uint256[]",
          "name": "propertyValues",
          "type": "uint256[]"
        }
      ],
      "stateMutability": "view",
      "type": "function"
    },
    {
      "inputs": [
        {
          "internalType": "bytes32",
          "name": "policyId",
          "type": "bytes32"
        }
      ],
      "name": "getUserPolicy",
      "outputs": [
        {
          "internalType": "bytes32",
          "name": "_policyId",
          "type": "bytes32"
        },
        {
          "internalType": "address",
          "name": "_policyHolder",
          "type": "address"
        },
        {
          "internalType": "uint256",
          "name": "_maxCoverageAmount",
          "type": "uint256"
        },
        {
          "internalType": "uint256",
          "name": "_premiumPaid",
          "type": "uint256"
        },
        {
          "internalType": "uint256",
          "name": "_startTime",
          "type": "uint256"
        },
        {
          "internalType": "uint256",
          "name": "_endTime",
          "type": "uint256"
        },
        {
          "internalType": "bool",
          "name": "_isClaimed",
          "type": "bool"
        },
        {
          "internalType": "string",
          "name": "_propertyAddress",
          "type": "string"
        },
        {
          "internalType": "uint256",
          "name": "_propertyValue",
          "type": "uint256"
        }
      ],
      "stateMutability": "view",
      "type": "function"
    },
    {
      "inputs": [],
      "name": "graviCha",
      "outputs": [
        {
          "internalType": "contract IGraviCha",
          "name": "",
          "type": "address"
        }
      ],
      "stateMutability": "view",
      "type": "function"
    },
    {
      "inputs": [
        {
          "internalType": "address",
          "name": "",
          "type": "address"
        }
      ],
      "name": "moderators",
      "outputs": [
        {
          "internalType": "address",
          "name": "moderatorAddress",
          "type": "address"
        },
        {
          "internalType": "uint256",
          "name": "maxApprovalAmount",
          "type": "uint256"
        },
        {
          "internalType": "uint256",
          "name": "totalClaimsAssessed",
          "type": "uint256"
        },
        {
          "internalType": "uint256",
          "name": "totalClaimsApproved",
          "type": "uint256"
        },
        {
          "internalType": "uint256",
          "name": "totalApprovedAmount",
          "type": "uint256"
        }
      ],
      "stateMutability": "view",
      "type": "function"
    },
    {
      "inputs": [
        {
          "internalType": "string",
          "name": "eventId",
          "type": "string"
        },
        {
          "internalType": "string",
          "name": "newName",
          "type": "string"
        },
        {
          "internalType": "string",
          "name": "newEventDescription",
          "type": "string"
        },
        {
          "internalType": "uint256",
          "name": "disasterDate",
          "type": "uint256"
        }
      ],
      "name": "modifyDisasterEvent",
      "outputs": [],
      "stateMutability": "nonpayable",
      "type": "function"
    },
    {
      "inputs": [],
      "name": "nextClaimId",
      "outputs": [
        {
          "internalType": "uint256",
          "name": "",
          "type": "uint256"
        }
      ],
      "stateMutability": "view",
      "type": "function"
    },
    {
      "inputs": [],
      "name": "nextEventId",
      "outputs": [
        {
          "internalType": "uint256",
          "name": "",
          "type": "uint256"
        }
      ],
      "stateMutability": "view",
      "type": "function"
    },
    {
      "inputs": [],
      "name": "owner",
      "outputs": [
        {
          "internalType": "address",
          "name": "",
          "type": "address"
        }
      ],
      "stateMutability": "view",
      "type": "function"
    },
    {
      "inputs": [
        {
          "internalType": "uint256",
          "name": "claimId",
          "type": "uint256"
        }
      ],
      "name": "payoutClaim",
      "outputs": [],
      "stateMutability": "nonpayable",
      "type": "function"
    },
    {
      "inputs": [
        {
          "internalType": "bytes32",
          "name": "",
          "type": "bytes32"
        }
      ],
      "name": "policies",
      "outputs": [
        {
          "internalType": "bytes32",
          "name": "policyId",
          "type": "bytes32"
        },
        {
          "internalType": "address",
          "name": "policyHolder",
          "type": "address"
        },
        {
          "internalType": "uint256",
          "name": "maxCoverageAmount",
          "type": "uint256"
        },
        {
          "internalType": "uint256",
          "name": "premiumPaid",
          "type": "uint256"
        },
        {
          "internalType": "uint256",
          "name": "startTime",
          "type": "uint256"
        },
        {
          "internalType": "uint256",
          "name": "endTime",
          "type": "uint256"
        },
        {
          "internalType": "bool",
          "name": "isClaimed",
          "type": "bool"
        },
        {
          "internalType": "string",
          "name": "propertyAddress",
          "type": "string"
        },
        {
          "internalType": "uint256",
          "name": "propertyValue",
          "type": "uint256"
        }
      ],
      "stateMutability": "view",
      "type": "function"
    },
    {
      "inputs": [],
      "name": "premiumRate",
      "outputs": [
        {
          "internalType": "uint256",
          "name": "",
          "type": "uint256"
        }
      ],
      "stateMutability": "view",
      "type": "function"
    },
    {
      "inputs": [
        {
          "internalType": "uint256",
          "name": "claimId",
          "type": "uint256"
        }
      ],
      "name": "processClaim",
      "outputs": [],
      "stateMutability": "nonpayable",
      "type": "function"
    },
    {
      "inputs": [
        {
          "internalType": "string",
          "name": "eventId",
          "type": "string"
        }
      ],
      "name": "removeDisasterEvent",
      "outputs": [],
      "stateMutability": "nonpayable",
      "type": "function"
    },
    {
      "inputs": [
        {
          "internalType": "address",
          "name": "moderator",
          "type": "address"
        }
      ],
      "name": "removeModeratorFromPool",
      "outputs": [],
      "stateMutability": "nonpayable",
      "type": "function"
    },
    {
      "inputs": [],
      "name": "renounceOwnership",
      "outputs": [],
      "stateMutability": "nonpayable",
      "type": "function"
    },
    {
      "inputs": [
        {
          "internalType": "uint256",
          "name": "newRate",
          "type": "uint256"
        }
      ],
      "name": "setDonationRewardRate",
      "outputs": [],
      "stateMutability": "nonpayable",
      "type": "function"
    },
    {
      "inputs": [
        {
          "internalType": "string",
          "name": "eventId",
          "type": "string"
        },
        {
          "internalType": "bytes32",
          "name": "policyId",
          "type": "bytes32"
        },
        {
          "internalType": "string",
          "name": "incidentDescription",
          "type": "string"
        }
      ],
      "name": "startAClaim",
      "outputs": [
        {
          "internalType": "bool",
          "name": "",
          "type": "bool"
        }
      ],
      "stateMutability": "nonpayable",
      "type": "function"
    },
    {
      "inputs": [],
      "name": "totalPoolFunds",
      "outputs": [
        {
          "internalType": "uint256",
          "name": "",
          "type": "uint256"
        }
      ],
      "stateMutability": "view",
      "type": "function"
    },
    {
      "inputs": [
        {
          "internalType": "address payable",
          "name": "recipient",
          "type": "address"
        },
        {
          "internalType": "uint256",
          "name": "amount",
          "type": "uint256"
        }
      ],
      "name": "transferEther",
      "outputs": [],
      "stateMutability": "payable",
      "type": "function"
    },
    {
      "inputs": [
        {
          "internalType": "address",
          "name": "newOwner",
          "type": "address"
        }
      ],
      "name": "transferOwnership",
      "outputs": [],
      "stateMutability": "nonpayable",
      "type": "function"
    },
    {
      "inputs": [
        {
          "internalType": "address",
          "name": "",
          "type": "address"
        }
      ],
      "name": "userRecords",
      "outputs": [
        {
          "internalType": "uint256",
          "name": "donationTotal",
          "type": "uint256"
        }
      ],
      "stateMutability": "view",
      "type": "function"
    },
    {
      "stateMutability": "payable",
      "type": "receive"
    }
  ],
  "bytecode": "0x6080806040523461044c57618d03803803809161001c8285610451565b833981019060808183031261044c5780516001600160401b03811161044c57810182601f8201121561044c578051906001600160401b0382116103c65760405193610071601f8401601f191660200186610451565b8285526020838301011161044c5760005b8281106104375750506020600091840101526020810151906100b260606100ab60408401610474565b9201610474565b9133156104215761012960406000543360018060a01b0319821617600055815190339060018060a01b03167f8be0079c531659141344cd1fd0a4f28419497f9722a3daafe3b4186f6b6457e0600080a36001600b556001600d55612710600e5567da5dbea847d79519602082015260208152610451565b61014760408051674b3045478812bf1d602082015260208152610451565b61016560408051673eda70d7a43aefef602082015260208152610451565b610183604080516704fa31fb5d75742f602082015260208152610451565b80156103dc576101a76040805167c6983dca6a8fad4a602082015260208152610451565b6101c56040805167690894a60a4e1147602082015260208152610451565b83516001600160401b0381116103c657600154600181811c911680156103bc575b60208210146103a657601f8111610341575b50602094601f82116001146102da579481929394956000926102cf575b50508160011b916000199060031b1c1916176001555b6102496040805167cbd90511ce48b872602082015260208152610451565b60025561026a6040805167d24c4d0422665494602082015260208152610451565b60018060a01b031660018060a01b031960045416176004556102a060408051671bf185a2d4631442602082015260208152610451565b600580546001600160a01b0319166001600160a01b039290921691909117905560405161887a90816104898239f35b015190503880610215565b601f198216956001600052806000209160005b88811061032957508360019596979810610310575b505050811b0160015561022b565b015160001960f88460031b161c19169055388080610302565b919260206001819286850151815501940192016102ed565b60016000527fb10e2d527612073b26eecdfd717e6a320cf44b4afac2b0732d9fcbe2b7fa0cf6601f830160051c8101916020841061039c575b601f0160051c01905b81811061039057506101f8565b60008155600101610383565b909150819061037a565b634e487b7160e01b600052602260045260246000fd5b90607f16906101e6565b634e487b7160e01b600052604160045260246000fd5b60405162461bcd60e51b815260206004820152601460248201527f496e76616c6964207072656d69756d20726174650000000000000000000000006044820152606490fd5b631e4fbdf760e01b600052600060045260246000fd5b80602080928401015182828801015201610082565b600080fd5b601f909101601f19168101906001600160401b038211908210176103c657604052565b51906001600160a01b038216820361044c5756fe608080604052600436101561004a575b50361561001b57600080fd5b610039604080516718a5260b6eb1028260208201526020815261792a565b61004534600354618190565b600355005b600090813560e01c90816305b1137b1461760d57508063061b7f6f146175e4578063098464f3146175315780630d13fa5a14616e5f578063100772cb14616c265780631120fe7c146164e957806314d0f1ba1461647c57806317b46b1b146162945780631ef4f7bc146161c5578063216e14fb14615a3d57806321efe73514615a235780632425b2e91461549457806333c7072e14614c825780633defbf2814614bc95780634abfa16314614b855780634e8402f3146146e457806353591ad61461466c5780635b23c27d146143775780635d0040d31461435957806365eaf5481461433f57806366a3e4c814613ed7578063678f935014613eb957806369b5198a14613af4578063715018a614613a9a5780637257dfc914612e3957806377c8add814612bba5780638da5cb5b14612b9357806398e36b041461296e5780639b6196a3146127d15780639dc5e02f1461243b5780639f9d903a1461241d578063a0021cf1146123ff578063a591a0f4146122b2578063b04869ae14612289578063b1998a8f146121bb578063ba06910814611ffd578063bac71e0014611b67578063bcd4703214611066578063c06e34d214610de5578063d6387ed81461084f578063dabd2c8014610812578063ddbfd8ef146107a2578063ed88c68e146103d6578063f019602e146102f3578063f1139d0f146102d55763f2fde38b0361000f57346102d25760203660031901126102d257610266617aad565b61026e6182ff565b6001600160a01b031680156102be5781546001600160a01b03198116821783556001600160a01b03167f8be0079c531659141344cd1fd0a4f28419497f9722a3daafe3b4186f6b6457e08380a380f35b631e4fbdf760e01b82526004829052602482fd5b80fd5b50346102d257806003193601126102d2576020600354604051908152f35b50346102d25760203660031901126102d25761030d617aad565b61032b60408051672094391c495adf1660208201526020815261792a565b61034960408051679ed671c18d20f50460208201526020815261792a565b6103676040805167bc09e787bf97a85860208201526020815261792a565b60018060a01b03168152600760205260408120604051918260208354918281520192825260208220915b8181106103c0576103bc856103a88187038261792a565b604051918291602083526020830190617b2a565b0390f35b8254845260209093019260019283019201610391565b50806003193601126102d2576104006040805167b5c45c29e29e1da360208201526020815261792a565b61041e6040805167049457088528fe4760208201526020815261792a565b61043c604080516732d859c27a015b8860208201526020815261792a565b61045a6040805167befa86b8df75a24960208201526020815261792a565b341561076d5761047e60408051670bd444d87315ffc760208201526020815261792a565b61049c6040805167fe9f5ad3abf3970160208201526020815261792a565b6104a834600354618190565b6003556104c96040805167d63336a63a1416f760208201526020815261792a565b6104e760408051674f4fd1ff8fdbbd1d60208201526020815261792a565b3381526007602052604081206002015461074a576105196040805167550194c27c848ebd60208201526020815261792a565b6105376040805167ecb661ac3a5caf6160208201526020815261792a565b61055560408051670a8dbbf6d9c74b2f60208201526020815261792a565b600854600160401b811015610736578060016105749201600855617c5f565b81546001600160a01b0360039290921b91821b19163390911b1790555b6105af6040805167e28beab4b2628efd60208201526020815261792a565b3381526007602052600260408220016105c9348254618190565b90556105e9604080516787135186b4610c1860208201526020815261792a565b6106076040805167b3f7ffb75e98d16e60208201526020815261792a565b600454600e5482916001600160a01b0316906106239034617f25565b813b15610732576040516340c10f1960e01b8152336004820152602481019190915291908290604490829084905af1801561072757610717575b61067b6040805167f7c96bf5610ce2d060208201526020815261792a565b610699604080516718c6e0b23208aeef60208201526020815261792a565b6040513481527fd143b3fca8f81682799e935736170faff446dc630e9babfdc72e4ae53c181a2660203392a26106e36040805167934e381f8dc0af5560208201526020815261792a565b61070160408051676f463921e89d447160208201526020815261792a565b602061070f600e5434617f25565b604051908152f35b816107219161792a565b3861065d565b6040513d84823e3d90fd5b5050fd5b634e487b7160e01b82526041600452602482fd5b61076860408051677fa4fd68c316fdbf60208201526020815261792a565b610591565b60405162461bcd60e51b815260206004820152600d60248201526c09aeae6e840e6cadcc8408aa89609b1b6044820152606490fd5b50346102d25760203660031901126102d257604090600435815260066020522080546103bc60018060a01b03600184015416926002810154906003810154600482015460058301549060ff6006850154169260086108026007870161794b565b95015495604051998a998a617a5a565b50346102d25760203660031901126102d2576020906002906040906001600160a01b0361083d617aad565b16815260078452200154604051908152f35b50346102d257806003193601126102d25761087e6040805167c2ea1bbbb49f257a60208201526020815261792a565b61089c60408051677229640d57133ed660208201526020815261792a565b6108ba60408051678dd3f7626016b3cf60208201526020815261792a565b6008546108db6040805167821baa8f9b9e93be60208201526020815261792a565b6108f96040805167e4954272fb948ec360208201526020815261792a565b600a81108015610dbd575b80610d94575b15610d8d57805b61092f6040805167ba8b135164a2eca960208201526020815261792a565b61093881617fb4565b9161095760408051675797f43ab2441b8b60208201526020815261792a565b61096082617fb4565b9361097f60408051677d9b77939b98567f60208201526020815261792a565b61099d6040805167123ef762dba0bd1560208201526020815261792a565b6109a682617fb4565b906109c56040805167b13715abe4674b9360208201526020815261792a565b6109e360408051670328f492b519a4ac60208201526020815261792a565b6109ec83617fb4565b92610a0b6040805167903e921f38c7742560208201526020815261792a565b610a2960408051677f7552ade5716cab60208201526020815261792a565b815b818110610cf55750610a5160408051675af04b17d33afb6960208201526020815261792a565b610a6f60408051676cd58d2910bd7e7160208201526020815261792a565b815b818110610b44575050610a9860408051679538c9bbee1a5ae560208201526020815261792a565b610ab66040805167ad0e392379285a6060208201526020815261792a565b838110610acc57604051806103bc888883617cbf565b600190610aed60408051673f1b84f857e283f360208201526020815261792a565b818060a01b03610afd8285618038565b5116610b098288618038565b52610b286040805167e62daa00459bb55260208201526020815261792a565b610b328185618038565b51610b3d8289618038565b5201610ab6565b610b626040805167e84470b666e3176a60208201526020815261792a565b610b806040805167bdfa6e68322a396760208201526020815261792a565b60018101808211610ce1575b828110610b9c5750600101610a71565b600190610bbd60408051678e1555e4b0bcdfbc60208201526020815261792a565b610bdb60408051674031e76a4f4563a860208201526020815261792a565b610be58388618038565b51610bf08289618038565b511115610cbe57610c15604080516774094112852adb5960208201526020815261792a565b610c33604080516729dc8fcfb2556bba60208201526020815261792a565b610c3d8188618038565b51610c488489618038565b51610c53838a618038565b52610c5e8489618038565b52610c7d6040805167e023474c11c75bb160208201526020815261792a565b818060a01b03610c8d8288618038565b5116828060a01b03610c9f8589618038565b5116610cab8389618038565b52610cb68488618038565b525b01610b8c565b610cdc60408051672a1554037af58c1c60208201526020815261792a565b610cb8565b634e487b7160e01b84526011600452602484fd5b600190610d166040805167108b379f6a19306360208201526020815261792a565b610d1f81617c5f565b838060a01b0391549060031b1c16610d378287618038565b52610d5660408051672ffeedfa8a1ff79b60208201526020815261792a565b610d5f81617c5f565b838060a01b0391549060031b1c16845260076020526002604085200154610d868288618038565b5201610a2b565b600a610911565b50610db66040805167dae727330a152b7d60c01b60208201526020815261792a565b600161090a565b50610ddf60408051672a6daa6a59ea690960c21b60208201526020815261792a565b81610904565b50346102d25760203660031901126102d257610dff617aad565b610e1d6040805167f06e17229243175a60208201526020815261792a565b610e256182ff565b610e43604080516773e45e619de7031960208201526020815261792a565b610e61604080516747169192ea8b827d60208201526020815261792a565b610e7f604080516782b7f10cfda83ba460208201526020815261792a565b610e9d60408051677ee0979679a7fa9c60208201526020815261792a565b610ebb604080516741dffb3e4f50f78a60208201526020815261792a565b6001600160a01b0316610ecf81151561804c565b610eed60408051670d16a41d06a2aff760208201526020815261792a565b610f0b60408051677c3b4a55813e411860208201526020815261792a565b610f29604080516704f5dc99eab5907560208201526020815261792a565b610f476040805167573f81b185aa7d7e60208201526020815261792a565b80825260096020526001604083200154156110265760207f7a9f1e23d5426b34819d173153d59084cc3578d5a129b80bb27df683ac6b227891610f9c6040805167a9f17f50ef0ed55e8582015284815261792a565b610fb860408051672ccf309f599453f68582015284815261792a565b80845260098252610fe46040852060046000918281558260018201558260028201558260038201550155565b6110006040805167da73e4eebc6042668582015284815261792a565b61101c60408051675ed379c210c90abe8582015284815261792a565b604051908152a180f35b60405162461bcd60e51b8152602060048201526018602482015277135bd9195c985d1bdc88191bd95cc81b9bdd08195e1a5cdd60421b6044820152606490fd5b50346102d25760603660031901126102d2576004356001600160401b038111611b6357611097903690600401617ae3565b6024356044356001600160401b038111611b5f576110b9903690600401617ae3565b906110d8604080516750335e9efbe2bc0460208201526020815261792a565b6110f66040805167d1fca667d0e79e9c60208201526020815261792a565b61111460408051671535f14820713b0260208201526020815261792a565b6111326040805167d6221a969b39fced60208201526020815261792a565b61116461115d604051602081875161114d8183858c016179ef565b8101600a81520301902054617888565b1515617ecb565b6111826040805167b5b9d4b64c1d696960208201526020815261792a565b6111a060408051677e2601b67960974160208201526020815261792a565b6111be6040805167169320cf9e562ad160208201526020815261792a565b6111dc60408051677efc6f73450424b360208201526020815261792a565b80845260066020526111fe60018060a01b0360016040872001541633146182bb565b61121c60408051678ae49a144859027c60208201526020815261792a565b61123a6040805167ca039adbfe53478d60208201526020815261792a565b6112586040805167b113c39c92d2f69460208201526020815261792a565b80845260066020526040842060405190611271826178c2565b8054825260018060a01b03600182015416602083015260028101546040830152600381015460608301526113466004820154916080840192835260058101549360a08101948552610100600860ff6006850154169360c0840194151585526112db6007820161794b565b60e0850152015491015261130360408051670a30598a5cda96dd60208201526020815261792a565b61132160408051678fdcff7fc1d699f660208201526020815261792a565b61133f60408051672345d1938034ab8060208201526020815261792a565b5115617d56565b611364604080516741c83bd1a7df659760208201526020815261792a565b61138260408051670dfbe6698ececf3660208201526020815261792a565b6113a060408051670ef159988ec8aec260208201526020815261792a565b6113be60408051673afe8937536ac36660208201526020815261792a565b514210611b22576113e36040805167ee79a8fe0220700660208201526020815261792a565b6114016040805167ca6ea078b0b4139760208201526020815261792a565b61141f6040805167e3efc993b3c5577b60208201526020815261792a565b61143d6040805167e260f1d10163e2fa60208201526020815261792a565b514211611ae85761146260408051671deb16c39a3f72d260208201526020815261792a565b6114806040805167a218f69d6d8db5bb60208201526020815261792a565b61149e6040805167e5598e826c1b02de60208201526020815261792a565b6114bc6040805167d55f1287f18def3d60208201526020815261792a565b6114da604080516766d847a3a1bc8d1460208201526020815261792a565b6203f480420192834211611ad45761150660408051676d7e7d246b5ad00060208201526020815261792a565b611524604080516735f2fad37a14752460208201526020815261792a565b600d54916115466040805167775cf220a759f8ba60208201526020815261792a565b61154f836181e2565b600d55611570604080516746b656642c11da3660208201526020815261792a565b61158e6040805167feacab7fdd44f03c60208201526020815261792a565b60405160209561159e878361792a565b878252604051936115ae856178c2565b8585528785019384526040850190815260608501898152608086019142835260a0870193845260c08701948b86528960e08901526101008801526116046040805167fe80332cab604e628d8201528c815261792a565b61162060408051676ec993bca2017dd48d8201528c815261792a565b600c54600160401b811015611aac5780600161163f9201600c55617853565b969096611ac057875187555160018701555180516001600160401b038111611aac5761167b8161167260028a0154617888565b60028a0161819d565b8a918c601f8311600114611a3e576116aa939091836119a1575b50508160011b916000199060031b1c19161790565b60028601555b5160038501555160048401555160058301556006820190516004811015611a2a5760ff801983541691161790556007810160e08301518051906001600160401b038211611a165761170b826117058554617888565b8561819d565b8790601f83116001146119ac5782610100959360089593611741938d926119a15750508160011b916000199060031b1c19161790565b90555b0191015190815191600160401b831161198d57859082548484558085106118ed575b50019086528486208587925b8484106118ce57505050505061179a60408051675f0c4b42375b855d8682015285815261792a565b6117b660408051672e7cdcadf2cc21ae8682015285815261792a565b3384526007835260408420600101805494600160401b8610156118ba575061182161180a86849360017f5decab71e0179c4a357e5f497297b72c7f2271c2350638169cc1d509062adc3a9899018155617c7a565b819391549060031b91821b91600019901b19161790565b905561183f6040805167195e58b948864c1c8782015286815261792a565b61185b6040805167114f8ce2e61918148782015286815261792a565b61187660405192839283526040868401526040830190617a12565b0390a1611895604080516756fe3c7c83589bd98482015283815261792a565b6118b16040805167996662826ca534748482015283815261792a565b60405160018152f35b634e487b7160e01b81526041600452602490fd5b600191816118df6007935186617e42565b019201920191908690611772565b80919250600702906007820403611979578360070260078104850361196557838952878920889392810191015b8181106119275750611766565b60079192935061194f8160046000918281558260018201558260028201558260038201550155565b896005820155896006820155019087929161191a565b634e487b7160e01b89526011600452602489fd5b634e487b7160e01b88526011600452602488fd5b634e487b7160e01b87526041600452602487fd5b015190503880611695565b838a52888a209190601f1984168b5b8b828210611a00575050926001928592610100989660089896106119e7575b505050811b019055611744565b015160001960f88460031b161c191690553880806119da565b60018596829396860151815501950193016119bb565b634e487b7160e01b89526041600452602489fd5b634e487b7160e01b88526021600452602488fd5b5091600288018d528b8d20908d935b8d601f1985168610611a9357506001945083601f19811610611a7a575b505050811b0160028601556116b0565b015160001960f88460031b161c19169055388080611a6a565b8282015184559485019460019093019290910190611a4d565b634e487b7160e01b8c52604160045260248cfd5b634e487b7160e01b8c5260048c905260248cfd5b634e487b7160e01b85526011600452602485fd5b60405162461bcd60e51b8152602060048201526012602482015271141bdb1a58de481a185cc8195e1c1a5c995960721b6044820152606490fd5b60405162461bcd60e51b8152602060048201526015602482015274506f6c696379206e6f74207965742061637469766560581b6044820152606490fd5b8380fd5b5080fd5b50346102d25760203660031901126102d257600435611b9a604080516794086f640940c32560208201526020815261792a565b611bb860408051674887e384138c7c6f60208201526020815261792a565b611bd660408051675f61419f90f51fdf60208201526020815261792a565b611bf46040805167b21d219a530067fc60208201526020815261792a565b80151580611ff2575b611c0690617d17565b611c24604080516762cb662429698e2d60208201526020815261792a565b611c426040805167dcbc18a28ebfe77860208201526020815261792a565b611c606040805167688717658d2cb8d660208201526020815261792a565b6000198101908111611fde57611c7590617853565b5090611c956040805167c3a6f25941c7d54e60208201526020815261792a565b611cb36040805167e9badaf75f160ee960208201526020815261792a565b6008820190815491611cd96040805167ea629f14390e02f160208201526020815261792a565b611ce283617fb4565b92611d0160408051676230cb36ea27203860208201526020815261792a565b611d0a81617fb4565b90611d296040805167cd0b260d3900470560208201526020815261792a565b611d3281617fb4565b92611d516040805167ac9d5c6da2329fc460208201526020815261792a565b611d5a82617fb4565b94611d796040805167ab036a1979686eeb60208201526020815261792a565b611d97604080516720e74459b59511de60208201526020815261792a565b828110611ec65750505060405160208101675605f705c032feac9052602081526040611dc29161792a565b6040516020810167faf35aff75e7d3b99052602081526040611de39161792a565b84549360018601549560038101546004820154906005830154600684015460ff16611e0d90618328565b92611e1a6002860161794b565b94600701611e279061794b565b946040519b8c9b8c5260208c015260408b0161018090526101808b01611e4c91617a12565b9260608b015260808a015260a089015287810360c0890152611e6d91617a12565b86810360e0880152611e7e91617a12565b858103610100870152611e9091617b5e565b848103610120860152611ea291617c29565b838103610140850152611eb491617c29565b8281036101608401526103bc91617b2a565b600190611ee760408051679dda24653f2c898b60208201526020815261792a565b611f056040805167a2cad7592b942b7760208201526020815261792a565b6060611f1a611f148386617de1565b506181f1565b611f386040805167856eaff96d0b377360208201526020815261792a565b838060a01b0381515116611f4c848c618038565b52611f6b6040805167a61fd703087ec70360208201526020815261792a565b60208101511515611f7c8489618038565b52611f9b604080516757c6e6beabfdae9760208201526020815261792a565b60408101511515611fac848a618038565b52611fcb6040805167c270175fe9f1fef060208201526020815261792a565b0151611fd78289618038565b5201611d97565b634e487b7160e01b82526011600452602482fd5b50600d548110611bfd565b50346102d25760203660031901126102d257600435906001600160401b0382116102d2576121a361212960206120363660048701617ae3565b61205260408051672b9ffbc7881b64978582015284815261792a565b61206e604080516774f96022bf71541f8582015284815261792a565b61208a60408051677979630d2aa05bd58582015284815261792a565b6120a660408051673e3bc26a9a57058e8582015284815261792a565b604051906120c461115d82519385818186019661114d81838a6179ef565b6120e060408051674a920f635ce733838682015285815261792a565b6120fc60408051677a05d82f45b476a38682015285815261792a565b6121186040805167447334aa52e5af0f8682015285815261792a565b6040519384928392519283916179ef565b8101600a8152030190206121516040805167c26924440ca249f960208201526020815261792a565b61216f60408051675e145e47824c942b60208201526020815261792a565b60028101546121b161218f60036121886001860161794b565b940161794b565b604051948594606086526060860190617a12565b908482036020860152617a12565b9060408301520390f35b50346102d25760203660031901126102d2576121d5617aad565b6121f36040805167b93eafad47df422560208201526020815261792a565b6122116040805167197a66975188308c60208201526020815261792a565b61222f6040805167c8d46f3817a95ba560208201526020815261792a565b60018060a01b03168152600760205260016040822001604051918260208354918281520192825260208220915b818110612273576103bc856103a88187038261792a565b825484526020909301926001928301920161225c565b50346102d257806003193601126102d2576004546040516001600160a01b039091168152602090f35b50346102d25760203660031901126102d2576004356122e56040805167d8c581bd0db81f2d60208201526020815261792a565b6122ed6182ff565b61230b604080516777844b81e03ea7aa60208201526020815261792a565b6123296040805167a44da701e2c804bb60208201526020815261792a565b612347604080516745c0cef7b56bd4d560208201526020815261792a565b6123656040805167c82368a561ac82f260208201526020815261792a565b6123836040805167f816ac1fe756baef60208201526020815261792a565b80156123cb576123a76040805167defed473f576d73d60208201526020815261792a565b6123c560408051670aac1d157ada44d960208201526020815261792a565b600e5580f35b60405162461bcd60e51b815260206004820152600c60248201526b496e76616c6964207261746560a01b6044820152606490fd5b50346102d257806003193601126102d2576020600d54604051908152f35b50346102d257806003193601126102d2576020600b54604051908152f35b50346102d25760203660031901126102d2576004359061246f6040805167d662c4962b52d16660208201526020815261792a565b61248d604080516789fcca25c1839a4260208201526020815261792a565b6124ab604080516718f132d3a2126b4460208201526020815261792a565b6124c960408051673a6cf389f2ff0a4e60208201526020815261792a565b811515806127c6575b6124db90617d17565b6124f960408051675de0f0092d25421360208201526020815261792a565b6125176040805167c79f0df873020f1b60208201526020815261792a565b6125356040805167c6ee6e7baee74d0b60208201526020815261792a565b6000198201828111611fde5761254a90617853565b5061256960408051672db6305061bd3aab60208201526020815261792a565b6125876040805167e0d649f7c8a9cffa60208201526020815261792a565b6125a5604080516762622699a185d2ff60208201526020815261792a565b6006810160ff81541660048110156127b25791606093916125d6600080516020618825833981519152969415617d9b565b6125f460408051670465d148aa4bcd2660208201526020815261792a565b6126126040805167940cf8fd10902f4e60208201526020815261792a565b6126306040805167c053a4bad2f96c3460208201526020815261792a565b6001820154835260066020526126b1604084206126616040805167f1a9c8d051da1bb860208201526020815261792a565b61267f6040805167196d776e1c16909760208201526020815261792a565b61269d6040805167215f88d68601b0f660208201526020815261792a565b600101546001600160a01b031633146182bb565b6126cf6040805167ee33d2218c4cc1ba60208201526020815261792a565b6126ed6040805167f80b0ace2996b7f560208201526020815261792a565b600360ff198254161790556127166040805167cd34e059b48c709160208201526020815261792a565b60054291015561273a6040805167d197d635afc9fa4860208201526020815261792a565b612758604080516703766cca8abb57ef60208201526020815261792a565b604051918252600360208301526040820152a16127896040805167570704576825a1e460208201526020815261792a565b6127a760408051673cc169570b1acc7c60208201526020815261792a565b602060405160018152f35b634e487b7160e01b84526021600452602484fd5b50600d5482106124d2565b50346102d257806003193601126102d2576128006040805167f7aa8d0f259c74ca60208201526020815261792a565b61281e6040805167d7b8076d8cc8c19460208201526020815261792a565b61283c604080516756d5f4d19a8729ab60208201526020815261792a565b600b546000198101908111611fde5761286960408051670e1a96277cb41fa660208201526020815261792a565b61287281618003565b916128916040805167d861d483c2570f1660208201526020815261792a565b6128af604080516711d935a47cbfbe6660208201526020815261792a565b805b8281106128ce57604051602080825281906103bc90820187617b9b565b6128ec6040805167572fc5d3128c781760208201526020815261792a565b6001810180821161295a57906129036001926186b5565b61293e60246040518093634556542360e01b602083015261292d81518092602086860191016179ef565b81010301601f19810183528261792a565b6129488287618038565b526129538186618038565b50016128b1565b634e487b7160e01b83526011600452602483fd5b50346102d257806003193601126102d25761299d6040805167fba226cc46df78ee60208201526020815261792a565b6129bb6040805167fa964f7ce463f1ce60208201526020815261792a565b6129d96040805167c47918e7e6c234c560208201526020815261792a565b6008546129fa6040805167de54ede0a5c81ba960208201526020815261792a565b612a186040805167402693e196e2d7f260208201526020815261792a565b612a2181617fb4565b90612a40604080516785957b0a37f9eb3560208201526020815261792a565b612a5e604080516730d8abe77d64c20460208201526020815261792a565b612a6781617fb4565b92612a866040805167478ef1f9fd61f37960208201526020815261792a565b612aa4604080516784eebdff66db131360208201526020815261792a565b805b828110612afb57505050612ace6040805167b6f1557cef267c5860208201526020815261792a565b612aec60408051677914e36e36c7aa1c60208201526020815261792a565b6103bc60405192839283617cbf565b600190612b1c60408051675cb68675bf71a38960208201526020815261792a565b612b2581617c5f565b838060a01b0391549060031b1c16612b3d8287618038565b52612b5c6040805167feffac0d5195b47c60208201526020815261792a565b612b6581617c5f565b838060a01b0391549060031b1c16835260076020526002604084200154612b8c8288618038565b5201612aa6565b50346102d257806003193601126102d257546040516001600160a01b039091168152602090f35b50346102d25760203660031901126102d257600435612bed6040805167459c67a2f15bdb4c60208201526020815261792a565b612c0b60408051677741472074633d8060208201526020815261792a565b612c296040805167ca0bb68911df01ac60208201526020815261792a565b612c47604080516754da8737687ea3d960208201526020815261792a565b80151580612e2e575b612c5990617d17565b612c7760408051672e4e90616d1ae6ce60208201526020815261792a565b612c9560408051674bad18e620c95ed760208201526020815261792a565b612cb360408051671464d9ec217c28ff60208201526020815261792a565b6000198101908111611fde57612cca600891617853565b50612ce960408051675c6b95b45418ee5560208201526020815261792a565b612d076040805167d980d2e85ac5626560208201526020815261792a565b01805490612d296040805167451596509fa030af60208201526020815261792a565b612d476040805167e7638e5e501e5a9d60208201526020815261792a565b612d5082617fb4565b92612d6f60408051675e01e3fd1424fc3760208201526020815261792a565b612d8d6040805167f02d8228e5b5304a60208201526020815261792a565b828110612de8576103bc84612db6604080516719b23a0b0919e4d060208201526020815261792a565b612dd4604080516776e3a750d1c6c87660208201526020815261792a565b604051918291602083526020830190617b5e565b600190612e096040805167cc53f0ee3b6de5fd60208201526020815261792a565b612e138184617de1565b50828060a01b03905416612e278287618038565b5201612d8d565b50600d548110612c50565b50346102d25760203660031901126102d257600435612e6c6040805167dd0a525450aa9d1b60208201526020815261792a565b612e8a60408051679bafd4c03d13a57760208201526020815261792a565b612ea860408051676dc7229b232676b060208201526020815261792a565b612ec66040805167c497a86a98779efb60208201526020815261792a565b80151580613a8f575b612ed890617d17565b612ef66040805167d6a74934cc54e38a60208201526020815261792a565b612f1460408051674bae4aa53511132a60208201526020815261792a565b612f326040805167c2460622c96d94b660208201526020815261792a565b600019810181811161295a57612f4790617853565b5090612f676040805167b8b93ff6bfb1167b60208201526020815261792a565b612f8560408051673ce79454b57b341360208201526020815261792a565b612fa3604080516783a87296e6d79ada60208201526020815261792a565b6006820160ff8154166004811015613a7b57613a3c57612fd7604080516706ca6e51276231af60208201526020815261792a565b612ff56040805167a20756808a9dad5760208201526020815261792a565b6130136040805167e948acb10b4146ad60208201526020815261792a565b6008830180549061303860408051670c7c2dbe3a843ff660208201526020815261792a565b61305660408051679fbe6272630182f660208201526020815261792a565b61307460408051679ab6b2c963b81cc460208201526020815261792a565b600382106139e05761309a60408051674a4df7469a1ea9ff60208201526020815261792a565b6130b86040805167f0a6b9213126b45860208201526020815261792a565b6130d6604080516770026fff229a7c6c60208201526020815261792a565b6130f46040805167a90763dd7515886760208201526020815261792a565b600554604051632cc3a63b60e21b81526020600482015260015490916001600160a01b03169082908990819061312981617888565b908160248601526001811690816000146139bd5750600114613962575b506020939183809203925af1908115613957578791613918575b50156138d857613184604080516741315ef499c6221c60208201526020815261792a565b6131a1604080516611cdf795acebc560208201526020815261792a565b6131be6040805166abe7e8d5226d8460208201526020815261792a565b85926131de6040805167061a5675360db5cf60208201526020815261792a565b6131fc60408051673aeff8fd91d04aa560208201526020815261792a565b8661321b60408051676d2822b4d546353e60208201526020815261792a565b613239604080516736a517278a5f0cc460208201526020815261792a565b8360011c9060018201809211611965576132676040805167d6fdbefee61e062260208201526020815261792a565b61328560408051673136ac593f1ec7a160208201526020815261792a565b885b85811061378d57506132ad6040805167f6a078b5366ca2b960208201526020815261792a565b6132cb60408051673b3762ae7b3cbc6a60208201526020815261792a565b886132ea60408051674021271345175dcf60208201526020815261792a565b6133086040805167402837d843c6565160208201526020815261792a565b86159081613766575061332f60408051679ccc64a461ecde8060208201526020815261792a565b61334d6040805167a6257bb9e887175c60208201526020815261792a565b61375257859004945b613374604080516726d44d81fceeecb760208201526020815261792a565b613392604080516790b8751f1149c2dc60208201526020815261792a565b1061367a576133b56040805167ba6dad7122a2b22460208201526020815261792a565b6133d360408051677a52e681e235b30c60208201526020815261792a565b600160ff198254161790556133fc604080516747e167da7f0d2c7f60208201526020815261792a565b82600386015561342060408051672fbbea9ea07facad60208201526020815261792a565b61343e60408051677ecae5d20ab740d060208201526020815261792a565b855b8281106134d4575050506000805160206188258339815191529160609161347b604080516765fcf9eabe46ccf760208201526020815261792a565b61349960408051670b68176d81df4f2760208201526020815261792a565b604051918252600160208301526040820152a15b6134cb604080516763881bff4946f77e60208201526020815261792a565b60054291015580f35b6001906134f56040805167a1a1d1e62f129f0360208201526020815261792a565b6135136040805167154efba47e75da3360208201526020815261792a565b613520611f148285617de1565b61353e60408051678f7ec00ea670362460208201526020815261792a565b61355c6040805167db91ae1eb5c2fb4360208201526020815261792a565b60408101511561365757613584604080516717177a78242d852560208201526020815261792a565b6135a26040805167a8f9543554b93f8260208201526020815261792a565b828060a01b038151511689526009602052600360408a20016135c481546181e2565b90556135e46040805167b168b78cb77f2d0460208201526020815261792a565b6060810151838060a01b03825151168a52600960205261360c600460408c2001918254618190565b90555b61362d60408051677dd5097fc5c1b2df60208201526020815261792a565b828060a01b0390515116885260096020526002604089200161364f81546181e2565b905501613440565b61367560408051679582a3da6699de0460208201526020815261792a565b61360f565b9050606092506000805160206188258339815191529391506136b060408051677172a73a29f74d9460208201526020815261792a565b6136ce60408051670dbe1abb560530af60208201526020815261792a565b600260ff198254161790556136f760408051673e4d8238ad1fb89b60208201526020815261792a565b84600385015561371b6040805167b6212f8f521bc57560208201526020815261792a565b6137396040805167401e11692d0a966960208201526020815261792a565b60405190815260026020820152846040820152a16134ad565b634e487b7160e01b89526012600452602489fd5b969150506137886040805167b06eeaa05098bbd260208201526020815261792a565b613356565b906137ac60408051676b875e4c751ac55860208201526020815261792a565b6137ca60408051672ed298a605bb56c960208201526020815261792a565b6137d7611f148387617de1565b966137f6604080516719cf4446c615ae4a60208201526020815261792a565b6138146040805167a0b135d02a906f2360208201526020815261792a565b60208801511515806138cb575b156138a257600191606061387361389a936138506040805167b0eaed0679d55e9960208201526020815261792a565b61386e6040805167f5e64dc50956525160208201526020815261792a565b6181e2565b9961389260408051671207f080c6c4446360208201526020815261792a565b015190618190565b915b01613287565b9650906001906138c66040805167a306bc14b08bb02e60208201526020815261792a565b61389c565b5060408801511515613821565b60405162461bcd60e51b8152602060048201526018602482015277111a5cd85cdd195c88195d995b9d081b9bdd081d985b1a5960421b6044820152606490fd5b90506020813d60201161394f575b816139336020938361792a565b8101031261394b5751801515810361394b5738613160565b8680fd5b3d9150613926565b6040513d89823e3d90fd5b600183528291507fb10e2d527612073b26eecdfd717e6a320cf44b4afac2b0732d9fcbe2b7fa0cf65b8183106139a057505082016044016020613146565b8054604484890101528694508c935060209092019160010161398b565b60ff191660448087019190915291151560051b8501909101915060209050613146565b60405162461bcd60e51b815260206004820152602e60248201527f4e6f7420656e6f756768206d6f64657261746f7273206861766520617373657360448201526d736564207468697320636c61696d60901b6064820152608490fd5b60405162461bcd60e51b815260206004820152601760248201527610db185a5b48185b1c9958591e48199a5b985b1a5e9959604a1b6044820152606490fd5b634e487b7160e01b85526021600452602485fd5b50600d548110612ecf565b50346102d257806003193601126102d257613ab36182ff565b80546001600160a01b03198116825581906001600160a01b03167f8be0079c531659141344cd1fd0a4f28419497f9722a3daafe3b4186f6b6457e08280a380f35b50346102d25760403660031901126102d257613b0e617aad565b602435613b2f6040805167c13e2b093721acb560208201526020815261792a565b613b376182ff565b613b5560408051676690d3f61906714360208201526020815261792a565b613b73604080516759cc3b9d62384e1a60208201526020815261792a565b613b916040805167775415f710ec648460208201526020815261792a565b613baf604080516784d07d5d6867b50360208201526020815261792a565b613bcd6040805167cbafc0b39c60555b60208201526020815261792a565b6001600160a01b03821691613be383151561804c565b613c0160408051674d1ab5f05fe9e0f560208201526020815261792a565b613c1f6040805167ce8c4584f489a8bd60208201526020815261792a565b613c3d60408051676f6c01235862e00860208201526020815261792a565b613c5b6040805167a4ae15ebd68151cf60208201526020815261792a565b8115613e5e57613c7f6040805167a234369d1b681d6160208201526020815261792a565b613c9d60408051679bd7cc4da025ec2f60208201526020815261792a565b613cbb6040805167c8d4d6898e3b404160208201526020815261792a565b613cd960408051674144e6271b79251d60208201526020815261792a565b82845260096020526001604085200154613e1e577f7100a86ecf94bef5c32984e74b6847c32372ee773dd408da230116e910b2f27492613d2d604080516705650d4108c600ec60208201526020815261792a565b613d4b6040805167dfac4abe8ecd229b60208201526020815261792a565b600460405191613d5a8361790f565b808352602080840186815260408086018a8152606087018b8152608088018c8152958c5260098552828c20975188546001600160a01b0319166001600160a01b03919091161788559251600188015551600287015590516003860155915192909301919091558051671b9fb32077c3d07781840152918252613ddb9161792a565b613df96040805167e2209dae43160a1d60208201526020815261792a565b604080516001600160a01b039092168252602082019290925290819081015b0390a180f35b60405162461bcd60e51b81526020600482015260186024820152774d6f64657261746f7220616c72656164792065786973747360401b6044820152606490fd5b60405162461bcd60e51b815260206004820152602d60248201527f4d617820617070726f76616c20616d6f756e74206d757374206265206772656160448201526c746572207468616e207a65726f60981b6064820152608490fd5b50346102d257806003193601126102d2576020600e54604051908152f35b50346102d25760803660031901126102d2576004356001600160401b038111611b6357613f08903690600401617ae3565b6024356001600160401b03811161433b57613f27903690600401617c92565b906044356001600160401b03811161433757613f47903690600401617c92565b9091613f676040805167b8f967f677c269b760208201526020815261792a565b613f6f6182ff565b613f8d6040805167ab1805d9ccafa15960208201526020815261792a565b613fab60408051675e9fcdcaeb47f6dd60208201526020815261792a565b613fc960408051679bdb562e3b09eb3160208201526020815261792a565b613fe76040805167dc15dd218f2ff70960208201526020815261792a565b61400560408051675554b1a0fa5552ee60208201526020815261792a565b61408c602060405161402761115d8951928481818d019561114d8183896179ef565b61404360408051679ac215a1c783aff28582015284815261792a565b61405f6040805167d73d7167752c443d8582015284815261792a565b61407b60408051677987fcd3566d3baa8582015284815261792a565b604051809381928a519283916179ef565b8101600a815203019020936140b560408051678bd82dac873bd1b360208201526020815261792a565b60018501916001600160401b038211614323576140d6826117058554617888565b8790601f83116001146142bf5761410492918991836142155750508160011b916000199060031b1c19161790565b90555b614125604080516755bb86ea19db2cb060208201526020815261792a565b60038301916001600160401b0382116142ab57614146826117058554617888565b8590601f83116001146142205782613e1895937fa35de865ec4f1cbf701c0b24f4131c3881f019afaab526e3fd3a2986651c48ec97959361419c938a926142155750508160011b916000199060031b1c19161790565b90555b6141bd604080516799739f2ccda1e08260208201526020815261792a565b60026064359101556141e36040805167187b62f7f16b475060208201526020815261792a565b6142016040805167bccd42736e825ccb60208201526020815261792a565b604051918291602083526020830190617a12565b013590503880611695565b8387526020872091601f198416885b8181106142935750926001928592613e1898967fa35de865ec4f1cbf701c0b24f4131c3881f019afaab526e3fd3a2986651c48ec9a989610614279575b505050811b01905561419f565b0135600019600384901b60f8161c1916905538808061426c565b9193602060018192878701358155019501920161422f565b634e487b7160e01b86526041600452602486fd5b8389526020892091601f1984168a5b81811061430b57509084600195949392106142f1575b505050811b019055614107565b0135600019600384901b60f8161c191690553880806142e4565b919360206001819287870135815501950192016142ce565b634e487b7160e01b88526041600452602488fd5b8480fd5b8280fd5b50346102d257602061070f61435336617bf4565b91618232565b50346102d257806003193601126102d2576020600254604051908152f35b50346102d257806003193601126102d2576143a66040805167f9d66e7f817aa07260208201526020815261792a565b6143c460408051676cd849d82db72f0a60208201526020815261792a565b6143e2604080516718df16660affef8860208201526020815261792a565b600c54906143ef82617f9d565b6143fc604051918261792a565b828152600c82526020810192827fdf6966c971051c3d54ec59162606531493a51404a002842f56009d7e5cf4a8c7855b838310614589578585886040519160208301906020845251809152604083019360408260051b8501019294815b8383106144665785850386f35b90919293603f19868203018352865180518252602081015160208301526101006144e66144a460408401516101206040870152610120860190617a12565b606084015160608601526080840151608086015260a084015160a08601526144d460c085015160c0870190617a37565b60e084015185820360e0870152617a12565b910151916101008183039101526020808351928381520192019083905b80821061452157505050602096870196909493600101920190614459565b90919260206101006001926060875160808151878060a01b03815116855286810151878601526040810151604086015283810151848601520151608084015284810151151560a08401526040810151151560c0840152015160e0820152019401920190614503565b604051614595816178c2565b82548152600183015460208201526145af6002840161794b565b60408201526003830154606082015260048301546080820152600583015460a082015260ff6006840154166004811015611a2a5760c08201526145f46007840161794b565b60e082015260088301805461460881617f9d565b91614616604051938461792a565b81835289526020808a20908a9084015b83821061464e575050505060019282602092610100600995015281520192019201919061442c565b6007602060019261465e866181f1565b815201930191019091614626565b50346102d257806003193601126102d25761469b6040805167b1ba8a8fa3543c3a60208201526020815261792a565b6146b960408051674a42d1c724087caf60208201526020815261792a565b6146d760408051676b7a008ce597118f60208201526020815261792a565b6020600e54604051908152f35b50346102d25760603660031901126102d2576004356001600160401b038111611b6357614715903690600401617ae3565b906024356001600160401b038111611b6357614735903690600401617ae3565b90614754604080516794c10c0e36d7c66560208201526020815261792a565b61475c6182ff565b61477a6040805167ccb80c8861255a5960208201526020815261792a565b6147986040805167f4f9704a013ee0b260208201526020815261792a565b6147b66040805167cf3f38d6b77d19a060208201526020815261792a565b6147d4604080516729ca6814b1641a2360208201526020815261792a565b600b546147e0816186b5565b61483e604051926148206024856020810195634556542360e01b875261480f81518092602086860191016179ef565b81010301601f19810186528561792a565b61386e60408051672912b6bc64cc432c60208201526020815261792a565b600b5561485f6040805167dc039a5390266e6860208201526020815261792a565b6040519061486c826178f4565b8282526020820195865261489d602060408401926044358452606085019788526040518093819288519283916179ef565b8101600a81520301902091518051906001600160401b0382116142ab576148ce826148c88654617888565b8661819d565b602090601f8311600114614b22576148fd92918791836119a15750508160011b916000199060031b1c19161790565b82555b6001820195519586516001600160401b0381116142ab5761492b816149258454617888565b8461819d565b6020601f8211600114614abc57908061495f9288999a60039899926119a15750508160011b916000199060031b1c19161790565b90555b5160028201550192519283516001600160401b038111614aa85761498a816149258454617888565b6020601f8211600114614a1f5781613e189493926149e09287987f0edea3c9f900aa84820ccf471d6139121481d600b8dd8963e85aa7a7fb80353498926119a15750508160011b916000199060031b1c19161790565b90555b614a01604080516770ce9358ef6bc6ef60208201526020815261792a565b61420160408051677aae32559d63049760208201526020815261792a565b82855280852095601f198316865b818110614a905750966001928492613e189796957f0edea3c9f900aa84820ccf471d6139121481d600b8dd8963e85aa7a7fb803534999a10614a77575b505050811b0190556149e3565b015160001960f88460031b161c19169055388080614a6a565b83830151895560019098019760209384019301614a2d565b634e487b7160e01b84526041600452602484fd5b82875280872098601f198316885b818110614b0a57509160039798999a91846001959410614af2575b505050811b019055614962565b015160001983891b60f8161c19169055388080614ae5565b838301518c556001909b019a60209384019301614aca565b8487528187209190601f198416885b818110614b6d5750908460019594939210614b54575b505050811b018255614900565b015160001960f88460031b161c19169055388080614b47565b92936020600181928786015181550195019301614b31565b50346102d25760203660031901126102d257600435906008548210156102d2576020614bb083617c5f565b905460405160039290921b1c6001600160a01b03168152f35b50346102d25760203660031901126102d257600435906001600160401b0382116102d257614c61614c156020614c023660048701617ae3565b81604051938285809451938492016179ef565b8101600a8152030190206103bc614c2b8261794b565b91614c386001820161794b565b614c6f614c4c60036002850154940161794b565b91604051968796608088526080880190617a12565b908682036020880152617a12565b9160408501528382036060850152617a12565b5060803660031901126102d2576024356004356044356001600160401b038111611b5f57614cb4903690600401617ae3565b60643591614cd660408051674b31cad2fe5a10a960208201526020815261792a565b614cf460408051674fc66176dbb19dc160208201526020815261792a565b614d12604080516714fb5e6f1a9ef67d60208201526020815261792a565b614d306040805167f9be22cf15b7b83a60208201526020815261792a565b42811161544457614d5560408051679baee7a5c629f94060208201526020815261792a565b614d7360408051679f9859bbd5d0881e60208201526020815261792a565b614d916040805167264b4632d23be9e660208201526020815261792a565b62015180840284810462015180148515171561543057614db19082618190565b91614dd0604080516704567377fe627b5660208201526020815261792a565b614dee60408051678b29d05d2f4a7cb560208201526020815261792a565b614e0c604080516741b1c4dfae762ecb60208201526020815261792a565b828210156153e057614e326040805167ca215cad23e53f9460208201526020815261792a565b614e50604080516701ebfde7a7b132ae60208201526020815261792a565b614e6e60408051678c05cf8642f9782660208201526020815261792a565b614e79858583618232565b90614e986040805167a61f8830e3b4b9ad60208201526020815261792a565b614eb6604080516775b211db105055ce60208201526020815261792a565b614ed460408051671dfb004a73cc52fd60208201526020815261792a565b811561539b57614ef8604080516792a73475b8a326e260208201526020815261792a565b614f166040805167eeb8900ba4f1417f60208201526020815261792a565b614f34604080516751adbdc6dba551ff60208201526020815261792a565b614f526040805167d90e1c9469ab616160208201526020815261792a565b81340361535f57614f7760408051677b37556f344aa12460208201526020815261792a565b614f956040805167b05818e1844521f660208201526020815261792a565b614fb3604080516798c6c90657a62c5860208201526020815261792a565b8461502a60405160208101903060601b82523360601b603482015242604882015260488152614fe360688261792a565b51902097615005604080516702f63e78d3f939b460208201526020815261792a565b6150236040805167247ebeed616105ce60208201526020815261792a565b82846180b6565b916150496040805167a2804c450e8998ae60208201526020815261792a565b6150676040805167fd4fd5eed738548a60208201526020815261792a565b61513988878b6040519661507a886178c2565b83885260208801903382526040890190815260608901918a8352604060808b01948d865260a08c0196875260c08c019781895260e08d019a8b526101008d019b8c526150d883805166dcde93f37804cb60208201526020815261792a565b815260066020522099518a5560018060a01b0390511660018a019060018060a01b031660018060a01b0319825416179055516002890155516003880155516004870155516005860155511515600685019060ff801983541691151516179055565b51805160078401916001600160401b03821161534b5761515d826117058554617888565b6020908b601f84116001146152e3576008959493615191939092836119a15750508160011b916000199060031b1c19161790565b90555b519101556151b6604080516781975fa9b3d8424d60208201526020815261792a565b6151d4604080516703c7acd016c2a7a960208201526020815261792a565b338652600760205260408620805496600160401b8810156118ba575061520661180a888893600160209b018155617c7a565b905561522460408051671fd857e5c5ab6e068982015288815261792a565b61523081600354618190565b60035561524f60408051676b1799f18f58c8458982015288815261792a565b61526b6040805167c8b0183a8b3544b38982015288815261792a565b60405193858552868501526040840152606083015260808201527f4bdf67d7576c88a1f1180f8844338e7be49ba2c0bc3cf1e411753f442663331560a03392a26152c7604080516740cab8b7cac032948582015284815261792a565b61070f60408051674a26700289cce17d8582015284815261792a565b50838c52818c209190601f1984168d5b81811061533357509160019391856008989796941061531a575b505050811b019055615194565b015160001960f88460031b161c1916905538808061530d565b929360206001819287860151815501950193016152f3565b634e487b7160e01b8b52604160045260248bfd5b60405162461bcd60e51b8152602060048201526014602482015273125b98dbdc9c9958dd0811551208185b5bdd5b9d60621b6044820152606490fd5b60405162461bcd60e51b815260206004820152601e60248201527f5072656d69756d206d7573742062652067726561746572207468616e203000006044820152606490fd5b60405162461bcd60e51b815260206004820152602260248201527f53746172742074696d65206d757374206265206265666f726520656e642074696044820152616d6560f01b6064820152608490fd5b634e487b7160e01b86526011600452602486fd5b60405162461bcd60e51b815260206004820152602260248201527f53746172742074696d65206d757374206265203c3d2063757272656e742074696044820152616d6560f01b6064820152608490fd5b50346102d257806003193601126102d2576154c360408051671ae1e873ab43433f60208201526020815261792a565b6154e16040805167204a7aeebb4c9e9860208201526020815261792a565b6154ff60408051674d93118c66673a5860208201526020815261792a565b338152600760205260408120549061552b6040805167987c884125c6c50e60208201526020815261792a565b61553482617fb4565b9061555360408051670c8538ec0258190c60208201526020815261792a565b61555c83617fb4565b9261557b60408051673b844c27a906d90960208201526020815261792a565b61558481617fb4565b6155a26040805167bc602a7e76994ffa60208201526020815261792a565b6155ab82617fb4565b6155c960408051673bb2f42c51b164f260208201526020815261792a565b6155d283617fb4565b6155f060408051674dab7a83d97476d860208201526020815261792a565b6155f984617fb4565b9161561860408051679bf9ad653b38c1fd60208201526020815261792a565b61562185617fb4565b936156406040805167d3e550c7fe15856460208201526020815261792a565b61564986618003565b9561566860408051674cad3172c0f6204760208201526020815261792a565b61567181617fb4565b9761569060408051670da38dd09fbd393160208201526020815261792a565b6156ae6040805167bafa919a643c7e0260208201526020815261792a565b805b82811061575c575050506040519889986101208a526101208a016156d391617b2a565b89810360208b01526156e491617b5e565b88810360408a01526156f591617b2a565b878103606089015261570691617b2a565b868103608088015261571791617b2a565b85810360a087015261572891617b2a565b84810360c086015261573991617c29565b83810360e085015261574a91617b9b565b8281036101008401526103bc91617b2a565b60019061577d60408051675c1136fd92635ab460208201526020815261792a565b61579b6040805167adbb19722b769f5260208201526020815261792a565b33835260076020526157b08160408520617c7a565b90549060031b1c6157d56040805167b61f8c9a97ec098360208201526020815261792a565b6157f36040805167f407e7e3a3ee51c660208201526020815261792a565b835260066020528c8c6040852091604051809381938293615813846178c2565b82548452888060a01b03898401541690602085019182526158ea8960028601549360408801948552600387015495606089019687526158bc83600860048b01549a60808d019b8c5260a060058201549d019c8d5260c060ff6006830154169e01809e1515905260e06158876007830161794b565b9f019e8f5201549d61010081019e8f526158b5604080516769b473b4f0eb188260208201526020815261792a565b5192618038565b526158db6040805167eb3cb93f6128755a60208201526020815261792a565b8c8060a01b0390511692618038565b5261590860408051669a3bed762d7aa460208201526020815261792a565b51615913888d618038565b526159326040805167f97a069eb0b2981960208201526020815261792a565b5161593d878d618038565b5261595c60408051674b9fc716d40406e960208201526020815261792a565b51615967868d618038565b5261598660408051670967e4266b80591760208201526020815261792a565b51615991858d618038565b526159b060408051671bfd81a57a2a0c8b60208201526020815261792a565b5115156159bd848d618038565b526159dc604080516775999feb1eaa48da60208201526020815261792a565b516159e7838d618038565b526159f2828c618038565b50615a116040805167c0a523b07cf83d5360208201526020815261792a565b51615a1c828d618038565b52016156b0565b50346102d257602061070f615a3736617bf4565b916180b6565b50346102d257806003193601126102d257615a6c6040805167608b4443385f787f60208201526020815261792a565b615a8a604080516742b8a2c0531fecc660208201526020815261792a565b615aa860408051673ec56fcd1abe627860208201526020815261792a565b33815260076020526001604082200154615ad660408051676d5d97578e6e00c160208201526020815261792a565b615af46040805167e73d5a02ef9377aa60208201526020815261792a565b615b126040805167b56773d0040ab21160208201526020815261792a565b801561618b57615b3660408051677f2612355cb6f77260208201526020815261792a565b615b54604080516729495f3fab6ce89c60208201526020815261792a565b615b5d81617fb4565b91615b7c60408051672dbe277f9c37f00d60208201526020815261792a565b615b8582617fb4565b615ba3604080516725460260dfa67a3e60208201526020815261792a565b615bac83617f9d565b91615bba604051938461792a565b838352615bc684617f9d565b92615bd96020820194601f190185617fe6565b615bf760408051678d668b60250e341660208201526020815261792a565b615c0085618003565b92615c1f6040805167d43bdefcc4c504be60208201526020815261792a565b615c2886618003565b95615c4760408051670eb7520a1c9a604060208201526020815261792a565b615c6560408051676d4f93fcd4856efc60208201526020815261792a565b835b818110615d5a57615ccb898989898989615cd98a615c996040805167e0a115e76d272dc760208201526020815261792a565b615cb760408051674af10538937c68aa60208201526020815261792a565b60405198899860a08a5260a08a0190617b2a565b9088820360208a0152617b2a565b90868203604088015251908181526020810160208360051b8301019593915b838310615d255788806103bc8a615d178b8b8582036060870152617b9b565b908382036080850152617b9b565b9193969750919394602080615d46600193601f198682030187528a51617b5e565b980193019301909288979695949293615cf8565b615d786040805167b2330dac3470c05860208201526020815261792a565b615d966040805167adea8607490922b960208201526020815261792a565b3385526007602052615dae8160016040882001617c7a565b90549060031b1c615dd360408051672a1c14bc5bede64960208201526020815261792a565b615df1604080516723a1e71a4fb1a67960208201526020815261792a565b615e0f6040805167823bbf7df963560160208201526020815261792a565b80151580616180575b615e2190617d17565b615e3f604080516748ee87afa950f7b160208201526020815261792a565b615e5d6040805167cbbf0192468f8d5360208201526020815261792a565b615e7b6040805167c94441249cf623ae60208201526020815261792a565b600019810190811161543057615e92600891617853565b50615eb160408051679baacd547e4c250560208201526020815261792a565b8054615ebd848d618038565b52615edc60408051677040f884a09a252360208201526020815261792a565b6001810154615eeb8487618038565b52615f0a60408051676d757b80fc8c520c60208201526020815261792a565b615f166007820161794b565b615f20848c618038565b52615f2b838b618038565b50615f4a60408051676effabeeeeb4cd1260208201526020815261792a565b615f5a60ff600683015416618328565b615f64848a618038565b52615f6f8389618038565b50615f8e60408051677e975528d671e59460208201526020815261792a565b615fac604080516768ab774064ebc92960208201526020815261792a565b018054615fcd60408051674324d989cfc80dfb60208201526020815261792a565b615feb60408051670ca578a5dd2e918160208201526020815261792a565b615ff481617fb4565b9161601360408051672655078ec2e3753260208201526020815261792a565b61603160408051671b0b3526ba16261360208201526020815261792a565b875b82811061607b575050509060019161605f604080516773a21a246df83fd060208201526020815261792a565b6160698287618038565b526160748186618038565b5001615c67565b60019061609c6040805167936bb5cfe3650e5160208201526020815261792a565b6160ba6040805167d9ee978d58cb65a060208201526020815261792a565b6160c48184617de1565b50828060a01b039054166160ec6040805167e394d38f08fc691e60208201526020815261792a565b61610a6040805167292b20c544f2ed6160208201526020815261792a565b6161286040805167492c5c937d1619e760208201526020815261792a565b61613381151561804c565b61615160408051674d75b8a71c2e625e60208201526020815261792a565b61616f604080516753e13e4897989fa960208201526020815261792a565b6161798287618038565b5201616033565b50600d548110615e18565b60405162461bcd60e51b81526020600482015260126024820152715573657220686173206e6f20636c61696d7360701b6044820152606490fd5b50346102d257806003193601126102d2576040519080600154906161e882617888565b808552916001811690811561626d5750600114616210575b6103bc846142018186038261792a565b600181527fb10e2d527612073b26eecdfd717e6a320cf44b4afac2b0732d9fcbe2b7fa0cf6939250905b8082106162535750909150810160200161420182616200565b91926001816020925483858801015201910190929161623a565b60ff191660208087019190915292151560051b850190920192506142019150839050616200565b50346102d25760203660031901126102d2576004356001600160401b038111611b6357613e186162e97ffec510cf8dc709165f06d672244480e0718dc5ef561cfaa29c05b11869fcc044923690600401617ae3565b616307604080516757849689f965b07260208201526020815261792a565b61630f6182ff565b61632d60408051673828dbfe2c31ff8060208201526020815261792a565b61634b6040805167ed94a15be1e28cf260208201526020815261792a565b616369604080516751108a5158ef942060208201526020815261792a565b61638760408051673530a792b8ed28c960208201526020815261792a565b6163a560408051679f7c202fb93cb89960208201526020815261792a565b616440600361641560206040516163cc61115d8751928481818b019561114d8183896179ef565b6163e8604080516719c1777b7a0bbdfb8582015284815261792a565b616404604080516710177d445cfc8ff88582015284815261792a565b6040518093819288519283916179ef565b8101600a81520301902061642881617f4e565b61643460018201617f4e565b86600282015501617f4e565b61645e6040805167c0673f9096163fc760208201526020815261792a565b6142016040805167bd42fe8b5b752a3c60208201526020815261792a565b50346102d25760203660031901126102d25760a0906040906001600160a01b036164a4617aad565b168152600960205220600180831b0381541690600181015490600281015460046003830154920154926040519485526020850152604084015260608301526080820152f35b50346102d25760603660031901126102d257600435602435801515808203611b5f576044359161652d6040805167952082e980c60b6560208201526020815261792a565b61654b6040805167bad5aafe691a642d60208201526020815261792a565b61656960408051674e231e3a9ffe81f960208201526020815261792a565b616587604080516752be8253cbd8e9f860208201526020815261792a565b83151580616c1b575b61659990617d17565b6165b760408051679e0e60d97032d13f60208201526020815261792a565b6165d56040805167a01ed1d3077d5ac760208201526020815261792a565b6165f36040805167518810a2893f192660208201526020815261792a565b60001984018481116154305761660890617853565b5090616628604080516749e401b1d530313d60208201526020815261792a565b61664660408051673a4da667b7d3554e60208201526020815261792a565b616664604080516702d8b746a987134d60208201526020815261792a565b60ff6006830154166004811015616c075761667f9015617d9b565b61669d60408051671ce52cbaddb0e99d60208201526020815261792a565b6166bb6040805167b7a089fabc34a04f60208201526020815261792a565b6166d96040805167d55feb3755a4da1960208201526020815261792a565b6166f7604080516766748b07756c668960208201526020815261792a565b3386526009602052600160408720015415616bc25761672a60408051674ba44b43c5a007b460208201526020815261792a565b6167486040805167d12c6a8a83018edc60208201526020815261792a565b6167666040805167836e6b39d59ee59f60208201526020815261792a565b15616b7d576167896040805167db68d37ff6cf24ef60208201526020815261792a565b6167a760408051672ca7ca77c498380060208201526020815261792a565b6167c560408051679ea03f4984064a0060208201526020815261792a565b6167e360408051674f0620d44c410a7c60208201526020815261792a565b8215616b2657616807604080516747d34bee62671c9760208201526020815261792a565b6168256040805167c35093de16b3bdce60208201526020815261792a565b61684360408051679676bd877832176e60208201526020815261792a565b6168616040805167ca5e364439110f0c60208201526020815261792a565b338552600960205260016040862001548311616ae15761689560408051676c9f3da5169c88a660208201526020815261792a565b6168b36040805167e632a51067b6fc4760208201526020815261792a565b6168d160408051672aa3a70433e9910860208201526020815261792a565b6008018054855b818110616a0d57506168fe60408051679aa6694e1d5ce98460208201526020815261792a565b61691c6040805167c859c8ed1cc50a8560208201526020815261792a565b3386526009602052604086209161693e60405193616939856178f4565b617dfd565b835260016020840152836040840152846060840152600160401b82101561198d579061696f91600182018155617de1565b6169f957916169a3608094927fea011128836db08a6e5385e82ae9ef7ec1f6756b3bf6d266c0809eec75ccdf889694617e42565b6169c16040805167f6da4133dd7737ed60208201526020815261792a565b6169df604080516791d8dec630d8b21760208201526020815261792a565b60405192338452602084015260408301526060820152a180f35b634e487b7160e01b86526004869052602486fd5b616a2b60408051676f08ebfc3b32649360208201526020815261792a565b616a4960408051672a82bd41bc4687d060208201526020815261792a565b616a67604080516791287746dc7c03fd60208201526020815261792a565b616a718184617de1565b50546001600160a01b03163314616aa957600190616aa360408051676cef462ba5a8a8bd60208201526020815261792a565b016168d8565b60405162461bcd60e51b815260206004820152601060248201526f105b1c9958591e48185cdcd95cdcd95960821b6044820152606490fd5b60405162461bcd60e51b815260206004820152601c60248201527f416d6f756e742065786365656473206d6f64657261746f7220636170000000006044820152606490fd5b60405162461bcd60e51b815260206004820152602960248201527f417070726f76616c20616d6f756e74206d7573742062652067726561746572206044820152687468616e207a65726f60b81b6064820152608490fd5b9150616b9d60408051672e4f217ee65022f460208201526020815261792a565b616bbb6040805167699c368509bddf8c60208201526020815261792a565b8391616895565b60405162461bcd60e51b815260206004820152601a60248201527f4e6f7420612072656769737465726564206d6f64657261746f720000000000006044820152606490fd5b634e487b7160e01b87526021600452602487fd5b50600d548410616590565b50346102d25760203660031901126102d257604090616c58828051675e9b6841ab3468e160208201526020815261792a565b616c758280516793c53a19d149473f60208201526020815261792a565b616c92828051675f1c908a969c650360208201526020815261792a565b6004358152600660205220604051616ca9816178c2565b8154815260018060a01b036001830154169060208101918252600283015492604082019384526003810154906060830191825260048101549060808401918252600581015460a0850190815260ff6006830154169060c0860191151582526008616d156007850161794b565b9360e088019485520154936101008701948552616d466040805167a8b5a8ca9427edb260208201526020815261792a565b616d646040805167ffa0c0685e568f8960208201526020815261792a565b616d82604080516754e766c9df1c24f160208201526020815261792a565b87516001600160a01b03163303616e1a576103bc96616db560408051673c914d7da1585dba60208201526020815261792a565b616dd3604080516783634ee8a6ab485b60208201526020815261792a565b616df16040805167ceb561f2b451371160208201526020815261792a565b519760018060a01b039051169851955190519151925115159351945195604051998a998a617a5a565b60405162461bcd60e51b815260206004820152601b60248201527f43616c6c6572206973206e6f7420706f6c69637920686f6c64657200000000006044820152606490fd5b50346102d25760203660031901126102d257600435616e926040805167434b4693f0db880e60208201526020815261792a565b616e9a6182ff565b616eb860408051675ef7a77e76350dfb60208201526020815261792a565b616ed66040805167eabe9386396870d060208201526020815261792a565b616ef460408051670f94f1ae8953eed360208201526020815261792a565b616f1260408051673e0b4975128d3c7860208201526020815261792a565b616f306040805167b07ed75b574b187e60208201526020815261792a565b80151580617526575b616f4290617d17565b616f6060408051670336da162bbc051e60208201526020815261792a565b616f7e604080516786aa8037c22924a060208201526020815261792a565b616f9c604080516767a44e29ce59aee460208201526020815261792a565b6000198101908111611fde57616fb190617853565b50616fd060408051678349fec0cc834df160208201526020815261792a565b616fee60408051678448018a7169589960208201526020815261792a565b61700c6040805167fcc111daf5f415bc60208201526020815261792a565b600681019060ff82541660048110156127b2576001036174ec576170446040805167f534b3a05c9b378060208201526020815261792a565b61706260408051670a7109a4633b356060208201526020815261792a565b61708060408051678bf22674dfc8779e60208201526020815261792a565b60018101548352600660205260408320916170af604080516708b662987221094860208201526020815261792a565b6170cd604080516758225b4809edef5360208201526020815261792a565b6170eb60408051672ff23e301d26711c60208201526020815261792a565b60068301600381549361710160ff861615617d56565b61711f60408051676dd901aea79e954a60208201526020815261792a565b61713d60408051678f12c58467d5b86e60208201526020815261792a565b61715b6040805167ae0601998c9e27a860208201526020815261792a565b01549261717c60408051677a8629979c07279960208201526020815261792a565b61719a6040805167795e742e304933a160208201526020815261792a565b6171b860408051679af9c604d9a45efa60208201526020815261792a565b83156174ac576171dc604080516794314c34d03ce1b660208201526020815261792a565b6171fa60408051677eea40bdb651c3e060208201526020815261792a565b61721860408051673676db04dd3576c160208201526020815261792a565b617236604080516768b5558ad065000e60208201526020815261792a565b8360035410617467576001906172606040805167ac70cc9a1b9bc66f60208201526020815261792a565b61727e6040805167bbd47b4628eac83560208201526020815261792a565b60ff19161790556172a360408051673875cbfb59e19c7860208201526020815261792a565b600354828103908111611ad4576003556172d160408051677058dfe85f64c62860208201526020815261792a565b6172ef6040805167327bfc063467af8b60208201526020815261792a565b6001830191848080808460018060a01b038854165af161730d617ce7565b5061732c60408051679c0d1192a781298160208201526020815261792a565b61734a60408051673860d3fa5f3a4a7460208201526020815261792a565b6173686040805167a032c8375a52866460208201526020815261792a565b1561742c577fe64ba0c150ba8da1befe0c879808734569d6e16bf75e2b77c4e1db04e359cba5926040926173af848051675d038393ae5a24f460208201526020815261792a565b6173cc84805167adf27a838a1e5af960208201526020815261792a565b600160ff198254161790556173f483805167e03a6940f6ec723b60208201526020815261792a565b617411838051677015bfde0d80564360208201526020815261792a565b60018060a01b0390541693549082519182526020820152a280f35b60405162461bcd60e51b8152602060048201526013602482015272115512081d1c985b9cd9995c8819985a5b1959606a1b6044820152606490fd5b60405162461bcd60e51b815260206004820152601e60248201527f496e73756666696369656e742066756e647320696e2074686520706f6f6c00006044820152606490fd5b60405162461bcd60e51b8152602060048201526018602482015277139bc8185c1c1c9bdd99590818db185a5b48185b5bdd5b9d60421b6044820152606490fd5b60405162461bcd60e51b815260206004820152601260248201527110db185a5b481b9bdd081858d8d95c1d195960721b6044820152606490fd5b50600d548110616f39565b50346102d25760203660031901126102d257600435600c54811015611b635761755990617853565b5080546103bc6001830154926175716002820161794b565b6175d760038301549260048101546005820154906175bd61759c600760ff600687015416950161794b565b956040519a8b9a8b5260208b015261010060408b01526101008a0190617a12565b956060890152608088015260a087015260c0860190617a37565b83820360e0850152617a12565b50346102d257806003193601126102d2576005546040516001600160a01b039091168152602090f35b90506040366003190112611b63576004356001600160a01b0381169081900361433b5761765060406024359367da690b50244442c060208201526020815261792a565b6176586182ff565b617676604080516704e19e4f3804b07960208201526020815261792a565b617694604080516745a03325a3a31d7060208201526020815261792a565b6176b260408051675f3a3ec43e44583760208201526020815261792a565b6176d0604080516708ab1214a638ecfc60208201526020815261792a565b6176ee6040805167fa5846832d32ac7460208201526020815261792a565b8147106178175782808093819361771960408051678c4e167c51e47d0560208201526020815261792a565b617737604080516721eeac95b992b53b60208201526020815261792a565b6177556040805167c940da09e16dc56f60208201526020815261792a565b5af161775f617ce7565b5061777e604080516741792a39ade2557260208201526020815261792a565b61779c60408051678ba67e5c0c2b8b1260208201526020815261792a565b6177ba60408051671f94c1be09566bb860208201526020815261792a565b156177e0576177dd6040805167ac824bea43502e8c60208201526020815261792a565b80f35b60405162461bcd60e51b815260206004820152600f60248201526e151c985b9cd9995c8819985a5b1959608a1b6044820152606490fd5b60405162461bcd60e51b8152602060048201526014602482015273496e73756666696369656e742062616c616e636560601b6044820152606490fd5b600c5481101561787257600c6000526009602060002091020190600090565b634e487b7160e01b600052603260045260246000fd5b90600182811c921680156178b8575b60208310146178a257565b634e487b7160e01b600052602260045260246000fd5b91607f1691617897565b61012081019081106001600160401b038211176178de57604052565b634e487b7160e01b600052604160045260246000fd5b608081019081106001600160401b038211176178de57604052565b60a081019081106001600160401b038211176178de57604052565b90601f801991011681019081106001600160401b038211176178de57604052565b906040519182600082549261795f84617888565b80845293600181169081156179cd5750600114617986575b506179849250038361792a565b565b90506000929192526020600020906000915b8183106179b15750509060206179849282010138617977565b6020919350806001915483858901015201910190918492617998565b90506020925061798494915060ff191682840152151560051b82010138617977565b60005b838110617a025750506000910152565b81810151838201526020016179f2565b90602091617a2b815180928185528580860191016179ef565b601f01601f1916010190565b906004821015617a445752565b634e487b7160e01b600052602160045260246000fd5b999897949192617aa896936101009895928c5260018060a01b031660208c015260408b015260608a0152608089015260a0880152151560c087015261012060e0870152610120860190617a12565b930152565b600435906001600160a01b0382168203617ac357565b600080fd5b6001600160401b0381116178de57601f01601f191660200190565b81601f82011215617ac357803590617afa82617ac8565b92617b08604051948561792a565b82845260208383010111617ac357816000926020809301838601378301015290565b906020808351928381520192019060005b818110617b485750505090565b8251845260209384019390920191600101617b3b565b906020808351928381520192019060005b818110617b7c5750505090565b82516001600160a01b0316845260209384019390920191600101617b6f565b9080602083519182815201916020808360051b8301019401926000915b838310617bc757505050505090565b9091929394602080617be5600193601f198682030187528951617a12565b97019301930191939290617bb8565b6060600319820112617ac357600435906001600160401b038211617ac357617c1e91600401617ae3565b906024359060443590565b906020808351928381520192019060005b818110617c475750505090565b82511515845260209384019390920191600101617c3a565b60085481101561787257600860005260206000200190600090565b80548210156178725760005260206000200190600090565b9181601f84011215617ac3578235916001600160401b038311617ac35760208381860195010111617ac357565b9091617cd6617ce493604084526040840190617b5e565b916020818403910152617b2a565b90565b3d15617d12573d90617cf882617ac8565b91617d06604051938461792a565b82523d6000602084013e565b606090565b15617d1e57565b60405162461bcd60e51b815260206004820152601060248201526f125b9d985b1a590818db185a5b48125160821b6044820152606490fd5b15617d5d57565b60405162461bcd60e51b8152602060048201526016602482015275141bdb1a58de48185b1c9958591e4818db185a5b595960521b6044820152606490fd5b15617da257565b60405162461bcd60e51b815260206004820152601760248201527610db185a5b48185b1c9958591e481c1c9bd8d95cdcd959604a1b6044820152606490fd5b8054821015617872576000526007602060002091020190600090565b90604051617e0a8161790f565b82546001600160a01b031681526001830154602082015260028301546040820152600383015460608201526004909201546080830152565b8151805182546001600160a01b039091166001600160a01b03199091161782556020808201516001840155604082015160028401556060808301516003850155608090920151600484015583015160058301805460ff191691151560ff1691909117815591926006926040820151815461ff00191690151560081b61ff00161790550151910155565b15617ed257565b60405162461bcd60e51b8152602060048201526014602482015273115d995b9d08191bd95cc81b9bdd08195e1a5cdd60621b6044820152606490fd5b818110617f19575050565b60008155600101617f0e565b81810292918115918404141715617f3857565b634e487b7160e01b600052601160045260246000fd5b617f588154617888565b9081617f62575050565b81601f60009311600114617f74575055565b81835260208320617f9091601f0160051c810190600101617f0e565b8082528160208120915555565b6001600160401b0381116178de5760051b60200190565b90617fbe82617f9d565b617fcb604051918261792a565b8281528092617fdc601f1991617f9d565b0190602036910137565b60005b828110617ff557505050565b606082820152602001617fe9565b9061798461801083617f9d565b61801d604051918261792a565b83815260208194618030601f1991617f9d565b019101617fe6565b80518210156178725760209160051b010190565b1561805357565b60405162461bcd60e51b8152602060048201526019602482015278496e76616c6964206d6f64657261746f72206164647265737360381b6044820152606490fd5b6180ac60409295949395606083526060830190617a12565b9460208201520152565b9161813f926020926180da60408051671944341de5f2bfbe8782015286815261792a565b6180f6604080516702ade34e51c42e788782015286815261792a565b61811260408051677c617e0785c291058782015286815261792a565b600554604051630b8dd21360e41b81529586946001600160a01b0390921693859384939160048501618094565b03915afa90811561818457600091618155575090565b90506020813d60201161817c575b816181706020938361792a565b81010312617ac3575190565b3d9150618163565b6040513d6000823e3d90fd5b91908201809211617f3857565b9190601f81116181ac57505050565b617984926000526020600020906020601f840160051c830193106181d8575b601f0160051c0190617f0e565b90915081906181cb565b6000198114617f385760010190565b906040516181fe816178f4565b60606006829461820d81617dfd565b845260ff60058201548181161515602087015260081c16151560408501520154910152565b9161813f92602092618256604080516744672cfa52c855808782015286815261792a565b618272604080516722ac21ba8ea667138782015286815261792a565b61828e60408051670f986bda74a059078782015286815261792a565b600554604051630cbd5ea960e31b81529586946001600160a01b0390921693859384939160048501618094565b156182c257565b60405162461bcd60e51b81526020600482015260156024820152742737ba103a3432903837b634b1bc903437b63232b960591b6044820152606490fd5b6000546001600160a01b0316330361831357565b63118cdaa760e01b6000523360045260246000fd5b6183466040805167a299ffb60a6a33f260208201526020815261792a565b61836460408051678d9441104a4bc52b60208201526020815261792a565b61838260408051675ffd4456e1b5ab1f60208201526020815261792a565b6004811015617a4457806183f157506183ae60408051665b31f789eb12db60208201526020815261792a565b6183cc604080516743216646866526b660208201526020815261792a565b6040516183da60408261792a565b600781526650656e64696e6760c81b602082015290565b61840f60408051675f63a7bc59a8e17d60208201526020815261792a565b61842d6040805167620558c3876e213d60208201526020815261792a565b61844b6040805167add429824bbffd8760208201526020815261792a565b600090600181036184ba575061847560408051672c27aa1058f9ac6f60208201526020815261792a565b61849360408051671e1d9c6d4688e1cf60208201526020815261792a565b506040516184a260408261792a565b60088152671058d8d95c1d195960c21b602082015290565b906184d96040805167ab68b6eade9be9c260208201526020815261792a565b6184f76040805167efca82f5f7cc1f3f60208201526020815261792a565b61851560408051672061063c5a468ade60208201526020815261792a565b506002810361857f575061853d60408051672510a6dcd8a96d1760208201526020815261792a565b61855b604080516728ba8de60b6c83c060208201526020815261792a565b60405161856960408261792a565b600681526511195b9a595960d21b602082015290565b61859d604080516780858215ec2c489060208201526020815261792a565b6185bb604080516789f55fce931a8fe660208201526020815261792a565b6185d96040805167c57f12aae394be4760208201526020815261792a565b6000906003036186475761860160408051674400159f7b6caea760208201526020815261792a565b61861f6040805167eccac4c30d43be9a60208201526020815261792a565b5060405161862e60408261792a565b600981526810d85b98d95b1b195960ba1b602082015290565b61866560408051674c6ab7320c1c771460208201526020815261792a565b61868360408051677e3d01de95cb8d0360208201526020815261792a565b6186a16040805167ea04473c688bd67c60208201526020815261792a565b604051906186b060208361792a565b815290565b6000908072184f03e93ff9f4daa797ed6e38ed64bf6a1f0160401b811015618801575b806d04ee2d6d415b85acef8100000000600a9210156187e6575b662386f26fc100008110156187d2575b6305f5e1008110156187c1575b6127108110156187b2575b60648110156187a4575b1015618799575b600a6021600184019361873d85617ac8565b9461874b604051968761792a565b80865261875a601f1991617ac8565b013660208701378401015b60001901916f181899199a1a9b1b9c1cb0b131b232b360811b8282061a835304801561879457600a9091618765565b505090565b60019091019061872b565b606460029104930192618724565b6127106004910493019261871a565b6305f5e1006008910493019261870f565b662386f26fc1000060109104930192618702565b6d04ee2d6d415b85acef8100000000602091049301926186f2565b506040915072184f03e93ff9f4daa797ed6e38ed64bf6a1f0160401b81046186d856fe131884885e3b15c22fcaa4e2b49df807c03ab9e54bc149f6447e3c9166ce8814a264697066735822122027f7775433c292b2b7f58201ac12e5b68449e91e280ad169f3401ab0b750697464736f6c634300081c0033",
  "linkReferences": {},
  "deployedLinkReferences": {}
}