{
  "_format": "hh-sol-artifact-1",
  "contractName": "GraviInsurance",
  "sourceName": "contracts/GraviInsurance.sol",
  "abi": [
    {
      "inputs": [
        {
          "internalType": "string",
          "name": "_disasterType",
          "type": "string"
        },
        {
          "internalType": "uint256",
          "name": "_premiumRate",
          "type": "uint256"
        },
        {
          "internalType": "address",
          "name": "_graviCha",
          "type": "address"
        }
      ],
      "stateMutability": "nonpayable",
      "type": "constructor"
    },
    {
      "inputs": [
        {
          "internalType": "address",
          "name": "owner",
          "type": "address"
        }
      ],
      "name": "OwnableInvalidOwner",
      "type": "error"
    },
    {
      "inputs": [
        {
          "internalType": "address",
          "name": "account",
          "type": "address"
        }
      ],
      "name": "OwnableUnauthorizedAccount",
      "type": "error"
    },
    {
      "anonymous": false,
      "inputs": [
        {
          "indexed": true,
          "internalType": "address",
          "name": "user",
          "type": "address"
        },
        {
          "indexed": false,
          "internalType": "bytes32",
          "name": "policyId",
          "type": "bytes32"
        },
        {
          "indexed": false,
          "internalType": "uint256",
          "name": "payout",
          "type": "uint256"
        }
      ],
      "name": "ClaimApproved",
      "type": "event"
    },
    {
      "anonymous": false,
      "inputs": [
        {
          "indexed": false,
          "internalType": "address",
          "name": "moderator",
          "type": "address"
        },
        {
          "indexed": false,
          "internalType": "uint256",
          "name": "claimId",
          "type": "uint256"
        },
        {
          "indexed": false,
          "internalType": "bool",
          "name": "isApproved",
          "type": "bool"
        },
        {
          "indexed": false,
          "internalType": "uint256",
          "name": "amount",
          "type": "uint256"
        }
      ],
      "name": "ClaimAssessed",
      "type": "event"
    },
    {
      "anonymous": false,
      "inputs": [
        {
          "indexed": false,
          "internalType": "uint256",
          "name": "claimId",
          "type": "uint256"
        },
        {
          "indexed": false,
          "internalType": "enum GraviInsurance.ClaimStatus",
          "name": "claimStatus",
          "type": "uint8"
        },
        {
          "indexed": false,
          "internalType": "uint256",
          "name": "approvedClaimAmount",
          "type": "uint256"
        }
      ],
      "name": "ClaimProcessed",
      "type": "event"
    },
    {
      "anonymous": false,
      "inputs": [
        {
          "indexed": false,
          "internalType": "uint256",
          "name": "claimId",
          "type": "uint256"
        },
        {
          "indexed": false,
          "internalType": "string",
          "name": "incidentDescription",
          "type": "string"
        }
      ],
      "name": "ClaimStarted",
      "type": "event"
    },
    {
      "anonymous": false,
      "inputs": [
        {
          "indexed": false,
          "internalType": "string",
          "name": "eventId",
          "type": "string"
        }
      ],
      "name": "DisasterEventAdded",
      "type": "event"
    },
    {
      "anonymous": false,
      "inputs": [
        {
          "indexed": false,
          "internalType": "string",
          "name": "eventId",
          "type": "string"
        }
      ],
      "name": "DisasterEventModified",
      "type": "event"
    },
    {
      "anonymous": false,
      "inputs": [
        {
          "indexed": false,
          "internalType": "string",
          "name": "eventId",
          "type": "string"
        }
      ],
      "name": "DisasterEventRemoved",
      "type": "event"
    },
    {
      "anonymous": false,
      "inputs": [
        {
          "indexed": true,
          "internalType": "address",
          "name": "donor",
          "type": "address"
        },
        {
          "indexed": false,
          "internalType": "uint256",
          "name": "amount",
          "type": "uint256"
        }
      ],
      "name": "FundsDonated",
      "type": "event"
    },
    {
      "anonymous": false,
      "inputs": [
        {
          "indexed": false,
          "internalType": "address",
          "name": "moderator",
          "type": "address"
        },
        {
          "indexed": false,
          "internalType": "uint256",
          "name": "maxAmount",
          "type": "uint256"
        }
      ],
      "name": "ModeratorAdded",
      "type": "event"
    },
    {
      "anonymous": false,
      "inputs": [
        {
          "indexed": false,
          "internalType": "address",
          "name": "moderator",
          "type": "address"
        }
      ],
      "name": "ModeratorRemoved",
      "type": "event"
    },
    {
      "anonymous": false,
      "inputs": [
        {
          "indexed": true,
          "internalType": "address",
          "name": "previousOwner",
          "type": "address"
        },
        {
          "indexed": true,
          "internalType": "address",
          "name": "newOwner",
          "type": "address"
        }
      ],
      "name": "OwnershipTransferred",
      "type": "event"
    },
    {
      "anonymous": false,
      "inputs": [
        {
          "indexed": true,
          "internalType": "address",
          "name": "user",
          "type": "address"
        },
        {
          "indexed": false,
          "internalType": "bytes32",
          "name": "policyId",
          "type": "bytes32"
        },
        {
          "indexed": false,
          "internalType": "uint256",
          "name": "coverageAmount",
          "type": "uint256"
        },
        {
          "indexed": false,
          "internalType": "uint256",
          "name": "premium",
          "type": "uint256"
        },
        {
          "indexed": false,
          "internalType": "uint256",
          "name": "startTime",
          "type": "uint256"
        },
        {
          "indexed": false,
          "internalType": "uint256",
          "name": "endTime",
          "type": "uint256"
        }
      ],
      "name": "PolicyPurchased",
      "type": "event"
    },
    {
      "inputs": [
        {
          "internalType": "string",
          "name": "eventName",
          "type": "string"
        },
        {
          "internalType": "string",
          "name": "eventDescription",
          "type": "string"
        },
        {
          "internalType": "uint256",
          "name": "disasterDate",
          "type": "uint256"
        }
      ],
      "name": "addDisasterEvent",
      "outputs": [],
      "stateMutability": "nonpayable",
      "type": "function"
    },
    {
      "inputs": [
        {
          "internalType": "address",
          "name": "_moderatorAddress",
          "type": "address"
        },
        {
          "internalType": "uint256",
          "name": "maxAmount",
          "type": "uint256"
        }
      ],
      "name": "addModeratorToPool",
      "outputs": [],
      "stateMutability": "nonpayable",
      "type": "function"
    },
    {
      "inputs": [
        {
          "internalType": "uint256",
          "name": "claimId",
          "type": "uint256"
        },
        {
          "internalType": "bool",
          "name": "isApproved",
          "type": "bool"
        },
        {
          "internalType": "uint256",
          "name": "amount",
          "type": "uint256"
        }
      ],
      "name": "assessClaim",
      "outputs": [],
      "stateMutability": "nonpayable",
      "type": "function"
    },
    {
      "inputs": [
        {
          "internalType": "uint256",
          "name": "startTime",
          "type": "uint256"
        },
        {
          "internalType": "uint256",
          "name": "coveragePeriod",
          "type": "uint256"
        },
        {
          "internalType": "string",
          "name": "propertyAddress",
          "type": "string"
        },
        {
          "internalType": "uint256",
          "name": "propertyValue",
          "type": "uint256"
        }
      ],
      "name": "buyInsurance",
      "outputs": [
        {
          "internalType": "bytes32",
          "name": "",
          "type": "bytes32"
        }
      ],
      "stateMutability": "payable",
      "type": "function"
    },
    {
      "inputs": [
        {
          "internalType": "uint256",
          "name": "premium",
          "type": "uint256"
        }
      ],
      "name": "calculateCoverageAmountFromPremium",
      "outputs": [
        {
          "internalType": "uint256",
          "name": "coverageAmount",
          "type": "uint256"
        }
      ],
      "stateMutability": "pure",
      "type": "function"
    },
    {
      "inputs": [
        {
          "internalType": "string",
          "name": "propertyAddress",
          "type": "string"
        },
        {
          "internalType": "uint256",
          "name": "propertyValue",
          "type": "uint256"
        },
        {
          "internalType": "uint256",
          "name": "coveragePeriod",
          "type": "uint256"
        }
      ],
      "name": "calculatePremium",
      "outputs": [
        {
          "internalType": "uint256",
          "name": "premium",
          "type": "uint256"
        }
      ],
      "stateMutability": "pure",
      "type": "function"
    },
    {
      "inputs": [
        {
          "internalType": "uint256",
          "name": "",
          "type": "uint256"
        }
      ],
      "name": "claimRecords",
      "outputs": [
        {
          "internalType": "uint256",
          "name": "claimId",
          "type": "uint256"
        },
        {
          "internalType": "bytes32",
          "name": "policyId",
          "type": "bytes32"
        },
        {
          "internalType": "string",
          "name": "eventId",
          "type": "string"
        },
        {
          "internalType": "uint256",
          "name": "approvedClaimAmount",
          "type": "uint256"
        },
        {
          "internalType": "uint256",
          "name": "assessmentStart",
          "type": "uint256"
        },
        {
          "internalType": "uint256",
          "name": "assessmentEnd",
          "type": "uint256"
        },
        {
          "internalType": "enum GraviInsurance.ClaimStatus",
          "name": "status",
          "type": "uint8"
        },
        {
          "internalType": "string",
          "name": "incidentDescription",
          "type": "string"
        }
      ],
      "stateMutability": "view",
      "type": "function"
    },
    {
      "inputs": [
        {
          "internalType": "string",
          "name": "",
          "type": "string"
        }
      ],
      "name": "disasterEvents",
      "outputs": [
        {
          "internalType": "string",
          "name": "eventId",
          "type": "string"
        },
        {
          "internalType": "string",
          "name": "name",
          "type": "string"
        },
        {
          "internalType": "uint256",
          "name": "disasterDate",
          "type": "uint256"
        },
        {
          "internalType": "string",
          "name": "eventDescription",
          "type": "string"
        }
      ],
      "stateMutability": "view",
      "type": "function"
    },
    {
      "inputs": [],
      "name": "disasterType",
      "outputs": [
        {
          "internalType": "string",
          "name": "",
          "type": "string"
        }
      ],
      "stateMutability": "view",
      "type": "function"
    },
    {
      "inputs": [],
      "name": "donate",
      "outputs": [
        {
          "internalType": "uint256",
          "name": "tokensReceived",
          "type": "uint256"
        }
      ],
      "stateMutability": "payable",
      "type": "function"
    },
    {
      "inputs": [],
      "name": "donationRewardRate",
      "outputs": [
        {
          "internalType": "uint256",
          "name": "",
          "type": "uint256"
        }
      ],
      "stateMutability": "view",
      "type": "function"
    },
    {
      "inputs": [
        {
          "internalType": "uint256",
          "name": "",
          "type": "uint256"
        }
      ],
      "name": "donors",
      "outputs": [
        {
          "internalType": "address",
          "name": "",
          "type": "address"
        }
      ],
      "stateMutability": "view",
      "type": "function"
    },
    {
      "inputs": [
        {
          "internalType": "address",
          "name": "user",
          "type": "address"
        }
      ],
      "name": "fetchInsuranceIds",
      "outputs": [
        {
          "internalType": "bytes32[]",
          "name": "",
          "type": "bytes32[]"
        }
      ],
      "stateMutability": "view",
      "type": "function"
    },
    {
      "inputs": [],
      "name": "getAllClaims",
      "outputs": [
        {
          "components": [
            {
              "internalType": "uint256",
              "name": "claimId",
              "type": "uint256"
            },
            {
              "internalType": "bytes32",
              "name": "policyId",
              "type": "bytes32"
            },
            {
              "internalType": "string",
              "name": "eventId",
              "type": "string"
            },
            {
              "internalType": "uint256",
              "name": "approvedClaimAmount",
              "type": "uint256"
            },
            {
              "internalType": "uint256",
              "name": "assessmentStart",
              "type": "uint256"
            },
            {
              "internalType": "uint256",
              "name": "assessmentEnd",
              "type": "uint256"
            },
            {
              "internalType": "enum GraviInsurance.ClaimStatus",
              "name": "status",
              "type": "uint8"
            },
            {
              "internalType": "string",
              "name": "incidentDescription",
              "type": "string"
            },
            {
              "components": [
                {
                  "components": [
                    {
                      "internalType": "address",
                      "name": "moderatorAddress",
                      "type": "address"
                    },
                    {
                      "internalType": "uint256",
                      "name": "maxApprovalAmount",
                      "type": "uint256"
                    },
                    {
                      "internalType": "uint256",
                      "name": "totalClaimsAssessed",
                      "type": "uint256"
                    },
                    {
                      "internalType": "uint256",
                      "name": "totalClaimsApproved",
                      "type": "uint256"
                    },
                    {
                      "internalType": "uint256",
                      "name": "totalApprovedAmount",
                      "type": "uint256"
                    }
                  ],
                  "internalType": "struct GraviInsurance.Moderator",
                  "name": "moderator",
                  "type": "tuple"
                },
                {
                  "internalType": "bool",
                  "name": "hasDecided",
                  "type": "bool"
                },
                {
                  "internalType": "bool",
                  "name": "isApproved",
                  "type": "bool"
                },
                {
                  "internalType": "uint256",
                  "name": "approvedAmount",
                  "type": "uint256"
                }
              ],
              "internalType": "struct GraviInsurance.ModeratorInfo[]",
              "name": "moderatorTeam",
              "type": "tuple[]"
            }
          ],
          "internalType": "struct GraviInsurance.ClaimRecord[]",
          "name": "",
          "type": "tuple[]"
        }
      ],
      "stateMutability": "view",
      "type": "function"
    },
    {
      "inputs": [],
      "name": "getAllDisasterEvents",
      "outputs": [
        {
          "internalType": "string[]",
          "name": "eventIds",
          "type": "string[]"
        }
      ],
      "stateMutability": "view",
      "type": "function"
    },
    {
      "inputs": [],
      "name": "getAllDonors",
      "outputs": [
        {
          "internalType": "address[]",
          "name": "",
          "type": "address[]"
        },
        {
          "internalType": "uint256[]",
          "name": "",
          "type": "uint256[]"
        }
      ],
      "stateMutability": "view",
      "type": "function"
    },
    {
      "inputs": [
        {
          "internalType": "uint256",
          "name": "claimId",
          "type": "uint256"
        }
      ],
      "name": "getClaimModerators",
      "outputs": [
        {
          "internalType": "address[]",
          "name": "",
          "type": "address[]"
        }
      ],
      "stateMutability": "view",
      "type": "function"
    },
    {
      "inputs": [
        {
          "internalType": "string",
          "name": "eventId",
          "type": "string"
        }
      ],
      "name": "getDisasterEvent",
      "outputs": [
        {
          "internalType": "string",
          "name": "eventName",
          "type": "string"
        },
        {
          "internalType": "string",
          "name": "eventDescription",
          "type": "string"
        },
        {
          "internalType": "uint256",
          "name": "disasterDate",
          "type": "uint256"
        }
      ],
      "stateMutability": "view",
      "type": "function"
    },
    {
      "inputs": [],
      "name": "getDonationRewardRate",
      "outputs": [
        {
          "internalType": "uint256",
          "name": "",
          "type": "uint256"
        }
      ],
      "stateMutability": "view",
      "type": "function"
    },
    {
      "inputs": [],
      "name": "getTopDonors",
      "outputs": [
        {
          "internalType": "address[]",
          "name": "topDonors",
          "type": "address[]"
        },
        {
          "internalType": "uint256[]",
          "name": "topAmounts",
          "type": "uint256[]"
        }
      ],
      "stateMutability": "view",
      "type": "function"
    },
    {
      "inputs": [],
      "name": "getUserClaims",
      "outputs": [
        {
          "internalType": "uint256[]",
          "name": "claimIds",
          "type": "uint256[]"
        },
        {
          "internalType": "bytes32[]",
          "name": "policyIds",
          "type": "bytes32[]"
        },
        {
          "internalType": "address[][]",
          "name": "moderatorList",
          "type": "address[][]"
        },
        {
          "internalType": "string[]",
          "name": "statuses",
          "type": "string[]"
        },
        {
          "internalType": "string[]",
          "name": "descriptions",
          "type": "string[]"
        }
      ],
      "stateMutability": "view",
      "type": "function"
    },
    {
      "inputs": [],
      "name": "getUserPolicies",
      "outputs": [
        {
          "internalType": "bytes32[]",
          "name": "policyIds",
          "type": "bytes32[]"
        },
        {
          "internalType": "address[]",
          "name": "policyHolders",
          "type": "address[]"
        },
        {
          "internalType": "uint256[]",
          "name": "maxCoverageAmounts",
          "type": "uint256[]"
        },
        {
          "internalType": "uint256[]",
          "name": "premiums",
          "type": "uint256[]"
        },
        {
          "internalType": "uint256[]",
          "name": "startTimes",
          "type": "uint256[]"
        },
        {
          "internalType": "uint256[]",
          "name": "endTimes",
          "type": "uint256[]"
        },
        {
          "internalType": "bool[]",
          "name": "isClaimedList",
          "type": "bool[]"
        },
        {
          "internalType": "string[]",
          "name": "propertyAddresses",
          "type": "string[]"
        },
        {
          "internalType": "uint256[]",
          "name": "propertyValues",
          "type": "uint256[]"
        }
      ],
      "stateMutability": "view",
      "type": "function"
    },
    {
      "inputs": [
        {
          "internalType": "bytes32",
          "name": "policyId",
          "type": "bytes32"
        }
      ],
      "name": "getUserPolicy",
      "outputs": [
        {
          "internalType": "bytes32",
          "name": "_policyId",
          "type": "bytes32"
        },
        {
          "internalType": "address",
          "name": "_policyHolder",
          "type": "address"
        },
        {
          "internalType": "uint256",
          "name": "_maxCoverageAmount",
          "type": "uint256"
        },
        {
          "internalType": "uint256",
          "name": "_premiumPaid",
          "type": "uint256"
        },
        {
          "internalType": "uint256",
          "name": "_startTime",
          "type": "uint256"
        },
        {
          "internalType": "uint256",
          "name": "_endTime",
          "type": "uint256"
        },
        {
          "internalType": "bool",
          "name": "_isClaimed",
          "type": "bool"
        },
        {
          "internalType": "string",
          "name": "_propertyAddress",
          "type": "string"
        },
        {
          "internalType": "uint256",
          "name": "_propertyValue",
          "type": "uint256"
        }
      ],
      "stateMutability": "view",
      "type": "function"
    },
    {
      "inputs": [],
      "name": "graviCha",
      "outputs": [
        {
          "internalType": "contract IGraviCha",
          "name": "",
          "type": "address"
        }
      ],
      "stateMutability": "view",
      "type": "function"
    },
    {
      "inputs": [
        {
          "internalType": "address",
          "name": "",
          "type": "address"
        }
      ],
      "name": "moderators",
      "outputs": [
        {
          "internalType": "address",
          "name": "moderatorAddress",
          "type": "address"
        },
        {
          "internalType": "uint256",
          "name": "maxApprovalAmount",
          "type": "uint256"
        },
        {
          "internalType": "uint256",
          "name": "totalClaimsAssessed",
          "type": "uint256"
        },
        {
          "internalType": "uint256",
          "name": "totalClaimsApproved",
          "type": "uint256"
        },
        {
          "internalType": "uint256",
          "name": "totalApprovedAmount",
          "type": "uint256"
        }
      ],
      "stateMutability": "view",
      "type": "function"
    },
    {
      "inputs": [
        {
          "internalType": "string",
          "name": "eventId",
          "type": "string"
        },
        {
          "internalType": "string",
          "name": "newName",
          "type": "string"
        },
        {
          "internalType": "string",
          "name": "newEventDescription",
          "type": "string"
        },
        {
          "internalType": "uint256",
          "name": "disasterDate",
          "type": "uint256"
        }
      ],
      "name": "modifyDisasterEvent",
      "outputs": [],
      "stateMutability": "nonpayable",
      "type": "function"
    },
    {
      "inputs": [],
      "name": "nextClaimId",
      "outputs": [
        {
          "internalType": "uint256",
          "name": "",
          "type": "uint256"
        }
      ],
      "stateMutability": "view",
      "type": "function"
    },
    {
      "inputs": [],
      "name": "nextEventId",
      "outputs": [
        {
          "internalType": "uint256",
          "name": "",
          "type": "uint256"
        }
      ],
      "stateMutability": "view",
      "type": "function"
    },
    {
      "inputs": [],
      "name": "owner",
      "outputs": [
        {
          "internalType": "address",
          "name": "",
          "type": "address"
        }
      ],
      "stateMutability": "view",
      "type": "function"
    },
    {
      "inputs": [
        {
          "internalType": "uint256",
          "name": "claimId",
          "type": "uint256"
        }
      ],
      "name": "payoutClaim",
      "outputs": [],
      "stateMutability": "nonpayable",
      "type": "function"
    },
    {
      "inputs": [
        {
          "internalType": "bytes32",
          "name": "",
          "type": "bytes32"
        }
      ],
      "name": "policies",
      "outputs": [
        {
          "internalType": "bytes32",
          "name": "policyId",
          "type": "bytes32"
        },
        {
          "internalType": "address",
          "name": "policyHolder",
          "type": "address"
        },
        {
          "internalType": "uint256",
          "name": "maxCoverageAmount",
          "type": "uint256"
        },
        {
          "internalType": "uint256",
          "name": "premiumPaid",
          "type": "uint256"
        },
        {
          "internalType": "uint256",
          "name": "startTime",
          "type": "uint256"
        },
        {
          "internalType": "uint256",
          "name": "endTime",
          "type": "uint256"
        },
        {
          "internalType": "bool",
          "name": "isClaimed",
          "type": "bool"
        },
        {
          "internalType": "string",
          "name": "propertyAddress",
          "type": "string"
        },
        {
          "internalType": "uint256",
          "name": "propertyValue",
          "type": "uint256"
        }
      ],
      "stateMutability": "view",
      "type": "function"
    },
    {
      "inputs": [],
      "name": "premiumRate",
      "outputs": [
        {
          "internalType": "uint256",
          "name": "",
          "type": "uint256"
        }
      ],
      "stateMutability": "view",
      "type": "function"
    },
    {
      "inputs": [
        {
          "internalType": "uint256",
          "name": "claimId",
          "type": "uint256"
        }
      ],
      "name": "processClaim",
      "outputs": [],
      "stateMutability": "nonpayable",
      "type": "function"
    },
    {
      "inputs": [
        {
          "internalType": "string",
          "name": "eventId",
          "type": "string"
        }
      ],
      "name": "removeDisasterEvent",
      "outputs": [],
      "stateMutability": "nonpayable",
      "type": "function"
    },
    {
      "inputs": [
        {
          "internalType": "address",
          "name": "moderator",
          "type": "address"
        }
      ],
      "name": "removeModeratorFromPool",
      "outputs": [],
      "stateMutability": "nonpayable",
      "type": "function"
    },
    {
      "inputs": [],
      "name": "renounceOwnership",
      "outputs": [],
      "stateMutability": "nonpayable",
      "type": "function"
    },
    {
      "inputs": [
        {
          "internalType": "uint256",
          "name": "newRate",
          "type": "uint256"
        }
      ],
      "name": "setDonationRewardRate",
      "outputs": [],
      "stateMutability": "nonpayable",
      "type": "function"
    },
    {
      "inputs": [
        {
          "internalType": "string",
          "name": "eventId",
          "type": "string"
        },
        {
          "internalType": "bytes32",
          "name": "policyId",
          "type": "bytes32"
        },
        {
          "internalType": "string",
          "name": "incidentDescription",
          "type": "string"
        }
      ],
      "name": "startAClaim",
      "outputs": [
        {
          "internalType": "bool",
          "name": "",
          "type": "bool"
        }
      ],
      "stateMutability": "nonpayable",
      "type": "function"
    },
    {
      "inputs": [],
      "name": "totalPoolFunds",
      "outputs": [
        {
          "internalType": "uint256",
          "name": "",
          "type": "uint256"
        }
      ],
      "stateMutability": "view",
      "type": "function"
    },
    {
      "inputs": [
        {
          "internalType": "address payable",
          "name": "recipient",
          "type": "address"
        },
        {
          "internalType": "uint256",
          "name": "amount",
          "type": "uint256"
        }
      ],
      "name": "transferEther",
      "outputs": [],
      "stateMutability": "payable",
      "type": "function"
    },
    {
      "inputs": [
        {
          "internalType": "address",
          "name": "newOwner",
          "type": "address"
        }
      ],
      "name": "transferOwnership",
      "outputs": [],
      "stateMutability": "nonpayable",
      "type": "function"
    },
    {
      "inputs": [
        {
          "internalType": "address",
          "name": "",
          "type": "address"
        }
      ],
      "name": "userRecords",
      "outputs": [
        {
          "internalType": "uint256",
          "name": "donationTotal",
          "type": "uint256"
        }
      ],
      "stateMutability": "view",
      "type": "function"
    },
    {
      "stateMutability": "payable",
      "type": "receive"
    }
  ],
  "bytecode": "0x6080604052346102fc576144ba8038038061001981610316565b9283398101906060818303126102fc5780516001600160401b0381116102fc57810182601f820112156102fc578051906001600160401b03821161028e5761006a601f8301601f1916602001610316565b93828552602083830101116102fc5760005b828110610301575050602060009184010152604060208201519101519060018060a01b0382168092036102fc5733156102e65760008054336001600160a01b03198216811783556040519290916001600160a01b0316907f8be0079c531659141344cd1fd0a4f28419497f9722a3daafe3b4186f6b6457e09080a36001600a556001600c55612710600d5581156102a4575082516001600160401b03811161028e57600154600181811c91168015610284575b602082101461026e57601f8111610209575b506020601f82116001146101a25781929394600092610197575b50508160011b916000199060031b1c1916176001555b600255600480546001600160a01b03191691909117905560405161417e908161033c8239f35b01519050388061015b565b601f198216906001600052806000209160005b8181106101f1575095836001959697106101d8575b505050811b01600155610171565b015160001960f88460031b161c191690553880806101ca565b9192602060018192868b0151815501940192016101b5565b60016000527fb10e2d527612073b26eecdfd717e6a320cf44b4afac2b0732d9fcbe2b7fa0cf6601f830160051c81019160208410610264575b601f0160051c01905b8181106102585750610141565b6000815560010161024b565b9091508190610242565b634e487b7160e01b600052602260045260246000fd5b90607f169061012f565b634e487b7160e01b600052604160045260246000fd5b62461bcd60e51b815260206004820152601460248201527f496e76616c6964207072656d69756d20726174650000000000000000000000006044820152606490fd5b631e4fbdf760e01b600052600060045260246000fd5b600080fd5b8060208092840101518282880101520161007c565b6040519190601f01601f191682016001600160401b0381118382101761028e5760405256fe6080604052600436101561002a575b361561001957600080fd5b61002534600354613e18565b600355005b6000803560e01c806305b1137b146135c7578063098464f3146135145780630d13fa5a146132db578063100772cb146131ab5780631120fe7c14612eaa57806314d0f1ba14612e3d57806317b46b1b14612d7d5780631ef4f7bc14612cae578063216e14fb14612a125780632425b2e91461273357806333c7072e146123225780633defbf28146122695780634abfa163146122255780634e8402f314611e7957806353591ad6146118955780635b23c27d14611bde5780635d0040d314611bc057806365eaf54814611b7d57806366a3e4c8146118b3578063678f93501461189557806369b5198a146116f55780636a0ecf50146116ad578063715018a6146116535780637257dfc91461133757806377c8add8146112995780638da5cb5b1461127257806398e36b04146111d35780639b6196a3146110f45780639f9d903a146110d6578063a0021cf1146110b8578063a591a0f41461105b578063b04869ae14611032578063ba06910814610f74578063bcd47032146108d9578063c06e34d2146107f4578063d6387ed814610620578063dabd2c80146105e3578063ddbfd8ef14610573578063ed88c68e14610334578063f019602e146102aa578063f1139d0f1461028c5763f2fde38b14610204575061000e565b346102895760203660031901126102895761021d6138e2565b610225613f06565b6001600160a01b031680156102755781546001600160a01b03198116821783556001600160a01b03167f8be0079c531659141344cd1fd0a4f28419497f9722a3daafe3b4186f6b6457e08380a380f35b631e4fbdf760e01b82526004829052602482fd5b80fd5b50346102895780600319360112610289576020600354604051908152f35b5034610289576020366003190112610289576001600160a01b036102cc6138e2565b168152600660205260408120604051918260208354918281520192825260208220915b81811061031e5761031a856103068187038261375f565b60405191829160208352602083019061395f565b0390f35b82548452602090930192600192830192016102ef565b508060031936011261028957341561053e5761035234600354613e18565b60035533815260066020526002604082200154156104ea575b338152600660205260026040822001610385348254613e18565b9055600454600d5482916001600160a01b0316906103a39034613ca9565b90803b156104c9576040516340c10f1960e01b8152336004820152602481019290925290919081908390604490829084905af180156104dd576104cd575b50506040513481527fd143b3fca8f81682799e935736170faff446dc630e9babfdc72e4ae53c181a2660203392a2600454600d5482916001600160a01b03169061042b9034613ca9565b90803b156104c9576040516340c10f1960e01b8152336004820152602481019290925282908290604490829084905af180156104be576104a9575b506040519081527fd143b3fca8f81682799e935736170faff446dc630e9babfdc72e4ae53c181a2660203392a260206104a1600d5434613ca9565b604051908152f35b816104b39161375f565b610289578038610466565b6040513d84823e3d90fd5b5050fd5b6104d69161375f565b38816103e1565b50604051903d90823e3d90fd5b600754600160401b81101561052a578060016105099201600755613a29565b81546001600160a01b0360039290921b91821b19163390911b17905561036b565b634e487b7160e01b82526041600452602482fd5b60405162461bcd60e51b815260206004820152600d60248201526c09aeae6e840e6cadcc8408aa89609b1b6044820152606490fd5b5034610289576020366003190112610289576040906004358152600560205220805461031a60018060a01b03600184015416926002810154906003810154600482015460058301549060ff6006850154169260086105d360078701613780565b95015495604051998a998a61388f565b5034610289576020366003190112610289576020906002906040906001600160a01b0361060e6138e2565b16815260068452200154604051908152f35b5034610289578060031936011261028957600754600a8110156107ed57805b61064881613d38565b9161065282613d38565b9361065c82613d38565b9061066683613d38565b92815b8181106107915750815b8181106106d15750505b838110610693576040518061031a888883613a89565b6001906001600160a01b036106a88285613dbc565b51166106b48288613dbc565b526106bf8185613dbc565b516106ca8289613dbc565b520161067d565b6001810180821161077d575b8281106106ed5750600101610673565b6001906106fa8388613dbc565b516107058289613dbc565b5111610712575b016106dd565b61071c8188613dbc565b516107278489613dbc565b51610732838a613dbc565b5261073d8489613dbc565b52818060a01b0361074e8288613dbc565b5116828060a01b036107608589613dbc565b511661076c8389613dbc565b526107778488613dbc565b5261070c565b634e487b7160e01b84526011600452602484fd5b8061079d600192613a29565b838060a01b0391549060031b1c166107b58287613dbc565b526107bf81613a29565b838060a01b0391549060031b1c168452600660205260026040852001546107e68288613dbc565b5201610669565b600a61063f565b50346102895760203660031901126102895761080e6138e2565b610816613f06565b6001600160a01b031661082a811515613dd0565b8082526008602052600160408320015415610899576020817f7a9f1e23d5426b34819d173153d59084cc3578d5a129b80bb27df683ac6b22789284526008825261088f6040852060046000918281558260018201558260028201558260038201550155565b604051908152a180f35b60405162461bcd60e51b8152602060048201526018602482015277135bd9195c985d1bdc88191bd95cc81b9bdd08195e1a5cdd60421b6044820152606490fd5b5034610289576060366003190112610289576004356001600160401b038111610f705761090a903690600401613918565b6024356044356001600160401b038111610f6c5761092c903690600401613918565b9061095f61095860405160208187516109488183858c01613824565b81016009815203019020546136bd565b1515613c4f565b808452600560205260408420600101546001600160a01b03163303610f2f5780845260056020526040842060405190610997826136f7565b8054825260018060a01b0360018201541660208301526002810154604083015260038101546060830152610a126004820154916080840192835260058101549360a08101948552610100600860ff6006850154169360c084019415158552610a0160078201613780565b60e085015201549101525115613b20565b514210610ef257514211610eb8576203f480420192834211610ea457600c5491610a3b83613e6a565b600c55604051602095610a4e878361375f565b87825260405193610a5e856136f7565b8585528785019384526040850190815260608501898152608086019142835260a0870193845260c08701948b86528960e0890152610100880152600b54600160401b811015610e7c57806001610ab79201600b55613688565b969096610e9057875187555160018701555180516001600160401b038111610e7c57610af381610aea60028a01546136bd565b60028a01613e25565b8a918c601f8311600114610e0e57610b2293909183610d71575b50508160011b916000199060031b1c19161790565b60028601555b5160038501555160048401555160058301556006820190516003811015610dfa5760ff801983541691161790556007810160e08301518051906001600160401b038211610de657610b8382610b7d85546136bd565b85613e25565b8790601f8311600114610d7c5782610100959360089593610bb9938d92610d715750508160011b916000199060031b1c19161790565b90555b0191015190815191600160401b8311610d5d5785908254848455808510610cbd575b50019086528486208587925b848410610c9e5750503387525050600684525060408420600101805494600160401b861015610c8a5750610c61610c4a86849360017f5decab71e0179c4a357e5f497297b72c7f2271c2350638169cc1d509062adc3a9899018155613a44565b819391549060031b91821b91600019901b19161790565b9055610c7e60405192839283526040868401526040830190613847565b0390a160405160018152f35b634e487b7160e01b81526041600452602490fd5b60019181610caf6007935186613bc6565b019201920191908690610bea565b80919250600702906007820403610d495783600702600781048503610d3557838952878920889392810191015b818110610cf75750610bde565b600791929350610d1f8160046000918281558260018201558260028201558260038201550155565b8960058201558960068201550190879291610cea565b634e487b7160e01b89526011600452602489fd5b634e487b7160e01b88526011600452602488fd5b634e487b7160e01b87526041600452602487fd5b015190503880610b0d565b838a52888a209190601f1984168b5b8b828210610dd057505092600192859261010098966008989610610db7575b505050811b019055610bbc565b015160001960f88460031b161c19169055388080610daa565b6001859682939686015181550195019301610d8b565b634e487b7160e01b89526041600452602489fd5b634e487b7160e01b88526021600452602488fd5b5091600288018d528b8d20908d935b8d601f1985168610610e6357506001945083601f19811610610e4a575b505050811b016002860155610b28565b015160001960f88460031b161c19169055388080610e3a565b8282015184559485019460019093019290910190610e1d565b634e487b7160e01b8c52604160045260248cfd5b634e487b7160e01b8c5260048c905260248cfd5b634e487b7160e01b85526011600452602485fd5b60405162461bcd60e51b8152602060048201526012602482015271141bdb1a58de481a185cc8195e1c1a5c995960721b6044820152606490fd5b60405162461bcd60e51b8152602060048201526015602482015274506f6c696379206e6f74207965742061637469766560581b6044820152606490fd5b60405162461bcd60e51b81526020600482015260156024820152742737ba103a3432903837b634b1bc903437b63232b960591b6044820152606490fd5b8380fd5b5080fd5b503461028957602036600319011261028957600435906001600160401b0382116102895761101a610fdc6020610fad3660048701613918565b60405190610fcb61095882519385818186019661094881838a613824565b604051938492839251928391613824565b8101600981520301902060028101546110286110066003610fff60018601613780565b9401613780565b604051948594606086526060860190613847565b908482036020860152613847565b9060408301520390f35b50346102895780600319360112610289576004546040516001600160a01b039091168152602090f35b503461028957602036600319011261028957600435611078613f06565b801561108457600d5580f35b60405162461bcd60e51b815260206004820152600c60248201526b496e76616c6964207261746560a01b6044820152606490fd5b50346102895780600319360112610289576020600c54604051908152f35b50346102895780600319360112610289576020600a54604051908152f35b5034610289578060031936011261028957600a5460001981019081116111bf5761111d81613d87565b91805b82811061113d576040516020808252819061031a908201876139d0565b600181018082116111ab5790611154600192613fd9565b61118f60246040518093634556542360e01b602083015261117e8151809260208686019101613824565b81010301601f19810183528261375f565b6111998287613dbc565b526111a48186613dbc565b5001611120565b634e487b7160e01b83526011600452602483fd5b634e487b7160e01b82526011600452602482fd5b50346102895780600319360112610289576007546111f081613d38565b906111fa81613d38565b92805b8281106112165750505061031a60405192839283613a89565b80611222600192613a29565b838060a01b0391549060031b1c1661123a8287613dbc565b5261124481613a29565b838060a01b0391549060031b1c1683526006602052600260408420015461126b8288613dbc565b52016111fd565b5034610289578060031936011261028957546040516001600160a01b039091168152602090f35b5034610289576020366003190112610289576004358015158061132c575b6112c090613ae1565b60001981019081116111bf576112d7600891613688565b50018054906112e582613d38565b925b828110611304576040516020808252819061031a90820187613993565b8061131160019284613b65565b50828060a01b039054166113258287613dbc565b52016112e7565b50600c5481106112b7565b50346102895760203660031901126102895760043580151580611648575b61135e90613ae1565b60001981018181116111ab5761137390613688565b50906006820160ff8154166003811015611634576115f557600883018054906003821061159957859286938360011c9060018201809211610d3557885b858110611541575088958115801561151a575b5050106114c657600160ff19825416179055826003860155855b828110611429575050507f131884885e3b15c22fcaa4e2b49df807c03ab9e54bc149f6447e3c9166ce881491606091604051918252600160208301526040820152a15b60054291015580f35b8061143f61143960019385613b65565b50613e79565b6040810151611473575b828060a01b0390515116885260086020526002604089200161146b8154613e6a565b9055016113dd565b828060a01b038151511689526008602052600360408a20016114958154613e6a565b90556060810151838060a01b03825151168a5260086020526114bf600460408c2001918254613e18565b9055611449565b9050606092507f131884885e3b15c22fcaa4e2b49df807c03ab9e54bc149f6447e3c9166ce8814939150600260ff1982541617905584600385015560405190815260026020820152846040820152a1611420565b9091965061152d578590049438806113c3565b634e487b7160e01b89526012600452602489fd5b61154e6114398287613b65565b602081015115158061158c575b611569575b506001016113b0565b9160019197606061157c61158593613e6a565b94015190613e18565b9690611560565b506040810151151561155b565b60405162461bcd60e51b815260206004820152602e60248201527f4e6f7420656e6f756768206d6f64657261746f7273206861766520617373657360448201526d736564207468697320636c61696d60901b6064820152608490fd5b60405162461bcd60e51b815260206004820152601760248201527610db185a5b48185b1c9958591e48199a5b985b1a5e9959604a1b6044820152606490fd5b634e487b7160e01b85526021600452602485fd5b50600c548110611355565b503461028957806003193601126102895761166c613f06565b80546001600160a01b03198116825581906001600160a01b03167f8be0079c531659141344cd1fd0a4f28419497f9722a3daafe3b4186f6b6457e08280a380f35b503461028957602036600319011261028957600435906005820291808304600514901517156116e157602082604051908152f35b634e487b7160e01b81526011600452602490fd5b50346102895760403660031901126102895761170f6138e2565b60243561171a613f06565b6001600160a01b03821691611730831515613dd0565b811561183a57828452600860205260016040852001546117fa577f7100a86ecf94bef5c32984e74b6847c32372ee773dd408da230116e910b2f2749260046040519161177b83613744565b808352602080840186815260408086018a8152606087018b8152608088018c8152958c5260088552828c20975188546001600160a01b0319166001600160a01b03918216178955935160018901559051600288015551600387015592519390940192909255805193909216835282019290925290819081015b0390a180f35b60405162461bcd60e51b81526020600482015260186024820152774d6f64657261746f7220616c72656164792065786973747360401b6044820152606490fd5b60405162461bcd60e51b815260206004820152602d60248201527f4d617820617070726f76616c20616d6f756e74206d757374206265206772656160448201526c746572207468616e207a65726f60981b6064820152608490fd5b50346102895780600319360112610289576020600d54604051908152f35b5034610289576080366003190112610289576004356001600160401b038111610f70576118e4903690600401613918565b6024356001600160401b038111611b7957611903903690600401613a5c565b906044356001600160401b038111611b7557611923903690600401613a5c565b909161192d613f06565b611960602060405161194f6109588951928481818d0195610948818389613824565b604051809381928a51928391613824565b810160098152030190209360018501916001600160401b038211611b615761198c82610b7d85546136bd565b8790601f8311600114611afd576119ba9291899183611a535750508160011b916000199060031b1c19161790565b90555b60038301916001600160401b038211611ae9576119de82610b7d85546136bd565b8590601f8311600114611a5e57826117f495937fa35de865ec4f1cbf701c0b24f4131c3881f019afaab526e3fd3a2986651c48ec979593611a34938a92611a535750508160011b916000199060031b1c19161790565b90555b6002606435910155604051918291602083526020830190613847565b013590503880610b0d565b8387526020872091601f198416885b818110611ad157509260019285926117f498967fa35de865ec4f1cbf701c0b24f4131c3881f019afaab526e3fd3a2986651c48ec9a989610611ab7575b505050811b019055611a37565b0135600019600384901b60f8161c19169055388080611aaa565b91936020600181928787013581550195019201611a6d565b634e487b7160e01b86526041600452602486fd5b8389526020892091601f1984168a5b818110611b495750908460019594939210611b2f575b505050811b0190556119bd565b0135600019600384901b60f8161c19169055388080611b22565b91936020600181928787013581550195019201611b0c565b634e487b7160e01b88526041600452602488fd5b8480fd5b8280fd5b503461028957606036600319011261028957600435906001600160401b0382116102895760206104a1611bb33660048601613918565b6044359060243590613eba565b50346102895780600319360112610289576020600254604051908152f35b5034610289578060031936011261028957600b5490611bfc82613d21565b611c09604051918261375f565b828152600b82526020810192827f0175b7a638427703f0dbe7bb9bbf987a2551717b34e79f33b5b1008d1fa01db9855b838310611d96578585886040519160208301906020845251809152604083019360408260051b8501019294815b838310611c735785850386f35b90919293603f1986820301835286518051825260208101516020830152610100611cf3611cb160408401516101206040870152610120860190613847565b606084015160608601526080840151608086015260a084015160a0860152611ce160c085015160c087019061386c565b60e084015185820360e0870152613847565b910151916101008183039101526020808351928381520192019083905b808210611d2e57505050602096870196909493600101920190611c66565b90919260206101006001926060875160808151878060a01b03815116855286810151878601526040810151604086015283810151848601520151608084015284810151151560a08401526040810151151560c0840152015160e0820152019401920190611d10565b604051611da2816136f7565b8254815260018301546020820152611dbc60028401613780565b60408201526003830154606082015260048301546080820152600583015460a082015260ff6006840154166003811015610dfa5760c0820152611e0160078401613780565b60e0820152600883018054611e1581613d21565b91611e23604051938461375f565b81835289526020808a20908a9084015b838210611e5b5750505050600192826020926101006009950152815201920192019190611c39565b60076020600192611e6b86613e79565b815201930191019091611e33565b5034610289576060366003190112610289576004356001600160401b038111610f7057611eaa903690600401613918565b906024356001600160401b038111610f7057611eca903690600401613918565b90611ed3613f06565b600a54611edf81613fd9565b611f2460405192611f1f6024856020810195634556542360e01b8752611f0e8151809260208686019101613824565b81010301601f19810186528561375f565b613e6a565b600a5560405190611f3482613729565b82825260208201958652611f6560206040840192604435845260608501978852604051809381928851928391613824565b8101600981520301902091518051906001600160401b038211611ae957611f9682611f9086546136bd565b86613e25565b602090601f83116001146121c257611fc59291879183610d715750508160011b916000199060031b1c19161790565b82555b6001820195519586516001600160401b038111611ae957611ff381611fed84546136bd565b84613e25565b6020601f821160011461215c5790806120279288999a6003989992610d715750508160011b916000199060031b1c19161790565b90555b5160028201550192519283516001600160401b0381116121485761205281611fed84546136bd565b6020601f82116001146120bf57816117f49493926120a89287987f0edea3c9f900aa84820ccf471d6139121481d600b8dd8963e85aa7a7fb8035349892610d715750508160011b916000199060031b1c19161790565b90555b604051918291602083526020830190613847565b82855280852095601f198316865b81811061213057509660019284926117f49796957f0edea3c9f900aa84820ccf471d6139121481d600b8dd8963e85aa7a7fb803534999a10612117575b505050811b0190556120ab565b015160001960f88460031b161c1916905538808061210a565b838301518955600190980197602093840193016120cd565b634e487b7160e01b84526041600452602484fd5b82875280872098601f198316885b8181106121aa57509160039798999a91846001959410612192575b505050811b01905561202a565b015160001983891b60f8161c19169055388080612185565b838301518c556001909b019a6020938401930161216a565b8487528187209190601f198416885b81811061220d57509084600195949392106121f4575b505050811b018255611fc8565b015160001960f88460031b161c191690553880806121e7565b929360206001819287860151815501950193016121d1565b5034610289576020366003190112610289576004359060075482101561028957602061225083613a29565b905460405160039290921b1c6001600160a01b03168152f35b503461028957602036600319011261028957600435906001600160401b038211610289576123016122b560206122a23660048701613918565b8160405193828580945193849201613824565b8101600981520301902061031a6122cb82613780565b916122d860018201613780565b61230f6122ec600360028501549401613780565b91604051968796608088526080880190613847565b908682036020880152613847565b9160408501528382036060850152613847565b506080366003190112610289576024356004356044356001600160401b038111610f6c57612354903690600401613918565b91606435914281116126e3576201518082028281046201518014831517156126cf576123809082613e18565b918282101561267f57612394908486613eba565b801561263a578034036125fe5760405160208101903060601b82523360601b6034820152426048820152604881526123cd60688261375f565b519020946005820290828204600503610d4957859061249888878b604051966123f5886136f7565b83885260208801903382526040890190815260608901918a8352604060808b01948d865260a08c0196875260c08c019781895260e08d019a8b526101008d019b8c52815260056020522099518a5560018060a01b0390511660018a019060018060a01b031660018060a01b0319825416179055516002890155516003880155516004870155516005860155511515600685019060ff801983541691151516179055565b51805160078401916001600160401b0382116125ea576124bc82610b7d85546136bd565b6020908b601f84116001146125825760089594936124f093909283610d715750508160011b916000199060031b1c19161790565b90555b51910155338652600660205260408620805496600160401b881015610c8a5750612529610c4a888893600160209b018155613a44565b905561253781600354613e18565b60035560405193858552868501526040840152606083015260808201527f4bdf67d7576c88a1f1180f8844338e7be49ba2c0bc3cf1e411753f442663331560a03392a2604051908152f35b50838c52818c209190601f1984168d5b8181106125d25750916001939185600898979694106125b9575b505050811b0190556124f3565b015160001960f88460031b161c191690553880806125ac565b92936020600181928786015181550195019301612592565b634e487b7160e01b8b52604160045260248bfd5b60405162461bcd60e51b8152602060048201526014602482015273125b98dbdc9c9958dd0811551208185b5bdd5b9d60621b6044820152606490fd5b60405162461bcd60e51b815260206004820152601e60248201527f5072656d69756d206d7573742062652067726561746572207468616e203000006044820152606490fd5b60405162461bcd60e51b815260206004820152602260248201527f53746172742074696d65206d757374206265206265666f726520656e642074696044820152616d6560f01b6064820152608490fd5b634e487b7160e01b86526011600452602486fd5b60405162461bcd60e51b815260206004820152602260248201527f53746172742074696d65206d757374206265203c3d2063757272656e742074696044820152616d6560f01b6064820152608490fd5b50346102895780600319360112610289573381526006602052604081205461275a81613d38565b9061276481613d38565b9261276e82613d38565b61277783613d38565b9161278184613d38565b61278a85613d38565b61279386613d21565b916127a1604051938461375f565b8683526127ad87613d21565b602084019690601f19013688376127c388613d87565b956127cd89613d38565b98865b8181106128a55750506040519a8b9a6101208c526101208c016127f29161395f565b8b810360208d015261280391613993565b8a810360408c01526128149161395f565b89810360608b01526128259161395f565b88810360808a01526128369161395f565b87810360a08901526128479161395f565b9086820360c0880152519081815260200193915b81811061288a575050508161287b918561031a95940360e08701526139d0565b9083820361010085015261395f565b8251151585528796506020948501949092019160010161285b565b808b612a008e9f95969798999b9c9d9e936101006001958f8f8f918f918f928f938f948f958a9660406129f79933815260066020526128e68a838320613a44565b90549060031b1c81526005602052209960086040519b6129058d6136f7565b80548d5260018101546001600160a01b031660208e0152600281015460408e0152600381015460608e0152600481015460808e0152600581015460a08e0152600681015460ff16151560c08e01528c60e061296260078401613780565b91015201548c8c0152612977898c5192613dbc565b528f888161298f9260a01b0360208d01511692613dbc565b5261299f8760408b015192613dbc565b526129af8660608a015192613dbc565b526129bf85608089015192613dbc565b526129cf8460a088015192613dbc565b526129e18360c0870151151592613dbc565b5260e08401516129f18383613dbc565b52613dbc565b50015192613dbc565b52019b9a99989795949392919b6127d0565b5034610289578060031936011261028957338152600660205260016040822001548015612c7457612a4281613d38565b91612a4c82613d38565b612a5583613d21565b91612a63604051938461375f565b838352612a6f84613d21565b92612a826020820194601f190185613d6a565b612a8b85613d87565b92612a9586613d87565b95835b818110612b4f57612ac0898989898989612ace8a60405198899860a08a5260a08a019061395f565b9088820360208a015261395f565b90868203604088015251908181526020810160208360051b8301019593915b838310612b1a57888061031a8a612b0c8b8b85820360608701526139d0565b9083820360808501526139d0565b9193969750919394602080612b3b600193601f198682030187528a51613993565b980193019301909288979695949293612aed565b3385526006602052612b678160016040882001613a44565b90549060031b1c80151580612c69575b612b8090613ae1565b60001981019081116126cf57612b97600891613688565b508054612ba4848d613dbc565b526001810154612bb48487613dbc565b52612bc160078201613780565b612bcb848c613dbc565b52612bd6838b613dbc565b50612be760ff600683015416613f2f565b612bf1848a613dbc565b52612bfc8389613dbc565b50018054612c0981613d38565b91875b828110612c365750505090600191612c248287613dbc565b52612c2f8186613dbc565b5001612a98565b80612c4360019284613b65565b50828060a01b03905416612c58811515613dd0565b612c628287613dbc565b5201612c0c565b50600c548110612b77565b60405162461bcd60e51b81526020600482015260126024820152715573657220686173206e6f20636c61696d7360701b6044820152606490fd5b5034610289578060031936011261028957604051908060015490612cd1826136bd565b8085529160018116908115612d565750600114612cf9575b61031a846120ab8186038261375f565b600181527fb10e2d527612073b26eecdfd717e6a320cf44b4afac2b0732d9fcbe2b7fa0cf6939250905b808210612d3c575090915081016020016120ab82612ce9565b919260018160209254838588010152019101909291612d23565b60ff191660208087019190915292151560051b850190920192506120ab9150839050612ce9565b5034610289576020366003190112610289576004356001600160401b038111610f70576117f4612dd27ffec510cf8dc709165f06d672244480e0718dc5ef561cfaa29c05b11869fcc044923690600401613918565b612dda613f06565b6120ab6003612e126020604051612e016109588751928481818b0195610948818389613824565b604051809381928851928391613824565b81016009815203019020612e2581613cd2565b612e3160018201613cd2565b86600282015501613cd2565b50346102895760203660031901126102895760a0906040906001600160a01b03612e656138e2565b168152600860205220600180831b0381541690600181015490600281015460046003830154920154926040519485526020850152604084015260608301526080820152f35b503461028957606036600319011261028957600435602435801515808203610f6c5760443591831515806131a0575b612ee290613ae1565b60001984018481116126cf57612ef790613688565b509060ff600683015416600381101561318c5761314d57338652600860205260016040872001541561310857156131005782156130a957338552600860205260016040862001548311613064575b6008018054855b818110613009575033865260086020526040862091612f7660405193612f7185613729565b613b81565b835260016020840152836040840152846060840152600160401b821015610d5d5790612fa791600182018155613b65565b612ff55791612fdb608094927fea011128836db08a6e5385e82ae9ef7ec1f6756b3bf6d266c0809eec75ccdf889694613bc6565b60405192338452602084015260408301526060820152a180f35b634e487b7160e01b86526004869052602486fd5b6130138184613b65565b50546001600160a01b0316331461302c57600101612f4c565b60405162461bcd60e51b815260206004820152601060248201526f105b1c9958591e48185cdcd95cdcd95960821b6044820152606490fd5b60405162461bcd60e51b815260206004820152601c60248201527f416d6f756e742065786365656473206d6f64657261746f7220636170000000006044820152606490fd5b60405162461bcd60e51b815260206004820152602960248201527f417070726f76616c20616d6f756e74206d7573742062652067726561746572206044820152687468616e207a65726f60b81b6064820152608490fd5b849250612f45565b60405162461bcd60e51b815260206004820152601a60248201527f4e6f7420612072656769737465726564206d6f64657261746f720000000000006044820152606490fd5b60405162461bcd60e51b815260206004820152601760248201527610db185a5b48185b1c9958591e481c1c9bd8d95cdcd959604a1b6044820152606490fd5b634e487b7160e01b87526021600452602487fd5b50600c548410612ed9565b50346102895760203660031901126102895760409060043581526005602052206040516131d7816136f7565b8154815260018060a01b036001830154169060208101918252600283015492604082019384526003810154906060830191825260048101549060808401918252600581015460a0850190815260ff6006830154169060c086019115158252600861324360078501613780565b60e08801908152930154610100870190815287519094906001600160a01b031633036132965761031a96519760018060a01b039051169851955190519151925115159351945195604051998a998a61388f565b60405162461bcd60e51b815260206004820152601b60248201527f43616c6c6572206973206e6f7420706f6c69637920686f6c64657200000000006044820152606490fd5b5034610289576020366003190112610289576004356132f8613f06565b80151580613509575b61330a90613ae1565b60001981019081116111bf5761331f90613688565b50600681019060ff82541660038110156134f5576001036134bb57600181015483526005602052604083209160068301600381549361336160ff861615613b20565b015492831561347b5783600354106134365760ff19166001179055600354828103908111610ea4576003556001830191848080808460018060a01b038854165af16133aa613ab1565b50156133fb577fe64ba0c150ba8da1befe0c879808734569d6e16bf75e2b77c4e1db04e359cba592604092600160ff1982541617905560018060a01b0390541693549082519182526020820152a280f35b60405162461bcd60e51b8152602060048201526013602482015272115512081d1c985b9cd9995c8819985a5b1959606a1b6044820152606490fd5b60405162461bcd60e51b815260206004820152601e60248201527f496e73756666696369656e742066756e647320696e2074686520706f6f6c00006044820152606490fd5b60405162461bcd60e51b8152602060048201526018602482015277139bc8185c1c1c9bdd99590818db185a5b48185b5bdd5b9d60421b6044820152606490fd5b60405162461bcd60e51b815260206004820152601260248201527110db185a5b481b9bdd081858d8d95c1d195960721b6044820152606490fd5b634e487b7160e01b84526021600452602484fd5b50600c548110613301565b503461028957602036600319011261028957600435600b54811015610f705761353c90613688565b50805461031a60018301549261355460028201613780565b6135ba60038301549260048101546005820154906135a061357f600760ff6006870154169501613780565b956040519a8b9a8b5260208b015261010060408b01526101008a0190613847565b956060890152608088015260a087015260c086019061386c565b83820360e0850152613847565b506040366003190112610289576004356001600160a01b03811690819003610f7057602435906135f5613f06565b81471061364c578280809381935af161360c613ab1565b50156136155780f35b60405162461bcd60e51b815260206004820152600f60248201526e151c985b9cd9995c8819985a5b1959608a1b6044820152606490fd5b60405162461bcd60e51b8152602060048201526014602482015273496e73756666696369656e742062616c616e636560601b6044820152606490fd5b600b548110156136a757600b6000526009602060002091020190600090565b634e487b7160e01b600052603260045260246000fd5b90600182811c921680156136ed575b60208310146136d757565b634e487b7160e01b600052602260045260246000fd5b91607f16916136cc565b61012081019081106001600160401b0382111761371357604052565b634e487b7160e01b600052604160045260246000fd5b608081019081106001600160401b0382111761371357604052565b60a081019081106001600160401b0382111761371357604052565b90601f801991011681019081106001600160401b0382111761371357604052565b9060405191826000825492613794846136bd565b808452936001811690811561380257506001146137bb575b506137b99250038361375f565b565b90506000929192526020600020906000915b8183106137e65750509060206137b992820101386137ac565b60209193508060019154838589010152019101909184926137cd565b9050602092506137b994915060ff191682840152151560051b820101386137ac565b60005b8381106138375750506000910152565b8181015183820152602001613827565b9060209161386081518092818552858086019101613824565b601f01601f1916010190565b9060038210156138795752565b634e487b7160e01b600052602160045260246000fd5b9998979491926138dd96936101009895928c5260018060a01b031660208c015260408b015260608a0152608089015260a0880152151560c087015261012060e0870152610120860190613847565b930152565b600435906001600160a01b03821682036138f857565b600080fd5b6001600160401b03811161371357601f01601f191660200190565b81601f820112156138f85780359061392f826138fd565b9261393d604051948561375f565b828452602083830101116138f857816000926020809301838601378301015290565b906020808351928381520192019060005b81811061397d5750505090565b8251845260209384019390920191600101613970565b906020808351928381520192019060005b8181106139b15750505090565b82516001600160a01b03168452602093840193909201916001016139a4565b9080602083519182815201916020808360051b8301019401926000915b8383106139fc57505050505090565b9091929394602080613a1a600193601f198682030187528951613847565b970193019301919392906139ed565b6007548110156136a757600760005260206000200190600090565b80548210156136a75760005260206000200190600090565b9181601f840112156138f8578235916001600160401b0383116138f857602083818601950101116138f857565b9091613aa0613aae93604084526040840190613993565b91602081840391015261395f565b90565b3d15613adc573d90613ac2826138fd565b91613ad0604051938461375f565b82523d6000602084013e565b606090565b15613ae857565b60405162461bcd60e51b815260206004820152601060248201526f125b9d985b1a590818db185a5b48125160821b6044820152606490fd5b15613b2757565b60405162461bcd60e51b8152602060048201526016602482015275141bdb1a58de48185b1c9958591e4818db185a5b595960521b6044820152606490fd5b80548210156136a7576000526007602060002091020190600090565b90604051613b8e81613744565b82546001600160a01b031681526001830154602082015260028301546040820152600383015460608201526004909201546080830152565b8151805182546001600160a01b039091166001600160a01b03199091161782556020808201516001840155604082015160028401556060808301516003850155608090920151600484015583015160058301805460ff191691151560ff1691909117815591926006926040820151815461ff00191690151560081b61ff00161790550151910155565b15613c5657565b60405162461bcd60e51b8152602060048201526014602482015273115d995b9d08191bd95cc81b9bdd08195e1a5cdd60621b6044820152606490fd5b818110613c9d575050565b60008155600101613c92565b81810292918115918404141715613cbc57565b634e487b7160e01b600052601160045260246000fd5b613cdc81546136bd565b9081613ce6575050565b81601f60009311600114613cf8575055565b81835260208320613d1491601f0160051c810190600101613c92565b8082528160208120915555565b6001600160401b0381116137135760051b60200190565b90613d4282613d21565b613d4f604051918261375f565b8281528092613d60601f1991613d21565b0190602036910137565b60005b828110613d7957505050565b606082820152602001613d6d565b906137b9613d9483613d21565b613da1604051918261375f565b83815260208194613db4601f1991613d21565b019101613d6a565b80518210156136a75760209160051b010190565b15613dd757565b60405162461bcd60e51b8152602060048201526019602482015278496e76616c6964206d6f64657261746f72206164647265737360381b6044820152606490fd5b91908201809211613cbc57565b9190601f8111613e3457505050565b6137b9926000526020600020906020601f840160051c83019310613e60575b601f0160051c0190613c92565b9091508190613e53565b6000198114613cbc5760010190565b90604051613e8681613729565b606060068294613e9581613b81565b845260ff60058201548181161515602087015260081c16151560408501520154910152565b606490929192604051613edd6020828161117e8183019687815193849201613824565b5190200660018101809111613cbc57613efd613f0292623d090094613ca9565b613ca9565b0490565b6000546001600160a01b03163303613f1a57565b63118cdaa760e01b6000523360045260246000fd5b6003811015613879578015613fb35760009060018114613f8b576002915014613f6757604051613f6060208261375f565b6000815290565b604051613f7560408261375f565b600681526511195b9a595960d21b602082015290565b5050604051613f9b60408261375f565b60088152671058d8d95c1d195960c21b602082015290565b50604051613fc260408261375f565b600781526650656e64696e6760c81b602082015290565b6000908072184f03e93ff9f4daa797ed6e38ed64bf6a1f0160401b811015614125575b806d04ee2d6d415b85acef8100000000600a92101561410a575b662386f26fc100008110156140f6575b6305f5e1008110156140e5575b6127108110156140d6575b60648110156140c8575b10156140bd575b600a60216001840193614061856138fd565b9461406f604051968761375f565b80865261407e601f19916138fd565b013660208701378401015b60001901916f181899199a1a9b1b9c1cb0b131b232b360811b8282061a83530480156140b857600a9091614089565b505090565b60019091019061404f565b606460029104930192614048565b6127106004910493019261403e565b6305f5e10060089104930192614033565b662386f26fc1000060109104930192614026565b6d04ee2d6d415b85acef810000000060209104930192614016565b506040915072184f03e93ff9f4daa797ed6e38ed64bf6a1f0160401b8104613ffc56fea26469706673582212206c2ed45ae7ecaea0abeb7273ceac6bfde1376095fd64fc4ffb6882a628f37ce464736f6c634300081c0033",
  "linkReferences": {},
  "deployedLinkReferences": {}
}