{
  "_format": "hh-sol-artifact-1",
  "contractName": "GraviInsurance",
  "sourceName": "contracts/GraviInsurance.sol",
  "abi": [
    {
      "inputs": [
        {
          "internalType": "string",
          "name": "_disasterType",
          "type": "string"
        },
        {
          "internalType": "uint256",
          "name": "_premiumRate",
          "type": "uint256"
        },
        {
          "internalType": "address",
          "name": "_graviCha",
          "type": "address"
        }
      ],
      "stateMutability": "nonpayable",
      "type": "constructor"
    },
    {
      "inputs": [
        {
          "internalType": "address",
          "name": "owner",
          "type": "address"
        }
      ],
      "name": "OwnableInvalidOwner",
      "type": "error"
    },
    {
      "inputs": [
        {
          "internalType": "address",
          "name": "account",
          "type": "address"
        }
      ],
      "name": "OwnableUnauthorizedAccount",
      "type": "error"
    },
    {
      "anonymous": false,
      "inputs": [
        {
          "indexed": true,
          "internalType": "address",
          "name": "user",
          "type": "address"
        },
        {
          "indexed": false,
          "internalType": "bytes32",
          "name": "policyId",
          "type": "bytes32"
        },
        {
          "indexed": false,
          "internalType": "uint256",
          "name": "payout",
          "type": "uint256"
        }
      ],
      "name": "ClaimApproved",
      "type": "event"
    },
    {
      "anonymous": false,
      "inputs": [
        {
          "indexed": false,
          "internalType": "address",
          "name": "moderator",
          "type": "address"
        },
        {
          "indexed": false,
          "internalType": "uint256",
          "name": "claimId",
          "type": "uint256"
        },
        {
          "indexed": false,
          "internalType": "bool",
          "name": "isApproved",
          "type": "bool"
        },
        {
          "indexed": false,
          "internalType": "uint256",
          "name": "amount",
          "type": "uint256"
        }
      ],
      "name": "ClaimAssessed",
      "type": "event"
    },
    {
      "anonymous": false,
      "inputs": [
        {
          "indexed": false,
          "internalType": "uint256",
          "name": "claimId",
          "type": "uint256"
        },
        {
          "indexed": false,
          "internalType": "enum GraviInsurance.ClaimStatus",
          "name": "claimStatus",
          "type": "uint8"
        },
        {
          "indexed": false,
          "internalType": "uint256",
          "name": "approvedClaimAmount",
          "type": "uint256"
        }
      ],
      "name": "ClaimProcessed",
      "type": "event"
    },
    {
      "anonymous": false,
      "inputs": [
        {
          "indexed": false,
          "internalType": "uint256",
          "name": "claimId",
          "type": "uint256"
        },
        {
          "indexed": false,
          "internalType": "string",
          "name": "incidentDescription",
          "type": "string"
        }
      ],
      "name": "ClaimStarted",
      "type": "event"
    },
    {
      "anonymous": false,
      "inputs": [
        {
          "indexed": false,
          "internalType": "string",
          "name": "eventId",
          "type": "string"
        }
      ],
      "name": "DisasterEventAdded",
      "type": "event"
    },
    {
      "anonymous": false,
      "inputs": [
        {
          "indexed": false,
          "internalType": "string",
          "name": "eventId",
          "type": "string"
        }
      ],
      "name": "DisasterEventModified",
      "type": "event"
    },
    {
      "anonymous": false,
      "inputs": [
        {
          "indexed": false,
          "internalType": "string",
          "name": "eventId",
          "type": "string"
        }
      ],
      "name": "DisasterEventRemoved",
      "type": "event"
    },
    {
      "anonymous": false,
      "inputs": [
        {
          "indexed": true,
          "internalType": "address",
          "name": "donor",
          "type": "address"
        },
        {
          "indexed": false,
          "internalType": "uint256",
          "name": "amount",
          "type": "uint256"
        }
      ],
      "name": "FundsDonated",
      "type": "event"
    },
    {
      "anonymous": false,
      "inputs": [
        {
          "indexed": false,
          "internalType": "address",
          "name": "moderator",
          "type": "address"
        },
        {
          "indexed": false,
          "internalType": "uint256",
          "name": "maxAmount",
          "type": "uint256"
        }
      ],
      "name": "ModeratorAdded",
      "type": "event"
    },
    {
      "anonymous": false,
      "inputs": [
        {
          "indexed": false,
          "internalType": "address",
          "name": "moderator",
          "type": "address"
        }
      ],
      "name": "ModeratorRemoved",
      "type": "event"
    },
    {
      "anonymous": false,
      "inputs": [
        {
          "indexed": true,
          "internalType": "address",
          "name": "previousOwner",
          "type": "address"
        },
        {
          "indexed": true,
          "internalType": "address",
          "name": "newOwner",
          "type": "address"
        }
      ],
      "name": "OwnershipTransferred",
      "type": "event"
    },
    {
      "anonymous": false,
      "inputs": [
        {
          "indexed": true,
          "internalType": "address",
          "name": "user",
          "type": "address"
        },
        {
          "indexed": false,
          "internalType": "bytes32",
          "name": "policyId",
          "type": "bytes32"
        },
        {
          "indexed": false,
          "internalType": "uint256",
          "name": "coverageAmount",
          "type": "uint256"
        },
        {
          "indexed": false,
          "internalType": "uint256",
          "name": "premium",
          "type": "uint256"
        },
        {
          "indexed": false,
          "internalType": "uint256",
          "name": "startTime",
          "type": "uint256"
        },
        {
          "indexed": false,
          "internalType": "uint256",
          "name": "endTime",
          "type": "uint256"
        }
      ],
      "name": "PolicyPurchased",
      "type": "event"
    },
    {
      "inputs": [
        {
          "internalType": "string",
          "name": "eventName",
          "type": "string"
        },
        {
          "internalType": "string",
          "name": "eventDescription",
          "type": "string"
        },
        {
          "internalType": "uint256",
          "name": "disasterDate",
          "type": "uint256"
        }
      ],
      "name": "addDisasterEvent",
      "outputs": [],
      "stateMutability": "nonpayable",
      "type": "function"
    },
    {
      "inputs": [
        {
          "internalType": "address",
          "name": "_moderatorAddress",
          "type": "address"
        },
        {
          "internalType": "uint256",
          "name": "maxAmount",
          "type": "uint256"
        }
      ],
      "name": "addModeratorToPool",
      "outputs": [],
      "stateMutability": "nonpayable",
      "type": "function"
    },
    {
      "inputs": [
        {
          "internalType": "uint256",
          "name": "claimId",
          "type": "uint256"
        },
        {
          "internalType": "bool",
          "name": "isApproved",
          "type": "bool"
        },
        {
          "internalType": "uint256",
          "name": "amount",
          "type": "uint256"
        }
      ],
      "name": "assessClaim",
      "outputs": [],
      "stateMutability": "nonpayable",
      "type": "function"
    },
    {
      "inputs": [
        {
          "internalType": "uint256",
          "name": "startTime",
          "type": "uint256"
        },
        {
          "internalType": "uint256",
          "name": "coveragePeriod",
          "type": "uint256"
        },
        {
          "internalType": "string",
          "name": "propertyAddress",
          "type": "string"
        },
        {
          "internalType": "uint256",
          "name": "propertyValue",
          "type": "uint256"
        }
      ],
      "name": "buyInsurance",
      "outputs": [
        {
          "internalType": "bytes32",
          "name": "",
          "type": "bytes32"
        }
      ],
      "stateMutability": "payable",
      "type": "function"
    },
    {
      "inputs": [
        {
          "internalType": "uint256",
          "name": "premium",
          "type": "uint256"
        }
      ],
      "name": "calculateCoverageAmountFromPremium",
      "outputs": [
        {
          "internalType": "uint256",
          "name": "coverageAmount",
          "type": "uint256"
        }
      ],
      "stateMutability": "pure",
      "type": "function"
    },
    {
      "inputs": [
        {
          "internalType": "string",
          "name": "propertyAddress",
          "type": "string"
        },
        {
          "internalType": "uint256",
          "name": "propertyValue",
          "type": "uint256"
        },
        {
          "internalType": "uint256",
          "name": "coveragePeriod",
          "type": "uint256"
        }
      ],
      "name": "calculatePremium",
      "outputs": [
        {
          "internalType": "uint256",
          "name": "premium",
          "type": "uint256"
        }
      ],
      "stateMutability": "pure",
      "type": "function"
    },
    {
      "inputs": [
        {
          "internalType": "uint256",
          "name": "",
          "type": "uint256"
        }
      ],
      "name": "claimRecords",
      "outputs": [
        {
          "internalType": "uint256",
          "name": "claimId",
          "type": "uint256"
        },
        {
          "internalType": "bytes32",
          "name": "policyId",
          "type": "bytes32"
        },
        {
          "internalType": "string",
          "name": "eventId",
          "type": "string"
        },
        {
          "internalType": "uint256",
          "name": "approvedClaimAmount",
          "type": "uint256"
        },
        {
          "internalType": "uint256",
          "name": "assessmentStart",
          "type": "uint256"
        },
        {
          "internalType": "uint256",
          "name": "assessmentEnd",
          "type": "uint256"
        },
        {
          "internalType": "enum GraviInsurance.ClaimStatus",
          "name": "status",
          "type": "uint8"
        },
        {
          "internalType": "string",
          "name": "incidentDescription",
          "type": "string"
        }
      ],
      "stateMutability": "view",
      "type": "function"
    },
    {
      "inputs": [
        {
          "internalType": "string",
          "name": "",
          "type": "string"
        }
      ],
      "name": "disasterEvents",
      "outputs": [
        {
          "internalType": "string",
          "name": "eventId",
          "type": "string"
        },
        {
          "internalType": "string",
          "name": "name",
          "type": "string"
        },
        {
          "internalType": "uint256",
          "name": "disasterDate",
          "type": "uint256"
        },
        {
          "internalType": "string",
          "name": "eventDescription",
          "type": "string"
        }
      ],
      "stateMutability": "view",
      "type": "function"
    },
    {
      "inputs": [],
      "name": "disasterType",
      "outputs": [
        {
          "internalType": "string",
          "name": "",
          "type": "string"
        }
      ],
      "stateMutability": "view",
      "type": "function"
    },
    {
      "inputs": [],
      "name": "donate",
      "outputs": [
        {
          "internalType": "uint256",
          "name": "tokensReceived",
          "type": "uint256"
        }
      ],
      "stateMutability": "payable",
      "type": "function"
    },
    {
      "inputs": [],
      "name": "donationRewardRate",
      "outputs": [
        {
          "internalType": "uint256",
          "name": "",
          "type": "uint256"
        }
      ],
      "stateMutability": "view",
      "type": "function"
    },
    {
      "inputs": [
        {
          "internalType": "uint256",
          "name": "",
          "type": "uint256"
        }
      ],
      "name": "donors",
      "outputs": [
        {
          "internalType": "address",
          "name": "",
          "type": "address"
        }
      ],
      "stateMutability": "view",
      "type": "function"
    },
    {
      "inputs": [
        {
          "internalType": "address",
          "name": "user",
          "type": "address"
        }
      ],
      "name": "fetchClaimIds",
      "outputs": [
        {
          "internalType": "uint256[]",
          "name": "",
          "type": "uint256[]"
        }
      ],
      "stateMutability": "view",
      "type": "function"
    },
    {
      "inputs": [
        {
          "internalType": "address",
          "name": "user",
          "type": "address"
        }
      ],
      "name": "fetchInsuranceIds",
      "outputs": [
        {
          "internalType": "bytes32[]",
          "name": "",
          "type": "bytes32[]"
        }
      ],
      "stateMutability": "view",
      "type": "function"
    },
    {
      "inputs": [],
      "name": "getAllClaims",
      "outputs": [
        {
          "components": [
            {
              "internalType": "uint256",
              "name": "claimId",
              "type": "uint256"
            },
            {
              "internalType": "bytes32",
              "name": "policyId",
              "type": "bytes32"
            },
            {
              "internalType": "string",
              "name": "eventId",
              "type": "string"
            },
            {
              "internalType": "uint256",
              "name": "approvedClaimAmount",
              "type": "uint256"
            },
            {
              "internalType": "uint256",
              "name": "assessmentStart",
              "type": "uint256"
            },
            {
              "internalType": "uint256",
              "name": "assessmentEnd",
              "type": "uint256"
            },
            {
              "internalType": "enum GraviInsurance.ClaimStatus",
              "name": "status",
              "type": "uint8"
            },
            {
              "internalType": "string",
              "name": "incidentDescription",
              "type": "string"
            },
            {
              "components": [
                {
                  "components": [
                    {
                      "internalType": "address",
                      "name": "moderatorAddress",
                      "type": "address"
                    },
                    {
                      "internalType": "uint256",
                      "name": "maxApprovalAmount",
                      "type": "uint256"
                    },
                    {
                      "internalType": "uint256",
                      "name": "totalClaimsAssessed",
                      "type": "uint256"
                    },
                    {
                      "internalType": "uint256",
                      "name": "totalClaimsApproved",
                      "type": "uint256"
                    },
                    {
                      "internalType": "uint256",
                      "name": "totalApprovedAmount",
                      "type": "uint256"
                    }
                  ],
                  "internalType": "struct GraviInsurance.Moderator",
                  "name": "moderator",
                  "type": "tuple"
                },
                {
                  "internalType": "bool",
                  "name": "hasDecided",
                  "type": "bool"
                },
                {
                  "internalType": "bool",
                  "name": "isApproved",
                  "type": "bool"
                },
                {
                  "internalType": "uint256",
                  "name": "approvedAmount",
                  "type": "uint256"
                }
              ],
              "internalType": "struct GraviInsurance.ModeratorInfo[]",
              "name": "moderatorTeam",
              "type": "tuple[]"
            }
          ],
          "internalType": "struct GraviInsurance.ClaimRecord[]",
          "name": "",
          "type": "tuple[]"
        }
      ],
      "stateMutability": "view",
      "type": "function"
    },
    {
      "inputs": [],
      "name": "getAllDisasterEvents",
      "outputs": [
        {
          "internalType": "string[]",
          "name": "eventIds",
          "type": "string[]"
        }
      ],
      "stateMutability": "view",
      "type": "function"
    },
    {
      "inputs": [],
      "name": "getAllDonors",
      "outputs": [
        {
          "internalType": "address[]",
          "name": "",
          "type": "address[]"
        },
        {
          "internalType": "uint256[]",
          "name": "",
          "type": "uint256[]"
        }
      ],
      "stateMutability": "view",
      "type": "function"
    },
    {
      "inputs": [
        {
          "internalType": "uint256",
          "name": "claimId",
          "type": "uint256"
        }
      ],
      "name": "getClaimDetails",
      "outputs": [
        {
          "internalType": "uint256",
          "name": "_claimId",
          "type": "uint256"
        },
        {
          "internalType": "bytes32",
          "name": "_policyId",
          "type": "bytes32"
        },
        {
          "internalType": "string",
          "name": "_eventId",
          "type": "string"
        },
        {
          "internalType": "uint256",
          "name": "_approvedClaimAmount",
          "type": "uint256"
        },
        {
          "internalType": "uint256",
          "name": "_assessmentStart",
          "type": "uint256"
        },
        {
          "internalType": "uint256",
          "name": "_assessmentEnd",
          "type": "uint256"
        },
        {
          "internalType": "string",
          "name": "_status",
          "type": "string"
        },
        {
          "internalType": "string",
          "name": "_incidentDescription",
          "type": "string"
        },
        {
          "internalType": "address[]",
          "name": "moderatorAddresses",
          "type": "address[]"
        },
        {
          "internalType": "bool[]",
          "name": "hasDecidedList",
          "type": "bool[]"
        },
        {
          "internalType": "bool[]",
          "name": "isApprovedList",
          "type": "bool[]"
        },
        {
          "internalType": "uint256[]",
          "name": "approvedAmounts",
          "type": "uint256[]"
        }
      ],
      "stateMutability": "view",
      "type": "function"
    },
    {
      "inputs": [
        {
          "internalType": "uint256",
          "name": "claimId",
          "type": "uint256"
        }
      ],
      "name": "getClaimModerators",
      "outputs": [
        {
          "internalType": "address[]",
          "name": "",
          "type": "address[]"
        }
      ],
      "stateMutability": "view",
      "type": "function"
    },
    {
      "inputs": [
        {
          "internalType": "string",
          "name": "eventId",
          "type": "string"
        }
      ],
      "name": "getDisasterEvent",
      "outputs": [
        {
          "internalType": "string",
          "name": "eventName",
          "type": "string"
        },
        {
          "internalType": "string",
          "name": "eventDescription",
          "type": "string"
        },
        {
          "internalType": "uint256",
          "name": "disasterDate",
          "type": "uint256"
        }
      ],
      "stateMutability": "view",
      "type": "function"
    },
    {
      "inputs": [],
      "name": "getDonationRewardRate",
      "outputs": [
        {
          "internalType": "uint256",
          "name": "",
          "type": "uint256"
        }
      ],
      "stateMutability": "view",
      "type": "function"
    },
    {
      "inputs": [],
      "name": "getTopDonors",
      "outputs": [
        {
          "internalType": "address[]",
          "name": "topDonors",
          "type": "address[]"
        },
        {
          "internalType": "uint256[]",
          "name": "topAmounts",
          "type": "uint256[]"
        }
      ],
      "stateMutability": "view",
      "type": "function"
    },
    {
      "inputs": [],
      "name": "getUserClaims",
      "outputs": [
        {
          "internalType": "uint256[]",
          "name": "claimIds",
          "type": "uint256[]"
        },
        {
          "internalType": "bytes32[]",
          "name": "policyIds",
          "type": "bytes32[]"
        },
        {
          "internalType": "address[][]",
          "name": "moderatorList",
          "type": "address[][]"
        },
        {
          "internalType": "string[]",
          "name": "statuses",
          "type": "string[]"
        },
        {
          "internalType": "string[]",
          "name": "descriptions",
          "type": "string[]"
        }
      ],
      "stateMutability": "view",
      "type": "function"
    },
    {
      "inputs": [],
      "name": "getUserPolicies",
      "outputs": [
        {
          "internalType": "bytes32[]",
          "name": "policyIds",
          "type": "bytes32[]"
        },
        {
          "internalType": "address[]",
          "name": "policyHolders",
          "type": "address[]"
        },
        {
          "internalType": "uint256[]",
          "name": "maxCoverageAmounts",
          "type": "uint256[]"
        },
        {
          "internalType": "uint256[]",
          "name": "premiums",
          "type": "uint256[]"
        },
        {
          "internalType": "uint256[]",
          "name": "startTimes",
          "type": "uint256[]"
        },
        {
          "internalType": "uint256[]",
          "name": "endTimes",
          "type": "uint256[]"
        },
        {
          "internalType": "bool[]",
          "name": "isClaimedList",
          "type": "bool[]"
        },
        {
          "internalType": "string[]",
          "name": "propertyAddresses",
          "type": "string[]"
        },
        {
          "internalType": "uint256[]",
          "name": "propertyValues",
          "type": "uint256[]"
        }
      ],
      "stateMutability": "view",
      "type": "function"
    },
    {
      "inputs": [
        {
          "internalType": "bytes32",
          "name": "policyId",
          "type": "bytes32"
        }
      ],
      "name": "getUserPolicy",
      "outputs": [
        {
          "internalType": "bytes32",
          "name": "_policyId",
          "type": "bytes32"
        },
        {
          "internalType": "address",
          "name": "_policyHolder",
          "type": "address"
        },
        {
          "internalType": "uint256",
          "name": "_maxCoverageAmount",
          "type": "uint256"
        },
        {
          "internalType": "uint256",
          "name": "_premiumPaid",
          "type": "uint256"
        },
        {
          "internalType": "uint256",
          "name": "_startTime",
          "type": "uint256"
        },
        {
          "internalType": "uint256",
          "name": "_endTime",
          "type": "uint256"
        },
        {
          "internalType": "bool",
          "name": "_isClaimed",
          "type": "bool"
        },
        {
          "internalType": "string",
          "name": "_propertyAddress",
          "type": "string"
        },
        {
          "internalType": "uint256",
          "name": "_propertyValue",
          "type": "uint256"
        }
      ],
      "stateMutability": "view",
      "type": "function"
    },
    {
      "inputs": [],
      "name": "graviCha",
      "outputs": [
        {
          "internalType": "contract IGraviCha",
          "name": "",
          "type": "address"
        }
      ],
      "stateMutability": "view",
      "type": "function"
    },
    {
      "inputs": [
        {
          "internalType": "address",
          "name": "",
          "type": "address"
        }
      ],
      "name": "moderators",
      "outputs": [
        {
          "internalType": "address",
          "name": "moderatorAddress",
          "type": "address"
        },
        {
          "internalType": "uint256",
          "name": "maxApprovalAmount",
          "type": "uint256"
        },
        {
          "internalType": "uint256",
          "name": "totalClaimsAssessed",
          "type": "uint256"
        },
        {
          "internalType": "uint256",
          "name": "totalClaimsApproved",
          "type": "uint256"
        },
        {
          "internalType": "uint256",
          "name": "totalApprovedAmount",
          "type": "uint256"
        }
      ],
      "stateMutability": "view",
      "type": "function"
    },
    {
      "inputs": [
        {
          "internalType": "string",
          "name": "eventId",
          "type": "string"
        },
        {
          "internalType": "string",
          "name": "newName",
          "type": "string"
        },
        {
          "internalType": "string",
          "name": "newEventDescription",
          "type": "string"
        },
        {
          "internalType": "uint256",
          "name": "disasterDate",
          "type": "uint256"
        }
      ],
      "name": "modifyDisasterEvent",
      "outputs": [],
      "stateMutability": "nonpayable",
      "type": "function"
    },
    {
      "inputs": [],
      "name": "nextClaimId",
      "outputs": [
        {
          "internalType": "uint256",
          "name": "",
          "type": "uint256"
        }
      ],
      "stateMutability": "view",
      "type": "function"
    },
    {
      "inputs": [],
      "name": "nextEventId",
      "outputs": [
        {
          "internalType": "uint256",
          "name": "",
          "type": "uint256"
        }
      ],
      "stateMutability": "view",
      "type": "function"
    },
    {
      "inputs": [],
      "name": "owner",
      "outputs": [
        {
          "internalType": "address",
          "name": "",
          "type": "address"
        }
      ],
      "stateMutability": "view",
      "type": "function"
    },
    {
      "inputs": [
        {
          "internalType": "uint256",
          "name": "claimId",
          "type": "uint256"
        }
      ],
      "name": "payoutClaim",
      "outputs": [],
      "stateMutability": "nonpayable",
      "type": "function"
    },
    {
      "inputs": [
        {
          "internalType": "bytes32",
          "name": "",
          "type": "bytes32"
        }
      ],
      "name": "policies",
      "outputs": [
        {
          "internalType": "bytes32",
          "name": "policyId",
          "type": "bytes32"
        },
        {
          "internalType": "address",
          "name": "policyHolder",
          "type": "address"
        },
        {
          "internalType": "uint256",
          "name": "maxCoverageAmount",
          "type": "uint256"
        },
        {
          "internalType": "uint256",
          "name": "premiumPaid",
          "type": "uint256"
        },
        {
          "internalType": "uint256",
          "name": "startTime",
          "type": "uint256"
        },
        {
          "internalType": "uint256",
          "name": "endTime",
          "type": "uint256"
        },
        {
          "internalType": "bool",
          "name": "isClaimed",
          "type": "bool"
        },
        {
          "internalType": "string",
          "name": "propertyAddress",
          "type": "string"
        },
        {
          "internalType": "uint256",
          "name": "propertyValue",
          "type": "uint256"
        }
      ],
      "stateMutability": "view",
      "type": "function"
    },
    {
      "inputs": [],
      "name": "premiumRate",
      "outputs": [
        {
          "internalType": "uint256",
          "name": "",
          "type": "uint256"
        }
      ],
      "stateMutability": "view",
      "type": "function"
    },
    {
      "inputs": [
        {
          "internalType": "uint256",
          "name": "claimId",
          "type": "uint256"
        }
      ],
      "name": "processClaim",
      "outputs": [],
      "stateMutability": "nonpayable",
      "type": "function"
    },
    {
      "inputs": [
        {
          "internalType": "string",
          "name": "eventId",
          "type": "string"
        }
      ],
      "name": "removeDisasterEvent",
      "outputs": [],
      "stateMutability": "nonpayable",
      "type": "function"
    },
    {
      "inputs": [
        {
          "internalType": "address",
          "name": "moderator",
          "type": "address"
        }
      ],
      "name": "removeModeratorFromPool",
      "outputs": [],
      "stateMutability": "nonpayable",
      "type": "function"
    },
    {
      "inputs": [],
      "name": "renounceOwnership",
      "outputs": [],
      "stateMutability": "nonpayable",
      "type": "function"
    },
    {
      "inputs": [
        {
          "internalType": "uint256",
          "name": "newRate",
          "type": "uint256"
        }
      ],
      "name": "setDonationRewardRate",
      "outputs": [],
      "stateMutability": "nonpayable",
      "type": "function"
    },
    {
      "inputs": [
        {
          "internalType": "string",
          "name": "eventId",
          "type": "string"
        },
        {
          "internalType": "bytes32",
          "name": "policyId",
          "type": "bytes32"
        },
        {
          "internalType": "string",
          "name": "incidentDescription",
          "type": "string"
        }
      ],
      "name": "startAClaim",
      "outputs": [
        {
          "internalType": "bool",
          "name": "",
          "type": "bool"
        }
      ],
      "stateMutability": "nonpayable",
      "type": "function"
    },
    {
      "inputs": [],
      "name": "totalPoolFunds",
      "outputs": [
        {
          "internalType": "uint256",
          "name": "",
          "type": "uint256"
        }
      ],
      "stateMutability": "view",
      "type": "function"
    },
    {
      "inputs": [
        {
          "internalType": "address payable",
          "name": "recipient",
          "type": "address"
        },
        {
          "internalType": "uint256",
          "name": "amount",
          "type": "uint256"
        }
      ],
      "name": "transferEther",
      "outputs": [],
      "stateMutability": "payable",
      "type": "function"
    },
    {
      "inputs": [
        {
          "internalType": "address",
          "name": "newOwner",
          "type": "address"
        }
      ],
      "name": "transferOwnership",
      "outputs": [],
      "stateMutability": "nonpayable",
      "type": "function"
    },
    {
      "inputs": [
        {
          "internalType": "address",
          "name": "",
          "type": "address"
        }
      ],
      "name": "userRecords",
      "outputs": [
        {
          "internalType": "uint256",
          "name": "donationTotal",
          "type": "uint256"
        }
      ],
      "stateMutability": "view",
      "type": "function"
    },
    {
      "stateMutability": "payable",
      "type": "receive"
    }
  ],
  "bytecode": "0x6080604052346102fc576146c78038038061001981610316565b9283398101906060818303126102fc5780516001600160401b0381116102fc57810182601f820112156102fc578051906001600160401b03821161028e5761006a601f8301601f1916602001610316565b93828552602083830101116102fc5760005b828110610301575050602060009184010152604060208201519101519060018060a01b0382168092036102fc5733156102e65760008054336001600160a01b03198216811783556040519290916001600160a01b0316907f8be0079c531659141344cd1fd0a4f28419497f9722a3daafe3b4186f6b6457e09080a36001600a556001600c55612710600d5581156102a4575082516001600160401b03811161028e57600154600181811c91168015610284575b602082101461026e57601f8111610209575b506020601f82116001146101a25781929394600092610197575b50508160011b916000199060031b1c1916176001555b600255600480546001600160a01b03191691909117905560405161438b908161033c8239f35b01519050388061015b565b601f198216906001600052806000209160005b8181106101f1575095836001959697106101d8575b505050811b01600155610171565b015160001960f88460031b161c191690553880806101ca565b9192602060018192868b0151815501940192016101b5565b60016000527fb10e2d527612073b26eecdfd717e6a320cf44b4afac2b0732d9fcbe2b7fa0cf6601f830160051c81019160208410610264575b601f0160051c01905b8181106102585750610141565b6000815560010161024b565b9091508190610242565b634e487b7160e01b600052602260045260246000fd5b90607f169061012f565b634e487b7160e01b600052604160045260246000fd5b62461bcd60e51b815260206004820152601460248201527f496e76616c6964207072656d69756d20726174650000000000000000000000006044820152606490fd5b631e4fbdf760e01b600052600060045260246000fd5b600080fd5b8060208092840101518282880101520161007c565b6040519190601f01601f191682016001600160401b0381118382101761028e5760405256fe6080604052600436101561002a575b361561001957600080fd5b61002534600354614025565b600355005b6000803560e01c806305b1137b1461379e578063098464f3146136eb5780630d13fa5a146134b2578063100772cb146133825780631120fe7c1461308157806314d0f1ba1461301457806317b46b1b14612f545780631ef4f7bc14612e85578063216e14fb14612be95780632425b2e91461298357806333c7072e146125725780633defbf28146124b95780634abfa163146124755780634e8402f3146120c957806353591ad614611ae55780635b23c27d14611e2e5780635d0040d314611e1057806365eaf54814611dcd57806366a3e4c814611b03578063678f935014611ae557806369b5198a146119455780636a0ecf50146118fd578063715018a6146118a35780637257dfc91461158d57806377c8add8146114ef5780638da5cb5b146114c857806398e36b04146114295780639b6196a31461135e5780639f9d903a14611340578063a0021cf114611322578063a591a0f4146112c5578063b04869ae1461129c578063b1998a8f14611227578063ba06910814611169578063bac71e0014610f8a578063bcd47032146108ef578063c06e34d21461080a578063d6387ed814610636578063dabd2c80146105f9578063ddbfd8ef14610589578063ed88c68e1461034a578063f019602e146102c0578063f1139d0f146102a25763f2fde38b1461021a575061000e565b3461029f57602036600319011261029f57610233613ab9565b61023b614113565b6001600160a01b0316801561028b5781546001600160a01b03198116821783556001600160a01b03167f8be0079c531659141344cd1fd0a4f28419497f9722a3daafe3b4186f6b6457e08380a380f35b631e4fbdf760e01b82526004829052602482fd5b80fd5b503461029f578060031936011261029f576020600354604051908152f35b503461029f57602036600319011261029f576001600160a01b036102e2613ab9565b168152600660205260408120604051918260208354918281520192825260208220915b818110610334576103308561031c81870382613936565b604051918291602083526020830190613b36565b0390f35b8254845260209093019260019283019201610305565b508060031936011261029f5734156105545761036834600354614025565b6003553381526006602052600260408220015415610500575b33815260066020526002604082200161039b348254614025565b9055600454600d5482916001600160a01b0316906103b99034613eb6565b90803b156104df576040516340c10f1960e01b8152336004820152602481019290925290919081908390604490829084905af180156104f3576104e3575b50506040513481527fd143b3fca8f81682799e935736170faff446dc630e9babfdc72e4ae53c181a2660203392a2600454600d5482916001600160a01b0316906104419034613eb6565b90803b156104df576040516340c10f1960e01b8152336004820152602481019290925282908290604490829084905af180156104d4576104bf575b506040519081527fd143b3fca8f81682799e935736170faff446dc630e9babfdc72e4ae53c181a2660203392a260206104b7600d5434613eb6565b604051908152f35b816104c991613936565b61029f57803861047c565b6040513d84823e3d90fd5b5050fd5b6104ec91613936565b38816103f7565b50604051903d90823e3d90fd5b600754600160401b8110156105405780600161051f9201600755613c36565b81546001600160a01b0360039290921b91821b19163390911b179055610381565b634e487b7160e01b82526041600452602482fd5b60405162461bcd60e51b815260206004820152600d60248201526c09aeae6e840e6cadcc8408aa89609b1b6044820152606490fd5b503461029f57602036600319011261029f576040906004358152600560205220805461033060018060a01b03600184015416926002810154906003810154600482015460058301549060ff6006850154169260086105e960078701613957565b95015495604051998a998a613a66565b503461029f57602036600319011261029f576020906002906040906001600160a01b03610624613ab9565b16815260068452200154604051908152f35b503461029f578060031936011261029f57600754600a81101561080357805b61065e81613f45565b9161066882613f45565b9361067282613f45565b9061067c83613f45565b92815b8181106107a75750815b8181106106e75750505b8381106106a95760405180610330888883613c96565b6001906001600160a01b036106be8285613fc9565b51166106ca8288613fc9565b526106d58185613fc9565b516106e08289613fc9565b5201610693565b60018101808211610793575b8281106107035750600101610689565b6001906107108388613fc9565b5161071b8289613fc9565b5111610728575b016106f3565b6107328188613fc9565b5161073d8489613fc9565b51610748838a613fc9565b526107538489613fc9565b52818060a01b036107648288613fc9565b5116828060a01b036107768589613fc9565b51166107828389613fc9565b5261078d8488613fc9565b52610722565b634e487b7160e01b84526011600452602484fd5b806107b3600192613c36565b838060a01b0391549060031b1c166107cb8287613fc9565b526107d581613c36565b838060a01b0391549060031b1c168452600660205260026040852001546107fc8288613fc9565b520161067f565b600a610655565b503461029f57602036600319011261029f57610824613ab9565b61082c614113565b6001600160a01b0316610840811515613fdd565b80825260086020526001604083200154156108af576020817f7a9f1e23d5426b34819d173153d59084cc3578d5a129b80bb27df683ac6b2278928452600882526108a56040852060046000918281558260018201558260028201558260038201550155565b604051908152a180f35b60405162461bcd60e51b8152602060048201526018602482015277135bd9195c985d1bdc88191bd95cc81b9bdd08195e1a5cdd60421b6044820152606490fd5b503461029f57606036600319011261029f576004356001600160401b038111610f8657610920903690600401613aef565b6024356044356001600160401b038111610f8257610942903690600401613aef565b9061097561096e604051602081875161095e8183858c016139fb565b8101600981520301902054613894565b1515613e5c565b808452600560205260408420600101546001600160a01b03163303610f4557808452600560205260408420604051906109ad826138ce565b8054825260018060a01b0360018201541660208301526002810154604083015260038101546060830152610a286004820154916080840192835260058101549360a08101948552610100600860ff6006850154169360c084019415158552610a1760078201613957565b60e085015201549101525115613d2d565b514210610f0857514211610ece576203f480420192834211610eba57600c5491610a5183614077565b600c55604051602095610a648783613936565b87825260405193610a74856138ce565b8585528785019384526040850190815260608501898152608086019142835260a0870193845260c08701948b86528960e0890152610100880152600b54600160401b811015610e9257806001610acd9201600b5561385f565b969096610ea657875187555160018701555180516001600160401b038111610e9257610b0981610b0060028a0154613894565b60028a01614032565b8a918c601f8311600114610e2457610b3893909183610d87575b50508160011b916000199060031b1c19161790565b60028601555b5160038501555160048401555160058301556006820190516003811015610e105760ff801983541691161790556007810160e08301518051906001600160401b038211610dfc57610b9982610b938554613894565b85614032565b8790601f8311600114610d925782610100959360089593610bcf938d92610d875750508160011b916000199060031b1c19161790565b90555b0191015190815191600160401b8311610d735785908254848455808510610cd3575b50019086528486208587925b848410610cb45750503387525050600684525060408420600101805494600160401b861015610ca05750610c77610c6086849360017f5decab71e0179c4a357e5f497297b72c7f2271c2350638169cc1d509062adc3a9899018155613c51565b819391549060031b91821b91600019901b19161790565b9055610c9460405192839283526040868401526040830190613a1e565b0390a160405160018152f35b634e487b7160e01b81526041600452602490fd5b60019181610cc56007935186613dd3565b019201920191908690610c00565b80919250600702906007820403610d5f5783600702600781048503610d4b57838952878920889392810191015b818110610d0d5750610bf4565b600791929350610d358160046000918281558260018201558260028201558260038201550155565b8960058201558960068201550190879291610d00565b634e487b7160e01b89526011600452602489fd5b634e487b7160e01b88526011600452602488fd5b634e487b7160e01b87526041600452602487fd5b015190503880610b23565b838a52888a209190601f1984168b5b8b828210610de657505092600192859261010098966008989610610dcd575b505050811b019055610bd2565b015160001960f88460031b161c19169055388080610dc0565b6001859682939686015181550195019301610da1565b634e487b7160e01b89526041600452602489fd5b634e487b7160e01b88526021600452602488fd5b5091600288018d528b8d20908d935b8d601f1985168610610e7957506001945083601f19811610610e60575b505050811b016002860155610b3e565b015160001960f88460031b161c19169055388080610e50565b8282015184559485019460019093019290910190610e33565b634e487b7160e01b8c52604160045260248cfd5b634e487b7160e01b8c5260048c905260248cfd5b634e487b7160e01b85526011600452602485fd5b60405162461bcd60e51b8152602060048201526012602482015271141bdb1a58de481a185cc8195e1c1a5c995960721b6044820152606490fd5b60405162461bcd60e51b8152602060048201526015602482015274506f6c696379206e6f74207965742061637469766560581b6044820152606490fd5b60405162461bcd60e51b81526020600482015260156024820152742737ba103a3432903837b634b1bc903437b63232b960591b6044820152606490fd5b8380fd5b5080fd5b503461029f57602036600319011261029f576004358015158061115e575b610fb190613cee565b600019810190811161114a57610fc69061385f565b50906008820190815491610fd983613f45565b92610fe381613f45565b90610fed81613f45565b92610ff782613f45565b945b8281106110e65750505084549360018601549560038101546004820154906005830154600684015460ff1661102d9061413c565b9261103a60028601613957565b9460070161104790613957565b946040519b8c9b8c5260208c015260408b0161018090526101808b0161106c91613a1e565b9260608b015260808a015260a089015287810360c089015261108d91613a1e565b86810360e088015261109e91613a1e565b8581036101008701526110b091613b6a565b8481036101208601526110c291613c00565b8381036101408501526110d491613c00565b82810361016084015261033091613b36565b8060606110fe6110f860019486613d72565b50614086565b838060a01b0381515116611112848c613fc9565b52602081015115156111248489613fc9565b5260408101511515611136848a613fc9565b5201516111438289613fc9565b5201610ff9565b634e487b7160e01b82526011600452602482fd5b50600c548110610fa8565b503461029f57602036600319011261029f57600435906001600160401b03821161029f5761120f6111d160206111a23660048701613aef565b604051906111c061096e82519385818186019661095e81838a6139fb565b6040519384928392519283916139fb565b81016009815203019020600281015461121d6111fb60036111f460018601613957565b9401613957565b604051948594606086526060860190613a1e565b908482036020860152613a1e565b9060408301520390f35b503461029f57602036600319011261029f576001600160a01b03611249613ab9565b168152600660205260016040822001604051918260208354918281520192825260208220915b818110611286576103308561031c81870382613936565b825484526020909301926001928301920161126f565b503461029f578060031936011261029f576004546040516001600160a01b039091168152602090f35b503461029f57602036600319011261029f576004356112e2614113565b80156112ee57600d5580f35b60405162461bcd60e51b815260206004820152600c60248201526b496e76616c6964207261746560a01b6044820152606490fd5b503461029f578060031936011261029f576020600c54604051908152f35b503461029f578060031936011261029f576020600a54604051908152f35b503461029f578060031936011261029f57600a54600019810190811161114a5761138781613f94565b91805b8281106113a7576040516020808252819061033090820187613ba7565b6001810180821161141557906113be6001926141e6565b6113f960246040518093634556542360e01b60208301526113e881518092602086860191016139fb565b81010301601f198101835282613936565b6114038287613fc9565b5261140e8186613fc9565b500161138a565b634e487b7160e01b83526011600452602483fd5b503461029f578060031936011261029f5760075461144681613f45565b9061145081613f45565b92805b82811061146c5750505061033060405192839283613c96565b80611478600192613c36565b838060a01b0391549060031b1c166114908287613fc9565b5261149a81613c36565b838060a01b0391549060031b1c168352600660205260026040842001546114c18288613fc9565b5201611453565b503461029f578060031936011261029f57546040516001600160a01b039091168152602090f35b503461029f57602036600319011261029f5760043580151580611582575b61151690613cee565b600019810190811161114a5761152d60089161385f565b500180549061153b82613f45565b925b82811061155a576040516020808252819061033090820187613b6a565b8061156760019284613d72565b50828060a01b0390541661157b8287613fc9565b520161153d565b50600c54811061150d565b503461029f57602036600319011261029f5760043580151580611898575b6115b490613cee565b6000198101818111611415576115c99061385f565b50906006820160ff8154166003811015611884576118455760088301805490600382106117e957859286938360011c9060018201809211610d4b57885b858110611791575088958115801561176a575b50501061171657600160ff19825416179055826003860155855b82811061167f575050507f131884885e3b15c22fcaa4e2b49df807c03ab9e54bc149f6447e3c9166ce881491606091604051918252600160208301526040820152a15b60054291015580f35b8061168f6110f860019385613d72565b60408101516116c3575b828060a01b039051511688526008602052600260408920016116bb8154614077565b905501611633565b828060a01b038151511689526008602052600360408a20016116e58154614077565b90556060810151838060a01b03825151168a52600860205261170f600460408c2001918254614025565b9055611699565b9050606092507f131884885e3b15c22fcaa4e2b49df807c03ab9e54bc149f6447e3c9166ce8814939150600260ff1982541617905584600385015560405190815260026020820152846040820152a1611676565b9091965061177d57859004943880611619565b634e487b7160e01b89526012600452602489fd5b61179e6110f88287613d72565b60208101511515806117dc575b6117b9575b50600101611606565b916001919760606117cc6117d593614077565b94015190614025565b96906117b0565b50604081015115156117ab565b60405162461bcd60e51b815260206004820152602e60248201527f4e6f7420656e6f756768206d6f64657261746f7273206861766520617373657360448201526d736564207468697320636c61696d60901b6064820152608490fd5b60405162461bcd60e51b815260206004820152601760248201527610db185a5b48185b1c9958591e48199a5b985b1a5e9959604a1b6044820152606490fd5b634e487b7160e01b85526021600452602485fd5b50600c5481106115ab565b503461029f578060031936011261029f576118bc614113565b80546001600160a01b03198116825581906001600160a01b03167f8be0079c531659141344cd1fd0a4f28419497f9722a3daafe3b4186f6b6457e08280a380f35b503461029f57602036600319011261029f576004359060058202918083046005149015171561193157602082604051908152f35b634e487b7160e01b81526011600452602490fd5b503461029f57604036600319011261029f5761195f613ab9565b60243561196a614113565b6001600160a01b03821691611980831515613fdd565b8115611a8a5782845260086020526001604085200154611a4a577f7100a86ecf94bef5c32984e74b6847c32372ee773dd408da230116e910b2f274926004604051916119cb8361391b565b808352602080840186815260408086018a8152606087018b8152608088018c8152958c5260088552828c20975188546001600160a01b0319166001600160a01b03918216178955935160018901559051600288015551600387015592519390940192909255805193909216835282019290925290819081015b0390a180f35b60405162461bcd60e51b81526020600482015260186024820152774d6f64657261746f7220616c72656164792065786973747360401b6044820152606490fd5b60405162461bcd60e51b815260206004820152602d60248201527f4d617820617070726f76616c20616d6f756e74206d757374206265206772656160448201526c746572207468616e207a65726f60981b6064820152608490fd5b503461029f578060031936011261029f576020600d54604051908152f35b503461029f57608036600319011261029f576004356001600160401b038111610f8657611b34903690600401613aef565b6024356001600160401b038111611dc957611b53903690600401613c69565b906044356001600160401b038111611dc557611b73903690600401613c69565b9091611b7d614113565b611bb06020604051611b9f61096e8951928481818d019561095e8183896139fb565b604051809381928a519283916139fb565b810160098152030190209360018501916001600160401b038211611db157611bdc82610b938554613894565b8790601f8311600114611d4d57611c0a9291899183611ca35750508160011b916000199060031b1c19161790565b90555b60038301916001600160401b038211611d3957611c2e82610b938554613894565b8590601f8311600114611cae5782611a4495937fa35de865ec4f1cbf701c0b24f4131c3881f019afaab526e3fd3a2986651c48ec979593611c84938a92611ca35750508160011b916000199060031b1c19161790565b90555b6002606435910155604051918291602083526020830190613a1e565b013590503880610b23565b8387526020872091601f198416885b818110611d215750926001928592611a4498967fa35de865ec4f1cbf701c0b24f4131c3881f019afaab526e3fd3a2986651c48ec9a989610611d07575b505050811b019055611c87565b0135600019600384901b60f8161c19169055388080611cfa565b91936020600181928787013581550195019201611cbd565b634e487b7160e01b86526041600452602486fd5b8389526020892091601f1984168a5b818110611d995750908460019594939210611d7f575b505050811b019055611c0d565b0135600019600384901b60f8161c19169055388080611d72565b91936020600181928787013581550195019201611d5c565b634e487b7160e01b88526041600452602488fd5b8480fd5b8280fd5b503461029f57606036600319011261029f57600435906001600160401b03821161029f5760206104b7611e033660048601613aef565b60443590602435906140c7565b503461029f578060031936011261029f576020600254604051908152f35b503461029f578060031936011261029f57600b5490611e4c82613f2e565b611e596040519182613936565b828152600b82526020810192827f0175b7a638427703f0dbe7bb9bbf987a2551717b34e79f33b5b1008d1fa01db9855b838310611fe6578585886040519160208301906020845251809152604083019360408260051b8501019294815b838310611ec35785850386f35b90919293603f1986820301835286518051825260208101516020830152610100611f43611f0160408401516101206040870152610120860190613a1e565b606084015160608601526080840151608086015260a084015160a0860152611f3160c085015160c0870190613a43565b60e084015185820360e0870152613a1e565b910151916101008183039101526020808351928381520192019083905b808210611f7e57505050602096870196909493600101920190611eb6565b90919260206101006001926060875160808151878060a01b03815116855286810151878601526040810151604086015283810151848601520151608084015284810151151560a08401526040810151151560c0840152015160e0820152019401920190611f60565b604051611ff2816138ce565b825481526001830154602082015261200c60028401613957565b60408201526003830154606082015260048301546080820152600583015460a082015260ff6006840154166003811015610e105760c082015261205160078401613957565b60e082015260088301805461206581613f2e565b916120736040519384613936565b81835289526020808a20908a9084015b8382106120ab5750505050600192826020926101006009950152815201920192019190611e89565b600760206001926120bb86614086565b815201930191019091612083565b503461029f57606036600319011261029f576004356001600160401b038111610f86576120fa903690600401613aef565b906024356001600160401b038111610f865761211a903690600401613aef565b90612123614113565b600a5461212f816141e6565b6121746040519261216f6024856020810195634556542360e01b875261215e81518092602086860191016139fb565b81010301601f198101865285613936565b614077565b600a556040519061218482613900565b828252602082019586526121b5602060408401926044358452606085019788526040518093819288519283916139fb565b8101600981520301902091518051906001600160401b038211611d39576121e6826121e08654613894565b86614032565b602090601f8311600114612412576122159291879183610d875750508160011b916000199060031b1c19161790565b82555b6001820195519586516001600160401b038111611d39576122438161223d8454613894565b84614032565b6020601f82116001146123ac5790806122779288999a6003989992610d875750508160011b916000199060031b1c19161790565b90555b5160028201550192519283516001600160401b038111612398576122a28161223d8454613894565b6020601f821160011461230f5781611a449493926122f89287987f0edea3c9f900aa84820ccf471d6139121481d600b8dd8963e85aa7a7fb8035349892610d875750508160011b916000199060031b1c19161790565b90555b604051918291602083526020830190613a1e565b82855280852095601f198316865b8181106123805750966001928492611a449796957f0edea3c9f900aa84820ccf471d6139121481d600b8dd8963e85aa7a7fb803534999a10612367575b505050811b0190556122fb565b015160001960f88460031b161c1916905538808061235a565b8383015189556001909801976020938401930161231d565b634e487b7160e01b84526041600452602484fd5b82875280872098601f198316885b8181106123fa57509160039798999a918460019594106123e2575b505050811b01905561227a565b015160001983891b60f8161c191690553880806123d5565b838301518c556001909b019a602093840193016123ba565b8487528187209190601f198416885b81811061245d5750908460019594939210612444575b505050811b018255612218565b015160001960f88460031b161c19169055388080612437565b92936020600181928786015181550195019301612421565b503461029f57602036600319011261029f576004359060075482101561029f5760206124a083613c36565b905460405160039290921b1c6001600160a01b03168152f35b503461029f57602036600319011261029f57600435906001600160401b03821161029f5761255161250560206124f23660048701613aef565b81604051938285809451938492016139fb565b8101600981520301902061033061251b82613957565b9161252860018201613957565b61255f61253c600360028501549401613957565b91604051968796608088526080880190613a1e565b908682036020880152613a1e565b9160408501528382036060850152613a1e565b50608036600319011261029f576024356004356044356001600160401b038111610f82576125a4903690600401613aef565b91606435914281116129335762015180820282810462015180148315171561291f576125d09082614025565b91828210156128cf576125e49084866140c7565b801561288a5780340361284e5760405160208101903060601b82523360601b60348201524260488201526048815261261d606882613936565b519020946005820290828204600503610d5f5785906126e888878b60405196612645886138ce565b83885260208801903382526040890190815260608901918a8352604060808b01948d865260a08c0196875260c08c019781895260e08d019a8b526101008d019b8c52815260056020522099518a5560018060a01b0390511660018a019060018060a01b031660018060a01b0319825416179055516002890155516003880155516004870155516005860155511515600685019060ff801983541691151516179055565b51805160078401916001600160401b03821161283a5761270c82610b938554613894565b6020908b601f84116001146127d257600895949361274093909283610d875750508160011b916000199060031b1c19161790565b90555b51910155338652600660205260408620805496600160401b881015610ca05750612779610c60888893600160209b018155613c51565b905561278781600354614025565b60035560405193858552868501526040840152606083015260808201527f4bdf67d7576c88a1f1180f8844338e7be49ba2c0bc3cf1e411753f442663331560a03392a2604051908152f35b50838c52818c209190601f1984168d5b818110612822575091600193918560089897969410612809575b505050811b019055612743565b015160001960f88460031b161c191690553880806127fc565b929360206001819287860151815501950193016127e2565b634e487b7160e01b8b52604160045260248bfd5b60405162461bcd60e51b8152602060048201526014602482015273125b98dbdc9c9958dd0811551208185b5bdd5b9d60621b6044820152606490fd5b60405162461bcd60e51b815260206004820152601e60248201527f5072656d69756d206d7573742062652067726561746572207468616e203000006044820152606490fd5b60405162461bcd60e51b815260206004820152602260248201527f53746172742074696d65206d757374206265206265666f726520656e642074696044820152616d6560f01b6064820152608490fd5b634e487b7160e01b86526011600452602486fd5b60405162461bcd60e51b815260206004820152602260248201527f53746172742074696d65206d757374206265203c3d2063757272656e742074696044820152616d6560f01b6064820152608490fd5b503461029f578060031936011261029f5733815260066020526040812054906129ab82613f45565b906129b583613f45565b926129bf81613f45565b6129c882613f45565b6129d183613f45565b6129da84613f45565b916129e485613f45565b936129ee86613f94565b956129f881613f45565b97805b828110612aa7575050506040519889986101208a526101208a01612a1e91613b36565b89810360208b0152612a2f91613b6a565b88810360408a0152612a4091613b36565b8781036060890152612a5191613b36565b8681036080880152612a6291613b36565b85810360a0870152612a7391613b36565b84810360c0860152612a8491613c00565b83810360e0850152612a9591613ba7565b82810361010084015261033091613b36565b6001903383526006602052612abf8160408520613c51565b90549060031b1c835260056020528c8c6040852091604051809381938293612ae6846138ce565b82548452888060a01b0389840154169060208501918252612b81896002860154936040880194855260038701549560608901968752612b7183600860048b01549a60808d019b8c5260a060058201549d019c8d5260c060ff6006830154169e01809e1515905260e0612b5a60078301613957565b9f019e8f5201549d61010081019e8f525192613fc9565b528c8060a01b0390511692613fc9565b5251612b8d888d613fc9565b5251612b99878d613fc9565b5251612ba5868d613fc9565b5251612bb1858d613fc9565b52511515612bbf848d613fc9565b5251612bcb838d613fc9565b52612bd6828c613fc9565b5051612be2828d613fc9565b52016129fb565b503461029f578060031936011261029f57338152600660205260016040822001548015612e4b57612c1981613f45565b91612c2382613f45565b612c2c83613f2e565b91612c3a6040519384613936565b838352612c4684613f2e565b92612c596020820194601f190185613f77565b612c6285613f94565b92612c6c86613f94565b95835b818110612d2657612c97898989898989612ca58a60405198899860a08a5260a08a0190613b36565b9088820360208a0152613b36565b90868203604088015251908181526020810160208360051b8301019593915b838310612cf15788806103308a612ce38b8b8582036060870152613ba7565b908382036080850152613ba7565b9193969750919394602080612d12600193601f198682030187528a51613b6a565b980193019301909288979695949293612cc4565b3385526006602052612d3e8160016040882001613c51565b90549060031b1c80151580612e40575b612d5790613cee565b600019810190811161291f57612d6e60089161385f565b508054612d7b848d613fc9565b526001810154612d8b8487613fc9565b52612d9860078201613957565b612da2848c613fc9565b52612dad838b613fc9565b50612dbe60ff60068301541661413c565b612dc8848a613fc9565b52612dd38389613fc9565b50018054612de081613f45565b91875b828110612e0d5750505090600191612dfb8287613fc9565b52612e068186613fc9565b5001612c6f565b80612e1a60019284613d72565b50828060a01b03905416612e2f811515613fdd565b612e398287613fc9565b5201612de3565b50600c548110612d4e565b60405162461bcd60e51b81526020600482015260126024820152715573657220686173206e6f20636c61696d7360701b6044820152606490fd5b503461029f578060031936011261029f57604051908060015490612ea882613894565b8085529160018116908115612f2d5750600114612ed0575b610330846122fb81860382613936565b600181527fb10e2d527612073b26eecdfd717e6a320cf44b4afac2b0732d9fcbe2b7fa0cf6939250905b808210612f13575090915081016020016122fb82612ec0565b919260018160209254838588010152019101909291612efa565b60ff191660208087019190915292151560051b850190920192506122fb9150839050612ec0565b503461029f57602036600319011261029f576004356001600160401b038111610f8657611a44612fa97ffec510cf8dc709165f06d672244480e0718dc5ef561cfaa29c05b11869fcc044923690600401613aef565b612fb1614113565b6122fb6003612fe96020604051612fd861096e8751928481818b019561095e8183896139fb565b6040518093819288519283916139fb565b81016009815203019020612ffc81613edf565b61300860018201613edf565b86600282015501613edf565b503461029f57602036600319011261029f5760a0906040906001600160a01b0361303c613ab9565b168152600860205220600180831b0381541690600181015490600281015460046003830154920154926040519485526020850152604084015260608301526080820152f35b503461029f57606036600319011261029f57600435602435801515808203610f82576044359183151580613377575b6130b990613cee565b600019840184811161291f576130ce9061385f565b509060ff6006830154166003811015613363576133245733865260086020526001604087200154156132df57156132d75782156132805733855260086020526001604086200154831161323b575b6008018054855b8181106131e057503386526008602052604086209161314d6040519361314885613900565b613d8e565b835260016020840152836040840152846060840152600160401b821015610d73579061317e91600182018155613d72565b6131cc57916131b2608094927fea011128836db08a6e5385e82ae9ef7ec1f6756b3bf6d266c0809eec75ccdf889694613dd3565b60405192338452602084015260408301526060820152a180f35b634e487b7160e01b86526004869052602486fd5b6131ea8184613d72565b50546001600160a01b0316331461320357600101613123565b60405162461bcd60e51b815260206004820152601060248201526f105b1c9958591e48185cdcd95cdcd95960821b6044820152606490fd5b60405162461bcd60e51b815260206004820152601c60248201527f416d6f756e742065786365656473206d6f64657261746f7220636170000000006044820152606490fd5b60405162461bcd60e51b815260206004820152602960248201527f417070726f76616c20616d6f756e74206d7573742062652067726561746572206044820152687468616e207a65726f60b81b6064820152608490fd5b84925061311c565b60405162461bcd60e51b815260206004820152601a60248201527f4e6f7420612072656769737465726564206d6f64657261746f720000000000006044820152606490fd5b60405162461bcd60e51b815260206004820152601760248201527610db185a5b48185b1c9958591e481c1c9bd8d95cdcd959604a1b6044820152606490fd5b634e487b7160e01b87526021600452602487fd5b50600c5484106130b0565b503461029f57602036600319011261029f5760409060043581526005602052206040516133ae816138ce565b8154815260018060a01b036001830154169060208101918252600283015492604082019384526003810154906060830191825260048101549060808401918252600581015460a0850190815260ff6006830154169060c086019115158252600861341a60078501613957565b60e08801908152930154610100870190815287519094906001600160a01b0316330361346d5761033096519760018060a01b039051169851955190519151925115159351945195604051998a998a613a66565b60405162461bcd60e51b815260206004820152601b60248201527f43616c6c6572206973206e6f7420706f6c69637920686f6c64657200000000006044820152606490fd5b503461029f57602036600319011261029f576004356134cf614113565b801515806136e0575b6134e190613cee565b600019810190811161114a576134f69061385f565b50600681019060ff82541660038110156136cc5760010361369257600181015483526005602052604083209160068301600381549361353860ff861615613d2d565b015492831561365257836003541061360d5760ff19166001179055600354828103908111610eba576003556001830191848080808460018060a01b038854165af1613581613cbe565b50156135d2577fe64ba0c150ba8da1befe0c879808734569d6e16bf75e2b77c4e1db04e359cba592604092600160ff1982541617905560018060a01b0390541693549082519182526020820152a280f35b60405162461bcd60e51b8152602060048201526013602482015272115512081d1c985b9cd9995c8819985a5b1959606a1b6044820152606490fd5b60405162461bcd60e51b815260206004820152601e60248201527f496e73756666696369656e742066756e647320696e2074686520706f6f6c00006044820152606490fd5b60405162461bcd60e51b8152602060048201526018602482015277139bc8185c1c1c9bdd99590818db185a5b48185b5bdd5b9d60421b6044820152606490fd5b60405162461bcd60e51b815260206004820152601260248201527110db185a5b481b9bdd081858d8d95c1d195960721b6044820152606490fd5b634e487b7160e01b84526021600452602484fd5b50600c5481106134d8565b503461029f57602036600319011261029f57600435600b54811015610f86576137139061385f565b50805461033060018301549261372b60028201613957565b6137916003830154926004810154600582015490613777613756600760ff6006870154169501613957565b956040519a8b9a8b5260208b015261010060408b01526101008a0190613a1e565b956060890152608088015260a087015260c0860190613a43565b83820360e0850152613a1e565b50604036600319011261029f576004356001600160a01b03811690819003610f8657602435906137cc614113565b814710613823578280809381935af16137e3613cbe565b50156137ec5780f35b60405162461bcd60e51b815260206004820152600f60248201526e151c985b9cd9995c8819985a5b1959608a1b6044820152606490fd5b60405162461bcd60e51b8152602060048201526014602482015273496e73756666696369656e742062616c616e636560601b6044820152606490fd5b600b5481101561387e57600b6000526009602060002091020190600090565b634e487b7160e01b600052603260045260246000fd5b90600182811c921680156138c4575b60208310146138ae57565b634e487b7160e01b600052602260045260246000fd5b91607f16916138a3565b61012081019081106001600160401b038211176138ea57604052565b634e487b7160e01b600052604160045260246000fd5b608081019081106001600160401b038211176138ea57604052565b60a081019081106001600160401b038211176138ea57604052565b90601f801991011681019081106001600160401b038211176138ea57604052565b906040519182600082549261396b84613894565b80845293600181169081156139d95750600114613992575b5061399092500383613936565b565b90506000929192526020600020906000915b8183106139bd5750509060206139909282010138613983565b60209193508060019154838589010152019101909184926139a4565b90506020925061399094915060ff191682840152151560051b82010138613983565b60005b838110613a0e5750506000910152565b81810151838201526020016139fe565b90602091613a37815180928185528580860191016139fb565b601f01601f1916010190565b906003821015613a505752565b634e487b7160e01b600052602160045260246000fd5b999897949192613ab496936101009895928c5260018060a01b031660208c015260408b015260608a0152608089015260a0880152151560c087015261012060e0870152610120860190613a1e565b930152565b600435906001600160a01b0382168203613acf57565b600080fd5b6001600160401b0381116138ea57601f01601f191660200190565b81601f82011215613acf57803590613b0682613ad4565b92613b146040519485613936565b82845260208383010111613acf57816000926020809301838601378301015290565b906020808351928381520192019060005b818110613b545750505090565b8251845260209384019390920191600101613b47565b906020808351928381520192019060005b818110613b885750505090565b82516001600160a01b0316845260209384019390920191600101613b7b565b9080602083519182815201916020808360051b8301019401926000915b838310613bd357505050505090565b9091929394602080613bf1600193601f198682030187528951613a1e565b97019301930191939290613bc4565b906020808351928381520192019060005b818110613c1e5750505090565b82511515845260209384019390920191600101613c11565b60075481101561387e57600760005260206000200190600090565b805482101561387e5760005260206000200190600090565b9181601f84011215613acf578235916001600160401b038311613acf5760208381860195010111613acf57565b9091613cad613cbb93604084526040840190613b6a565b916020818403910152613b36565b90565b3d15613ce9573d90613ccf82613ad4565b91613cdd6040519384613936565b82523d6000602084013e565b606090565b15613cf557565b60405162461bcd60e51b815260206004820152601060248201526f125b9d985b1a590818db185a5b48125160821b6044820152606490fd5b15613d3457565b60405162461bcd60e51b8152602060048201526016602482015275141bdb1a58de48185b1c9958591e4818db185a5b595960521b6044820152606490fd5b805482101561387e576000526007602060002091020190600090565b90604051613d9b8161391b565b82546001600160a01b031681526001830154602082015260028301546040820152600383015460608201526004909201546080830152565b8151805182546001600160a01b039091166001600160a01b03199091161782556020808201516001840155604082015160028401556060808301516003850155608090920151600484015583015160058301805460ff191691151560ff1691909117815591926006926040820151815461ff00191690151560081b61ff00161790550151910155565b15613e6357565b60405162461bcd60e51b8152602060048201526014602482015273115d995b9d08191bd95cc81b9bdd08195e1a5cdd60621b6044820152606490fd5b818110613eaa575050565b60008155600101613e9f565b81810292918115918404141715613ec957565b634e487b7160e01b600052601160045260246000fd5b613ee98154613894565b9081613ef3575050565b81601f60009311600114613f05575055565b81835260208320613f2191601f0160051c810190600101613e9f565b8082528160208120915555565b6001600160401b0381116138ea5760051b60200190565b90613f4f82613f2e565b613f5c6040519182613936565b8281528092613f6d601f1991613f2e565b0190602036910137565b60005b828110613f8657505050565b606082820152602001613f7a565b90613990613fa183613f2e565b613fae6040519182613936565b83815260208194613fc1601f1991613f2e565b019101613f77565b805182101561387e5760209160051b010190565b15613fe457565b60405162461bcd60e51b8152602060048201526019602482015278496e76616c6964206d6f64657261746f72206164647265737360381b6044820152606490fd5b91908201809211613ec957565b9190601f811161404157505050565b613990926000526020600020906020601f840160051c8301931061406d575b601f0160051c0190613e9f565b9091508190614060565b6000198114613ec95760010190565b9060405161409381613900565b6060600682946140a281613d8e565b845260ff60058201548181161515602087015260081c16151560408501520154910152565b6064909291926040516140ea602082816113e881830196878151938492016139fb565b5190200660018101809111613ec95761410a61410f92623d090094613eb6565b613eb6565b0490565b6000546001600160a01b0316330361412757565b63118cdaa760e01b6000523360045260246000fd5b6003811015613a505780156141c057600090600181146141985760029150146141745760405161416d602082613936565b6000815290565b604051614182604082613936565b600681526511195b9a595960d21b602082015290565b50506040516141a8604082613936565b60088152671058d8d95c1d195960c21b602082015290565b506040516141cf604082613936565b600781526650656e64696e6760c81b602082015290565b6000908072184f03e93ff9f4daa797ed6e38ed64bf6a1f0160401b811015614332575b806d04ee2d6d415b85acef8100000000600a921015614317575b662386f26fc10000811015614303575b6305f5e1008110156142f2575b6127108110156142e3575b60648110156142d5575b10156142ca575b600a6021600184019361426e85613ad4565b9461427c6040519687613936565b80865261428b601f1991613ad4565b013660208701378401015b60001901916f181899199a1a9b1b9c1cb0b131b232b360811b8282061a83530480156142c557600a9091614296565b505090565b60019091019061425c565b606460029104930192614255565b6127106004910493019261424b565b6305f5e10060089104930192614240565b662386f26fc1000060109104930192614233565b6d04ee2d6d415b85acef810000000060209104930192614223565b506040915072184f03e93ff9f4daa797ed6e38ed64bf6a1f0160401b810461420956fea2646970667358221220fe779ba5232aaf34bca2d3be3f00a21bd4140f0020b429993aef5684705912c864736f6c634300081c0033",
  "linkReferences": {},
  "deployedLinkReferences": {}
}