{
  "_format": "hh-sol-artifact-1",
  "contractName": "GraviInsurance",
  "sourceName": "contracts/GraviInsurance.sol",
  "abi": [
    {
      "inputs": [
        {
          "internalType": "string",
          "name": "_disasterType",
          "type": "string"
        },
        {
          "internalType": "uint256",
          "name": "_premiumRate",
          "type": "uint256"
        },
        {
          "internalType": "address",
          "name": "_graviCha",
          "type": "address"
        }
      ],
      "stateMutability": "nonpayable",
      "type": "constructor"
    },
    {
      "inputs": [
        {
          "internalType": "address",
          "name": "owner",
          "type": "address"
        }
      ],
      "name": "OwnableInvalidOwner",
      "type": "error"
    },
    {
      "inputs": [
        {
          "internalType": "address",
          "name": "account",
          "type": "address"
        }
      ],
      "name": "OwnableUnauthorizedAccount",
      "type": "error"
    },
    {
      "anonymous": false,
      "inputs": [
        {
          "indexed": true,
          "internalType": "address",
          "name": "user",
          "type": "address"
        },
        {
          "indexed": false,
          "internalType": "bytes32",
          "name": "policyId",
          "type": "bytes32"
        },
        {
          "indexed": false,
          "internalType": "uint256",
          "name": "payout",
          "type": "uint256"
        }
      ],
      "name": "ClaimApproved",
      "type": "event"
    },
    {
      "anonymous": false,
      "inputs": [
        {
          "indexed": false,
          "internalType": "address",
          "name": "moderator",
          "type": "address"
        },
        {
          "indexed": false,
          "internalType": "uint256",
          "name": "claimId",
          "type": "uint256"
        },
        {
          "indexed": false,
          "internalType": "bool",
          "name": "isApproved",
          "type": "bool"
        },
        {
          "indexed": false,
          "internalType": "uint256",
          "name": "amount",
          "type": "uint256"
        }
      ],
      "name": "ClaimAssessed",
      "type": "event"
    },
    {
      "anonymous": false,
      "inputs": [
        {
          "indexed": false,
          "internalType": "uint256",
          "name": "claimId",
          "type": "uint256"
        },
        {
          "indexed": false,
          "internalType": "enum GraviInsurance.ClaimStatus",
          "name": "claimStatus",
          "type": "uint8"
        },
        {
          "indexed": false,
          "internalType": "uint256",
          "name": "approvedClaimAmount",
          "type": "uint256"
        }
      ],
      "name": "ClaimProcessed",
      "type": "event"
    },
    {
      "anonymous": false,
      "inputs": [
        {
          "indexed": false,
          "internalType": "uint256",
          "name": "claimId",
          "type": "uint256"
        },
        {
          "indexed": false,
          "internalType": "string",
          "name": "incidentDescription",
          "type": "string"
        }
      ],
      "name": "ClaimStarted",
      "type": "event"
    },
    {
      "anonymous": false,
      "inputs": [
        {
          "indexed": false,
          "internalType": "string",
          "name": "eventId",
          "type": "string"
        }
      ],
      "name": "DisasterEventAdded",
      "type": "event"
    },
    {
      "anonymous": false,
      "inputs": [
        {
          "indexed": false,
          "internalType": "string",
          "name": "eventId",
          "type": "string"
        }
      ],
      "name": "DisasterEventModified",
      "type": "event"
    },
    {
      "anonymous": false,
      "inputs": [
        {
          "indexed": false,
          "internalType": "string",
          "name": "eventId",
          "type": "string"
        }
      ],
      "name": "DisasterEventRemoved",
      "type": "event"
    },
    {
      "anonymous": false,
      "inputs": [
        {
          "indexed": true,
          "internalType": "address",
          "name": "donor",
          "type": "address"
        },
        {
          "indexed": false,
          "internalType": "uint256",
          "name": "amount",
          "type": "uint256"
        }
      ],
      "name": "FundsDonated",
      "type": "event"
    },
    {
      "anonymous": false,
      "inputs": [
        {
          "indexed": false,
          "internalType": "address",
          "name": "moderator",
          "type": "address"
        },
        {
          "indexed": false,
          "internalType": "uint256",
          "name": "maxAmount",
          "type": "uint256"
        }
      ],
      "name": "ModeratorAdded",
      "type": "event"
    },
    {
      "anonymous": false,
      "inputs": [
        {
          "indexed": false,
          "internalType": "address",
          "name": "moderator",
          "type": "address"
        }
      ],
      "name": "ModeratorRemoved",
      "type": "event"
    },
    {
      "anonymous": false,
      "inputs": [
        {
          "indexed": true,
          "internalType": "address",
          "name": "previousOwner",
          "type": "address"
        },
        {
          "indexed": true,
          "internalType": "address",
          "name": "newOwner",
          "type": "address"
        }
      ],
      "name": "OwnershipTransferred",
      "type": "event"
    },
    {
      "anonymous": false,
      "inputs": [
        {
          "indexed": true,
          "internalType": "address",
          "name": "user",
          "type": "address"
        },
        {
          "indexed": false,
          "internalType": "bytes32",
          "name": "policyId",
          "type": "bytes32"
        },
        {
          "indexed": false,
          "internalType": "uint256",
          "name": "coverageAmount",
          "type": "uint256"
        },
        {
          "indexed": false,
          "internalType": "uint256",
          "name": "premium",
          "type": "uint256"
        },
        {
          "indexed": false,
          "internalType": "uint256",
          "name": "startTime",
          "type": "uint256"
        },
        {
          "indexed": false,
          "internalType": "uint256",
          "name": "endTime",
          "type": "uint256"
        }
      ],
      "name": "PolicyPurchased",
      "type": "event"
    },
    {
      "inputs": [
        {
          "internalType": "string",
          "name": "eventName",
          "type": "string"
        },
        {
          "internalType": "string",
          "name": "eventDescription",
          "type": "string"
        },
        {
          "internalType": "uint256",
          "name": "disasterDate",
          "type": "uint256"
        }
      ],
      "name": "addDisasterEvent",
      "outputs": [],
      "stateMutability": "nonpayable",
      "type": "function"
    },
    {
      "inputs": [
        {
          "internalType": "address",
          "name": "_moderatorAddress",
          "type": "address"
        },
        {
          "internalType": "uint256",
          "name": "maxAmount",
          "type": "uint256"
        }
      ],
      "name": "addModeratorToPool",
      "outputs": [],
      "stateMutability": "nonpayable",
      "type": "function"
    },
    {
      "inputs": [
        {
          "internalType": "uint256",
          "name": "claimId",
          "type": "uint256"
        },
        {
          "internalType": "bool",
          "name": "isApproved",
          "type": "bool"
        },
        {
          "internalType": "uint256",
          "name": "amount",
          "type": "uint256"
        }
      ],
      "name": "assessClaim",
      "outputs": [],
      "stateMutability": "nonpayable",
      "type": "function"
    },
    {
      "inputs": [
        {
          "internalType": "uint256",
          "name": "startTime",
          "type": "uint256"
        },
        {
          "internalType": "uint256",
          "name": "coveragePeriod",
          "type": "uint256"
        },
        {
          "internalType": "string",
          "name": "propertyAddress",
          "type": "string"
        },
        {
          "internalType": "uint256",
          "name": "propertyValue",
          "type": "uint256"
        }
      ],
      "name": "buyInsurance",
      "outputs": [
        {
          "internalType": "bytes32",
          "name": "",
          "type": "bytes32"
        }
      ],
      "stateMutability": "payable",
      "type": "function"
    },
    {
      "inputs": [
        {
          "internalType": "uint256",
          "name": "premium",
          "type": "uint256"
        }
      ],
      "name": "calculateCoverageAmountFromPremium",
      "outputs": [
        {
          "internalType": "uint256",
          "name": "coverageAmount",
          "type": "uint256"
        }
      ],
      "stateMutability": "pure",
      "type": "function"
    },
    {
      "inputs": [
        {
          "internalType": "string",
          "name": "propertyAddress",
          "type": "string"
        },
        {
          "internalType": "uint256",
          "name": "propertyValue",
          "type": "uint256"
        },
        {
          "internalType": "uint256",
          "name": "coveragePeriod",
          "type": "uint256"
        }
      ],
      "name": "calculatePremium",
      "outputs": [
        {
          "internalType": "uint256",
          "name": "premium",
          "type": "uint256"
        }
      ],
      "stateMutability": "pure",
      "type": "function"
    },
    {
      "inputs": [
        {
          "internalType": "uint256",
          "name": "",
          "type": "uint256"
        }
      ],
      "name": "claimRecords",
      "outputs": [
        {
          "internalType": "uint256",
          "name": "claimId",
          "type": "uint256"
        },
        {
          "internalType": "bytes32",
          "name": "policyId",
          "type": "bytes32"
        },
        {
          "internalType": "string",
          "name": "eventId",
          "type": "string"
        },
        {
          "internalType": "uint256",
          "name": "approvedClaimAmount",
          "type": "uint256"
        },
        {
          "internalType": "uint256",
          "name": "assessmentStart",
          "type": "uint256"
        },
        {
          "internalType": "uint256",
          "name": "assessmentEnd",
          "type": "uint256"
        },
        {
          "internalType": "enum GraviInsurance.ClaimStatus",
          "name": "status",
          "type": "uint8"
        },
        {
          "internalType": "string",
          "name": "incidentDescription",
          "type": "string"
        }
      ],
      "stateMutability": "view",
      "type": "function"
    },
    {
      "inputs": [
        {
          "internalType": "string",
          "name": "",
          "type": "string"
        }
      ],
      "name": "disasterEvents",
      "outputs": [
        {
          "internalType": "string",
          "name": "eventId",
          "type": "string"
        },
        {
          "internalType": "string",
          "name": "name",
          "type": "string"
        },
        {
          "internalType": "uint256",
          "name": "disasterDate",
          "type": "uint256"
        },
        {
          "internalType": "string",
          "name": "eventDescription",
          "type": "string"
        }
      ],
      "stateMutability": "view",
      "type": "function"
    },
    {
      "inputs": [],
      "name": "disasterType",
      "outputs": [
        {
          "internalType": "string",
          "name": "",
          "type": "string"
        }
      ],
      "stateMutability": "view",
      "type": "function"
    },
    {
      "inputs": [],
      "name": "donate",
      "outputs": [
        {
          "internalType": "uint256",
          "name": "tokensReceived",
          "type": "uint256"
        }
      ],
      "stateMutability": "payable",
      "type": "function"
    },
    {
      "inputs": [],
      "name": "donationRewardRate",
      "outputs": [
        {
          "internalType": "uint256",
          "name": "",
          "type": "uint256"
        }
      ],
      "stateMutability": "view",
      "type": "function"
    },
    {
      "inputs": [
        {
          "internalType": "uint256",
          "name": "",
          "type": "uint256"
        }
      ],
      "name": "donors",
      "outputs": [
        {
          "internalType": "address",
          "name": "",
          "type": "address"
        }
      ],
      "stateMutability": "view",
      "type": "function"
    },
    {
      "inputs": [
        {
          "internalType": "address",
          "name": "user",
          "type": "address"
        }
      ],
      "name": "fetchClaimIds",
      "outputs": [
        {
          "internalType": "uint256[]",
          "name": "",
          "type": "uint256[]"
        }
      ],
      "stateMutability": "view",
      "type": "function"
    },
    {
      "inputs": [
        {
          "internalType": "address",
          "name": "user",
          "type": "address"
        }
      ],
      "name": "fetchInsuranceIds",
      "outputs": [
        {
          "internalType": "bytes32[]",
          "name": "",
          "type": "bytes32[]"
        }
      ],
      "stateMutability": "view",
      "type": "function"
    },
    {
      "inputs": [],
      "name": "getAllClaims",
      "outputs": [
        {
          "components": [
            {
              "internalType": "uint256",
              "name": "claimId",
              "type": "uint256"
            },
            {
              "internalType": "bytes32",
              "name": "policyId",
              "type": "bytes32"
            },
            {
              "internalType": "string",
              "name": "eventId",
              "type": "string"
            },
            {
              "internalType": "uint256",
              "name": "approvedClaimAmount",
              "type": "uint256"
            },
            {
              "internalType": "uint256",
              "name": "assessmentStart",
              "type": "uint256"
            },
            {
              "internalType": "uint256",
              "name": "assessmentEnd",
              "type": "uint256"
            },
            {
              "internalType": "enum GraviInsurance.ClaimStatus",
              "name": "status",
              "type": "uint8"
            },
            {
              "internalType": "string",
              "name": "incidentDescription",
              "type": "string"
            },
            {
              "components": [
                {
                  "components": [
                    {
                      "internalType": "address",
                      "name": "moderatorAddress",
                      "type": "address"
                    },
                    {
                      "internalType": "uint256",
                      "name": "maxApprovalAmount",
                      "type": "uint256"
                    },
                    {
                      "internalType": "uint256",
                      "name": "totalClaimsAssessed",
                      "type": "uint256"
                    },
                    {
                      "internalType": "uint256",
                      "name": "totalClaimsApproved",
                      "type": "uint256"
                    },
                    {
                      "internalType": "uint256",
                      "name": "totalApprovedAmount",
                      "type": "uint256"
                    }
                  ],
                  "internalType": "struct GraviInsurance.Moderator",
                  "name": "moderator",
                  "type": "tuple"
                },
                {
                  "internalType": "bool",
                  "name": "hasDecided",
                  "type": "bool"
                },
                {
                  "internalType": "bool",
                  "name": "isApproved",
                  "type": "bool"
                },
                {
                  "internalType": "uint256",
                  "name": "approvedAmount",
                  "type": "uint256"
                }
              ],
              "internalType": "struct GraviInsurance.ModeratorInfo[]",
              "name": "moderatorTeam",
              "type": "tuple[]"
            }
          ],
          "internalType": "struct GraviInsurance.ClaimRecord[]",
          "name": "",
          "type": "tuple[]"
        }
      ],
      "stateMutability": "view",
      "type": "function"
    },
    {
      "inputs": [],
      "name": "getAllDisasterEvents",
      "outputs": [
        {
          "internalType": "string[]",
          "name": "eventIds",
          "type": "string[]"
        }
      ],
      "stateMutability": "view",
      "type": "function"
    },
    {
      "inputs": [],
      "name": "getAllDonors",
      "outputs": [
        {
          "internalType": "address[]",
          "name": "",
          "type": "address[]"
        },
        {
          "internalType": "uint256[]",
          "name": "",
          "type": "uint256[]"
        }
      ],
      "stateMutability": "view",
      "type": "function"
    },
    {
      "inputs": [
        {
          "internalType": "uint256",
          "name": "claimId",
          "type": "uint256"
        }
      ],
      "name": "getClaimDetails",
      "outputs": [
        {
          "internalType": "uint256",
          "name": "_claimId",
          "type": "uint256"
        },
        {
          "internalType": "bytes32",
          "name": "_policyId",
          "type": "bytes32"
        },
        {
          "internalType": "string",
          "name": "_eventId",
          "type": "string"
        },
        {
          "internalType": "uint256",
          "name": "_approvedClaimAmount",
          "type": "uint256"
        },
        {
          "internalType": "uint256",
          "name": "_assessmentStart",
          "type": "uint256"
        },
        {
          "internalType": "uint256",
          "name": "_assessmentEnd",
          "type": "uint256"
        },
        {
          "internalType": "string",
          "name": "_status",
          "type": "string"
        },
        {
          "internalType": "string",
          "name": "_incidentDescription",
          "type": "string"
        },
        {
          "internalType": "address[]",
          "name": "moderatorAddresses",
          "type": "address[]"
        },
        {
          "internalType": "bool[]",
          "name": "hasDecidedList",
          "type": "bool[]"
        },
        {
          "internalType": "bool[]",
          "name": "isApprovedList",
          "type": "bool[]"
        },
        {
          "internalType": "uint256[]",
          "name": "approvedAmounts",
          "type": "uint256[]"
        }
      ],
      "stateMutability": "view",
      "type": "function"
    },
    {
      "inputs": [
        {
          "internalType": "uint256",
          "name": "claimId",
          "type": "uint256"
        }
      ],
      "name": "getClaimModerators",
      "outputs": [
        {
          "internalType": "address[]",
          "name": "",
          "type": "address[]"
        }
      ],
      "stateMutability": "view",
      "type": "function"
    },
    {
      "inputs": [
        {
          "internalType": "string",
          "name": "eventId",
          "type": "string"
        }
      ],
      "name": "getDisasterEvent",
      "outputs": [
        {
          "internalType": "string",
          "name": "eventName",
          "type": "string"
        },
        {
          "internalType": "string",
          "name": "eventDescription",
          "type": "string"
        },
        {
          "internalType": "uint256",
          "name": "disasterDate",
          "type": "uint256"
        }
      ],
      "stateMutability": "view",
      "type": "function"
    },
    {
      "inputs": [],
      "name": "getDonationRewardRate",
      "outputs": [
        {
          "internalType": "uint256",
          "name": "",
          "type": "uint256"
        }
      ],
      "stateMutability": "view",
      "type": "function"
    },
    {
      "inputs": [],
      "name": "getTopDonors",
      "outputs": [
        {
          "internalType": "address[]",
          "name": "topDonors",
          "type": "address[]"
        },
        {
          "internalType": "uint256[]",
          "name": "topAmounts",
          "type": "uint256[]"
        }
      ],
      "stateMutability": "view",
      "type": "function"
    },
    {
      "inputs": [],
      "name": "getUserClaims",
      "outputs": [
        {
          "internalType": "uint256[]",
          "name": "claimIds",
          "type": "uint256[]"
        },
        {
          "internalType": "bytes32[]",
          "name": "policyIds",
          "type": "bytes32[]"
        },
        {
          "internalType": "address[][]",
          "name": "moderatorList",
          "type": "address[][]"
        },
        {
          "internalType": "string[]",
          "name": "statuses",
          "type": "string[]"
        },
        {
          "internalType": "string[]",
          "name": "descriptions",
          "type": "string[]"
        }
      ],
      "stateMutability": "view",
      "type": "function"
    },
    {
      "inputs": [],
      "name": "getUserPolicies",
      "outputs": [
        {
          "internalType": "bytes32[]",
          "name": "policyIds",
          "type": "bytes32[]"
        },
        {
          "internalType": "address[]",
          "name": "policyHolders",
          "type": "address[]"
        },
        {
          "internalType": "uint256[]",
          "name": "maxCoverageAmounts",
          "type": "uint256[]"
        },
        {
          "internalType": "uint256[]",
          "name": "premiums",
          "type": "uint256[]"
        },
        {
          "internalType": "uint256[]",
          "name": "startTimes",
          "type": "uint256[]"
        },
        {
          "internalType": "uint256[]",
          "name": "endTimes",
          "type": "uint256[]"
        },
        {
          "internalType": "bool[]",
          "name": "isClaimedList",
          "type": "bool[]"
        },
        {
          "internalType": "string[]",
          "name": "propertyAddresses",
          "type": "string[]"
        },
        {
          "internalType": "uint256[]",
          "name": "propertyValues",
          "type": "uint256[]"
        }
      ],
      "stateMutability": "view",
      "type": "function"
    },
    {
      "inputs": [
        {
          "internalType": "bytes32",
          "name": "policyId",
          "type": "bytes32"
        }
      ],
      "name": "getUserPolicy",
      "outputs": [
        {
          "internalType": "bytes32",
          "name": "_policyId",
          "type": "bytes32"
        },
        {
          "internalType": "address",
          "name": "_policyHolder",
          "type": "address"
        },
        {
          "internalType": "uint256",
          "name": "_maxCoverageAmount",
          "type": "uint256"
        },
        {
          "internalType": "uint256",
          "name": "_premiumPaid",
          "type": "uint256"
        },
        {
          "internalType": "uint256",
          "name": "_startTime",
          "type": "uint256"
        },
        {
          "internalType": "uint256",
          "name": "_endTime",
          "type": "uint256"
        },
        {
          "internalType": "bool",
          "name": "_isClaimed",
          "type": "bool"
        },
        {
          "internalType": "string",
          "name": "_propertyAddress",
          "type": "string"
        },
        {
          "internalType": "uint256",
          "name": "_propertyValue",
          "type": "uint256"
        }
      ],
      "stateMutability": "view",
      "type": "function"
    },
    {
      "inputs": [],
      "name": "graviCha",
      "outputs": [
        {
          "internalType": "contract IGraviCha",
          "name": "",
          "type": "address"
        }
      ],
      "stateMutability": "view",
      "type": "function"
    },
    {
      "inputs": [
        {
          "internalType": "address",
          "name": "",
          "type": "address"
        }
      ],
      "name": "moderators",
      "outputs": [
        {
          "internalType": "address",
          "name": "moderatorAddress",
          "type": "address"
        },
        {
          "internalType": "uint256",
          "name": "maxApprovalAmount",
          "type": "uint256"
        },
        {
          "internalType": "uint256",
          "name": "totalClaimsAssessed",
          "type": "uint256"
        },
        {
          "internalType": "uint256",
          "name": "totalClaimsApproved",
          "type": "uint256"
        },
        {
          "internalType": "uint256",
          "name": "totalApprovedAmount",
          "type": "uint256"
        }
      ],
      "stateMutability": "view",
      "type": "function"
    },
    {
      "inputs": [
        {
          "internalType": "string",
          "name": "eventId",
          "type": "string"
        },
        {
          "internalType": "string",
          "name": "newName",
          "type": "string"
        },
        {
          "internalType": "string",
          "name": "newEventDescription",
          "type": "string"
        },
        {
          "internalType": "uint256",
          "name": "disasterDate",
          "type": "uint256"
        }
      ],
      "name": "modifyDisasterEvent",
      "outputs": [],
      "stateMutability": "nonpayable",
      "type": "function"
    },
    {
      "inputs": [],
      "name": "nextClaimId",
      "outputs": [
        {
          "internalType": "uint256",
          "name": "",
          "type": "uint256"
        }
      ],
      "stateMutability": "view",
      "type": "function"
    },
    {
      "inputs": [],
      "name": "nextEventId",
      "outputs": [
        {
          "internalType": "uint256",
          "name": "",
          "type": "uint256"
        }
      ],
      "stateMutability": "view",
      "type": "function"
    },
    {
      "inputs": [],
      "name": "owner",
      "outputs": [
        {
          "internalType": "address",
          "name": "",
          "type": "address"
        }
      ],
      "stateMutability": "view",
      "type": "function"
    },
    {
      "inputs": [
        {
          "internalType": "uint256",
          "name": "claimId",
          "type": "uint256"
        }
      ],
      "name": "payoutClaim",
      "outputs": [],
      "stateMutability": "nonpayable",
      "type": "function"
    },
    {
      "inputs": [
        {
          "internalType": "bytes32",
          "name": "",
          "type": "bytes32"
        }
      ],
      "name": "policies",
      "outputs": [
        {
          "internalType": "bytes32",
          "name": "policyId",
          "type": "bytes32"
        },
        {
          "internalType": "address",
          "name": "policyHolder",
          "type": "address"
        },
        {
          "internalType": "uint256",
          "name": "maxCoverageAmount",
          "type": "uint256"
        },
        {
          "internalType": "uint256",
          "name": "premiumPaid",
          "type": "uint256"
        },
        {
          "internalType": "uint256",
          "name": "startTime",
          "type": "uint256"
        },
        {
          "internalType": "uint256",
          "name": "endTime",
          "type": "uint256"
        },
        {
          "internalType": "bool",
          "name": "isClaimed",
          "type": "bool"
        },
        {
          "internalType": "string",
          "name": "propertyAddress",
          "type": "string"
        },
        {
          "internalType": "uint256",
          "name": "propertyValue",
          "type": "uint256"
        }
      ],
      "stateMutability": "view",
      "type": "function"
    },
    {
      "inputs": [],
      "name": "premiumRate",
      "outputs": [
        {
          "internalType": "uint256",
          "name": "",
          "type": "uint256"
        }
      ],
      "stateMutability": "view",
      "type": "function"
    },
    {
      "inputs": [
        {
          "internalType": "uint256",
          "name": "claimId",
          "type": "uint256"
        }
      ],
      "name": "processClaim",
      "outputs": [],
      "stateMutability": "nonpayable",
      "type": "function"
    },
    {
      "inputs": [
        {
          "internalType": "string",
          "name": "eventId",
          "type": "string"
        }
      ],
      "name": "removeDisasterEvent",
      "outputs": [],
      "stateMutability": "nonpayable",
      "type": "function"
    },
    {
      "inputs": [
        {
          "internalType": "address",
          "name": "moderator",
          "type": "address"
        }
      ],
      "name": "removeModeratorFromPool",
      "outputs": [],
      "stateMutability": "nonpayable",
      "type": "function"
    },
    {
      "inputs": [],
      "name": "renounceOwnership",
      "outputs": [],
      "stateMutability": "nonpayable",
      "type": "function"
    },
    {
      "inputs": [
        {
          "internalType": "uint256",
          "name": "newRate",
          "type": "uint256"
        }
      ],
      "name": "setDonationRewardRate",
      "outputs": [],
      "stateMutability": "nonpayable",
      "type": "function"
    },
    {
      "inputs": [
        {
          "internalType": "string",
          "name": "eventId",
          "type": "string"
        },
        {
          "internalType": "bytes32",
          "name": "policyId",
          "type": "bytes32"
        },
        {
          "internalType": "string",
          "name": "incidentDescription",
          "type": "string"
        }
      ],
      "name": "startAClaim",
      "outputs": [
        {
          "internalType": "bool",
          "name": "",
          "type": "bool"
        }
      ],
      "stateMutability": "nonpayable",
      "type": "function"
    },
    {
      "inputs": [],
      "name": "totalPoolFunds",
      "outputs": [
        {
          "internalType": "uint256",
          "name": "",
          "type": "uint256"
        }
      ],
      "stateMutability": "view",
      "type": "function"
    },
    {
      "inputs": [
        {
          "internalType": "address payable",
          "name": "recipient",
          "type": "address"
        },
        {
          "internalType": "uint256",
          "name": "amount",
          "type": "uint256"
        }
      ],
      "name": "transferEther",
      "outputs": [],
      "stateMutability": "payable",
      "type": "function"
    },
    {
      "inputs": [
        {
          "internalType": "address",
          "name": "newOwner",
          "type": "address"
        }
      ],
      "name": "transferOwnership",
      "outputs": [],
      "stateMutability": "nonpayable",
      "type": "function"
    },
    {
      "inputs": [
        {
          "internalType": "address",
          "name": "",
          "type": "address"
        }
      ],
      "name": "userRecords",
      "outputs": [
        {
          "internalType": "uint256",
          "name": "donationTotal",
          "type": "uint256"
        }
      ],
      "stateMutability": "view",
      "type": "function"
    },
    {
      "stateMutability": "payable",
      "type": "receive"
    }
  ],
  "bytecode": "0x6080604052346102fc5761461b8038038061001981610316565b9283398101906060818303126102fc5780516001600160401b0381116102fc57810182601f820112156102fc578051906001600160401b03821161028e5761006a601f8301601f1916602001610316565b93828552602083830101116102fc5760005b828110610301575050602060009184010152604060208201519101519060018060a01b0382168092036102fc5733156102e65760008054336001600160a01b03198216811783556040519290916001600160a01b0316907f8be0079c531659141344cd1fd0a4f28419497f9722a3daafe3b4186f6b6457e09080a36001600a556001600c55612710600d5581156102a4575082516001600160401b03811161028e57600154600181811c91168015610284575b602082101461026e57601f8111610209575b506020601f82116001146101a25781929394600092610197575b50508160011b916000199060031b1c1916176001555b600255600480546001600160a01b0319169190911790556040516142df908161033c8239f35b01519050388061015b565b601f198216906001600052806000209160005b8181106101f1575095836001959697106101d8575b505050811b01600155610171565b015160001960f88460031b161c191690553880806101ca565b9192602060018192868b0151815501940192016101b5565b60016000527fb10e2d527612073b26eecdfd717e6a320cf44b4afac2b0732d9fcbe2b7fa0cf6601f830160051c81019160208410610264575b601f0160051c01905b8181106102585750610141565b6000815560010161024b565b9091508190610242565b634e487b7160e01b600052602260045260246000fd5b90607f169061012f565b634e487b7160e01b600052604160045260246000fd5b62461bcd60e51b815260206004820152601460248201527f496e76616c6964207072656d69756d20726174650000000000000000000000006044820152606490fd5b631e4fbdf760e01b600052600060045260246000fd5b600080fd5b8060208092840101518282880101520161007c565b6040519190601f01601f191682016001600160401b0381118382101761028e5760405256fe6080604052600436101561002a575b361561001957600080fd5b61002534600354613f79565b600355005b6000803560e01c806305b1137b146136f2578063098464f31461363f5780630d13fa5a14613406578063100772cb146132d65780631120fe7c14612fd557806314d0f1ba14612f6857806317b46b1b14612ea85780631ef4f7bc14612dd9578063216e14fb14612b3d5780632425b2e9146128d757806333c7072e146124c65780633defbf281461240d5780634abfa163146123c95780634e8402f31461201d57806353591ad614611a395780635b23c27d14611d825780635d0040d314611d6457806365eaf54814611d2157806366a3e4c814611a57578063678f935014611a3957806369b5198a146118995780636a0ecf5014611851578063715018a6146117f75780637257dfc9146114e157806377c8add8146114435780638da5cb5b1461141c57806398e36b041461137d5780639b6196a3146112b25780639f9d903a14611294578063a0021cf114611276578063a591a0f414611219578063b04869ae146111f0578063b1998a8f1461117b578063ba069108146110bd578063bac71e0014610ede578063bcd4703214610843578063c06e34d21461075e578063d6387ed81461058a578063dabd2c801461054d578063ddbfd8ef146104dd578063ed88c68e1461034a578063f019602e146102c0578063f1139d0f146102a25763f2fde38b1461021a575061000e565b3461029f57602036600319011261029f57610233613a0d565b61023b614067565b6001600160a01b0316801561028b5781546001600160a01b03198116821783556001600160a01b03167f8be0079c531659141344cd1fd0a4f28419497f9722a3daafe3b4186f6b6457e08380a380f35b631e4fbdf760e01b82526004829052602482fd5b80fd5b503461029f578060031936011261029f576020600354604051908152f35b503461029f57602036600319011261029f576001600160a01b036102e2613a0d565b168152600660205260408120604051918260208354918281520192825260208220915b818110610334576103308561031c8187038261388a565b604051918291602083526020830190613a8a565b0390f35b8254845260209093019260019283019201610305565b508060031936011261029f5734156104a85761036834600354613f79565b6003553381526006602052600260408220015415610454575b33815260066020526002604082200161039b348254613f79565b9055600454600d5482916001600160a01b0316906103b99034613e0a565b813b15610450576040516340c10f1960e01b8152336004820152602481019190915291908290604490829084905af1801561044557610435575b6040513481527fd143b3fca8f81682799e935736170faff446dc630e9babfdc72e4ae53c181a2660203392a2602061042d600d5434613e0a565b604051908152f35b8161043f9161388a565b386103f3565b6040513d84823e3d90fd5b5050fd5b600754600160401b811015610494578060016104739201600755613b8a565b81546001600160a01b0360039290921b91821b19163390911b179055610381565b634e487b7160e01b82526041600452602482fd5b60405162461bcd60e51b815260206004820152600d60248201526c09aeae6e840e6cadcc8408aa89609b1b6044820152606490fd5b503461029f57602036600319011261029f576040906004358152600560205220805461033060018060a01b03600184015416926002810154906003810154600482015460058301549060ff60068501541692600861053d600787016138ab565b95015495604051998a998a6139ba565b503461029f57602036600319011261029f576020906002906040906001600160a01b03610578613a0d565b16815260068452200154604051908152f35b503461029f578060031936011261029f57600754600a81101561075757805b6105b281613e99565b916105bc82613e99565b936105c682613e99565b906105d083613e99565b92815b8181106106fb5750815b81811061063b5750505b8381106105fd5760405180610330888883613bea565b6001906001600160a01b036106128285613f1d565b511661061e8288613f1d565b526106298185613f1d565b516106348289613f1d565b52016105e7565b600181018082116106e7575b82811061065757506001016105dd565b6001906106648388613f1d565b5161066f8289613f1d565b511161067c575b01610647565b6106868188613f1d565b516106918489613f1d565b5161069c838a613f1d565b526106a78489613f1d565b52818060a01b036106b88288613f1d565b5116828060a01b036106ca8589613f1d565b51166106d68389613f1d565b526106e18488613f1d565b52610676565b634e487b7160e01b84526011600452602484fd5b80610707600192613b8a565b838060a01b0391549060031b1c1661071f8287613f1d565b5261072981613b8a565b838060a01b0391549060031b1c168452600660205260026040852001546107508288613f1d565b52016105d3565b600a6105a9565b503461029f57602036600319011261029f57610778613a0d565b610780614067565b6001600160a01b0316610794811515613f31565b8082526008602052600160408320015415610803576020817f7a9f1e23d5426b34819d173153d59084cc3578d5a129b80bb27df683ac6b2278928452600882526107f96040852060046000918281558260018201558260028201558260038201550155565b604051908152a180f35b60405162461bcd60e51b8152602060048201526018602482015277135bd9195c985d1bdc88191bd95cc81b9bdd08195e1a5cdd60421b6044820152606490fd5b503461029f57606036600319011261029f576004356001600160401b038111610eda57610874903690600401613a43565b6024356044356001600160401b038111610ed657610896903690600401613a43565b906108c96108c260405160208187516108b28183858c0161394f565b81016009815203019020546137e8565b1515613db0565b808452600560205260408420600101546001600160a01b03163303610e99578084526005602052604084206040519061090182613822565b8054825260018060a01b036001820154166020830152600281015460408301526003810154606083015261097c6004820154916080840192835260058101549360a08101948552610100600860ff6006850154169360c08401941515855261096b600782016138ab565b60e085015201549101525115613c81565b514210610e5c57514211610e22576203f480420192834211610e0e57600c54916109a583613fcb565b600c556040516020956109b8878361388a565b878252604051936109c885613822565b8585528785019384526040850190815260608501898152608086019142835260a0870193845260c08701948b86528960e0890152610100880152600b54600160401b811015610de657806001610a219201600b556137b3565b969096610dfa57875187555160018701555180516001600160401b038111610de657610a5d81610a5460028a01546137e8565b60028a01613f86565b8a918c601f8311600114610d7857610a8c93909183610cdb575b50508160011b916000199060031b1c19161790565b60028601555b5160038501555160048401555160058301556006820190516003811015610d645760ff801983541691161790556007810160e08301518051906001600160401b038211610d5057610aed82610ae785546137e8565b85613f86565b8790601f8311600114610ce65782610100959360089593610b23938d92610cdb5750508160011b916000199060031b1c19161790565b90555b0191015190815191600160401b8311610cc75785908254848455808510610c27575b50019086528486208587925b848410610c085750503387525050600684525060408420600101805494600160401b861015610bf45750610bcb610bb486849360017f5decab71e0179c4a357e5f497297b72c7f2271c2350638169cc1d509062adc3a9899018155613ba5565b819391549060031b91821b91600019901b19161790565b9055610be860405192839283526040868401526040830190613972565b0390a160405160018152f35b634e487b7160e01b81526041600452602490fd5b60019181610c196007935186613d27565b019201920191908690610b54565b80919250600702906007820403610cb35783600702600781048503610c9f57838952878920889392810191015b818110610c615750610b48565b600791929350610c898160046000918281558260018201558260028201558260038201550155565b8960058201558960068201550190879291610c54565b634e487b7160e01b89526011600452602489fd5b634e487b7160e01b88526011600452602488fd5b634e487b7160e01b87526041600452602487fd5b015190503880610a77565b838a52888a209190601f1984168b5b8b828210610d3a57505092600192859261010098966008989610610d21575b505050811b019055610b26565b015160001960f88460031b161c19169055388080610d14565b6001859682939686015181550195019301610cf5565b634e487b7160e01b89526041600452602489fd5b634e487b7160e01b88526021600452602488fd5b5091600288018d528b8d20908d935b8d601f1985168610610dcd57506001945083601f19811610610db4575b505050811b016002860155610a92565b015160001960f88460031b161c19169055388080610da4565b8282015184559485019460019093019290910190610d87565b634e487b7160e01b8c52604160045260248cfd5b634e487b7160e01b8c5260048c905260248cfd5b634e487b7160e01b85526011600452602485fd5b60405162461bcd60e51b8152602060048201526012602482015271141bdb1a58de481a185cc8195e1c1a5c995960721b6044820152606490fd5b60405162461bcd60e51b8152602060048201526015602482015274506f6c696379206e6f74207965742061637469766560581b6044820152606490fd5b60405162461bcd60e51b81526020600482015260156024820152742737ba103a3432903837b634b1bc903437b63232b960591b6044820152606490fd5b8380fd5b5080fd5b503461029f57602036600319011261029f57600435801515806110b2575b610f0590613c42565b600019810190811161109e57610f1a906137b3565b50906008820190815491610f2d83613e99565b92610f3781613e99565b90610f4181613e99565b92610f4b82613e99565b945b82811061103a5750505084549360018601549560038101546004820154906005830154600684015460ff16610f8190614090565b92610f8e600286016138ab565b94600701610f9b906138ab565b946040519b8c9b8c5260208c015260408b0161018090526101808b01610fc091613972565b9260608b015260808a015260a089015287810360c0890152610fe191613972565b86810360e0880152610ff291613972565b85810361010087015261100491613abe565b84810361012086015261101691613b54565b83810361014085015261102891613b54565b82810361016084015261033091613a8a565b80606061105261104c60019486613cc6565b50613fda565b838060a01b0381515116611066848c613f1d565b52602081015115156110788489613f1d565b526040810151151561108a848a613f1d565b5201516110978289613f1d565b5201610f4d565b634e487b7160e01b82526011600452602482fd5b50600c548110610efc565b503461029f57602036600319011261029f57600435906001600160401b03821161029f5761116361112560206110f63660048701613a43565b604051906111146108c28251938581818601966108b281838a61394f565b60405193849283925192839161394f565b81016009815203019020600281015461117161114f6003611148600186016138ab565b94016138ab565b604051948594606086526060860190613972565b908482036020860152613972565b9060408301520390f35b503461029f57602036600319011261029f576001600160a01b0361119d613a0d565b168152600660205260016040822001604051918260208354918281520192825260208220915b8181106111da576103308561031c8187038261388a565b82548452602090930192600192830192016111c3565b503461029f578060031936011261029f576004546040516001600160a01b039091168152602090f35b503461029f57602036600319011261029f57600435611236614067565b801561124257600d5580f35b60405162461bcd60e51b815260206004820152600c60248201526b496e76616c6964207261746560a01b6044820152606490fd5b503461029f578060031936011261029f576020600c54604051908152f35b503461029f578060031936011261029f576020600a54604051908152f35b503461029f578060031936011261029f57600a54600019810190811161109e576112db81613ee8565b91805b8281106112fb576040516020808252819061033090820187613afb565b60018101808211611369579061131260019261413a565b61134d60246040518093634556542360e01b602083015261133c815180926020868601910161394f565b81010301601f19810183528261388a565b6113578287613f1d565b526113628186613f1d565b50016112de565b634e487b7160e01b83526011600452602483fd5b503461029f578060031936011261029f5760075461139a81613e99565b906113a481613e99565b92805b8281106113c05750505061033060405192839283613bea565b806113cc600192613b8a565b838060a01b0391549060031b1c166113e48287613f1d565b526113ee81613b8a565b838060a01b0391549060031b1c168352600660205260026040842001546114158288613f1d565b52016113a7565b503461029f578060031936011261029f57546040516001600160a01b039091168152602090f35b503461029f57602036600319011261029f57600435801515806114d6575b61146a90613c42565b600019810190811161109e576114816008916137b3565b500180549061148f82613e99565b925b8281106114ae576040516020808252819061033090820187613abe565b806114bb60019284613cc6565b50828060a01b039054166114cf8287613f1d565b5201611491565b50600c548110611461565b503461029f57602036600319011261029f57600435801515806117ec575b61150890613c42565b60001981018181116113695761151d906137b3565b50906006820160ff81541660038110156117d85761179957600883018054906003821061173d57859286938360011c9060018201809211610c9f57885b8581106116e557508895811580156116be575b50501061166a57600160ff19825416179055826003860155855b8281106115d3575050507f131884885e3b15c22fcaa4e2b49df807c03ab9e54bc149f6447e3c9166ce881491606091604051918252600160208301526040820152a15b60054291015580f35b806115e361104c60019385613cc6565b6040810151611617575b828060a01b0390515116885260086020526002604089200161160f8154613fcb565b905501611587565b828060a01b038151511689526008602052600360408a20016116398154613fcb565b90556060810151838060a01b03825151168a526008602052611663600460408c2001918254613f79565b90556115ed565b9050606092507f131884885e3b15c22fcaa4e2b49df807c03ab9e54bc149f6447e3c9166ce8814939150600260ff1982541617905584600385015560405190815260026020820152846040820152a16115ca565b909196506116d15785900494388061156d565b634e487b7160e01b89526012600452602489fd5b6116f261104c8287613cc6565b6020810151151580611730575b61170d575b5060010161155a565b9160019197606061172061172993613fcb565b94015190613f79565b9690611704565b50604081015115156116ff565b60405162461bcd60e51b815260206004820152602e60248201527f4e6f7420656e6f756768206d6f64657261746f7273206861766520617373657360448201526d736564207468697320636c61696d60901b6064820152608490fd5b60405162461bcd60e51b815260206004820152601760248201527610db185a5b48185b1c9958591e48199a5b985b1a5e9959604a1b6044820152606490fd5b634e487b7160e01b85526021600452602485fd5b50600c5481106114ff565b503461029f578060031936011261029f57611810614067565b80546001600160a01b03198116825581906001600160a01b03167f8be0079c531659141344cd1fd0a4f28419497f9722a3daafe3b4186f6b6457e08280a380f35b503461029f57602036600319011261029f576004359060058202918083046005149015171561188557602082604051908152f35b634e487b7160e01b81526011600452602490fd5b503461029f57604036600319011261029f576118b3613a0d565b6024356118be614067565b6001600160a01b038216916118d4831515613f31565b81156119de578284526008602052600160408520015461199e577f7100a86ecf94bef5c32984e74b6847c32372ee773dd408da230116e910b2f2749260046040519161191f8361386f565b808352602080840186815260408086018a8152606087018b8152608088018c8152958c5260088552828c20975188546001600160a01b0319166001600160a01b03918216178955935160018901559051600288015551600387015592519390940192909255805193909216835282019290925290819081015b0390a180f35b60405162461bcd60e51b81526020600482015260186024820152774d6f64657261746f7220616c72656164792065786973747360401b6044820152606490fd5b60405162461bcd60e51b815260206004820152602d60248201527f4d617820617070726f76616c20616d6f756e74206d757374206265206772656160448201526c746572207468616e207a65726f60981b6064820152608490fd5b503461029f578060031936011261029f576020600d54604051908152f35b503461029f57608036600319011261029f576004356001600160401b038111610eda57611a88903690600401613a43565b6024356001600160401b038111611d1d57611aa7903690600401613bbd565b906044356001600160401b038111611d1957611ac7903690600401613bbd565b9091611ad1614067565b611b046020604051611af36108c28951928481818d01956108b281838961394f565b604051809381928a5192839161394f565b810160098152030190209360018501916001600160401b038211611d0557611b3082610ae785546137e8565b8790601f8311600114611ca157611b5e9291899183611bf75750508160011b916000199060031b1c19161790565b90555b60038301916001600160401b038211611c8d57611b8282610ae785546137e8565b8590601f8311600114611c02578261199895937fa35de865ec4f1cbf701c0b24f4131c3881f019afaab526e3fd3a2986651c48ec979593611bd8938a92611bf75750508160011b916000199060031b1c19161790565b90555b6002606435910155604051918291602083526020830190613972565b013590503880610a77565b8387526020872091601f198416885b818110611c75575092600192859261199898967fa35de865ec4f1cbf701c0b24f4131c3881f019afaab526e3fd3a2986651c48ec9a989610611c5b575b505050811b019055611bdb565b0135600019600384901b60f8161c19169055388080611c4e565b91936020600181928787013581550195019201611c11565b634e487b7160e01b86526041600452602486fd5b8389526020892091601f1984168a5b818110611ced5750908460019594939210611cd3575b505050811b019055611b61565b0135600019600384901b60f8161c19169055388080611cc6565b91936020600181928787013581550195019201611cb0565b634e487b7160e01b88526041600452602488fd5b8480fd5b8280fd5b503461029f57606036600319011261029f57600435906001600160401b03821161029f57602061042d611d573660048601613a43565b604435906024359061401b565b503461029f578060031936011261029f576020600254604051908152f35b503461029f578060031936011261029f57600b5490611da082613e82565b611dad604051918261388a565b828152600b82526020810192827f0175b7a638427703f0dbe7bb9bbf987a2551717b34e79f33b5b1008d1fa01db9855b838310611f3a578585886040519160208301906020845251809152604083019360408260051b8501019294815b838310611e175785850386f35b90919293603f1986820301835286518051825260208101516020830152610100611e97611e5560408401516101206040870152610120860190613972565b606084015160608601526080840151608086015260a084015160a0860152611e8560c085015160c0870190613997565b60e084015185820360e0870152613972565b910151916101008183039101526020808351928381520192019083905b808210611ed257505050602096870196909493600101920190611e0a565b90919260206101006001926060875160808151878060a01b03815116855286810151878601526040810151604086015283810151848601520151608084015284810151151560a08401526040810151151560c0840152015160e0820152019401920190611eb4565b604051611f4681613822565b8254815260018301546020820152611f60600284016138ab565b60408201526003830154606082015260048301546080820152600583015460a082015260ff6006840154166003811015610d645760c0820152611fa5600784016138ab565b60e0820152600883018054611fb981613e82565b91611fc7604051938461388a565b81835289526020808a20908a9084015b838210611fff5750505050600192826020926101006009950152815201920192019190611ddd565b6007602060019261200f86613fda565b815201930191019091611fd7565b503461029f57606036600319011261029f576004356001600160401b038111610eda5761204e903690600401613a43565b906024356001600160401b038111610eda5761206e903690600401613a43565b90612077614067565b600a546120838161413a565b6120c8604051926120c36024856020810195634556542360e01b87526120b2815180926020868601910161394f565b81010301601f19810186528561388a565b613fcb565b600a55604051906120d882613854565b828252602082019586526121096020604084019260443584526060850197885260405180938192885192839161394f565b8101600981520301902091518051906001600160401b038211611c8d5761213a8261213486546137e8565b86613f86565b602090601f8311600114612366576121699291879183610cdb5750508160011b916000199060031b1c19161790565b82555b6001820195519586516001600160401b038111611c8d576121978161219184546137e8565b84613f86565b6020601f82116001146123005790806121cb9288999a6003989992610cdb5750508160011b916000199060031b1c19161790565b90555b5160028201550192519283516001600160401b0381116122ec576121f68161219184546137e8565b6020601f8211600114612263578161199894939261224c9287987f0edea3c9f900aa84820ccf471d6139121481d600b8dd8963e85aa7a7fb8035349892610cdb5750508160011b916000199060031b1c19161790565b90555b604051918291602083526020830190613972565b82855280852095601f198316865b8181106122d457509660019284926119989796957f0edea3c9f900aa84820ccf471d6139121481d600b8dd8963e85aa7a7fb803534999a106122bb575b505050811b01905561224f565b015160001960f88460031b161c191690553880806122ae565b83830151895560019098019760209384019301612271565b634e487b7160e01b84526041600452602484fd5b82875280872098601f198316885b81811061234e57509160039798999a91846001959410612336575b505050811b0190556121ce565b015160001983891b60f8161c19169055388080612329565b838301518c556001909b019a6020938401930161230e565b8487528187209190601f198416885b8181106123b15750908460019594939210612398575b505050811b01825561216c565b015160001960f88460031b161c1916905538808061238b565b92936020600181928786015181550195019301612375565b503461029f57602036600319011261029f576004359060075482101561029f5760206123f483613b8a565b905460405160039290921b1c6001600160a01b03168152f35b503461029f57602036600319011261029f57600435906001600160401b03821161029f576124a561245960206124463660048701613a43565b816040519382858094519384920161394f565b8101600981520301902061033061246f826138ab565b9161247c600182016138ab565b6124b36124906003600285015494016138ab565b91604051968796608088526080880190613972565b908682036020880152613972565b9160408501528382036060850152613972565b50608036600319011261029f576024356004356044356001600160401b038111610ed6576124f8903690600401613a43565b916064359142811161288757620151808202828104620151801483151715612873576125249082613f79565b91828210156128235761253890848661401b565b80156127de578034036127a25760405160208101903060601b82523360601b60348201524260488201526048815261257160688261388a565b519020946005820290828204600503610cb357859061263c88878b6040519661259988613822565b83885260208801903382526040890190815260608901918a8352604060808b01948d865260a08c0196875260c08c019781895260e08d019a8b526101008d019b8c52815260056020522099518a5560018060a01b0390511660018a019060018060a01b031660018060a01b0319825416179055516002890155516003880155516004870155516005860155511515600685019060ff801983541691151516179055565b51805160078401916001600160401b03821161278e5761266082610ae785546137e8565b6020908b601f841160011461272657600895949361269493909283610cdb5750508160011b916000199060031b1c19161790565b90555b51910155338652600660205260408620805496600160401b881015610bf457506126cd610bb4888893600160209b018155613ba5565b90556126db81600354613f79565b60035560405193858552868501526040840152606083015260808201527f4bdf67d7576c88a1f1180f8844338e7be49ba2c0bc3cf1e411753f442663331560a03392a2604051908152f35b50838c52818c209190601f1984168d5b81811061277657509160019391856008989796941061275d575b505050811b019055612697565b015160001960f88460031b161c19169055388080612750565b92936020600181928786015181550195019301612736565b634e487b7160e01b8b52604160045260248bfd5b60405162461bcd60e51b8152602060048201526014602482015273125b98dbdc9c9958dd0811551208185b5bdd5b9d60621b6044820152606490fd5b60405162461bcd60e51b815260206004820152601e60248201527f5072656d69756d206d7573742062652067726561746572207468616e203000006044820152606490fd5b60405162461bcd60e51b815260206004820152602260248201527f53746172742074696d65206d757374206265206265666f726520656e642074696044820152616d6560f01b6064820152608490fd5b634e487b7160e01b86526011600452602486fd5b60405162461bcd60e51b815260206004820152602260248201527f53746172742074696d65206d757374206265203c3d2063757272656e742074696044820152616d6560f01b6064820152608490fd5b503461029f578060031936011261029f5733815260066020526040812054906128ff82613e99565b9061290983613e99565b9261291381613e99565b61291c82613e99565b61292583613e99565b61292e84613e99565b9161293885613e99565b9361294286613ee8565b9561294c81613e99565b97805b8281106129fb575050506040519889986101208a526101208a0161297291613a8a565b89810360208b015261298391613abe565b88810360408a015261299491613a8a565b87810360608901526129a591613a8a565b86810360808801526129b691613a8a565b85810360a08701526129c791613a8a565b84810360c08601526129d891613b54565b83810360e08501526129e991613afb565b82810361010084015261033091613a8a565b6001903383526006602052612a138160408520613ba5565b90549060031b1c835260056020528c8c6040852091604051809381938293612a3a84613822565b82548452888060a01b0389840154169060208501918252612ad5896002860154936040880194855260038701549560608901968752612ac583600860048b01549a60808d019b8c5260a060058201549d019c8d5260c060ff6006830154169e01809e1515905260e0612aae600783016138ab565b9f019e8f5201549d61010081019e8f525192613f1d565b528c8060a01b0390511692613f1d565b5251612ae1888d613f1d565b5251612aed878d613f1d565b5251612af9868d613f1d565b5251612b05858d613f1d565b52511515612b13848d613f1d565b5251612b1f838d613f1d565b52612b2a828c613f1d565b5051612b36828d613f1d565b520161294f565b503461029f578060031936011261029f57338152600660205260016040822001548015612d9f57612b6d81613e99565b91612b7782613e99565b612b8083613e82565b91612b8e604051938461388a565b838352612b9a84613e82565b92612bad6020820194601f190185613ecb565b612bb685613ee8565b92612bc086613ee8565b95835b818110612c7a57612beb898989898989612bf98a60405198899860a08a5260a08a0190613a8a565b9088820360208a0152613a8a565b90868203604088015251908181526020810160208360051b8301019593915b838310612c455788806103308a612c378b8b8582036060870152613afb565b908382036080850152613afb565b9193969750919394602080612c66600193601f198682030187528a51613abe565b980193019301909288979695949293612c18565b3385526006602052612c928160016040882001613ba5565b90549060031b1c80151580612d94575b612cab90613c42565b600019810190811161287357612cc26008916137b3565b508054612ccf848d613f1d565b526001810154612cdf8487613f1d565b52612cec600782016138ab565b612cf6848c613f1d565b52612d01838b613f1d565b50612d1260ff600683015416614090565b612d1c848a613f1d565b52612d278389613f1d565b50018054612d3481613e99565b91875b828110612d615750505090600191612d4f8287613f1d565b52612d5a8186613f1d565b5001612bc3565b80612d6e60019284613cc6565b50828060a01b03905416612d83811515613f31565b612d8d8287613f1d565b5201612d37565b50600c548110612ca2565b60405162461bcd60e51b81526020600482015260126024820152715573657220686173206e6f20636c61696d7360701b6044820152606490fd5b503461029f578060031936011261029f57604051908060015490612dfc826137e8565b8085529160018116908115612e815750600114612e24575b6103308461224f8186038261388a565b600181527fb10e2d527612073b26eecdfd717e6a320cf44b4afac2b0732d9fcbe2b7fa0cf6939250905b808210612e675750909150810160200161224f82612e14565b919260018160209254838588010152019101909291612e4e565b60ff191660208087019190915292151560051b8501909201925061224f9150839050612e14565b503461029f57602036600319011261029f576004356001600160401b038111610eda57611998612efd7ffec510cf8dc709165f06d672244480e0718dc5ef561cfaa29c05b11869fcc044923690600401613a43565b612f05614067565b61224f6003612f3d6020604051612f2c6108c28751928481818b01956108b281838961394f565b60405180938192885192839161394f565b81016009815203019020612f5081613e33565b612f5c60018201613e33565b86600282015501613e33565b503461029f57602036600319011261029f5760a0906040906001600160a01b03612f90613a0d565b168152600860205220600180831b0381541690600181015490600281015460046003830154920154926040519485526020850152604084015260608301526080820152f35b503461029f57606036600319011261029f57600435602435801515808203610ed65760443591831515806132cb575b61300d90613c42565b600019840184811161287357613022906137b3565b509060ff60068301541660038110156132b757613278573386526008602052600160408720015415613233571561322b5782156131d45733855260086020526001604086200154831161318f575b6008018054855b8181106131345750338652600860205260408620916130a16040519361309c85613854565b613ce2565b835260016020840152836040840152846060840152600160401b821015610cc757906130d291600182018155613cc6565b6131205791613106608094927fea011128836db08a6e5385e82ae9ef7ec1f6756b3bf6d266c0809eec75ccdf889694613d27565b60405192338452602084015260408301526060820152a180f35b634e487b7160e01b86526004869052602486fd5b61313e8184613cc6565b50546001600160a01b0316331461315757600101613077565b60405162461bcd60e51b815260206004820152601060248201526f105b1c9958591e48185cdcd95cdcd95960821b6044820152606490fd5b60405162461bcd60e51b815260206004820152601c60248201527f416d6f756e742065786365656473206d6f64657261746f7220636170000000006044820152606490fd5b60405162461bcd60e51b815260206004820152602960248201527f417070726f76616c20616d6f756e74206d7573742062652067726561746572206044820152687468616e207a65726f60b81b6064820152608490fd5b849250613070565b60405162461bcd60e51b815260206004820152601a60248201527f4e6f7420612072656769737465726564206d6f64657261746f720000000000006044820152606490fd5b60405162461bcd60e51b815260206004820152601760248201527610db185a5b48185b1c9958591e481c1c9bd8d95cdcd959604a1b6044820152606490fd5b634e487b7160e01b87526021600452602487fd5b50600c548410613004565b503461029f57602036600319011261029f57604090600435815260056020522060405161330281613822565b8154815260018060a01b036001830154169060208101918252600283015492604082019384526003810154906060830191825260048101549060808401918252600581015460a0850190815260ff6006830154169060c086019115158252600861336e600785016138ab565b60e08801908152930154610100870190815287519094906001600160a01b031633036133c15761033096519760018060a01b039051169851955190519151925115159351945195604051998a998a6139ba565b60405162461bcd60e51b815260206004820152601b60248201527f43616c6c6572206973206e6f7420706f6c69637920686f6c64657200000000006044820152606490fd5b503461029f57602036600319011261029f57600435613423614067565b80151580613634575b61343590613c42565b600019810190811161109e5761344a906137b3565b50600681019060ff8254166003811015613620576001036135e657600181015483526005602052604083209160068301600381549361348c60ff861615613c81565b01549283156135a65783600354106135615760ff19166001179055600354828103908111610e0e576003556001830191848080808460018060a01b038854165af16134d5613c12565b5015613526577fe64ba0c150ba8da1befe0c879808734569d6e16bf75e2b77c4e1db04e359cba592604092600160ff1982541617905560018060a01b0390541693549082519182526020820152a280f35b60405162461bcd60e51b8152602060048201526013602482015272115512081d1c985b9cd9995c8819985a5b1959606a1b6044820152606490fd5b60405162461bcd60e51b815260206004820152601e60248201527f496e73756666696369656e742066756e647320696e2074686520706f6f6c00006044820152606490fd5b60405162461bcd60e51b8152602060048201526018602482015277139bc8185c1c1c9bdd99590818db185a5b48185b5bdd5b9d60421b6044820152606490fd5b60405162461bcd60e51b815260206004820152601260248201527110db185a5b481b9bdd081858d8d95c1d195960721b6044820152606490fd5b634e487b7160e01b84526021600452602484fd5b50600c54811061342c565b503461029f57602036600319011261029f57600435600b54811015610eda57613667906137b3565b50805461033060018301549261367f600282016138ab565b6136e560038301549260048101546005820154906136cb6136aa600760ff60068701541695016138ab565b956040519a8b9a8b5260208b015261010060408b01526101008a0190613972565b956060890152608088015260a087015260c0860190613997565b83820360e0850152613972565b50604036600319011261029f576004356001600160a01b03811690819003610eda5760243590613720614067565b814710613777578280809381935af1613737613c12565b50156137405780f35b60405162461bcd60e51b815260206004820152600f60248201526e151c985b9cd9995c8819985a5b1959608a1b6044820152606490fd5b60405162461bcd60e51b8152602060048201526014602482015273496e73756666696369656e742062616c616e636560601b6044820152606490fd5b600b548110156137d257600b6000526009602060002091020190600090565b634e487b7160e01b600052603260045260246000fd5b90600182811c92168015613818575b602083101461380257565b634e487b7160e01b600052602260045260246000fd5b91607f16916137f7565b61012081019081106001600160401b0382111761383e57604052565b634e487b7160e01b600052604160045260246000fd5b608081019081106001600160401b0382111761383e57604052565b60a081019081106001600160401b0382111761383e57604052565b90601f801991011681019081106001600160401b0382111761383e57604052565b90604051918260008254926138bf846137e8565b808452936001811690811561392d57506001146138e6575b506138e49250038361388a565b565b90506000929192526020600020906000915b8183106139115750509060206138e492820101386138d7565b60209193508060019154838589010152019101909184926138f8565b9050602092506138e494915060ff191682840152151560051b820101386138d7565b60005b8381106139625750506000910152565b8181015183820152602001613952565b9060209161398b8151809281855285808601910161394f565b601f01601f1916010190565b9060038210156139a45752565b634e487b7160e01b600052602160045260246000fd5b999897949192613a0896936101009895928c5260018060a01b031660208c015260408b015260608a0152608089015260a0880152151560c087015261012060e0870152610120860190613972565b930152565b600435906001600160a01b0382168203613a2357565b600080fd5b6001600160401b03811161383e57601f01601f191660200190565b81601f82011215613a2357803590613a5a82613a28565b92613a68604051948561388a565b82845260208383010111613a2357816000926020809301838601378301015290565b906020808351928381520192019060005b818110613aa85750505090565b8251845260209384019390920191600101613a9b565b906020808351928381520192019060005b818110613adc5750505090565b82516001600160a01b0316845260209384019390920191600101613acf565b9080602083519182815201916020808360051b8301019401926000915b838310613b2757505050505090565b9091929394602080613b45600193601f198682030187528951613972565b97019301930191939290613b18565b906020808351928381520192019060005b818110613b725750505090565b82511515845260209384019390920191600101613b65565b6007548110156137d257600760005260206000200190600090565b80548210156137d25760005260206000200190600090565b9181601f84011215613a23578235916001600160401b038311613a235760208381860195010111613a2357565b9091613c01613c0f93604084526040840190613abe565b916020818403910152613a8a565b90565b3d15613c3d573d90613c2382613a28565b91613c31604051938461388a565b82523d6000602084013e565b606090565b15613c4957565b60405162461bcd60e51b815260206004820152601060248201526f125b9d985b1a590818db185a5b48125160821b6044820152606490fd5b15613c8857565b60405162461bcd60e51b8152602060048201526016602482015275141bdb1a58de48185b1c9958591e4818db185a5b595960521b6044820152606490fd5b80548210156137d2576000526007602060002091020190600090565b90604051613cef8161386f565b82546001600160a01b031681526001830154602082015260028301546040820152600383015460608201526004909201546080830152565b8151805182546001600160a01b039091166001600160a01b03199091161782556020808201516001840155604082015160028401556060808301516003850155608090920151600484015583015160058301805460ff191691151560ff1691909117815591926006926040820151815461ff00191690151560081b61ff00161790550151910155565b15613db757565b60405162461bcd60e51b8152602060048201526014602482015273115d995b9d08191bd95cc81b9bdd08195e1a5cdd60621b6044820152606490fd5b818110613dfe575050565b60008155600101613df3565b81810292918115918404141715613e1d57565b634e487b7160e01b600052601160045260246000fd5b613e3d81546137e8565b9081613e47575050565b81601f60009311600114613e59575055565b81835260208320613e7591601f0160051c810190600101613df3565b8082528160208120915555565b6001600160401b03811161383e5760051b60200190565b90613ea382613e82565b613eb0604051918261388a565b8281528092613ec1601f1991613e82565b0190602036910137565b60005b828110613eda57505050565b606082820152602001613ece565b906138e4613ef583613e82565b613f02604051918261388a565b83815260208194613f15601f1991613e82565b019101613ecb565b80518210156137d25760209160051b010190565b15613f3857565b60405162461bcd60e51b8152602060048201526019602482015278496e76616c6964206d6f64657261746f72206164647265737360381b6044820152606490fd5b91908201809211613e1d57565b9190601f8111613f9557505050565b6138e4926000526020600020906020601f840160051c83019310613fc1575b601f0160051c0190613df3565b9091508190613fb4565b6000198114613e1d5760010190565b90604051613fe781613854565b606060068294613ff681613ce2565b845260ff60058201548181161515602087015260081c16151560408501520154910152565b60649092919260405161403e6020828161133c818301968781519384920161394f565b5190200660018101809111613e1d5761405e61406392623d090094613e0a565b613e0a565b0490565b6000546001600160a01b0316330361407b57565b63118cdaa760e01b6000523360045260246000fd5b60038110156139a457801561411457600090600181146140ec5760029150146140c8576040516140c160208261388a565b6000815290565b6040516140d660408261388a565b600681526511195b9a595960d21b602082015290565b50506040516140fc60408261388a565b60088152671058d8d95c1d195960c21b602082015290565b5060405161412360408261388a565b600781526650656e64696e6760c81b602082015290565b6000908072184f03e93ff9f4daa797ed6e38ed64bf6a1f0160401b811015614286575b806d04ee2d6d415b85acef8100000000600a92101561426b575b662386f26fc10000811015614257575b6305f5e100811015614246575b612710811015614237575b6064811015614229575b101561421e575b600a602160018401936141c285613a28565b946141d0604051968761388a565b8086526141df601f1991613a28565b013660208701378401015b60001901916f181899199a1a9b1b9c1cb0b131b232b360811b8282061a835304801561421957600a90916141ea565b505090565b6001909101906141b0565b6064600291049301926141a9565b6127106004910493019261419f565b6305f5e10060089104930192614194565b662386f26fc1000060109104930192614187565b6d04ee2d6d415b85acef810000000060209104930192614177565b506040915072184f03e93ff9f4daa797ed6e38ed64bf6a1f0160401b810461415d56fea26469706673582212204c69bcf13d192c3a098969482967f4ea7e0ec42be7d718c36aa95226a3000eb064736f6c634300081c0033",
  "linkReferences": {},
  "deployedLinkReferences": {}
}