{
  "_format": "hh-sol-artifact-1",
  "contractName": "GraviInsurance",
  "sourceName": "contracts/GraviInsurance.sol",
  "abi": [
    {
      "inputs": [
        {
          "internalType": "string",
          "name": "_disasterType",
          "type": "string"
        },
        {
          "internalType": "uint256",
          "name": "_premiumRate",
          "type": "uint256"
        },
        {
          "internalType": "address",
          "name": "_graviCha",
          "type": "address"
        }
      ],
      "stateMutability": "nonpayable",
      "type": "constructor"
    },
    {
      "inputs": [
        {
          "internalType": "address",
          "name": "owner",
          "type": "address"
        }
      ],
      "name": "OwnableInvalidOwner",
      "type": "error"
    },
    {
      "inputs": [
        {
          "internalType": "address",
          "name": "account",
          "type": "address"
        }
      ],
      "name": "OwnableUnauthorizedAccount",
      "type": "error"
    },
    {
      "anonymous": false,
      "inputs": [
        {
          "indexed": true,
          "internalType": "address",
          "name": "user",
          "type": "address"
        },
        {
          "indexed": false,
          "internalType": "bytes32",
          "name": "policyId",
          "type": "bytes32"
        },
        {
          "indexed": false,
          "internalType": "uint256",
          "name": "payout",
          "type": "uint256"
        }
      ],
      "name": "ClaimApproved",
      "type": "event"
    },
    {
      "anonymous": false,
      "inputs": [
        {
          "indexed": false,
          "internalType": "string",
          "name": "eventId",
          "type": "string"
        },
        {
          "indexed": false,
          "internalType": "address",
          "name": "moderator",
          "type": "address"
        }
      ],
      "name": "ClaimModeratorAdded",
      "type": "event"
    },
    {
      "anonymous": false,
      "inputs": [
        {
          "indexed": false,
          "internalType": "string",
          "name": "eventId",
          "type": "string"
        },
        {
          "indexed": false,
          "internalType": "address",
          "name": "moderator",
          "type": "address"
        }
      ],
      "name": "ClaimModeratorRemoved",
      "type": "event"
    },
    {
      "anonymous": false,
      "inputs": [
        {
          "indexed": false,
          "internalType": "uint256",
          "name": "claimId",
          "type": "uint256"
        },
        {
          "indexed": false,
          "internalType": "enum GraviInsurance.ClaimStatus",
          "name": "status",
          "type": "uint8"
        }
      ],
      "name": "ClaimProcessed",
      "type": "event"
    },
    {
      "anonymous": false,
      "inputs": [
        {
          "indexed": false,
          "internalType": "uint256",
          "name": "claimId",
          "type": "uint256"
        },
        {
          "indexed": false,
          "internalType": "string",
          "name": "incidentDescription",
          "type": "string"
        }
      ],
      "name": "ClaimStarted",
      "type": "event"
    },
    {
      "anonymous": false,
      "inputs": [
        {
          "indexed": false,
          "internalType": "string",
          "name": "eventId",
          "type": "string"
        }
      ],
      "name": "DisasterEventAdded",
      "type": "event"
    },
    {
      "anonymous": false,
      "inputs": [
        {
          "indexed": false,
          "internalType": "string",
          "name": "eventId",
          "type": "string"
        }
      ],
      "name": "DisasterEventModified",
      "type": "event"
    },
    {
      "anonymous": false,
      "inputs": [
        {
          "indexed": false,
          "internalType": "string",
          "name": "eventId",
          "type": "string"
        }
      ],
      "name": "DisasterEventRemoved",
      "type": "event"
    },
    {
      "anonymous": false,
      "inputs": [
        {
          "indexed": true,
          "internalType": "address",
          "name": "donor",
          "type": "address"
        },
        {
          "indexed": false,
          "internalType": "uint256",
          "name": "amount",
          "type": "uint256"
        }
      ],
      "name": "FundsDonated",
      "type": "event"
    },
    {
      "anonymous": false,
      "inputs": [
        {
          "indexed": true,
          "internalType": "address",
          "name": "previousOwner",
          "type": "address"
        },
        {
          "indexed": true,
          "internalType": "address",
          "name": "newOwner",
          "type": "address"
        }
      ],
      "name": "OwnershipTransferred",
      "type": "event"
    },
    {
      "anonymous": false,
      "inputs": [
        {
          "indexed": true,
          "internalType": "address",
          "name": "user",
          "type": "address"
        },
        {
          "indexed": false,
          "internalType": "bytes32",
          "name": "policyId",
          "type": "bytes32"
        },
        {
          "indexed": false,
          "internalType": "uint256",
          "name": "coverageAmount",
          "type": "uint256"
        },
        {
          "indexed": false,
          "internalType": "uint256",
          "name": "premium",
          "type": "uint256"
        },
        {
          "indexed": false,
          "internalType": "uint256",
          "name": "startTime",
          "type": "uint256"
        },
        {
          "indexed": false,
          "internalType": "uint256",
          "name": "endTime",
          "type": "uint256"
        }
      ],
      "name": "PolicyPurchased",
      "type": "event"
    },
    {
      "inputs": [
        {
          "internalType": "string",
          "name": "eventId",
          "type": "string"
        },
        {
          "internalType": "address",
          "name": "moderator",
          "type": "address"
        }
      ],
      "name": "addClaimModerator",
      "outputs": [],
      "stateMutability": "nonpayable",
      "type": "function"
    },
    {
      "inputs": [
        {
          "internalType": "string",
          "name": "eventName",
          "type": "string"
        },
        {
          "internalType": "string",
          "name": "eventDescription",
          "type": "string"
        },
        {
          "internalType": "uint256",
          "name": "disasterDate",
          "type": "uint256"
        },
        {
          "internalType": "address[]",
          "name": "initialModerators",
          "type": "address[]"
        }
      ],
      "name": "addDisasterEvent",
      "outputs": [],
      "stateMutability": "nonpayable",
      "type": "function"
    },
    {
      "inputs": [
        {
          "internalType": "uint256",
          "name": "startTime",
          "type": "uint256"
        },
        {
          "internalType": "uint256",
          "name": "coveragePeriod",
          "type": "uint256"
        },
        {
          "internalType": "string",
          "name": "propertyAddress",
          "type": "string"
        },
        {
          "internalType": "uint256",
          "name": "propertyValue",
          "type": "uint256"
        }
      ],
      "name": "buyInsurance",
      "outputs": [
        {
          "internalType": "bytes32",
          "name": "",
          "type": "bytes32"
        }
      ],
      "stateMutability": "payable",
      "type": "function"
    },
    {
      "inputs": [
        {
          "internalType": "uint256",
          "name": "premium",
          "type": "uint256"
        }
      ],
      "name": "calculateCoverageAmountFromPremium",
      "outputs": [
        {
          "internalType": "uint256",
          "name": "coverageAmount",
          "type": "uint256"
        }
      ],
      "stateMutability": "pure",
      "type": "function"
    },
    {
      "inputs": [
        {
          "internalType": "string",
          "name": "propertyAddress",
          "type": "string"
        },
        {
          "internalType": "uint256",
          "name": "propertyValue",
          "type": "uint256"
        },
        {
          "internalType": "uint256",
          "name": "coveragePeriod",
          "type": "uint256"
        }
      ],
      "name": "calculatePremium",
      "outputs": [
        {
          "internalType": "uint256",
          "name": "premium",
          "type": "uint256"
        }
      ],
      "stateMutability": "pure",
      "type": "function"
    },
    {
      "inputs": [
        {
          "internalType": "uint256",
          "name": "",
          "type": "uint256"
        }
      ],
      "name": "claimRecords",
      "outputs": [
        {
          "internalType": "uint256",
          "name": "claimId",
          "type": "uint256"
        },
        {
          "internalType": "bytes32",
          "name": "policyId",
          "type": "bytes32"
        },
        {
          "internalType": "string",
          "name": "eventId",
          "type": "string"
        },
        {
          "internalType": "uint256",
          "name": "claimAmount",
          "type": "uint256"
        },
        {
          "internalType": "uint256",
          "name": "assessmentStart",
          "type": "uint256"
        },
        {
          "internalType": "uint256",
          "name": "assessmentEnd",
          "type": "uint256"
        },
        {
          "internalType": "enum GraviInsurance.ClaimStatus",
          "name": "status",
          "type": "uint8"
        },
        {
          "internalType": "string",
          "name": "incidentDescription",
          "type": "string"
        }
      ],
      "stateMutability": "view",
      "type": "function"
    },
    {
      "inputs": [
        {
          "internalType": "string",
          "name": "",
          "type": "string"
        }
      ],
      "name": "disasterEvents",
      "outputs": [
        {
          "internalType": "string",
          "name": "eventId",
          "type": "string"
        },
        {
          "internalType": "string",
          "name": "name",
          "type": "string"
        },
        {
          "internalType": "uint256",
          "name": "disasterDate",
          "type": "uint256"
        },
        {
          "internalType": "string",
          "name": "eventDescription",
          "type": "string"
        }
      ],
      "stateMutability": "view",
      "type": "function"
    },
    {
      "inputs": [],
      "name": "disasterType",
      "outputs": [
        {
          "internalType": "string",
          "name": "",
          "type": "string"
        }
      ],
      "stateMutability": "view",
      "type": "function"
    },
    {
      "inputs": [],
      "name": "donate",
      "outputs": [],
      "stateMutability": "payable",
      "type": "function"
    },
    {
      "inputs": [
        {
          "internalType": "uint256",
          "name": "",
          "type": "uint256"
        }
      ],
      "name": "donors",
      "outputs": [
        {
          "internalType": "address",
          "name": "",
          "type": "address"
        }
      ],
      "stateMutability": "view",
      "type": "function"
    },
    {
      "inputs": [
        {
          "internalType": "address",
          "name": "user",
          "type": "address"
        }
      ],
      "name": "fetchInsuranceIds",
      "outputs": [
        {
          "internalType": "bytes32[]",
          "name": "",
          "type": "bytes32[]"
        }
      ],
      "stateMutability": "view",
      "type": "function"
    },
    {
      "inputs": [],
      "name": "getAllClaimSummaries",
      "outputs": [
        {
          "internalType": "uint256[]",
          "name": "claimIds",
          "type": "uint256[]"
        },
        {
          "internalType": "string[]",
          "name": "eventNames",
          "type": "string[]"
        },
        {
          "internalType": "uint256[]",
          "name": "claimAmounts",
          "type": "uint256[]"
        },
        {
          "internalType": "uint256[]",
          "name": "assessmentStarts",
          "type": "uint256[]"
        },
        {
          "internalType": "uint256[]",
          "name": "assessmentEnds",
          "type": "uint256[]"
        },
        {
          "internalType": "uint8[]",
          "name": "statuses",
          "type": "uint8[]"
        }
      ],
      "stateMutability": "view",
      "type": "function"
    },
    {
      "inputs": [],
      "name": "getAllClaims",
      "outputs": [
        {
          "internalType": "uint256[]",
          "name": "",
          "type": "uint256[]"
        },
        {
          "internalType": "string[]",
          "name": "",
          "type": "string[]"
        },
        {
          "internalType": "string[]",
          "name": "",
          "type": "string[]"
        },
        {
          "internalType": "string[]",
          "name": "",
          "type": "string[]"
        }
      ],
      "stateMutability": "view",
      "type": "function"
    },
    {
      "inputs": [],
      "name": "getAllDonors",
      "outputs": [
        {
          "internalType": "address[]",
          "name": "",
          "type": "address[]"
        },
        {
          "internalType": "uint256[]",
          "name": "",
          "type": "uint256[]"
        }
      ],
      "stateMutability": "view",
      "type": "function"
    },
    {
      "inputs": [
        {
          "internalType": "uint256",
          "name": "_claimId",
          "type": "uint256"
        }
      ],
      "name": "getClaimDetail",
      "outputs": [
        {
          "internalType": "uint256",
          "name": "claimId",
          "type": "uint256"
        },
        {
          "internalType": "string",
          "name": "eventName",
          "type": "string"
        },
        {
          "internalType": "uint256",
          "name": "purchaseDate",
          "type": "uint256"
        },
        {
          "internalType": "uint256",
          "name": "expiry",
          "type": "uint256"
        },
        {
          "internalType": "uint256",
          "name": "totalCoverAmount",
          "type": "uint256"
        },
        {
          "internalType": "uint256",
          "name": "requestedAmount",
          "type": "uint256"
        },
        {
          "internalType": "uint8",
          "name": "status",
          "type": "uint8"
        },
        {
          "internalType": "string",
          "name": "incidentDescription",
          "type": "string"
        }
      ],
      "stateMutability": "view",
      "type": "function"
    },
    {
      "inputs": [
        {
          "internalType": "string",
          "name": "eventId",
          "type": "string"
        }
      ],
      "name": "getClaimModerators",
      "outputs": [
        {
          "internalType": "address[]",
          "name": "",
          "type": "address[]"
        }
      ],
      "stateMutability": "view",
      "type": "function"
    },
    {
      "inputs": [
        {
          "internalType": "bytes32",
          "name": "policyId",
          "type": "bytes32"
        }
      ],
      "name": "getPolicy",
      "outputs": [
        {
          "components": [
            {
              "internalType": "bytes32",
              "name": "policyId",
              "type": "bytes32"
            },
            {
              "internalType": "address",
              "name": "policyHolder",
              "type": "address"
            },
            {
              "internalType": "uint256",
              "name": "coverageAmount",
              "type": "uint256"
            },
            {
              "internalType": "uint256",
              "name": "premiumPaid",
              "type": "uint256"
            },
            {
              "internalType": "uint256",
              "name": "startTime",
              "type": "uint256"
            },
            {
              "internalType": "uint256",
              "name": "endTime",
              "type": "uint256"
            },
            {
              "internalType": "bool",
              "name": "isClaimed",
              "type": "bool"
            },
            {
              "internalType": "string",
              "name": "propertyAddress",
              "type": "string"
            },
            {
              "internalType": "uint256",
              "name": "propertyValue",
              "type": "uint256"
            }
          ],
          "internalType": "struct GraviInsurance.Policy",
          "name": "",
          "type": "tuple"
        }
      ],
      "stateMutability": "view",
      "type": "function"
    },
    {
      "inputs": [
        {
          "internalType": "address",
          "name": "user",
          "type": "address"
        }
      ],
      "name": "getUserClaims",
      "outputs": [
        {
          "internalType": "uint256[]",
          "name": "",
          "type": "uint256[]"
        }
      ],
      "stateMutability": "view",
      "type": "function"
    },
    {
      "inputs": [],
      "name": "getUserPolicies",
      "outputs": [
        {
          "internalType": "address",
          "name": "user",
          "type": "address"
        },
        {
          "internalType": "bytes32[]",
          "name": "policyIds",
          "type": "bytes32[]"
        },
        {
          "internalType": "string[]",
          "name": "propertyAddresses",
          "type": "string[]"
        },
        {
          "internalType": "uint256[]",
          "name": "coverageAmounts",
          "type": "uint256[]"
        },
        {
          "internalType": "uint256[]",
          "name": "coverageEndDates",
          "type": "uint256[]"
        },
        {
          "internalType": "string[]",
          "name": "insuranceTypes",
          "type": "string[]"
        }
      ],
      "stateMutability": "view",
      "type": "function"
    },
    {
      "inputs": [],
      "name": "graviCha",
      "outputs": [
        {
          "internalType": "contract IGraviCha",
          "name": "",
          "type": "address"
        }
      ],
      "stateMutability": "view",
      "type": "function"
    },
    {
      "inputs": [
        {
          "internalType": "string",
          "name": "eventId",
          "type": "string"
        },
        {
          "internalType": "string",
          "name": "newName",
          "type": "string"
        },
        {
          "internalType": "string",
          "name": "newEventDescription",
          "type": "string"
        },
        {
          "internalType": "uint256",
          "name": "disasterDate",
          "type": "uint256"
        }
      ],
      "name": "modifyDisasterEvent",
      "outputs": [],
      "stateMutability": "nonpayable",
      "type": "function"
    },
    {
      "inputs": [],
      "name": "nextClaimId",
      "outputs": [
        {
          "internalType": "uint256",
          "name": "",
          "type": "uint256"
        }
      ],
      "stateMutability": "view",
      "type": "function"
    },
    {
      "inputs": [],
      "name": "nextEventId",
      "outputs": [
        {
          "internalType": "uint256",
          "name": "",
          "type": "uint256"
        }
      ],
      "stateMutability": "view",
      "type": "function"
    },
    {
      "inputs": [],
      "name": "owner",
      "outputs": [
        {
          "internalType": "address",
          "name": "",
          "type": "address"
        }
      ],
      "stateMutability": "view",
      "type": "function"
    },
    {
      "inputs": [
        {
          "internalType": "uint256",
          "name": "_claimId",
          "type": "uint256"
        }
      ],
      "name": "payoutClaim",
      "outputs": [],
      "stateMutability": "nonpayable",
      "type": "function"
    },
    {
      "inputs": [
        {
          "internalType": "bytes32",
          "name": "",
          "type": "bytes32"
        }
      ],
      "name": "policies",
      "outputs": [
        {
          "internalType": "bytes32",
          "name": "policyId",
          "type": "bytes32"
        },
        {
          "internalType": "address",
          "name": "policyHolder",
          "type": "address"
        },
        {
          "internalType": "uint256",
          "name": "coverageAmount",
          "type": "uint256"
        },
        {
          "internalType": "uint256",
          "name": "premiumPaid",
          "type": "uint256"
        },
        {
          "internalType": "uint256",
          "name": "startTime",
          "type": "uint256"
        },
        {
          "internalType": "uint256",
          "name": "endTime",
          "type": "uint256"
        },
        {
          "internalType": "bool",
          "name": "isClaimed",
          "type": "bool"
        },
        {
          "internalType": "string",
          "name": "propertyAddress",
          "type": "string"
        },
        {
          "internalType": "uint256",
          "name": "propertyValue",
          "type": "uint256"
        }
      ],
      "stateMutability": "view",
      "type": "function"
    },
    {
      "inputs": [],
      "name": "premiumRate",
      "outputs": [
        {
          "internalType": "uint256",
          "name": "",
          "type": "uint256"
        }
      ],
      "stateMutability": "view",
      "type": "function"
    },
    {
      "inputs": [
        {
          "internalType": "uint256",
          "name": "_claimId",
          "type": "uint256"
        }
      ],
      "name": "processClaim",
      "outputs": [],
      "stateMutability": "nonpayable",
      "type": "function"
    },
    {
      "inputs": [
        {
          "internalType": "string",
          "name": "eventId",
          "type": "string"
        },
        {
          "internalType": "address",
          "name": "moderator",
          "type": "address"
        }
      ],
      "name": "removeClaimModerator",
      "outputs": [],
      "stateMutability": "nonpayable",
      "type": "function"
    },
    {
      "inputs": [
        {
          "internalType": "string",
          "name": "eventId",
          "type": "string"
        }
      ],
      "name": "removeDisasterEvent",
      "outputs": [],
      "stateMutability": "nonpayable",
      "type": "function"
    },
    {
      "inputs": [],
      "name": "renounceOwnership",
      "outputs": [],
      "stateMutability": "nonpayable",
      "type": "function"
    },
    {
      "inputs": [
        {
          "internalType": "string",
          "name": "eventId",
          "type": "string"
        },
        {
          "internalType": "string",
          "name": "incidentDescription",
          "type": "string"
        }
      ],
      "name": "startAClaim",
      "outputs": [
        {
          "internalType": "bool",
          "name": "",
          "type": "bool"
        }
      ],
      "stateMutability": "nonpayable",
      "type": "function"
    },
    {
      "inputs": [],
      "name": "totalPoolFunds",
      "outputs": [
        {
          "internalType": "uint256",
          "name": "",
          "type": "uint256"
        }
      ],
      "stateMutability": "view",
      "type": "function"
    },
    {
      "inputs": [
        {
          "internalType": "address payable",
          "name": "recipient",
          "type": "address"
        },
        {
          "internalType": "uint256",
          "name": "amount",
          "type": "uint256"
        }
      ],
      "name": "transferEther",
      "outputs": [],
      "stateMutability": "payable",
      "type": "function"
    },
    {
      "inputs": [
        {
          "internalType": "address",
          "name": "newOwner",
          "type": "address"
        }
      ],
      "name": "transferOwnership",
      "outputs": [],
      "stateMutability": "nonpayable",
      "type": "function"
    },
    {
      "inputs": [
        {
          "internalType": "address",
          "name": "",
          "type": "address"
        }
      ],
      "name": "userRecords",
      "outputs": [
        {
          "internalType": "uint256",
          "name": "donationTotal",
          "type": "uint256"
        }
      ],
      "stateMutability": "view",
      "type": "function"
    },
    {
      "stateMutability": "payable",
      "type": "receive"
    }
  ],
  "bytecode": "0x6080604052346102f657613afb8038038061001981610310565b9283398101906060818303126102f65780516001600160401b0381116102f657810182601f820112156102f6578051906001600160401b0382116102885761006a601f8301601f1916602001610310565b93828552602083830101116102f65760005b8281106102fb575050602060009184010152604060208201519101519060018060a01b0382168092036102f65733156102e05760008054336001600160a01b03198216811783556040519290916001600160a01b0316907f8be0079c531659141344cd1fd0a4f28419497f9722a3daafe3b4186f6b6457e09080a360016009556001600b55811561029e575082516001600160401b03811161028857600154600181811c9116801561027e575b602082101461026857601f8111610203575b506020601f821160011461019c5781929394600092610191575b50508160011b916000199060031b1c1916176001555b600255600480546001600160a01b0319169190911790556040516137c590816103368239f35b015190503880610155565b601f198216906001600052806000209160005b8181106101eb575095836001959697106101d2575b505050811b0160015561016b565b015160001960f88460031b161c191690553880806101c4565b9192602060018192868b0151815501940192016101af565b60016000527fb10e2d527612073b26eecdfd717e6a320cf44b4afac2b0732d9fcbe2b7fa0cf6601f830160051c8101916020841061025e575b601f0160051c01905b818110610252575061013b565b60008155600101610245565b909150819061023c565b634e487b7160e01b600052602260045260246000fd5b90607f1690610129565b634e487b7160e01b600052604160045260246000fd5b62461bcd60e51b815260206004820152601460248201527f496e76616c6964207072656d69756d20726174650000000000000000000000006044820152606490fd5b631e4fbdf760e01b600052600060045260246000fd5b600080fd5b8060208092840101518282880101520161007c565b6040519190601f01601f191682016001600160401b038111838210176102885760405256fe6080604052600436101561002a575b361561001957600080fd5b610025346003546133ff565b600355005b6000803560e01c806305b1137b14612c695780630744119014612b44578063098464f314612a77578063098e0282146129ac5780630d13fa5a1461278057806317b46b1b146126815780631ef4f7bc146126515780632133433c146124b25780632425b2e91461228657806333c7072e14611e6f5780633defbf2814611db65780634abfa16314611d725780635b23c27d14611b965780635d0040d314611b7857806365eaf54814611b2d57806366a3e4c81461186b5780636a0ecf5014611823578063715018a6146117c95780637257dfc91461166c5780637bcb4a64146115f75780638da5cb5b146115d057806398e36b04146114f65780639f9d903a146114d8578063a0021cf1146114ba578063a3f685f91461136f578063abe575b3146111c3578063ade5184814610fe0578063b04869ae14610fb7578063c189574514610a42578063c878519e14610538578063dabd2c80146104fb578063ddbfd8ef14610451578063ed88c68e146102f2578063f019602e14610268578063f1139d0f1461024a5763f2fde38b146101c2575061000e565b34610247576020366003190112610247576101db612e00565b6101e361354d565b6001600160a01b031680156102335781546001600160a01b03198116821783556001600160a01b03167f8be0079c531659141344cd1fd0a4f28419497f9722a3daafe3b4186f6b6457e08380a380f35b631e4fbdf760e01b82526004829052602482fd5b80fd5b50346102475780600319360112610247576020600354604051908152f35b5034610247576020366003190112610247576001600160a01b0361028a612e00565b168152600660205260408120604051918260208354918281520192825260208220915b8181106102dc576102d8856102c481870382612d78565b6040519182916020835260208301906130d3565b0390f35b82548452602090930192600192830192016102ad565b508060031936011261024757341561041c57610310346003546133ff565b60035533815260066020526002604082200154156103d8575b3381526006602052600260408220016103433482546133ff565b905560045481906001600160a01b0316803b156103d5578180916044604051809581936340c10f1960e01b83523360048401523460248401525af180156103c8576103b8575b6040513481527fd143b3fca8f81682799e935736170faff446dc630e9babfdc72e4ae53c181a2660203392a280f35b6103c191612d78565b3881610389565b50604051903d90823e3d90fd5b50fd5b600754600160401b811015610408576103fc816001610403930160075560076131a1565b339161322c565b610329565b634e487b7160e01b82526041600452602482fd5b60405162461bcd60e51b815260206004820152600d60248201526c09aeae6e840e6cadcc8408aa89609b1b6044820152606490fd5b5034610247576020366003190112610247576040906004358152600560205220805460018060a01b03600183015416916104f06002820154916003810154600482015460058301549060ff6006850154169260086104b160078701612f7f565b95015496604051998a998a5260208a015260408901526060880152608087015260a0860152151560c085015261012060e0850152610120840190613044565b906101008301520390f35b5034610247576020366003190112610247576020906002906040906001600160a01b03610526612e00565b16815260068452200154604051908152f35b5034610247576080366003190112610247576004356001600160401b038111610a3e57610569903690600401612db4565b6024356001600160401b038111610a3a57610588903690600401612db4565b6064356001600160401b038111610a365736602382011215610a36578060040135916001600160401b038311610a325760248360051b830101368111610a2e576105d061354d565b600954946105dd86613576565b6106226040519761061d60248a6020810195634556542360e01b875261060c8151809260208686019101613021565b81010301601f1981018b528a612d78565b61353e565b6009556040519460a086018681106001600160401b03821117610a1a5760405287865260208601928352604086019360443585526060870195865261066688613345565b97610674604051998a612d78565b88526024602089019201915b8183106109f65750505060206106a89160808701978852604051809381928b51928391613021565b8101600881520301902093518051906001600160401b03821161097f576106d9826106d38854612e8c565b8861340c565b602090601f83116001146109935761070992918a9183610896575b50508160011b916000199060031b1c19161790565b84555b51805160018501916001600160401b03821161097f57610736826107308554612e8c565b8561340c565b602090601f831160011461091c5761076592918a91836108965750508160011b916000199060031b1c19161790565b90555b51600283015551805160038301916001600160401b03821161090857610792826107308554612e8c565b602090601f83116001146108a15791806107c69260049695948a926108965750508160011b916000199060031b1c19161790565b90555b019051908151916001600160401b03831161088257600160401b8311610882576020908254848455808510610868575b500190845260208420845b83811061084b57857f0edea3c9f900aa84820ccf471d6139121481d600b8dd8963e85aa7a7fb80353461084587604051918291602083526020830190613044565b0390a180f35b82516001600160a01b031681830155602090920191600101610804565b83875282872061087c9181019086016132b6565b386107f9565b634e487b7160e01b85526041600452602485fd5b0151905038806106f4565b8388528188209190601f198416895b8181106108f05750916001939185600498979694106108d7575b505050811b0190556107c9565b015160001960f88460031b161c191690553880806108ca565b929360206001819287860151815501950193016108b0565b634e487b7160e01b87526041600452602487fd5b838a52818a209190601f1984168b5b818110610967575090846001959493921061094e575b505050811b019055610768565b015160001960f88460031b161c19169055388080610941565b9293602060018192878601518155019501930161092b565b634e487b7160e01b89526041600452602489fd5b868a52818a209190601f1984168b5b8181106109de57509084600195949392106109c5575b505050811b01845561070c565b015160001960f88460031b161c191690553880806109b8565b929360206001819287860151815501950193016109a2565b82356001600160a01b0381168103610a1657815260209283019201610680565b8b80fd5b634e487b7160e01b8a52604160045260248afd5b8580fd5b8480fd5b8380fd5b8280fd5b5080fd5b5034610247576040366003190112610247576004356001600160401b038111610a3e57610a73903690600401612db4565b906024356001600160401b038111610a3e57610a93903690600401612db4565b90610ac6610abf6040516020818751610aaf8183858c01613021565b8101600881520301902054612e8c565b15156131e9565b338152600660205260408120916040518084602082965493848152019085526020852092855b818110610f9e575050610b0192500384612d78565b825115610f675781928293835b8251811015610f5b57610b2181846133eb565b518552600560205260ff60066040872001541615610b4157600101610b0e565b919050610b50929394506133eb565b519260015b15610f1d5783835260056020526040832090604051610b7381612d2a565b8254815260018301546001600160a01b031660208201526002830154604082019081526003840154606083015260048401546080830152600584015460a0830152600684015460ff16151560c08301529261010090600890610bd760078201612f7f565b60e085015201549101526203f4804201804211610f0957600b54925160405193610c0085612d5c565b8452602084019687526040840192835260608401908152608084019042825260a0850192835260c085019387855260e0860198878a52600a54600160401b811015610a1a57806001610c559201600a55612e57565b979097610ef55751875551600187015551805160028701916001600160401b038211610a1a57610c89826107308554612e8c565b602090601f8311600114610e9257610cb892918b91836108965750508160011b916000199060031b1c19161790565b90555b5160038501555160048401555160058301556006820190516003811015610e7e57906007929160ff801983541691161790550192519283516001600160401b038111610e6a57610d1581610d0f8454612e8c565b8461340c565b602094601f8211600114610e085784958291610d47949596926108965750508160011b916000199060031b1c19161790565b90555b338252600660205260016040832001600b5490805493600160401b851015610df45750610d8384610d9a926001610de6970181556131a1565b819391549060031b91821b91600019901b19161790565b90557f5decab71e0179c4a357e5f497297b72c7f2271c2350638169cc1d509062adc3a610dde600b5492604051918291858352604060208401526040830190613044565b0390a161353e565b600b55602060405160018152f35b634e487b7160e01b81526041600452602490fd5b601f1982169583865280862091865b888110610e5257508360019596979810610e39575b505050811b019055610d4a565b015160001960f88460031b161c19169055388080610e2c565b91926020600181928685015181550194019201610e17565b634e487b7160e01b84526041600452602484fd5b634e487b7160e01b85526021600452602485fd5b838b52818b209190601f1984168c5b818110610edd5750908460019594939210610ec4575b505050811b019055610cbb565b015160001960f88460031b161c19169055388080610eb7565b92936020600181928786015181550195019301610ea1565b634e487b7160e01b8a5260048a905260248afd5b634e487b7160e01b85526011600452602485fd5b60405162461bcd60e51b8152602060048201526016602482015275139bc81858dd1a5d99481c1bdb1a58de48199bdd5b9960521b6044820152606490fd5b50949192939050610b55565b60405162461bcd60e51b815260206004820152600f60248201526e139bc81c1bdb1a58de48199bdd5b99608a1b6044820152606490fd5b8454835260019485019488945060209093019201610aec565b50346102475780600319360112610247576004546040516001600160a01b039091168152602090f35b5034610247578060031936011261024757600a54610ffd816133a6565b906110078161335c565b92611011826133a6565b9361101b836133a6565b94611025846133a6565b9061102f85613345565b9261103d6040519485612d78565b85845261104986613345565b602085019690601f1901368837855b8181106110fd575050916110b360c097986110a56110c19461109760209761108a6040519e8f9e8f81815201906130d3565b8d81038a8f015290613107565b908b820360408d01526130d3565b9089820360608b01526130d3565b9087820360808901526130d3565b9185830360a087015251918281520192915b8181106110e1575050500390f35b825160ff168452859450602093840193909201916001016110d3565b60c0611118611112839b959697989a9b612e57565b506134b1565b805161112484876133eb565b5261113d60016111376040840151613160565b01612f7f565b61114784886133eb565b5261115283876133eb565b50606081015161116284896133eb565b526080810151611172848e6133eb565b5260a0810151611182848a6133eb565b52015160038110156111af579060019160ff61119e838c6133eb565b911690520197969493929197611058565b634e487b7160e01b88526021600452602488fd5b50346102475760203660031901126102475760043580151580611364575b6111ea90613277565b60001981019081116113505761111261120291612e57565b602081015182526005602052604082206040519161121f83612d2a565b8154835260018060a01b0360018301541660208401526002820154926040810193845260038301546060820152610100600860048501549460808401958652600581015460a085015260ff600682015416151560c085015261128360078201612f7f565b60e08501520154910152805191600161129f6040840151613160565b0190519162278d0083019485841161133c575160608201519060c083015192600384101561132857906112e160e060ff9594936102d8999a9b50015195612f7f565b986113006040519a8b9a8b5261010060208c01526101008b0190613044565b9660408a01526060890152608088015260a08701521660c085015283820360e0850152613044565b634e487b7160e01b89526021600452602489fd5b634e487b7160e01b87526011600452602487fd5b634e487b7160e01b82526011600452602482fd5b50600b5481106111e1565b50346102475760203660031901126102475780604091610100835161139381612d2a565b82815282602082015282858201528260608201528260808201528260a08201528260c0820152606060e0820152015260043581526005602052206040516113d981612d2a565b8154815260018060a01b0360018301541691602082019283526114ae6002820154916040840192835260038101546060850190815260048201546080860190815260058301549060a0870191825260ff6006850154169260c088019315158452600861144760078701612f7f565b9560e08a019687520154966101008901978852604051998a9960208b525160208b015260018060a01b0390511660408a01525160608901525160808801525160a08701525160c086015251151560e085015251610120610100850152610140840190613044565b90516101208301520390f35b50346102475780600319360112610247576020600b54604051908152f35b50346102475780600319360112610247576020600954604051908152f35b503461024757806003193601126102475760075461151381613345565b906115216040519283612d78565b808252601f1961153082613345565b01366020840137611540816133a6565b92805b82811061157457611566846102d887604051938493604085526040850190613096565b9083820360208501526130d3565b80611580600192613186565b838060a01b0391549060031b1c1661159882876133eb565b526115a281613186565b838060a01b0391549060031b1c168352600660205260026040842001546115c982886133eb565b5201611543565b5034610247578060031936011261024757546040516001600160a01b039091168152602090f35b5034610247576020366003190112610247576001600160a01b03611619612e00565b168152600660205260016040822001604051918260208354918281520192825260208220915b818110611656576102d8856102c481870382612d78565b825484526020909301926001928301920161163f565b503461024757602036600319011261024757600435801515806117be575b61169390613277565b60001981018181116117aa576116a890612e57565b50600181810154845260056020526040842001546001600160a01b031633036117735760060160ff815416600381101561175f57611720577f71b2546244a774fd0b97d37ceaac0b5f5fc83f468abb1877f67fcfca93a20c4091604091600160ff19825416179055815190815260016020820152a180f35b60405162461bcd60e51b815260206004820152601760248201527610db185a5b48185b1c9958591e481c1c9bd8d95cdcd959604a1b6044820152606490fd5b634e487b7160e01b84526021600452602484fd5b60405162461bcd60e51b815260206004820152600f60248201526e4e6f7420796f757220706f6c69637960881b6044820152606490fd5b634e487b7160e01b83526011600452602483fd5b50600b54811061168a565b50346102475780600319360112610247576117e261354d565b80546001600160a01b03198116825581906001600160a01b03167f8be0079c531659141344cd1fd0a4f28419497f9722a3daafe3b4186f6b6457e08280a380f35b503461024757602036600319011261024757600435908160011b918083046002149015171561185757602082604051908152f35b634e487b7160e01b81526011600452602490fd5b5034610247576080366003190112610247576004356001600160401b038111610a3e5761189c903690600401612db4565b6024356001600160401b038111610a3a576118bb903690600401613069565b906044356001600160401b038111610a32576118db903690600401613069565b90916118e561354d565b6119186020604051611907610abf8951928481818d0195610aaf818389613021565b604051809381928a51928391613021565b810160088152030190209360018501916001600160401b038211611b1957611944826107308554612e8c565b8790601f8311600114611ab5576119729291899183611a0b5750508160011b916000199060031b1c19161790565b90555b60038301916001600160401b038211611aa157611996826107308554612e8c565b8590601f8311600114611a16578261084595937fa35de865ec4f1cbf701c0b24f4131c3881f019afaab526e3fd3a2986651c48ec9795936119ec938a92611a0b5750508160011b916000199060031b1c19161790565b90555b6002606435910155604051918291602083526020830190613044565b0135905038806106f4565b8387526020872091601f198416885b818110611a89575092600192859261084598967fa35de865ec4f1cbf701c0b24f4131c3881f019afaab526e3fd3a2986651c48ec9a989610611a6f575b505050811b0190556119ef565b0135600019600384901b60f8161c19169055388080611a62565b91936020600181928787013581550195019201611a25565b634e487b7160e01b86526041600452602486fd5b8389526020892091601f1984168a5b818110611b015750908460019594939210611ae7575b505050811b019055611975565b0135600019600384901b60f8161c19169055388080611ada565b91936020600181928787013581550195019201611ac4565b634e487b7160e01b88526041600452602488fd5b503461024757606036600319011261024757600435906001600160401b038211610247576020611b70611b633660048601612db4565b6044359060243590613451565b604051908152f35b50346102475780600319360112610247576020600254604051908152f35b5034610247578060031936011261024757600a54611bb3816133a6565b90611bbd8161335c565b611bc68261335c565b90611bd08361335c565b92855b818110611c2857611bfe866102d887611c1a88611c0c896040519788976080895260808901906130d3565b908782036020890152613107565b908582036040870152613107565b908382036060850152613107565b611c3181612e57565b508054611c3e83896133eb565b526040516002820180548a91611c5382612e8c565b9160018116908115611d595750600114611d25575b5050600660019493611c8c86856020611d099787600860ff99520301902001612f7f565b611c96868a6133eb565b52611ca185896133eb565b50611caf6003820154613576565b611ceb6004602060405184611ccd8296518092858086019101613021565b8101630408aa8960e31b838201520301601b19810184520182612d78565b611cf5868b6133eb565b52611d00858a6133eb565b500154166136e5565b611d1382886133eb565b52611d1e81876133eb565b5001611bd3565b9091508a5260208a208a905b828210611d45575050810160066001611c68565b600181602092548487015201910190611d31565b60ff191685525050801515028201905060066001611c68565b50346102475760203660031901126102475760043590600754821015610247576020611d9d83613186565b905460405160039290921b1c6001600160a01b03168152f35b503461024757602036600319011261024757600435906001600160401b03821161024757611e4e611e026020611def3660048701612db4565b8160405193828580945193849201613021565b810160088152030190206102d8611e1882612f7f565b91611e2560018201612f7f565b611e5c611e39600360028501549401612f7f565b91604051968796608088526080880190613044565b908682036020880152613044565b9160408501528382036060850152613044565b506080366003190112610247576024356004356044356001600160401b038111610a3657611ea1903690600401612db4565b91606435914281116122365762015180820282810462015180148315171561222257611ecd90826133ff565b91828210156121d257611ee1908486613451565b801561218d578034036121515760405160208101903060601b82523360601b603482015242604882015260488152611f1a606882612d78565b519020948160011b9082820460020361213d578590878960405194611f3e86612d2a565b828652602086019033825260408701908152606087019088825260808801928a8452604060a08a01958d875260c08b019781895260e08c01998a526101008c019a8b52815260056020522098518955600189019060018060a01b0390511660018060a01b0319825416179055516002880155516003870155516004860155516005850155600684019051151560ff801983541691161790556007830190518051906001600160401b03821161212957611ffb826107308554612e8c565b6020908b601f84116001146120c157600895949361202f939092836108965750508160011b916000199060031b1c19161790565b90555b51910155338652600660205260408620805496600160401b881015610df45750612068610d83888893600160209b0181556131a1565b9055612076816003546133ff565b60035560405193858552868501526040840152606083015260808201527f4bdf67d7576c88a1f1180f8844338e7be49ba2c0bc3cf1e411753f442663331560a03392a2604051908152f35b50838c52818c209190601f1984168d5b8181106121115750916001939185600898979694106120f8575b505050811b019055612032565b015160001960f88460031b161c191690553880806120eb565b929360206001819287860151815501950193016120d1565b634e487b7160e01b8b52604160045260248bfd5b634e487b7160e01b88526011600452602488fd5b60405162461bcd60e51b8152602060048201526014602482015273125b98dbdc9c9958dd0811551208185b5bdd5b9d60621b6044820152606490fd5b60405162461bcd60e51b815260206004820152601e60248201527f5072656d69756d206d7573742062652067726561746572207468616e203000006044820152606490fd5b60405162461bcd60e51b815260206004820152602260248201527f53746172742074696d65206d757374206265206265666f726520656e642074696044820152616d6560f01b6064820152608490fd5b634e487b7160e01b86526011600452602486fd5b60405162461bcd60e51b815260206004820152602260248201527f53746172742074696d65206d757374206265203c3d2063757272656e742074696044820152616d6560f01b6064820152608490fd5b503461024757806003193601126102475733815260066020526040812054906122ae82613345565b916122bc6040519384612d78565b808352601f196122cb82613345565b013660208501376122db8161335c565b6122e4826133a6565b906122ee836133a6565b92845b8181106123ae57612323878761234d8861233f896123318a604051988998338a5260c060208b015260c08a01906130d3565b9088820360408a0152613107565b9086820360608801526130d3565b9084820360808601526130d3565b9082820360a0840152606051808352602083019260208260051b82010193608093915b83831061237d5786860387f35b91939550919360208061239c600193601f198682030187528951613044565b97019301930190928695949293612370565b60019033875260066020526123c681604089206131a1565b90549060031b1c80885260056020526040882090604051916123e783612d2a565b80548352848060a01b038582015416602084015260028101549160408401928352600382015460608501526004820154608085015260058201549360a0810194855260ff600684015416151560c0820152610100600861244960078601612f7f565b9460e084019586520154910152612460858d6133eb565b525161246c84886133eb565b5261247783876133eb565b505161248383886133eb565b525161248f82886133eb565b52612498612ec6565b6124a1826133d8565b526124ab816133d8565b50016122f1565b5034610247576124c136612e16565b6124cc92919261354d565b6124ff60206040516124ee610abf8751928481818b0195610aaf818389613021565b604051809381928851928391613021565b60089082019081520301902060040180549093908390816001600160a01b038516815b83811061261a575b5050156125df576000198101908111610f09579061256761254e61256d93886131a1565b905460039190911b1c6001600160a01b031691876131a1565b9061322c565b83549384156125cb577f4e92d5f5f756338b7860750af0c1d3cfecf6abe2848b89e2a4aebc0275aaa3a0939460001901906125a882826131a1565b81549060018060a01b039060031b1b19169055556108456040519283928361324f565b634e487b7160e01b84526031600452602484fd5b60405162461bcd60e51b8152602060048201526013602482015272135bd9195c985d1bdc881b9bdd08199bdd5b99606a1b6044820152606490fd5b81612625828b6131a1565b905460039190911b1c6001600160a01b03161461264457600101612522565b935050506001388061252a565b50346102475780600319360112610247576102d861266d612ec6565b604051918291602083526020830190613044565b5034610247576020366003190112610247576004356001600160401b038111610a3e576108456126d67ffec510cf8dc709165f06d672244480e0718dc5ef561cfaa29c05b11869fcc044923690600401612db4565b6126de61354d565b60046127136020604051612702610abf8651928481818a0195610aaf818389613021565b604051809381928751928391613021565b81016008815203019020612726816132f6565b612732600182016132f6565b856002820155612744600382016132f6565b01805485825580612766575b5050604051918291602083526020830190613044565b61277991865260208620908101906132b6565b3880612750565b50346102475760203660031901126102475760043561279d61354d565b801515806129a1575b6127af90613277565b6000198101908111611350576127c490612e57565b5060ff600682015416600381101561298d57600103612953576001015481526005602052604081206006810180549060ff82166129155760035490600284019283548093106128db5760ff191660011790556003549081039081116128c757600355600182018380808060018060a01b038554168654905af16128456131b9565b501561288c577fe64ba0c150ba8da1befe0c879808734569d6e16bf75e2b77c4e1db04e359cba59160409160018060a01b039054169354905482519182526020820152a280f35b60405162461bcd60e51b8152602060048201526013602482015272115512081d1c985b9cd9995c8819985a5b1959606a1b6044820152606490fd5b634e487b7160e01b84526011600452602484fd5b60405162461bcd60e51b8152602060048201526012602482015271496e73756666696369656e742066756e647360701b6044820152606490fd5b60405162461bcd60e51b8152602060048201526016602482015275141bdb1a58de48185b1c9958591e4818db185a5b595960521b6044820152606490fd5b60405162461bcd60e51b815260206004820152601260248201527110db185a5b481b9bdd081858d8d95c1d195960721b6044820152606490fd5b634e487b7160e01b83526021600452602483fd5b50600b5481106127a6565b5034610247576020366003190112610247576004356001600160401b038111610a3e5760206129e060049236908401613069565b9190612a02610abf604051858482378481878101600881520301902054612e8c565b8260405193849283378101600881520301902001604051918260208354918281520192825260208220915b818110612a58576102d885612a4481870382612d78565b604051918291602083526020830190613096565b82546001600160a01b0316845260209093019260019283019201612a2d565b503461024757602036600319011261024757600435600a54811015610a3e57612a9f90612e57565b5090815491600181015490612ab660028201612f7f565b926003820154936004830154612afe600585015492612adf600760ff6006890154169701612f7f565b96604051998a5260208a015261010060408a0152610100890190613044565b956060880152608087015260a08601526003821015612b30575060c084015282820360e084015282916102d891613044565b634e487b7160e01b81526021600452602490fd5b503461024757612b5336612e16565b612b5e92919261354d565b612b8060206040516124ee610abf8751928481818b0195610aaf818389613021565b60089082019081520301902060040180549093906001600160a01b038316845b828110612bff5750508454949050600160401b851015610e6a578261256786612bf09360017f1e82538a74e2d67da16caf9f37bda44972c8925d3fba8da46c01df3bd958f5bf98990181556131a1565b6108456040519283928361324f565b81612c0a82896131a1565b905460039190911b1c6001600160a01b031614612c2957600101612ba0565b60405162461bcd60e51b81526020600482015260186024820152774d6f64657261746f7220616c72656164792065786973747360401b6044820152606490fd5b506040366003190112610247576004356001600160a01b03811690819003610a3e5760243590612c9761354d565b814710612cee578280809381935af1612cae6131b9565b5015612cb75780f35b60405162461bcd60e51b815260206004820152600f60248201526e151c985b9cd9995c8819985a5b1959608a1b6044820152606490fd5b60405162461bcd60e51b8152602060048201526014602482015273496e73756666696369656e742062616c616e636560601b6044820152606490fd5b61012081019081106001600160401b03821117612d4657604052565b634e487b7160e01b600052604160045260246000fd5b61010081019081106001600160401b03821117612d4657604052565b90601f801991011681019081106001600160401b03821117612d4657604052565b6001600160401b038111612d4657601f01601f191660200190565b81601f82011215612dfb57803590612dcb82612d99565b92612dd96040519485612d78565b82845260208383010111612dfb57816000926020809301838601378301015290565b600080fd5b600435906001600160a01b0382168203612dfb57565b6040600319820112612dfb57600435906001600160401b038211612dfb57612e4091600401612db4565b906024356001600160a01b0381168103612dfb5790565b600a54811015612e7657600a60005260206000209060031b0190600090565b634e487b7160e01b600052603260045260246000fd5b90600182811c92168015612ebc575b6020831014612ea657565b634e487b7160e01b600052602260045260246000fd5b91607f1691612e9b565b6040519060008260015491612eda83612e8c565b8083529260018116908115612f605750600114612f00575b612efe92500383612d78565b565b506001600090815290917fb10e2d527612073b26eecdfd717e6a320cf44b4afac2b0732d9fcbe2b7fa0cf65b818310612f44575050906020612efe92820101612ef2565b6020919350806001915483858901015201910190918492612f2c565b60209250612efe94915060ff191682840152151560051b820101612ef2565b9060405191826000825492612f9384612e8c565b8084529360018116908115612fff5750600114612fb8575b50612efe92500383612d78565b90506000929192526020600020906000915b818310612fe3575050906020612efe9282010138612fab565b6020919350806001915483858901015201910190918492612fca565b905060209250612efe94915060ff191682840152151560051b82010138612fab565b60005b8381106130345750506000910152565b8181015183820152602001613024565b9060209161305d81518092818552858086019101613021565b601f01601f1916010190565b9181601f84011215612dfb578235916001600160401b038311612dfb5760208381860195010111612dfb57565b906020808351928381520192019060005b8181106130b45750505090565b82516001600160a01b03168452602093840193909201916001016130a7565b906020808351928381520192019060005b8181106130f15750505090565b82518452602093840193909201916001016130e4565b9080602083519182815201916020808360051b8301019401926000915b83831061313357505050505090565b9091929394602080613151600193601f198682030187528951613044565b97019301930191939290613124565b6020613179918160405193828580945193849201613021565b8101600881520301902090565b600754811015612e7657600760005260206000200190600090565b8054821015612e765760005260206000200190600090565b3d156131e4573d906131ca82612d99565b916131d86040519384612d78565b82523d6000602084013e565b606090565b156131f057565b60405162461bcd60e51b8152602060048201526014602482015273115d995b9d08191bd95cc81b9bdd08195e1a5cdd60621b6044820152606490fd5b80546001600160a01b0360039390931b83811b199091169290931690921b179055565b90613267602091949394604084526040840190613044565b6001600160a01b03909416910152565b1561327e57565b60405162461bcd60e51b815260206004820152601060248201526f125b9d985b1a590818db185a5b481a5960821b6044820152606490fd5b8181106132c1575050565b600081556001016132b6565b818102929181159184041417156132e057565b634e487b7160e01b600052601160045260246000fd5b6133008154612e8c565b908161330a575050565b81601f6000931160011461331c575055565b8183526020832061333891601f0160051c8101906001016132b6565b8082528160208120915555565b6001600160401b038111612d465760051b60200190565b9061336682613345565b6133736040519182612d78565b8281528092613384601f1991613345565b019060005b82811061339557505050565b806060602080938501015201613389565b906133b082613345565b6133bd6040519182612d78565b82815280926133ce601f1991613345565b0190602036910137565b606051811015612e765760051b60800190565b8051821015612e765760209160051b010190565b919082018092116132e057565b9190601f811161341b57505050565b612efe926000526020600020906020601f840160051c83019310613447575b601f0160051c01906132b6565b909150819061343a565b606490929192604051613485602082816134748183019687815193849201613021565b81010301601f198101835282612d78565b51902006600181018091116132e0576134a86134ad92655af3107a4000946132cd565b6132cd565b0490565b906040516134be81612d5c565b809280548252600181015460208301526134da60028201612f7f565b60408301526003810154606083015260048101546080830152600581015460a083015260ff6006820154169060038210156135285760076135239160e09360c086015201612f7f565b910152565b634e487b7160e01b600052602160045260246000fd5b60001981146132e05760010190565b6000546001600160a01b0316330361356157565b63118cdaa760e01b6000523360045260246000fd5b6000908072184f03e93ff9f4daa797ed6e38ed64bf6a1f0160401b8110156136c2575b806d04ee2d6d415b85acef8100000000600a9210156136a7575b662386f26fc10000811015613693575b6305f5e100811015613682575b612710811015613673575b6064811015613665575b101561365a575b600a602160018401936135fe85612d99565b9461360c6040519687612d78565b80865261361b601f1991612d99565b013660208701378401015b60001901916f181899199a1a9b1b9c1cb0b131b232b360811b8282061a835304801561365557600a9091613626565b505090565b6001909101906135ec565b6064600291049301926135e5565b612710600491049301926135db565b6305f5e100600891049301926135d0565b662386f26fc10000601091049301926135c3565b6d04ee2d6d415b85acef8100000000602091049301926135b3565b506040915072184f03e93ff9f4daa797ed6e38ed64bf6a1f0160401b8104613599565b6003811015613528578015613769576000906001811461374157600291501461371d57604051613716602082612d78565b6000815290565b60405161372b604082612d78565b600681526511195b9a595960d21b602082015290565b5050604051613751604082612d78565b60088152671058d8d95c1d195960c21b602082015290565b50604051613778604082612d78565b600781526650656e64696e6760c81b60208201529056fea2646970667358221220edf5815f16ca5f1ebfb5710cb953b71fbcdca984d2503a326badca2fef6917c364736f6c634300081c0033",
  "linkReferences": {},
  "deployedLinkReferences": {}
}