{
  "_format": "hh-sol-artifact-1",
  "contractName": "GraviInsurance",
  "sourceName": "contracts/GraviInsurance.sol",
  "abi": [
    {
      "inputs": [
        {
          "internalType": "string",
          "name": "_disasterType",
          "type": "string"
        },
        {
          "internalType": "uint256",
          "name": "_premiumRate",
          "type": "uint256"
        },
        {
          "internalType": "address",
          "name": "_graviCha",
          "type": "address"
        }
      ],
      "stateMutability": "nonpayable",
      "type": "constructor"
    },
    {
      "inputs": [
        {
          "internalType": "address",
          "name": "owner",
          "type": "address"
        }
      ],
      "name": "OwnableInvalidOwner",
      "type": "error"
    },
    {
      "inputs": [
        {
          "internalType": "address",
          "name": "account",
          "type": "address"
        }
      ],
      "name": "OwnableUnauthorizedAccount",
      "type": "error"
    },
    {
      "anonymous": false,
      "inputs": [
        {
          "indexed": true,
          "internalType": "address",
          "name": "user",
          "type": "address"
        },
        {
          "indexed": false,
          "internalType": "bytes32",
          "name": "policyId",
          "type": "bytes32"
        },
        {
          "indexed": false,
          "internalType": "uint256",
          "name": "payout",
          "type": "uint256"
        }
      ],
      "name": "ClaimApproved",
      "type": "event"
    },
    {
      "anonymous": false,
      "inputs": [
        {
          "indexed": false,
          "internalType": "string",
          "name": "eventId",
          "type": "string"
        },
        {
          "indexed": false,
          "internalType": "address",
          "name": "moderator",
          "type": "address"
        }
      ],
      "name": "ClaimModeratorAdded",
      "type": "event"
    },
    {
      "anonymous": false,
      "inputs": [
        {
          "indexed": false,
          "internalType": "string",
          "name": "eventId",
          "type": "string"
        },
        {
          "indexed": false,
          "internalType": "address",
          "name": "moderator",
          "type": "address"
        }
      ],
      "name": "ClaimModeratorRemoved",
      "type": "event"
    },
    {
      "anonymous": false,
      "inputs": [
        {
          "indexed": false,
          "internalType": "uint256",
          "name": "claimId",
          "type": "uint256"
        },
        {
          "indexed": false,
          "internalType": "enum GraviInsurance.ClaimStatus",
          "name": "status",
          "type": "uint8"
        }
      ],
      "name": "ClaimProcessed",
      "type": "event"
    },
    {
      "anonymous": false,
      "inputs": [
        {
          "indexed": false,
          "internalType": "uint256",
          "name": "claimId",
          "type": "uint256"
        },
        {
          "indexed": false,
          "internalType": "string",
          "name": "incidentDescription",
          "type": "string"
        }
      ],
      "name": "ClaimStarted",
      "type": "event"
    },
    {
      "anonymous": false,
      "inputs": [
        {
          "indexed": false,
          "internalType": "string",
          "name": "eventId",
          "type": "string"
        }
      ],
      "name": "DisasterEventAdded",
      "type": "event"
    },
    {
      "anonymous": false,
      "inputs": [
        {
          "indexed": false,
          "internalType": "string",
          "name": "eventId",
          "type": "string"
        }
      ],
      "name": "DisasterEventModified",
      "type": "event"
    },
    {
      "anonymous": false,
      "inputs": [
        {
          "indexed": false,
          "internalType": "string",
          "name": "eventId",
          "type": "string"
        }
      ],
      "name": "DisasterEventRemoved",
      "type": "event"
    },
    {
      "anonymous": false,
      "inputs": [
        {
          "indexed": true,
          "internalType": "address",
          "name": "donor",
          "type": "address"
        },
        {
          "indexed": false,
          "internalType": "uint256",
          "name": "amount",
          "type": "uint256"
        }
      ],
      "name": "FundsDonated",
      "type": "event"
    },
    {
      "anonymous": false,
      "inputs": [
        {
          "indexed": true,
          "internalType": "address",
          "name": "previousOwner",
          "type": "address"
        },
        {
          "indexed": true,
          "internalType": "address",
          "name": "newOwner",
          "type": "address"
        }
      ],
      "name": "OwnershipTransferred",
      "type": "event"
    },
    {
      "anonymous": false,
      "inputs": [
        {
          "indexed": true,
          "internalType": "address",
          "name": "user",
          "type": "address"
        },
        {
          "indexed": false,
          "internalType": "bytes32",
          "name": "policyId",
          "type": "bytes32"
        },
        {
          "indexed": false,
          "internalType": "uint256",
          "name": "coverageAmount",
          "type": "uint256"
        },
        {
          "indexed": false,
          "internalType": "uint256",
          "name": "premium",
          "type": "uint256"
        },
        {
          "indexed": false,
          "internalType": "uint256",
          "name": "startTime",
          "type": "uint256"
        },
        {
          "indexed": false,
          "internalType": "uint256",
          "name": "endTime",
          "type": "uint256"
        }
      ],
      "name": "PolicyPurchased",
      "type": "event"
    },
    {
      "inputs": [
        {
          "internalType": "string",
          "name": "eventId",
          "type": "string"
        },
        {
          "internalType": "address",
          "name": "moderator",
          "type": "address"
        }
      ],
      "name": "addClaimModerator",
      "outputs": [],
      "stateMutability": "nonpayable",
      "type": "function"
    },
    {
      "inputs": [
        {
          "internalType": "string",
          "name": "eventName",
          "type": "string"
        },
        {
          "internalType": "string",
          "name": "eventDescription",
          "type": "string"
        },
        {
          "internalType": "uint256",
          "name": "disasterDate",
          "type": "uint256"
        },
        {
          "internalType": "address[]",
          "name": "initialModerators",
          "type": "address[]"
        }
      ],
      "name": "addDisasterEvent",
      "outputs": [],
      "stateMutability": "nonpayable",
      "type": "function"
    },
    {
      "inputs": [
        {
          "internalType": "uint256",
          "name": "startTime",
          "type": "uint256"
        },
        {
          "internalType": "uint256",
          "name": "coveragePeriod",
          "type": "uint256"
        },
        {
          "internalType": "string",
          "name": "propertyAddress",
          "type": "string"
        },
        {
          "internalType": "uint256",
          "name": "propertyValue",
          "type": "uint256"
        }
      ],
      "name": "buyInsurance",
      "outputs": [
        {
          "internalType": "bytes32",
          "name": "",
          "type": "bytes32"
        }
      ],
      "stateMutability": "payable",
      "type": "function"
    },
    {
      "inputs": [
        {
          "internalType": "uint256",
          "name": "premium",
          "type": "uint256"
        }
      ],
      "name": "calculateCoverageAmountFromPremium",
      "outputs": [
        {
          "internalType": "uint256",
          "name": "coverageAmount",
          "type": "uint256"
        }
      ],
      "stateMutability": "pure",
      "type": "function"
    },
    {
      "inputs": [
        {
          "internalType": "string",
          "name": "propertyAddress",
          "type": "string"
        },
        {
          "internalType": "uint256",
          "name": "propertyValue",
          "type": "uint256"
        },
        {
          "internalType": "uint256",
          "name": "coveragePeriod",
          "type": "uint256"
        }
      ],
      "name": "calculatePremium",
      "outputs": [
        {
          "internalType": "uint256",
          "name": "premium",
          "type": "uint256"
        }
      ],
      "stateMutability": "pure",
      "type": "function"
    },
    {
      "inputs": [
        {
          "internalType": "uint256",
          "name": "",
          "type": "uint256"
        }
      ],
      "name": "claimRecords",
      "outputs": [
        {
          "internalType": "uint256",
          "name": "claimId",
          "type": "uint256"
        },
        {
          "internalType": "bytes32",
          "name": "policyId",
          "type": "bytes32"
        },
        {
          "internalType": "string",
          "name": "eventId",
          "type": "string"
        },
        {
          "internalType": "uint256",
          "name": "claimAmount",
          "type": "uint256"
        },
        {
          "internalType": "uint256",
          "name": "assessmentStart",
          "type": "uint256"
        },
        {
          "internalType": "uint256",
          "name": "assessmentEnd",
          "type": "uint256"
        },
        {
          "internalType": "enum GraviInsurance.ClaimStatus",
          "name": "status",
          "type": "uint8"
        },
        {
          "internalType": "string",
          "name": "incidentDescription",
          "type": "string"
        }
      ],
      "stateMutability": "view",
      "type": "function"
    },
    {
      "inputs": [
        {
          "internalType": "string",
          "name": "",
          "type": "string"
        }
      ],
      "name": "disasterEvents",
      "outputs": [
        {
          "internalType": "string",
          "name": "eventId",
          "type": "string"
        },
        {
          "internalType": "string",
          "name": "name",
          "type": "string"
        },
        {
          "internalType": "uint256",
          "name": "disasterDate",
          "type": "uint256"
        },
        {
          "internalType": "string",
          "name": "eventDescription",
          "type": "string"
        }
      ],
      "stateMutability": "view",
      "type": "function"
    },
    {
      "inputs": [],
      "name": "disasterType",
      "outputs": [
        {
          "internalType": "string",
          "name": "",
          "type": "string"
        }
      ],
      "stateMutability": "view",
      "type": "function"
    },
    {
      "inputs": [],
      "name": "donate",
      "outputs": [],
      "stateMutability": "payable",
      "type": "function"
    },
    {
      "inputs": [],
      "name": "donationRewardRate",
      "outputs": [
        {
          "internalType": "uint256",
          "name": "",
          "type": "uint256"
        }
      ],
      "stateMutability": "view",
      "type": "function"
    },
    {
      "inputs": [
        {
          "internalType": "uint256",
          "name": "",
          "type": "uint256"
        }
      ],
      "name": "donors",
      "outputs": [
        {
          "internalType": "address",
          "name": "",
          "type": "address"
        }
      ],
      "stateMutability": "view",
      "type": "function"
    },
    {
      "inputs": [
        {
          "internalType": "address",
          "name": "user",
          "type": "address"
        }
      ],
      "name": "fetchInsuranceIds",
      "outputs": [
        {
          "internalType": "bytes32[]",
          "name": "",
          "type": "bytes32[]"
        }
      ],
      "stateMutability": "view",
      "type": "function"
    },
    {
      "inputs": [],
      "name": "getAllClaimSummaries",
      "outputs": [
        {
          "internalType": "uint256[]",
          "name": "claimIds",
          "type": "uint256[]"
        },
        {
          "internalType": "string[]",
          "name": "eventNames",
          "type": "string[]"
        },
        {
          "internalType": "uint256[]",
          "name": "claimAmounts",
          "type": "uint256[]"
        },
        {
          "internalType": "uint256[]",
          "name": "assessmentStarts",
          "type": "uint256[]"
        },
        {
          "internalType": "uint256[]",
          "name": "assessmentEnds",
          "type": "uint256[]"
        },
        {
          "internalType": "uint8[]",
          "name": "statuses",
          "type": "uint8[]"
        }
      ],
      "stateMutability": "view",
      "type": "function"
    },
    {
      "inputs": [],
      "name": "getAllClaims",
      "outputs": [
        {
          "internalType": "uint256[]",
          "name": "",
          "type": "uint256[]"
        },
        {
          "internalType": "string[]",
          "name": "",
          "type": "string[]"
        },
        {
          "internalType": "string[]",
          "name": "",
          "type": "string[]"
        },
        {
          "internalType": "string[]",
          "name": "",
          "type": "string[]"
        }
      ],
      "stateMutability": "view",
      "type": "function"
    },
    {
      "inputs": [],
      "name": "getAllDonors",
      "outputs": [
        {
          "internalType": "address[]",
          "name": "",
          "type": "address[]"
        },
        {
          "internalType": "uint256[]",
          "name": "",
          "type": "uint256[]"
        }
      ],
      "stateMutability": "view",
      "type": "function"
    },
    {
      "inputs": [
        {
          "internalType": "uint256",
          "name": "_claimId",
          "type": "uint256"
        }
      ],
      "name": "getClaimDetail",
      "outputs": [
        {
          "internalType": "uint256",
          "name": "claimId",
          "type": "uint256"
        },
        {
          "internalType": "string",
          "name": "eventName",
          "type": "string"
        },
        {
          "internalType": "uint256",
          "name": "purchaseDate",
          "type": "uint256"
        },
        {
          "internalType": "uint256",
          "name": "expiry",
          "type": "uint256"
        },
        {
          "internalType": "uint256",
          "name": "totalCoverAmount",
          "type": "uint256"
        },
        {
          "internalType": "uint256",
          "name": "requestedAmount",
          "type": "uint256"
        },
        {
          "internalType": "uint8",
          "name": "status",
          "type": "uint8"
        },
        {
          "internalType": "string",
          "name": "incidentDescription",
          "type": "string"
        }
      ],
      "stateMutability": "view",
      "type": "function"
    },
    {
      "inputs": [
        {
          "internalType": "string",
          "name": "eventId",
          "type": "string"
        }
      ],
      "name": "getClaimModerators",
      "outputs": [
        {
          "internalType": "address[]",
          "name": "",
          "type": "address[]"
        }
      ],
      "stateMutability": "view",
      "type": "function"
    },
    {
      "inputs": [],
      "name": "getDonationRewardRate",
      "outputs": [
        {
          "internalType": "uint256",
          "name": "",
          "type": "uint256"
        }
      ],
      "stateMutability": "view",
      "type": "function"
    },
    {
      "inputs": [
        {
          "internalType": "bytes32",
          "name": "policyId",
          "type": "bytes32"
        }
      ],
      "name": "getPolicy",
      "outputs": [
        {
          "components": [
            {
              "internalType": "bytes32",
              "name": "policyId",
              "type": "bytes32"
            },
            {
              "internalType": "address",
              "name": "policyHolder",
              "type": "address"
            },
            {
              "internalType": "uint256",
              "name": "coverageAmount",
              "type": "uint256"
            },
            {
              "internalType": "uint256",
              "name": "premiumPaid",
              "type": "uint256"
            },
            {
              "internalType": "uint256",
              "name": "startTime",
              "type": "uint256"
            },
            {
              "internalType": "uint256",
              "name": "endTime",
              "type": "uint256"
            },
            {
              "internalType": "bool",
              "name": "isClaimed",
              "type": "bool"
            },
            {
              "internalType": "string",
              "name": "propertyAddress",
              "type": "string"
            },
            {
              "internalType": "uint256",
              "name": "propertyValue",
              "type": "uint256"
            }
          ],
          "internalType": "struct GraviInsurance.Policy",
          "name": "",
          "type": "tuple"
        }
      ],
      "stateMutability": "view",
      "type": "function"
    },
    {
      "inputs": [
        {
          "internalType": "address",
          "name": "user",
          "type": "address"
        }
      ],
      "name": "getUserClaims",
      "outputs": [
        {
          "internalType": "uint256[]",
          "name": "",
          "type": "uint256[]"
        }
      ],
      "stateMutability": "view",
      "type": "function"
    },
    {
      "inputs": [],
      "name": "getUserPolicies",
      "outputs": [
        {
          "internalType": "address",
          "name": "user",
          "type": "address"
        },
        {
          "internalType": "bytes32[]",
          "name": "policyIds",
          "type": "bytes32[]"
        },
        {
          "internalType": "string[]",
          "name": "propertyAddresses",
          "type": "string[]"
        },
        {
          "internalType": "uint256[]",
          "name": "coverageAmounts",
          "type": "uint256[]"
        },
        {
          "internalType": "uint256[]",
          "name": "coverageEndDates",
          "type": "uint256[]"
        },
        {
          "internalType": "string[]",
          "name": "insuranceTypes",
          "type": "string[]"
        }
      ],
      "stateMutability": "view",
      "type": "function"
    },
    {
      "inputs": [],
      "name": "graviCha",
      "outputs": [
        {
          "internalType": "contract IGraviCha",
          "name": "",
          "type": "address"
        }
      ],
      "stateMutability": "view",
      "type": "function"
    },
    {
      "inputs": [
        {
          "internalType": "string",
          "name": "eventId",
          "type": "string"
        },
        {
          "internalType": "string",
          "name": "newName",
          "type": "string"
        },
        {
          "internalType": "string",
          "name": "newEventDescription",
          "type": "string"
        },
        {
          "internalType": "uint256",
          "name": "disasterDate",
          "type": "uint256"
        }
      ],
      "name": "modifyDisasterEvent",
      "outputs": [],
      "stateMutability": "nonpayable",
      "type": "function"
    },
    {
      "inputs": [],
      "name": "nextClaimId",
      "outputs": [
        {
          "internalType": "uint256",
          "name": "",
          "type": "uint256"
        }
      ],
      "stateMutability": "view",
      "type": "function"
    },
    {
      "inputs": [],
      "name": "nextEventId",
      "outputs": [
        {
          "internalType": "uint256",
          "name": "",
          "type": "uint256"
        }
      ],
      "stateMutability": "view",
      "type": "function"
    },
    {
      "inputs": [],
      "name": "owner",
      "outputs": [
        {
          "internalType": "address",
          "name": "",
          "type": "address"
        }
      ],
      "stateMutability": "view",
      "type": "function"
    },
    {
      "inputs": [
        {
          "internalType": "uint256",
          "name": "_claimId",
          "type": "uint256"
        }
      ],
      "name": "payoutClaim",
      "outputs": [],
      "stateMutability": "nonpayable",
      "type": "function"
    },
    {
      "inputs": [
        {
          "internalType": "bytes32",
          "name": "",
          "type": "bytes32"
        }
      ],
      "name": "policies",
      "outputs": [
        {
          "internalType": "bytes32",
          "name": "policyId",
          "type": "bytes32"
        },
        {
          "internalType": "address",
          "name": "policyHolder",
          "type": "address"
        },
        {
          "internalType": "uint256",
          "name": "coverageAmount",
          "type": "uint256"
        },
        {
          "internalType": "uint256",
          "name": "premiumPaid",
          "type": "uint256"
        },
        {
          "internalType": "uint256",
          "name": "startTime",
          "type": "uint256"
        },
        {
          "internalType": "uint256",
          "name": "endTime",
          "type": "uint256"
        },
        {
          "internalType": "bool",
          "name": "isClaimed",
          "type": "bool"
        },
        {
          "internalType": "string",
          "name": "propertyAddress",
          "type": "string"
        },
        {
          "internalType": "uint256",
          "name": "propertyValue",
          "type": "uint256"
        }
      ],
      "stateMutability": "view",
      "type": "function"
    },
    {
      "inputs": [],
      "name": "premiumRate",
      "outputs": [
        {
          "internalType": "uint256",
          "name": "",
          "type": "uint256"
        }
      ],
      "stateMutability": "view",
      "type": "function"
    },
    {
      "inputs": [
        {
          "internalType": "uint256",
          "name": "_claimId",
          "type": "uint256"
        }
      ],
      "name": "processClaim",
      "outputs": [],
      "stateMutability": "nonpayable",
      "type": "function"
    },
    {
      "inputs": [
        {
          "internalType": "string",
          "name": "eventId",
          "type": "string"
        },
        {
          "internalType": "address",
          "name": "moderator",
          "type": "address"
        }
      ],
      "name": "removeClaimModerator",
      "outputs": [],
      "stateMutability": "nonpayable",
      "type": "function"
    },
    {
      "inputs": [
        {
          "internalType": "string",
          "name": "eventId",
          "type": "string"
        }
      ],
      "name": "removeDisasterEvent",
      "outputs": [],
      "stateMutability": "nonpayable",
      "type": "function"
    },
    {
      "inputs": [],
      "name": "renounceOwnership",
      "outputs": [],
      "stateMutability": "nonpayable",
      "type": "function"
    },
    {
      "inputs": [
        {
          "internalType": "uint256",
          "name": "newRate",
          "type": "uint256"
        }
      ],
      "name": "setDonationRewardRate",
      "outputs": [],
      "stateMutability": "nonpayable",
      "type": "function"
    },
    {
      "inputs": [
        {
          "internalType": "string",
          "name": "eventId",
          "type": "string"
        },
        {
          "internalType": "string",
          "name": "incidentDescription",
          "type": "string"
        }
      ],
      "name": "startAClaim",
      "outputs": [
        {
          "internalType": "bool",
          "name": "",
          "type": "bool"
        }
      ],
      "stateMutability": "nonpayable",
      "type": "function"
    },
    {
      "inputs": [],
      "name": "totalPoolFunds",
      "outputs": [
        {
          "internalType": "uint256",
          "name": "",
          "type": "uint256"
        }
      ],
      "stateMutability": "view",
      "type": "function"
    },
    {
      "inputs": [
        {
          "internalType": "address payable",
          "name": "recipient",
          "type": "address"
        },
        {
          "internalType": "uint256",
          "name": "amount",
          "type": "uint256"
        }
      ],
      "name": "transferEther",
      "outputs": [],
      "stateMutability": "payable",
      "type": "function"
    },
    {
      "inputs": [
        {
          "internalType": "address",
          "name": "newOwner",
          "type": "address"
        }
      ],
      "name": "transferOwnership",
      "outputs": [],
      "stateMutability": "nonpayable",
      "type": "function"
    },
    {
      "inputs": [
        {
          "internalType": "address",
          "name": "",
          "type": "address"
        }
      ],
      "name": "userRecords",
      "outputs": [
        {
          "internalType": "uint256",
          "name": "donationTotal",
          "type": "uint256"
        }
      ],
      "stateMutability": "view",
      "type": "function"
    },
    {
      "stateMutability": "payable",
      "type": "receive"
    }
  ],
  "bytecode": "0x6080604052346102fc57613bad8038038061001981610316565b9283398101906060818303126102fc5780516001600160401b0381116102fc57810182601f820112156102fc578051906001600160401b03821161028e5761006a601f8301601f1916602001610316565b93828552602083830101116102fc5760005b828110610301575050602060009184010152604060208201519101519060018060a01b0382168092036102fc5733156102e65760008054336001600160a01b03198216811783556040519290916001600160a01b0316907f8be0079c531659141344cd1fd0a4f28419497f9722a3daafe3b4186f6b6457e09080a360016009556001600b55612710600c5581156102a4575082516001600160401b03811161028e57600154600181811c91168015610284575b602082101461026e57601f8111610209575b506020601f82116001146101a25781929394600092610197575b50508160011b916000199060031b1c1916176001555b600255600480546001600160a01b031916919091179055604051613871908161033c8239f35b01519050388061015b565b601f198216906001600052806000209160005b8181106101f1575095836001959697106101d8575b505050811b01600155610171565b015160001960f88460031b161c191690553880806101ca565b9192602060018192868b0151815501940192016101b5565b60016000527fb10e2d527612073b26eecdfd717e6a320cf44b4afac2b0732d9fcbe2b7fa0cf6601f830160051c81019160208410610264575b601f0160051c01905b8181106102585750610141565b6000815560010161024b565b9091508190610242565b634e487b7160e01b600052602260045260246000fd5b90607f169061012f565b634e487b7160e01b600052604160045260246000fd5b62461bcd60e51b815260206004820152601460248201527f496e76616c6964207072656d69756d20726174650000000000000000000000006044820152606490fd5b631e4fbdf760e01b600052600060045260246000fd5b600080fd5b8060208092840101518282880101520161007c565b6040519190601f01601f191682016001600160401b0381118382101761028e5760405256fe6080604052600436101561002a575b361561001957600080fd5b610025346003546134ab565b600355005b6000803560e01c806305b1137b14612d155780630744119014612bf0578063098464f314612b23578063098e028214612a585780630d13fa5a1461282c57806317b46b1b1461272d5780631ef4f7bc146126fd5780632133433c1461255e5780632425b2e91461233257806333c7072e14611f1b5780633defbf2814611e625780634abfa16314611e1e57806353591ad6146118f95780635b23c27d14611c425780635d0040d314611c2457806365eaf54814611bd957806366a3e4c814611917578063678f9350146118f95780636a0ecf50146118b1578063715018a6146118575780637257dfc9146116fa5780637bcb4a64146116855780638da5cb5b1461165e57806398e36b04146115845780639f9d903a14611566578063a0021cf114611548578063a3f685f9146113fd578063a591a0f4146113a0578063abe575b3146111f4578063ade5184814611011578063b04869ae14610fe8578063c189574514610a73578063c878519e14610569578063dabd2c801461052c578063ddbfd8ef14610482578063ed88c68e14610313578063f019602e14610289578063f1139d0f1461026b5763f2fde38b146101e3575061000e565b34610268576020366003190112610268576101fc612eac565b6102046135f9565b6001600160a01b031680156102545781546001600160a01b03198116821783556001600160a01b03167f8be0079c531659141344cd1fd0a4f28419497f9722a3daafe3b4186f6b6457e08380a380f35b631e4fbdf760e01b82526004829052602482fd5b80fd5b50346102685780600319360112610268576020600354604051908152f35b5034610268576020366003190112610268576001600160a01b036102ab612eac565b168152600660205260408120604051918260208354918281520192825260208220915b8181106102fd576102f9856102e581870382612e24565b60405191829160208352602083019061317f565b0390f35b82548452602090930192600192830192016102ce565b508060031936011261026857341561044d57610331346003546134ab565b6003553381526006602052600260408220015415610409575b3381526006602052600260408220016103643482546134ab565b9055600454600c5482916001600160a01b0316906103829034613379565b813b156104055782916044839260405195869384926340c10f1960e01b845233600485015260248401525af180156103f8576103e8575b6040513481527fd143b3fca8f81682799e935736170faff446dc630e9babfdc72e4ae53c181a2660203392a280f35b6103f191612e24565b38816103b9565b50604051903d90823e3d90fd5b5050fd5b600754600160401b8110156104395761042d8160016104349301600755600761324d565b33916132d8565b61034a565b634e487b7160e01b82526041600452602482fd5b60405162461bcd60e51b815260206004820152600d60248201526c09aeae6e840e6cadcc8408aa89609b1b6044820152606490fd5b5034610268576020366003190112610268576040906004358152600560205220805460018060a01b03600183015416916105216002820154916003810154600482015460058301549060ff6006850154169260086104e26007870161302b565b95015496604051998a998a5260208a015260408901526060880152608087015260a0860152151560c085015261012060e08501526101208401906130f0565b906101008301520390f35b5034610268576020366003190112610268576020906002906040906001600160a01b03610557612eac565b16815260068452200154604051908152f35b5034610268576080366003190112610268576004356001600160401b038111610a6f5761059a903690600401612e60565b6024356001600160401b038111610a6b576105b9903690600401612e60565b6064356001600160401b038111610a675736602382011215610a67578060040135916001600160401b038311610a635760248360051b830101368111610a5f576106016135f9565b6009549461060e86613622565b6106536040519761064e60248a6020810195634556542360e01b875261063d81518092602086860191016130cd565b81010301601f1981018b528a612e24565b6135ea565b6009556040519460a086018681106001600160401b03821117610a4b57604052878652602086019283526040860193604435855260608701958652610697886133f1565b976106a5604051998a612e24565b88526024602089019201915b818310610a275750505060206106d99160808701978852604051809381928b519283916130cd565b8101600881520301902093518051906001600160401b0382116109b05761070a826107048854612f38565b886134b8565b602090601f83116001146109c45761073a92918a91836108c7575b50508160011b916000199060031b1c19161790565b84555b51805160018501916001600160401b0382116109b057610767826107618554612f38565b856134b8565b602090601f831160011461094d5761079692918a91836108c75750508160011b916000199060031b1c19161790565b90555b51600283015551805160038301916001600160401b038211610939576107c3826107618554612f38565b602090601f83116001146108d25791806107f79260049695948a926108c75750508160011b916000199060031b1c19161790565b90555b019051908151916001600160401b0383116108b357600160401b83116108b3576020908254848455808510610899575b500190845260208420845b83811061087c57857f0edea3c9f900aa84820ccf471d6139121481d600b8dd8963e85aa7a7fb803534610876876040519182916020835260208301906130f0565b0390a180f35b82516001600160a01b031681830155602090920191600101610835565b8387528287206108ad918101908601613362565b3861082a565b634e487b7160e01b85526041600452602485fd5b015190503880610725565b8388528188209190601f198416895b818110610921575091600193918560049897969410610908575b505050811b0190556107fa565b015160001960f88460031b161c191690553880806108fb565b929360206001819287860151815501950193016108e1565b634e487b7160e01b87526041600452602487fd5b838a52818a209190601f1984168b5b818110610998575090846001959493921061097f575b505050811b019055610799565b015160001960f88460031b161c19169055388080610972565b9293602060018192878601518155019501930161095c565b634e487b7160e01b89526041600452602489fd5b868a52818a209190601f1984168b5b818110610a0f57509084600195949392106109f6575b505050811b01845561073d565b015160001960f88460031b161c191690553880806109e9565b929360206001819287860151815501950193016109d3565b82356001600160a01b0381168103610a47578152602092830192016106b1565b8b80fd5b634e487b7160e01b8a52604160045260248afd5b8580fd5b8480fd5b8380fd5b8280fd5b5080fd5b5034610268576040366003190112610268576004356001600160401b038111610a6f57610aa4903690600401612e60565b906024356001600160401b038111610a6f57610ac4903690600401612e60565b90610af7610af06040516020818751610ae08183858c016130cd565b8101600881520301902054612f38565b1515613295565b338152600660205260408120916040518084602082965493848152019085526020852092855b818110610fcf575050610b3292500384612e24565b825115610f985781928293835b8251811015610f8c57610b528184613497565b518552600560205260ff60066040872001541615610b7257600101610b3f565b919050610b8192939450613497565b519260015b15610f4e5783835260056020526040832090604051610ba481612dd6565b8254815260018301546001600160a01b031660208201526002830154604082019081526003840154606083015260048401546080830152600584015460a0830152600684015460ff16151560c08301529261010090600890610c086007820161302b565b60e085015201549101526203f4804201804211610f3a57600b54925160405193610c3185612e08565b8452602084019687526040840192835260608401908152608084019042825260a0850192835260c085019387855260e0860198878a52600a54600160401b811015610a4b57806001610c869201600a55612f03565b979097610f265751875551600187015551805160028701916001600160401b038211610a4b57610cba826107618554612f38565b602090601f8311600114610ec357610ce992918b91836108c75750508160011b916000199060031b1c19161790565b90555b5160038501555160048401555160058301556006820190516003811015610eaf57906007929160ff801983541691161790550192519283516001600160401b038111610e9b57610d4681610d408454612f38565b846134b8565b602094601f8211600114610e395784958291610d78949596926108c75750508160011b916000199060031b1c19161790565b90555b338252600660205260016040832001600b5490805493600160401b851015610e255750610db484610dcb926001610e179701815561324d565b819391549060031b91821b91600019901b19161790565b90557f5decab71e0179c4a357e5f497297b72c7f2271c2350638169cc1d509062adc3a610e0f600b54926040519182918583526040602084015260408301906130f0565b0390a16135ea565b600b55602060405160018152f35b634e487b7160e01b81526041600452602490fd5b601f1982169583865280862091865b888110610e8357508360019596979810610e6a575b505050811b019055610d7b565b015160001960f88460031b161c19169055388080610e5d565b91926020600181928685015181550194019201610e48565b634e487b7160e01b84526041600452602484fd5b634e487b7160e01b85526021600452602485fd5b838b52818b209190601f1984168c5b818110610f0e5750908460019594939210610ef5575b505050811b019055610cec565b015160001960f88460031b161c19169055388080610ee8565b92936020600181928786015181550195019301610ed2565b634e487b7160e01b8a5260048a905260248afd5b634e487b7160e01b85526011600452602485fd5b60405162461bcd60e51b8152602060048201526016602482015275139bc81858dd1a5d99481c1bdb1a58de48199bdd5b9960521b6044820152606490fd5b50949192939050610b86565b60405162461bcd60e51b815260206004820152600f60248201526e139bc81c1bdb1a58de48199bdd5b99608a1b6044820152606490fd5b8454835260019485019488945060209093019201610b1d565b50346102685780600319360112610268576004546040516001600160a01b039091168152602090f35b5034610268578060031936011261026857600a5461102e81613452565b9061103881613408565b9261104282613452565b9361104c83613452565b9461105684613452565b90611060856133f1565b9261106e6040519485612e24565b85845261107a866133f1565b602085019690601f1901368837855b81811061112e575050916110e460c097986110d66110f2946110c86020976110bb6040519e8f9e8f818152019061317f565b8d81038a8f0152906131b3565b908b820360408d015261317f565b9089820360608b015261317f565b90878203608089015261317f565b9185830360a087015251918281520192915b818110611112575050500390f35b825160ff16845285945060209384019390920191600101611104565b60c0611149611143839b959697989a9b612f03565b5061355d565b80516111558487613497565b5261116e6001611168604084015161320c565b0161302b565b6111788488613497565b526111838387613497565b5060608101516111938489613497565b5260808101516111a3848e613497565b5260a08101516111b3848a613497565b52015160038110156111e0579060019160ff6111cf838c613497565b911690520197969493929197611089565b634e487b7160e01b88526021600452602488fd5b50346102685760203660031901126102685760043580151580611395575b61121b90613323565b60001981019081116113815761114361123391612f03565b602081015182526005602052604082206040519161125083612dd6565b8154835260018060a01b0360018301541660208401526002820154926040810193845260038301546060820152610100600860048501549460808401958652600581015460a085015260ff600682015416151560c08501526112b46007820161302b565b60e0850152015491015280519160016112d0604084015161320c565b0190519162278d0083019485841161136d575160608201519060c0830151926003841015611359579061131260e060ff9594936102f9999a9b5001519561302b565b986113316040519a8b9a8b5261010060208c01526101008b01906130f0565b9660408a01526060890152608088015260a08701521660c085015283820360e08501526130f0565b634e487b7160e01b89526021600452602489fd5b634e487b7160e01b87526011600452602487fd5b634e487b7160e01b82526011600452602482fd5b50600b548110611212565b5034610268576020366003190112610268576004356113bd6135f9565b80156113c957600c5580f35b60405162461bcd60e51b815260206004820152600c60248201526b496e76616c6964207261746560a01b6044820152606490fd5b50346102685760203660031901126102685780604091610100835161142181612dd6565b82815282602082015282858201528260608201528260808201528260a08201528260c0820152606060e08201520152600435815260056020522060405161146781612dd6565b8154815260018060a01b03600183015416916020820192835261153c6002820154916040840192835260038101546060850190815260048201546080860190815260058301549060a0870191825260ff6006850154169260c08801931515845260086114d56007870161302b565b9560e08a019687520154966101008901978852604051998a9960208b525160208b015260018060a01b0390511660408a01525160608901525160808801525160a08701525160c086015251151560e0850152516101206101008501526101408401906130f0565b90516101208301520390f35b50346102685780600319360112610268576020600b54604051908152f35b50346102685780600319360112610268576020600954604051908152f35b50346102685780600319360112610268576007546115a1816133f1565b906115af6040519283612e24565b808252601f196115be826133f1565b013660208401376115ce81613452565b92805b828110611602576115f4846102f987604051938493604085526040850190613142565b90838203602085015261317f565b8061160e600192613232565b838060a01b0391549060031b1c166116268287613497565b5261163081613232565b838060a01b0391549060031b1c168352600660205260026040842001546116578288613497565b52016115d1565b5034610268578060031936011261026857546040516001600160a01b039091168152602090f35b5034610268576020366003190112610268576001600160a01b036116a7612eac565b168152600660205260016040822001604051918260208354918281520192825260208220915b8181106116e4576102f9856102e581870382612e24565b82548452602090930192600192830192016116cd565b5034610268576020366003190112610268576004358015158061184c575b61172190613323565b60001981018181116118385761173690612f03565b50600181810154845260056020526040842001546001600160a01b031633036118015760060160ff81541660038110156117ed576117ae577f71b2546244a774fd0b97d37ceaac0b5f5fc83f468abb1877f67fcfca93a20c4091604091600160ff19825416179055815190815260016020820152a180f35b60405162461bcd60e51b815260206004820152601760248201527610db185a5b48185b1c9958591e481c1c9bd8d95cdcd959604a1b6044820152606490fd5b634e487b7160e01b84526021600452602484fd5b60405162461bcd60e51b815260206004820152600f60248201526e4e6f7420796f757220706f6c69637960881b6044820152606490fd5b634e487b7160e01b83526011600452602483fd5b50600b548110611718565b50346102685780600319360112610268576118706135f9565b80546001600160a01b03198116825581906001600160a01b03167f8be0079c531659141344cd1fd0a4f28419497f9722a3daafe3b4186f6b6457e08280a380f35b503461026857602036600319011261026857600435908160011b91808304600214901517156118e557602082604051908152f35b634e487b7160e01b81526011600452602490fd5b50346102685780600319360112610268576020600c54604051908152f35b5034610268576080366003190112610268576004356001600160401b038111610a6f57611948903690600401612e60565b6024356001600160401b038111610a6b57611967903690600401613115565b906044356001600160401b038111610a6357611987903690600401613115565b90916119916135f9565b6119c460206040516119b3610af08951928481818d0195610ae08183896130cd565b604051809381928a519283916130cd565b810160088152030190209360018501916001600160401b038211611bc5576119f0826107618554612f38565b8790601f8311600114611b6157611a1e9291899183611ab75750508160011b916000199060031b1c19161790565b90555b60038301916001600160401b038211611b4d57611a42826107618554612f38565b8590601f8311600114611ac2578261087695937fa35de865ec4f1cbf701c0b24f4131c3881f019afaab526e3fd3a2986651c48ec979593611a98938a92611ab75750508160011b916000199060031b1c19161790565b90555b60026064359101556040519182916020835260208301906130f0565b013590503880610725565b8387526020872091601f198416885b818110611b35575092600192859261087698967fa35de865ec4f1cbf701c0b24f4131c3881f019afaab526e3fd3a2986651c48ec9a989610611b1b575b505050811b019055611a9b565b0135600019600384901b60f8161c19169055388080611b0e565b91936020600181928787013581550195019201611ad1565b634e487b7160e01b86526041600452602486fd5b8389526020892091601f1984168a5b818110611bad5750908460019594939210611b93575b505050811b019055611a21565b0135600019600384901b60f8161c19169055388080611b86565b91936020600181928787013581550195019201611b70565b634e487b7160e01b88526041600452602488fd5b503461026857606036600319011261026857600435906001600160401b038211610268576020611c1c611c0f3660048601612e60565b60443590602435906134fd565b604051908152f35b50346102685780600319360112610268576020600254604051908152f35b5034610268578060031936011261026857600a54611c5f81613452565b90611c6981613408565b611c7282613408565b90611c7c83613408565b92855b818110611cd457611caa866102f987611cc688611cb88960405197889760808952608089019061317f565b9087820360208901526131b3565b9085820360408701526131b3565b9083820360608501526131b3565b611cdd81612f03565b508054611cea8389613497565b526040516002820180548a91611cff82612f38565b9160018116908115611e055750600114611dd1575b5050600660019493611d3886856020611db59787600860ff9952030190200161302b565b611d42868a613497565b52611d4d8589613497565b50611d5b6003820154613622565b611d976004602060405184611d7982965180928580860191016130cd565b8101630408aa8960e31b838201520301601b19810184520182612e24565b611da1868b613497565b52611dac858a613497565b50015416613791565b611dbf8288613497565b52611dca8187613497565b5001611c7f565b9091508a5260208a208a905b828210611df1575050810160066001611d14565b600181602092548487015201910190611ddd565b60ff191685525050801515028201905060066001611d14565b50346102685760203660031901126102685760043590600754821015610268576020611e4983613232565b905460405160039290921b1c6001600160a01b03168152f35b503461026857602036600319011261026857600435906001600160401b03821161026857611efa611eae6020611e9b3660048701612e60565b81604051938285809451938492016130cd565b810160088152030190206102f9611ec48261302b565b91611ed16001820161302b565b611f08611ee560036002850154940161302b565b916040519687966080885260808801906130f0565b9086820360208801526130f0565b91604085015283820360608501526130f0565b506080366003190112610268576024356004356044356001600160401b038111610a6757611f4d903690600401612e60565b91606435914281116122e2576201518082028281046201518014831517156122ce57611f7990826134ab565b918282101561227e57611f8d9084866134fd565b8015612239578034036121fd5760405160208101903060601b82523360601b603482015242604882015260488152611fc6606882612e24565b519020948160011b908282046002036121e9578590878960405194611fea86612dd6565b828652602086019033825260408701908152606087019088825260808801928a8452604060a08a01958d875260c08b019781895260e08c01998a526101008c019a8b52815260056020522098518955600189019060018060a01b0390511660018060a01b0319825416179055516002880155516003870155516004860155516005850155600684019051151560ff801983541691161790556007830190518051906001600160401b0382116121d5576120a7826107618554612f38565b6020908b601f841160011461216d5760089594936120db939092836108c75750508160011b916000199060031b1c19161790565b90555b51910155338652600660205260408620805496600160401b881015610e255750612114610db4888893600160209b01815561324d565b9055612122816003546134ab565b60035560405193858552868501526040840152606083015260808201527f4bdf67d7576c88a1f1180f8844338e7be49ba2c0bc3cf1e411753f442663331560a03392a2604051908152f35b50838c52818c209190601f1984168d5b8181106121bd5750916001939185600898979694106121a4575b505050811b0190556120de565b015160001960f88460031b161c19169055388080612197565b9293602060018192878601518155019501930161217d565b634e487b7160e01b8b52604160045260248bfd5b634e487b7160e01b88526011600452602488fd5b60405162461bcd60e51b8152602060048201526014602482015273125b98dbdc9c9958dd0811551208185b5bdd5b9d60621b6044820152606490fd5b60405162461bcd60e51b815260206004820152601e60248201527f5072656d69756d206d7573742062652067726561746572207468616e203000006044820152606490fd5b60405162461bcd60e51b815260206004820152602260248201527f53746172742074696d65206d757374206265206265666f726520656e642074696044820152616d6560f01b6064820152608490fd5b634e487b7160e01b86526011600452602486fd5b60405162461bcd60e51b815260206004820152602260248201527f53746172742074696d65206d757374206265203c3d2063757272656e742074696044820152616d6560f01b6064820152608490fd5b5034610268578060031936011261026857338152600660205260408120549061235a826133f1565b916123686040519384612e24565b808352601f19612377826133f1565b0136602085013761238781613408565b61239082613452565b9061239a83613452565b92845b81811061245a576123cf87876123f9886123eb896123dd8a604051988998338a5260c060208b015260c08a019061317f565b9088820360408a01526131b3565b90868203606088015261317f565b90848203608086015261317f565b9082820360a0840152606051808352602083019260208260051b82010193608093915b8383106124295786860387f35b919395509193602080612448600193601f1986820301875289516130f0565b9701930193019092869594929361241c565b6001903387526006602052612472816040892061324d565b90549060031b1c808852600560205260408820906040519161249383612dd6565b80548352848060a01b038582015416602084015260028101549160408401928352600382015460608501526004820154608085015260058201549360a0810194855260ff600684015416151560c082015261010060086124f56007860161302b565b9460e08401958652015491015261250c858d613497565b52516125188488613497565b526125238387613497565b505161252f8388613497565b525161253b8288613497565b52612544612f72565b61254d82613484565b5261255781613484565b500161239d565b50346102685761256d36612ec2565b6125789291926135f9565b6125ab602060405161259a610af08751928481818b0195610ae08183896130cd565b6040518093819288519283916130cd565b60089082019081520301902060040180549093908390816001600160a01b038516815b8381106126c6575b50501561268b576000198101908111610f3a57906126136125fa612619938861324d565b905460039190911b1c6001600160a01b0316918761324d565b906132d8565b8354938415612677577f4e92d5f5f756338b7860750af0c1d3cfecf6abe2848b89e2a4aebc0275aaa3a093946000190190612654828261324d565b81549060018060a01b039060031b1b1916905555610876604051928392836132fb565b634e487b7160e01b84526031600452602484fd5b60405162461bcd60e51b8152602060048201526013602482015272135bd9195c985d1bdc881b9bdd08199bdd5b99606a1b6044820152606490fd5b816126d1828b61324d565b905460039190911b1c6001600160a01b0316146126f0576001016125ce565b93505050600138806125d6565b50346102685780600319360112610268576102f9612719612f72565b6040519182916020835260208301906130f0565b5034610268576020366003190112610268576004356001600160401b038111610a6f576108766127827ffec510cf8dc709165f06d672244480e0718dc5ef561cfaa29c05b11869fcc044923690600401612e60565b61278a6135f9565b60046127bf60206040516127ae610af08651928481818a0195610ae08183896130cd565b6040518093819287519283916130cd565b810160088152030190206127d2816133a2565b6127de600182016133a2565b8560028201556127f0600382016133a2565b01805485825580612812575b50506040519182916020835260208301906130f0565b6128259186526020862090810190613362565b38806127fc565b5034610268576020366003190112610268576004356128496135f9565b80151580612a4d575b61285b90613323565b60001981019081116113815761287090612f03565b5060ff6006820154166003811015612a39576001036129ff576001015481526005602052604081206006810180549060ff82166129c15760035490600284019283548093106129875760ff1916600117905560035490810390811161297357600355600182018380808060018060a01b038554168654905af16128f1613265565b5015612938577fe64ba0c150ba8da1befe0c879808734569d6e16bf75e2b77c4e1db04e359cba59160409160018060a01b039054169354905482519182526020820152a280f35b60405162461bcd60e51b8152602060048201526013602482015272115512081d1c985b9cd9995c8819985a5b1959606a1b6044820152606490fd5b634e487b7160e01b84526011600452602484fd5b60405162461bcd60e51b8152602060048201526012602482015271496e73756666696369656e742066756e647360701b6044820152606490fd5b60405162461bcd60e51b8152602060048201526016602482015275141bdb1a58de48185b1c9958591e4818db185a5b595960521b6044820152606490fd5b60405162461bcd60e51b815260206004820152601260248201527110db185a5b481b9bdd081858d8d95c1d195960721b6044820152606490fd5b634e487b7160e01b83526021600452602483fd5b50600b548110612852565b5034610268576020366003190112610268576004356001600160401b038111610a6f576020612a8c60049236908401613115565b9190612aae610af0604051858482378481878101600881520301902054612f38565b8260405193849283378101600881520301902001604051918260208354918281520192825260208220915b818110612b04576102f985612af081870382612e24565b604051918291602083526020830190613142565b82546001600160a01b0316845260209093019260019283019201612ad9565b503461026857602036600319011261026857600435600a54811015610a6f57612b4b90612f03565b5090815491600181015490612b626002820161302b565b926003820154936004830154612baa600585015492612b8b600760ff600689015416970161302b565b96604051998a5260208a015261010060408a01526101008901906130f0565b956060880152608087015260a08601526003821015612bdc575060c084015282820360e084015282916102f9916130f0565b634e487b7160e01b81526021600452602490fd5b503461026857612bff36612ec2565b612c0a9291926135f9565b612c2c602060405161259a610af08751928481818b0195610ae08183896130cd565b60089082019081520301902060040180549093906001600160a01b038316845b828110612cab5750508454949050600160401b851015610e9b578261261386612c9c9360017f1e82538a74e2d67da16caf9f37bda44972c8925d3fba8da46c01df3bd958f5bf989901815561324d565b610876604051928392836132fb565b81612cb6828961324d565b905460039190911b1c6001600160a01b031614612cd557600101612c4c565b60405162461bcd60e51b81526020600482015260186024820152774d6f64657261746f7220616c72656164792065786973747360401b6044820152606490fd5b506040366003190112610268576004356001600160a01b03811690819003610a6f5760243590612d436135f9565b814710612d9a578280809381935af1612d5a613265565b5015612d635780f35b60405162461bcd60e51b815260206004820152600f60248201526e151c985b9cd9995c8819985a5b1959608a1b6044820152606490fd5b60405162461bcd60e51b8152602060048201526014602482015273496e73756666696369656e742062616c616e636560601b6044820152606490fd5b61012081019081106001600160401b03821117612df257604052565b634e487b7160e01b600052604160045260246000fd5b61010081019081106001600160401b03821117612df257604052565b90601f801991011681019081106001600160401b03821117612df257604052565b6001600160401b038111612df257601f01601f191660200190565b81601f82011215612ea757803590612e7782612e45565b92612e856040519485612e24565b82845260208383010111612ea757816000926020809301838601378301015290565b600080fd5b600435906001600160a01b0382168203612ea757565b6040600319820112612ea757600435906001600160401b038211612ea757612eec91600401612e60565b906024356001600160a01b0381168103612ea75790565b600a54811015612f2257600a60005260206000209060031b0190600090565b634e487b7160e01b600052603260045260246000fd5b90600182811c92168015612f68575b6020831014612f5257565b634e487b7160e01b600052602260045260246000fd5b91607f1691612f47565b6040519060008260015491612f8683612f38565b808352926001811690811561300c5750600114612fac575b612faa92500383612e24565b565b506001600090815290917fb10e2d527612073b26eecdfd717e6a320cf44b4afac2b0732d9fcbe2b7fa0cf65b818310612ff0575050906020612faa92820101612f9e565b6020919350806001915483858901015201910190918492612fd8565b60209250612faa94915060ff191682840152151560051b820101612f9e565b906040519182600082549261303f84612f38565b80845293600181169081156130ab5750600114613064575b50612faa92500383612e24565b90506000929192526020600020906000915b81831061308f575050906020612faa9282010138613057565b6020919350806001915483858901015201910190918492613076565b905060209250612faa94915060ff191682840152151560051b82010138613057565b60005b8381106130e05750506000910152565b81810151838201526020016130d0565b90602091613109815180928185528580860191016130cd565b601f01601f1916010190565b9181601f84011215612ea7578235916001600160401b038311612ea75760208381860195010111612ea757565b906020808351928381520192019060005b8181106131605750505090565b82516001600160a01b0316845260209384019390920191600101613153565b906020808351928381520192019060005b81811061319d5750505090565b8251845260209384019390920191600101613190565b9080602083519182815201916020808360051b8301019401926000915b8383106131df57505050505090565b90919293946020806131fd600193601f1986820301875289516130f0565b970193019301919392906131d0565b60206132259181604051938285809451938492016130cd565b8101600881520301902090565b600754811015612f2257600760005260206000200190600090565b8054821015612f225760005260206000200190600090565b3d15613290573d9061327682612e45565b916132846040519384612e24565b82523d6000602084013e565b606090565b1561329c57565b60405162461bcd60e51b8152602060048201526014602482015273115d995b9d08191bd95cc81b9bdd08195e1a5cdd60621b6044820152606490fd5b80546001600160a01b0360039390931b83811b199091169290931690921b179055565b906133136020919493946040845260408401906130f0565b6001600160a01b03909416910152565b1561332a57565b60405162461bcd60e51b815260206004820152601060248201526f125b9d985b1a590818db185a5b481a5960821b6044820152606490fd5b81811061336d575050565b60008155600101613362565b8181029291811591840414171561338c57565b634e487b7160e01b600052601160045260246000fd5b6133ac8154612f38565b90816133b6575050565b81601f600093116001146133c8575055565b818352602083206133e491601f0160051c810190600101613362565b8082528160208120915555565b6001600160401b038111612df25760051b60200190565b90613412826133f1565b61341f6040519182612e24565b8281528092613430601f19916133f1565b019060005b82811061344157505050565b806060602080938501015201613435565b9061345c826133f1565b6134696040519182612e24565b828152809261347a601f19916133f1565b0190602036910137565b606051811015612f225760051b60800190565b8051821015612f225760209160051b010190565b9190820180921161338c57565b9190601f81116134c757505050565b612faa926000526020600020906020601f840160051c830193106134f3575b601f0160051c0190613362565b90915081906134e6565b6064909291926040516135316020828161352081830196878151938492016130cd565b81010301601f198101835282612e24565b519020066001810180911161338c5761355461355992655af3107a400094613379565b613379565b0490565b9060405161356a81612e08565b809280548252600181015460208301526135866002820161302b565b60408301526003810154606083015260048101546080830152600581015460a083015260ff6006820154169060038210156135d45760076135cf9160e09360c08601520161302b565b910152565b634e487b7160e01b600052602160045260246000fd5b600019811461338c5760010190565b6000546001600160a01b0316330361360d57565b63118cdaa760e01b6000523360045260246000fd5b6000908072184f03e93ff9f4daa797ed6e38ed64bf6a1f0160401b81101561376e575b806d04ee2d6d415b85acef8100000000600a921015613753575b662386f26fc1000081101561373f575b6305f5e10081101561372e575b61271081101561371f575b6064811015613711575b1015613706575b600a602160018401936136aa85612e45565b946136b86040519687612e24565b8086526136c7601f1991612e45565b013660208701378401015b60001901916f181899199a1a9b1b9c1cb0b131b232b360811b8282061a835304801561370157600a90916136d2565b505090565b600190910190613698565b606460029104930192613691565b61271060049104930192613687565b6305f5e1006008910493019261367c565b662386f26fc100006010910493019261366f565b6d04ee2d6d415b85acef81000000006020910493019261365f565b506040915072184f03e93ff9f4daa797ed6e38ed64bf6a1f0160401b8104613645565b60038110156135d457801561381557600090600181146137ed5760029150146137c9576040516137c2602082612e24565b6000815290565b6040516137d7604082612e24565b600681526511195b9a595960d21b602082015290565b50506040516137fd604082612e24565b60088152671058d8d95c1d195960c21b602082015290565b50604051613824604082612e24565b600781526650656e64696e6760c81b60208201529056fea26469706673582212204d6c932b2b6cc7b7cc034f834356f2a5ff3e426130cfbad4c3f685b8fcbdaead64736f6c634300081c0033",
  "linkReferences": {},
  "deployedLinkReferences": {}
}