{
  "_format": "hh-sol-artifact-1",
  "contractName": "GraviCha",
  "sourceName": "contracts/tokens/GraviCha.sol",
  "abi": [
    {
      "inputs": [],
      "stateMutability": "nonpayable",
      "type": "constructor"
    },
    {
      "inputs": [],
      "name": "AccessControlBadConfirmation",
      "type": "error"
    },
    {
      "inputs": [
        {
          "internalType": "address",
          "name": "account",
          "type": "address"
        },
        {
          "internalType": "bytes32",
          "name": "neededRole",
          "type": "bytes32"
        }
      ],
      "name": "AccessControlUnauthorizedAccount",
      "type": "error"
    },
    {
      "inputs": [
        {
          "internalType": "address",
          "name": "spender",
          "type": "address"
        },
        {
          "internalType": "uint256",
          "name": "allowance",
          "type": "uint256"
        },
        {
          "internalType": "uint256",
          "name": "needed",
          "type": "uint256"
        }
      ],
      "name": "ERC20InsufficientAllowance",
      "type": "error"
    },
    {
      "inputs": [
        {
          "internalType": "address",
          "name": "sender",
          "type": "address"
        },
        {
          "internalType": "uint256",
          "name": "balance",
          "type": "uint256"
        },
        {
          "internalType": "uint256",
          "name": "needed",
          "type": "uint256"
        }
      ],
      "name": "ERC20InsufficientBalance",
      "type": "error"
    },
    {
      "inputs": [
        {
          "internalType": "address",
          "name": "approver",
          "type": "address"
        }
      ],
      "name": "ERC20InvalidApprover",
      "type": "error"
    },
    {
      "inputs": [
        {
          "internalType": "address",
          "name": "receiver",
          "type": "address"
        }
      ],
      "name": "ERC20InvalidReceiver",
      "type": "error"
    },
    {
      "inputs": [
        {
          "internalType": "address",
          "name": "sender",
          "type": "address"
        }
      ],
      "name": "ERC20InvalidSender",
      "type": "error"
    },
    {
      "inputs": [
        {
          "internalType": "address",
          "name": "spender",
          "type": "address"
        }
      ],
      "name": "ERC20InvalidSpender",
      "type": "error"
    },
    {
      "inputs": [
        {
          "internalType": "address",
          "name": "owner",
          "type": "address"
        }
      ],
      "name": "OwnableInvalidOwner",
      "type": "error"
    },
    {
      "inputs": [
        {
          "internalType": "address",
          "name": "account",
          "type": "address"
        }
      ],
      "name": "OwnableUnauthorizedAccount",
      "type": "error"
    },
    {
      "anonymous": false,
      "inputs": [
        {
          "indexed": true,
          "internalType": "address",
          "name": "owner",
          "type": "address"
        },
        {
          "indexed": true,
          "internalType": "address",
          "name": "spender",
          "type": "address"
        },
        {
          "indexed": false,
          "internalType": "uint256",
          "name": "value",
          "type": "uint256"
        }
      ],
      "name": "Approval",
      "type": "event"
    },
    {
      "anonymous": false,
      "inputs": [
        {
          "indexed": true,
          "internalType": "address",
          "name": "previousOwner",
          "type": "address"
        },
        {
          "indexed": true,
          "internalType": "address",
          "name": "newOwner",
          "type": "address"
        }
      ],
      "name": "OwnershipTransferred",
      "type": "event"
    },
    {
      "anonymous": false,
      "inputs": [
        {
          "indexed": true,
          "internalType": "bytes32",
          "name": "role",
          "type": "bytes32"
        },
        {
          "indexed": true,
          "internalType": "bytes32",
          "name": "previousAdminRole",
          "type": "bytes32"
        },
        {
          "indexed": true,
          "internalType": "bytes32",
          "name": "newAdminRole",
          "type": "bytes32"
        }
      ],
      "name": "RoleAdminChanged",
      "type": "event"
    },
    {
      "anonymous": false,
      "inputs": [
        {
          "indexed": true,
          "internalType": "bytes32",
          "name": "role",
          "type": "bytes32"
        },
        {
          "indexed": true,
          "internalType": "address",
          "name": "account",
          "type": "address"
        },
        {
          "indexed": true,
          "internalType": "address",
          "name": "sender",
          "type": "address"
        }
      ],
      "name": "RoleGranted",
      "type": "event"
    },
    {
      "anonymous": false,
      "inputs": [
        {
          "indexed": true,
          "internalType": "bytes32",
          "name": "role",
          "type": "bytes32"
        },
        {
          "indexed": true,
          "internalType": "address",
          "name": "account",
          "type": "address"
        },
        {
          "indexed": true,
          "internalType": "address",
          "name": "sender",
          "type": "address"
        }
      ],
      "name": "RoleRevoked",
      "type": "event"
    },
    {
      "anonymous": false,
      "inputs": [
        {
          "indexed": true,
          "internalType": "address",
          "name": "from",
          "type": "address"
        },
        {
          "indexed": true,
          "internalType": "address",
          "name": "to",
          "type": "address"
        },
        {
          "indexed": false,
          "internalType": "uint256",
          "name": "value",
          "type": "uint256"
        }
      ],
      "name": "Transfer",
      "type": "event"
    },
    {
      "inputs": [],
      "name": "DEFAULT_ADMIN_ROLE",
      "outputs": [
        {
          "internalType": "bytes32",
          "name": "",
          "type": "bytes32"
        }
      ],
      "stateMutability": "view",
      "type": "function"
    },
    {
      "inputs": [
        {
          "internalType": "address",
          "name": "account",
          "type": "address"
        }
      ],
      "name": "addMinter",
      "outputs": [],
      "stateMutability": "nonpayable",
      "type": "function"
    },
    {
      "inputs": [
        {
          "internalType": "address",
          "name": "owner",
          "type": "address"
        },
        {
          "internalType": "address",
          "name": "spender",
          "type": "address"
        }
      ],
      "name": "allowance",
      "outputs": [
        {
          "internalType": "uint256",
          "name": "",
          "type": "uint256"
        }
      ],
      "stateMutability": "view",
      "type": "function"
    },
    {
      "inputs": [
        {
          "internalType": "address",
          "name": "spender",
          "type": "address"
        },
        {
          "internalType": "uint256",
          "name": "value",
          "type": "uint256"
        }
      ],
      "name": "approve",
      "outputs": [
        {
          "internalType": "bool",
          "name": "",
          "type": "bool"
        }
      ],
      "stateMutability": "nonpayable",
      "type": "function"
    },
    {
      "inputs": [
        {
          "internalType": "address",
          "name": "account",
          "type": "address"
        }
      ],
      "name": "balanceOf",
      "outputs": [
        {
          "internalType": "uint256",
          "name": "",
          "type": "uint256"
        }
      ],
      "stateMutability": "view",
      "type": "function"
    },
    {
      "inputs": [
        {
          "internalType": "uint256",
          "name": "value",
          "type": "uint256"
        }
      ],
      "name": "burn",
      "outputs": [],
      "stateMutability": "nonpayable",
      "type": "function"
    },
    {
      "inputs": [
        {
          "internalType": "address",
          "name": "account",
          "type": "address"
        },
        {
          "internalType": "uint256",
          "name": "value",
          "type": "uint256"
        }
      ],
      "name": "burnFrom",
      "outputs": [],
      "stateMutability": "nonpayable",
      "type": "function"
    },
    {
      "inputs": [],
      "name": "decimals",
      "outputs": [
        {
          "internalType": "uint8",
          "name": "",
          "type": "uint8"
        }
      ],
      "stateMutability": "view",
      "type": "function"
    },
    {
      "inputs": [
        {
          "internalType": "bytes32",
          "name": "role",
          "type": "bytes32"
        }
      ],
      "name": "getRoleAdmin",
      "outputs": [
        {
          "internalType": "bytes32",
          "name": "",
          "type": "bytes32"
        }
      ],
      "stateMutability": "view",
      "type": "function"
    },
    {
      "inputs": [
        {
          "internalType": "bytes32",
          "name": "role",
          "type": "bytes32"
        },
        {
          "internalType": "address",
          "name": "account",
          "type": "address"
        }
      ],
      "name": "grantRole",
      "outputs": [],
      "stateMutability": "nonpayable",
      "type": "function"
    },
    {
      "inputs": [
        {
          "internalType": "bytes32",
          "name": "role",
          "type": "bytes32"
        },
        {
          "internalType": "address",
          "name": "account",
          "type": "address"
        }
      ],
      "name": "hasRole",
      "outputs": [
        {
          "internalType": "bool",
          "name": "",
          "type": "bool"
        }
      ],
      "stateMutability": "view",
      "type": "function"
    },
    {
      "inputs": [
        {
          "internalType": "address",
          "name": "to",
          "type": "address"
        },
        {
          "internalType": "uint256",
          "name": "amount",
          "type": "uint256"
        }
      ],
      "name": "mint",
      "outputs": [],
      "stateMutability": "nonpayable",
      "type": "function"
    },
    {
      "inputs": [
        {
          "internalType": "address",
          "name": "",
          "type": "address"
        }
      ],
      "name": "minters",
      "outputs": [
        {
          "internalType": "bool",
          "name": "",
          "type": "bool"
        }
      ],
      "stateMutability": "view",
      "type": "function"
    },
    {
      "inputs": [],
      "name": "name",
      "outputs": [
        {
          "internalType": "string",
          "name": "",
          "type": "string"
        }
      ],
      "stateMutability": "view",
      "type": "function"
    },
    {
      "inputs": [],
      "name": "owner",
      "outputs": [
        {
          "internalType": "address",
          "name": "",
          "type": "address"
        }
      ],
      "stateMutability": "view",
      "type": "function"
    },
    {
      "inputs": [
        {
          "internalType": "address",
          "name": "account",
          "type": "address"
        }
      ],
      "name": "removeMinter",
      "outputs": [],
      "stateMutability": "nonpayable",
      "type": "function"
    },
    {
      "inputs": [],
      "name": "renounceOwnership",
      "outputs": [],
      "stateMutability": "nonpayable",
      "type": "function"
    },
    {
      "inputs": [
        {
          "internalType": "bytes32",
          "name": "role",
          "type": "bytes32"
        },
        {
          "internalType": "address",
          "name": "callerConfirmation",
          "type": "address"
        }
      ],
      "name": "renounceRole",
      "outputs": [],
      "stateMutability": "nonpayable",
      "type": "function"
    },
    {
      "inputs": [
        {
          "internalType": "bytes32",
          "name": "role",
          "type": "bytes32"
        },
        {
          "internalType": "address",
          "name": "account",
          "type": "address"
        }
      ],
      "name": "revokeRole",
      "outputs": [],
      "stateMutability": "nonpayable",
      "type": "function"
    },
    {
      "inputs": [
        {
          "internalType": "bytes4",
          "name": "interfaceId",
          "type": "bytes4"
        }
      ],
      "name": "supportsInterface",
      "outputs": [
        {
          "internalType": "bool",
          "name": "",
          "type": "bool"
        }
      ],
      "stateMutability": "view",
      "type": "function"
    },
    {
      "inputs": [],
      "name": "symbol",
      "outputs": [
        {
          "internalType": "string",
          "name": "",
          "type": "string"
        }
      ],
      "stateMutability": "view",
      "type": "function"
    },
    {
      "inputs": [],
      "name": "totalSupply",
      "outputs": [
        {
          "internalType": "uint256",
          "name": "",
          "type": "uint256"
        }
      ],
      "stateMutability": "view",
      "type": "function"
    },
    {
      "inputs": [
        {
          "internalType": "address",
          "name": "to",
          "type": "address"
        },
        {
          "internalType": "uint256",
          "name": "value",
          "type": "uint256"
        }
      ],
      "name": "transfer",
      "outputs": [
        {
          "internalType": "bool",
          "name": "",
          "type": "bool"
        }
      ],
      "stateMutability": "nonpayable",
      "type": "function"
    },
    {
      "inputs": [
        {
          "internalType": "address",
          "name": "from",
          "type": "address"
        },
        {
          "internalType": "address",
          "name": "to",
          "type": "address"
        },
        {
          "internalType": "uint256",
          "name": "value",
          "type": "uint256"
        }
      ],
      "name": "transferFrom",
      "outputs": [
        {
          "internalType": "bool",
          "name": "",
          "type": "bool"
        }
      ],
      "stateMutability": "nonpayable",
      "type": "function"
    },
    {
      "inputs": [
        {
          "internalType": "address",
          "name": "newOwner",
          "type": "address"
        }
      ],
      "name": "transferOwnership",
      "outputs": [],
      "stateMutability": "nonpayable",
      "type": "function"
    }
  ],
  "bytecode": "0x608060405234801561001057600080fd5b50336040518060400160405280600881526020017f47726176694368610000000000000000000000000000000000000000000000008152506040518060400160405280600481526020017f4743484100000000000000000000000000000000000000000000000000000000815250816003908161008d9190610495565b50806004908161009d9190610495565b505050600073ffffffffffffffffffffffffffffffffffffffff168173ffffffffffffffffffffffffffffffffffffffff16036101125760006040517f1e4fbdf700000000000000000000000000000000000000000000000000000000815260040161010991906105a8565b60405180910390fd5b6101218161017f60201b60201c565b506001600760003373ffffffffffffffffffffffffffffffffffffffff1673ffffffffffffffffffffffffffffffffffffffff16815260200190815260200160002060006101000a81548160ff0219169083151502179055506105c3565b6000600560009054906101000a900473ffffffffffffffffffffffffffffffffffffffff16905081600560006101000a81548173ffffffffffffffffffffffffffffffffffffffff021916908373ffffffffffffffffffffffffffffffffffffffff1602179055508173ffffffffffffffffffffffffffffffffffffffff168173ffffffffffffffffffffffffffffffffffffffff167f8be0079c531659141344cd1fd0a4f28419497f9722a3daafe3b4186f6b6457e060405160405180910390a35050565b600081519050919050565b7f4e487b7100000000000000000000000000000000000000000000000000000000600052604160045260246000fd5b7f4e487b7100000000000000000000000000000000000000000000000000000000600052602260045260246000fd5b600060028204905060018216806102c657607f821691505b6020821081036102d9576102d861027f565b5b50919050565b60008190508160005260206000209050919050565b60006020601f8301049050919050565b600082821b905092915050565b6000600883026103417fffffffffffffffffffffffffffffffffffffffffffffffffffffffffffffffff82610304565b61034b8683610304565b95508019841693508086168417925050509392505050565b6000819050919050565b6000819050919050565b600061039261038d61038884610363565b61036d565b610363565b9050919050565b6000819050919050565b6103ac83610377565b6103c06103b882610399565b848454610311565b825550505050565b600090565b6103d56103c8565b6103e08184846103a3565b505050565b5b81811015610404576103f96000826103cd565b6001810190506103e6565b5050565b601f8211156104495761041a816102df565b610423846102f4565b81016020851015610432578190505b61044661043e856102f4565b8301826103e5565b50505b505050565b600082821c905092915050565b600061046c6000198460080261044e565b1980831691505092915050565b6000610485838361045b565b9150826002028217905092915050565b61049e82610245565b67ffffffffffffffff8111156104b7576104b6610250565b5b6104c182546102ae565b6104cc828285610408565b600060209050601f8311600181146104ff57600084156104ed578287015190505b6104f78582610479565b86555061055f565b601f19841661050d866102df565b60005b8281101561053557848901518255600182019150602085019450602081019050610510565b86831015610552578489015161054e601f89168261045b565b8355505b6001600288020188555050505b505050505050565b600073ffffffffffffffffffffffffffffffffffffffff82169050919050565b600061059282610567565b9050919050565b6105a281610587565b82525050565b60006020820190506105bd6000830184610599565b92915050565b611c94806105d26000396000f3fe608060405234801561001057600080fd5b50600436106101735760003560e01c806370a08231116100de578063983b2d5611610097578063d547741f11610071578063d547741f1461044a578063dd62ed3e14610466578063f2fde38b14610496578063f46eccc4146104b257610173565b8063983b2d56146103e0578063a217fddf146103fc578063a9059cbb1461041a57610173565b806370a082311461031e578063715018a61461034e57806379cc6790146103585780638da5cb5b1461037457806391d148541461039257806395d89b41146103c257610173565b80632f2ff15d116101305780632f2ff15d146102745780633092afd514610290578063313ce567146102ac57806336568abe146102ca57806340c10f19146102e657806342966c681461030257610173565b806301ffc9a71461017857806306fdde03146101a8578063095ea7b3146101c657806318160ddd146101f657806323b872dd14610214578063248a9ca314610244575b600080fd5b610192600480360381019061018d91906116a1565b6104e2565b60405161019f91906116e9565b60405180910390f35b6101b061055c565b6040516101bd9190611794565b60405180910390f35b6101e060048036038101906101db919061184a565b6105ee565b6040516101ed91906116e9565b60405180910390f35b6101fe610611565b60405161020b9190611899565b60405180910390f35b61022e600480360381019061022991906118b4565b61061b565b60405161023b91906116e9565b60405180910390f35b61025e6004803603810190610259919061193d565b61064a565b60405161026b9190611979565b60405180910390f35b61028e60048036038101906102899190611994565b61066a565b005b6102aa60048036038101906102a591906119d4565b61068c565b005b6102b46106ef565b6040516102c19190611a1d565b60405180910390f35b6102e460048036038101906102df9190611994565b6106f8565b005b61030060048036038101906102fb919061184a565b610773565b005b61031c60048036038101906103179190611a38565b61080d565b005b610338600480360381019061033391906119d4565b610821565b6040516103459190611899565b60405180910390f35b610356610869565b005b610372600480360381019061036d919061184a565b61087d565b005b61037c61089d565b6040516103899190611a74565b60405180910390f35b6103ac60048036038101906103a79190611994565b6108c7565b6040516103b991906116e9565b60405180910390f35b6103ca610932565b6040516103d79190611794565b60405180910390f35b6103fa60048036038101906103f591906119d4565b6109c4565b005b610404610a27565b6040516104119190611979565b60405180910390f35b610434600480360381019061042f919061184a565b610a2e565b60405161044191906116e9565b60405180910390f35b610464600480360381019061045f9190611994565b610a51565b005b610480600480360381019061047b9190611a8f565b610a73565b60405161048d9190611899565b60405180910390f35b6104b060048036038101906104ab91906119d4565b610afa565b005b6104cc60048036038101906104c791906119d4565b610b80565b6040516104d991906116e9565b60405180910390f35b60007f7965db0b000000000000000000000000000000000000000000000000000000007bffffffffffffffffffffffffffffffffffffffffffffffffffffffff1916827bffffffffffffffffffffffffffffffffffffffffffffffffffffffff19161480610555575061055482610ba0565b5b9050919050565b60606003805461056b90611afe565b80601f016020809104026020016040519081016040528092919081815260200182805461059790611afe565b80156105e45780601f106105b9576101008083540402835291602001916105e4565b820191906000526020600020905b8154815290600101906020018083116105c757829003601f168201915b5050505050905090565b6000806105f9610c0a565b9050610606818585610c12565b600191505092915050565b6000600254905090565b600080610626610c0a565b9050610633858285610c24565b61063e858585610cb9565b60019150509392505050565b600060066000838152602001908152602001600020600101549050919050565b6106738261064a565b61067c81610dad565b6106868383610dc1565b50505050565b610694610eb3565b6000600760008373ffffffffffffffffffffffffffffffffffffffff1673ffffffffffffffffffffffffffffffffffffffff16815260200190815260200160002060006101000a81548160ff02191690831515021790555050565b60006012905090565b610700610c0a565b73ffffffffffffffffffffffffffffffffffffffff168173ffffffffffffffffffffffffffffffffffffffff1614610764576040517f6697b23200000000000000000000000000000000000000000000000000000000815260040160405180910390fd5b61076e8282610f3a565b505050565b600760003373ffffffffffffffffffffffffffffffffffffffff1673ffffffffffffffffffffffffffffffffffffffff16815260200190815260200160002060009054906101000a900460ff166107ff576040517f08c379a00000000000000000000000000000000000000000000000000000000081526004016107f690611b7b565b60405180910390fd5b610809828261102d565b5050565b61081e610818610c0a565b826110af565b50565b60008060008373ffffffffffffffffffffffffffffffffffffffff1673ffffffffffffffffffffffffffffffffffffffff168152602001908152602001600020549050919050565b610871610eb3565b61087b6000611131565b565b61088f82610889610c0a565b83610c24565b61089982826110af565b5050565b6000600560009054906101000a900473ffffffffffffffffffffffffffffffffffffffff16905090565b60006006600084815260200190815260200160002060000160008373ffffffffffffffffffffffffffffffffffffffff1673ffffffffffffffffffffffffffffffffffffffff16815260200190815260200160002060009054906101000a900460ff16905092915050565b60606004805461094190611afe565b80601f016020809104026020016040519081016040528092919081815260200182805461096d90611afe565b80156109ba5780601f1061098f576101008083540402835291602001916109ba565b820191906000526020600020905b81548152906001019060200180831161099d57829003601f168201915b5050505050905090565b6109cc610eb3565b6001600760008373ffffffffffffffffffffffffffffffffffffffff1673ffffffffffffffffffffffffffffffffffffffff16815260200190815260200160002060006101000a81548160ff02191690831515021790555050565b6000801b81565b600080610a39610c0a565b9050610a46818585610cb9565b600191505092915050565b610a5a8261064a565b610a6381610dad565b610a6d8383610f3a565b50505050565b6000600160008473ffffffffffffffffffffffffffffffffffffffff1673ffffffffffffffffffffffffffffffffffffffff16815260200190815260200160002060008373ffffffffffffffffffffffffffffffffffffffff1673ffffffffffffffffffffffffffffffffffffffff16815260200190815260200160002054905092915050565b610b02610eb3565b600073ffffffffffffffffffffffffffffffffffffffff168173ffffffffffffffffffffffffffffffffffffffff1603610b745760006040517f1e4fbdf7000000000000000000000000000000000000000000000000000000008152600401610b6b9190611a74565b60405180910390fd5b610b7d81611131565b50565b60076020528060005260406000206000915054906101000a900460ff1681565b60007f01ffc9a7000000000000000000000000000000000000000000000000000000007bffffffffffffffffffffffffffffffffffffffffffffffffffffffff1916827bffffffffffffffffffffffffffffffffffffffffffffffffffffffff1916149050919050565b600033905090565b610c1f83838360016111f7565b505050565b6000610c308484610a73565b90507fffffffffffffffffffffffffffffffffffffffffffffffffffffffffffffffff811015610cb35781811015610ca3578281836040517ffb8f41b2000000000000000000000000000000000000000000000000000000008152600401610c9a93929190611b9b565b60405180910390fd5b610cb2848484840360006111f7565b5b50505050565b600073ffffffffffffffffffffffffffffffffffffffff168373ffffffffffffffffffffffffffffffffffffffff1603610d2b5760006040517f96c6fd1e000000000000000000000000000000000000000000000000000000008152600401610d229190611a74565b60405180910390fd5b600073ffffffffffffffffffffffffffffffffffffffff168273ffffffffffffffffffffffffffffffffffffffff1603610d9d5760006040517fec442f05000000000000000000000000000000000000000000000000000000008152600401610d949190611a74565b60405180910390fd5b610da88383836113ce565b505050565b610dbe81610db9610c0a565b6115f3565b50565b6000610dcd83836108c7565b610ea85760016006600085815260200190815260200160002060000160008473ffffffffffffffffffffffffffffffffffffffff1673ffffffffffffffffffffffffffffffffffffffff16815260200190815260200160002060006101000a81548160ff021916908315150217905550610e45610c0a565b73ffffffffffffffffffffffffffffffffffffffff168273ffffffffffffffffffffffffffffffffffffffff16847f2f8788117e7eff1d82e926ec794901d17c78024a50270940304540a733656f0d60405160405180910390a460019050610ead565b600090505b92915050565b610ebb610c0a565b73ffffffffffffffffffffffffffffffffffffffff16610ed961089d565b73ffffffffffffffffffffffffffffffffffffffff1614610f3857610efc610c0a565b6040517f118cdaa7000000000000000000000000000000000000000000000000000000008152600401610f2f9190611a74565b60405180910390fd5b565b6000610f4683836108c7565b156110225760006006600085815260200190815260200160002060000160008473ffffffffffffffffffffffffffffffffffffffff1673ffffffffffffffffffffffffffffffffffffffff16815260200190815260200160002060006101000a81548160ff021916908315150217905550610fbf610c0a565b73ffffffffffffffffffffffffffffffffffffffff168273ffffffffffffffffffffffffffffffffffffffff16847ff6391f5c32d9c69d2a47ea670b442974b53935d1edc7fd64eb21e047a839171b60405160405180910390a460019050611027565b600090505b92915050565b600073ffffffffffffffffffffffffffffffffffffffff168273ffffffffffffffffffffffffffffffffffffffff160361109f5760006040517fec442f050000000000000000000000000000000000000000000000000000000081526004016110969190611a74565b60405180910390fd5b6110ab600083836113ce565b5050565b600073ffffffffffffffffffffffffffffffffffffffff168273ffffffffffffffffffffffffffffffffffffffff16036111215760006040517f96c6fd1e0000000000000000000000000000000000000000000000000000000081526004016111189190611a74565b60405180910390fd5b61112d826000836113ce565b5050565b6000600560009054906101000a900473ffffffffffffffffffffffffffffffffffffffff16905081600560006101000a81548173ffffffffffffffffffffffffffffffffffffffff021916908373ffffffffffffffffffffffffffffffffffffffff1602179055508173ffffffffffffffffffffffffffffffffffffffff168173ffffffffffffffffffffffffffffffffffffffff167f8be0079c531659141344cd1fd0a4f28419497f9722a3daafe3b4186f6b6457e060405160405180910390a35050565b600073ffffffffffffffffffffffffffffffffffffffff168473ffffffffffffffffffffffffffffffffffffffff16036112695760006040517fe602df050000000000000000000000000000000000000000000000000000000081526004016112609190611a74565b60405180910390fd5b600073ffffffffffffffffffffffffffffffffffffffff168373ffffffffffffffffffffffffffffffffffffffff16036112db5760006040517f94280d620000000000000000000000000000000000000000000000000000000081526004016112d29190611a74565b60405180910390fd5b81600160008673ffffffffffffffffffffffffffffffffffffffff1673ffffffffffffffffffffffffffffffffffffffff16815260200190815260200160002060008573ffffffffffffffffffffffffffffffffffffffff1673ffffffffffffffffffffffffffffffffffffffff1681526020019081526020016000208190555080156113c8578273ffffffffffffffffffffffffffffffffffffffff168473ffffffffffffffffffffffffffffffffffffffff167f8c5be1e5ebec7d5bd14f71427d1e84f3dd0314c0f7b2291e5b200ac8c7c3b925846040516113bf9190611899565b60405180910390a35b50505050565b600073ffffffffffffffffffffffffffffffffffffffff168373ffffffffffffffffffffffffffffffffffffffff16036114205780600260008282546114149190611c01565b925050819055506114f3565b60008060008573ffffffffffffffffffffffffffffffffffffffff1673ffffffffffffffffffffffffffffffffffffffff168152602001908152602001600020549050818110156114ac578381836040517fe450d38c0000000000000000000000000000000000000000000000000000000081526004016114a393929190611b9b565b60405180910390fd5b8181036000808673ffffffffffffffffffffffffffffffffffffffff1673ffffffffffffffffffffffffffffffffffffffff16815260200190815260200160002081905550505b600073ffffffffffffffffffffffffffffffffffffffff168273ffffffffffffffffffffffffffffffffffffffff160361153c5780600260008282540392505081905550611589565b806000808473ffffffffffffffffffffffffffffffffffffffff1673ffffffffffffffffffffffffffffffffffffffff168152602001908152602001600020600082825401925050819055505b8173ffffffffffffffffffffffffffffffffffffffff168373ffffffffffffffffffffffffffffffffffffffff167fddf252ad1be2c89b69c2b068fc378daa952ba7f163c4a11628f55a4df523b3ef836040516115e69190611899565b60405180910390a3505050565b6115fd82826108c7565b6116405780826040517fe2517d3f000000000000000000000000000000000000000000000000000000008152600401611637929190611c35565b60405180910390fd5b5050565b600080fd5b60007fffffffff0000000000000000000000000000000000000000000000000000000082169050919050565b61167e81611649565b811461168957600080fd5b50565b60008135905061169b81611675565b92915050565b6000602082840312156116b7576116b6611644565b5b60006116c58482850161168c565b91505092915050565b60008115159050919050565b6116e3816116ce565b82525050565b60006020820190506116fe60008301846116da565b92915050565b600081519050919050565b600082825260208201905092915050565b60005b8381101561173e578082015181840152602081019050611723565b60008484015250505050565b6000601f19601f8301169050919050565b600061176682611704565b611770818561170f565b9350611780818560208601611720565b6117898161174a565b840191505092915050565b600060208201905081810360008301526117ae818461175b565b905092915050565b600073ffffffffffffffffffffffffffffffffffffffff82169050919050565b60006117e1826117b6565b9050919050565b6117f1816117d6565b81146117fc57600080fd5b50565b60008135905061180e816117e8565b92915050565b6000819050919050565b61182781611814565b811461183257600080fd5b50565b6000813590506118448161181e565b92915050565b6000806040838503121561186157611860611644565b5b600061186f858286016117ff565b925050602061188085828601611835565b9150509250929050565b61189381611814565b82525050565b60006020820190506118ae600083018461188a565b92915050565b6000806000606084860312156118cd576118cc611644565b5b60006118db868287016117ff565b93505060206118ec868287016117ff565b92505060406118fd86828701611835565b9150509250925092565b6000819050919050565b61191a81611907565b811461192557600080fd5b50565b60008135905061193781611911565b92915050565b60006020828403121561195357611952611644565b5b600061196184828501611928565b91505092915050565b61197381611907565b82525050565b600060208201905061198e600083018461196a565b92915050565b600080604083850312156119ab576119aa611644565b5b60006119b985828601611928565b92505060206119ca858286016117ff565b9150509250929050565b6000602082840312156119ea576119e9611644565b5b60006119f8848285016117ff565b91505092915050565b600060ff82169050919050565b611a1781611a01565b82525050565b6000602082019050611a326000830184611a0e565b92915050565b600060208284031215611a4e57611a4d611644565b5b6000611a5c84828501611835565b91505092915050565b611a6e816117d6565b82525050565b6000602082019050611a896000830184611a65565b92915050565b60008060408385031215611aa657611aa5611644565b5b6000611ab4858286016117ff565b9250506020611ac5858286016117ff565b9150509250929050565b7f4e487b7100000000000000000000000000000000000000000000000000000000600052602260045260246000fd5b60006002820490506001821680611b1657607f821691505b602082108103611b2957611b28611acf565b5b50919050565b7f47726176694368613a204e6f7420617574686f72697a656420746f206d696e74600082015250565b6000611b6560208361170f565b9150611b7082611b2f565b602082019050919050565b60006020820190508181036000830152611b9481611b58565b9050919050565b6000606082019050611bb06000830186611a65565b611bbd602083018561188a565b611bca604083018461188a565b949350505050565b7f4e487b7100000000000000000000000000000000000000000000000000000000600052601160045260246000fd5b6000611c0c82611814565b9150611c1783611814565b9250828201905080821115611c2f57611c2e611bd2565b5b92915050565b6000604082019050611c4a6000830185611a65565b611c57602083018461196a565b939250505056fea2646970667358221220bdb5a396c602ff72fbed5bcddcbd8a6a21fecfe77da861ae2812804ab5b716e564736f6c634300081c0033",
  "linkReferences": {},
  "deployedLinkReferences": {}
}