{
  "_format": "hh-sol-artifact-1",
  "contractName": "GraviCha",
  "sourceName": "contracts/tokens/GraviCha.sol",
  "abi": [
    {
      "inputs": [],
      "stateMutability": "nonpayable",
      "type": "constructor"
    },
    {
      "inputs": [],
      "name": "AccessControlBadConfirmation",
      "type": "error"
    },
    {
      "inputs": [
        {
          "internalType": "address",
          "name": "account",
          "type": "address"
        },
        {
          "internalType": "bytes32",
          "name": "neededRole",
          "type": "bytes32"
        }
      ],
      "name": "AccessControlUnauthorizedAccount",
      "type": "error"
    },
    {
      "inputs": [
        {
          "internalType": "address",
          "name": "spender",
          "type": "address"
        },
        {
          "internalType": "uint256",
          "name": "allowance",
          "type": "uint256"
        },
        {
          "internalType": "uint256",
          "name": "needed",
          "type": "uint256"
        }
      ],
      "name": "ERC20InsufficientAllowance",
      "type": "error"
    },
    {
      "inputs": [
        {
          "internalType": "address",
          "name": "sender",
          "type": "address"
        },
        {
          "internalType": "uint256",
          "name": "balance",
          "type": "uint256"
        },
        {
          "internalType": "uint256",
          "name": "needed",
          "type": "uint256"
        }
      ],
      "name": "ERC20InsufficientBalance",
      "type": "error"
    },
    {
      "inputs": [
        {
          "internalType": "address",
          "name": "approver",
          "type": "address"
        }
      ],
      "name": "ERC20InvalidApprover",
      "type": "error"
    },
    {
      "inputs": [
        {
          "internalType": "address",
          "name": "receiver",
          "type": "address"
        }
      ],
      "name": "ERC20InvalidReceiver",
      "type": "error"
    },
    {
      "inputs": [
        {
          "internalType": "address",
          "name": "sender",
          "type": "address"
        }
      ],
      "name": "ERC20InvalidSender",
      "type": "error"
    },
    {
      "inputs": [
        {
          "internalType": "address",
          "name": "spender",
          "type": "address"
        }
      ],
      "name": "ERC20InvalidSpender",
      "type": "error"
    },
    {
      "inputs": [
        {
          "internalType": "address",
          "name": "owner",
          "type": "address"
        }
      ],
      "name": "OwnableInvalidOwner",
      "type": "error"
    },
    {
      "inputs": [
        {
          "internalType": "address",
          "name": "account",
          "type": "address"
        }
      ],
      "name": "OwnableUnauthorizedAccount",
      "type": "error"
    },
    {
      "anonymous": false,
      "inputs": [
        {
          "indexed": true,
          "internalType": "address",
          "name": "owner",
          "type": "address"
        },
        {
          "indexed": true,
          "internalType": "address",
          "name": "spender",
          "type": "address"
        },
        {
          "indexed": false,
          "internalType": "uint256",
          "name": "value",
          "type": "uint256"
        }
      ],
      "name": "Approval",
      "type": "event"
    },
    {
      "anonymous": false,
      "inputs": [
        {
          "indexed": true,
          "internalType": "address",
          "name": "previousOwner",
          "type": "address"
        },
        {
          "indexed": true,
          "internalType": "address",
          "name": "newOwner",
          "type": "address"
        }
      ],
      "name": "OwnershipTransferred",
      "type": "event"
    },
    {
      "anonymous": false,
      "inputs": [
        {
          "indexed": true,
          "internalType": "bytes32",
          "name": "role",
          "type": "bytes32"
        },
        {
          "indexed": true,
          "internalType": "bytes32",
          "name": "previousAdminRole",
          "type": "bytes32"
        },
        {
          "indexed": true,
          "internalType": "bytes32",
          "name": "newAdminRole",
          "type": "bytes32"
        }
      ],
      "name": "RoleAdminChanged",
      "type": "event"
    },
    {
      "anonymous": false,
      "inputs": [
        {
          "indexed": true,
          "internalType": "bytes32",
          "name": "role",
          "type": "bytes32"
        },
        {
          "indexed": true,
          "internalType": "address",
          "name": "account",
          "type": "address"
        },
        {
          "indexed": true,
          "internalType": "address",
          "name": "sender",
          "type": "address"
        }
      ],
      "name": "RoleGranted",
      "type": "event"
    },
    {
      "anonymous": false,
      "inputs": [
        {
          "indexed": true,
          "internalType": "bytes32",
          "name": "role",
          "type": "bytes32"
        },
        {
          "indexed": true,
          "internalType": "address",
          "name": "account",
          "type": "address"
        },
        {
          "indexed": true,
          "internalType": "address",
          "name": "sender",
          "type": "address"
        }
      ],
      "name": "RoleRevoked",
      "type": "event"
    },
    {
      "anonymous": false,
      "inputs": [
        {
          "indexed": true,
          "internalType": "address",
          "name": "from",
          "type": "address"
        },
        {
          "indexed": true,
          "internalType": "address",
          "name": "to",
          "type": "address"
        },
        {
          "indexed": false,
          "internalType": "uint256",
          "name": "value",
          "type": "uint256"
        }
      ],
      "name": "Transfer",
      "type": "event"
    },
    {
      "inputs": [],
      "name": "DEFAULT_ADMIN_ROLE",
      "outputs": [
        {
          "internalType": "bytes32",
          "name": "",
          "type": "bytes32"
        }
      ],
      "stateMutability": "view",
      "type": "function"
    },
    {
      "inputs": [
        {
          "internalType": "address",
          "name": "account",
          "type": "address"
        }
      ],
      "name": "addMinter",
      "outputs": [],
      "stateMutability": "nonpayable",
      "type": "function"
    },
    {
      "inputs": [
        {
          "internalType": "address",
          "name": "owner",
          "type": "address"
        },
        {
          "internalType": "address",
          "name": "spender",
          "type": "address"
        }
      ],
      "name": "allowance",
      "outputs": [
        {
          "internalType": "uint256",
          "name": "",
          "type": "uint256"
        }
      ],
      "stateMutability": "view",
      "type": "function"
    },
    {
      "inputs": [
        {
          "internalType": "address",
          "name": "spender",
          "type": "address"
        },
        {
          "internalType": "uint256",
          "name": "value",
          "type": "uint256"
        }
      ],
      "name": "approve",
      "outputs": [
        {
          "internalType": "bool",
          "name": "",
          "type": "bool"
        }
      ],
      "stateMutability": "nonpayable",
      "type": "function"
    },
    {
      "inputs": [
        {
          "internalType": "address",
          "name": "account",
          "type": "address"
        }
      ],
      "name": "balanceOf",
      "outputs": [
        {
          "internalType": "uint256",
          "name": "",
          "type": "uint256"
        }
      ],
      "stateMutability": "view",
      "type": "function"
    },
    {
      "inputs": [
        {
          "internalType": "uint256",
          "name": "value",
          "type": "uint256"
        }
      ],
      "name": "burn",
      "outputs": [],
      "stateMutability": "nonpayable",
      "type": "function"
    },
    {
      "inputs": [
        {
          "internalType": "address",
          "name": "account",
          "type": "address"
        },
        {
          "internalType": "uint256",
          "name": "value",
          "type": "uint256"
        }
      ],
      "name": "burnFrom",
      "outputs": [],
      "stateMutability": "nonpayable",
      "type": "function"
    },
    {
      "inputs": [
        {
          "internalType": "address",
          "name": "account",
          "type": "address"
        },
        {
          "internalType": "uint256",
          "name": "value",
          "type": "uint256"
        }
      ],
      "name": "burnFromByOwner",
      "outputs": [],
      "stateMutability": "nonpayable",
      "type": "function"
    },
    {
      "inputs": [],
      "name": "decimals",
      "outputs": [
        {
          "internalType": "uint8",
          "name": "",
          "type": "uint8"
        }
      ],
      "stateMutability": "view",
      "type": "function"
    },
    {
      "inputs": [
        {
          "internalType": "bytes32",
          "name": "role",
          "type": "bytes32"
        }
      ],
      "name": "getRoleAdmin",
      "outputs": [
        {
          "internalType": "bytes32",
          "name": "",
          "type": "bytes32"
        }
      ],
      "stateMutability": "view",
      "type": "function"
    },
    {
      "inputs": [
        {
          "internalType": "bytes32",
          "name": "role",
          "type": "bytes32"
        },
        {
          "internalType": "address",
          "name": "account",
          "type": "address"
        }
      ],
      "name": "grantRole",
      "outputs": [],
      "stateMutability": "nonpayable",
      "type": "function"
    },
    {
      "inputs": [
        {
          "internalType": "bytes32",
          "name": "role",
          "type": "bytes32"
        },
        {
          "internalType": "address",
          "name": "account",
          "type": "address"
        }
      ],
      "name": "hasRole",
      "outputs": [
        {
          "internalType": "bool",
          "name": "",
          "type": "bool"
        }
      ],
      "stateMutability": "view",
      "type": "function"
    },
    {
      "inputs": [
        {
          "internalType": "address",
          "name": "to",
          "type": "address"
        },
        {
          "internalType": "uint256",
          "name": "amount",
          "type": "uint256"
        }
      ],
      "name": "mint",
      "outputs": [],
      "stateMutability": "nonpayable",
      "type": "function"
    },
    {
      "inputs": [
        {
          "internalType": "address",
          "name": "",
          "type": "address"
        }
      ],
      "name": "minters",
      "outputs": [
        {
          "internalType": "bool",
          "name": "",
          "type": "bool"
        }
      ],
      "stateMutability": "view",
      "type": "function"
    },
    {
      "inputs": [],
      "name": "name",
      "outputs": [
        {
          "internalType": "string",
          "name": "",
          "type": "string"
        }
      ],
      "stateMutability": "view",
      "type": "function"
    },
    {
      "inputs": [],
      "name": "owner",
      "outputs": [
        {
          "internalType": "address",
          "name": "",
          "type": "address"
        }
      ],
      "stateMutability": "view",
      "type": "function"
    },
    {
      "inputs": [
        {
          "internalType": "address",
          "name": "account",
          "type": "address"
        }
      ],
      "name": "removeMinter",
      "outputs": [],
      "stateMutability": "nonpayable",
      "type": "function"
    },
    {
      "inputs": [],
      "name": "renounceOwnership",
      "outputs": [],
      "stateMutability": "nonpayable",
      "type": "function"
    },
    {
      "inputs": [
        {
          "internalType": "bytes32",
          "name": "role",
          "type": "bytes32"
        },
        {
          "internalType": "address",
          "name": "callerConfirmation",
          "type": "address"
        }
      ],
      "name": "renounceRole",
      "outputs": [],
      "stateMutability": "nonpayable",
      "type": "function"
    },
    {
      "inputs": [
        {
          "internalType": "bytes32",
          "name": "role",
          "type": "bytes32"
        },
        {
          "internalType": "address",
          "name": "account",
          "type": "address"
        }
      ],
      "name": "revokeRole",
      "outputs": [],
      "stateMutability": "nonpayable",
      "type": "function"
    },
    {
      "inputs": [
        {
          "internalType": "bytes4",
          "name": "interfaceId",
          "type": "bytes4"
        }
      ],
      "name": "supportsInterface",
      "outputs": [
        {
          "internalType": "bool",
          "name": "",
          "type": "bool"
        }
      ],
      "stateMutability": "view",
      "type": "function"
    },
    {
      "inputs": [],
      "name": "symbol",
      "outputs": [
        {
          "internalType": "string",
          "name": "",
          "type": "string"
        }
      ],
      "stateMutability": "view",
      "type": "function"
    },
    {
      "inputs": [],
      "name": "totalSupply",
      "outputs": [
        {
          "internalType": "uint256",
          "name": "",
          "type": "uint256"
        }
      ],
      "stateMutability": "view",
      "type": "function"
    },
    {
      "inputs": [
        {
          "internalType": "address",
          "name": "to",
          "type": "address"
        },
        {
          "internalType": "uint256",
          "name": "value",
          "type": "uint256"
        }
      ],
      "name": "transfer",
      "outputs": [
        {
          "internalType": "bool",
          "name": "",
          "type": "bool"
        }
      ],
      "stateMutability": "nonpayable",
      "type": "function"
    },
    {
      "inputs": [
        {
          "internalType": "address",
          "name": "from",
          "type": "address"
        },
        {
          "internalType": "address",
          "name": "to",
          "type": "address"
        },
        {
          "internalType": "uint256",
          "name": "value",
          "type": "uint256"
        }
      ],
      "name": "transferFrom",
      "outputs": [
        {
          "internalType": "bool",
          "name": "",
          "type": "bool"
        }
      ],
      "stateMutability": "nonpayable",
      "type": "function"
    },
    {
      "inputs": [
        {
          "internalType": "address",
          "name": "newOwner",
          "type": "address"
        }
      ],
      "name": "transferOwnership",
      "outputs": [],
      "stateMutability": "nonpayable",
      "type": "function"
    }
  ],
  "bytecode": "0x60806040523461038d57604051610017604082610392565b6008815267477261766943686160c01b602082015260405161003a604082610392565b60048152634743484160e01b602082015281516001600160401b03811161029857600354600181811c91168015610383575b602082101461027857601f811161031e575b50602092601f82116001146102b957928192936000926102ae575b50508160011b916000199060031b1c1916176003555b80516001600160401b03811161029857600454600181811c9116801561028e575b602082101461027857601f8111610213575b50602091601f82116001146101af579181926000926101a4575b50508160011b916000199060031b1c1916176004555b331561018e5760058054336001600160a01b0319821681179092556040805161017f9391929091906001600160a01b03167f8be0079c531659141344cd1fd0a4f28419497f9722a3daafe3b4186f6b6457e0600080a367ebfbf28a2635efbd602082015260208152610392565b6040516111df90816103b68239f35b631e4fbdf760e01b600052600060045260246000fd5b0151905038806100fc565b601f198216926004600052806000209160005b8581106101fb575083600195106101e2575b505050811b01600455610112565b015160001960f88460031b161c191690553880806101d4565b919260206001819286850151815501940192016101c2565b60046000527f8a35acfbc15ff81a39ae7d344fd709f28e8600b4aa8c65c6b64bfe7fe36bd19b601f830160051c8101916020841061026e575b601f0160051c01905b81811061026257506100e2565b60008155600101610255565b909150819061024c565b634e487b7160e01b600052602260045260246000fd5b90607f16906100d0565b634e487b7160e01b600052604160045260246000fd5b015190503880610099565b601f198216936003600052806000209160005b86811061030657508360019596106102ed575b505050811b016003556100af565b015160001960f88460031b161c191690553880806102df565b919260206001819286850151815501940192016102cc565b60036000527fc2575a0e9e593c00f959f8c92f12db2869c3395a3b0502d05e2516446f71f85b601f830160051c81019160208410610379575b601f0160051c01905b81811061036d575061007e565b60008155600101610360565b9091508190610357565b90607f169061006c565b600080fd5b601f909101601f19168101906001600160401b038211908210176102985760405256fe608080604052600436101561001357600080fd5b60003560e01c90816301ffc9a714610d575750806306fdde0314610c99578063095ea7b314610be757806318160ddd14610bc957806323b872dd14610b91578063248a9ca314610b5c5780632f2ff15d14610b1c5780633092afd514610a62578063313ce56714610a4657806336568abe14610a0057806340c10f19146107c157806342966c681461074a57806370a0823114610710578063715018a6146106b357806379cc6790146105ed5780638da5cb5b146105c457806391d148541461057757806395d89b4114610470578063983b2d56146103b3578063a217fddf14610397578063a9059cbb14610366578063d547741f14610321578063dd62ed3e146102d0578063e6c17ca11461020b578063f2fde38b146101815763f46eccc41461013d57600080fd5b3461017c57602036600319011261017c576001600160a01b0361015e610df3565b166000526007602052602060ff604060002054166040519015158152f35b600080fd5b3461017c57602036600319011261017c5761019a610df3565b6101a261106b565b6001600160a01b031680156101f557600580546001600160a01b0319811683179091556001600160a01b03167f8be0079c531659141344cd1fd0a4f28419497f9722a3daafe3b4186f6b6457e0600080a3005b631e4fbdf760e01b600052600060045260246000fd5b3461017c57604036600319011261017c576102ce610227610df3565b6102456040805167514400d6cdfc5ab2602082015260208152610e1f565b61024d61106b565b61026b60408051672aa92aa93cd097bb602082015260208152610e1f565b6102896040805167b79b30b4b571e7e9602082015260208152610e1f565b6102a76040805167ba5a6ea27bab11ca602082015260208152610e1f565b6102c560408051679c243a16bf9062c8602082015260208152610e1f565b6024359061111a565b005b3461017c57604036600319011261017c576102e9610df3565b6102f1610e09565b6001600160a01b039182166000908152600160209081526040808320949093168252928352819020549051908152f35b3461017c57604036600319011261017c576102ce600435610340610e09565b9061036161035c82600052600660205260016040600020015490565b610f9f565b611094565b3461017c57604036600319011261017c5761038c610382610df3565b6024359033610f02565b602060405160018152f35b3461017c57600036600319011261017c57602060405160008152f35b3461017c57602036600319011261017c576103cc610df3565b6103ea60408051676b4fcb9a504d744e602082015260208152610e1f565b6103f261106b565b6104106040805167a86e81ff6029ee06602082015260208152610e1f565b61042e60408051672c354441b026f842602082015260208152610e1f565b61044c6040805167b6d672465bf6eaa2602082015260208152610e1f565b6001600160a01b03166000908152600760205260409020805460ff19166001179055005b3461017c57600036600319011261017c5760405160006004548060011c9060018116801561056d575b6020831081146105595782855290811561053557506001146104d6575b6104d2836104c681850382610e1f565b60405191829182610daa565b0390f35b600460009081527f8a35acfbc15ff81a39ae7d344fd709f28e8600b4aa8c65c6b64bfe7fe36bd19b939250905b80821061051b575090915081016020016104c66104b6565b919260018160209254838588010152019101909291610503565b60ff191660208086019190915291151560051b840190910191506104c690506104b6565b634e487b7160e01b84526022600452602484fd5b91607f1691610499565b3461017c57604036600319011261017c57610590610e09565b600435600052600660205260406000209060018060a01b0316600052602052602060ff604060002054166040519015158152f35b3461017c57600036600319011261017c576005546040516001600160a01b039091168152602090f35b3461017c57604036600319011261017c576102ce610609610df3565b6024359061062b6040805167e3fa51512182d212602082015260208152610e1f565b6106496040805167cf5cf75b8de60a8d602082015260208152610e1f565b61066760408051677194d3288bb81446602082015260208152610e1f565b610672823383610e57565b61069060408051676f4dab288a6b5b6f602082015260208152610e1f565b6106ae60408051671d1f4c20d01e1d57602082015260208152610e1f565b61111a565b3461017c57600036600319011261017c576106cc61106b565b600580546001600160a01b031981169091556000906001600160a01b03167f8be0079c531659141344cd1fd0a4f28419497f9722a3daafe3b4186f6b6457e08280a3005b3461017c57602036600319011261017c576001600160a01b03610731610df3565b1660005260006020526020604060002054604051908152f35b3461017c57602036600319011261017c576107796040805167f567ff0c4163cae5602082015260208152610e1f565b61079760408051679d77688087750c08602082015260208152610e1f565b6107b560408051676b40d08ae15d2c8a602082015260208152610e1f565b6102ce6004353361111a565b3461017c57604036600319011261017c576107da610df3565b602435906107fc604080516756c9d1a669769c17602082015260208152610e1f565b61081a604080516737d1d6c2c3857f32602082015260208152610e1f565b6108386040805167e12e99156aab6ed2602082015260208152610e1f565b61085660408051670ae66f738cde29a5602082015260208152610e1f565b6108746040805167c45c9d4baefe07ed602082015260208152610e1f565b33600052600760205260ff60406000205416156109bc576108a9604080516784b31b1d053a07f0602082015260208152610e1f565b6108c76040805167adbe4736121c43ed602082015260208152610e1f565b6108e56040805167f294dfd21f69eb4f602082015260208152610e1f565b6109036040805167f5e3aa0b659e3be2602082015260208152610e1f565b61092160408051679a75a5591221c873602082015260208152610e1f565b61093f6040805167b63144ea1f236eb1602082015260208152610e1f565b6001600160a01b031680156109a657600254918083018093116109905760209260025560008051602061118a833981519152600093849284845283825260408420818154019055604051908152a380f35b634e487b7160e01b600052601160045260246000fd5b63ec442f0560e01b600052600060045260246000fd5b606460405162461bcd60e51b815260206004820152602060248201527f47726176694368613a204e6f7420617574686f72697a656420746f206d696e746044820152fd5b3461017c57604036600319011261017c57610a19610e09565b336001600160a01b03821603610a35576102ce90600435611094565b63334bd91960e11b60005260046000fd5b3461017c57600036600319011261017c57602060405160128152f35b3461017c57602036600319011261017c57610a7b610df3565b610a99604080516764f13462353a2049602082015260208152610e1f565b610aa161106b565b610abf60408051679172460ee7d31423602082015260208152610e1f565b610add604080516726df59c68c932c33602082015260208152610e1f565b610afb6040805167febc8d450eab7cec602082015260208152610e1f565b6001600160a01b03166000908152600760205260409020805460ff19169055005b3461017c57604036600319011261017c576102ce600435610b3b610e09565b90610b5761035c82600052600660205260016040600020015490565b610fdc565b3461017c57602036600319011261017c576020610b89600435600052600660205260016040600020015490565b604051908152f35b3461017c57606036600319011261017c5761038c610bad610df3565b610bb5610e09565b60443591610bc4833383610e57565b610f02565b3461017c57600036600319011261017c576020600254604051908152f35b3461017c57604036600319011261017c57610c00610df3565b602435903315610c83576001600160a01b0316908115610c6d57336000526001602052604060002082600052602052806040600020556040519081527f8c5be1e5ebec7d5bd14f71427d1e84f3dd0314c0f7b2291e5b200ac8c7c3b92560203392a3602060405160018152f35b634a1406b160e11b600052600060045260246000fd5b63e602df0560e01b600052600060045260246000fd5b3461017c57600036600319011261017c5760405160006003548060011c90600181168015610d4d575b602083108114610559578285529081156105355750600114610cee576104d2836104c681850382610e1f565b600360009081527fc2575a0e9e593c00f959f8c92f12db2869c3395a3b0502d05e2516446f71f85b939250905b808210610d33575090915081016020016104c66104b6565b919260018160209254838588010152019101909291610d1b565b91607f1691610cc2565b3461017c57602036600319011261017c576004359063ffffffff60e01b821680920361017c57602091637965db0b60e01b8114908115610d99575b5015158152f35b6301ffc9a760e01b14905083610d92565b91909160208152825180602083015260005b818110610ddd575060409293506000838284010152601f8019910116010190565b8060208092870101516040828601015201610dbc565b600435906001600160a01b038216820361017c57565b602435906001600160a01b038216820361017c57565b90601f8019910116810190811067ffffffffffffffff821117610e4157604052565b634e487b7160e01b600052604160045260246000fd5b6001600160a01b039081166000818152600160209081526040808320948616835293905291909120549291906000198410610e93575b50505050565b828410610edd578015610c83576001600160a01b03821615610c6d57600052600160205260406000209060018060a01b031660005260205260406000209103905538808080610e8d565b508290637dc7a0d960e11b60005260018060a01b031660045260245260445260646000fd5b6001600160a01b0316908115610f89576001600160a01b03169182156109a6576000828152806020526040812054828110610f6f57916040828260008051602061118a833981519152958760209652828652038282205586815280845220818154019055604051908152a3565b916064928463391434e360e21b8452600452602452604452fd5b634b637e8f60e11b600052600060045260246000fd5b600081815260066020908152604080832033845290915290205460ff1615610fc45750565b63e2517d3f60e01b6000523360045260245260446000fd5b60008181526006602090815260408083206001600160a01b038616845290915290205460ff166110645760008181526006602090815260408083206001600160a01b0395909516808452949091528120805460ff19166001179055339291907f2f8788117e7eff1d82e926ec794901d17c78024a50270940304540a733656f0d9080a4600190565b5050600090565b6005546001600160a01b0316330361107f57565b63118cdaa760e01b6000523360045260246000fd5b60008181526006602090815260408083206001600160a01b038616845290915290205460ff16156110645760008181526006602090815260408083206001600160a01b0395909516808452949091528120805460ff19169055339291907ff6391f5c32d9c69d2a47ea670b442974b53935d1edc7fd64eb21e047a839171b9080a4600190565b6001600160a01b03168015610f8957600091818352826020526040832054818110611170578160008051602061118a833981519152926020928587528684520360408620558060025403600255604051908152a3565b6064939263391434e360e21b8452600452602452604452fdfeddf252ad1be2c89b69c2b068fc378daa952ba7f163c4a11628f55a4df523b3efa2646970667358221220506bd9882b29ddec41f5b2c75dec71d50a4b9045ff98c1d6ed83ce48c5cbd2e564736f6c634300081c0033",
  "linkReferences": {},
  "deployedLinkReferences": {}
}