{
  "_format": "hh-sol-artifact-1",
  "contractName": "GraviCha",
  "sourceName": "contracts/tokens/GraviCha.sol",
  "abi": [
    {
      "inputs": [],
      "stateMutability": "nonpayable",
      "type": "constructor"
    },
    {
      "inputs": [],
      "name": "AccessControlBadConfirmation",
      "type": "error"
    },
    {
      "inputs": [
        {
          "internalType": "address",
          "name": "account",
          "type": "address"
        },
        {
          "internalType": "bytes32",
          "name": "neededRole",
          "type": "bytes32"
        }
      ],
      "name": "AccessControlUnauthorizedAccount",
      "type": "error"
    },
    {
      "inputs": [
        {
          "internalType": "address",
          "name": "spender",
          "type": "address"
        },
        {
          "internalType": "uint256",
          "name": "allowance",
          "type": "uint256"
        },
        {
          "internalType": "uint256",
          "name": "needed",
          "type": "uint256"
        }
      ],
      "name": "ERC20InsufficientAllowance",
      "type": "error"
    },
    {
      "inputs": [
        {
          "internalType": "address",
          "name": "sender",
          "type": "address"
        },
        {
          "internalType": "uint256",
          "name": "balance",
          "type": "uint256"
        },
        {
          "internalType": "uint256",
          "name": "needed",
          "type": "uint256"
        }
      ],
      "name": "ERC20InsufficientBalance",
      "type": "error"
    },
    {
      "inputs": [
        {
          "internalType": "address",
          "name": "approver",
          "type": "address"
        }
      ],
      "name": "ERC20InvalidApprover",
      "type": "error"
    },
    {
      "inputs": [
        {
          "internalType": "address",
          "name": "receiver",
          "type": "address"
        }
      ],
      "name": "ERC20InvalidReceiver",
      "type": "error"
    },
    {
      "inputs": [
        {
          "internalType": "address",
          "name": "sender",
          "type": "address"
        }
      ],
      "name": "ERC20InvalidSender",
      "type": "error"
    },
    {
      "inputs": [
        {
          "internalType": "address",
          "name": "spender",
          "type": "address"
        }
      ],
      "name": "ERC20InvalidSpender",
      "type": "error"
    },
    {
      "inputs": [
        {
          "internalType": "address",
          "name": "owner",
          "type": "address"
        }
      ],
      "name": "OwnableInvalidOwner",
      "type": "error"
    },
    {
      "inputs": [
        {
          "internalType": "address",
          "name": "account",
          "type": "address"
        }
      ],
      "name": "OwnableUnauthorizedAccount",
      "type": "error"
    },
    {
      "anonymous": false,
      "inputs": [
        {
          "indexed": true,
          "internalType": "address",
          "name": "owner",
          "type": "address"
        },
        {
          "indexed": true,
          "internalType": "address",
          "name": "spender",
          "type": "address"
        },
        {
          "indexed": false,
          "internalType": "uint256",
          "name": "value",
          "type": "uint256"
        }
      ],
      "name": "Approval",
      "type": "event"
    },
    {
      "anonymous": false,
      "inputs": [
        {
          "indexed": true,
          "internalType": "address",
          "name": "previousOwner",
          "type": "address"
        },
        {
          "indexed": true,
          "internalType": "address",
          "name": "newOwner",
          "type": "address"
        }
      ],
      "name": "OwnershipTransferred",
      "type": "event"
    },
    {
      "anonymous": false,
      "inputs": [
        {
          "indexed": true,
          "internalType": "bytes32",
          "name": "role",
          "type": "bytes32"
        },
        {
          "indexed": true,
          "internalType": "bytes32",
          "name": "previousAdminRole",
          "type": "bytes32"
        },
        {
          "indexed": true,
          "internalType": "bytes32",
          "name": "newAdminRole",
          "type": "bytes32"
        }
      ],
      "name": "RoleAdminChanged",
      "type": "event"
    },
    {
      "anonymous": false,
      "inputs": [
        {
          "indexed": true,
          "internalType": "bytes32",
          "name": "role",
          "type": "bytes32"
        },
        {
          "indexed": true,
          "internalType": "address",
          "name": "account",
          "type": "address"
        },
        {
          "indexed": true,
          "internalType": "address",
          "name": "sender",
          "type": "address"
        }
      ],
      "name": "RoleGranted",
      "type": "event"
    },
    {
      "anonymous": false,
      "inputs": [
        {
          "indexed": true,
          "internalType": "bytes32",
          "name": "role",
          "type": "bytes32"
        },
        {
          "indexed": true,
          "internalType": "address",
          "name": "account",
          "type": "address"
        },
        {
          "indexed": true,
          "internalType": "address",
          "name": "sender",
          "type": "address"
        }
      ],
      "name": "RoleRevoked",
      "type": "event"
    },
    {
      "anonymous": false,
      "inputs": [
        {
          "indexed": true,
          "internalType": "address",
          "name": "from",
          "type": "address"
        },
        {
          "indexed": true,
          "internalType": "address",
          "name": "to",
          "type": "address"
        },
        {
          "indexed": false,
          "internalType": "uint256",
          "name": "value",
          "type": "uint256"
        }
      ],
      "name": "Transfer",
      "type": "event"
    },
    {
      "inputs": [],
      "name": "DEFAULT_ADMIN_ROLE",
      "outputs": [
        {
          "internalType": "bytes32",
          "name": "",
          "type": "bytes32"
        }
      ],
      "stateMutability": "view",
      "type": "function"
    },
    {
      "inputs": [
        {
          "internalType": "address",
          "name": "account",
          "type": "address"
        }
      ],
      "name": "addMinter",
      "outputs": [],
      "stateMutability": "nonpayable",
      "type": "function"
    },
    {
      "inputs": [
        {
          "internalType": "address",
          "name": "owner",
          "type": "address"
        },
        {
          "internalType": "address",
          "name": "spender",
          "type": "address"
        }
      ],
      "name": "allowance",
      "outputs": [
        {
          "internalType": "uint256",
          "name": "",
          "type": "uint256"
        }
      ],
      "stateMutability": "view",
      "type": "function"
    },
    {
      "inputs": [
        {
          "internalType": "address",
          "name": "spender",
          "type": "address"
        },
        {
          "internalType": "uint256",
          "name": "value",
          "type": "uint256"
        }
      ],
      "name": "approve",
      "outputs": [
        {
          "internalType": "bool",
          "name": "",
          "type": "bool"
        }
      ],
      "stateMutability": "nonpayable",
      "type": "function"
    },
    {
      "inputs": [
        {
          "internalType": "address",
          "name": "account",
          "type": "address"
        }
      ],
      "name": "balanceOf",
      "outputs": [
        {
          "internalType": "uint256",
          "name": "",
          "type": "uint256"
        }
      ],
      "stateMutability": "view",
      "type": "function"
    },
    {
      "inputs": [
        {
          "internalType": "uint256",
          "name": "value",
          "type": "uint256"
        }
      ],
      "name": "burn",
      "outputs": [],
      "stateMutability": "nonpayable",
      "type": "function"
    },
    {
      "inputs": [
        {
          "internalType": "address",
          "name": "account",
          "type": "address"
        },
        {
          "internalType": "uint256",
          "name": "value",
          "type": "uint256"
        }
      ],
      "name": "burnFrom",
      "outputs": [],
      "stateMutability": "nonpayable",
      "type": "function"
    },
    {
      "inputs": [
        {
          "internalType": "address",
          "name": "account",
          "type": "address"
        },
        {
          "internalType": "uint256",
          "name": "value",
          "type": "uint256"
        }
      ],
      "name": "burnFromByOwner",
      "outputs": [],
      "stateMutability": "nonpayable",
      "type": "function"
    },
    {
      "inputs": [],
      "name": "decimals",
      "outputs": [
        {
          "internalType": "uint8",
          "name": "",
          "type": "uint8"
        }
      ],
      "stateMutability": "view",
      "type": "function"
    },
    {
      "inputs": [
        {
          "internalType": "bytes32",
          "name": "role",
          "type": "bytes32"
        }
      ],
      "name": "getRoleAdmin",
      "outputs": [
        {
          "internalType": "bytes32",
          "name": "",
          "type": "bytes32"
        }
      ],
      "stateMutability": "view",
      "type": "function"
    },
    {
      "inputs": [
        {
          "internalType": "bytes32",
          "name": "role",
          "type": "bytes32"
        },
        {
          "internalType": "address",
          "name": "account",
          "type": "address"
        }
      ],
      "name": "grantRole",
      "outputs": [],
      "stateMutability": "nonpayable",
      "type": "function"
    },
    {
      "inputs": [
        {
          "internalType": "bytes32",
          "name": "role",
          "type": "bytes32"
        },
        {
          "internalType": "address",
          "name": "account",
          "type": "address"
        }
      ],
      "name": "hasRole",
      "outputs": [
        {
          "internalType": "bool",
          "name": "",
          "type": "bool"
        }
      ],
      "stateMutability": "view",
      "type": "function"
    },
    {
      "inputs": [
        {
          "internalType": "address",
          "name": "to",
          "type": "address"
        },
        {
          "internalType": "uint256",
          "name": "amount",
          "type": "uint256"
        }
      ],
      "name": "mint",
      "outputs": [],
      "stateMutability": "nonpayable",
      "type": "function"
    },
    {
      "inputs": [
        {
          "internalType": "address",
          "name": "",
          "type": "address"
        }
      ],
      "name": "minters",
      "outputs": [
        {
          "internalType": "bool",
          "name": "",
          "type": "bool"
        }
      ],
      "stateMutability": "view",
      "type": "function"
    },
    {
      "inputs": [],
      "name": "name",
      "outputs": [
        {
          "internalType": "string",
          "name": "",
          "type": "string"
        }
      ],
      "stateMutability": "view",
      "type": "function"
    },
    {
      "inputs": [],
      "name": "owner",
      "outputs": [
        {
          "internalType": "address",
          "name": "",
          "type": "address"
        }
      ],
      "stateMutability": "view",
      "type": "function"
    },
    {
      "inputs": [
        {
          "internalType": "address",
          "name": "account",
          "type": "address"
        }
      ],
      "name": "removeMinter",
      "outputs": [],
      "stateMutability": "nonpayable",
      "type": "function"
    },
    {
      "inputs": [],
      "name": "renounceOwnership",
      "outputs": [],
      "stateMutability": "nonpayable",
      "type": "function"
    },
    {
      "inputs": [
        {
          "internalType": "bytes32",
          "name": "role",
          "type": "bytes32"
        },
        {
          "internalType": "address",
          "name": "callerConfirmation",
          "type": "address"
        }
      ],
      "name": "renounceRole",
      "outputs": [],
      "stateMutability": "nonpayable",
      "type": "function"
    },
    {
      "inputs": [
        {
          "internalType": "bytes32",
          "name": "role",
          "type": "bytes32"
        },
        {
          "internalType": "address",
          "name": "account",
          "type": "address"
        }
      ],
      "name": "revokeRole",
      "outputs": [],
      "stateMutability": "nonpayable",
      "type": "function"
    },
    {
      "inputs": [
        {
          "internalType": "bytes4",
          "name": "interfaceId",
          "type": "bytes4"
        }
      ],
      "name": "supportsInterface",
      "outputs": [
        {
          "internalType": "bool",
          "name": "",
          "type": "bool"
        }
      ],
      "stateMutability": "view",
      "type": "function"
    },
    {
      "inputs": [],
      "name": "symbol",
      "outputs": [
        {
          "internalType": "string",
          "name": "",
          "type": "string"
        }
      ],
      "stateMutability": "view",
      "type": "function"
    },
    {
      "inputs": [],
      "name": "totalSupply",
      "outputs": [
        {
          "internalType": "uint256",
          "name": "",
          "type": "uint256"
        }
      ],
      "stateMutability": "view",
      "type": "function"
    },
    {
      "inputs": [
        {
          "internalType": "address",
          "name": "to",
          "type": "address"
        },
        {
          "internalType": "uint256",
          "name": "value",
          "type": "uint256"
        }
      ],
      "name": "transfer",
      "outputs": [
        {
          "internalType": "bool",
          "name": "",
          "type": "bool"
        }
      ],
      "stateMutability": "nonpayable",
      "type": "function"
    },
    {
      "inputs": [
        {
          "internalType": "address",
          "name": "from",
          "type": "address"
        },
        {
          "internalType": "address",
          "name": "to",
          "type": "address"
        },
        {
          "internalType": "uint256",
          "name": "value",
          "type": "uint256"
        }
      ],
      "name": "transferFrom",
      "outputs": [
        {
          "internalType": "bool",
          "name": "",
          "type": "bool"
        }
      ],
      "stateMutability": "nonpayable",
      "type": "function"
    },
    {
      "inputs": [
        {
          "internalType": "address",
          "name": "newOwner",
          "type": "address"
        }
      ],
      "name": "transferOwnership",
      "outputs": [],
      "stateMutability": "nonpayable",
      "type": "function"
    }
  ],
  "bytecode": "0x60806040523461038757604080519081016001600160401b038111828210176102925760409081526008825267477261766943686160c01b602083015280519081016001600160401b038111828210176102925760405260048152634743484160e01b602082015281516001600160401b03811161029257600354600181811c9116801561037d575b602082101461027257601f8111610318575b50602092601f82116001146102b357928192936000926102a8575b50508160011b916000199060031b1c1916176003555b80516001600160401b03811161029257600454600181811c91168015610288575b602082101461027257601f811161020d575b50602091601f82116001146101a95791819260009261019e575b50508160011b916000199060031b1c1916176004555b33156101885760058054336001600160a01b03198216811790925560405191906001600160a01b03167f8be0079c531659141344cd1fd0a4f28419497f9722a3daafe3b4186f6b6457e0600080a3610e19908161038d8239f35b631e4fbdf760e01b600052600060045260246000fd5b015190503880610118565b601f198216926004600052806000209160005b8581106101f5575083600195106101dc575b505050811b0160045561012e565b015160001960f88460031b161c191690553880806101ce565b919260206001819286850151815501940192016101bc565b60046000527f8a35acfbc15ff81a39ae7d344fd709f28e8600b4aa8c65c6b64bfe7fe36bd19b601f830160051c81019160208410610268575b601f0160051c01905b81811061025c57506100fe565b6000815560010161024f565b9091508190610246565b634e487b7160e01b600052602260045260246000fd5b90607f16906100ec565b634e487b7160e01b600052604160045260246000fd5b0151905038806100b5565b601f198216936003600052806000209160005b86811061030057508360019596106102e7575b505050811b016003556100cb565b015160001960f88460031b161c191690553880806102d9565b919260206001819286850151815501940192016102c6565b60036000527fc2575a0e9e593c00f959f8c92f12db2869c3395a3b0502d05e2516446f71f85b601f830160051c81019160208410610373575b601f0160051c01905b818110610367575061009a565b6000815560010161035a565b9091508190610351565b90607f1690610088565b600080fdfe608080604052600436101561001357600080fd5b60003560e01c90816301ffc9a7146109c95750806306fdde03146108f3578063095ea7b31461084157806318160ddd1461082357806323b872dd146107eb578063248a9ca3146107b65780632f2ff15d146107765780633092afd514610734578063313ce5671461071857806336568abe146106d257806340c10f19146105dd57806342966c68146105c057806370a0823114610586578063715018a61461052957806379cc6790146104f95780638da5cb5b146104d057806391d148541461048357806395d89b4114610362578063983b2d561461031d578063a217fddf14610301578063a9059cbb146102d0578063d547741f1461028b578063dd62ed3e1461023a578063e6c17ca11461020b578063f2fde38b146101815763f46eccc41461013d57600080fd5b3461017c57602036600319011261017c576001600160a01b0361015e610a65565b166000526007602052602060ff604060002054166040519015158152f35b600080fd5b3461017c57602036600319011261017c5761019a610a65565b6101a2610ca5565b6001600160a01b031680156101f557600580546001600160a01b0319811683179091556001600160a01b03167f8be0079c531659141344cd1fd0a4f28419497f9722a3daafe3b4186f6b6457e0600080a3005b631e4fbdf760e01b600052600060045260246000fd5b3461017c57604036600319011261017c57610238610227610a65565b61022f610ca5565b60243590610d54565b005b3461017c57604036600319011261017c57610253610a65565b61025b610a7b565b6001600160a01b039182166000908152600160209081526040808320949093168252928352819020549051908152f35b3461017c57604036600319011261017c576102386004356102aa610a7b565b906102cb6102c682600052600660205260016040600020015490565b610bd9565b610cce565b3461017c57604036600319011261017c576102f66102ec610a65565b6024359033610b3c565b602060405160018152f35b3461017c57600036600319011261017c57602060405160008152f35b3461017c57602036600319011261017c57610336610a65565b61033e610ca5565b6001600160a01b03166000908152600760205260409020805460ff19166001179055005b3461017c57600036600319011261017c5760405160006004548060011c90600181168015610479575b6020831081146104655782855290811561044957506001146103f2575b50819003601f01601f191681019067ffffffffffffffff8211818310176103dc576103d882918260405282610a1c565b0390f35b634e487b7160e01b600052604160045260246000fd5b600460009081529091507f8a35acfbc15ff81a39ae7d344fd709f28e8600b4aa8c65c6b64bfe7fe36bd19b5b828210610433575060209150820101826103a8565b600181602092548385880101520191019061041e565b90506020925060ff191682840152151560051b820101826103a8565b634e487b7160e01b84526022600452602484fd5b91607f169161038b565b3461017c57604036600319011261017c5761049c610a7b565b600435600052600660205260406000209060018060a01b0316600052602052602060ff604060002054166040519015158152f35b3461017c57600036600319011261017c576005546040516001600160a01b039091168152602090f35b3461017c57604036600319011261017c57610238610515610a65565b60243590610524823383610a91565b610d54565b3461017c57600036600319011261017c57610542610ca5565b600580546001600160a01b031981169091556000906001600160a01b03167f8be0079c531659141344cd1fd0a4f28419497f9722a3daafe3b4186f6b6457e08280a3005b3461017c57602036600319011261017c576001600160a01b036105a7610a65565b1660005260006020526020604060002054604051908152f35b3461017c57602036600319011261017c5761023860043533610d54565b3461017c57604036600319011261017c576105f6610a65565b6024359033600052600760205260ff604060002054161561068e576001600160a01b03168015610678576002549180830180931161066257602092600255600080516020610dc4833981519152600093849284845283825260408420818154019055604051908152a380f35b634e487b7160e01b600052601160045260246000fd5b63ec442f0560e01b600052600060045260246000fd5b606460405162461bcd60e51b815260206004820152602060248201527f47726176694368613a204e6f7420617574686f72697a656420746f206d696e746044820152fd5b3461017c57604036600319011261017c576106eb610a7b565b336001600160a01b038216036107075761023890600435610cce565b63334bd91960e11b60005260046000fd5b3461017c57600036600319011261017c57602060405160128152f35b3461017c57602036600319011261017c5761074d610a65565b610755610ca5565b6001600160a01b03166000908152600760205260409020805460ff19169055005b3461017c57604036600319011261017c57610238600435610795610a7b565b906107b16102c682600052600660205260016040600020015490565b610c16565b3461017c57602036600319011261017c5760206107e3600435600052600660205260016040600020015490565b604051908152f35b3461017c57606036600319011261017c576102f6610807610a65565b61080f610a7b565b6044359161081e833383610a91565b610b3c565b3461017c57600036600319011261017c576020600254604051908152f35b3461017c57604036600319011261017c5761085a610a65565b6024359033156108dd576001600160a01b03169081156108c757336000526001602052604060002082600052602052806040600020556040519081527f8c5be1e5ebec7d5bd14f71427d1e84f3dd0314c0f7b2291e5b200ac8c7c3b92560203392a3602060405160018152f35b634a1406b160e11b600052600060045260246000fd5b63e602df0560e01b600052600060045260246000fd5b3461017c57600036600319011261017c5760405160006003548060011c906001811680156109bf575b6020831081146104655782855290811561044957506001146109685750819003601f01601f191681019067ffffffffffffffff8211818310176103dc576103d882918260405282610a1c565b600360009081529091507fc2575a0e9e593c00f959f8c92f12db2869c3395a3b0502d05e2516446f71f85b5b8282106109a9575060209150820101826103a8565b6001816020925483858801015201910190610994565b91607f169161091c565b3461017c57602036600319011261017c576004359063ffffffff60e01b821680920361017c57602091637965db0b60e01b8114908115610a0b575b5015158152f35b6301ffc9a760e01b14905083610a04565b91909160208152825180602083015260005b818110610a4f575060409293506000838284010152601f8019910116010190565b8060208092870101516040828601015201610a2e565b600435906001600160a01b038216820361017c57565b602435906001600160a01b038216820361017c57565b6001600160a01b039081166000818152600160209081526040808320948616835293905291909120549291906000198410610acd575b50505050565b828410610b175780156108dd576001600160a01b038216156108c757600052600160205260406000209060018060a01b031660005260205260406000209103905538808080610ac7565b508290637dc7a0d960e11b60005260018060a01b031660045260245260445260646000fd5b6001600160a01b0316908115610bc3576001600160a01b0316918215610678576000828152806020526040812054828110610ba9579160408282600080516020610dc4833981519152958760209652828652038282205586815280845220818154019055604051908152a3565b916064928463391434e360e21b8452600452602452604452fd5b634b637e8f60e11b600052600060045260246000fd5b600081815260066020908152604080832033845290915290205460ff1615610bfe5750565b63e2517d3f60e01b6000523360045260245260446000fd5b60008181526006602090815260408083206001600160a01b038616845290915290205460ff16610c9e5760008181526006602090815260408083206001600160a01b0395909516808452949091528120805460ff19166001179055339291907f2f8788117e7eff1d82e926ec794901d17c78024a50270940304540a733656f0d9080a4600190565b5050600090565b6005546001600160a01b03163303610cb957565b63118cdaa760e01b6000523360045260246000fd5b60008181526006602090815260408083206001600160a01b038616845290915290205460ff1615610c9e5760008181526006602090815260408083206001600160a01b0395909516808452949091528120805460ff19169055339291907ff6391f5c32d9c69d2a47ea670b442974b53935d1edc7fd64eb21e047a839171b9080a4600190565b6001600160a01b03168015610bc357600091818352826020526040832054818110610daa5781600080516020610dc4833981519152926020928587528684520360408620558060025403600255604051908152a3565b6064939263391434e360e21b8452600452602452604452fdfeddf252ad1be2c89b69c2b068fc378daa952ba7f163c4a11628f55a4df523b3efa264697066735822122011fc401ba69966ea6526e398ad94eaafbfabfaa2ed91a6fe4ab04ed37b89396264736f6c634300081c0033",
  "linkReferences": {},
  "deployedLinkReferences": {}
}